{
  "_format": "hh-sol-artifact-1",
  "contractName": "WithdrawFromZkDvpVerifierk2",
  "sourceName": "src/rayls-protocol/Enygma/WithdrawFromZkDvpVerifierk2.sol",
  "abi": [
    {
      "inputs": [
        {
          "internalType": "uint256[2]",
          "name": "_pA",
          "type": "uint256[2]"
        },
        {
          "internalType": "uint256[2][2]",
          "name": "_pB",
          "type": "uint256[2][2]"
        },
        {
          "internalType": "uint256[2]",
          "name": "_pC",
          "type": "uint256[2]"
        },
        {
          "internalType": "uint256[23]",
          "name": "_pubSignals",
          "type": "uint256[23]"
        }
      ],
      "name": "verifyProof",
      "outputs": [
        {
          "internalType": "bool",
          "name": "",
          "type": "bool"
        }
      ],
      "stateMutability": "view",
      "type": "function"
    }
  ],
  "bytecode": "0x608060405234801561001057600080fd5b50610d7a806100206000396000f3fe608060405234801561001057600080fd5b506004361061002b5760003560e01c8063a0c2a19a14610030575b600080fd5b61004361003e366004610cde565b610057565b604051901515815260200160405180910390f35b6000610b69565b7f30644e72e131a029b85045b68181585d2833e84879b9709143e1f593f0000001811061008f576000805260206000f35b50565b600060405183815284602082015285604082015260408160608360076107d05a03fa9150816100c5576000805260206000f35b825160408201526020830151606082015260408360808360066107d05a03fa915050806100f6576000805260206000f35b5050505050565b7f1f41f12caddad26e4fa486434000e6bef0f184317c9f717d316957a991c3d96385527f2a0b4078e990134e8c10bfc7ee00da11a84f6db5f521c64e462a5ca76e5e2e3060208601526000608086018661019a87357f266bce10ecfde5d0be209639baa73f937007dc368cd50caa6dac188a9ad77f157f2a7417e69c96f92cd599180dcb8fbe20a086ed14eaf719da115c7883d97fb4c884610092565b6101ea60208801357f21f888eed76b061cba482c650089df459ddcdf2ed987384f14bce8dd2cad7deb7f12ad9b437d15343a4fb55814eafad9ca02e1e0db26677cbd3bc174cc1f238a9c84610092565b61023a60408801357f2becde1e8cf88f4e697de9317d2793d69a0ca469d905dd7f52f75557e1e7b2fe7f202853d1cd199fbe67fb55b4ae12d7b07b04571eeaa27eb356dac6aa73e0ae9084610092565b61028a60608801357f0b5a21e0c21a7eb3da28951d32036172b3078cf0eaf668f266c2beb4e239f2897f0fcf98a3f4e73c2f8a654987b97d149f76251cabfe47122d66c08f4fef2ceb4084610092565b6102da60808801357f0a5fbf36cce19e91c402da17648e242fd66bc0b49b18f0ee0730e00094f5db027f0a6dab4bd5d3e9d92e83f0ca50603d05f9cdf3e87d32896efc1b576b76937b8784610092565b61032a60a08801357f08844bedb7c19f777f9deb3e15d8a74992932d254f3a309772c657bd9db5c2f57f0e53dd10f8f0d3218b3f5aee1b914eb01349477fc40e6ce3e2f50ab6c4e2e84a84610092565b61037a60c08801357f20941e15cad0180aa2215a86b9ad9d52cfbf2ced42a6794019c32aa3bdadabb47f24b4d0b2cf4d73eec2267e195c9811b96c8a9d1be1a9f2fa010061769e47bb0f84610092565b6103ca60e08801357f2fb86bab169c88eb8ea250f254237ea1c91d5cc3b84768eb69d5d13d6e1a409b7f2d6dcccf7a95a86caf8684a89335a910820e0507993eb1856f8163c391f6adb584610092565b61041b6101008801357f0d83278c445cbfcda749fc10e8153933e9f8c24019bf274cc389a382782f1fbd7f228ac103df9313b1c76e2dd4267885308343c3fdcd680fe7c69d08c62bf2fc2a84610092565b61046c6101208801357f22f1e7e43146874a1b3cbcf7f40ba6eb9c804532c7c2cb6f20286afb51dbfeba7f1e7f02638b04957532b150cc8268af2e3aa85db06d0c2f7aa5a2fd64874687f784610092565b6104bd6101408801357f2868154ee768ad7532ee11ebccf2e17f7d6a5c8d17afec8198034908e10182f07f19de08b788f5a3775055066bca159fcf0f8648a5b6bdb0dedc0f1dfaa931431c84610092565b61050e6101608801357f2a27e20e01ee2762566aecfd6c1f468dd7feab6674c3711f4a0279656fdca2447f0b5dff18442dd086b9f22bd33f121317393579eeb94e58bc763cf2d133e1ab8f84610092565b61055f6101808801357f2d9a3a1813a2c1e60da8b3215987a9b89053d3ca30d762cabfd384cd6d86448f7f1d07032c81285811f1a313232cbc733ed6897b5514cffe234388db2bd227190b84610092565b6105b06101a08801357f062ccb8f5a467a33a505c1864a36876d096be4a9f873b9bc20ccd068515c666d7f21122a2e4c9b1d7939322383ad1844671fbd77cb03330115d22a0c52276aebd584610092565b6106016101c08801357f14fc1aa950ca472ab32dbbe7755d33609ad8713f824af013569d16782bef61967f087ac9aeafab9401cf16ad04b97b7583947a1a1f729a831d27a13bcaf62aa7bf84610092565b6106526101e08801357f080be089d94eb8a0887d9fd1334db024aff575cd846b910e371b661aff8316b57f0aed96de30785657d3a1ba61fae9c1a40c8203fd658cbdecff63d144275575a384610092565b6106a36102008801357f1f045da4422ffe28e2bdc240037cd900c8ff38a4559006bf21590f81689267f37f0ea8163784ab0e2c2f9cdb3ffc5be40c6b97a249162c81e941da5bda6ac7442584610092565b6106f46102208801357f0db1e0ecb9644c2c8c62c9a1044103dcdeecc1b2f4c27bc2eea2a83a1cf6fdf27f2649f042d6a94a39b40dd206b82fade62f82e1124200890599e94b510f01d34984610092565b6107456102408801357f1801a7ac819e38185dc900b3f33f1b2e7470efa648eb635d82b63904af3614eb7f05debb3e0a7f38624c373dd2d34008190e26d28c316beaaf5e3d6dea2d49e92c84610092565b6107966102608801357f2df03faf869285939a59e90c517163a8ceb3e8af0943b3af1320f47f643c812d7f0df833cc9ec0ac16efa1799d4bc8fbcf6493a7c800dc1b57b7d6ba8ef7d7ff1a84610092565b6107e76102808801357f293aecf1c7b120516f3c7e3cec01dae03e78bc21ddb6f99fd79b4fe669f12b6d7f24fac991c969b79c064491d6ecd2f13ebbc111624dc96edb4b5d40de55c8807784610092565b6108386102a08801357f185fc7643a7581dc3af92e3c0f0507fecb2d0cbf03c8aacdc17f7e092d9b425f7f20f7dd37a5eff87c19430e3a7e35ea92991f214e5abf11e8f4d576c5a86ece3584610092565b6108896102c08801357f0e7afe24bbcdcb66a2733d4d0ee5d5dd1dae3b77b2c708b869d52bfe6595d9157f20b83422dc1e40f595eded11ad240c63f46e31bf0f3d3ca913149625c3a4b57984610092565b50823581527f30644e72e131a029b85045b68181585d97816a916871ca8d3c208c16d87cfd4760208401357f30644e72e131a029b85045b68181585d97816a916871ca8d3c208c16d87cfd4703066020820152833560408201526020840135606082015260408401356080820152606084013560a08201527f2d4d9aa7e302d9df41749d5507949d05dbea33fbb16c643b22f599a2be6df2e260c08201527f14bedd503c37ceb061d8ec60209fe345ce89830a19230301f076caff004d192660e08201527f0967032fcbf776d1afc985f88877f182d38480a653f2decaa9794cbc3bf3060c6101008201527f0e187847ad4c798374d0d6732bf501847dd68bc0e071241e0213bc7fc13db7ab6101208201527f304cfbd1e08a704a99f5e847d93f8c3caafddec46b7a0d379da69a4d112346a76101408201527f1739c1b1a457a8c7313123d24d2f9192f896b7c63eea05a9d57f06547ad0cec8610160820152600087015161018082015260206000018701516101a08201527f198e9393920d483a7260bfb731fb5d25f1aa493335a9e71297e485b7aef312c26101c08201527f1800deef121f1e76426a00665e5c4479674322d4f75edadd46debd5cd992f6ed6101e08201527f090689d0585ff075ec9e99ad690c3395bc4b313370b38ef355acdadcd122975b6102008201527f12c85ea5db8c6deb4aab71808dcb408fe3d1e7690c43d37b4ce6cc0166fa7daa610220820152843561024082015260208501356102608201527f23d00d0738a88bee593737fec5f419a131f3eb3bfec77ec9f1daaaac420801e86102808201527f1243e251d2ff39700b22ae8ca72a1e8f0c8b1971a639e04b3ab1d740ad53c57e6102a08201527f2fa0fb15653d47750289dedcf083f1555999e4f091d9553c34bbcf009f03230c6102c08201527f12934a1b3e9d33347518118c179533cd8c97fd174e98095a32a4209da9e1cc886102e08201526020816103008360086107d05a03fa9051169695505050505050565b6040516103808101604052610b81600084013561005e565b610b8e602084013561005e565b610b9b604084013561005e565b610ba8606084013561005e565b610bb5608084013561005e565b610bc260a084013561005e565b610bcf60c084013561005e565b610bdc60e084013561005e565b610bea61010084013561005e565b610bf861012084013561005e565b610c0661014084013561005e565b610c1461016084013561005e565b610c2261018084013561005e565b610c306101a084013561005e565b610c3e6101c084013561005e565b610c4c6101e084013561005e565b610c5a61020084013561005e565b610c6861022084013561005e565b610c7661024084013561005e565b610c8461026084013561005e565b610c9261028084013561005e565b610ca06102a084013561005e565b610cae6102c084013561005e565b610cbb818486888a6100fd565b90508060005260206000f35b8060408101831015610cd857600080fd5b92915050565b6000806000806103e0808688031215610cf657600080fd5b610d008787610cc7565b945060c0860187811115610d1357600080fd5b604087019450610d238882610cc7565b935050868187011115610d3557600080fd5b5092959194509261010001915056fea26469706673582212209cc69d9c42dc14bf6253456557eae1262a19539bbb974f612e191243a481376e64736f6c63430008180033",
  "linkReferences": {},
  "deployedLinkReferences": {}
}