{
  "_format": "hh-sol-artifact-1",
  "contractName": "EndpointV2Example",
  "sourceName": "src/rayls-protocol/test-contracts/EndpointV2Example.sol",
  "abi": [
    {
      "inputs": [
        {
          "internalType": "address",
          "name": "target",
          "type": "address"
        }
      ],
      "name": "AddressEmptyCode",
      "type": "error"
    },
    {
      "inputs": [
        {
          "internalType": "address",
          "name": "implementation",
          "type": "address"
        }
      ],
      "name": "ERC1967InvalidImplementation",
      "type": "error"
    },
    {
      "inputs": [],
      "name": "ERC1967NonPayable",
      "type": "error"
    },
    {
      "inputs": [],
      "name": "FailedInnerCall",
      "type": "error"
    },
    {
      "inputs": [],
      "name": "InvalidInitialization",
      "type": "error"
    },
    {
      "inputs": [],
      "name": "NotInitializing",
      "type": "error"
    },
    {
      "inputs": [
        {
          "internalType": "address",
          "name": "owner",
          "type": "address"
        }
      ],
      "name": "OwnableInvalidOwner",
      "type": "error"
    },
    {
      "inputs": [
        {
          "internalType": "address",
          "name": "account",
          "type": "address"
        }
      ],
      "name": "OwnableUnauthorizedAccount",
      "type": "error"
    },
    {
      "inputs": [],
      "name": "UUPSUnauthorizedCallContext",
      "type": "error"
    },
    {
      "inputs": [
        {
          "internalType": "bytes32",
          "name": "slot",
          "type": "bytes32"
        }
      ],
      "name": "UUPSUnsupportedProxiableUUID",
      "type": "error"
    },
    {
      "anonymous": false,
      "inputs": [
        {
          "indexed": false,
          "internalType": "uint64",
          "name": "version",
          "type": "uint64"
        }
      ],
      "name": "Initialized",
      "type": "event"
    },
    {
      "anonymous": false,
      "inputs": [
        {
          "indexed": false,
          "internalType": "bytes32",
          "name": "batchId",
          "type": "bytes32"
        },
        {
          "indexed": false,
          "internalType": "address",
          "name": "from",
          "type": "address"
        },
        {
          "components": [
            {
              "internalType": "uint256",
              "name": "toChainId",
              "type": "uint256"
            },
            {
              "internalType": "address",
              "name": "to",
              "type": "address"
            },
            {
              "components": [
                {
                  "components": [
                    {
                      "internalType": "bool",
                      "name": "valid",
                      "type": "bool"
                    },
                    {
                      "internalType": "uint256",
                      "name": "nonce",
                      "type": "uint256"
                    },
                    {
                      "components": [
                        {
                          "internalType": "bool",
                          "name": "valid",
                          "type": "bool"
                        },
                        {
                          "internalType": "enum ResourceDeployType",
                          "name": "resourceDeployType",
                          "type": "uint8"
                        },
                        {
                          "internalType": "bytes",
                          "name": "bytecode",
                          "type": "bytes"
                        },
                        {
                          "internalType": "enum RaylsBridgeableERC",
                          "name": "factoryTemplate",
                          "type": "uint8"
                        },
                        {
                          "internalType": "bytes",
                          "name": "initializerParams",
                          "type": "bytes"
                        }
                      ],
                      "internalType": "struct NewResourceMetadata",
                      "name": "newResourceMetadata",
                      "type": "tuple"
                    },
                    {
                      "internalType": "bytes32",
                      "name": "resourceId",
                      "type": "bytes32"
                    },
                    {
                      "internalType": "bytes",
                      "name": "lockData",
                      "type": "bytes"
                    },
                    {
                      "internalType": "bytes",
                      "name": "revertPayloadDataSender",
                      "type": "bytes"
                    },
                    {
                      "internalType": "bytes",
                      "name": "revertPayloadDataReceiver",
                      "type": "bytes"
                    },
                    {
                      "components": [
                        {
                          "internalType": "enum RaylsBridgeableERC",
                          "name": "assetType",
                          "type": "uint8"
                        },
                        {
                          "internalType": "uint256",
                          "name": "id",
                          "type": "uint256"
                        },
                        {
                          "internalType": "address",
                          "name": "from",
                          "type": "address"
                        },
                        {
                          "internalType": "address",
                          "name": "to",
                          "type": "address"
                        },
                        {
                          "internalType": "address",
                          "name": "tokenAddress",
                          "type": "address"
                        },
                        {
                          "internalType": "uint256",
                          "name": "amount",
                          "type": "uint256"
                        }
                      ],
                      "internalType": "struct BridgedTransferMetadata",
                      "name": "transferMetadata",
                      "type": "tuple"
                    },
                    {
                      "internalType": "bool",
                      "name": "ignoresNonce",
                      "type": "bool"
                    }
                  ],
                  "internalType": "struct RaylsMessageMetadata",
                  "name": "messageMetadata",
                  "type": "tuple"
                },
                {
                  "internalType": "bytes",
                  "name": "payload",
                  "type": "bytes"
                }
              ],
              "internalType": "struct RaylsMessage",
              "name": "data",
              "type": "tuple"
            },
            {
              "internalType": "bytes32",
              "name": "messageId",
              "type": "bytes32"
            }
          ],
          "indexed": false,
          "internalType": "struct BatchMessage[]",
          "name": "messages",
          "type": "tuple[]"
        }
      ],
      "name": "MessageBatchDispatched",
      "type": "event"
    },
    {
      "anonymous": false,
      "inputs": [
        {
          "indexed": true,
          "internalType": "bytes32",
          "name": "messageId",
          "type": "bytes32"
        },
        {
          "indexed": true,
          "internalType": "address",
          "name": "from",
          "type": "address"
        },
        {
          "indexed": true,
          "internalType": "uint256",
          "name": "toChainId",
          "type": "uint256"
        },
        {
          "indexed": false,
          "internalType": "address",
          "name": "to",
          "type": "address"
        },
        {
          "components": [
            {
              "components": [
                {
                  "internalType": "bool",
                  "name": "valid",
                  "type": "bool"
                },
                {
                  "internalType": "uint256",
                  "name": "nonce",
                  "type": "uint256"
                },
                {
                  "components": [
                    {
                      "internalType": "bool",
                      "name": "valid",
                      "type": "bool"
                    },
                    {
                      "internalType": "enum ResourceDeployType",
                      "name": "resourceDeployType",
                      "type": "uint8"
                    },
                    {
                      "internalType": "bytes",
                      "name": "bytecode",
                      "type": "bytes"
                    },
                    {
                      "internalType": "enum RaylsBridgeableERC",
                      "name": "factoryTemplate",
                      "type": "uint8"
                    },
                    {
                      "internalType": "bytes",
                      "name": "initializerParams",
                      "type": "bytes"
                    }
                  ],
                  "internalType": "struct NewResourceMetadata",
                  "name": "newResourceMetadata",
                  "type": "tuple"
                },
                {
                  "internalType": "bytes32",
                  "name": "resourceId",
                  "type": "bytes32"
                },
                {
                  "internalType": "bytes",
                  "name": "lockData",
                  "type": "bytes"
                },
                {
                  "internalType": "bytes",
                  "name": "revertPayloadDataSender",
                  "type": "bytes"
                },
                {
                  "internalType": "bytes",
                  "name": "revertPayloadDataReceiver",
                  "type": "bytes"
                },
                {
                  "components": [
                    {
                      "internalType": "enum RaylsBridgeableERC",
                      "name": "assetType",
                      "type": "uint8"
                    },
                    {
                      "internalType": "uint256",
                      "name": "id",
                      "type": "uint256"
                    },
                    {
                      "internalType": "address",
                      "name": "from",
                      "type": "address"
                    },
                    {
                      "internalType": "address",
                      "name": "to",
                      "type": "address"
                    },
                    {
                      "internalType": "address",
                      "name": "tokenAddress",
                      "type": "address"
                    },
                    {
                      "internalType": "uint256",
                      "name": "amount",
                      "type": "uint256"
                    }
                  ],
                  "internalType": "struct BridgedTransferMetadata",
                  "name": "transferMetadata",
                  "type": "tuple"
                },
                {
                  "internalType": "bool",
                  "name": "ignoresNonce",
                  "type": "bool"
                }
              ],
              "internalType": "struct RaylsMessageMetadata",
              "name": "messageMetadata",
              "type": "tuple"
            },
            {
              "internalType": "bytes",
              "name": "payload",
              "type": "bytes"
            }
          ],
          "indexed": false,
          "internalType": "struct RaylsMessage",
          "name": "data",
          "type": "tuple"
        }
      ],
      "name": "MessageDispatched",
      "type": "event"
    },
    {
      "anonymous": false,
      "inputs": [
        {
          "indexed": true,
          "internalType": "address",
          "name": "previousOwner",
          "type": "address"
        },
        {
          "indexed": true,
          "internalType": "address",
          "name": "newOwner",
          "type": "address"
        }
      ],
      "name": "OwnershipTransferred",
      "type": "event"
    },
    {
      "anonymous": false,
      "inputs": [
        {
          "indexed": false,
          "internalType": "uint256",
          "name": "blockNumber",
          "type": "uint256"
        }
      ],
      "name": "UpdateDHKeysRequest",
      "type": "event"
    },
    {
      "anonymous": false,
      "inputs": [
        {
          "indexed": true,
          "internalType": "address",
          "name": "implementation",
          "type": "address"
        }
      ],
      "name": "Upgraded",
      "type": "event"
    },
    {
      "inputs": [],
      "name": "UPGRADE_INTERFACE_VERSION",
      "outputs": [
        {
          "internalType": "string",
          "name": "",
          "type": "string"
        }
      ],
      "stateMutability": "view",
      "type": "function"
    },
    {
      "inputs": [],
      "name": "chainId",
      "outputs": [
        {
          "internalType": "uint256",
          "name": "",
          "type": "uint256"
        }
      ],
      "stateMutability": "view",
      "type": "function"
    },
    {
      "inputs": [
        {
          "internalType": "string",
          "name": "",
          "type": "string"
        }
      ],
      "name": "commitChainAddress",
      "outputs": [
        {
          "internalType": "address",
          "name": "",
          "type": "address"
        }
      ],
      "stateMutability": "view",
      "type": "function"
    },
    {
      "inputs": [],
      "name": "commitChainId",
      "outputs": [
        {
          "internalType": "uint256",
          "name": "",
          "type": "uint256"
        }
      ],
      "stateMutability": "view",
      "type": "function"
    },
    {
      "inputs": [
        {
          "internalType": "address",
          "name": "_messageExecutor",
          "type": "address"
        },
        {
          "internalType": "address",
          "name": "_contractFactory",
          "type": "address"
        },
        {
          "internalType": "address",
          "name": "_participantStorageReplica",
          "type": "address"
        },
        {
          "internalType": "address",
          "name": "_tokenRegistryReplica",
          "type": "address"
        }
      ],
      "name": "configureContracts",
      "outputs": [],
      "stateMutability": "nonpayable",
      "type": "function"
    },
    {
      "inputs": [],
      "name": "contractVersion",
      "outputs": [
        {
          "internalType": "uint256",
          "name": "",
          "type": "uint256"
        }
      ],
      "stateMutability": "pure",
      "type": "function"
    },
    {
      "inputs": [
        {
          "internalType": "bytes32",
          "name": "messageId",
          "type": "bytes32"
        },
        {
          "internalType": "address",
          "name": "from",
          "type": "address"
        },
        {
          "internalType": "uint256",
          "name": "toChainId",
          "type": "uint256"
        },
        {
          "internalType": "address",
          "name": "to",
          "type": "address"
        },
        {
          "components": [
            {
              "components": [
                {
                  "internalType": "bool",
                  "name": "valid",
                  "type": "bool"
                },
                {
                  "internalType": "uint256",
                  "name": "nonce",
                  "type": "uint256"
                },
                {
                  "components": [
                    {
                      "internalType": "bool",
                      "name": "valid",
                      "type": "bool"
                    },
                    {
                      "internalType": "enum ResourceDeployType",
                      "name": "resourceDeployType",
                      "type": "uint8"
                    },
                    {
                      "internalType": "bytes",
                      "name": "bytecode",
                      "type": "bytes"
                    },
                    {
                      "internalType": "enum RaylsBridgeableERC",
                      "name": "factoryTemplate",
                      "type": "uint8"
                    },
                    {
                      "internalType": "bytes",
                      "name": "initializerParams",
                      "type": "bytes"
                    }
                  ],
                  "internalType": "struct NewResourceMetadata",
                  "name": "newResourceMetadata",
                  "type": "tuple"
                },
                {
                  "internalType": "bytes32",
                  "name": "resourceId",
                  "type": "bytes32"
                },
                {
                  "internalType": "bytes",
                  "name": "lockData",
                  "type": "bytes"
                },
                {
                  "internalType": "bytes",
                  "name": "revertPayloadDataSender",
                  "type": "bytes"
                },
                {
                  "internalType": "bytes",
                  "name": "revertPayloadDataReceiver",
                  "type": "bytes"
                },
                {
                  "components": [
                    {
                      "internalType": "enum RaylsBridgeableERC",
                      "name": "assetType",
                      "type": "uint8"
                    },
                    {
                      "internalType": "uint256",
                      "name": "id",
                      "type": "uint256"
                    },
                    {
                      "internalType": "address",
                      "name": "from",
                      "type": "address"
                    },
                    {
                      "internalType": "address",
                      "name": "to",
                      "type": "address"
                    },
                    {
                      "internalType": "address",
                      "name": "tokenAddress",
                      "type": "address"
                    },
                    {
                      "internalType": "uint256",
                      "name": "amount",
                      "type": "uint256"
                    }
                  ],
                  "internalType": "struct BridgedTransferMetadata",
                  "name": "transferMetadata",
                  "type": "tuple"
                },
                {
                  "internalType": "bool",
                  "name": "ignoresNonce",
                  "type": "bool"
                }
              ],
              "internalType": "struct RaylsMessageMetadata",
              "name": "messageMetadata",
              "type": "tuple"
            },
            {
              "internalType": "bytes",
              "name": "payload",
              "type": "bytes"
            }
          ],
          "internalType": "struct RaylsMessage",
          "name": "data",
          "type": "tuple"
        }
      ],
      "name": "dispatchMessage",
      "outputs": [
        {
          "internalType": "bytes32",
          "name": "",
          "type": "bytes32"
        }
      ],
      "stateMutability": "payable",
      "type": "function"
    },
    {
      "inputs": [
        {
          "internalType": "bytes32",
          "name": "batchId",
          "type": "bytes32"
        },
        {
          "internalType": "address",
          "name": "from",
          "type": "address"
        },
        {
          "components": [
            {
              "internalType": "uint256",
              "name": "toChainId",
              "type": "uint256"
            },
            {
              "internalType": "address",
              "name": "to",
              "type": "address"
            },
            {
              "components": [
                {
                  "components": [
                    {
                      "internalType": "bool",
                      "name": "valid",
                      "type": "bool"
                    },
                    {
                      "internalType": "uint256",
                      "name": "nonce",
                      "type": "uint256"
                    },
                    {
                      "components": [
                        {
                          "internalType": "bool",
                          "name": "valid",
                          "type": "bool"
                        },
                        {
                          "internalType": "enum ResourceDeployType",
                          "name": "resourceDeployType",
                          "type": "uint8"
                        },
                        {
                          "internalType": "bytes",
                          "name": "bytecode",
                          "type": "bytes"
                        },
                        {
                          "internalType": "enum RaylsBridgeableERC",
                          "name": "factoryTemplate",
                          "type": "uint8"
                        },
                        {
                          "internalType": "bytes",
                          "name": "initializerParams",
                          "type": "bytes"
                        }
                      ],
                      "internalType": "struct NewResourceMetadata",
                      "name": "newResourceMetadata",
                      "type": "tuple"
                    },
                    {
                      "internalType": "bytes32",
                      "name": "resourceId",
                      "type": "bytes32"
                    },
                    {
                      "internalType": "bytes",
                      "name": "lockData",
                      "type": "bytes"
                    },
                    {
                      "internalType": "bytes",
                      "name": "revertPayloadDataSender",
                      "type": "bytes"
                    },
                    {
                      "internalType": "bytes",
                      "name": "revertPayloadDataReceiver",
                      "type": "bytes"
                    },
                    {
                      "components": [
                        {
                          "internalType": "enum RaylsBridgeableERC",
                          "name": "assetType",
                          "type": "uint8"
                        },
                        {
                          "internalType": "uint256",
                          "name": "id",
                          "type": "uint256"
                        },
                        {
                          "internalType": "address",
                          "name": "from",
                          "type": "address"
                        },
                        {
                          "internalType": "address",
                          "name": "to",
                          "type": "address"
                        },
                        {
                          "internalType": "address",
                          "name": "tokenAddress",
                          "type": "address"
                        },
                        {
                          "internalType": "uint256",
                          "name": "amount",
                          "type": "uint256"
                        }
                      ],
                      "internalType": "struct BridgedTransferMetadata",
                      "name": "transferMetadata",
                      "type": "tuple"
                    },
                    {
                      "internalType": "bool",
                      "name": "ignoresNonce",
                      "type": "bool"
                    }
                  ],
                  "internalType": "struct RaylsMessageMetadata",
                  "name": "messageMetadata",
                  "type": "tuple"
                },
                {
                  "internalType": "bytes",
                  "name": "payload",
                  "type": "bytes"
                }
              ],
              "internalType": "struct RaylsMessage",
              "name": "data",
              "type": "tuple"
            },
            {
              "internalType": "bytes32",
              "name": "messageId",
              "type": "bytes32"
            }
          ],
          "internalType": "struct BatchMessage[]",
          "name": "messages",
          "type": "tuple[]"
        }
      ],
      "name": "dispatchMessageBatch",
      "outputs": [
        {
          "internalType": "bytes32",
          "name": "",
          "type": "bytes32"
        }
      ],
      "stateMutability": "nonpayable",
      "type": "function"
    },
    {
      "inputs": [
        {
          "internalType": "bytes32",
          "name": "_resourceId",
          "type": "bytes32"
        }
      ],
      "name": "getAddressByResourceId",
      "outputs": [
        {
          "internalType": "address",
          "name": "",
          "type": "address"
        }
      ],
      "stateMutability": "view",
      "type": "function"
    },
    {
      "inputs": [],
      "name": "getChainId",
      "outputs": [
        {
          "internalType": "uint256",
          "name": "",
          "type": "uint256"
        }
      ],
      "stateMutability": "view",
      "type": "function"
    },
    {
      "inputs": [
        {
          "internalType": "string",
          "name": "_contractName",
          "type": "string"
        }
      ],
      "name": "getCommitChainAddress",
      "outputs": [
        {
          "internalType": "address",
          "name": "",
          "type": "address"
        }
      ],
      "stateMutability": "view",
      "type": "function"
    },
    {
      "inputs": [],
      "name": "getCommitChainId",
      "outputs": [
        {
          "internalType": "uint256",
          "name": "",
          "type": "uint256"
        }
      ],
      "stateMutability": "view",
      "type": "function"
    },
    {
      "inputs": [
        {
          "internalType": "uint256",
          "name": "_srcChainId",
          "type": "uint256"
        }
      ],
      "name": "getInboundNonce",
      "outputs": [
        {
          "internalType": "uint256",
          "name": "",
          "type": "uint256"
        }
      ],
      "stateMutability": "view",
      "type": "function"
    },
    {
      "inputs": [],
      "name": "getMaxBatchMessages",
      "outputs": [
        {
          "internalType": "uint256",
          "name": "",
          "type": "uint256"
        }
      ],
      "stateMutability": "view",
      "type": "function"
    },
    {
      "inputs": [
        {
          "internalType": "uint256",
          "name": "_dstChainId",
          "type": "uint256"
        }
      ],
      "name": "getOutboundNonce",
      "outputs": [
        {
          "internalType": "uint256",
          "name": "",
          "type": "uint256"
        }
      ],
      "stateMutability": "view",
      "type": "function"
    },
    {
      "inputs": [],
      "name": "getTokenRegistryReplica",
      "outputs": [
        {
          "internalType": "address",
          "name": "",
          "type": "address"
        }
      ],
      "stateMutability": "view",
      "type": "function"
    },
    {
      "inputs": [
        {
          "internalType": "uint256",
          "name": "",
          "type": "uint256"
        }
      ],
      "name": "inboundNonce",
      "outputs": [
        {
          "internalType": "uint256",
          "name": "",
          "type": "uint256"
        }
      ],
      "stateMutability": "view",
      "type": "function"
    },
    {
      "inputs": [
        {
          "internalType": "address",
          "name": "initialOwner",
          "type": "address"
        },
        {
          "internalType": "uint256",
          "name": "_chainId",
          "type": "uint256"
        },
        {
          "internalType": "uint256",
          "name": "_commitChainId",
          "type": "uint256"
        },
        {
          "internalType": "uint256",
          "name": "_maxBatchMessages",
          "type": "uint256"
        }
      ],
      "name": "initialize",
      "outputs": [],
      "stateMutability": "nonpayable",
      "type": "function"
    },
    {
      "inputs": [
        {
          "internalType": "address",
          "name": "_executor",
          "type": "address"
        }
      ],
      "name": "isTrustedExecutor",
      "outputs": [
        {
          "internalType": "bool",
          "name": "",
          "type": "bool"
        }
      ],
      "stateMutability": "view",
      "type": "function"
    },
    {
      "inputs": [
        {
          "internalType": "uint256",
          "name": "",
          "type": "uint256"
        }
      ],
      "name": "outboundNonce",
      "outputs": [
        {
          "internalType": "uint256",
          "name": "",
          "type": "uint256"
        }
      ],
      "stateMutability": "view",
      "type": "function"
    },
    {
      "inputs": [],
      "name": "owner",
      "outputs": [
        {
          "internalType": "address",
          "name": "",
          "type": "address"
        }
      ],
      "stateMutability": "view",
      "type": "function"
    },
    {
      "inputs": [],
      "name": "proxiableUUID",
      "outputs": [
        {
          "internalType": "bytes32",
          "name": "",
          "type": "bytes32"
        }
      ],
      "stateMutability": "view",
      "type": "function"
    },
    {
      "inputs": [
        {
          "internalType": "uint256",
          "name": "_srcChainId",
          "type": "uint256"
        },
        {
          "internalType": "address",
          "name": "_srcAddress",
          "type": "address"
        },
        {
          "internalType": "address",
          "name": "_dstAddress",
          "type": "address"
        },
        {
          "components": [
            {
              "components": [
                {
                  "internalType": "bool",
                  "name": "valid",
                  "type": "bool"
                },
                {
                  "internalType": "uint256",
                  "name": "nonce",
                  "type": "uint256"
                },
                {
                  "components": [
                    {
                      "internalType": "bool",
                      "name": "valid",
                      "type": "bool"
                    },
                    {
                      "internalType": "enum ResourceDeployType",
                      "name": "resourceDeployType",
                      "type": "uint8"
                    },
                    {
                      "internalType": "bytes",
                      "name": "bytecode",
                      "type": "bytes"
                    },
                    {
                      "internalType": "enum RaylsBridgeableERC",
                      "name": "factoryTemplate",
                      "type": "uint8"
                    },
                    {
                      "internalType": "bytes",
                      "name": "initializerParams",
                      "type": "bytes"
                    }
                  ],
                  "internalType": "struct NewResourceMetadata",
                  "name": "newResourceMetadata",
                  "type": "tuple"
                },
                {
                  "internalType": "bytes32",
                  "name": "resourceId",
                  "type": "bytes32"
                },
                {
                  "internalType": "bytes",
                  "name": "lockData",
                  "type": "bytes"
                },
                {
                  "internalType": "bytes",
                  "name": "revertPayloadDataSender",
                  "type": "bytes"
                },
                {
                  "internalType": "bytes",
                  "name": "revertPayloadDataReceiver",
                  "type": "bytes"
                },
                {
                  "components": [
                    {
                      "internalType": "enum RaylsBridgeableERC",
                      "name": "assetType",
                      "type": "uint8"
                    },
                    {
                      "internalType": "uint256",
                      "name": "id",
                      "type": "uint256"
                    },
                    {
                      "internalType": "address",
                      "name": "from",
                      "type": "address"
                    },
                    {
                      "internalType": "address",
                      "name": "to",
                      "type": "address"
                    },
                    {
                      "internalType": "address",
                      "name": "tokenAddress",
                      "type": "address"
                    },
                    {
                      "internalType": "uint256",
                      "name": "amount",
                      "type": "uint256"
                    }
                  ],
                  "internalType": "struct BridgedTransferMetadata",
                  "name": "transferMetadata",
                  "type": "tuple"
                },
                {
                  "internalType": "bool",
                  "name": "ignoresNonce",
                  "type": "bool"
                }
              ],
              "internalType": "struct RaylsMessageMetadata",
              "name": "messageMetadata",
              "type": "tuple"
            },
            {
              "internalType": "bytes",
              "name": "payload",
              "type": "bytes"
            }
          ],
          "internalType": "struct RaylsMessage",
          "name": "_raylsMessage",
          "type": "tuple"
        },
        {
          "internalType": "bytes32",
          "name": "_messageId",
          "type": "bytes32"
        }
      ],
      "name": "receivePayload",
      "outputs": [],
      "stateMutability": "nonpayable",
      "type": "function"
    },
    {
      "inputs": [
        {
          "internalType": "string",
          "name": "_contractName",
          "type": "string"
        },
        {
          "internalType": "address",
          "name": "_contractAddressOnCommitChain",
          "type": "address"
        }
      ],
      "name": "registerCommitChainAddress",
      "outputs": [],
      "stateMutability": "nonpayable",
      "type": "function"
    },
    {
      "inputs": [
        {
          "internalType": "bytes32",
          "name": "_resourceId",
          "type": "bytes32"
        },
        {
          "internalType": "address",
          "name": "_implementationAddress",
          "type": "address"
        }
      ],
      "name": "registerResourceId",
      "outputs": [],
      "stateMutability": "nonpayable",
      "type": "function"
    },
    {
      "inputs": [],
      "name": "renounceOwnership",
      "outputs": [],
      "stateMutability": "nonpayable",
      "type": "function"
    },
    {
      "inputs": [
        {
          "internalType": "uint256",
          "name": "blockNumber",
          "type": "uint256"
        }
      ],
      "name": "requestNewDHKeys",
      "outputs": [],
      "stateMutability": "nonpayable",
      "type": "function"
    },
    {
      "inputs": [
        {
          "internalType": "bytes32",
          "name": "",
          "type": "bytes32"
        }
      ],
      "name": "resourceIdToContractAddress",
      "outputs": [
        {
          "internalType": "address",
          "name": "",
          "type": "address"
        }
      ],
      "stateMutability": "view",
      "type": "function"
    },
    {
      "inputs": [
        {
          "internalType": "uint256",
          "name": "_dstChainId",
          "type": "uint256"
        },
        {
          "internalType": "address",
          "name": "_destination",
          "type": "address"
        },
        {
          "internalType": "bytes",
          "name": "_payload",
          "type": "bytes"
        }
      ],
      "name": "send",
      "outputs": [
        {
          "internalType": "bytes32",
          "name": "messageId",
          "type": "bytes32"
        }
      ],
      "stateMutability": "payable",
      "type": "function"
    },
    {
      "inputs": [
        {
          "components": [
            {
              "internalType": "uint256",
              "name": "_dstChainId",
              "type": "uint256"
            },
            {
              "internalType": "address",
              "name": "_destination",
              "type": "address"
            },
            {
              "internalType": "bytes",
              "name": "_payload",
              "type": "bytes"
            }
          ],
          "internalType": "struct DestinationPayloadRequest[]",
          "name": "_destinationPayloadRequests",
          "type": "tuple[]"
        }
      ],
      "name": "sendBatch",
      "outputs": [
        {
          "internalType": "bytes32",
          "name": "batchId",
          "type": "bytes32"
        }
      ],
      "stateMutability": "nonpayable",
      "type": "function"
    },
    {
      "inputs": [
        {
          "components": [
            {
              "internalType": "uint256",
              "name": "_dstChainId",
              "type": "uint256"
            },
            {
              "internalType": "bytes32",
              "name": "_resourceId",
              "type": "bytes32"
            },
            {
              "internalType": "bytes",
              "name": "_payload",
              "type": "bytes"
            },
            {
              "internalType": "bytes",
              "name": "_lockData",
              "type": "bytes"
            },
            {
              "internalType": "bytes",
              "name": "_revertDataSender",
              "type": "bytes"
            },
            {
              "internalType": "bytes",
              "name": "_revertDataReceiver",
              "type": "bytes"
            },
            {
              "components": [
                {
                  "internalType": "enum RaylsBridgeableERC",
                  "name": "assetType",
                  "type": "uint8"
                },
                {
                  "internalType": "uint256",
                  "name": "id",
                  "type": "uint256"
                },
                {
                  "internalType": "address",
                  "name": "from",
                  "type": "address"
                },
                {
                  "internalType": "address",
                  "name": "to",
                  "type": "address"
                },
                {
                  "internalType": "address",
                  "name": "tokenAddress",
                  "type": "address"
                },
                {
                  "internalType": "uint256",
                  "name": "amount",
                  "type": "uint256"
                }
              ],
              "internalType": "struct BridgedTransferMetadata",
              "name": "transferMetadata",
              "type": "tuple"
            }
          ],
          "internalType": "struct ResourceIdCompletePayloadRequest[]",
          "name": "_resourceIdPayloadRequests",
          "type": "tuple[]"
        }
      ],
      "name": "sendBatchToResourceId",
      "outputs": [
        {
          "internalType": "bytes32",
          "name": "batchId",
          "type": "bytes32"
        }
      ],
      "stateMutability": "payable",
      "type": "function"
    },
    {
      "inputs": [
        {
          "components": [
            {
              "internalType": "uint256",
              "name": "_dstChainId",
              "type": "uint256"
            },
            {
              "internalType": "bytes32",
              "name": "_resourceId",
              "type": "bytes32"
            },
            {
              "internalType": "bytes",
              "name": "_payload",
              "type": "bytes"
            }
          ],
          "internalType": "struct ResourceIdPayloadRequest[]",
          "name": "_resourceIdPayloadRequests",
          "type": "tuple[]"
        }
      ],
      "name": "sendBatchToResourceId",
      "outputs": [
        {
          "internalType": "bytes32",
          "name": "batchId",
          "type": "bytes32"
        }
      ],
      "stateMutability": "payable",
      "type": "function"
    },
    {
      "inputs": [
        {
          "internalType": "uint256",
          "name": "_dstChainId",
          "type": "uint256"
        },
        {
          "internalType": "bytes32",
          "name": "_resourceId",
          "type": "bytes32"
        },
        {
          "internalType": "bytes",
          "name": "_payload",
          "type": "bytes"
        }
      ],
      "name": "sendToResourceId",
      "outputs": [
        {
          "internalType": "bytes32",
          "name": "messageId",
          "type": "bytes32"
        }
      ],
      "stateMutability": "payable",
      "type": "function"
    },
    {
      "inputs": [
        {
          "internalType": "uint256",
          "name": "_dstChainId",
          "type": "uint256"
        },
        {
          "internalType": "bytes32",
          "name": "_resourceId",
          "type": "bytes32"
        },
        {
          "internalType": "bytes",
          "name": "_payload",
          "type": "bytes"
        },
        {
          "internalType": "bytes",
          "name": "_lockData",
          "type": "bytes"
        },
        {
          "internalType": "bytes",
          "name": "_revertDataSender",
          "type": "bytes"
        },
        {
          "internalType": "bytes",
          "name": "_revertDataReceiver",
          "type": "bytes"
        },
        {
          "components": [
            {
              "internalType": "enum RaylsBridgeableERC",
              "name": "assetType",
              "type": "uint8"
            },
            {
              "internalType": "uint256",
              "name": "id",
              "type": "uint256"
            },
            {
              "internalType": "address",
              "name": "from",
              "type": "address"
            },
            {
              "internalType": "address",
              "name": "to",
              "type": "address"
            },
            {
              "internalType": "address",
              "name": "tokenAddress",
              "type": "address"
            },
            {
              "internalType": "uint256",
              "name": "amount",
              "type": "uint256"
            }
          ],
          "internalType": "struct BridgedTransferMetadata",
          "name": "transferMetadata",
          "type": "tuple"
        }
      ],
      "name": "sendToResourceId",
      "outputs": [
        {
          "internalType": "bytes32",
          "name": "messageId",
          "type": "bytes32"
        }
      ],
      "stateMutability": "payable",
      "type": "function"
    },
    {
      "inputs": [
        {
          "internalType": "uint256",
          "name": "_maxBatchMessages",
          "type": "uint256"
        }
      ],
      "name": "setMaxBatchMessages",
      "outputs": [],
      "stateMutability": "nonpayable",
      "type": "function"
    },
    {
      "inputs": [
        {
          "internalType": "address",
          "name": "newOwner",
          "type": "address"
        }
      ],
      "name": "transferOwnership",
      "outputs": [],
      "stateMutability": "nonpayable",
      "type": "function"
    },
    {
      "inputs": [
        {
          "internalType": "address",
          "name": "newImplementation",
          "type": "address"
        },
        {
          "internalType": "bytes",
          "name": "data",
          "type": "bytes"
        }
      ],
      "name": "upgradeToAndCall",
      "outputs": [],
      "stateMutability": "payable",
      "type": "function"
    },
    {
      "inputs": [],
      "name": "version",
      "outputs": [
        {
          "internalType": "string",
          "name": "",
          "type": "string"
        }
      ],
      "stateMutability": "pure",
      "type": "function"
    }
  ],
  "bytecode": "0x60a06040523060805234801561001457600080fd5b50608051613c5e61003e60003960008181611fd501528181611ffe015261213b0152613c5e6000f3fe6080604052600436106101e55760003560e01c8063715018a611610103578063b2958e9a1161009b578063b2958e9a14610592578063c7799ace146105a5578063d4c08529146105bb578063d4f951c7146105e8578063de16f0b214610631578063e7bdb4031461065e578063ea77c6711461067e578063f1e229741461069e578063f2fde38b146106b3578063fe12d9c3146106d357600080fd5b8063715018a61461048257806383d640c7146104975780638cb73af5146104b75780638da5cb5b146104ed578063910e2347146105025780639a8a059214610522578063a0a8e46014610538578063ac49045b1461054c578063ad3cb1cc1461056157600080fd5b806341d717441161018157806341d717441461032657806347a193a0146103395780634ec81af1146103665780634f02198c146103865780634f1ef2861461039957806352d1902d146103ac57806354fd4d50146103c1578063672657ca146103f657806369b9320f146104355780636ef121421461046257600080fd5b806304f0dbc4146101ea5780630b3c0239146102105780630e0791301461025e57806311f50c8514610280578063150b375f146102b65780632232a4e2146102c95780633408e470146102de578063407fa89e146102f357806340b33bfa14610313575b600080fd5b6101fd6101f8366004612ccf565b6106f3565b6040519081526020015b60405180910390f35b34801561021c57600080fd5b5061025161022b366004612d44565b8051602081830181018051600b825292820191909301209152546001600160a01b031681565b6040516102079190612d78565b34801561026a57600080fd5b5061027e610279366004612d8c565b610744565b005b34801561028c57600080fd5b5061025161029b366004612ddd565b6000908152600a60205260409020546001600160a01b031690565b6101fd6102c4366004612e3e565b610788565b3480156102d557600080fd5b506001546101fd565b3480156102ea57600080fd5b506000546101fd565b3480156102ff57600080fd5b506101fd61030e366004612edd565b61084b565b6101fd610321366004612f1e565b610a4f565b6101fd610334366004612f58565b610db5565b34801561034557600080fd5b506101fd610354366004612ddd565b60086020526000908152604090205481565b34801561037257600080fd5b5061027e61038136600461302f565b610e59565b6101fd610394366004612edd565b610f70565b61027e6103a736600461306a565b611282565b3480156103b857600080fd5b506101fd6112a1565b3480156103cd57600080fd5b506040805180820190915260038152620625c760eb1b60208201525b6040516102079190613109565b34801561040257600080fd5b5061042561041136600461311c565b6002546001600160a01b0391821691161490565b6040519015158152602001610207565b34801561044157600080fd5b506101fd610450366004612ddd565b60096020526000908152604090205481565b34801561046e57600080fd5b5061025161047d366004612d44565b6112be565b34801561048e57600080fd5b5061027e611363565b3480156104a357600080fd5b5061027e6104b2366004612ddd565b611377565b3480156104c357600080fd5b506102516104d2366004612ddd565b600a602052600090815260409020546001600160a01b031681565b3480156104f957600080fd5b506102516113b5565b34801561050e57600080fd5b5061027e61051d366004612ddd565b6113d0565b34801561052e57600080fd5b506101fd60005481565b34801561054457600080fd5b5060026101fd565b34801561055857600080fd5b506102516113dd565b34801561056d57600080fd5b506103e9604051806040016040528060058152602001640352e302e360dc1b81525081565b6101fd6105a0366004612edd565b6113f7565b3480156105b157600080fd5b506101fd60015481565b3480156105c757600080fd5b506101fd6105d6366004612ddd565b60009081526009602052604090205490565b3480156105f457600080fd5b5061027e610603366004613139565b6000918252600a602052604090912080546001600160a01b0319166001600160a01b03909216919091179055565b34801561063d57600080fd5b506101fd61064c366004612ddd565b60009081526008602052604090205490565b34801561066a57600080fd5b506101fd610679366004613181565b6115d7565b34801561068a57600080fd5b5061027e6106993660046132a9565b61161e565b3480156106aa57600080fd5b506006546101fd565b3480156106bf57600080fd5b5061027e6106ce36600461311c565b611676565b3480156106df57600080fd5b5061027e6106ee366004613305565b6116b4565b600083856001600160a01b0316877fa45ed7e52c0a5c8eaddf0cda36a0b3d1e4f928a09a993ea8c9195bf8653510608686604051610732929190613543565b60405180910390a45093949350505050565b80600b836040516107559190613567565b90815260405190819003602001902080546001600160a01b03929092166001600160a01b03199092169190911790555050565b6000610792612736565b61079a612767565b61083e604051806101200160405280898152602001886001600160a01b0316815260200187878080601f0160208091040260200160405190810160405280939291908181526020018383808284376000920182905250938552505050602080830182905260408084018890528051808301825283815260608501528051808301825283815260808501528051918201905290815260a082015260c001839052611739565b925050505b949350505050565b600061085660065490565b821061087d5760405162461bcd60e51b815260040161087490613583565b60405180910390fd5b6000826001600160401b0381111561089757610897612898565b6040519080825280602002602001820160405280156108d057816020015b6108bd61279e565b8152602001906001900390816108b55790505b50905060005b83811015610a3b576108e6612736565b6108ee612767565b60405180610120016040528088888681811061090c5761090c6135ec565b905060200281019061091e9190613602565b358152602001888886818110610936576109366135ec565b90506020028101906109489190613602565b61095990604081019060200161311c565b6001600160a01b03168152602001888886818110610979576109796135ec565b905060200281019061098b9190613602565b610999906040810190613618565b8080601f0160208091040260200160405190810160405280939291908181526020018383808284376000920182905250938552505050602080830182905260408084018790528051808301825283815260608501528051808301825283815260808501528051918201905290815260a082015260c0018290528451859085908110610a2657610a266135ec565b602090810291909101015250506001016108d6565b50610a4581611a12565b9150505b92915050565b6000610a59612767565b610a61612736565b86600003610d10576000600460009054906101000a90046001600160a01b03166001600160a01b031663195ec9ee6040518163ffffffff1660e01b8152600401600060405180830381865afa158015610abe573d6000803e3d6000fd5b505050506040513d6000823e601f3d908101601f19168201604052610ae691908101906136cc565b90506000805b8251811015610b4457600054838281518110610b0a57610b0a6135ec565b60200260200101516000015103610b3c57828181518110610b2d57610b2d6135ec565b602002602001015160e0015191505b600101610aec565b5080610bab5760405162461bcd60e51b815260206004820152603060248201527f5061727469636970616e74206973206e6f7420616c6c6f77656420746f20627260448201526f6f616463617374206d6573736167657360801b6064820152608401610874565b8015610d075760005b8251811015610d05576000838281518110610bd157610bd16135ec565b60200260200101516000015190506000548114158015610bf357506103e78114155b15610cfc5760006001858481518110610c0e57610c0e6135ec565b6020026020010151604001516003811115610c2b57610c2b613378565b1490508015610cfa57610cf760405180610120016040528084815260200160006001600160a01b031681526020018c8c8080601f016020809104026020016040519081016040528093929190818152602001838380828437600081840152601f19601f8201169050808301925050505050505081526020018d815260200188815260200160405180602001604052806000815250815260200160405180602001604052806000815250815260200160405180602001604052806000815250815260200189815250611739565b97505b505b50600101610bb4565b505b50505050610843565b61083e60405180610120016040528089815260200160006001600160a01b0316815260200187878080601f016020809104026020016040519081016040528093929190818152602001838380828437600092018290525093855250505060208083018b905260408084018790528051808301825283815260608501528051808301825283815260808501528051918201905290815260a082015260c001849052611739565b6000610dbf612736565b610e4b6040518061012001604052808c815260200160006001600160a01b031681526020018a8a8080601f016020809104026020016040519081016040528093929190818152602001838380828437600092019190915250505090825250602081018c905260408101849052606081018990526080810188905260a0810187905260c001859052611739565b9a9950505050505050505050565b6000610e63611f8d565b805490915060ff600160401b82041615906001600160401b0316600081158015610e8a5750825b90506000826001600160401b03166001148015610ea65750303b155b905081158015610eb4575080155b15610ed25760405163f92ee8a960e01b815260040160405180910390fd5b845467ffffffffffffffff191660011785558315610efc57845460ff60401b1916600160401b1785555b610f0589611fb1565b610f0d611fc2565b6001879055600088815560068790556007558315610f6557845460ff60401b19168555604051600181527fc7f505b2f371ae2175ee4913f4499e1f2633a7b5936321eed1cdaeb6115181d29060200160405180910390a15b505050505050505050565b6000610f7b60065490565b8210610f995760405162461bcd60e51b815260040161087490613583565b6000826001600160401b03811115610fb357610fb3612898565b604051908082528060200260200182016040528015610fec57816020015b610fd961279e565b815260200190600190039081610fd15790505b50905060005b83811015610a3b57611002612736565b604051806101200160405280878785818110611020576110206135ec565b9050602002810190611032919061382a565b35815260006020820152604001878785818110611051576110516135ec565b9050602002810190611063919061382a565b611071906040810190613618565b8080601f0160208091040260200160405190810160405280939291908181526020018383808284376000920191909152505050908252506020018787858181106110bd576110bd6135ec565b90506020028101906110cf919061382a565b6020013581526020018281526020018787858181106110f0576110f06135ec565b9050602002810190611102919061382a565b611110906060810190613618565b8080601f01602080910402602001604051908101604052809392919081815260200183838082843760009201919091525050509082525060200187878581811061115c5761115c6135ec565b905060200281019061116e919061382a565b61117c906080810190613618565b8080601f0160208091040260200160405190810160405280939291908181526020018383808284376000920191909152505050908252506020018787858181106111c8576111c86135ec565b90506020028101906111da919061382a565b6111e89060a0810190613618565b8080601f016020809104026020016040519081016040528093929190818152602001838380828437600092019190915250505090825250602001878785818110611234576112346135ec565b9050602002810190611246919061382a565b60c0018036038101906112599190613841565b81525083838151811061126e5761126e6135ec565b602090810291909101015250600101610ff2565b61128a611fca565b6112938261206f565b61129d8282612077565b5050565b60006112ab612130565b50600080516020613c0983398151915290565b6000806001600160a01b0316600b836040516112da9190613567565b90815260405160209181900382018120546001600160a01b03169290921415916113069185910161385d565b604051602081830303815290604052906113335760405162461bcd60e51b81526004016108749190613109565b50600b826040516113449190613567565b908152604051908190036020019020546001600160a01b031692915050565b61136b612179565b61137560006121ab565b565b61137f612179565b6040518181527f25ab0e29475611a425661d445ac2e9d36f19ddf98bbbf046a9decc50b3c7459a9060200160405180910390a150565b6000806113c0612207565b546001600160a01b031692915050565b6113d8612179565b600655565b60006113e7612179565b506005546001600160a01b031690565b600061140260065490565b82106114205760405162461bcd60e51b815260040161087490613583565b6000826001600160401b0381111561143a5761143a612898565b60405190808252806020026020018201604052801561147357816020015b61146061279e565b8152602001906001900390816114585790505b50905060005b83811015610a3b57611489612736565b611491612767565b6040518061012001604052808888868181106114af576114af6135ec565b90506020028101906114c19190613602565b358152600060208201526040018888868181106114e0576114e06135ec565b90506020028101906114f29190613602565b611500906040810190613618565b8080601f01602080910402602001604051908101604052809392919081815260200183838082843760009201919091525050509082525060200188888681811061154c5761154c6135ec565b905060200281019061155e9190613602565b602001358152602001838152602001604051806020016040528060008152508152602001604051806020016040528060008152508152602001604051806020016040528060008152508152602001828152508484815181106115c2576115c26135ec565b60209081029190910101525050600101611479565b60007f70d44ffd024502b749906da247dea9d3c21ae5f0754ece8ca7512dde985c1aca84848460405161160c939291906138be565b60405180910390a150825b9392505050565b611626612179565b600280546001600160a01b039586166001600160a01b0319918216179091556003805494861694821694909417909355600480549285169284169290921790915560058054919093169116179055565b61167e612179565b6001600160a01b0381166116a8576000604051631e4fbdf760e01b81526004016108749190612d78565b6116b1816121ab565b50565b6000806116c287868661222b565b6002546040516390fe4cff60e01b81529294509092506001600160a01b0316906390fe4cff906116fe908490869088908d908d90600401613966565b600060405180830381600087803b15801561171857600080fd5b505af115801561172c573d6000803e3d6000fd5b5050505050505050505050565b8051600090815260096020526040812080548291908290611759906139a7565b918290555060048054600054865160405163d5c3614f60e01b81529495506001600160a01b039092169363d5c3614f9361179d939101918252602082015260400190565b600060405180830381600087803b1580156117b757600080fd5b505af11580156117cb573d6000803e3d6000fd5b50505050600154600054146118b757600554606084015160005460405163030c0d3b60e61b8152600481019290925260248201526001600160a01b039091169063c3034ec090604401600060405180830381600087803b15801561182e57600080fd5b505af1158015611842573d6000803e3d6000fd5b50506005546060860151865160405163030c0d3b60e61b81526001600160a01b03909316945063c3034ec0935061188492600401918252602082015260400190565b600060405180830381600087803b15801561189e57600080fd5b505af11580156118b2573d6000803e3d6000fd5b505050505b6000604051806040016040528060405180610120016040528060011515815260200185815260200187608001518152602001876060015181526020018760a0015181526020018760c0015181526020018760e001518152602001876101000151815260200160011515815250815260200185604001518152509050600061196a60005433876000015188602001518660405160200161195691906139ce565b60405160208183030381529060405261224f565b90506000548560000151036119915761198c60005433876020015185856116b4565b610843565b60006119a8823388600001518960200151876106f3565b9050818114611a095760405162461bcd60e51b815260206004820152602760248201527f64697370617463684d6573736167652073686f756c642072657475726e206d656044820152661cdcd859d9525960ca1b6064820152608401610874565b50949350505050565b6000805b8251811015611bf75760045460005484516001600160a01b039092169163d5c3614f9190869085908110611a4c57611a4c6135ec565b6020026020010151600001516040518363ffffffff1660e01b8152600401611a7e929190918252602082015260400190565b600060405180830381600087803b158015611a9857600080fd5b505af1158015611aac573d6000803e3d6000fd5b505060055485516001600160a01b03909116925063c3034ec09150859084908110611ad957611ad96135ec565b6020026020010151606001516000546040518363ffffffff1660e01b8152600401611b0e929190918252602082015260400190565b600060405180830381600087803b158015611b2857600080fd5b505af1158015611b3c573d6000803e3d6000fd5b505060055485516001600160a01b03909116925063c3034ec09150859084908110611b6957611b696135ec565b602002602001015160600151858481518110611b8757611b876135ec565b6020026020010151600001516040518363ffffffff1660e01b8152600401611bb9929190918252602082015260400190565b600060405180830381600087803b158015611bd357600080fd5b505af1158015611be7573d6000803e3d6000fd5b505060019092019150611a169050565b50600082516001600160401b03811115611c1357611c13612898565b604051908082528060200260200182016040528015611c4c57816020015b611c39612801565b815260200190600190039081611c315790505b50905060005b8351811015611f0257600060096000868481518110611c7357611c736135ec565b602002602001015160000151815260200190815260200160002060008154611c9a906139a7565b919050819055905060006040518060400160405280604051806101200160405280600115158152602001858152602001898781518110611cdc57611cdc6135ec565b6020026020010151608001518152602001898781518110611cff57611cff6135ec565b6020026020010151606001518152602001898781518110611d2257611d226135ec565b602002602001015160a001518152602001898781518110611d4557611d456135ec565b602002602001015160c001518152602001898781518110611d6857611d686135ec565b602002602001015160e001518152602001898781518110611d8b57611d8b6135ec565b602002602001015161010001518152602001600115158152508152602001878581518110611dbb57611dbb6135ec565b60200260200101516040015181525090506000611e2260005433898781518110611de757611de76135ec565b6020026020010151600001518a8881518110611e0557611e056135ec565b6020026020010151602001518660405160200161195691906139ce565b9050600054878581518110611e3957611e396135ec565b60200260200101516000015103611e7657611e7660005433898781518110611e6357611e636135ec565b60200260200101516020015185856116b4565b6040518060800160405280888681518110611e9357611e936135ec565b6020026020010151600001518152602001888681518110611eb657611eb66135ec565b6020026020010151602001516001600160a01b0316815260200183815260200182815250858581518110611eec57611eec6135ec565b6020908102919091010152505050600101611c52565b506000611f12600054338661228b565b90506000611f218233856115d7565b9050818114611f855760405162461bcd60e51b815260206004820152602a60248201527f64697370617463684d65737361676542617463682073686f756c6420726574756044820152691c9b8818985d18da125960b21b6064820152608401610874565b509392505050565b7ff0c57e16840df040f15088dc2f81fe391c3923bec73e23a9662efc9c229c6a0090565b611fb96122c1565b6116b1816122e6565b6113756122c1565b306001600160a01b037f000000000000000000000000000000000000000000000000000000000000000016148061205157507f00000000000000000000000000000000000000000000000000000000000000006001600160a01b0316612045600080516020613c09833981519152546001600160a01b031690565b6001600160a01b031614155b156113755760405163703e46dd60e11b815260040160405180910390fd5b6116b1612179565b816001600160a01b03166352d1902d6040518163ffffffff1660e01b8152600401602060405180830381865afa9250505080156120d1575060408051601f3d908101601f191682019092526120ce918101906139e1565b60015b6120f05781604051634c9c8ce360e01b81526004016108749190612d78565b600080516020613c09833981519152811461212157604051632a87526960e21b815260048101829052602401610874565b61212b83836122ee565b505050565b306001600160a01b037f000000000000000000000000000000000000000000000000000000000000000016146113755760405163703e46dd60e11b815260040160405180910390fd5b336121826113b5565b6001600160a01b031614611375573360405163118cdaa760e01b81526004016108749190612d78565b60006121b5612207565b80546001600160a01b038481166001600160a01b031983168117845560405193945091169182907f8be0079c531659141344cd1fd0a4f28419497f9722a3daafe3b4186f6b6457e090600090a3505050565b7f9016d09d72d40fdae2fd8ceac6b6234c7706214fd39c1cd1e609a0528c19930090565b6060600061223e85858560000151612344565b905082602001519150935093915050565b6000858585858560405160200161226a9594939291906139fa565b60405160208183030381529060405280519060200120905095945050505050565b60008383836040516020016122a293929190613a3e565b6040516020818303038152906040528051906020012090509392505050565b6122c96123c2565b61137557604051631afcd79f60e31b815260040160405180910390fd5b61167e6122c1565b6122f7826123dc565b6040516001600160a01b038316907fbc7cd75a20ee27fd9adebab32041f755214dbc6bffa90cc0225b39da2e5c2d3b90600090a280511561233c5761212b8282612438565b61129d6124ae565b60008161010001516123b8576000848152600860205260408120805490919061236c906139a7565b91829055506020830151146123b85760405162461bcd60e51b81526020600482015260126024820152715261796c733a2077726f6e67206e6f6e636560701b6044820152606401610874565b61084382846124cd565b60006123cc611f8d565b54600160401b900460ff16919050565b806001600160a01b03163b6000036124095780604051634c9c8ce360e01b81526004016108749190612d78565b600080516020613c0983398151915280546001600160a01b0319166001600160a01b0392909216919091179055565b6060600080846001600160a01b0316846040516124559190613567565b600060405180830381855af49150503d8060008114612490576040519150601f19603f3d011682016040523d82523d6000602084013e612495565b606091505b50915091506124a58583836126ba565b95945050505050565b34156113755760405163b398979f60e01b815260040160405180910390fd5b60006001600160a01b0382161515806124e857506040830151515b806124f65750606083015115155b6125125760405162461bcd60e51b815260040161087490613b70565b6001600160a01b03821615612528575080610a49565b604083015151156126755760608301516000908152600a60205260409020546001600160a01b031615612578575060608201516000908152600a60205260409020546001600160a01b0316610a49565b60035460408085015180820151608090910151606087015192516319e011ad60e01b81526000946001600160a01b0316936319e011ad936125c0939092909190600401613bb5565b6020604051808303816000875af11580156125df573d6000803e3d6000fd5b505050506040513d601f19601f820116820180604052508101906126039190613beb565b606085015160405163d4f951c760e01b815260048101919091526001600160a01b0382166024820152909150309063d4f951c790604401600060405180830381600087803b15801561265457600080fd5b505af1158015612668573d6000803e3d6000fd5b5050505080915050610a49565b6060830151156126a2575060608201516000908152600a60205260409020546001600160a01b0316610a49565b60405162461bcd60e51b815260040161087490613b70565b6060826126cf576126ca8261270d565b611617565b81511580156126e657506001600160a01b0384163b155b156127065783604051639996b31560e01b81526004016108749190612d78565b5080611617565b80511561271d5780518082602001fd5b604051630a12f52160e11b815260040160405180910390fd5b6040805160a081019091526000808252602082019081526060602082015260400160005b8152602001606081525090565b6040805160c08101909152806000815260006020820181905260408201819052606082018190526080820181905260a09091015290565b6040518061012001604052806000815260200160006001600160a01b0316815260200160608152602001600080191681526020016127da612736565b81526020016060815260200160608152602001606081526020016127fc612767565b905290565b604080516080810182526000808252602082015290810161282061282d565b8152600060209091015290565b604051806040016040528061275a60408051610120810182526000808252602082015290810161285b612736565b815260006020820152606060408201819052808201819052608082015260a001612820612767565b6001600160a01b03811681146116b157600080fd5b634e487b7160e01b600052604160045260246000fd5b60405160a081016001600160401b03811182821017156128d0576128d0612898565b60405290565b604080519081016001600160401b03811182821017156128d0576128d0612898565b60405161012081016001600160401b03811182821017156128d0576128d0612898565b604051608081016001600160401b03811182821017156128d0576128d0612898565b60405161010081016001600160401b03811182821017156128d0576128d0612898565b604051601f8201601f191681016001600160401b038111828210171561298857612988612898565b604052919050565b80151581146116b157600080fd5b80356129a981612990565b919050565b60006001600160401b038211156129c7576129c7612898565b50601f01601f191660200190565b600082601f8301126129e657600080fd5b81356129f96129f4826129ae565b612960565b818152846020838601011115612a0e57600080fd5b816020850160208301376000918101602001919091529392505050565b8035600581106129a957600080fd5b600060a08284031215612a4c57600080fd5b612a546128ae565b90508135612a6181612990565b8152602082013560028110612a7557600080fd5b602082015260408201356001600160401b0380821115612a9457600080fd5b612aa0858386016129d5565b6040840152612ab160608501612a2b565b60608401526080840135915080821115612aca57600080fd5b50612ad7848285016129d5565b60808301525092915050565b600060c08284031215612af557600080fd5b60405160c081018181106001600160401b0382111715612b1757612b17612898565b604052905080612b2683612a2b565b8152602083013560208201526040830135612b4081612883565b60408201526060830135612b5381612883565b60608201526080830135612b6681612883565b608082015260a092830135920191909152919050565b600060408284031215612b8e57600080fd5b612b966128d6565b905081356001600160401b0380821115612baf57600080fd5b908301906101c08286031215612bc457600080fd5b612bcc6128f8565b612bd58361299e565b815260208301356020820152604083013582811115612bf357600080fd5b612bff87828601612a3a565b60408301525060608301356060820152608083013582811115612c2157600080fd5b612c2d878286016129d5565b60808301525060a083013582811115612c4557600080fd5b612c51878286016129d5565b60a08301525060c083013582811115612c6957600080fd5b612c75878286016129d5565b60c083015250612c888660e08501612ae3565b60e0820152612c9a6101a0840161299e565b61010082015283526020840135915080821115612cb657600080fd5b50612cc3848285016129d5565b60208301525092915050565b600080600080600060a08688031215612ce757600080fd5b853594506020860135612cf981612883565b9350604086013592506060860135612d1081612883565b915060808601356001600160401b03811115612d2b57600080fd5b612d3788828901612b7c565b9150509295509295909350565b600060208284031215612d5657600080fd5b81356001600160401b03811115612d6c57600080fd5b610a45848285016129d5565b6001600160a01b0391909116815260200190565b60008060408385031215612d9f57600080fd5b82356001600160401b03811115612db557600080fd5b612dc1858286016129d5565b9250506020830135612dd281612883565b809150509250929050565b600060208284031215612def57600080fd5b5035919050565b60008083601f840112612e0857600080fd5b5081356001600160401b03811115612e1f57600080fd5b602083019150836020828501011115612e3757600080fd5b9250929050565b60008060008060608587031215612e5457600080fd5b843593506020850135612e6681612883565b925060408501356001600160401b03811115612e8157600080fd5b612e8d87828801612df6565b95989497509550505050565b60008083601f840112612eab57600080fd5b5081356001600160401b03811115612ec257600080fd5b6020830191508360208260051b8501011115612e3757600080fd5b60008060208385031215612ef057600080fd5b82356001600160401b03811115612f0657600080fd5b612f1285828601612e99565b90969095509350505050565b60008060008060608587031215612f3457600080fd5b843593506020850135925060408501356001600160401b03811115612e8157600080fd5b600080600080600080600080610180898b031215612f7557600080fd5b883597506020890135965060408901356001600160401b0380821115612f9a57600080fd5b612fa68c838d01612df6565b909850965060608b0135915080821115612fbf57600080fd5b612fcb8c838d016129d5565b955060808b0135915080821115612fe157600080fd5b612fed8c838d016129d5565b945060a08b013591508082111561300357600080fd5b506130108b828c016129d5565b9250506130208a60c08b01612ae3565b90509295985092959890939650565b6000806000806080858703121561304557600080fd5b843561305081612883565b966020860135965060408601359560600135945092505050565b6000806040838503121561307d57600080fd5b823561308881612883565b915060208301356001600160401b038111156130a357600080fd5b6130af858286016129d5565b9150509250929050565b60005b838110156130d45781810151838201526020016130bc565b50506000910152565b600081518084526130f58160208601602086016130b9565b601f01601f19169290920160200192915050565b60208152600061161760208301846130dd565b60006020828403121561312e57600080fd5b813561161781612883565b6000806040838503121561314c57600080fd5b823591506020830135612dd281612883565b60006001600160401b0382111561317757613177612898565b5060051b60200190565b60008060006060848603121561319657600080fd5b833592506020808501356131a981612883565b925060408501356001600160401b03808211156131c557600080fd5b818701915087601f8301126131d957600080fd5b81356131e76129f48261315e565b81815260059190911b8301840190848101908a83111561320657600080fd5b8585015b838110156132985780358581111561322157600080fd5b86016080818e03601f190112156132385760008081fd5b61324061291b565b888201358152604082013561325481612883565b818a015260608201358781111561326b5760008081fd5b6132798f8b83860101612b7c565b604083015250608091909101356060820152835291860191860161320a565b508096505050505050509250925092565b600080600080608085870312156132bf57600080fd5b84356132ca81612883565b935060208501356132da81612883565b925060408501356132ea81612883565b915060608501356132fa81612883565b939692955090935050565b600080600080600060a0868803121561331d57600080fd5b85359450602086013561332f81612883565b9350604086013561333f81612883565b925060608601356001600160401b0381111561335a57600080fd5b61336688828901612b7c565b95989497509295608001359392505050565b634e487b7160e01b600052602160045260246000fd5b6005811061339e5761339e613378565b9052565b80511515825260006020820151600281106133bf576133bf613378565b80602085015250604082015160a060408501526133df60a08501826130dd565b905060608301516133f3606086018261338e565b50608083015184820360808601526124a582826130dd565b61341682825161338e565b60208101516020830152604081015160018060a01b038082166040850152806060840151166060850152806080840151166080850152505060a081015160a08301525050565b600081516040845261347360408501825115159052565b6020810151606085015260408101516101c060808601526134986102008601826133a2565b9050606082015160a08601526080820151603f19808784030160c08801526134c083836130dd565b925060a08401519150808784030160e08801526134dd83836130dd565b925060c084015191506101008188850301818901526134fc84846130dd565b935060e0850151925061351361012089018461340b565b93909301518015156101e0880152925061352a9050565b6020840151915084810360208601526124a581836130dd565b6001600160a01b03831681526040602082018190526000906108439083018461345c565b600082516135798184602087016130b9565b9190910192915050565b60208082526043908201527f546865206d6178206e756d626572206f66207472616e73616374696f6e73206160408201527f6c6c6f77656420696e206120626174636820686173206265656e20657863656560608201526219195960ea1b608082015260a00190565b634e487b7160e01b600052603260045260246000fd5b60008235605e1983360301811261357957600080fd5b6000808335601e1984360301811261362f57600080fd5b8301803591506001600160401b0382111561364957600080fd5b602001915036819003821315612e3757600080fd5b8051600381106129a957600080fd5b8051600481106129a957600080fd5b600082601f83011261368d57600080fd5b815161369b6129f4826129ae565b8181528460208386010111156136b057600080fd5b6108438260208301602087016130b9565b80516129a981612990565b600060208083850312156136df57600080fd5b82516001600160401b03808211156136f657600080fd5b818501915085601f83011261370a57600080fd5b81516137186129f48261315e565b81815260059190911b8301840190848101908883111561373757600080fd5b8585015b8381101561381d5780518581111561375257600080fd5b8601610100818c03601f190181131561376a57600080fd5b61377261293d565b8983015181526137846040840161365e565b8a8201526137946060840161366d565b60408201526080830151888111156137ac5760008081fd5b6137ba8e8c8387010161367c565b60608301525060a080840151898111156137d45760008081fd5b6137e28f8d8388010161367c565b60808401525060c0808501518284015260e0915081850151818401525061380a8385016136c1565b908201528552505091860191860161373b565b5098975050505050505050565b6000823561017e1983360301811261357957600080fd5b600060c0828403121561385357600080fd5b6116178383612ae3565b76436f6d6d697420636861696e20636f6e7472616374202760481b81526000825161388f8160178501602087016130b9565b7709c81b9bdd081b585c1c1959081bdb88195b991c1bda5b9d60421b6017939091019283015250602f01919050565b60006060808301868452602060018060a01b03808816828701526040606060408801528388518086526080955060808901915060808160051b8a0101858b0160005b8381101561395357607f198c840301855281518051845287898201511689850152868101518a888601526139368b86018261345c565b918c0151948c019490945294880194925090870190600101613900565b50909d9c50505050505050505050505050565b600060018060a01b03808816835260a0602084015261398860a08401886130dd565b6040840196909652606083019490945250911660809091015292915050565b6000600182016139c757634e487b7160e01b600052601160045260246000fd5b5060010190565b602081526000611617602083018461345c565b6000602082840312156139f357600080fd5b5051919050565b8581526001600160a01b038581166020830152604082018590528316606082015260a060808201819052600090613a33908301846130dd565b979650505050505050565b60006060808301868452602060018060a01b038716818601526040606060408701528287518085526080945060808801915060808160051b890101848a0160005b83811015613b5e57607f198b8403018552815180518452878101516001600160a01b031688850152868101516101c088860181905290613ac1828701826130dd565b9150508a8201518b860152898201518582038b870152613ae182826133a2565b91505060a08083015186830382880152613afb83826130dd565b9250505060c08083015186830382880152613b1683826130dd565b9250505060e08083015186830382880152613b3183826130dd565b92505050610100808301519250613b4a8187018461340b565b509588019593505090860190600101613a7f565b50909c9b505050505050505050505050565b60208082526025908201527f5261796c733a204e6f2076616c69642064657374696e6174696f6e20737065636040820152641a599a595960da1b606082015260800190565b606081526000613bc860608301866130dd565b8281036020840152613bda81866130dd565b915050826040830152949350505050565b600060208284031215613bfd57600080fd5b81516116178161288356fe360894a13ba1a3210667c828492db98dca3e2076cc3735a920a3ca505d382bbca26469706673582212208eb21e20529a387e77ddd87f835e69b22686e20bd86144502703608289308e6464736f6c63430008180033",
  "linkReferences": {},
  "deployedLinkReferences": {}
}