{
  "_format": "hh-sol-artifact-1",
  "contractName": "DepositToZkDvpVerifierk6",
  "sourceName": "src/rayls-protocol/Enygma/DepositToZkDvpVerifierk6.sol",
  "abi": [
    {
      "inputs": [
        {
          "internalType": "uint256[2]",
          "name": "_pA",
          "type": "uint256[2]"
        },
        {
          "internalType": "uint256[2][2]",
          "name": "_pB",
          "type": "uint256[2][2]"
        },
        {
          "internalType": "uint256[2]",
          "name": "_pC",
          "type": "uint256[2]"
        },
        {
          "internalType": "uint256[34]",
          "name": "_pubSignals",
          "type": "uint256[34]"
        }
      ],
      "name": "verifyProof",
      "outputs": [
        {
          "internalType": "bool",
          "name": "",
          "type": "bool"
        }
      ],
      "stateMutability": "view",
      "type": "function"
    }
  ],
  "bytecode": "0x608060405234801561001057600080fd5b5061118d806100206000396000f3fe608060405234801561001057600080fd5b506004361061002b5760003560e01c80638525a61d14610030575b600080fd5b61004361003e3660046110f1565b610057565b604051901515815260200160405180910390f35b6000610ee2565b7f30644e72e131a029b85045b68181585d2833e84879b9709143e1f593f0000001811061008f576000805260206000f35b50565b600060405183815284602082015285604082015260408160608360076107d05a03fa9150816100c5576000805260206000f35b825160408201526020830151606082015260408360808360066107d05a03fa915050806100f6576000805260206000f35b5050505050565b7f0dfef8a44ac3ec483e87109825e5268fd8fe32c125792802a8557e218194701185527f1d8feba52d5e131e4e45f136a36bdefe73d19b026690490b208da5df4014468e60208601526000608086018661019a87357f2a16ba41b49828a9b228be4456d7e8e0304af01abcad53b46ae221f8d9ebcaa27f0c118a7bcaca94c5e1fd42bbe9e91d1e39fbf780a66896ac36d4548eb13f109184610092565b6101ea60208801357f0297502b9966e5341db2482d0f7a8c8a8684d7b5c04e273722e972fc98e41e057f190d62df96b9475456ab810778320ef8e7311ad0db68bc550fda50e4a8d1ab4684610092565b61023a60408801357f2ba8971c75c7c65ee3496b434b9f5123d019c322bb7693b3cac65c886de43f417f0c4f3ce645ef6ffeef7bd7fb12c58fbe1117b723c6e1f3385bad11e347ce49a484610092565b61028a60608801357f2e0bd1e64f7b86ae2509cc5e58c43ff2d0c9c6f24528865ee7503df41b06befb7f1edc4c1675a2f144e38c83f901ede295ba7453509ec264a67084f58acb31cefb84610092565b6102da60808801357f21850c831ccb571ed2b3f0be02eda466ed6316a1dd3a79e19ef403bd29d5c4307f2372d279ef899cac5b6fa53a0cad047772a8c1a9161e82cd5d9810818d9275e884610092565b61032a60a08801357f278a22fbf9b6e2fc871d20468e6f78dc6b2e2d5dbc2a9cc1768ad4dfc632e9cc7f16e1c0ae4b727d98f76d7f91867205f4c21f09e53fc3d82d86e498306a3f7ec984610092565b61037a60c08801357f26028a46f0869b6aec8a04b3539c655ca040a971ed038b0a668351cd32e2d8217f0b95379dccd4808614519a11db205272dc63d5a786d7ed630c06af796b46faf884610092565b6103ca60e08801357f16e910cbdf634acc8b735d1647eb21889ed5e3aa0a6b0067a6d63076091ad1467f19bd67057941a3fa1b0c057140efb1c18c999a7a2796851ead424aa1f3a7b69984610092565b61041b6101008801357f23e8faa10fb2fa6e8c618a2138fb72d00c80492ab2fdfa77c5bf92a1abb2f0107f1748e178fec0d6f59c74ac334a685d0b55c5779f47109f2efc18b543cf99ae0f84610092565b61046c6101208801357f2a14904b2910f4f3a7f14ec5bf31f3df5e57e96cf93f096a02b9e7221353d5237f28e10568bea0fcbdd262ec466e297c94f5dbc00aa8afec43bca975dfa9a7659f84610092565b6104bd6101408801357f2ec880ee525b229a115c11e4f2d1dc2378f35155184c11e13a29d23e730697047f189636e0a2057c850ae35ccb8c3e2ee6b77c688ae63f64027a7a8292fb9227f084610092565b61050e6101608801357f2954f2a4e3505217a4f59a292f84d3069ee8dd46742a2a4b0ed6c7cbac0b9c1f7f147f877e22dd3c64dc453633f1b1fc026c3909877d9034d8e08679ceb373c31284610092565b61055f6101808801357f17e2fd8e6ab5fd572ead38c748dc2fa0d9235d78f56285eeb1984079ecc014027f2772ef165183221f48372b5d8062012604774b2bdef046c8cc768e729c45b2c984610092565b6105b06101a08801357f15076d5d16e7e686f82de8d8e0757f10cb843e2a96aaec4552b4f873e77d2a747f161bc4358e60f4d8d6f959bc903ef5be448503719a9cbb9049edb176937f6a4184610092565b6106016101c08801357f0a0f275863ab28bee7cd62356415ecc1f390e6a503c50e2d338cc53a32c5c8f77f0916d600c4a0da38b76bc08e55efc3a7bbce8e586db0e4ecbb699db97b2c5d9484610092565b6106526101e08801357f2fdbd75b9c2509125a1134091303f46b54d94ec14238af55950fca53398ae02b7f08ad93b8e75a9982bf02ce5f5cf6cf5f33c3858a258ce8986679829c0bc22c4584610092565b6106a36102008801357f290499ea4faf9a49bcf8639b3cb26b00fb42284823bd0d5d484d50ae3e61c0727f02060c0646429845ff465e9af92758021fa0572b9aa963dc59a70e1da4883c5384610092565b6106f46102208801357f1085ea9dbe714f970412d1d326d3cb46028505e9ced4f5bfe40bb3c33ab65bea7f11c1130c6065e489794d930edcc28ebe2fc3b9ad663233a076469d620e59488884610092565b6107456102408801357f24da04163d8bd29502250f7d68b8531d5869f63034dbf0458e62c1dc5cad70227f2d013c1b45aaad8773627a1dd295f969c4412aba1a849d6ec4f28c361619fa8384610092565b6107966102608801357f27d1b6ccdab09c86216310faac48cf33f9ae07577d89fbbf42e7cad0a4cc4bec7f0350fcce3f9e402ad210b68f77dc9d3add5d53cd5f61c73464b56efba25b600e84610092565b6107e66102808801357e6ae1163a2f80672b30279f455eb533bccb3ae11ae8d05482b83efee7a551ea7f067f326923a247b6274d308ca6373aab3393e4b9f454e94eb65502e0ba8cc16084610092565b6108376102a08801357f2993eb2a768c127951aac675a9020e8e180a06de73be706c123c393ecee1776a7f045d052db1573b16b92a1549a0540cfe567cc15ccd4e4cb0b9fe4fce18e43a3f84610092565b6108886102c08801357f183dc7a4591d678cca302f1c4c0752a78cec045bd9994998f2346dcfa6b57ad37f2a9551d9fefd8f3ec41d59331514ed8ee0b47a70e552cd12fd901263f254586f84610092565b6108d96102e08801357f1953e89b7cd2fbaeec681984623abc1511115bf6955cf1b46e4bda9a6e1dc38e7f2b4b4018c494f41d9dfe3315291ae8ae8f9f83a609bbb846e0bba2f0c3c60b2484610092565b61092a6103008801357f1902579adf69afb6f63e63c93877ce09aa1f0eeff2d8df2db91499c5673d62b37f04ae9b0bd7e76a8c736745f4f8e982d2a70e431d112d530b2ac33809dba9dfd584610092565b61097b6103208801357f021723e431b5c6e226603e5f02aa9489b34c7217f2e08318de597da85b52b9457f237f8fafe9387ea55bbb7bd4fcda3f1f22619f0697fd2d13168a77637561b95584610092565b6109cc6103408801357f064162eeda58200a5e8c4923cdc68838a81b0427dbdb68a48a746f557ded6db17f0e608d1672d88af4e9f3c00ac671dd998f2a65e658917bc86a3f24638e9709ba84610092565b610a1d6103608801357f2bc45fab968d302bcf441b9af89d76635af55a243ee55f031a6cf057ab63e03f7f305556df1378105245c2fe7265ba345b7a32e04c3b4d9484b86f1770d2b8784f84610092565b610a6d6103808801357f01dd257c4100974b0c80ee1e0ba53e38fca30a6b1ac5421b2a59b9875431e50f7ebd47e99348975985ebe753c04329a44e6a968f5544db2ac154c2e3c0baf8df84610092565b610abe6103a08801357f108cb584d08013c7fc35b7328b03e02ed7352242eea5e6a7f57092cdc5aa32f67f0cb5ae66435280043bdfc8c12ed4a3173602681f355d1446903d34c12161600c84610092565b610b0f6103c08801357f0b1e4e5dcfd8e9ed9334b27aa6a11ca6d01b6e4b043a4b11b1cdbc5c502a95107f0c0c33b3e517f155bb8015c3ea80037f7d8ba4f2c020d9772ecaf4adc7a4015184610092565b610b606103e08801357f147cabb1d5cae55bad4ea76bd9b995ec7811735590d7aa4d077db4fcb820a9ec7f18a3cdc26302448a32614e4252f53db051365734461dd0e7ffdbd62b7605c64684610092565b610bb16104008801357f22f0120b986bfcd509e33c94dc0e2a2aedbec5c111444ccf9f19c993a33e43d17f11c8660ca1735998b9b276bcebd1c5dacf6797140a61e332890a71742569241284610092565b610c026104208801357f22bf0818e12b302f3c9ffd507ef40d234218ac124f45e287ca022ae814ef723e7f074a6d3d184843853616da867cdaed5445945389be1ddc4932237ead825e8c0484610092565b50823581527f30644e72e131a029b85045b68181585d97816a916871ca8d3c208c16d87cfd4760208401357f30644e72e131a029b85045b68181585d97816a916871ca8d3c208c16d87cfd4703066020820152833560408201526020840135606082015260408401356080820152606084013560a08201527f2d4d9aa7e302d9df41749d5507949d05dbea33fbb16c643b22f599a2be6df2e260c08201527f14bedd503c37ceb061d8ec60209fe345ce89830a19230301f076caff004d192660e08201527f0967032fcbf776d1afc985f88877f182d38480a653f2decaa9794cbc3bf3060c6101008201527f0e187847ad4c798374d0d6732bf501847dd68bc0e071241e0213bc7fc13db7ab6101208201527f304cfbd1e08a704a99f5e847d93f8c3caafddec46b7a0d379da69a4d112346a76101408201527f1739c1b1a457a8c7313123d24d2f9192f896b7c63eea05a9d57f06547ad0cec8610160820152600087015161018082015260206000018701516101a08201527f198e9393920d483a7260bfb731fb5d25f1aa493335a9e71297e485b7aef312c26101c08201527f1800deef121f1e76426a00665e5c4479674322d4f75edadd46debd5cd992f6ed6101e08201527f090689d0585ff075ec9e99ad690c3395bc4b313370b38ef355acdadcd122975b6102008201527f12c85ea5db8c6deb4aab71808dcb408fe3d1e7690c43d37b4ce6cc0166fa7daa610220820152843561024082015260208501356102608201527f1c151dd713a808a93ac4ba1a8f6d6053efc50ff8626b5aa94d243e83df8b3bd66102808201527f2121578ad4bf542f1d267334493cad2e760ea408f648187790077c0753ae9ae76102a08201527f1d7902242fe544b8414dfe4b08bd88758378b0023e55c92b424a24f5d85390346102c08201527f092964218526a9f90d8affb3cbe7b14db655a5d617af82ae3ffedbfee0be1aea6102e08201526020816103008360086107d05a03fa9051169695505050505050565b6040516103808101604052610efa600084013561005e565b610f07602084013561005e565b610f14604084013561005e565b610f21606084013561005e565b610f2e608084013561005e565b610f3b60a084013561005e565b610f4860c084013561005e565b610f5560e084013561005e565b610f6361010084013561005e565b610f7161012084013561005e565b610f7f61014084013561005e565b610f8d61016084013561005e565b610f9b61018084013561005e565b610fa96101a084013561005e565b610fb76101c084013561005e565b610fc56101e084013561005e565b610fd361020084013561005e565b610fe161022084013561005e565b610fef61024084013561005e565b610ffd61026084013561005e565b61100b61028084013561005e565b6110196102a084013561005e565b6110276102c084013561005e565b6110356102e084013561005e565b61104361030084013561005e565b61105161032084013561005e565b61105f61034084013561005e565b61106d61036084013561005e565b61107b61038084013561005e565b6110896103a084013561005e565b6110976103c084013561005e565b6110a56103e084013561005e565b6110b361040084013561005e565b6110c161042084013561005e565b6110ce818486888a6100fd565b90508060005260206000f35b80604081018310156110eb57600080fd5b92915050565b60008060008061054080868803121561110957600080fd5b61111387876110da565b945060c086018781111561112657600080fd5b60408701945061113688826110da565b93505086818701111561114857600080fd5b5092959194509261010001915056fea26469706673582212207d7d65bd4444f0504670d3e995fb3f54e7fc9bb1ec08fe4bdc71a93da546a44b64736f6c63430008180033",
  "linkReferences": {},
  "deployedLinkReferences": {}
}