{
  "_format": "hh-sol-artifact-1",
  "contractName": "PlaygroundErc721",
  "sourceName": "src/rayls-protocol/test-contracts/PlaygroundErc721.sol",
  "abi": [
    {
      "inputs": [
        {
          "internalType": "string",
          "name": "uri",
          "type": "string"
        },
        {
          "internalType": "string",
          "name": "name",
          "type": "string"
        },
        {
          "internalType": "string",
          "name": "symbol",
          "type": "string"
        },
        {
          "internalType": "address",
          "name": "endpoint",
          "type": "address"
        }
      ],
      "stateMutability": "nonpayable",
      "type": "constructor"
    },
    {
      "inputs": [
        {
          "internalType": "address",
          "name": "sender",
          "type": "address"
        },
        {
          "internalType": "uint256",
          "name": "tokenId",
          "type": "uint256"
        },
        {
          "internalType": "address",
          "name": "owner",
          "type": "address"
        }
      ],
      "name": "ERC721IncorrectOwner",
      "type": "error"
    },
    {
      "inputs": [
        {
          "internalType": "address",
          "name": "operator",
          "type": "address"
        },
        {
          "internalType": "uint256",
          "name": "tokenId",
          "type": "uint256"
        }
      ],
      "name": "ERC721InsufficientApproval",
      "type": "error"
    },
    {
      "inputs": [
        {
          "internalType": "address",
          "name": "approver",
          "type": "address"
        }
      ],
      "name": "ERC721InvalidApprover",
      "type": "error"
    },
    {
      "inputs": [
        {
          "internalType": "address",
          "name": "operator",
          "type": "address"
        }
      ],
      "name": "ERC721InvalidOperator",
      "type": "error"
    },
    {
      "inputs": [
        {
          "internalType": "address",
          "name": "owner",
          "type": "address"
        }
      ],
      "name": "ERC721InvalidOwner",
      "type": "error"
    },
    {
      "inputs": [
        {
          "internalType": "address",
          "name": "receiver",
          "type": "address"
        }
      ],
      "name": "ERC721InvalidReceiver",
      "type": "error"
    },
    {
      "inputs": [
        {
          "internalType": "address",
          "name": "sender",
          "type": "address"
        }
      ],
      "name": "ERC721InvalidSender",
      "type": "error"
    },
    {
      "inputs": [
        {
          "internalType": "uint256",
          "name": "tokenId",
          "type": "uint256"
        }
      ],
      "name": "ERC721NonexistentToken",
      "type": "error"
    },
    {
      "inputs": [],
      "name": "InvalidInitialization",
      "type": "error"
    },
    {
      "inputs": [],
      "name": "NotInitializing",
      "type": "error"
    },
    {
      "inputs": [
        {
          "internalType": "address",
          "name": "owner",
          "type": "address"
        }
      ],
      "name": "OwnableInvalidOwner",
      "type": "error"
    },
    {
      "inputs": [
        {
          "internalType": "address",
          "name": "account",
          "type": "address"
        }
      ],
      "name": "OwnableUnauthorizedAccount",
      "type": "error"
    },
    {
      "anonymous": false,
      "inputs": [
        {
          "indexed": true,
          "internalType": "address",
          "name": "owner",
          "type": "address"
        },
        {
          "indexed": true,
          "internalType": "address",
          "name": "approved",
          "type": "address"
        },
        {
          "indexed": true,
          "internalType": "uint256",
          "name": "tokenId",
          "type": "uint256"
        }
      ],
      "name": "Approval",
      "type": "event"
    },
    {
      "anonymous": false,
      "inputs": [
        {
          "indexed": true,
          "internalType": "address",
          "name": "owner",
          "type": "address"
        },
        {
          "indexed": true,
          "internalType": "address",
          "name": "operator",
          "type": "address"
        },
        {
          "indexed": false,
          "internalType": "bool",
          "name": "approved",
          "type": "bool"
        }
      ],
      "name": "ApprovalForAll",
      "type": "event"
    },
    {
      "anonymous": false,
      "inputs": [
        {
          "indexed": false,
          "internalType": "uint64",
          "name": "version",
          "type": "uint64"
        }
      ],
      "name": "Initialized",
      "type": "event"
    },
    {
      "anonymous": false,
      "inputs": [
        {
          "indexed": true,
          "internalType": "address",
          "name": "previousOwner",
          "type": "address"
        },
        {
          "indexed": true,
          "internalType": "address",
          "name": "newOwner",
          "type": "address"
        }
      ],
      "name": "OwnershipTransferred",
      "type": "event"
    },
    {
      "anonymous": false,
      "inputs": [
        {
          "indexed": true,
          "internalType": "address",
          "name": "from",
          "type": "address"
        },
        {
          "indexed": true,
          "internalType": "address",
          "name": "to",
          "type": "address"
        },
        {
          "indexed": true,
          "internalType": "uint256",
          "name": "tokenId",
          "type": "uint256"
        }
      ],
      "name": "Transfer",
      "type": "event"
    },
    {
      "inputs": [],
      "name": "_getEndpointAddress",
      "outputs": [
        {
          "internalType": "address",
          "name": "",
          "type": "address"
        }
      ],
      "stateMutability": "view",
      "type": "function"
    },
    {
      "inputs": [],
      "name": "_tokenName",
      "outputs": [
        {
          "internalType": "string",
          "name": "",
          "type": "string"
        }
      ],
      "stateMutability": "view",
      "type": "function"
    },
    {
      "inputs": [],
      "name": "_tokenSymbol",
      "outputs": [
        {
          "internalType": "string",
          "name": "",
          "type": "string"
        }
      ],
      "stateMutability": "view",
      "type": "function"
    },
    {
      "inputs": [
        {
          "internalType": "address",
          "name": "_endpoint",
          "type": "address"
        }
      ],
      "name": "_updateEndpoint",
      "outputs": [],
      "stateMutability": "nonpayable",
      "type": "function"
    },
    {
      "inputs": [
        {
          "internalType": "address",
          "name": "to",
          "type": "address"
        },
        {
          "internalType": "uint256",
          "name": "tokenId",
          "type": "uint256"
        }
      ],
      "name": "approve",
      "outputs": [],
      "stateMutability": "nonpayable",
      "type": "function"
    },
    {
      "inputs": [
        {
          "internalType": "address",
          "name": "owner",
          "type": "address"
        }
      ],
      "name": "balanceOf",
      "outputs": [
        {
          "internalType": "uint256",
          "name": "",
          "type": "uint256"
        }
      ],
      "stateMutability": "view",
      "type": "function"
    },
    {
      "inputs": [
        {
          "internalType": "uint256",
          "name": "id",
          "type": "uint256"
        }
      ],
      "name": "burn",
      "outputs": [],
      "stateMutability": "nonpayable",
      "type": "function"
    },
    {
      "inputs": [
        {
          "internalType": "bytes32",
          "name": "_resourceId",
          "type": "bytes32"
        }
      ],
      "name": "getAddressByResourceId",
      "outputs": [
        {
          "internalType": "address",
          "name": "",
          "type": "address"
        }
      ],
      "stateMutability": "view",
      "type": "function"
    },
    {
      "inputs": [
        {
          "internalType": "uint256",
          "name": "tokenId",
          "type": "uint256"
        }
      ],
      "name": "getApproved",
      "outputs": [
        {
          "internalType": "address",
          "name": "",
          "type": "address"
        }
      ],
      "stateMutability": "view",
      "type": "function"
    },
    {
      "inputs": [],
      "name": "getCreator",
      "outputs": [
        {
          "internalType": "address",
          "name": "",
          "type": "address"
        }
      ],
      "stateMutability": "view",
      "type": "function"
    },
    {
      "inputs": [],
      "name": "getErcStandard",
      "outputs": [
        {
          "internalType": "enum SharedObjects.ErcStandard",
          "name": "",
          "type": "uint8"
        }
      ],
      "stateMutability": "pure",
      "type": "function"
    },
    {
      "inputs": [],
      "name": "getName",
      "outputs": [
        {
          "internalType": "string",
          "name": "",
          "type": "string"
        }
      ],
      "stateMutability": "view",
      "type": "function"
    },
    {
      "inputs": [],
      "name": "getSymbol",
      "outputs": [
        {
          "internalType": "string",
          "name": "",
          "type": "string"
        }
      ],
      "stateMutability": "view",
      "type": "function"
    },
    {
      "inputs": [],
      "name": "getUri",
      "outputs": [
        {
          "internalType": "string",
          "name": "",
          "type": "string"
        }
      ],
      "stateMutability": "view",
      "type": "function"
    },
    {
      "inputs": [
        {
          "internalType": "string",
          "name": "uri",
          "type": "string"
        },
        {
          "internalType": "string",
          "name": "name_",
          "type": "string"
        },
        {
          "internalType": "string",
          "name": "symbol_",
          "type": "string"
        }
      ],
      "name": "initialize",
      "outputs": [],
      "stateMutability": "nonpayable",
      "type": "function"
    },
    {
      "inputs": [
        {
          "internalType": "address",
          "name": "owner",
          "type": "address"
        },
        {
          "internalType": "address",
          "name": "operator",
          "type": "address"
        }
      ],
      "name": "isApprovedForAll",
      "outputs": [
        {
          "internalType": "bool",
          "name": "",
          "type": "bool"
        }
      ],
      "stateMutability": "view",
      "type": "function"
    },
    {
      "inputs": [
        {
          "internalType": "address",
          "name": "account",
          "type": "address"
        },
        {
          "internalType": "uint256",
          "name": "id",
          "type": "uint256"
        }
      ],
      "name": "isTokenLocked",
      "outputs": [
        {
          "internalType": "bool",
          "name": "",
          "type": "bool"
        }
      ],
      "stateMutability": "view",
      "type": "function"
    },
    {
      "inputs": [
        {
          "internalType": "address",
          "name": "to",
          "type": "address"
        },
        {
          "internalType": "uint256",
          "name": "id",
          "type": "uint256"
        }
      ],
      "name": "mint",
      "outputs": [],
      "stateMutability": "nonpayable",
      "type": "function"
    },
    {
      "inputs": [],
      "name": "name",
      "outputs": [
        {
          "internalType": "string",
          "name": "",
          "type": "string"
        }
      ],
      "stateMutability": "view",
      "type": "function"
    },
    {
      "inputs": [],
      "name": "owner",
      "outputs": [
        {
          "internalType": "address",
          "name": "",
          "type": "address"
        }
      ],
      "stateMutability": "view",
      "type": "function"
    },
    {
      "inputs": [
        {
          "internalType": "uint256",
          "name": "tokenId",
          "type": "uint256"
        }
      ],
      "name": "ownerOf",
      "outputs": [
        {
          "internalType": "address",
          "name": "",
          "type": "address"
        }
      ],
      "stateMutability": "view",
      "type": "function"
    },
    {
      "inputs": [
        {
          "internalType": "bytes32",
          "name": "_resourceId",
          "type": "bytes32"
        }
      ],
      "name": "receiveResourceId",
      "outputs": [],
      "stateMutability": "nonpayable",
      "type": "function"
    },
    {
      "inputs": [
        {
          "internalType": "address",
          "name": "to",
          "type": "address"
        },
        {
          "internalType": "uint256",
          "name": "id",
          "type": "uint256"
        }
      ],
      "name": "receiveTeleport",
      "outputs": [],
      "stateMutability": "nonpayable",
      "type": "function"
    },
    {
      "inputs": [
        {
          "internalType": "address",
          "name": "to",
          "type": "address"
        },
        {
          "internalType": "uint256",
          "name": "id",
          "type": "uint256"
        }
      ],
      "name": "receiveTeleportAtomic",
      "outputs": [],
      "stateMutability": "nonpayable",
      "type": "function"
    },
    {
      "inputs": [],
      "name": "renounceOwnership",
      "outputs": [],
      "stateMutability": "nonpayable",
      "type": "function"
    },
    {
      "inputs": [],
      "name": "resourceId",
      "outputs": [
        {
          "internalType": "bytes32",
          "name": "",
          "type": "bytes32"
        }
      ],
      "stateMutability": "view",
      "type": "function"
    },
    {
      "inputs": [
        {
          "internalType": "uint256",
          "name": "id",
          "type": "uint256"
        }
      ],
      "name": "revertTeleportBurn",
      "outputs": [],
      "stateMutability": "nonpayable",
      "type": "function"
    },
    {
      "inputs": [
        {
          "internalType": "address",
          "name": "to",
          "type": "address"
        },
        {
          "internalType": "uint256",
          "name": "id",
          "type": "uint256"
        }
      ],
      "name": "revertTeleportMint",
      "outputs": [],
      "stateMutability": "nonpayable",
      "type": "function"
    },
    {
      "inputs": [
        {
          "internalType": "address",
          "name": "from",
          "type": "address"
        },
        {
          "internalType": "address",
          "name": "to",
          "type": "address"
        },
        {
          "internalType": "uint256",
          "name": "tokenId",
          "type": "uint256"
        }
      ],
      "name": "safeTransferFrom",
      "outputs": [],
      "stateMutability": "nonpayable",
      "type": "function"
    },
    {
      "inputs": [
        {
          "internalType": "address",
          "name": "from",
          "type": "address"
        },
        {
          "internalType": "address",
          "name": "to",
          "type": "address"
        },
        {
          "internalType": "uint256",
          "name": "tokenId",
          "type": "uint256"
        },
        {
          "internalType": "bytes",
          "name": "data",
          "type": "bytes"
        }
      ],
      "name": "safeTransferFrom",
      "outputs": [],
      "stateMutability": "nonpayable",
      "type": "function"
    },
    {
      "inputs": [
        {
          "internalType": "address",
          "name": "operator",
          "type": "address"
        },
        {
          "internalType": "bool",
          "name": "approved",
          "type": "bool"
        }
      ],
      "name": "setApprovalForAll",
      "outputs": [],
      "stateMutability": "nonpayable",
      "type": "function"
    },
    {
      "inputs": [
        {
          "internalType": "string",
          "name": "uri",
          "type": "string"
        }
      ],
      "name": "setUri",
      "outputs": [],
      "stateMutability": "nonpayable",
      "type": "function"
    },
    {
      "inputs": [
        {
          "internalType": "uint8",
          "name": "_storageSlot",
          "type": "uint8"
        }
      ],
      "name": "submitTokenRegistration",
      "outputs": [],
      "stateMutability": "nonpayable",
      "type": "function"
    },
    {
      "inputs": [
        {
          "internalType": "enum SharedObjects.BalanceUpdateType",
          "name": "updateType",
          "type": "uint8"
        },
        {
          "internalType": "uint256",
          "name": "tokenId",
          "type": "uint256"
        }
      ],
      "name": "submitTokenUpdate",
      "outputs": [],
      "stateMutability": "nonpayable",
      "type": "function"
    },
    {
      "inputs": [
        {
          "internalType": "bytes4",
          "name": "interfaceId",
          "type": "bytes4"
        }
      ],
      "name": "supportsInterface",
      "outputs": [
        {
          "internalType": "bool",
          "name": "",
          "type": "bool"
        }
      ],
      "stateMutability": "view",
      "type": "function"
    },
    {
      "inputs": [],
      "name": "symbol",
      "outputs": [
        {
          "internalType": "string",
          "name": "",
          "type": "string"
        }
      ],
      "stateMutability": "view",
      "type": "function"
    },
    {
      "inputs": [
        {
          "internalType": "address",
          "name": "to",
          "type": "address"
        },
        {
          "internalType": "uint256",
          "name": "id",
          "type": "uint256"
        },
        {
          "internalType": "uint256",
          "name": "chainId",
          "type": "uint256"
        }
      ],
      "name": "teleport",
      "outputs": [
        {
          "internalType": "bool",
          "name": "",
          "type": "bool"
        }
      ],
      "stateMutability": "nonpayable",
      "type": "function"
    },
    {
      "inputs": [
        {
          "internalType": "address",
          "name": "to",
          "type": "address"
        },
        {
          "internalType": "uint256",
          "name": "id",
          "type": "uint256"
        },
        {
          "internalType": "uint256",
          "name": "chainId",
          "type": "uint256"
        }
      ],
      "name": "teleportAtomic",
      "outputs": [
        {
          "internalType": "bool",
          "name": "",
          "type": "bool"
        }
      ],
      "stateMutability": "nonpayable",
      "type": "function"
    },
    {
      "inputs": [
        {
          "internalType": "uint256",
          "name": "tokenId",
          "type": "uint256"
        }
      ],
      "name": "tokenURI",
      "outputs": [
        {
          "internalType": "string",
          "name": "",
          "type": "string"
        }
      ],
      "stateMutability": "view",
      "type": "function"
    },
    {
      "inputs": [
        {
          "internalType": "address",
          "name": "from",
          "type": "address"
        },
        {
          "internalType": "address",
          "name": "to",
          "type": "address"
        },
        {
          "internalType": "uint256",
          "name": "tokenId",
          "type": "uint256"
        }
      ],
      "name": "transferFrom",
      "outputs": [],
      "stateMutability": "nonpayable",
      "type": "function"
    },
    {
      "inputs": [
        {
          "internalType": "address",
          "name": "newOwner",
          "type": "address"
        }
      ],
      "name": "transferOwnership",
      "outputs": [],
      "stateMutability": "nonpayable",
      "type": "function"
    },
    {
      "inputs": [
        {
          "internalType": "address",
          "name": "to",
          "type": "address"
        },
        {
          "internalType": "uint256",
          "name": "id",
          "type": "uint256"
        }
      ],
      "name": "unlock",
      "outputs": [
        {
          "internalType": "bool",
          "name": "",
          "type": "bool"
        }
      ],
      "stateMutability": "nonpayable",
      "type": "function"
    }
  ],
  "bytecode": "0x60806040523480156200001157600080fd5b50604051620033963803806200339683398101604081905262000034916200031c565b600080546001600160a01b0319166001600160a01b0383161781558490849084908490339081858560026200006a838262000460565b50600362000079828262000460565b5050506001600160a01b038116620000ab57604051631e4fbdf760e01b81526000600482015260240160405180910390fd5b620000b6816200014e565b50600a620000c5868262000460565b50600b620000d4858262000460565b506009620000e3878262000460565b50600c805460ff1916821515179055620000fc620001a0565b5050601180546001600160a01b0319163317905550601292506200012591508690508262000460565b50601362000134848262000460565b50601462000143838262000460565b50505050506200052c565b600880546001600160a01b038381166001600160a01b0319831681179093556040519116919082907f8be0079c531659141344cd1fd0a4f28419497f9722a3daafe3b4186f6b6457e090600090a35050565b7ff0c57e16840df040f15088dc2f81fe391c3923bec73e23a9662efc9c229c6a00805468010000000000000000900460ff1615620001f15760405163f92ee8a960e01b815260040160405180910390fd5b80546001600160401b0390811614620002515780546001600160401b0319166001600160401b0390811782556040519081527fc7f505b2f371ae2175ee4913f4499e1f2633a7b5936321eed1cdaeb6115181d29060200160405180910390a15b50565b634e487b7160e01b600052604160045260246000fd5b600082601f8301126200027c57600080fd5b81516001600160401b038082111562000299576200029962000254565b604051601f8301601f19908116603f01168101908282118183101715620002c457620002c462000254565b8160405283815260209250866020858801011115620002e257600080fd5b600091505b83821015620003065785820183015181830184015290820190620002e7565b6000602085830101528094505050505092915050565b600080600080608085870312156200033357600080fd5b84516001600160401b03808211156200034b57600080fd5b62000359888389016200026a565b955060208701519150808211156200037057600080fd5b6200037e888389016200026a565b945060408701519150808211156200039557600080fd5b50620003a4878288016200026a565b606087015190935090506001600160a01b0381168114620003c457600080fd5b939692955090935050565b600181811c90821680620003e457607f821691505b6020821081036200040557634e487b7160e01b600052602260045260246000fd5b50919050565b601f8211156200045b576000816000526020600020601f850160051c81016020861015620004365750805b601f850160051c820191505b81811015620004575782815560010162000442565b5050505b505050565b81516001600160401b038111156200047c576200047c62000254565b62000494816200048d8454620003cf565b846200040b565b602080601f831160018114620004cc5760008415620004b35750858301515b600019600386901b1c1916600185901b17855562000457565b600085815260208120601f198616915b82811015620004fd57888601518255948401946001909101908401620004dc565b50858210156200051c5787850151600019600388901b60f8161c191681555b5050505050600190811b01905550565b612e5a806200053c6000396000f3fe608060405234801561001057600080fd5b506004361061021e5760003560e01c80637ae1ccf911610126578063b247d946116100b3578063b247d9461461048e578063b88d4fde1461049f578063be1ad65c146104b2578063c0251d55146104c5578063c6a690a4146104d8578063c87b56dd146104eb578063e3ee8a43146104fe578063e841716914610511578063e985e9c514610520578063ecf35cca14610533578063f2fde38b1461053b57600080fd5b80637ae1ccf9146103cb5780637eee288d146104045780638da5cb5b14610417578063921e31681461041f57806395d89b411461043257806396bebd041461043a5780639b642de11461044d5780639f0c812514610460578063a22cb46514610468578063a6487c531461047b57600080fd5b80632e30417b116101af5780632e30417b146102ef57806340c10f191461030257806342842e0e1461031557806342966c68146103285780634e16fc8b1461033b578063556da1b9146103435780635f997c5b146103565780636352211e1461036d5780636f1813181461038057806370a08231146103b0578063715018a6146103c357600080fd5b806301ffc9a71461022357806306fdde031461024b578063081812fc14610260578063095ea7b3146102805780630e5ee780146102955780630ee2cb10146102a857806311f50c85146102b957806315070401146102cc57806317d7de7c146102d457806323b872dd146102dc575b600080fd5b610236610231366004612377565b61054e565b60405190151581526020015b60405180910390f35b6102536105a0565b60405161024291906123e4565b61027361026e3660046123f7565b610632565b6040516102429190612410565b61029361028e366004612439565b610647565b005b6102936102a3366004612465565b610656565b6011546001600160a01b0316610273565b6102736102c73660046123f7565b610660565b6102536106ce565b6102536106dd565b6102936102ea366004612487565b6106ec565b6102936102fd3660046123f7565b61076c565b610293610310366004612439565b610805565b610293610323366004612487565b61081a565b6102936103363660046123f7565b61083a565b61025361084e565b6102936103513660046124c8565b61085d565b61035f60015481565b604051908152602001610242565b61027361037b3660046123f7565b610ba4565b61029361038e3660046124eb565b600080546001600160a01b0319166001600160a01b0392909216919091179055565b61035f6103be3660046124eb565b610baf565b610293610bf7565b6102366103d9366004612439565b6001600160a01b03919091166000908152600d60209081526040808320938352929052205460ff1690565b610236610412366004612439565b610c0b565b610273610ca0565b61023661042d366004612508565b610caf565b610253610df3565b610293610448366004612439565b610e02565b61029361045b3660046125e8565b610e0c565b610253610e18565b61029361047636600461262a565b610ea6565b610293610489366004612663565b610eb1565b6000546001600160a01b0316610273565b6102936104ad3660046126ea565b61102c565b6102366104c0366004612508565b611043565b6102936104d3366004612439565b6110e3565b6102936104e6366004612439565b61111e565b6102536104f93660046123f7565b6111ab565b61029361050c3660046123f7565b611213565b60026040516102429190612793565b61023661052e3660046127a1565b611391565b6102536113bf565b6102936105493660046124eb565b6113cc565b60006001600160e01b031982166380ac58cd60e01b148061057f57506001600160e01b03198216635b5e139f60e01b145b8061059a57506301ffc9a760e01b6001600160e01b03198316145b92915050565b6060600a80546105af906127cf565b80601f01602080910402602001604051908101604052809291908181526020018280546105db906127cf565b80156106285780601f106105fd57610100808354040283529160200191610628565b820191906000526020600020905b81548152906001019060200180831161060b57829003601f168201915b5050505050905090565b600061063d82611407565b5061059a8261143f565b61065282823361145a565b5050565b6106528282611467565b600080546040516311f50c8560e01b8152600481018490526001600160a01b03909116906311f50c8590602401602060405180830381865afa1580156106aa573d6000803e3d6000fd5b505050506040513d601f19601f8201168201806040525081019061059a9190612809565b6060601480546105af906127cf565b6060601380546105af906127cf565b6001600160a01b03821661071f576000604051633250574960e11b81526004016107169190612410565b60405180910390fd5b600061072c83833361162b565b9050836001600160a01b0316816001600160a01b031614610766578382826040516364283d7b60e01b815260040161071693929190612826565b50505050565b6000546040516333932be560e11b81526001600160a01b039091169063672657ca9061079c903390600401612410565b602060405180830381865afa1580156107b9573d6000803e3d6000fd5b505050506040513d601f19601f820116820180604052508101906107dd9190612849565b6107f95760405162461bcd60e51b815260040161071690612866565b61080281611785565b50565b61080f82826117c0565b610652600182611467565b6108358383836040518060200160405280600081525061102c565b505050565b61084381611785565b610802600082611467565b6060601280546105af906127cf565b60005460408051631119527160e11b81529051610802926001600160a01b031691632232a4e29160048083019260209291908290030181865afa1580156108a8573d6000803e3d6000fd5b505050506040513d601f19601f820116820180604052508101906108cc91906128d4565b60005460405163377890a160e11b81526001600160a01b0390911690636ef12142906108fa906004016128ed565b602060405180830381865afa158015610917573d6000803e3d6000fd5b505050506040513d601f19601f8201168201806040525081019061093b9190612809565b604051806101400160405280600a8054610954906127cf565b80601f0160208091040260200160405190810160405280929190818152602001828054610980906127cf565b80156109cd5780601f106109a2576101008083540402835291602001916109cd565b820191906000526020600020905b8154815290600101906020018083116109b057829003601f168201915b50505050508152602001600b80546109e4906127cf565b80601f0160208091040260200160405190810160405280929190818152602001828054610a10906127cf565b8015610a5d5780601f10610a3257610100808354040283529160200191610a5d565b820191906000526020600020905b815481529060010190602001808311610a4057829003601f168201915b50505050508152602001610a6f611825565b604051602001610a7f9190612914565b604051602081830303815290604052815260200160008054906101000a90046001600160a01b03166001600160a01b0316633408e4706040518163ffffffff1660e01b8152600401602060405180830381865afa158015610ae4573d6000803e3d6000fd5b505050506040513d601f19601f82011682018060405250810190610b0891906128d4565b8152602001306001600160a01b0316803b806020016040519081016040528181526000908060200190933c8152602001610b4061187c565b81526000602082015260400160028152600c5460ff90811615156020830152861660409182015251610b759190602401612958565b60408051601f198184030181529190526020810180516001600160e01b0316638b55462d60e01b1790526118c5565b600061059a82611407565b60006001600160a01b038216610bdb5760006040516322718ad960e21b81526004016107169190612410565b506001600160a01b031660009081526005602052604090205490565b610bff61193c565b610c09600061196e565b565b6000610c15610ca0565b6001600160a01b0316836001600160a01b031614610c97576000610c3984846119c0565b905080610c835760405162461bcd60e51b815260206004820152601860248201527763616e6e6f7420756e6c6f636b207468652061737365747360401b6044820152606401610716565b610c95610c8e610ca0565b8585611a76565b505b50600192915050565b6008546001600160a01b031690565b6000610cba83611785565b6040805160c08101825260018082526020820186905233828401526001600160a01b038716606083015230608083015260a08201529051610de8908490610d079088908890602401612a4a565b60408051601f198184030181529181526020820180516001600160e01b031663c0251d5560e01b17905251610d429089908990602401612a4a565b60408051601f198184030181529181526020820180516001600160e01b0316637eee288d60e01b17905251610d7d9033908a90602401612a4a565b60408051601f198184030181529181526020820180516001600160e01b03166331a9a42960e21b17905251610db89033908b90602401612a4a565b60408051601f198184030181529190526020810180516001600160e01b0316630e3f4c6f60e31b17905286611a91565b506001949350505050565b6060600b80546105af906127cf565b61065282826117c0565b60126106528282612aab565b600a8054610e25906127cf565b80601f0160208091040260200160405190810160405280929190818152602001828054610e51906127cf565b8015610e9e5780601f10610e7357610100808354040283529160200191610e9e565b820191906000526020600020905b815481529060010190602001808311610e8157829003601f168201915b505050505081565b610652338383611af1565b7ff0c57e16840df040f15088dc2f81fe391c3923bec73e23a9662efc9c229c6a008054600160401b810460ff1615906001600160401b0316600081158015610ef65750825b90506000826001600160401b03166001148015610f125750303b155b905081158015610f20575080155b15610f3e5760405163f92ee8a960e01b815260040160405180910390fd5b845467ffffffffffffffff191660011785558315610f6857845460ff60401b1916600160401b1785555b6000610f72611b87565b90506000610f7e611b9f565b9050610f88611bb6565b600155600a610f978a82612aab565b50600b610fa48982612aab565b506009610fb18b82612aab565b50610fbb8261196e565b600080546001600160a01b0319166001600160a01b039290921691909117905550831561102257845460ff60401b19168555604051600181527fc7f505b2f371ae2175ee4913f4499e1f2633a7b5936321eed1cdaeb6115181d29060200160405180910390a15b5050505050505050565b6110378484846106ec565b61076684848484611bca565b600061104e83611785565b6040805160c08101825260018082526020820186905233828401526001600160a01b038716606083015230608083015260a08201529051610de890849061109b9088908890602401612a4a565b60408051601f19818403018152918152602080830180516001600160e01b03166325afaf4160e21b17905281519081018252600081529051610d7d9033908a90602401612a4a565b6110f46110ee610ca0565b826117c0565b6110fc610ca0565b6001600160a01b0316826001600160a01b031614610652576106528282611ce1565b6000546040516333932be560e11b81526001600160a01b039091169063672657ca9061114e903390600401612410565b602060405180830381865afa15801561116b573d6000803e3d6000fd5b505050506040513d601f19601f8201168201806040525081019061118f9190612849565b610e025760405162461bcd60e51b815260040161071690612866565b60606111b682611407565b5060006111c1611d24565b905060008151116111e1576040518060200160405280600081525061120c565b806111eb84611d33565b6040516020016111fc929190612b6a565b6040516020818303038152906040525b9392505050565b6000546040516333932be560e11b81526001600160a01b039091169063672657ca90611243903390600401612410565b602060405180830381865afa158015611260573d6000803e3d6000fd5b505050506040513d601f19601f820116820180604052508101906112849190612849565b6112a05760405162461bcd60e51b815260040161071690612866565b60008054906101000a90046001600160a01b03166001600160a01b0316632232a4e26040518163ffffffff1660e01b8152600401602060405180830381865afa1580156112f1573d6000803e3d6000fd5b505050506040513d601f19601f8201168201806040525081019061131591906128d4565b61131d611dc5565b146113845760405162461bcd60e51b815260206004820152603160248201527f54686973206d6574686f64206f6e6c7920726563656976652063616c6c7320666044820152703937b69031b7b6b6b4ba1031b430b4b71760791b6064820152608401610716565b6001819055610802611dd9565b6001600160a01b03918216600090815260076020908152604080832093909416825291909152205460ff1690565b600b8054610e25906127cf565b6113d461193c565b6001600160a01b0381166113fe576000604051631e4fbdf760e01b81526004016107169190612410565b6108028161196e565b60008061141383611e9e565b90506001600160a01b03811661059a57604051637e27328960e01b815260048101849052602401610716565b6000908152600660205260409020546001600160a01b031690565b6108358383836001611eb9565b600154611472575050565b60005460408051631119527160e11b81529051610652926001600160a01b031691632232a4e29160048083019260209291908290030181865afa1580156114bd573d6000803e3d6000fd5b505050506040513d601f19601f820116820180604052508101906114e191906128d4565b60005460405163377890a160e11b81526001600160a01b0390911690636ef121429061150f906004016128ed565b602060405180830381865afa15801561152c573d6000803e3d6000fd5b505050506040513d601f19601f820116820180604052508101906115509190612809565b60008054906101000a90046001600160a01b03166001600160a01b0316633408e4706040518163ffffffff1660e01b8152600401602060405180830381865afa1580156115a1573d6000803e3d6000fd5b505050506040513d601f19601f820116820180604052508101906115c591906128d4565b60015486866040516020016115dc91815260200190565b60408051601f19818403018152908290526115fc94939291602401612b99565b60408051601f198184030181529190526020810180516001600160e01b031663401c3df160e11b1790526118c5565b600080611639858585611fb6565b90506001600160a01b0381166116aa576000848152600f602052604090205460ff166116aa576010805460018181019092557f1b6847dc741a1b0cd08d278845f9d819d87b734759afb55fe2de5cb82a9ae672018590556000858152600f60205260409020805460ff191690911790555b6001600160a01b03851661177d576000848152600f60205260408120805460ff191690555b60105481101561177b5784601082815481106116ed576116ed612bd8565b906000526020600020015403611773576010805461170d90600190612bee565b8154811061171d5761171d612bd8565b90600052602060002001546010828154811061173b5761173b612bd8565b600091825260209091200155601080548061175857611758612c0f565b6001900381819060005260206000200160009055905561177b565b6001016116cf565b505b949350505050565b6000611794600083600061162b565b90506001600160a01b03811661065257604051637e27328960e01b815260048101839052602401610716565b6001600160a01b0382166117ea576000604051633250574960e11b81526004016107169190612410565b60006117f88383600061162b565b90506001600160a01b038116156108355760006040516339e3563760e11b81526004016107169190612410565b6060601080548060200260200160405190810160405280929190818152602001828054801561062857602002820191906000526020600020905b81548152602001906001019080831161185f575050505050905090565b60606009600a600b60405160240161189693929190612ca2565b60408051601f198184030181529190526020810180516001600160e01b031663a6487c5360e01b179052919050565b60005460405163150b375f60e01b81526001600160a01b039091169063150b375f906118f990869086908690600401612cdb565b6020604051808303816000875af1158015611918573d6000803e3d6000fd5b505050506040513d601f19601f8201168201806040525081019061076691906128d4565b33611945610ca0565b6001600160a01b031614610c09573360405163118cdaa760e01b81526004016107169190612410565b600880546001600160a01b038381166001600160a01b0319831681179093556040519116919082907f8be0079c531659141344cd1fd0a4f28419497f9722a3daafe3b4186f6b6457e090600090a35050565b60006001600160a01b0383166119d557600080fd5b6001600160a01b0383166000908152600d6020908152604080832085845290915290205460ff16801515600114611a435760405162461bcd60e51b81526020600482015260126024820152714e6f2066756e647320746f20756e6c6f636b60701b6044820152606401610716565b50506001600160a01b03919091166000908152600d6020908152604080832093835292905220805460ff19169055600190565b610835838383604051806020016040528060008152506120aa565b600154611ad85760405162461bcd60e51b81526020600482015260156024820152742a37b5b2b7103737ba103932b3b4b9ba32b932b21760591b6044820152606401610716565b611ae98660015487878787876120b5565b505050505050565b6001600160a01b038216611b1a5781604051630b61174360e31b81526004016107169190612410565b6001600160a01b03838116600081815260076020908152604080832094871680845294825291829020805460ff191686151590811790915591519182527f17307eab39ab6107e8899845ad3d59bd9653f200f220920489ca2b5937696c31910160405180910390a3505050565b600060343610611b9c575060331936013560601c5b90565b600060483610611b9c575060471936013560601c90565b600060203610611b9c5750601f1936013590565b6001600160a01b0383163b1561076657604051630a85bd0160e11b81526001600160a01b0384169063150b7a0290611c0c903390889087908790600401612d0e565b6020604051808303816000875af1925050508015611c47575060408051601f3d908101601f19168201909252611c4491810190612d41565b60015b611ca7573d808015611c75576040519150601f19603f3d011682016040523d82523d6000602084013e611c7a565b606091505b508051600003611c9f5783604051633250574960e11b81526004016107169190612410565b805181602001fd5b6001600160e01b03198116630a85bd0160e11b14611cda5783604051633250574960e11b81526004016107169190612410565b5050505050565b6001600160a01b038216611cf457600080fd5b6001600160a01b039091166000908152600d6020908152604080832093835292905220805460ff19166001179055565b6060600980546105af906127cf565b60606000611d4083612134565b60010190506000816001600160401b03811115611d5f57611d5f61253d565b6040519080825280601f01601f191660200182016040528015611d89576020820181803683370190505b5090508181016020015b600019016f181899199a1a9b1b9c1cb0b131b232b360811b600a86061a8153600a8504945084611d9357509392505050565b600060343610611b9c575060331936013590565b600154611e3a5760405162461bcd60e51b815260206004820152602960248201527f4f6e6c79207265676973746572207265736f75726365207768656e206974277360448201526808185c1c1c9bdd995960ba1b6064820152608401610716565b60005460015460405163d4f951c760e01b815260048101919091523060248201526001600160a01b039091169063d4f951c790604401600060405180830381600087803b158015611e8a57600080fd5b505af1158015610766573d6000803e3d6000fd5b6000908152600460205260409020546001600160a01b031690565b8080611ecd57506001600160a01b03821615155b15611f86576000611edd84611407565b90506001600160a01b03831615801590611f095750826001600160a01b0316816001600160a01b031614155b8015611f1c5750611f1a8184611391565b155b15611f3c578260405163a9fbf51f60e01b81526004016107169190612410565b8115611f845783856001600160a01b0316826001600160a01b03167f8c5be1e5ebec7d5bd14f71427d1e84f3dd0314c0f7b2291e5b200ac8c7c3b92560405160405180910390a45b505b5050600090815260066020526040902080546001600160a01b0319166001600160a01b0392909216919091179055565b600080611fc284611e9e565b90506001600160a01b03831615611fde57611fde81848661220a565b6001600160a01b0381161561201c57611ffb600085600080611eb9565b6001600160a01b038116600090815260056020526040902080546000190190555b6001600160a01b0385161561204b576001600160a01b0385166000908152600560205260409020805460010190555b60008481526004602052604080822080546001600160a01b0319166001600160a01b0389811691821790925591518793918516917fddf252ad1be2c89b69c2b068fc378daa952ba7f163c4a11628f55a4df523b3ef91a4949350505050565b611037848484612260565b600054604051631075c5d160e21b81526001600160a01b03909116906341d71744906120f1908a908a908a908a908a908a908a90600401612d5e565b6020604051808303816000875af1158015612110573d6000803e3d6000fd5b505050506040513d601f19601f8201168201806040525081019061102291906128d4565b60008072184f03e93ff9f4daa797ed6e38ed64bf6a1f0160401b83106121735772184f03e93ff9f4daa797ed6e38ed64bf6a1f0160401b830492506040015b6904ee2d6d415b85acef8160201b831061219d576904ee2d6d415b85acef8160201b830492506020015b662386f26fc1000083106121bb57662386f26fc10000830492506010015b6305f5e10083106121d3576305f5e100830492506008015b61271083106121e757612710830492506004015b606483106121f9576064830492506002015b600a831061059a5760010192915050565b6122158383836122fc565b610835576001600160a01b03831661224357604051637e27328960e01b815260048101829052602401610716565b818160405163177e802f60e01b8152600401610716929190612a4a565b6001600160a01b03821661228a576000604051633250574960e11b81526004016107169190612410565b60006122988383600061162b565b90506001600160a01b0381166122c457604051637e27328960e01b815260048101839052602401610716565b836001600160a01b0316816001600160a01b031614610766578382826040516364283d7b60e01b815260040161071693929190612826565b60006001600160a01b0383161580159061177d5750826001600160a01b0316846001600160a01b0316148061233657506123368484611391565b8061177d5750826001600160a01b031661234f8361143f565b6001600160a01b031614949350505050565b6001600160e01b03198116811461080257600080fd5b60006020828403121561238957600080fd5b813561120c81612361565b60005b838110156123af578181015183820152602001612397565b50506000910152565b600081518084526123d0816020860160208601612394565b601f01601f19169290920160200192915050565b60208152600061120c60208301846123b8565b60006020828403121561240957600080fd5b5035919050565b6001600160a01b0391909116815260200190565b6001600160a01b038116811461080257600080fd5b6000806040838503121561244c57600080fd5b823561245781612424565b946020939093013593505050565b6000806040838503121561247857600080fd5b82356002811061245757600080fd5b60008060006060848603121561249c57600080fd5b83356124a781612424565b925060208401356124b781612424565b929592945050506040919091013590565b6000602082840312156124da57600080fd5b813560ff8116811461120c57600080fd5b6000602082840312156124fd57600080fd5b813561120c81612424565b60008060006060848603121561251d57600080fd5b833561252881612424565b95602085013595506040909401359392505050565b634e487b7160e01b600052604160045260246000fd5b60006001600160401b038084111561256d5761256d61253d565b604051601f8501601f19908116603f011681019082821181831017156125955761259561253d565b816040528093508581528686860111156125ae57600080fd5b858560208301376000602087830101525050509392505050565b600082601f8301126125d957600080fd5b61120c83833560208501612553565b6000602082840312156125fa57600080fd5b81356001600160401b0381111561261057600080fd5b61177d848285016125c8565b801515811461080257600080fd5b6000806040838503121561263d57600080fd5b823561264881612424565b915060208301356126588161261c565b809150509250929050565b60008060006060848603121561267857600080fd5b83356001600160401b038082111561268f57600080fd5b61269b878388016125c8565b945060208601359150808211156126b157600080fd5b6126bd878388016125c8565b935060408601359150808211156126d357600080fd5b506126e0868287016125c8565b9150509250925092565b6000806000806080858703121561270057600080fd5b843561270b81612424565b9350602085013561271b81612424565b92506040850135915060608501356001600160401b0381111561273d57600080fd5b8501601f8101871361274e57600080fd5b61275d87823560208401612553565b91505092959194509250565b634e487b7160e01b600052602160045260246000fd5b6006811061278f5761278f612769565b9052565b6020810161059a828461277f565b600080604083850312156127b457600080fd5b82356127bf81612424565b9150602083013561265881612424565b600181811c908216806127e357607f821691505b60208210810361280357634e487b7160e01b600052602260045260246000fd5b50919050565b60006020828403121561281b57600080fd5b815161120c81612424565b6001600160a01b0393841681526020810192909252909116604082015260600190565b60006020828403121561285b57600080fd5b815161120c8161261c565b60208082526048908201527f5468697320697320612072656365697665206d6574686f642e204f6e6c79206560408201527f6e64706f696e742773206578656375746f722063616e2063616c6c20746869736060820152671036b2ba3437b21760c11b608082015260a00190565b6000602082840312156128e657600080fd5b5051919050565b6020808252600d908201526c546f6b656e526567697374727960981b604082015260600190565b6020808252825182820181905260009190848201906040850190845b8181101561294c57835183529284019291840191600101612930565b50909695505050505050565b60208152600082516101408060208501526129776101608501836123b8565b91506020850151601f198086850301604087015261299584836123b8565b935060408701519150808685030160608701526129b284836123b8565b93506060870151608087015260808701519150808685030160a08701526129d984836123b8565b935060a08701519150808685030160c0870152506129f783826123b8565b92505060c0850151612a0d60e086018215159052565b5060e0850151610100612a228187018361277f565b8601519050610120612a378682018315159052565b9095015160ff1693019290925250919050565b6001600160a01b03929092168252602082015260400190565b601f821115610835576000816000526020600020601f850160051c81016020861015612a8c5750805b601f850160051c820191505b81811015611ae957828155600101612a98565b81516001600160401b03811115612ac457612ac461253d565b612ad881612ad284546127cf565b84612a63565b602080601f831160018114612b0d5760008415612af55750858301515b600019600386901b1c1916600185901b178555611ae9565b600085815260208120601f198616915b82811015612b3c57888601518255948401946001909101908401612b1d565b5085821015612b5a5787850151600019600388901b60f8161c191681555b5050505050600190811b01905550565b60008351612b7c818460208801612394565b835190830190612b90818360208801612394565b01949350505050565b848152836020820152600060028410612bb457612bb4612769565b83604083015260806060830152612bce60808301846123b8565b9695505050505050565b634e487b7160e01b600052603260045260246000fd5b8181038181111561059a57634e487b7160e01b600052601160045260246000fd5b634e487b7160e01b600052603160045260246000fd5b60008154612c32816127cf565b808552602060018381168015612c4f5760018114612c6957612c97565b60ff1985168884015283151560051b880183019550612c97565b866000528260002060005b85811015612c8f5781548a8201860152908301908401612c74565b890184019650505b505050505092915050565b606081526000612cb56060830186612c25565b8281036020840152612cc78186612c25565b90508281036040840152612bce8185612c25565b8381526001600160a01b0383166020820152606060408201819052600090612d05908301846123b8565b95945050505050565b6001600160a01b0385811682528416602082015260408101839052608060608201819052600090612bce908301846123b8565b600060208284031215612d5357600080fd5b815161120c81612361565b6000610180898352886020840152806040840152612d7e818401896123b8565b90508281036060840152612d9281886123b8565b90508281036080840152612da681876123b8565b905082810360a0840152612dba81866123b8565b915050825160058110612dcf57612dcf612769565b60c0830152602083015160e083015260408301516001600160a01b039081166101008401526060840151811661012084015260808401511661014083015260a09092015161016090910152969550505050505056fea26469706673582212201e239427994b8e4852bbfbd0206e5c99284c8ecdda49b85f84eabb14a5ed42fb64736f6c63430008180033",
  "linkReferences": {},
  "deployedLinkReferences": {}
}