{
  "_format": "hh-sol-artifact-1",
  "contractName": "EnygmaCCEvents",
  "sourceName": "src/rayls-protocol-sdk/contracts/EnygmaCCEvents.sol",
  "abi": [
    {
      "inputs": [
        {
          "internalType": "address",
          "name": "_endpointAddress",
          "type": "address"
        }
      ],
      "stateMutability": "nonpayable",
      "type": "constructor"
    },
    {
      "anonymous": false,
      "inputs": [
        {
          "indexed": false,
          "internalType": "bytes32",
          "name": "referenceId",
          "type": "bytes32"
        },
        {
          "indexed": false,
          "internalType": "bytes32",
          "name": "txHash",
          "type": "bytes32"
        },
        {
          "indexed": false,
          "internalType": "uint256",
          "name": "timestamp",
          "type": "uint256"
        },
        {
          "indexed": false,
          "internalType": "uint256",
          "name": "chainId",
          "type": "uint256"
        }
      ],
      "name": "EnygmaPLTransferCompleted",
      "type": "event"
    },
    {
      "inputs": [],
      "name": "_getEndpointAddress",
      "outputs": [
        {
          "internalType": "address",
          "name": "",
          "type": "address"
        }
      ],
      "stateMutability": "view",
      "type": "function"
    },
    {
      "inputs": [
        {
          "internalType": "address",
          "name": "_endpoint",
          "type": "address"
        }
      ],
      "name": "_updateEndpoint",
      "outputs": [],
      "stateMutability": "nonpayable",
      "type": "function"
    },
    {
      "inputs": [
        {
          "internalType": "bytes32",
          "name": "_referenceId",
          "type": "bytes32"
        },
        {
          "internalType": "bytes32",
          "name": "_txHash",
          "type": "bytes32"
        },
        {
          "internalType": "uint256",
          "name": "_timestamp",
          "type": "uint256"
        },
        {
          "internalType": "uint256",
          "name": "_fromChainId",
          "type": "uint256"
        }
      ],
      "name": "enygmaPLTransferCompleted",
      "outputs": [],
      "stateMutability": "nonpayable",
      "type": "function"
    },
    {
      "inputs": [
        {
          "internalType": "bytes32",
          "name": "_resourceId",
          "type": "bytes32"
        }
      ],
      "name": "getAddressByResourceId",
      "outputs": [
        {
          "internalType": "address",
          "name": "",
          "type": "address"
        }
      ],
      "stateMutability": "view",
      "type": "function"
    },
    {
      "inputs": [],
      "name": "initialize",
      "outputs": [],
      "stateMutability": "nonpayable",
      "type": "function"
    },
    {
      "inputs": [],
      "name": "resourceId",
      "outputs": [
        {
          "internalType": "bytes32",
          "name": "",
          "type": "bytes32"
        }
      ],
      "stateMutability": "view",
      "type": "function"
    }
  ],
  "bytecode": "0x608060405234801561001057600080fd5b506040516103a63803806103a683398101604081905261002f91610054565b600080546001600160a01b0319166001600160a01b0392909216919091179055610084565b60006020828403121561006657600080fd5b81516001600160a01b038116811461007d57600080fd5b9392505050565b610313806100936000396000f3fe608060405234801561001057600080fd5b50600436106100625760003560e01c806311f50c85146100675780635f997c5b146100975780636f181318146100ae5780638129fc1c146100e05780639116a6e5146100e8578063b247d946146100fb575b600080fd5b61007a610075366004610239565b61010c565b6040516001600160a01b0390911681526020015b60405180910390f35b6100a060015481565b60405190815260200161008e565b6100de6100bc36600461026a565b600080546001600160a01b0319166001600160a01b0392909216919091179055565b005b6100de610180565b6100de6100f636600461028e565b6101eb565b6000546001600160a01b031661007a565b600080546040516311f50c8560e01b8152600481018490526001600160a01b03909116906311f50c8590602401602060405180830381865afa158015610156573d6000803e3d6000fd5b505050506040513d601f19601f8201168201806040525081019061017a91906102c0565b92915050565b6004600181905560005460405163d4f951c760e01b8152808301929092523060248301526001600160a01b03169063d4f951c790604401600060405180830381600087803b1580156101d157600080fd5b505af11580156101e5573d6000803e3d6000fd5b50505050565b6040805185815260208101859052908101839052606081018290527f0a20a6190f0cc8fed76225cb1b9f268addc0ee532ed7b30ee8d63521a434147e9060800160405180910390a150505050565b60006020828403121561024b57600080fd5b5035919050565b6001600160a01b038116811461026757600080fd5b50565b60006020828403121561027c57600080fd5b813561028781610252565b9392505050565b600080600080608085870312156102a457600080fd5b5050823594602084013594506040840135936060013592509050565b6000602082840312156102d257600080fd5b81516102878161025256fea2646970667358221220241a6ef5a402891a1ed17e5577c230aeced24fdf9bd85e11269b27680099575a64736f6c63430008180033",
  "linkReferences": {},
  "deployedLinkReferences": {}
}