{
  "_format": "hh-sol-artifact-1",
  "contractName": "ParticipantManagerV2",
  "sourceName": "src/commitChain/ParticipantStorage-New/ParticipantManagerV2.sol",
  "abi": [
    {
      "inputs": [
        {
          "internalType": "address",
          "name": "target",
          "type": "address"
        }
      ],
      "name": "AddressEmptyCode",
      "type": "error"
    },
    {
      "inputs": [
        {
          "internalType": "address",
          "name": "implementation",
          "type": "address"
        }
      ],
      "name": "ERC1967InvalidImplementation",
      "type": "error"
    },
    {
      "inputs": [],
      "name": "ERC1967NonPayable",
      "type": "error"
    },
    {
      "inputs": [],
      "name": "FailedInnerCall",
      "type": "error"
    },
    {
      "inputs": [],
      "name": "InvalidInitialization",
      "type": "error"
    },
    {
      "inputs": [],
      "name": "NotInitializing",
      "type": "error"
    },
    {
      "inputs": [
        {
          "internalType": "address",
          "name": "owner",
          "type": "address"
        }
      ],
      "name": "OwnableInvalidOwner",
      "type": "error"
    },
    {
      "inputs": [
        {
          "internalType": "address",
          "name": "account",
          "type": "address"
        }
      ],
      "name": "OwnableUnauthorizedAccount",
      "type": "error"
    },
    {
      "inputs": [],
      "name": "UUPSUnauthorizedCallContext",
      "type": "error"
    },
    {
      "inputs": [
        {
          "internalType": "bytes32",
          "name": "slot",
          "type": "bytes32"
        }
      ],
      "name": "UUPSUnsupportedProxiableUUID",
      "type": "error"
    },
    {
      "anonymous": false,
      "inputs": [
        {
          "indexed": false,
          "internalType": "uint64",
          "name": "version",
          "type": "uint64"
        }
      ],
      "name": "Initialized",
      "type": "event"
    },
    {
      "anonymous": false,
      "inputs": [
        {
          "indexed": true,
          "internalType": "address",
          "name": "previousOwner",
          "type": "address"
        },
        {
          "indexed": true,
          "internalType": "address",
          "name": "newOwner",
          "type": "address"
        }
      ],
      "name": "OwnershipTransferred",
      "type": "event"
    },
    {
      "anonymous": false,
      "inputs": [
        {
          "indexed": false,
          "internalType": "uint256",
          "name": "chainId",
          "type": "uint256"
        },
        {
          "indexed": false,
          "internalType": "string",
          "name": "name",
          "type": "string"
        }
      ],
      "name": "ParticipantAdded",
      "type": "event"
    },
    {
      "anonymous": false,
      "inputs": [
        {
          "indexed": false,
          "internalType": "uint256",
          "name": "chainId",
          "type": "uint256"
        },
        {
          "indexed": false,
          "internalType": "string",
          "name": "description",
          "type": "string"
        }
      ],
      "name": "ParticipantUpdated",
      "type": "event"
    },
    {
      "anonymous": false,
      "inputs": [
        {
          "indexed": false,
          "internalType": "uint256",
          "name": "chainId",
          "type": "uint256"
        },
        {
          "indexed": false,
          "internalType": "string",
          "name": "name",
          "type": "string"
        },
        {
          "indexed": false,
          "internalType": "string",
          "name": "description",
          "type": "string"
        }
      ],
      "name": "ParticipantUpdated",
      "type": "event"
    },
    {
      "anonymous": false,
      "inputs": [
        {
          "indexed": true,
          "internalType": "address",
          "name": "implementation",
          "type": "address"
        }
      ],
      "name": "Upgraded",
      "type": "event"
    },
    {
      "inputs": [],
      "name": "UPGRADE_INTERFACE_VERSION",
      "outputs": [
        {
          "internalType": "string",
          "name": "",
          "type": "string"
        }
      ],
      "stateMutability": "view",
      "type": "function"
    },
    {
      "inputs": [
        {
          "internalType": "uint256",
          "name": "chainId",
          "type": "uint256"
        },
        {
          "internalType": "string",
          "name": "name",
          "type": "string"
        },
        {
          "internalType": "string",
          "name": "description",
          "type": "string"
        }
      ],
      "name": "addParticipant",
      "outputs": [],
      "stateMutability": "nonpayable",
      "type": "function"
    },
    {
      "inputs": [
        {
          "internalType": "uint256",
          "name": "chainId",
          "type": "uint256"
        },
        {
          "internalType": "string",
          "name": "name",
          "type": "string"
        }
      ],
      "name": "addParticipant",
      "outputs": [],
      "stateMutability": "nonpayable",
      "type": "function"
    },
    {
      "inputs": [
        {
          "internalType": "uint256",
          "name": "",
          "type": "uint256"
        }
      ],
      "name": "allEnygmaParticipants",
      "outputs": [
        {
          "internalType": "uint256",
          "name": "",
          "type": "uint256"
        }
      ],
      "stateMutability": "view",
      "type": "function"
    },
    {
      "inputs": [
        {
          "internalType": "uint256",
          "name": "",
          "type": "uint256"
        }
      ],
      "name": "allPrivateLedgers",
      "outputs": [
        {
          "internalType": "uint256",
          "name": "",
          "type": "uint256"
        }
      ],
      "stateMutability": "view",
      "type": "function"
    },
    {
      "inputs": [
        {
          "internalType": "uint256",
          "name": "",
          "type": "uint256"
        }
      ],
      "name": "auditInfoData",
      "outputs": [
        {
          "internalType": "uint256",
          "name": "chainId",
          "type": "uint256"
        },
        {
          "internalType": "string",
          "name": "publicKey",
          "type": "string"
        },
        {
          "internalType": "bytes",
          "name": "encryptedPrivateKey",
          "type": "bytes"
        },
        {
          "internalType": "bytes",
          "name": "mac",
          "type": "bytes"
        },
        {
          "internalType": "uint256",
          "name": "blockNumber",
          "type": "uint256"
        }
      ],
      "stateMutability": "view",
      "type": "function"
    },
    {
      "inputs": [
        {
          "internalType": "uint256",
          "name": "",
          "type": "uint256"
        }
      ],
      "name": "enygmaData",
      "outputs": [
        {
          "internalType": "uint256",
          "name": "babyJubjubX",
          "type": "uint256"
        },
        {
          "internalType": "uint256",
          "name": "babyJubjubY",
          "type": "uint256"
        },
        {
          "internalType": "uint256",
          "name": "chainId",
          "type": "uint256"
        }
      ],
      "stateMutability": "view",
      "type": "function"
    },
    {
      "inputs": [
        {
          "internalType": "uint256",
          "name": "chainId",
          "type": "uint256"
        }
      ],
      "name": "getParticipant",
      "outputs": [
        {
          "components": [
            {
              "internalType": "uint256",
              "name": "chainId",
              "type": "uint256"
            },
            {
              "internalType": "string",
              "name": "name",
              "type": "string"
            },
            {
              "internalType": "uint256",
              "name": "createdAt",
              "type": "uint256"
            },
            {
              "internalType": "uint256",
              "name": "updatedAt",
              "type": "uint256"
            },
            {
              "internalType": "uint256[50]",
              "name": "__gap",
              "type": "uint256[50]"
            }
          ],
          "internalType": "struct StorageBase.Participant",
          "name": "",
          "type": "tuple"
        }
      ],
      "stateMutability": "view",
      "type": "function"
    },
    {
      "inputs": [],
      "name": "getStorageSlot",
      "outputs": [
        {
          "internalType": "bytes32",
          "name": "",
          "type": "bytes32"
        }
      ],
      "stateMutability": "pure",
      "type": "function"
    },
    {
      "inputs": [
        {
          "internalType": "address",
          "name": "owner",
          "type": "address"
        }
      ],
      "name": "initialize",
      "outputs": [],
      "stateMutability": "nonpayable",
      "type": "function"
    },
    {
      "inputs": [],
      "name": "owner",
      "outputs": [
        {
          "internalType": "address",
          "name": "",
          "type": "address"
        }
      ],
      "stateMutability": "view",
      "type": "function"
    },
    {
      "inputs": [
        {
          "internalType": "uint256",
          "name": "",
          "type": "uint256"
        }
      ],
      "name": "participants",
      "outputs": [
        {
          "internalType": "uint256",
          "name": "chainId",
          "type": "uint256"
        },
        {
          "internalType": "string",
          "name": "name",
          "type": "string"
        },
        {
          "internalType": "uint256",
          "name": "createdAt",
          "type": "uint256"
        },
        {
          "internalType": "uint256",
          "name": "updatedAt",
          "type": "uint256"
        }
      ],
      "stateMutability": "view",
      "type": "function"
    },
    {
      "inputs": [],
      "name": "plEnygmaEvents",
      "outputs": [
        {
          "internalType": "address",
          "name": "",
          "type": "address"
        }
      ],
      "stateMutability": "view",
      "type": "function"
    },
    {
      "inputs": [
        {
          "internalType": "uint256",
          "name": "",
          "type": "uint256"
        }
      ],
      "name": "privateLedgerData",
      "outputs": [
        {
          "internalType": "uint256",
          "name": "chainId",
          "type": "uint256"
        },
        {
          "internalType": "string",
          "name": "publicKey",
          "type": "string"
        },
        {
          "internalType": "uint256",
          "name": "blockNumber",
          "type": "uint256"
        }
      ],
      "stateMutability": "view",
      "type": "function"
    },
    {
      "inputs": [],
      "name": "proxiableUUID",
      "outputs": [
        {
          "internalType": "bytes32",
          "name": "",
          "type": "bytes32"
        }
      ],
      "stateMutability": "view",
      "type": "function"
    },
    {
      "inputs": [
        {
          "internalType": "uint256",
          "name": "",
          "type": "uint256"
        }
      ],
      "name": "registeredChainIds",
      "outputs": [
        {
          "internalType": "uint256",
          "name": "",
          "type": "uint256"
        }
      ],
      "stateMutability": "view",
      "type": "function"
    },
    {
      "inputs": [],
      "name": "renounceOwnership",
      "outputs": [],
      "stateMutability": "nonpayable",
      "type": "function"
    },
    {
      "inputs": [
        {
          "internalType": "address",
          "name": "newOwner",
          "type": "address"
        }
      ],
      "name": "transferOwnership",
      "outputs": [],
      "stateMutability": "nonpayable",
      "type": "function"
    },
    {
      "inputs": [
        {
          "internalType": "uint256",
          "name": "chainId",
          "type": "uint256"
        },
        {
          "internalType": "string",
          "name": "name",
          "type": "string"
        },
        {
          "internalType": "string",
          "name": "description",
          "type": "string"
        }
      ],
      "name": "updateParticipant",
      "outputs": [],
      "stateMutability": "nonpayable",
      "type": "function"
    },
    {
      "inputs": [
        {
          "internalType": "uint256",
          "name": "chainId",
          "type": "uint256"
        },
        {
          "internalType": "string",
          "name": "name",
          "type": "string"
        }
      ],
      "name": "updateParticipantName",
      "outputs": [],
      "stateMutability": "nonpayable",
      "type": "function"
    },
    {
      "inputs": [
        {
          "internalType": "address",
          "name": "newImplementation",
          "type": "address"
        },
        {
          "internalType": "bytes",
          "name": "data",
          "type": "bytes"
        }
      ],
      "name": "upgradeToAndCall",
      "outputs": [],
      "stateMutability": "payable",
      "type": "function"
    },
    {
      "inputs": [
        {
          "internalType": "uint256",
          "name": "chainId",
          "type": "uint256"
        }
      ],
      "name": "validateParticipant",
      "outputs": [],
      "stateMutability": "view",
      "type": "function"
    }
  ],
  "bytecode": "0x60a06040523060805234801561001457600080fd5b50608051611c7061003e60003960008181610ff901528181611022015261115f0152611c706000f3fe6080604052600436106101155760003560e01c80637d8470cb1161009b5780637d8470cb146102b65780638da5cb5b146102d657806390379d86146102eb578063967082261461030b5780639735303c1461033e578063ad3cb1cc1461035e578063b54840041461039c578063b7ef4e02146103bc578063c0ac4daf14610413578063c4d66de814610433578063f2fde38b1461045357600080fd5b806311b3821b1461011a5780631b9db2ef1461014d57806335c1d3491461017a578063452e119e146101aa5780634f1ef286146101d757806351dc8865146101ec57806352d1902d1461020c5780636788540f1461022157806369b6e5b414610250578063715018a614610281578063727f7faf14610296575b600080fd5b34801561012657600080fd5b5061013a61013536600461153f565b610473565b6040519081526020015b60405180910390f35b34801561015957600080fd5b5061016d61016836600461153f565b610494565b60405161014491906115a8565b34801561018657600080fd5b5061019a61019536600461153f565b6105b6565b604051610144949392919061161c565b3480156101b657600080fd5b506039546101ca906001600160a01b031681565b6040516101449190611648565b6101ea6101e536600461168e565b610667565b005b3480156101f857600080fd5b506101ea610207366004611797565b610686565b34801561021857600080fd5b5061013a610742565b34801561022d57600080fd5b5061024161023c36600461153f565b61075f565b60405161014493929190611810565b34801561025c57600080fd5b5061027061026b36600461153f565b61080a565b604051610144959493929190611839565b34801561028d57600080fd5b506101ea6109d1565b3480156102a257600080fd5b506101ea6102b1366004611797565b6109e5565b3480156102c257600080fd5b506101ea6102d136600461188b565b610b69565b3480156102e257600080fd5b506101ca610cfb565b3480156102f757600080fd5b5061013a61030636600461153f565b610d16565b34801561031757600080fd5b507ff2f3c24b8e62a32f6ff1628f4e6d6d7d9982c2ae42f030429519049d70a537cf61013a565b34801561034a57600080fd5b506101ea61035936600461188b565b610d26565b34801561036a57600080fd5b5061038f604051806040016040528060058152602001640352e302e360dc1b81525081565b60405161014491906118d6565b3480156103a857600080fd5b506101ea6103b736600461153f565b610dc5565b3480156103c857600080fd5b506103f86103d736600461153f565b60356020526000908152604090208054600182015460039092015490919083565b60408051938452602084019290925290820152606001610144565b34801561041f57600080fd5b5061013a61042e36600461153f565b610e2b565b34801561043f57600080fd5b506101ea61044e3660046118e9565b610e3b565b34801561045f57600080fd5b506101ea61046e3660046118e9565b610f8f565b6037818154811061048357600080fd5b600091825260209091200154905081565b61049c611499565b6104a4610fca565b60000160008381526020019081526020016000206040518060a0016040529081600082015481526020016001820180546104dd90611904565b80601f016020809104026020016040519081016040528092919081815260200182805461050990611904565b80156105565780601f1061052b57610100808354040283529160200191610556565b820191906000526020600020905b81548152906001019060200180831161053957829003601f168201915b5050509183525050600282015460208201526003820154604080830191909152805161064081019182905260609092019190600484019060329082845b815481526020019060010190808311610593575050505050815250509050919050565b603260205260009081526040902080546001820180549192916105d890611904565b80601f016020809104026020016040519081016040528092919081815260200182805461060490611904565b80156106515780601f1061062657610100808354040283529160200191610651565b820191906000526020600020905b81548152906001019060200180831161063457829003601f168201915b5050505050908060020154908060030154905084565b61066f610fee565b61067882611093565b610682828261109b565b5050565b6000610690610fca565b600087815260208290526040812054919250036106c85760405162461bcd60e51b81526004016106bf9061193e565b60405180910390fd5b60008681526020829052604090206001016106e48587836119ca565b506000868152602082905260409081902042600390910155517f53f31dcd6cfb264fe5f7c7b9e236b50e40c2ed94d7b2daf74a09a90f936b9276906107329088908890889088908890611aad565b60405180910390a1505050505050565b600061074c611154565b50600080516020611c1b83398151915290565b6034602052600090815260409020805460018201805491929161078190611904565b80601f01602080910402602001604051908101604052809291908181526020018280546107ad90611904565b80156107fa5780601f106107cf576101008083540402835291602001916107fa565b820191906000526020600020905b8154815290600101906020018083116107dd57829003601f168201915b5050505050908060020154905083565b6033602052600090815260409020805460018201805491929161082c90611904565b80601f016020809104026020016040519081016040528092919081815260200182805461085890611904565b80156108a55780601f1061087a576101008083540402835291602001916108a5565b820191906000526020600020905b81548152906001019060200180831161088857829003601f168201915b5050505050908060020180546108ba90611904565b80601f01602080910402602001604051908101604052809291908181526020018280546108e690611904565b80156109335780601f1061090857610100808354040283529160200191610933565b820191906000526020600020905b81548152906001019060200180831161091657829003601f168201915b50505050509080600301805461094890611904565b80601f016020809104026020016040519081016040528092919081815260200182805461097490611904565b80156109c15780601f10610996576101008083540402835291602001916109c1565b820191906000526020600020905b8154815290600101906020018083116109a457829003601f168201915b5050505050908060040154905085565b6109d961119d565b6109e360006111cf565b565b60006109ef610fca565b60008781526020829052604090205490915015610a1e5760405162461bcd60e51b81526004016106bf90611ae6565b6040518060a0016040528087815260200186868080601f016020809104026020016040519081016040528093929190818152602001838380828437600092018290525093855250504260208401819052604080850191909152805161064081019182905260609094019392915060329082845b815481526020019060010190808311610a915750505091909252505060008781526020838152604090912082518155908201516001820190610ad39082611b12565b5060408201516002820155606082015160038201556080820151610afd90600483019060326114cd565b5050603680546001810182556000919091527f4a11f94e20a93c79f6ec743a1954ec4fc2c08429ae2122118bf234b2185c81b801879055506040517f92b5d035edaeb590bbbac4e042655105e3c4adb5fb3fa46bcf73199cf1b1f32c9061073290889088908890611bcb565b6000610b73610fca565b60008581526020829052604090205490915015610ba25760405162461bcd60e51b81526004016106bf90611ae6565b6040518060a0016040528085815260200184848080601f016020809104026020016040519081016040528093929190818152602001838380828437600092018290525093855250504260208401819052604080850191909152805161064081019182905260609094019392915060329082845b815481526020019060010190808311610c155750505091909252505060008581526020838152604090912082518155908201516001820190610c579082611b12565b5060408201516002820155606082015160038201556080820151610c8190600483019060326114cd565b5050603680546001810182556000919091527f4a11f94e20a93c79f6ec743a1954ec4fc2c08429ae2122118bf234b2185c81b801859055506040517f92b5d035edaeb590bbbac4e042655105e3c4adb5fb3fa46bcf73199cf1b1f32c90610ced90869086908690611bcb565b60405180910390a150505050565b600080610d0661122b565b546001600160a01b031692915050565b6036818154811061048357600080fd5b6000610d30610fca565b60008581526020829052604081205491925003610d5f5760405162461bcd60e51b81526004016106bf9061193e565b6000848152602082905260409020600101610d7b8385836119ca565b506000848152602082905260409081902042600390910155517fe70d8c853a3aaf4898a070715f08ea951073c921a752abcd6999504d1e6d4e4190610ced90869086908690611bcb565b610dcd610fca565b600082815260209190915260408120549003610e285760405162461bcd60e51b815260206004820152601a60248201527914185c9d1a58da5c185b9d081b9bdd081c9959da5cdd195c995960321b60448201526064016106bf565b50565b6038818154811061048357600080fd5b6000610e4561124f565b805490915060ff600160401b82041615906001600160401b0316600081158015610e6c5750825b90506000826001600160401b03166001148015610e885750303b155b905081158015610e96575080155b15610eb45760405163f92ee8a960e01b815260040160405180910390fd5b845467ffffffffffffffff191660011785558315610ede57845460ff60401b1916600160401b1785555b6001600160a01b038616610f345760405162461bcd60e51b815260206004820152601c60248201527f4f776e657220616464726573732063616e6e6f74206265207a65726f0000000060448201526064016106bf565b610f3d86611273565b610f45611284565b8315610f8757845460ff60401b19168555604051600181527fc7f505b2f371ae2175ee4913f4499e1f2633a7b5936321eed1cdaeb6115181d290602001610732565b505050505050565b610f9761119d565b6001600160a01b038116610fc1576000604051631e4fbdf760e01b81526004016106bf9190611648565b610e28816111cf565b7ff2f3c24b8e62a32f6ff1628f4e6d6d7d9982c2ae42f030429519049d70a537cf90565b306001600160a01b037f000000000000000000000000000000000000000000000000000000000000000016148061107557507f00000000000000000000000000000000000000000000000000000000000000006001600160a01b0316611069600080516020611c1b833981519152546001600160a01b031690565b6001600160a01b031614155b156109e35760405163703e46dd60e11b815260040160405180910390fd5b610e2861119d565b816001600160a01b03166352d1902d6040518163ffffffff1660e01b8152600401602060405180830381865afa9250505080156110f5575060408051601f3d908101601f191682019092526110f291810190611be5565b60015b6111145781604051634c9c8ce360e01b81526004016106bf9190611648565b600080516020611c1b833981519152811461114557604051632a87526960e21b8152600481018290526024016106bf565b61114f838361128c565b505050565b306001600160a01b037f000000000000000000000000000000000000000000000000000000000000000016146109e35760405163703e46dd60e11b815260040160405180910390fd5b336111a6610cfb565b6001600160a01b0316146109e3573360405163118cdaa760e01b81526004016106bf9190611648565b60006111d961122b565b80546001600160a01b038481166001600160a01b031983168117845560405193945091169182907f8be0079c531659141344cd1fd0a4f28419497f9722a3daafe3b4186f6b6457e090600090a3505050565b7f9016d09d72d40fdae2fd8ceac6b6234c7706214fd39c1cd1e609a0528c19930090565b7ff0c57e16840df040f15088dc2f81fe391c3923bec73e23a9662efc9c229c6a0090565b61127b6112e2565b610e2881611307565b6109e36112e2565b6112958261130f565b6040516001600160a01b038316907fbc7cd75a20ee27fd9adebab32041f755214dbc6bffa90cc0225b39da2e5c2d3b90600090a28051156112da5761114f828261136b565b6106826113e1565b6112ea611400565b6109e357604051631afcd79f60e31b815260040160405180910390fd5b610f976112e2565b806001600160a01b03163b60000361133c5780604051634c9c8ce360e01b81526004016106bf9190611648565b600080516020611c1b83398151915280546001600160a01b0319166001600160a01b0392909216919091179055565b6060600080846001600160a01b0316846040516113889190611bfe565b600060405180830381855af49150503d80600081146113c3576040519150601f19603f3d011682016040523d82523d6000602084013e6113c8565b606091505b50915091506113d885838361141a565b95945050505050565b34156109e35760405163b398979f60e01b815260040160405180910390fd5b600061140a61124f565b54600160401b900460ff16919050565b60608261142f5761142a82611470565b611469565b815115801561144657506001600160a01b0384163b155b156114665783604051639996b31560e01b81526004016106bf9190611648565b50805b9392505050565b8051156114805780518082602001fd5b604051630a12f52160e11b815260040160405180910390fd5b6040518060a00160405280600081526020016060815260200160008152602001600081526020016114c861150b565b905290565b82603281019282156114fb579160200282015b828111156114fb5782518255916020019190600101906114e0565b5061150792915061152a565b5090565b6040518061064001604052806032906020820280368337509192915050565b5b80821115611507576000815560010161152b565b60006020828403121561155157600080fd5b5035919050565b60005b8381101561157357818101518382015260200161155b565b50506000910152565b60008151808452611594816020860160208601611558565b601f01601f19169290920160200192915050565b600060208083528351602084015260208401516106c060408501526115d16106e085018261157c565b90506040850151606085015260608501516080850152608085015160a0850160005b6032811015611610578251825291840191908401906001016115f3565b50919695505050505050565b848152608060208201526000611635608083018661157c565b6040830194909452506060015292915050565b6001600160a01b0391909116815260200190565b80356001600160a01b038116811461167357600080fd5b919050565b634e487b7160e01b600052604160045260246000fd5b600080604083850312156116a157600080fd5b6116aa8361165c565b915060208301356001600160401b03808211156116c657600080fd5b818501915085601f8301126116da57600080fd5b8135818111156116ec576116ec611678565b604051601f8201601f19908116603f0116810190838211818310171561171457611714611678565b8160405282815288602084870101111561172d57600080fd5b8260208601602083013760006020848301015280955050505050509250929050565b60008083601f84011261176157600080fd5b5081356001600160401b0381111561177857600080fd5b60208301915083602082850101111561179057600080fd5b9250929050565b6000806000806000606086880312156117af57600080fd5b8535945060208601356001600160401b03808211156117cd57600080fd5b6117d989838a0161174f565b909650945060408801359150808211156117f257600080fd5b506117ff8882890161174f565b969995985093965092949392505050565b838152606060208201526000611829606083018561157c565b9050826040830152949350505050565b85815260a06020820152600061185260a083018761157c565b8281036040840152611864818761157c565b90508281036060840152611878818661157c565b9150508260808301529695505050505050565b6000806000604084860312156118a057600080fd5b8335925060208401356001600160401b038111156118bd57600080fd5b6118c98682870161174f565b9497909650939450505050565b602081526000611469602083018461157c565b6000602082840312156118fb57600080fd5b6114698261165c565b600181811c9082168061191857607f821691505b60208210810361193857634e487b7160e01b600052602260045260246000fd5b50919050565b60208082526015908201527414185c9d1a58da5c185b9d081b9bdd08199bdd5b99605a1b604082015260600190565b601f82111561114f576000816000526020600020601f850160051c810160208610156119965750805b601f850160051c820191505b81811015610f87578281556001016119a2565b600019600383901b1c191660019190911b1790565b6001600160401b038311156119e1576119e1611678565b6119f5836119ef8354611904565b8361196d565b6000601f841160018114611a235760008515611a115750838201355b611a1b86826119b5565b845550611a7d565b600083815260209020601f19861690835b82811015611a545786850135825560209485019460019092019101611a34565b5086821015611a715760001960f88860031b161c19848701351681555b505060018560011b0183555b5050505050565b81835281816020850137506000828201602090810191909152601f909101601f19169091010190565b858152606060208201526000611ac7606083018688611a84565b8281036040840152611ada818587611a84565b98975050505050505050565b6020808252601290820152715061727469636970616e742065786973747360701b604082015260600190565b81516001600160401b03811115611b2b57611b2b611678565b611b3f81611b398454611904565b8461196d565b602080601f831160018114611b6e5760008415611b5c5750858301515b611b6685826119b5565b865550610f87565b600085815260208120601f198616915b82811015611b9d57888601518255948401946001909101908401611b7e565b5085821015611bbb5787850151600019600388901b60f8161c191681555b5050505050600190811b01905550565b8381526040602082015260006113d8604083018486611a84565b600060208284031215611bf757600080fd5b5051919050565b60008251611c10818460208701611558565b919091019291505056fe360894a13ba1a3210667c828492db98dca3e2076cc3735a920a3ca505d382bbca2646970667358221220fb779ba583e1b26d5d707e48c564cea181e3583455b3558ae0242cc5d712fb3d64736f6c63430008180033",
  "linkReferences": {},
  "deployedLinkReferences": {}
}