{
  "_format": "hh-sol-artifact-1",
  "contractName": "EnygmaVerifierk2",
  "sourceName": "src/rayls-protocol/Enygma/EnygmaVerifierk2.sol",
  "abi": [
    {
      "inputs": [
        {
          "internalType": "uint256[2]",
          "name": "_pA",
          "type": "uint256[2]"
        },
        {
          "internalType": "uint256[2][2]",
          "name": "_pB",
          "type": "uint256[2][2]"
        },
        {
          "internalType": "uint256[2]",
          "name": "_pC",
          "type": "uint256[2]"
        },
        {
          "internalType": "uint256[12]",
          "name": "_pubSignals",
          "type": "uint256[12]"
        }
      ],
      "name": "verifyProof",
      "outputs": [
        {
          "internalType": "bool",
          "name": "",
          "type": "bool"
        }
      ],
      "stateMutability": "view",
      "type": "function"
    }
  ],
  "bytecode": "0x608060405234801561001057600080fd5b50610965806100206000396000f3fe608060405234801561001057600080fd5b506004361061002b5760003560e01c80638cbac0fa14610030575b600080fd5b61004361003e3660046108c9565b610057565b604051901515815260200160405180910390f35b60006107ee565b7f30644e72e131a029b85045b68181585d2833e84879b9709143e1f593f0000001811061008f576000805260206000f35b50565b600060405183815284602082015285604082015260408160608360076107d05a03fa9150816100c5576000805260206000f35b825160408201526020830151606082015260408360808360066107d05a03fa915050806100f6576000805260206000f35b5050505050565b7f109cb3c18d06c8c37a95923082c9de5fda5abb1f099a833309e0933220db6b1f85527f275f856ed31fe98c2bc6dfec24aa8c1a1192b1608c63efda664f2eb7c4492b7760208601526000608086018661019a87357f1e429629d9fda27fc06927b1281484a02737b0f6b6d78ac034d4ddd4f7d765eb7f12b23ce6f74635239ed0995c40e456f410e48a53b5eeed14e1b5256de538fda584610092565b6101ea60208801357f2e546bbdee069dd7928eef146a69909c7cadfc917486702bff699f0ff3dd2f347f09e97c639a7ecf4cd537963a0d5b236e19cb06e1a91fe92450dbac549bee72a684610092565b61023a60408801357f266e66d2959192db009f5125a0dfea2b83483df79669a7c900a7a6bdad49d5bc7f2612c6e3ef597bfe84c911ee8a384e8276e120e491eb3ec240ce65c23916bf9a84610092565b61028a60608801357f1d95875abc9563563340c18afd9443d1ec33a2fea93a02a6a82fbcef8dac4b237f2f18e1a0fa03c6d9e5137434d4d433161ee6e5210bc7e7ef90323f05e76c263c84610092565b6102da60808801357f28d267e073f816bdff4e020c2b964964949bb1329596650dac006ef73a889f887f1044751895e5fd213a0e9c071d5a8a277ea9bd70c345369981d536d4f12214df84610092565b61032a60a08801357f1455dcbffe5954d061aed88c08d1bfa72d99af259bc61047b7cb98914b64c6997f1b11bbc8e4551f017d76205f952cb9f01e469a057650673039e9282c700c767984610092565b61037a60c08801357f1285e12094399c810e6bfe2667513e99d2b05c8a61c40407b8250091c4705ced7f22281a45063e191d2e32415d7e4ebc7f89ed7b4677eb7907d9f7316149f49da584610092565b6103ca60e08801357f2440de942adb7b086bdb6d55ab527c24bd76eabbae01a62324a411be12a332897f23375c0be4c0a7d01227a2dc80a3031758ac39058d42274a847fe9b6deed501184610092565b61041b6101008801357f1cf30c6ead4538ab8f60bb781a8d5fc62a09d874ae57a15607bfb498b9cbf7777f0e7705baa18d43f49e86ab0110a8cea1438807e284ced2676f6fc36488f6d6d084610092565b61046c6101208801357f10fe458903bc846019fb7f94b1f37a55f974a59817d170a6fff30ef63e9f91237f2c7fa4b2e081399f07dcfb2aa581aa52be3790d9db53abc1aaa28ce90025e13284610092565b6104bd6101408801357f02a8875397cb49c872c17491b2b6d8945169f780f5b1fdb583c6a226d4225a587f2972e6be47c227bc8810288dc7ca5d9788dd3b777fba28aa41cda5aba6543f0a84610092565b61050e6101608801357f191333273ceba5bf79c581a44ccefd30529de5c731782fa99743b2ba8bbc2f647f1643ae11862d565592828be7c3b971b645ba0cf5a5321842f407d3b511bcc16884610092565b50823581527f30644e72e131a029b85045b68181585d97816a916871ca8d3c208c16d87cfd4760208401357f30644e72e131a029b85045b68181585d97816a916871ca8d3c208c16d87cfd4703066020820152833560408201526020840135606082015260408401356080820152606084013560a08201527f2d4d9aa7e302d9df41749d5507949d05dbea33fbb16c643b22f599a2be6df2e260c08201527f14bedd503c37ceb061d8ec60209fe345ce89830a19230301f076caff004d192660e08201527f0967032fcbf776d1afc985f88877f182d38480a653f2decaa9794cbc3bf3060c6101008201527f0e187847ad4c798374d0d6732bf501847dd68bc0e071241e0213bc7fc13db7ab6101208201527f304cfbd1e08a704a99f5e847d93f8c3caafddec46b7a0d379da69a4d112346a76101408201527f1739c1b1a457a8c7313123d24d2f9192f896b7c63eea05a9d57f06547ad0cec8610160820152600087015161018082015260206000018701516101a08201527f198e9393920d483a7260bfb731fb5d25f1aa493335a9e71297e485b7aef312c26101c08201527f1800deef121f1e76426a00665e5c4479674322d4f75edadd46debd5cd992f6ed6101e08201527f090689d0585ff075ec9e99ad690c3395bc4b313370b38ef355acdadcd122975b6102008201527f12c85ea5db8c6deb4aab71808dcb408fe3d1e7690c43d37b4ce6cc0166fa7daa610220820152843561024082015260208501356102608201527f0e78a79e2581f4518138a79b526f33bcda04b1aaacc7479cd4a588dfa72e141d6102808201527f2ca0999c6cef7642968a93d04db5005c035b3e05125aeaee756fba2b8699768a6102a08201527f18c1357957e667a393650c3dab6ffcfed0436c7a72e3de14bf731ff5105229246102c08201527f1f07dd5412fad241d3c237e0776914a28102d8e98dfc3a212e2007f8523135756102e08201526020816103008360086107d05a03fa9051169695505050505050565b6040516103808101604052610806600084013561005e565b610813602084013561005e565b610820604084013561005e565b61082d606084013561005e565b61083a608084013561005e565b61084760a084013561005e565b61085460c084013561005e565b61086160e084013561005e565b61086f61010084013561005e565b61087d61012084013561005e565b61088b61014084013561005e565b61089961016084013561005e565b6108a6818486888a6100fd565b90508060005260206000f35b80604081018310156108c357600080fd5b92915050565b6000806000806102808086880312156108e157600080fd5b6108eb87876108b2565b945060c08601878111156108fe57600080fd5b60408701945061090e88826108b2565b93505086818701111561092057600080fd5b5092959194509261010001915056fea2646970667358221220e125e12e14d030b02341499ec5b27cf86d5a5b739426d69df543aae4a61040a464736f6c63430008180033",
  "linkReferences": {},
  "deployedLinkReferences": {}
}