{
  "_format": "hh-sol-artifact-1",
  "contractName": "ArbitraryMessagesBatchTeleport",
  "sourceName": "src/rayls-protocol/test-contracts/ArbitraryMessagesBatchTeleport.sol",
  "abi": [
    {
      "inputs": [
        {
          "internalType": "bytes32",
          "name": "_resourceId",
          "type": "bytes32"
        },
        {
          "internalType": "address",
          "name": "_endpoint",
          "type": "address"
        }
      ],
      "stateMutability": "nonpayable",
      "type": "constructor"
    },
    {
      "inputs": [],
      "name": "_getEndpointAddress",
      "outputs": [
        {
          "internalType": "address",
          "name": "",
          "type": "address"
        }
      ],
      "stateMutability": "view",
      "type": "function"
    },
    {
      "inputs": [
        {
          "internalType": "address",
          "name": "_endpoint",
          "type": "address"
        }
      ],
      "name": "_updateEndpoint",
      "outputs": [],
      "stateMutability": "nonpayable",
      "type": "function"
    },
    {
      "inputs": [
        {
          "internalType": "string",
          "name": "message",
          "type": "string"
        }
      ],
      "name": "addMessage",
      "outputs": [],
      "stateMutability": "nonpayable",
      "type": "function"
    },
    {
      "inputs": [
        {
          "components": [
            {
              "internalType": "bytes32",
              "name": "resourceId",
              "type": "bytes32"
            },
            {
              "internalType": "string",
              "name": "message",
              "type": "string"
            },
            {
              "internalType": "uint256",
              "name": "chainId",
              "type": "uint256"
            }
          ],
          "internalType": "struct ArbitraryMessagesBatchTeleport.BatchTeleportPayloadRequest[]",
          "name": "_batchTeleportPayloadRequests",
          "type": "tuple[]"
        }
      ],
      "name": "batchTeleport",
      "outputs": [
        {
          "internalType": "bool",
          "name": "",
          "type": "bool"
        }
      ],
      "stateMutability": "nonpayable",
      "type": "function"
    },
    {
      "inputs": [
        {
          "internalType": "bytes32",
          "name": "_resourceId",
          "type": "bytes32"
        }
      ],
      "name": "getAddressByResourceId",
      "outputs": [
        {
          "internalType": "address",
          "name": "",
          "type": "address"
        }
      ],
      "stateMutability": "view",
      "type": "function"
    },
    {
      "inputs": [],
      "name": "getMessages",
      "outputs": [
        {
          "internalType": "string[]",
          "name": "",
          "type": "string[]"
        }
      ],
      "stateMutability": "view",
      "type": "function"
    },
    {
      "inputs": [],
      "name": "getMessagesCount",
      "outputs": [
        {
          "internalType": "uint8",
          "name": "",
          "type": "uint8"
        }
      ],
      "stateMutability": "view",
      "type": "function"
    },
    {
      "inputs": [],
      "name": "resourceId",
      "outputs": [
        {
          "internalType": "bytes32",
          "name": "",
          "type": "bytes32"
        }
      ],
      "stateMutability": "view",
      "type": "function"
    }
  ],
  "bytecode": "0x608060405234801561001057600080fd5b50604051610b56380380610b5683398101604081905261002f9161012d565b600080546001600160a01b0319166001600160a01b038316179055600182905561005761005e565b505061016a565b6001546100c35760405162461bcd60e51b815260206004820152602960248201527f4f6e6c79207265676973746572207265736f75726365207768656e206974277360448201526808185c1c1c9bdd995960ba1b606482015260840160405180910390fd5b60005460015460405163d4f951c760e01b815260048101919091523060248201526001600160a01b039091169063d4f951c790604401600060405180830381600087803b15801561011357600080fd5b505af1158015610127573d6000803e3d6000fd5b50505050565b6000806040838503121561014057600080fd5b825160208401519092506001600160a01b038116811461015f57600080fd5b809150509250929050565b6109dd806101796000396000f3fe608060405234801561001057600080fd5b50600436106100785760003560e01c806311f50c851461007d5780633d0c46d0146100ad57806356e399d6146100c25780635f997c5b146100e55780635ff6cbf3146100fc5780636a226a49146101115780636f18131814610126578063b247d94614610156575b600080fd5b61009061008b3660046104de565b610167565b6040516001600160a01b0390911681526020015b60405180910390f35b60035460405160ff90911681526020016100a4565b6100d56100d03660046104f7565b6101db565b60405190151581526020016100a4565b6100ee60015481565b6040519081526020016100a4565b610104610320565b6040516100a491906105b1565b61012461011f366004610615565b6103f9565b005b61012461013436600461068c565b600080546001600160a01b0319166001600160a01b0392909216919091179055565b6000546001600160a01b0316610090565b600080546040516311f50c8560e01b8152600481018490526001600160a01b03909116906311f50c8590602401602060405180830381865afa1580156101b1573d6000803e3d6000fd5b505050506040513d601f19601f820116820180604052508101906101d591906106b0565b92915050565b600080826001600160401b038111156101f6576101f66106cd565b60405190808252806020026020018201604052801561024357816020015b604080516060808201835260008083526020830152918101919091528152602001906001900390816102145790505b50905060005b8381101561030c5736858583818110610264576102646106e3565b905060200281019061027691906106f9565b9050604051806060016040528082604001358152602001826000013581526020018280602001906102a79190610719565b6040516024016102b8929190610766565b60408051601f198184030181529190526020810180516001600160e01b0316636a226a4960e01b179052905283518490849081106102f8576102f86106e3565b602090810291909101015250600101610249565b5061031681610467565b5060019392505050565b60606002805480602002602001604051908101604052809291908181526020016000905b828210156103f057838290600052602060002001805461036390610795565b80601f016020809104026020016040519081016040528092919081815260200182805461038f90610795565b80156103dc5780601f106103b1576101008083540402835291602001916103dc565b820191906000526020600020905b8154815290600101906020018083116103bf57829003601f168201915b505050505081526020019060010190610344565b50505050905090565b600280546001810182556000919091527f405787fa12a823e0f2b7631cc41b3ba8828b3321ca811111fa75cd3aa3bb5ace01610436828483610820565b506003805460ff1690600061044a836108e0565b91906101000a81548160ff021916908360ff160217905550505050565b60005460405163594ac74d60e11b81526001600160a01b039091169063b2958e9a9061049790849060040161090d565b6020604051808303816000875af11580156104b6573d6000803e3d6000fd5b505050506040513d601f19601f820116820180604052508101906104da919061098e565b5050565b6000602082840312156104f057600080fd5b5035919050565b6000806020838503121561050a57600080fd5b82356001600160401b038082111561052157600080fd5b818501915085601f83011261053557600080fd5b81358181111561054457600080fd5b8660208260051b850101111561055957600080fd5b60209290920196919550909350505050565b6000815180845260005b8181101561059157602081850181015186830182015201610575565b506000602082860101526020601f19601f83011685010191505092915050565b600060208083016020845280855180835260408601915060408160051b87010192506020870160005b8281101561060857603f198886030184526105f685835161056b565b945092850192908501906001016105da565b5092979650505050505050565b6000806020838503121561062857600080fd5b82356001600160401b038082111561063f57600080fd5b818501915085601f83011261065357600080fd5b81358181111561066257600080fd5b86602082850101111561055957600080fd5b6001600160a01b038116811461068957600080fd5b50565b60006020828403121561069e57600080fd5b81356106a981610674565b9392505050565b6000602082840312156106c257600080fd5b81516106a981610674565b634e487b7160e01b600052604160045260246000fd5b634e487b7160e01b600052603260045260246000fd5b60008235605e1983360301811261070f57600080fd5b9190910192915050565b6000808335601e1984360301811261073057600080fd5b8301803591506001600160401b0382111561074a57600080fd5b60200191503681900382131561075f57600080fd5b9250929050565b60208152816020820152818360408301376000818301604090810191909152601f909201601f19160101919050565b600181811c908216806107a957607f821691505b6020821081036107c957634e487b7160e01b600052602260045260246000fd5b50919050565b601f82111561081b576000816000526020600020601f850160051c810160208610156107f85750805b601f850160051c820191505b8181101561081757828155600101610804565b5050505b505050565b6001600160401b03831115610837576108376106cd565b61084b836108458354610795565b836107cf565b6000601f84116001811461087f57600085156108675750838201355b600019600387901b1c1916600186901b1783556108d9565b600083815260209020601f19861690835b828110156108b05786850135825560209485019460019092019101610890565b50868210156108cd5760001960f88860031b161c19848701351681555b505060018560011b0183555b5050505050565b600060ff821660ff810361090457634e487b7160e01b600052601160045260246000fd5b60010192915050565b600060208083018184528085518083526040925060408601915060408160051b87010184880160005b8381101561098057888303603f190185528151805184528781015188850152860151606087850181905261096c8186018361056b565b968901969450505090860190600101610936565b509098975050505050505050565b6000602082840312156109a057600080fd5b505191905056fea264697066735822122098c0fba9eb9f0594fde44956fa1ea04b0c0add2381623ea031ddc5b4fd76319164736f6c63430008180033",
  "linkReferences": {},
  "deployedLinkReferences": {}
}