{
  "_format": "hh-sol-artifact-1",
  "contractName": "RaylsArbitraryCallable",
  "sourceName": "src/rayls-protocol/test-contracts/RaylsArbitraryCallable.sol",
  "abi": [
    {
      "inputs": [
        {
          "internalType": "bytes32",
          "name": "_resourceId",
          "type": "bytes32"
        },
        {
          "internalType": "address",
          "name": "_endpoint",
          "type": "address"
        }
      ],
      "stateMutability": "nonpayable",
      "type": "constructor"
    },
    {
      "inputs": [],
      "name": "_getEndpointAddress",
      "outputs": [
        {
          "internalType": "address",
          "name": "",
          "type": "address"
        }
      ],
      "stateMutability": "view",
      "type": "function"
    },
    {
      "inputs": [
        {
          "internalType": "address",
          "name": "_endpoint",
          "type": "address"
        }
      ],
      "name": "_updateEndpoint",
      "outputs": [],
      "stateMutability": "nonpayable",
      "type": "function"
    },
    {
      "inputs": [
        {
          "internalType": "bytes32",
          "name": "_resourceId",
          "type": "bytes32"
        }
      ],
      "name": "getAddressByResourceId",
      "outputs": [
        {
          "internalType": "address",
          "name": "",
          "type": "address"
        }
      ],
      "stateMutability": "view",
      "type": "function"
    },
    {
      "inputs": [],
      "name": "getMessage",
      "outputs": [
        {
          "internalType": "string",
          "name": "",
          "type": "string"
        }
      ],
      "stateMutability": "view",
      "type": "function"
    },
    {
      "inputs": [],
      "name": "message",
      "outputs": [
        {
          "internalType": "string",
          "name": "",
          "type": "string"
        }
      ],
      "stateMutability": "view",
      "type": "function"
    },
    {
      "inputs": [],
      "name": "resourceId",
      "outputs": [
        {
          "internalType": "bytes32",
          "name": "",
          "type": "bytes32"
        }
      ],
      "stateMutability": "view",
      "type": "function"
    },
    {
      "inputs": [
        {
          "internalType": "string",
          "name": "_message",
          "type": "string"
        }
      ],
      "name": "setMessage",
      "outputs": [],
      "stateMutability": "nonpayable",
      "type": "function"
    }
  ],
  "bytecode": "0x608060405234801561001057600080fd5b5060405161075238038061075283398101604081905261002f9161012d565b600080546001600160a01b0319166001600160a01b038316179055600182905561005761005e565b505061016a565b6001546100c35760405162461bcd60e51b815260206004820152602960248201527f4f6e6c79207265676973746572207265736f75726365207768656e206974277360448201526808185c1c1c9bdd995960ba1b606482015260840160405180910390fd5b60005460015460405163d4f951c760e01b815260048101919091523060248201526001600160a01b039091169063d4f951c790604401600060405180830381600087803b15801561011357600080fd5b505af1158015610127573d6000803e3d6000fd5b50505050565b6000806040838503121561014057600080fd5b825160208401519092506001600160a01b038116811461015f57600080fd5b809150509250929050565b6105d9806101796000396000f3fe608060405234801561001057600080fd5b506004361061006d5760003560e01c806311f50c8514610072578063368b8772146100a25780635f997c5b146100b75780636f181318146100ce578063b247d946146100fe578063ce6d41de1461010f578063e21f37ce14610124575b600080fd5b6100856100803660046102d0565b61012c565b6040516001600160a01b0390911681526020015b60405180910390f35b6100b56100b03660046102ff565b6101a0565b005b6100c060015481565b604051908152602001610099565b6100b56100dc3660046103c8565b600080546001600160a01b0319166001600160a01b0392909216919091179055565b6000546001600160a01b0316610085565b6101176101b0565b60405161009991906103ec565b610117610242565b600080546040516311f50c8560e01b8152600481018490526001600160a01b03909116906311f50c8590602401602060405180830381865afa158015610176573d6000803e3d6000fd5b505050506040513d601f19601f8201168201806040525081019061019a919061043b565b92915050565b60026101ac82826104e3565b5050565b6060600280546101bf90610458565b80601f01602080910402602001604051908101604052809291908181526020018280546101eb90610458565b80156102385780601f1061020d57610100808354040283529160200191610238565b820191906000526020600020905b81548152906001019060200180831161021b57829003601f168201915b5050505050905090565b6002805461024f90610458565b80601f016020809104026020016040519081016040528092919081815260200182805461027b90610458565b80156102c85780601f1061029d576101008083540402835291602001916102c8565b820191906000526020600020905b8154815290600101906020018083116102ab57829003601f168201915b505050505081565b6000602082840312156102e257600080fd5b5035919050565b634e487b7160e01b600052604160045260246000fd5b60006020828403121561031157600080fd5b813567ffffffffffffffff8082111561032957600080fd5b818401915084601f83011261033d57600080fd5b81358181111561034f5761034f6102e9565b604051601f8201601f19908116603f01168101908382118183101715610377576103776102e9565b8160405282815287602084870101111561039057600080fd5b826020860160208301376000928101602001929092525095945050505050565b6001600160a01b03811681146103c557600080fd5b50565b6000602082840312156103da57600080fd5b81356103e5816103b0565b9392505050565b60006020808352835180602085015260005b8181101561041a578581018301518582016040015282016103fe565b506000604082860101526040601f19601f8301168501019250505092915050565b60006020828403121561044d57600080fd5b81516103e5816103b0565b600181811c9082168061046c57607f821691505b60208210810361048c57634e487b7160e01b600052602260045260246000fd5b50919050565b601f8211156104de576000816000526020600020601f850160051c810160208610156104bb5750805b601f850160051c820191505b818110156104da578281556001016104c7565b5050505b505050565b815167ffffffffffffffff8111156104fd576104fd6102e9565b6105118161050b8454610458565b84610492565b602080601f831160018114610546576000841561052e5750858301515b600019600386901b1c1916600185901b1785556104da565b600085815260208120601f198616915b8281101561057557888601518255948401946001909101908401610556565b50858210156105935787850151600019600388901b60f8161c191681555b5050505050600190811b0190555056fea264697066735822122078ea17007ca7ffae33e5bd0e33e7b38874e04fb24fde44c00227302e2460775464736f6c63430008180033",
  "linkReferences": {},
  "deployedLinkReferences": {}
}