{
  "_format": "hh-sol-artifact-1",
  "contractName": "EnygmaV1",
  "sourceName": "src/rayls-protocol/Enygma/EnygmaV1.sol",
  "abi": [
    {
      "inputs": [
        {
          "internalType": "string",
          "name": "_name",
          "type": "string"
        },
        {
          "internalType": "string",
          "name": "_symbol",
          "type": "string"
        },
        {
          "internalType": "uint8",
          "name": "_decimals",
          "type": "uint8"
        },
        {
          "internalType": "address",
          "name": "_owner",
          "type": "address"
        },
        {
          "internalType": "address",
          "name": "_participantStorageContract",
          "type": "address"
        },
        {
          "internalType": "address",
          "name": "_endpoint",
          "type": "address"
        },
        {
          "internalType": "address",
          "name": "_tokenRegistryContract",
          "type": "address"
        },
        {
          "internalType": "bytes32",
          "name": "_resourceId",
          "type": "bytes32"
        },
        {
          "internalType": "uint256",
          "name": "_ownerChainId",
          "type": "uint256"
        }
      ],
      "stateMutability": "nonpayable",
      "type": "constructor"
    },
    {
      "anonymous": false,
      "inputs": [
        {
          "indexed": true,
          "internalType": "uint256",
          "name": "blockNumber",
          "type": "uint256"
        }
      ],
      "name": "BalancesFinalised",
      "type": "event"
    },
    {
      "anonymous": false,
      "inputs": [
        {
          "indexed": true,
          "internalType": "uint256",
          "name": "chainId",
          "type": "uint256"
        },
        {
          "indexed": false,
          "internalType": "uint256",
          "name": "burnValue",
          "type": "uint256"
        }
      ],
      "name": "BurnSuccessful",
      "type": "event"
    },
    {
      "anonymous": false,
      "inputs": [
        {
          "indexed": true,
          "internalType": "uint256",
          "name": "lastblockNum",
          "type": "uint256"
        },
        {
          "indexed": false,
          "internalType": "uint256",
          "name": "amount",
          "type": "uint256"
        },
        {
          "indexed": false,
          "internalType": "uint256",
          "name": "toChainId",
          "type": "uint256"
        }
      ],
      "name": "SupplyMinted",
      "type": "event"
    },
    {
      "anonymous": false,
      "inputs": [
        {
          "indexed": true,
          "internalType": "address",
          "name": "senderAddress",
          "type": "address"
        }
      ],
      "name": "TransactionSuccessful",
      "type": "event"
    },
    {
      "anonymous": false,
      "inputs": [
        {
          "indexed": true,
          "internalType": "address",
          "name": "verifierAddress",
          "type": "address"
        },
        {
          "indexed": false,
          "internalType": "uint8",
          "name": "k",
          "type": "uint8"
        }
      ],
      "name": "VerifierRegistered",
      "type": "event"
    },
    {
      "inputs": [],
      "name": "Name",
      "outputs": [
        {
          "internalType": "string",
          "name": "",
          "type": "string"
        }
      ],
      "stateMutability": "view",
      "type": "function"
    },
    {
      "inputs": [],
      "name": "Symbol",
      "outputs": [
        {
          "internalType": "string",
          "name": "",
          "type": "string"
        }
      ],
      "stateMutability": "view",
      "type": "function"
    },
    {
      "inputs": [],
      "name": "_getEndpointAddress",
      "outputs": [
        {
          "internalType": "address",
          "name": "",
          "type": "address"
        }
      ],
      "stateMutability": "view",
      "type": "function"
    },
    {
      "inputs": [
        {
          "internalType": "address",
          "name": "_endpoint",
          "type": "address"
        }
      ],
      "name": "_updateEndpoint",
      "outputs": [],
      "stateMutability": "nonpayable",
      "type": "function"
    },
    {
      "inputs": [
        {
          "internalType": "address",
          "name": "verifier",
          "type": "address"
        },
        {
          "internalType": "uint8",
          "name": "k",
          "type": "uint8"
        }
      ],
      "name": "addTransferVerifier",
      "outputs": [
        {
          "internalType": "bool",
          "name": "",
          "type": "bool"
        }
      ],
      "stateMutability": "nonpayable",
      "type": "function"
    },
    {
      "inputs": [
        {
          "internalType": "uint256",
          "name": "_chainId",
          "type": "uint256"
        },
        {
          "internalType": "uint256",
          "name": "burnValue",
          "type": "uint256"
        },
        {
          "internalType": "uint256",
          "name": "_blockNumber",
          "type": "uint256"
        }
      ],
      "name": "burn",
      "outputs": [
        {
          "internalType": "bool",
          "name": "",
          "type": "bool"
        }
      ],
      "stateMutability": "nonpayable",
      "type": "function"
    },
    {
      "inputs": [
        {
          "internalType": "uint256",
          "name": "blockNumber",
          "type": "uint256"
        }
      ],
      "name": "checkTotalSumOfBalances",
      "outputs": [
        {
          "internalType": "bool",
          "name": "",
          "type": "bool"
        }
      ],
      "stateMutability": "view",
      "type": "function"
    },
    {
      "inputs": [
        {
          "internalType": "uint256",
          "name": "v",
          "type": "uint256"
        }
      ],
      "name": "derivePk",
      "outputs": [
        {
          "internalType": "uint256",
          "name": "x2",
          "type": "uint256"
        },
        {
          "internalType": "uint256",
          "name": "y2",
          "type": "uint256"
        }
      ],
      "stateMutability": "view",
      "type": "function"
    },
    {
      "inputs": [
        {
          "internalType": "uint256",
          "name": "r",
          "type": "uint256"
        }
      ],
      "name": "derivePkH",
      "outputs": [
        {
          "internalType": "uint256",
          "name": "x2",
          "type": "uint256"
        },
        {
          "internalType": "uint256",
          "name": "y2",
          "type": "uint256"
        }
      ],
      "stateMutability": "view",
      "type": "function"
    },
    {
      "inputs": [
        {
          "internalType": "bytes32",
          "name": "_resourceId",
          "type": "bytes32"
        }
      ],
      "name": "getAddressByResourceId",
      "outputs": [
        {
          "internalType": "address",
          "name": "",
          "type": "address"
        }
      ],
      "stateMutability": "view",
      "type": "function"
    },
    {
      "inputs": [
        {
          "internalType": "uint256",
          "name": "chainId",
          "type": "uint256"
        },
        {
          "internalType": "uint256",
          "name": "blockNumber",
          "type": "uint256"
        }
      ],
      "name": "getBalanceByBlockNumber",
      "outputs": [
        {
          "internalType": "uint256",
          "name": "x",
          "type": "uint256"
        },
        {
          "internalType": "uint256",
          "name": "y",
          "type": "uint256"
        }
      ],
      "stateMutability": "view",
      "type": "function"
    },
    {
      "inputs": [
        {
          "internalType": "uint256",
          "name": "chainId",
          "type": "uint256"
        }
      ],
      "name": "getBalanceFinalised",
      "outputs": [
        {
          "internalType": "uint256",
          "name": "x",
          "type": "uint256"
        },
        {
          "internalType": "uint256",
          "name": "y",
          "type": "uint256"
        }
      ],
      "stateMutability": "view",
      "type": "function"
    },
    {
      "inputs": [
        {
          "internalType": "uint256",
          "name": "chainId",
          "type": "uint256"
        }
      ],
      "name": "getBalancePending",
      "outputs": [
        {
          "internalType": "uint256",
          "name": "x",
          "type": "uint256"
        },
        {
          "internalType": "uint256",
          "name": "y",
          "type": "uint256"
        }
      ],
      "stateMutability": "view",
      "type": "function"
    },
    {
      "inputs": [
        {
          "internalType": "uint256",
          "name": "currentBlockNumber",
          "type": "uint256"
        }
      ],
      "name": "getLastblockNumAtCurrentBlockNumber",
      "outputs": [
        {
          "internalType": "uint256",
          "name": "",
          "type": "uint256"
        }
      ],
      "stateMutability": "view",
      "type": "function"
    },
    {
      "inputs": [],
      "name": "getPendingMintsAndBurns",
      "outputs": [
        {
          "components": [
            {
              "components": [
                {
                  "internalType": "uint256",
                  "name": "c1",
                  "type": "uint256"
                },
                {
                  "internalType": "uint256",
                  "name": "c2",
                  "type": "uint256"
                },
                {
                  "internalType": "uint256",
                  "name": "chainId",
                  "type": "uint256"
                }
              ],
              "internalType": "struct IEnygmaV1.EnygmaPointWithChainId",
              "name": "pointToAddToBalance",
              "type": "tuple"
            },
            {
              "internalType": "uint256",
              "name": "amount",
              "type": "uint256"
            },
            {
              "internalType": "uint256",
              "name": "blockNumber",
              "type": "uint256"
            },
            {
              "internalType": "uint8",
              "name": "transactionType",
              "type": "uint8"
            }
          ],
          "internalType": "struct IEnygmaV1.PendingMintOrBurn[]",
          "name": "",
          "type": "tuple[]"
        }
      ],
      "stateMutability": "view",
      "type": "function"
    },
    {
      "inputs": [],
      "name": "getPendingTransactions",
      "outputs": [
        {
          "components": [
            {
              "components": [
                {
                  "internalType": "uint256",
                  "name": "c1",
                  "type": "uint256"
                },
                {
                  "internalType": "uint256",
                  "name": "c2",
                  "type": "uint256"
                },
                {
                  "internalType": "uint256",
                  "name": "chainId",
                  "type": "uint256"
                }
              ],
              "internalType": "struct IEnygmaV1.EnygmaPointWithChainId[]",
              "name": "pointsToAddToBalance",
              "type": "tuple[]"
            },
            {
              "internalType": "uint256",
              "name": "nullifier",
              "type": "uint256"
            },
            {
              "internalType": "uint8",
              "name": "transactionType",
              "type": "uint8"
            }
          ],
          "internalType": "struct IEnygmaV1.PendingTransaction[]",
          "name": "",
          "type": "tuple[]"
        }
      ],
      "stateMutability": "view",
      "type": "function"
    },
    {
      "inputs": [
        {
          "internalType": "uint256",
          "name": "blockNumber",
          "type": "uint256"
        }
      ],
      "name": "getPublicValuesByBlockNumber",
      "outputs": [
        {
          "components": [
            {
              "internalType": "uint256",
              "name": "c1",
              "type": "uint256"
            },
            {
              "internalType": "uint256",
              "name": "c2",
              "type": "uint256"
            },
            {
              "internalType": "uint256",
              "name": "chainId",
              "type": "uint256"
            }
          ],
          "internalType": "struct IEnygmaV1.EnygmaPointWithChainId[]",
          "name": "",
          "type": "tuple[]"
        },
        {
          "components": [
            {
              "internalType": "uint256",
              "name": "c1",
              "type": "uint256"
            },
            {
              "internalType": "uint256",
              "name": "c2",
              "type": "uint256"
            },
            {
              "internalType": "uint256",
              "name": "chainId",
              "type": "uint256"
            }
          ],
          "internalType": "struct IEnygmaV1.EnygmaPointWithChainId[]",
          "name": "",
          "type": "tuple[]"
        }
      ],
      "stateMutability": "view",
      "type": "function"
    },
    {
      "inputs": [],
      "name": "getPublicValuesFinalised",
      "outputs": [
        {
          "components": [
            {
              "internalType": "uint256",
              "name": "c1",
              "type": "uint256"
            },
            {
              "internalType": "uint256",
              "name": "c2",
              "type": "uint256"
            },
            {
              "internalType": "uint256",
              "name": "chainId",
              "type": "uint256"
            }
          ],
          "internalType": "struct IEnygmaV1.EnygmaPointWithChainId[]",
          "name": "",
          "type": "tuple[]"
        },
        {
          "components": [
            {
              "internalType": "uint256",
              "name": "c1",
              "type": "uint256"
            },
            {
              "internalType": "uint256",
              "name": "c2",
              "type": "uint256"
            },
            {
              "internalType": "uint256",
              "name": "chainId",
              "type": "uint256"
            }
          ],
          "internalType": "struct IEnygmaV1.EnygmaPointWithChainId[]",
          "name": "",
          "type": "tuple[]"
        }
      ],
      "stateMutability": "view",
      "type": "function"
    },
    {
      "inputs": [],
      "name": "getPublicValuesPending",
      "outputs": [
        {
          "components": [
            {
              "internalType": "uint256",
              "name": "c1",
              "type": "uint256"
            },
            {
              "internalType": "uint256",
              "name": "c2",
              "type": "uint256"
            },
            {
              "internalType": "uint256",
              "name": "chainId",
              "type": "uint256"
            }
          ],
          "internalType": "struct IEnygmaV1.EnygmaPointWithChainId[]",
          "name": "",
          "type": "tuple[]"
        },
        {
          "components": [
            {
              "internalType": "uint256",
              "name": "c1",
              "type": "uint256"
            },
            {
              "internalType": "uint256",
              "name": "c2",
              "type": "uint256"
            },
            {
              "internalType": "uint256",
              "name": "chainId",
              "type": "uint256"
            }
          ],
          "internalType": "struct IEnygmaV1.EnygmaPointWithChainId[]",
          "name": "",
          "type": "tuple[]"
        }
      ],
      "stateMutability": "view",
      "type": "function"
    },
    {
      "inputs": [],
      "name": "getTotalRegisteredBanks",
      "outputs": [
        {
          "internalType": "uint256",
          "name": "",
          "type": "uint256"
        }
      ],
      "stateMutability": "view",
      "type": "function"
    },
    {
      "inputs": [],
      "name": "getTotalSupply",
      "outputs": [
        {
          "internalType": "uint256",
          "name": "",
          "type": "uint256"
        }
      ],
      "stateMutability": "view",
      "type": "function"
    },
    {
      "inputs": [
        {
          "internalType": "uint8",
          "name": "k",
          "type": "uint8"
        }
      ],
      "name": "getTransferVerifierAddress",
      "outputs": [
        {
          "internalType": "address",
          "name": "",
          "type": "address"
        }
      ],
      "stateMutability": "view",
      "type": "function"
    },
    {
      "inputs": [],
      "name": "getzkDvpIntegrationContractAddress",
      "outputs": [
        {
          "internalType": "address",
          "name": "",
          "type": "address"
        }
      ],
      "stateMutability": "view",
      "type": "function"
    },
    {
      "inputs": [
        {
          "internalType": "uint256",
          "name": "nullifier",
          "type": "uint256"
        }
      ],
      "name": "isNullifierUnique",
      "outputs": [
        {
          "internalType": "bool",
          "name": "",
          "type": "bool"
        }
      ],
      "stateMutability": "view",
      "type": "function"
    },
    {
      "inputs": [],
      "name": "lastblockNum",
      "outputs": [
        {
          "internalType": "uint256",
          "name": "",
          "type": "uint256"
        }
      ],
      "stateMutability": "view",
      "type": "function"
    },
    {
      "inputs": [
        {
          "internalType": "uint256",
          "name": "",
          "type": "uint256"
        }
      ],
      "name": "lastblockNumAtCurrentBlockNumber",
      "outputs": [
        {
          "internalType": "uint256",
          "name": "",
          "type": "uint256"
        }
      ],
      "stateMutability": "view",
      "type": "function"
    },
    {
      "inputs": [],
      "name": "lastblockNumPending",
      "outputs": [
        {
          "internalType": "uint256",
          "name": "",
          "type": "uint256"
        }
      ],
      "stateMutability": "view",
      "type": "function"
    },
    {
      "inputs": [
        {
          "internalType": "uint256",
          "name": "_amount",
          "type": "uint256"
        },
        {
          "internalType": "uint256",
          "name": "toChainId",
          "type": "uint256"
        },
        {
          "internalType": "uint256",
          "name": "_blockNumber",
          "type": "uint256"
        }
      ],
      "name": "mintSupply",
      "outputs": [
        {
          "internalType": "bool",
          "name": "",
          "type": "bool"
        }
      ],
      "stateMutability": "nonpayable",
      "type": "function"
    },
    {
      "inputs": [
        {
          "internalType": "uint256",
          "name": "x",
          "type": "uint256"
        }
      ],
      "name": "negateOnCurve",
      "outputs": [
        {
          "internalType": "uint256",
          "name": "",
          "type": "uint256"
        }
      ],
      "stateMutability": "pure",
      "type": "function"
    },
    {
      "inputs": [],
      "name": "ownerChainId",
      "outputs": [
        {
          "internalType": "uint256",
          "name": "",
          "type": "uint256"
        }
      ],
      "stateMutability": "view",
      "type": "function"
    },
    {
      "inputs": [],
      "name": "participantStorageContract",
      "outputs": [
        {
          "internalType": "address",
          "name": "",
          "type": "address"
        }
      ],
      "stateMutability": "view",
      "type": "function"
    },
    {
      "inputs": [
        {
          "internalType": "uint256",
          "name": "v",
          "type": "uint256"
        },
        {
          "internalType": "uint256",
          "name": "r",
          "type": "uint256"
        }
      ],
      "name": "pedCom",
      "outputs": [
        {
          "internalType": "uint256",
          "name": "",
          "type": "uint256"
        },
        {
          "internalType": "uint256",
          "name": "",
          "type": "uint256"
        }
      ],
      "stateMutability": "view",
      "type": "function"
    },
    {
      "inputs": [
        {
          "internalType": "uint256",
          "name": "",
          "type": "uint256"
        }
      ],
      "name": "pendingBalancesTallied",
      "outputs": [
        {
          "internalType": "bool",
          "name": "",
          "type": "bool"
        }
      ],
      "stateMutability": "view",
      "type": "function"
    },
    {
      "inputs": [
        {
          "internalType": "uint256",
          "name": "",
          "type": "uint256"
        }
      ],
      "name": "pendingMintsAndBurns",
      "outputs": [
        {
          "components": [
            {
              "internalType": "uint256",
              "name": "c1",
              "type": "uint256"
            },
            {
              "internalType": "uint256",
              "name": "c2",
              "type": "uint256"
            },
            {
              "internalType": "uint256",
              "name": "chainId",
              "type": "uint256"
            }
          ],
          "internalType": "struct IEnygmaV1.EnygmaPointWithChainId",
          "name": "pointToAddToBalance",
          "type": "tuple"
        },
        {
          "internalType": "uint256",
          "name": "amount",
          "type": "uint256"
        },
        {
          "internalType": "uint256",
          "name": "blockNumber",
          "type": "uint256"
        },
        {
          "internalType": "uint8",
          "name": "transactionType",
          "type": "uint8"
        }
      ],
      "stateMutability": "view",
      "type": "function"
    },
    {
      "inputs": [
        {
          "internalType": "uint256",
          "name": "",
          "type": "uint256"
        }
      ],
      "name": "pendingTransactions",
      "outputs": [
        {
          "internalType": "uint256",
          "name": "nullifier",
          "type": "uint256"
        },
        {
          "internalType": "uint8",
          "name": "transactionType",
          "type": "uint8"
        }
      ],
      "stateMutability": "view",
      "type": "function"
    },
    {
      "inputs": [
        {
          "internalType": "uint256",
          "name": "",
          "type": "uint256"
        },
        {
          "internalType": "uint256",
          "name": "",
          "type": "uint256"
        }
      ],
      "name": "referenceBalance",
      "outputs": [
        {
          "internalType": "uint256",
          "name": "c1",
          "type": "uint256"
        },
        {
          "internalType": "uint256",
          "name": "c2",
          "type": "uint256"
        },
        {
          "internalType": "uint256",
          "name": "chainId",
          "type": "uint256"
        }
      ],
      "stateMutability": "view",
      "type": "function"
    },
    {
      "inputs": [],
      "name": "resourceId",
      "outputs": [
        {
          "internalType": "bytes32",
          "name": "",
          "type": "bytes32"
        }
      ],
      "stateMutability": "view",
      "type": "function"
    },
    {
      "inputs": [
        {
          "internalType": "address",
          "name": "_zkDvpIntegrationContractAddress",
          "type": "address"
        }
      ],
      "name": "setZkDvpIntegrationContract",
      "outputs": [],
      "stateMutability": "nonpayable",
      "type": "function"
    },
    {
      "inputs": [],
      "name": "tokenRegistryContract",
      "outputs": [
        {
          "internalType": "address",
          "name": "",
          "type": "address"
        }
      ],
      "stateMutability": "view",
      "type": "function"
    },
    {
      "inputs": [],
      "name": "totalSupply",
      "outputs": [
        {
          "internalType": "uint256",
          "name": "",
          "type": "uint256"
        }
      ],
      "stateMutability": "view",
      "type": "function"
    },
    {
      "inputs": [],
      "name": "totalSupplyX",
      "outputs": [
        {
          "internalType": "uint256",
          "name": "",
          "type": "uint256"
        }
      ],
      "stateMutability": "view",
      "type": "function"
    },
    {
      "inputs": [],
      "name": "totalSupplyY",
      "outputs": [
        {
          "internalType": "uint256",
          "name": "",
          "type": "uint256"
        }
      ],
      "stateMutability": "view",
      "type": "function"
    },
    {
      "inputs": [
        {
          "internalType": "uint8",
          "name": "k",
          "type": "uint8"
        },
        {
          "components": [
            {
              "internalType": "uint256",
              "name": "c1",
              "type": "uint256"
            },
            {
              "internalType": "uint256",
              "name": "c2",
              "type": "uint256"
            }
          ],
          "internalType": "struct IEnygmaV1.Point[]",
          "name": "commitments",
          "type": "tuple[]"
        },
        {
          "components": [
            {
              "internalType": "uint256[2]",
              "name": "pi_a",
              "type": "uint256[2]"
            },
            {
              "internalType": "uint256[2][2]",
              "name": "pi_b",
              "type": "uint256[2][2]"
            },
            {
              "internalType": "uint256[2]",
              "name": "pi_c",
              "type": "uint256[2]"
            },
            {
              "internalType": "uint256[]",
              "name": "public_signal",
              "type": "uint256[]"
            }
          ],
          "internalType": "struct IEnygmaV1.TransferProof",
          "name": "proof",
          "type": "tuple"
        },
        {
          "internalType": "uint256[]",
          "name": "chainIds",
          "type": "uint256[]"
        },
        {
          "internalType": "bytes[]",
          "name": "encryptedMessages",
          "type": "bytes[]"
        }
      ],
      "name": "transfer",
      "outputs": [
        {
          "internalType": "bool",
          "name": "",
          "type": "bool"
        }
      ],
      "stateMutability": "nonpayable",
      "type": "function"
    },
    {
      "inputs": [
        {
          "internalType": "uint256",
          "name": "",
          "type": "uint256"
        }
      ],
      "name": "transferVerifiers",
      "outputs": [
        {
          "internalType": "address",
          "name": "",
          "type": "address"
        }
      ],
      "stateMutability": "view",
      "type": "function"
    },
    {
      "inputs": [
        {
          "internalType": "uint8",
          "name": "k",
          "type": "uint8"
        },
        {
          "components": [
            {
              "internalType": "uint256",
              "name": "c1",
              "type": "uint256"
            },
            {
              "internalType": "uint256",
              "name": "c2",
              "type": "uint256"
            }
          ],
          "internalType": "struct IEnygmaV1.Point[]",
          "name": "commitments",
          "type": "tuple[]"
        },
        {
          "components": [
            {
              "internalType": "uint256[2]",
              "name": "pi_a",
              "type": "uint256[2]"
            },
            {
              "internalType": "uint256[2][2]",
              "name": "pi_b",
              "type": "uint256[2][2]"
            },
            {
              "internalType": "uint256[2]",
              "name": "pi_c",
              "type": "uint256[2]"
            },
            {
              "internalType": "uint256[]",
              "name": "public_signal",
              "type": "uint256[]"
            }
          ],
          "internalType": "struct IEnygmaV1.TransferProof",
          "name": "proof",
          "type": "tuple"
        },
        {
          "internalType": "uint256[]",
          "name": "chainIds",
          "type": "uint256[]"
        },
        {
          "internalType": "uint256",
          "name": "_nullifier",
          "type": "uint256"
        },
        {
          "internalType": "uint256",
          "name": "lastblockNumAtCurrentBlockNum",
          "type": "uint256"
        },
        {
          "internalType": "uint256",
          "name": "currentBlockNumber",
          "type": "uint256"
        },
        {
          "internalType": "uint8",
          "name": "transactionType",
          "type": "uint8"
        }
      ],
      "name": "zkDvpAddPendingTransaction",
      "outputs": [],
      "stateMutability": "nonpayable",
      "type": "function"
    },
    {
      "inputs": [],
      "name": "zkDvpChainId",
      "outputs": [
        {
          "internalType": "uint256",
          "name": "",
          "type": "uint256"
        }
      ],
      "stateMutability": "view",
      "type": "function"
    },
    {
      "inputs": [
        {
          "internalType": "uint256",
          "name": "currentBlockNumber",
          "type": "uint256"
        }
      ],
      "name": "zkDvpFinalisePendingTransactions",
      "outputs": [],
      "stateMutability": "nonpayable",
      "type": "function"
    },
    {
      "inputs": [],
      "name": "zkDvpIntegrationContractAddress",
      "outputs": [
        {
          "internalType": "address",
          "name": "",
          "type": "address"
        }
      ],
      "stateMutability": "view",
      "type": "function"
    },
    {
      "inputs": [
        {
          "internalType": "uint256[]",
          "name": "chainIds",
          "type": "uint256[]"
        },
        {
          "internalType": "bytes[]",
          "name": "encryptedMessages",
          "type": "bytes[]"
        }
      ],
      "name": "zkDvpSendEvents",
      "outputs": [],
      "stateMutability": "nonpayable",
      "type": "function"
    },
    {
      "inputs": [
        {
          "internalType": "uint256",
          "name": "newValue",
          "type": "uint256"
        }
      ],
      "name": "zkDvpSetLastblockNumPending",
      "outputs": [],
      "stateMutability": "nonpayable",
      "type": "function"
    },
    {
      "inputs": [
        {
          "internalType": "uint8",
          "name": "k",
          "type": "uint8"
        },
        {
          "components": [
            {
              "internalType": "uint256",
              "name": "c1",
              "type": "uint256"
            },
            {
              "internalType": "uint256",
              "name": "c2",
              "type": "uint256"
            }
          ],
          "internalType": "struct IEnygmaV1.Point[]",
          "name": "commitments",
          "type": "tuple[]"
        },
        {
          "components": [
            {
              "internalType": "uint256[2]",
              "name": "pi_a",
              "type": "uint256[2]"
            },
            {
              "internalType": "uint256[2][2]",
              "name": "pi_b",
              "type": "uint256[2][2]"
            },
            {
              "internalType": "uint256[2]",
              "name": "pi_c",
              "type": "uint256[2]"
            },
            {
              "internalType": "uint256[]",
              "name": "public_signal",
              "type": "uint256[]"
            }
          ],
          "internalType": "struct IEnygmaV1.TransferProof",
          "name": "proof",
          "type": "tuple"
        },
        {
          "internalType": "uint256[]",
          "name": "chainIds",
          "type": "uint256[]"
        },
        {
          "internalType": "uint256",
          "name": "nullifier",
          "type": "uint256"
        },
        {
          "internalType": "uint256",
          "name": "currentBlockNumber",
          "type": "uint256"
        }
      ],
      "name": "zkDvpValidateTransferInputs",
      "outputs": [],
      "stateMutability": "view",
      "type": "function"
    }
  ],
  "bytecode": "0x6080604052600060055560006006556000600e553480156200002057600080fd5b506040516200508f3803806200508f8339810160408190526200004391620001e3565b600080546001600160a01b0319166001600160a01b03861617905560026200006c8a8262000356565b5060036200007b898262000356565b506004805460ff191660ff989098169790971790965543600a819055600b55600880546001600160a01b03199081166001600160a01b039788161790915560006007819055600c805483169688169690961790955560059490945560016006819055600d8054909516929095169190911790925550905560095550620004229050565b634e487b7160e01b600052604160045260246000fd5b600082601f8301126200012657600080fd5b81516001600160401b0380821115620001435762000143620000fe565b604051601f8301601f19908116603f011681019082821181831017156200016e576200016e620000fe565b81604052838152602092508660208588010111156200018c57600080fd5b600091505b83821015620001b0578582018301518183018401529082019062000191565b6000602085830101528094505050505092915050565b80516001600160a01b0381168114620001de57600080fd5b919050565b60008060008060008060008060006101208a8c0312156200020357600080fd5b89516001600160401b03808211156200021b57600080fd5b620002298d838e0162000114565b9a5060208c01519150808211156200024057600080fd5b506200024f8c828d0162000114565b98505060408a015160ff811681146200026757600080fd5b96506200027760608b01620001c6565b95506200028760808b01620001c6565b94506200029760a08b01620001c6565b9350620002a760c08b01620001c6565b925060e08a015191506101008a015190509295985092959850929598565b600181811c90821680620002da57607f821691505b602082108103620002fb57634e487b7160e01b600052602260045260246000fd5b50919050565b601f82111562000351576000816000526020600020601f850160051c810160208610156200032c5750805b601f850160051c820191505b818110156200034d5782815560010162000338565b5050505b505050565b81516001600160401b03811115620003725762000372620000fe565b6200038a81620003838454620002c5565b8462000301565b602080601f831160018114620003c25760008415620003a95750858301515b600019600386901b1c1916600185901b1785556200034d565b600085815260208120601f198616915b82811015620003f357888601518255948401946001909101908401620003d2565b5085821015620004125787850151600019600388901b60f8161c191681555b5050505050600190811b01905550565b614c5d80620004326000396000f3fe608060405234801561001057600080fd5b50600436106102815760003560e01c806367511a4d1161015d578063a9bace48116100c9578063a9bace48146105df578063acf92e7814610634578063b05544581461063d578063b247d94614610650578063c4e41b2214610661578063ce630c1814610669578063d11db83f1461067c578063d96f38e214610691578063dc746645146106a4578063ecccfd8e146106b7578063f2041ad7146106da578063febce3a0146106ed578063ff4d18151461070057600080fd5b806367511a4d146104d85780636f181318146104e157806371929e2a14610511578063723dbbc41461051a5780637a856ee51461052d5780637d894a16146105505780638052474d146105635780638bf3e6c41461056b57806392744b8d1461057e5780639370348614610591578063a0a0683e146105a4578063a79d55e6146105cd578063a98c7606146105d657600080fd5b80633225e9e3116101fc5780633225e9e3146103d357806332530d3c146103fb5780633796e239146104035780633b80ac38146104165780633bc39d5a146104295780633d6ed60f1461043c57806348d9d3071461044f5780635451e537146104645780635c71836e146104775780635e19f7cf1461048a5780635e53dcb8146104925780635f997c5b146104a557806363a8374d146104ae57600080fd5b806305a1002814610286578063076c15d8146102ae57806308d63e03146102c357806311f50c85146102ee57806318160ddd146103015780631da744e614610318578063213933e61461033857806324481d921461035857806324eb59401461036e57806325d1ef0b1461037f5780632b055fb7146103ab5780633045aaf3146103be575b600080fd5b610299610294366004613c74565b610709565b60405190151581526020015b60405180910390f35b6102c16102bc366004613ca0565b6109e4565b005b600d546102d6906001600160a01b031681565b6040516001600160a01b0390911681526020016102a5565b6102d66102fc366004613ca0565b610a13565b61030a60075481565b6040519081526020016102a5565b61030a610326366004613ca0565b60146020526000908152604090205481565b61030a610346366004613ca0565b60009081526014602052604090205490565b610360610a87565b6040516102a5929190613d18565b6015546001600160a01b03166102d6565b6102d661038d366004613d5c565b60ff166000908152601060205260409020546001600160a01b031690565b6102c16103b9366004613f84565b610d59565b6103c6610d91565b6040516102a5919061402d565b6103e66103e1366004614040565b610e23565b604080519283526020830191909152016102a5565b61030a610ea2565b610299610411366004614077565b610f1f565b6102c16104243660046140ac565b610f8b565b6103e6610437366004613ca0565b611016565b6102c161044a366004613ca0565b611099565b6104576110cf565b6040516102a591906140c9565b610299610472366004613ca0565b61116f565b6015546102d6906001600160a01b031681565b6103606112e0565b61030a6104a0366004613ca0565b6115a3565b61030a60015481565b6104c16104bc366004613ca0565b6115d2565b6040805192835260ff9091166020830152016102a5565b61030a60065481565b6102c16104ef3660046140ac565b600080546001600160a01b0319166001600160a01b0392909216919091179055565b61030a60055481565b6103e6610528366004613ca0565b611606565b61054061053b366004613ca0565b61161c565b6040516102a5949392919061413a565b6103e661055e366004614040565b61167d565b6103c66116c0565b6102996105793660046142fb565b6116cf565b61036061058c366004613ca0565b6118ac565b61029961059f366004613c74565b611b80565b6102d66105b2366004613ca0565b6010602052600090815260409020546001600160a01b031681565b61030a600a5481565b61030a600e5481565b6106196105ed366004614040565b600f60209081526000928352604080842090915290825290208054600182015460029092015490919083565b604080519384526020840192909252908201526060016102a5565b61030a600b5481565b6102c161064b3660046143b8565b611e76565b6000546001600160a01b03166102d6565b60075461030a565b6103e6610677366004613ca0565b611eba565b610684611ec6565b6040516102a5919061447e565b6102c161069f366004614538565b611fb6565b6103e66106b2366004613ca0565b611ff6565b6102996106c5366004613ca0565b60136020526000908152604090205460ff1681565b6102996106e8366004613ca0565b612079565b600c546102d6906001600160a01b031681565b61030a60095481565b600c54600954604051634647061560e11b81526000926001600160a01b03169183918391638c8e0c2a916107419133916004016145e2565b602060405180830381865afa15801561075e573d6000803e3d6000fd5b505050506040513d601f19601f8201168201806040525081019061078291906145fb565b9050806107aa5760405162461bcd60e51b81526004016107a19061461d565b60405180910390fd5b6015805460ff60a01b1916600160a01b1790557f060c89ce5c263405370a08b6d0302b0bab3eedb83920ee0a677297dc392126f18511156108245760405162461bcd60e51b81526020600482015260146024820152734572726f723a206275726e56616c7565203e205160601b60448201526064016107a1565b60008061085b610854887f060c89ce5c263405370a08b6d0302b0bab3eedb83920ee0a677297dc392126f1614682565b600061167d565b90925090508561086a816120cc565b6040805160e0810182526080810185815260a0820185905260c082018c9052815260208082018b81528284018b8152600260608501908152601280546001810182556000918252955180517fbb8a6a4669ba250d26cd7a459eca9d215f8307e33aebe50379bc5a3617ec3444600690980297880155948501517fbb8a6a4669ba250d26cd7a459eca9d215f8307e33aebe50379bc5a3617ec344587015593909501517fbb8a6a4669ba250d26cd7a459eca9d215f8307e33aebe50379bc5a3617ec344685015590517fbb8a6a4669ba250d26cd7a459eca9d215f8307e33aebe50379bc5a3617ec3447840155517fbb8a6a4669ba250d26cd7a459eca9d215f8307e33aebe50379bc5a3617ec344883015591517fbb8a6a4669ba250d26cd7a459eca9d215f8307e33aebe50379bc5a3617ec3449909101805460ff191660ff909216919091179055600b8290556109c8908a90859085908590612189565b50506015805460ff60a01b191690555060019695505050505050565b6015546001600160a01b03163314610a0e5760405162461bcd60e51b81526004016107a190614695565b600b55565b600080546040516311f50c8560e01b8152600481018490526001600160a01b03909116906311f50c8590602401602060405180830381865afa158015610a5d573d6000803e3d6000fd5b505050506040513d601f19601f82011682018060405250810190610a8191906146e1565b92915050565b6060806000600c60009054906101000a90046001600160a01b031690506000816001600160a01b0316632d3358756040518163ffffffff1660e01b8152600401600060405180830381865afa158015610ae4573d6000803e3d6000fd5b505050506040513d6000823e601f3d908101601f19168201604052610b0c91908101906146fe565b80519091506000816001600160401b03811115610b2b57610b2b613d7e565b604051908082528060200260200182016040528015610b6457816020015b610b51613b82565b815260200190600190039081610b495790505b50905060005b82811015610be3576000848281518110610b8657610b8661478e565b60200260200101519050600080610b9c83611016565b91509150604051806060016040528083815260200182815260200184815250858581518110610bcd57610bcd61478e565b6020908102919091010152505050600101610b6a565b506000846001600160a01b0316637b0630056040518163ffffffff1660e01b8152600401600060405180830381865afa158015610c24573d6000803e3d6000fd5b505050506040513d6000823e601f3d908101601f19168201604052610c4c91908101906147a4565b90506000836001600160401b03811115610c6857610c68613d7e565b604051908082528060200260200182016040528015610ca157816020015b610c8e613b82565b815260200190600190039081610c865790505b50905060005b84811015610d4a576000838281518110610cc357610cc361478e565b602002602001015190508060000151838381518110610ce457610ce461478e565b602002602001015160000181815250508060200151838381518110610d0b57610d0b61478e565b602002602001015160200181815250508060600151838381518110610d3257610d3261478e565b60209081029190910101516040015250600101610ca7565b50919791965090945050505050565b6015546001600160a01b03163314610d835760405162461bcd60e51b81526004016107a190614695565b610d8d8282612369565b5050565b606060038054610da090614901565b80601f0160208091040260200160405190810160405280929190818152602001828054610dcc90614901565b8015610e195780601f10610dee57610100808354040283529160200191610e19565b820191906000526020600020905b815481529060010190602001808311610dfc57829003601f168201915b5050505050905090565b6000818152600f602090815260408083208584529091528120548190158015610e6657506000838152600f60209081526040808320878452909152902060010154155b15610e775750600090506001610e9b565b50506000818152600f60209081526040808320858452909152902080546001909101545b9250929050565b600c5460408051632d33587560e01b815290516000926001600160a01b03169183918391632d33587591600480830192869291908290030181865afa158015610eef573d6000803e3d6000fd5b505050506040513d6000823e601f3d908101601f19168201604052610f1791908101906146fe565b519392505050565b60ff8116600081815260106020908152604080832080546001600160a01b0319166001600160a01b038816908117909155905193845291927f8d4968a6ace762b6bad8887ba28d41b4673524e2af29f622792eb66e75378b45910160405180910390a250600192915050565b6001600160a01b038116610ff45760405162461bcd60e51b815260206004820152602a60248201527f496e76616c6964205a6b44565020696e746567726174696f6e20636f6e7472616044820152696374206164647265737360b01b60648201526084016107a1565b601580546001600160a01b0319166001600160a01b0392909216919091179055565b600a546000908152600f60209081526040808320848452909152812054819015801561105f5750600a546000908152600f60209081526040808320868452909152902060010154155b156110705750600092600192509050565b5050600a546000908152600f602090815260408083209383529290522080546001909101549091565b6015546001600160a01b031633146110c35760405162461bcd60e51b81526004016107a190614695565b6110cc816120cc565b50565b60606012805480602002602001604051908101604052809291908181526020016000905b828210156111665760008481526020908190206040805160e0810182526006860290920180546080840190815260018083015460a0860152600283015460c08601529084526003820154848601526004820154928401929092526005015460ff16606083015290835290920191016110f3565b50505050905090565b600080600080600c60009054906101000a90046001600160a01b031690506000816001600160a01b0316632d3358756040518163ffffffff1660e01b8152600401600060405180830381865afa1580156111cd573d6000803e3d6000fd5b505050506040513d6000823e601f3d908101601f191682016040526111f591908101906146fe565b905060005b815181101561125b5760008282815181106112175761121761478e565b6020026020010151905060008061122e838b610e23565b9150915061123e88888484612464565b9098509650611254925083915060019050614935565b90506111fa565b5060008061126b600e5489610e23565b9150915061127b86868484612464565b600554919750955086148015611292575084600654145b6112d25760405162461bcd60e51b81526020600482015260116024820152700acc2d8eacae640c8dedce840dac2e8c6d607b1b60448201526064016107a1565b506001979650505050505050565b6060806000600c60009054906101000a90046001600160a01b031690506000816001600160a01b0316632d3358756040518163ffffffff1660e01b8152600401600060405180830381865afa15801561133d573d6000803e3d6000fd5b505050506040513d6000823e601f3d908101601f1916820160405261136591908101906146fe565b80519091506000816001600160401b0381111561138457611384613d7e565b6040519080825280602002602001820160405280156113bd57816020015b6113aa613b82565b8152602001906001900390816113a25790505b50905060005b8281101561143c5760008482815181106113df576113df61478e565b602002602001015190506000806113f583611ff6565b915091506040518060600160405280838152602001828152602001848152508585815181106114265761142661478e565b60209081029190910101525050506001016113c3565b506000846001600160a01b0316637b0630056040518163ffffffff1660e01b8152600401600060405180830381865afa15801561147d573d6000803e3d6000fd5b505050506040513d6000823e601f3d908101601f191682016040526114a591908101906147a4565b90506000836001600160401b038111156114c1576114c1613d7e565b6040519080825280602002602001820160405280156114fa57816020015b6114e7613b82565b8152602001906001900390816114df5790505b50905060005b84811015610d4a57600083828151811061151c5761151c61478e565b60200260200101519050806000015183838151811061153d5761153d61478e565b6020026020010151600001818152505080602001518383815181106115645761156461478e565b60200260200101516020018181525050806060015183838151811061158b5761158b61478e565b60209081029190910101516040015250600101611500565b600081156115ca576115c5600083600080516020614c088339815191526125b2565b610a81565b600092915050565b601181815481106115e257600080fd5b60009182526020909120600390910201600181015460029091015490915060ff1682565b600080611612836125ed565b9094909350915050565b6012818154811061162c57600080fd5b60009182526020918290206040805160608101825260069093029091018054835260018101549383019390935260028301549082015260038201546004830154600590930154919350919060ff1684565b60008060008061168c86611606565b9150915060008061169c87611eba565b915091506000806116af86868686612464565b909b909a5098505050505050505050565b606060028054610da090614901565b600d546001546040516339cf0a3760e21b815260048101919091526000916001600160a01b0316908290829063e73c28dc90602401602060405180830381865afa158015611721573d6000803e3d6000fd5b505050506040513d601f19601f8201168201806040525081019061174591906145fb565b905080156117915760405162461bcd60e51b8152602060048201526019602482015278546f6b656e20697320696e20667265657a652073746174757360381b60448201526064016107a1565b6015805460ff60a01b1916600160a01b17905560608601516000906117b78a6004614948565b6117c290600161496b565b60ff16815181106117d5576117d561478e565b60200260200101519050600087606001518a60046117f39190614948565b60ff16815181106118065761180661478e565b6020026020010151905061181e8a8a8a8a8587612686565b6118288a896129f3565b611831826120cc565b6118558a8a8a8a856014600089815260200190815260200160002054886003612bb8565b61185f8787612369565b600b82905560405133907fe85c8c79cebe1b6656a265affa1c69c79539e5ae9a9c9229f5b5d8961978108090600090a250506015805460ff60a01b19169055506001979650505050505050565b6060806000600c60009054906101000a90046001600160a01b031690506000816001600160a01b0316632d3358756040518163ffffffff1660e01b8152600401600060405180830381865afa158015611909573d6000803e3d6000fd5b505050506040513d6000823e601f3d908101601f1916820160405261193191908101906146fe565b80519091506000816001600160401b0381111561195057611950613d7e565b60405190808252806020026020018201604052801561198957816020015b611976613b82565b81526020019060019003908161196e5790505b50905060005b82811015611a095760008482815181106119ab576119ab61478e565b602002602001015190506000806119c2838c610e23565b915091506040518060600160405280838152602001828152602001848152508585815181106119f3576119f361478e565b602090810291909101015250505060010161198f565b506000846001600160a01b0316637b0630056040518163ffffffff1660e01b8152600401600060405180830381865afa158015611a4a573d6000803e3d6000fd5b505050506040513d6000823e601f3d908101601f19168201604052611a7291908101906147a4565b90506000836001600160401b03811115611a8e57611a8e613d7e565b604051908082528060200260200182016040528015611ac757816020015b611ab4613b82565b815260200190600190039081611aac5790505b50905060005b84811015611b70576000838281518110611ae957611ae961478e565b602002602001015190508060000151838381518110611b0a57611b0a61478e565b602002602001015160000181815250508060200151838381518110611b3157611b3161478e565b602002602001015160200181815250508060600151838381518110611b5857611b5861478e565b60209081029190910101516040015250600101611acd565b5091989197509095505050505050565b600c54600954604051634647061560e11b81526000926001600160a01b03169183918391638c8e0c2a91611bb89133916004016145e2565b602060405180830381865afa158015611bd5573d6000803e3d6000fd5b505050506040513d601f19601f82011682018060405250810190611bf991906145fb565b905080611c185760405162461bcd60e51b81526004016107a19061461d565b6015805460ff60a01b1916600160a01b179055600080611c3788611606565b91509150600754600003611cf257611c556005546006548484612464565b60065560055560078054899190600090611c70908490614935565b90915550611c849050878383896001612189565b600a868155600b87905560008781526013602052604090819020805460ff19166001179055905490517feae287c62f1ff4911334dee03f631d5dded5284b1b03ea7bc1d6282916c7249f90611ce5908b908b90918252602082015260400190565b60405180910390a2611e5b565b85611cfc816120cc565b6040805160e0810182526080810185815260a0820185905260c082018b9052815260208082018c81528284018b81526001606085018181526012805492830181556000908152955180517fbb8a6a4669ba250d26cd7a459eca9d215f8307e33aebe50379bc5a3617ec3444600690940293840155948501517fbb8a6a4669ba250d26cd7a459eca9d215f8307e33aebe50379bc5a3617ec344583015593909501517fbb8a6a4669ba250d26cd7a459eca9d215f8307e33aebe50379bc5a3617ec344686015590517fbb8a6a4669ba250d26cd7a459eca9d215f8307e33aebe50379bc5a3617ec3447850155517fbb8a6a4669ba250d26cd7a459eca9d215f8307e33aebe50379bc5a3617ec3448840155517fbb8a6a4669ba250d26cd7a459eca9d215f8307e33aebe50379bc5a3617ec3449909201805460ff191660ff90931692909217909155600b829055611e59908990859085908590612189565b505b50506015805460ff60a01b1916905550600195945050505050565b6015546001600160a01b03163314611ea05760405162461bcd60e51b81526004016107a190614695565b611eb08888888888888888612bb8565b5050505050505050565b60008061161283612c38565b60606011805480602002602001604051908101604052809291908181526020016000905b82821015611166578382906000526020600020906003020160405180606001604052908160008201805480602002602001604051908101604052809291908181526020016000905b82821015611f825783829060005260206000209060030201604051806060016040529081600082015481526020016001820154815260200160028201548152505081526020019060010190611f32565b5050509082525060018281015460208084019190915260029093015460ff1660409092019190915291835292019101611eea565b6015546001600160a01b03163314611fe05760405162461bcd60e51b81526004016107a190614695565b611fee868686868686612686565b505050505050565b600b546000908152600f60209081526040808320848452909152812054819015801561203f5750600b546000908152600f60209081526040808320868452909152902060010154155b156120505750600092600192509050565b5050600b546000908152600f602090815260408083209383529290522080546001909101549091565b6000805b6011548110156120c357826011828154811061209b5761209b61478e565b906000526020600020906003020160010154036120bb5750600092915050565b60010161207d565b50600192915050565b600081815260146020526040812054900361210057600a54600082815260146020526040902055600b546121009082612cc4565b600a548111801561211d575060115415158061211d575060125415155b801561212b5750600b548114155b156110cc5761213b600b54612e0f565b600b54600a818155600091825260136020526040808320805460ff191660011790559054905190917fbf64e4e3e8f68bdb2522185b56362d5d6380d575d3d851bf1aef10deb046b1c891a250565b612194600e546131fb565b801561230957600c5460408051632d33587560e01b815290516001600160a01b03909216916000918391632d3358759160048082019286929091908290030181865afa1580156121e8573d6000803e3d6000fd5b505050506040513d6000823e601f3d908101601f1916820160405261221091908101906146fe565b905060005b81518110156123015760008282815181106122325761223261478e565b60200260200101519050612245816131fb565b8881146122a257600a80546000908152600f602081815260408084208685528252808420548b85528383528185208786528084528286209182559554855292825280842086855282529092206001908101549390925201556122f8565b600a546000908152600f602090815260408083208484529091528120805460019091015482916122d3918c8c612464565b60008a8152600f60209081526040808320888452909152902091825560019091015550505b50600101612215565b505050612362565b612312856131fb565b6000828152600f602090815260408083208884529091529020805460019091015461233f91908686612464565b6000848152600f602090815260408083208a845290915290206001810191909155555b5050505050565b60005b825181101561245f576040805160c081018252600080825260208201819052918101829052606081018290526080810182905260a08101919091526124568483815181106123bc576123bc61478e565b6020026020010151600260001b63af90f1c160e01b8686815181106123e3576123e361478e565b60200260200101516040516024016123fb919061402d565b60408051601f19818403018152918152602080830180516001600160e01b03166001600160e01b03199095169490941790935280518084018252600080825282518086018452818152835195860190935284529192876132d9565b5060010161236c565b505050565b60008085158015612473575084155b156124825750829050816125a9565b8315801561248e575084155b1561249d5750849050836125a9565b6000600080516020614c0883398151915285880990506000600080516020614c0883398151915285880990506000600080516020614c0883398151915280838509620292f80990506000600080516020614c0883398151915280898b09600080516020614c08833981519152898d09089050600061253e84600080516020614c0883398151915287620292fc09600080516020614c088339815191526125b2565b9050600080516020614c0883398151915261256a600080516020614c0883398151915285600108613358565b83099650600080516020614c0883398151915261259f61259a600186600080516020614c088339815191526125b2565b613358565b8209955050505050505b94509492505050565b6000838381116125c9576125c68382614935565b90505b82806125d7576125d7614984565b60006125e38684614682565b0895945050505050565b600080827f2491aba8d3a191a76e35bc47bd9afe6cc88fee14d607cbe779f2349047d5c1577f2e07297f8d3c3d7818dbddfd24c35583f9a9d4ed0cb0c1d1348dd8f7f99152d78360015b84156126795760018516156126585761265282828686612464565b90925090505b612662848461338b565b909450925061267260028661499a565b9450612637565b9097909650945050505050565b60028660ff1610156126d05760405162461bcd60e51b8152602060048201526013602482015272496e76616c69642076616c756520666f72206b60681b60448201526064016107a1565b8560ff1685511461271e5760405162461bcd60e51b81526020600482015260186024820152770aee4dedcce40c6dedadad2e8dacadce8e640d8cadccee8d60431b60448201526064016107a1565b8560ff1683511461276f5760405162461bcd60e51b815260206004820152601b60248201527a0aee4dedcce4086d0c2d2dc92c8e64082e4e4c2f240d8cadccee8d602b1b60448201526064016107a1565b61277a866005614948565b61278590600261496b565b60ff16846060015151146127e75760405162461bcd60e51b815260206004820152602360248201527f57726f6e67207075626c69635f7369676e616c206c656e67746820696e20707260448201526237b7b360e91b60648201526084016107a1565b60ff86166000908152601060205260409020546001600160a01b031661284f5760405162461bcd60e51b815260206004820152601c60248201527f5665726966696572206e6f742073657420666f7220676976656e206b0000000060448201526064016107a1565b600a5481116128b45760405162461bcd60e51b815260206004820152602b60248201527f426c6f636b4e756d62657220696e2050726f6f662077617320616c726561647960448201526a103334b730b634b9b2b21760a91b60648201526084016107a1565b600b548110156129115760405162461bcd60e51b815260206004820152602260248201527f496e76616c696420426c6f636b4e756d626572205573656420696e2050726f6f604482015261331760f11b60648201526084016107a1565b438111156129875760405162461bcd60e51b815260206004820152603e60248201527f426c6f636b4e756d626572205573656420696e2050726f6f662069732062696760448201527f676572207468616e2043757272656e7420426c6f636b204e756d6265722e000060648201526084016107a1565b61299082612079565b611fee5760405162461bcd60e51b815260206004820152602e60248201527f4e756c6c696669657220616c7265616479207573656420696e2070656e64696e60448201526d33903a3930b739b0b1ba34b7b71760911b60648201526084016107a1565b8160ff16600203612b015760ff8216600090815260106020908152604091829020548351918401519284015160608501516001600160a01b0390921693638cbac0fa9392909190612a43906133a5565b6040518563ffffffff1660e01b8152600401612a629493929190614a13565b602060405180830381865afa158015612a7f573d6000803e3d6000fd5b505050506040513d601f19601f82011682018060405250810190612aa391906145fb565b610d8d5760405162461bcd60e51b815260206004820152602960248201527f76657269667950726f6f662072657475726e65642066616c73653a20496e76616044820152683634b210383937b7b360b91b60648201526084016107a1565b8160ff16600603612b705760ff8216600090815260106020908152604091829020548351918401519284015160608501516001600160a01b0390921693633cc08b249392909190612b519061345b565b6040518563ffffffff1660e01b8152600401612a629493929190614a70565b60405162461bcd60e51b815260206004820181905260248201527f546861742076616c7565206f66206b206973206e6f7420737570706f7274656460448201526064016107a1565b600080612bc4856118ac565b6011805460018101825560009190915291935091506003027f31ecc21a745e3968a04e9570e4425bc18fa8019c68028196b546d1669c200c6801612c0f8b8b8b8b8787878c8c61350b565b600181019690965550506002909301805460ff191660ff90941693909317909255505050505050565b600080827f27fdb9b0a730e880f15f1f4236d04024320f74fd38c32f28c99f8f4e49dbaa3a7f29ad8b4108b86148860f8720a72465951e599ce133c70cebb3e2273b2d4484248360015b8415612679576001851615612ca357612c9d82828686612464565b90925090505b612cad848461338b565b9094509250612cbd60028661499a565b9450612c82565b600c5460408051632d33587560e01b815290516001600160a01b03909216916000918391632d3358759160048082019286929091908290030181865afa158015612d12573d6000803e3d6000fd5b505050506040513d6000823e601f3d908101601f19168201604052612d3a91908101906146fe565b905060005b8151811015612db0576000828281518110612d5c57612d5c61478e565b60200260200101519050612d6f816131fb565b6000868152600f60208181526040808420858552825280842080548a8652938352818520958552949091529091209081556001918201549082015501612d3f565b50612dbc600e546131fb565b50506000918252600f60208181526040808520600e805480885282855283882054968852948452828720948752848452828720959095559354855292815282842060019081015492909152919092200155565b612e1b60116000613ba3565b6012546000906001600160401b03811115612e3857612e38613d7e565b604051908082528060200260200182016040528015612e61578160200160208202803683370190505b5090506000805b60125481101561303757600060128281548110612e8757612e8761478e565b60009182526020918290206040805160e0810182526006909302909101805460808401908152600182015460a0850152600282015460c08501528352600381015493830193909352600483015490820181905260059092015460ff1660608201529150851061302e5760055460065482518051602090910151612f0c93929190612464565b600655600555606081015160ff16600103612f8f57806020015160076000828254612f379190614935565b9091555050600a546020820151825160409081015190517feae287c62f1ff4911334dee03f631d5dded5284b1b03ea7bc1d6282916c7249f92612f8292908252602082015260400190565b60405180910390a2613002565b806060015160ff1660020361300257806020015160076000828254612fb49190614682565b925050819055508060000151604001517f262a9a1794440b6af993000f5805d7f51b5a19d4c32fcb10a1c5216beb0616f48260200151604051612ff991815260200190565b60405180910390a25b818484815181106130155761301561478e565b60209081029190910101528261302a81614ac5565b9350505b50600101612e68565b5060005b818110156130ba5760008382815181106130575761305761478e565b60200260200101519050601281815481106130745761307461478e565b600091825260208220600690910201818155600180820183905560028201839055600382018390556004820192909255600501805460ff1916905591909101905061303b565b506012546000805b8281101561319657601281815481106130dd576130dd61478e565b90600052602060002090600602016003015460001461318e57601281815481106131095761310961478e565b90600052602060002090600602016012838154811061312a5761312a61478e565b600091825260209091208254600690920201908155600180830154908201556002808301549082015560038083015490820155600480830154908201556005918201549101805460ff191660ff9092169190911790558161318a81614ac5565b9250505b6001016130c2565b50805b82811015611fee5760128054806131b2576131b2614ade565b600082815260208120600660001990930192830201818155600181810183905560028201839055600382018390556004820192909255600501805460ff19169055915501613199565b600a546000908152600f602090815260408083208484529091529020541580156132425750600a546000908152600f60209081526040808320848452909152902060010154155b1561326a57600a546000908152600f6020908152604080832084845290915290206001908101555b600b546000908152600f602090815260408083208484529091529020541580156132b15750600b546000908152600f60209081526040808320848452909152902060010154155b156110cc57600b546000908152600f6020908152604080832093835292905220600190810155565b600054604051631075c5d160e21b81526001600160a01b03909116906341d7174490613315908a908a908a908a908a908a908a90600401614af4565b6020604051808303816000875af1158015613334573d6000803e3d6000fd5b505050506040513d601f19601f82011682018060405250810190611eb09190614bd7565b6000610a81826133776002600080516020614c08833981519152614682565b600080516020614c088339815191526138c0565b60008061339a84848686612464565b915091509250929050565b6133ad613bc4565b8151600c146134105760405162461bcd60e51b815260206004820152602960248201527f496e707574206172726179206d75737420686176652065786163746c7920313260448201526820656c656d656e747360b81b60648201526084016107a1565b60005b600c8110156134555782818151811061342e5761342e61478e565b60200260200101518282600c81106134485761344861478e565b6020020152600101613413565b50919050565b613463613be3565b81516020146134c65760405162461bcd60e51b815260206004820152602960248201527f496e707574206172726179206d75737420686176652065786163746c7920333260448201526820656c656d656e747360b81b60648201526084016107a1565b60005b6020811015613455578281815181106134e4576134e461478e565b60200260200101518282602081106134fe576134fe61478e565b60200201526001016134c9565b600086516001600160401b0381111561352657613526613d7e565b60405190808252806020026020018201604052801561354f578160200160208202803683370190505b509050600087516001600160401b0381111561356d5761356d613d7e565b604051908082528060200260200182016040528015613596578160200160208202803683370190505b50905060005b8851811015613715576135c8888a83815181106135bb576135bb61478e565b6020026020010151613904565b8382815181106135da576135da61478e565b6020026020010181815250506135fc878a83815181106135bb576135bb61478e565b82828151811061360e5761360e61478e565b602002602001018181525050875183828151811061362e5761362e61478e565b6020026020010151106136925760405162461bcd60e51b815260206004820152602660248201527f4d61746368696e672062616c616e636520666f7220636861696e4964206e6f7460448201526508199bdd5b9960d21b60648201526084016107a1565b86518282815181106136a6576136a661478e565b60200260200101511061370d5760405162461bcd60e51b815260206004820152602960248201527f4d61746368696e67207075626c6963206b657920666f7220636861696e4964206044820152681b9bdd08199bdd5b9960ba1b60648201526084016107a1565b60010161359c565b5060005b8a518110156138b25760008382815181106137365761373661478e565b6020026020010151905060008383815181106137545761375461478e565b6020026020010151905061379d838f8e8d86815181106137765761377661478e565b60200260200101518d86815181106137905761379061478e565b6020026020010151613998565b8760000160405180606001604052808f86815181106137be576137be61478e565b60200260200101516000015181526020018f86815181106137e1576137e161478e565b60200260200101516020015181526020018d86815181106138045761380461478e565b60209081029190910181015190915282546001818101855560009485529382902083516003909202019081559082015192810192909255604001516002909101558a516138a8908c908590811061385d5761385d61478e565b60200260200101518e85815181106138775761387761478e565b6020026020010151600001518f86815181106138955761389561478e565b6020026020010151602001518a8a613b42565b5050600101613719565b505050505050505050505050565b600060405160208152602080820152602060408201528460608201528360808201528260a082015260208160c08360055afa80801561028157505051949350505050565b6000805b835181101561394457828482815181106139245761392461478e565b6020026020010151604001510361393c579050610a81565b600101613908565b5060405162461bcd60e51b815260206004820152602260248201527f436861696e204944206e6f7420666f756e6420696e20706f696e747320617272604482015261617960f01b60648201526084016107a1565b805160608401516139aa876002614bf0565b815181106139ba576139ba61478e565b6020026020010151148015613a045750602081015160608401516139df876002614bf0565b6139ea906001614935565b815181106139fa576139fa61478e565b6020026020010151145b613a505760405162461bcd60e51b815260206004820152601c60248201527f496e76616c6964207075626c6963207369676e616c20666f7220706b0000000060448201526064016107a1565b81516060840151613a62866002614948565b60ff16613a70886002614bf0565b613a7a9190614935565b81518110613a8a57613a8a61478e565b6020026020010151148015613aec575060208201516060840151613aaf866002614948565b613aba90600161496b565b60ff16613ac8886002614bf0565b613ad29190614935565b81518110613ae257613ae261478e565b6020026020010151145b6123625760405162461bcd60e51b815260206004820152602160248201527f496e76616c6964207075626c6963207369676e616c20666f722062616c616e636044820152606560f81b60648201526084016107a1565b613b50858585856000612189565b8060ff1660041480613b6557508060ff166005145b1561236257612362600e54613b79866115a3565b85856000612189565b60405180606001604052806000815260200160008152602001600081525090565b50805460008255600302906000526020600020908101906110cc9190613c02565b604051806101800160405280600c906020820280368337509192915050565b6040518061040001604052806020906020820280368337509192915050565b80821115613c32576000613c168282613c36565b506000600182015560028101805460ff19169055600301613c02565b5090565b50805460008255600302906000526020600020908101906110cc91905b80821115613c32576000808255600182018190556002820155600301613c53565b600080600060608486031215613c8957600080fd5b505081359360208301359350604090920135919050565b600060208284031215613cb257600080fd5b5035919050565b8051825260208082015190830152604090810151910152565b60008151808452602080850194506020840160005b83811015613d0d57613cfa878351613cb9565b6060969096019590820190600101613ce7565b509495945050505050565b604081526000613d2b6040830185613cd2565b8281036020840152613d3d8185613cd2565b95945050505050565b803560ff81168114613d5757600080fd5b919050565b600060208284031215613d6e57600080fd5b613d7782613d46565b9392505050565b634e487b7160e01b600052604160045260246000fd5b604080519081016001600160401b0381118282101715613db657613db6613d7e565b60405290565b604051608081016001600160401b0381118282101715613db657613db6613d7e565b604051601f8201601f191681016001600160401b0381118282101715613e0657613e06613d7e565b604052919050565b60006001600160401b03821115613e2757613e27613d7e565b5060051b60200190565b600082601f830112613e4257600080fd5b81356020613e57613e5283613e0e565b613dde565b8083825260208201915060208460051b870101935086841115613e7957600080fd5b602086015b84811015613e955780358352918301918301613e7e565b509695505050505050565b6000601f83601f840112613eb357600080fd5b82356020613ec3613e5283613e0e565b82815260059290921b85018101918181019087841115613ee257600080fd5b8287015b84811015613f785780356001600160401b0380821115613f065760008081fd5b818a0191508a603f830112613f1b5760008081fd5b85820135604082821115613f3157613f31613d7e565b613f42828b01601f19168901613dde565b92508183528c81838601011115613f595760008081fd5b8181850189850137506000908201870152845250918301918301613ee6565b50979650505050505050565b60008060408385031215613f9757600080fd5b82356001600160401b0380821115613fae57600080fd5b613fba86838701613e31565b93506020850135915080821115613fd057600080fd5b50613fdd85828601613ea0565b9150509250929050565b6000815180845260005b8181101561400d57602081850181015186830182015201613ff1565b506000602082860101526020601f19601f83011685010191505092915050565b602081526000613d776020830184613fe7565b6000806040838503121561405357600080fd5b50508035926020909101359150565b6001600160a01b03811681146110cc57600080fd5b6000806040838503121561408a57600080fd5b823561409581614062565b91506140a360208401613d46565b90509250929050565b6000602082840312156140be57600080fd5b8135613d7781614062565b602080825282518282018190526000919060409081850190868401855b8281101561412d5781516140fb858251613cb9565b80870151606086810191909152868201516080870152015160ff1660a085015260c090930192908501906001016140e6565b5091979650505050505050565b60c081016141488287613cb9565b84606083015283608083015260ff831660a083015295945050505050565b600082601f83011261417757600080fd5b81356020614187613e5283613e0e565b82815260069290921b840181019181810190868411156141a657600080fd5b8286015b84811015613e9557604081890312156141c35760008081fd5b6141cb613d94565b8135815284820135858201528352918301916040016141aa565b600082601f8301126141f657600080fd5b6141fe613d94565b80604084018581111561421057600080fd5b845b8181101561422a578035845260209384019301614212565b509095945050505050565b6000610120828403121561424857600080fd5b614250613dbc565b905061425c83836141e5565b8152604083605f84011261426f57600080fd5b614277613d94565b8060c085018681111561428957600080fd5b604086015b818110156142af576142a088826141e5565b8452602090930192840161428e565b508160208601526142c087826141e5565b6040860152505050506101008201356001600160401b038111156142e357600080fd5b6142ef84828501613e31565b60608301525092915050565b600080600080600060a0868803121561431357600080fd5b61431c86613d46565b945060208601356001600160401b038082111561433857600080fd5b61434489838a01614166565b9550604088013591508082111561435a57600080fd5b61436689838a01614235565b9450606088013591508082111561437c57600080fd5b61438889838a01613e31565b9350608088013591508082111561439e57600080fd5b506143ab88828901613ea0565b9150509295509295909350565b600080600080600080600080610100898b0312156143d557600080fd5b6143de89613d46565b975060208901356001600160401b03808211156143fa57600080fd5b6144068c838d01614166565b985060408b013591508082111561441c57600080fd5b6144288c838d01614235565b975060608b013591508082111561443e57600080fd5b5061444b8b828c01613e31565b9550506080890135935060a0890135925060c0890135915061446f60e08a01613d46565b90509295985092959890939650565b600060208083018184528085518083526040925060408601915060408160051b8701018488016000805b8481101561452957898403603f19018652825180516060808752815181880181905290918b0190859060808901905b808310156144fe576144ea828551613cb9565b928d019260019290920191908401906144d7565b50848d0151898e0152938b015160ff16978b01979097525050958801959350918701916001016144a8565b50919998505050505050505050565b60008060008060008060c0878903121561455157600080fd5b61455a87613d46565b955060208701356001600160401b038082111561457657600080fd5b6145828a838b01614166565b9650604089013591508082111561459857600080fd5b6145a48a838b01614235565b955060608901359150808211156145ba57600080fd5b506145c789828a01613e31565b9350506080870135915060a087013590509295509295509295565b6001600160a01b03929092168252602082015260400190565b60006020828403121561460d57600080fd5b81518015158114613d7757600080fd5b6020808252602f908201527f4f6e6c7920497373756572204163636f756e7473206d617920706572666f726d60408201526e103a3437b9b29030b1ba34b7b7399760891b606082015260800190565b634e487b7160e01b600052601160045260246000fd5b81810381811115610a8157610a8161466c565b6020808252602c908201527f43616c6c6572206973206e6f7420746865205a6b44565020696e74656772617460408201526b1a5bdb8818dbdb9d1c9858dd60a21b606082015260800190565b6000602082840312156146f357600080fd5b8151613d7781614062565b6000602080838503121561471157600080fd5b82516001600160401b0381111561472757600080fd5b8301601f8101851361473857600080fd5b8051614746613e5282613e0e565b81815260059190911b8201830190838101908783111561476557600080fd5b928401925b828410156147835783518252928401929084019061476a565b979650505050505050565b634e487b7160e01b600052603260045260246000fd5b600060208083850312156147b757600080fd5b82516001600160401b03808211156147ce57600080fd5b818501915085601f8301126147e257600080fd5b81516147f0613e5282613e0e565b81815260059190911b8301840190848101908883111561480f57600080fd5b8585015b838110156148f45780518581111561482a57600080fd5b86016080818c03601f1901121561484057600080fd5b614848613dbc565b88820151815260408201518982015260608201518781111561486957600080fd5b8201603f81018d1361487a57600080fd5b8981015161488a613e5282613e0e565b81815260059190911b8201604001908b8101908f8311156148aa57600080fd5b6040840193505b828410156148d35783516148c481614062565b8252928c0192908c01906148b1565b60408501525050506080919091015160608201528352918601918601614813565b5098975050505050505050565b600181811c9082168061491557607f821691505b60208210810361345557634e487b7160e01b600052602260045260246000fd5b80820180821115610a8157610a8161466c565b60ff81811683821602908116908181146149645761496461466c565b5092915050565b60ff8181168382160190811115610a8157610a8161466c565b634e487b7160e01b600052601260045260246000fd5b6000826149b757634e487b7160e01b600052601260045260246000fd5b500490565b8060005b60028110156149df5781518452602093840193909101906001016149c0565b50505050565b8060005b60028110156149df576149fd8483516149bc565b60409390930192602091909101906001016149e9565b6102808101614a2282876149bc565b614a2f60408301866149e5565b614a3c60c08301856149bc565b61010082018360005b600c811015614a64578151835260209283019290910190600101614a45565b50505095945050505050565b6105008101614a7f82876149bc565b614a8c60408301866149e5565b614a9960c08301856149bc565b61010082018360005b6020808210614ab15750614a64565b825184529283019290910190600101614aa2565b600060018201614ad757614ad761466c565b5060010190565b634e487b7160e01b600052603160045260246000fd5b6000610180898352886020840152806040840152614b1481840189613fe7565b90508281036060840152614b288188613fe7565b90508281036080840152614b3c8187613fe7565b905082810360a0840152614b508186613fe7565b915050825160058110614b7357634e487b7160e01b600052602160045260246000fd5b60c0830152602083015160e083015260408301516001600160a01b039081166101008401526060840151166101208301526080830151614bbf6101408401826001600160a01b03169052565b5060a083015161016083015298975050505050505050565b600060208284031215614be957600080fd5b5051919050565b8082028115828204841417610a8157610a8161466c56fe30644e72e131a029b85045b68181585d2833e84879b9709143e1f593f0000001a2646970667358221220f3abed8f45f9986e013b4f69086863b8384880a9eec8b5addca7789162076ed064736f6c63430008180033",
  "linkReferences": {},
  "deployedLinkReferences": {}
}