{
  "_format": "hh-sol-artifact-1",
  "contractName": "EnygmaZkDvpIntegration",
  "sourceName": "src/rayls-protocol/Enygma/EnygmaZkDvpIntegration.sol",
  "abi": [
    {
      "inputs": [
        {
          "internalType": "address",
          "name": "enygmaV1Address",
          "type": "address"
        }
      ],
      "stateMutability": "nonpayable",
      "type": "constructor"
    },
    {
      "anonymous": false,
      "inputs": [
        {
          "indexed": true,
          "internalType": "uint256",
          "name": "commitment",
          "type": "uint256"
        },
        {
          "indexed": false,
          "internalType": "address",
          "name": "enygmaContractAddress",
          "type": "address"
        }
      ],
      "name": "DepositToZkDvpSuccesful",
      "type": "event"
    },
    {
      "anonymous": false,
      "inputs": [
        {
          "indexed": true,
          "internalType": "address",
          "name": "verifierAddress",
          "type": "address"
        },
        {
          "indexed": false,
          "internalType": "uint8",
          "name": "k",
          "type": "uint8"
        }
      ],
      "name": "VerifierDepositToZkDvpRegistered",
      "type": "event"
    },
    {
      "anonymous": false,
      "inputs": [
        {
          "indexed": true,
          "internalType": "address",
          "name": "verifierAddress",
          "type": "address"
        },
        {
          "indexed": false,
          "internalType": "uint8",
          "name": "k",
          "type": "uint8"
        }
      ],
      "name": "VerifierWithdrawFromZkDvpRegistered",
      "type": "event"
    },
    {
      "anonymous": false,
      "inputs": [
        {
          "components": [
            {
              "components": [
                {
                  "components": [
                    {
                      "internalType": "uint256",
                      "name": "x",
                      "type": "uint256"
                    },
                    {
                      "internalType": "uint256",
                      "name": "y",
                      "type": "uint256"
                    }
                  ],
                  "internalType": "struct IZkDvp.G1Point",
                  "name": "a",
                  "type": "tuple"
                },
                {
                  "components": [
                    {
                      "internalType": "uint256[2]",
                      "name": "x",
                      "type": "uint256[2]"
                    },
                    {
                      "internalType": "uint256[2]",
                      "name": "y",
                      "type": "uint256[2]"
                    }
                  ],
                  "internalType": "struct IZkDvp.G2Point",
                  "name": "b",
                  "type": "tuple"
                },
                {
                  "components": [
                    {
                      "internalType": "uint256",
                      "name": "x",
                      "type": "uint256"
                    },
                    {
                      "internalType": "uint256",
                      "name": "y",
                      "type": "uint256"
                    }
                  ],
                  "internalType": "struct IZkDvp.G1Point",
                  "name": "c",
                  "type": "tuple"
                }
              ],
              "internalType": "struct IZkDvp.SnarkProof",
              "name": "proof",
              "type": "tuple"
            },
            {
              "internalType": "uint256[]",
              "name": "treeNumbers",
              "type": "uint256[]"
            },
            {
              "internalType": "uint256",
              "name": "message",
              "type": "uint256"
            },
            {
              "internalType": "uint256[]",
              "name": "merkleRoots",
              "type": "uint256[]"
            },
            {
              "internalType": "uint256[]",
              "name": "commitments",
              "type": "uint256[]"
            },
            {
              "internalType": "uint256[]",
              "name": "nullifiers",
              "type": "uint256[]"
            }
          ],
          "indexed": false,
          "internalType": "struct IZkDvp.JoinSplitTransaction",
          "name": "transaction",
          "type": "tuple"
        },
        {
          "indexed": false,
          "internalType": "address",
          "name": "enygmaContractAddress",
          "type": "address"
        }
      ],
      "name": "WithdrawFromZkDvpSuccesful",
      "type": "event"
    },
    {
      "inputs": [
        {
          "internalType": "address",
          "name": "depositToZkDvpVerifier",
          "type": "address"
        },
        {
          "internalType": "uint8",
          "name": "k",
          "type": "uint8"
        }
      ],
      "name": "addDepositToZkDvpVerifier",
      "outputs": [
        {
          "internalType": "bool",
          "name": "",
          "type": "bool"
        }
      ],
      "stateMutability": "nonpayable",
      "type": "function"
    },
    {
      "inputs": [
        {
          "internalType": "address",
          "name": "withdrawFromZkDvpVerifier",
          "type": "address"
        },
        {
          "internalType": "uint8",
          "name": "k",
          "type": "uint8"
        }
      ],
      "name": "addWithdrawFromZkDvpVerifier",
      "outputs": [
        {
          "internalType": "bool",
          "name": "",
          "type": "bool"
        }
      ],
      "stateMutability": "nonpayable",
      "type": "function"
    },
    {
      "inputs": [
        {
          "internalType": "address",
          "name": "zkdvpAddress",
          "type": "address"
        }
      ],
      "name": "addZkDvp",
      "outputs": [
        {
          "internalType": "bool",
          "name": "",
          "type": "bool"
        }
      ],
      "stateMutability": "nonpayable",
      "type": "function"
    },
    {
      "inputs": [
        {
          "components": [
            {
              "components": [
                {
                  "components": [
                    {
                      "internalType": "uint256",
                      "name": "x",
                      "type": "uint256"
                    },
                    {
                      "internalType": "uint256",
                      "name": "y",
                      "type": "uint256"
                    }
                  ],
                  "internalType": "struct IZkDvp.G1Point",
                  "name": "a",
                  "type": "tuple"
                },
                {
                  "components": [
                    {
                      "internalType": "uint256[2]",
                      "name": "x",
                      "type": "uint256[2]"
                    },
                    {
                      "internalType": "uint256[2]",
                      "name": "y",
                      "type": "uint256[2]"
                    }
                  ],
                  "internalType": "struct IZkDvp.G2Point",
                  "name": "b",
                  "type": "tuple"
                },
                {
                  "components": [
                    {
                      "internalType": "uint256",
                      "name": "x",
                      "type": "uint256"
                    },
                    {
                      "internalType": "uint256",
                      "name": "y",
                      "type": "uint256"
                    }
                  ],
                  "internalType": "struct IZkDvp.G1Point",
                  "name": "c",
                  "type": "tuple"
                }
              ],
              "internalType": "struct IZkDvp.SnarkProof",
              "name": "proof",
              "type": "tuple"
            },
            {
              "internalType": "uint256[]",
              "name": "treeNumbers",
              "type": "uint256[]"
            },
            {
              "internalType": "uint256",
              "name": "message",
              "type": "uint256"
            },
            {
              "internalType": "uint256[]",
              "name": "merkleRoots",
              "type": "uint256[]"
            },
            {
              "internalType": "uint256[]",
              "name": "commitments",
              "type": "uint256[]"
            },
            {
              "internalType": "uint256[]",
              "name": "nullifiers",
              "type": "uint256[]"
            }
          ],
          "internalType": "struct IZkDvp.JoinSplitTransaction",
          "name": "transaction",
          "type": "tuple"
        }
      ],
      "name": "consolidateFunds",
      "outputs": [
        {
          "internalType": "bool",
          "name": "",
          "type": "bool"
        }
      ],
      "stateMutability": "nonpayable",
      "type": "function"
    },
    {
      "inputs": [
        {
          "internalType": "uint8",
          "name": "k",
          "type": "uint8"
        },
        {
          "components": [
            {
              "internalType": "uint256",
              "name": "c1",
              "type": "uint256"
            },
            {
              "internalType": "uint256",
              "name": "c2",
              "type": "uint256"
            }
          ],
          "internalType": "struct IEnygmaV1.Point[]",
          "name": "commitments",
          "type": "tuple[]"
        },
        {
          "components": [
            {
              "internalType": "uint256[2]",
              "name": "pi_a",
              "type": "uint256[2]"
            },
            {
              "internalType": "uint256[2][2]",
              "name": "pi_b",
              "type": "uint256[2][2]"
            },
            {
              "internalType": "uint256[2]",
              "name": "pi_c",
              "type": "uint256[2]"
            },
            {
              "internalType": "uint256[]",
              "name": "public_signal",
              "type": "uint256[]"
            }
          ],
          "internalType": "struct IEnygmaZkDvpIntegration.WithdrawOrDepositProof",
          "name": "proof",
          "type": "tuple"
        },
        {
          "internalType": "uint256[]",
          "name": "chainIds",
          "type": "uint256[]"
        },
        {
          "internalType": "bytes[]",
          "name": "encryptedMessages",
          "type": "bytes[]"
        }
      ],
      "name": "depositToZkDvp",
      "outputs": [
        {
          "internalType": "bool",
          "name": "",
          "type": "bool"
        }
      ],
      "stateMutability": "nonpayable",
      "type": "function"
    },
    {
      "inputs": [
        {
          "internalType": "uint256",
          "name": "",
          "type": "uint256"
        }
      ],
      "name": "depositToZkDvpVerifiers",
      "outputs": [
        {
          "internalType": "address",
          "name": "",
          "type": "address"
        }
      ],
      "stateMutability": "view",
      "type": "function"
    },
    {
      "inputs": [
        {
          "internalType": "uint8",
          "name": "k",
          "type": "uint8"
        }
      ],
      "name": "getDepositToZkDvpVerifierAddress",
      "outputs": [
        {
          "internalType": "address",
          "name": "",
          "type": "address"
        }
      ],
      "stateMutability": "view",
      "type": "function"
    },
    {
      "inputs": [
        {
          "internalType": "uint8",
          "name": "k",
          "type": "uint8"
        }
      ],
      "name": "getWithdrawFromZkDvpVerifierAddress",
      "outputs": [
        {
          "internalType": "address",
          "name": "",
          "type": "address"
        }
      ],
      "stateMutability": "view",
      "type": "function"
    },
    {
      "inputs": [],
      "name": "getZkdvpAddress",
      "outputs": [
        {
          "internalType": "address",
          "name": "",
          "type": "address"
        }
      ],
      "stateMutability": "view",
      "type": "function"
    },
    {
      "inputs": [
        {
          "internalType": "uint8",
          "name": "k",
          "type": "uint8"
        },
        {
          "components": [
            {
              "internalType": "uint256",
              "name": "c1",
              "type": "uint256"
            },
            {
              "internalType": "uint256",
              "name": "c2",
              "type": "uint256"
            }
          ],
          "internalType": "struct IEnygmaV1.Point[]",
          "name": "commitments",
          "type": "tuple[]"
        },
        {
          "components": [
            {
              "internalType": "uint256[2]",
              "name": "pi_a",
              "type": "uint256[2]"
            },
            {
              "internalType": "uint256[2][2]",
              "name": "pi_b",
              "type": "uint256[2][2]"
            },
            {
              "internalType": "uint256[2]",
              "name": "pi_c",
              "type": "uint256[2]"
            },
            {
              "internalType": "uint256[]",
              "name": "public_signal",
              "type": "uint256[]"
            }
          ],
          "internalType": "struct IEnygmaZkDvpIntegration.WithdrawOrDepositProof",
          "name": "proof",
          "type": "tuple"
        },
        {
          "internalType": "uint256[]",
          "name": "chainIds",
          "type": "uint256[]"
        },
        {
          "internalType": "bytes[]",
          "name": "encryptedMessages",
          "type": "bytes[]"
        },
        {
          "components": [
            {
              "components": [
                {
                  "components": [
                    {
                      "internalType": "uint256",
                      "name": "x",
                      "type": "uint256"
                    },
                    {
                      "internalType": "uint256",
                      "name": "y",
                      "type": "uint256"
                    }
                  ],
                  "internalType": "struct IZkDvp.G1Point",
                  "name": "a",
                  "type": "tuple"
                },
                {
                  "components": [
                    {
                      "internalType": "uint256[2]",
                      "name": "x",
                      "type": "uint256[2]"
                    },
                    {
                      "internalType": "uint256[2]",
                      "name": "y",
                      "type": "uint256[2]"
                    }
                  ],
                  "internalType": "struct IZkDvp.G2Point",
                  "name": "b",
                  "type": "tuple"
                },
                {
                  "components": [
                    {
                      "internalType": "uint256",
                      "name": "x",
                      "type": "uint256"
                    },
                    {
                      "internalType": "uint256",
                      "name": "y",
                      "type": "uint256"
                    }
                  ],
                  "internalType": "struct IZkDvp.G1Point",
                  "name": "c",
                  "type": "tuple"
                }
              ],
              "internalType": "struct IZkDvp.SnarkProof",
              "name": "proof",
              "type": "tuple"
            },
            {
              "internalType": "uint256[]",
              "name": "treeNumbers",
              "type": "uint256[]"
            },
            {
              "internalType": "uint256",
              "name": "message",
              "type": "uint256"
            },
            {
              "internalType": "uint256[]",
              "name": "merkleRoots",
              "type": "uint256[]"
            },
            {
              "internalType": "uint256[]",
              "name": "commitments",
              "type": "uint256[]"
            },
            {
              "internalType": "uint256[]",
              "name": "nullifiers",
              "type": "uint256[]"
            }
          ],
          "internalType": "struct IZkDvp.JoinSplitTransaction",
          "name": "transaction",
          "type": "tuple"
        }
      ],
      "name": "withdrawFromZkDvp",
      "outputs": [
        {
          "internalType": "bool",
          "name": "",
          "type": "bool"
        }
      ],
      "stateMutability": "nonpayable",
      "type": "function"
    },
    {
      "inputs": [
        {
          "internalType": "uint256",
          "name": "",
          "type": "uint256"
        }
      ],
      "name": "withdrawFromZkDvpVerifiers",
      "outputs": [
        {
          "internalType": "address",
          "name": "",
          "type": "address"
        }
      ],
      "stateMutability": "view",
      "type": "function"
    }
  ],
  "bytecode": "0x60806040523480156200001157600080fd5b506040516200262f3803806200262f833981016040819052620000349162000064565b600280546001600160a01b039092166001600160a01b031992831681179091556000805490921617905562000096565b6000602082840312156200007757600080fd5b81516001600160a01b03811681146200008f57600080fd5b9392505050565b61258980620000a66000396000f3fe608060405234801561001057600080fd5b50600436106100995760003560e01c806331aa1b831461009e578063362bbfdc146100dd57806372ad4704146101065780637843783d146101325780637f2d58e214610155578063b49eb41614610168578063bab8790514610179578063bb69ab7c1461018c578063dfcde7301461019f578063effa4d0d146101b2578063f8344434146101de575b600080fd5b6100c76100ac3660046116c1565b6004602052600090815260409020546001600160a01b031681565b6040516100d491906116da565b60405180910390f35b6100c76100eb3660046116c1565b6003602052600090815260409020546001600160a01b031681565b6100c7610114366004611704565b60ff166000908152600460205260409020546001600160a01b031690565b61014561014036600461173e565b61020f565b60405190151581526020016100d4565b610145610163366004611cc8565b61027d565b6001546001600160a01b03166100c7565b610145610187366004611da8565b610558565b61014561019a36600461173e565b61085a565b6101456101ad366004611e65565b6108ba565b6100c76101c0366004611704565b60ff166000908152600360205260409020546001600160a01b031690565b6101456101ec366004611ea1565b600180546001600160a01b0319166001600160a01b039290921691909117815590565b60ff8116600081815260036020908152604080832080546001600160a01b0319166001600160a01b038816908117909155905193845291927fb646c59fa1a271bd16c9802e4a8a379c151938f2378b4668286f9f662a9781d591015b60405180910390a25060015b92915050565b60008054604080516308d63e0360e01b8152905183926001600160a01b0316916308d63e039160048083019260209291908290030181865afa1580156102c7573d6000803e3d6000fd5b505050506040513d601f19601f820116820180604052508101906102eb9190611ebe565b6000805460408051635f997c5b60e01b8152905193945084936001600160a01b0390921691635f997c5b916004808201926020929091908290030181865afa15801561033b573d6000803e3d6000fd5b505050506040513d601f19601f8201168201806040525081019061035f9190611edb565b6040516339cf0a3760e21b8152600481018290529091506000906001600160a01b0384169063e73c28dc90602401602060405180830381865afa1580156103aa573d6000803e3d6000fd5b505050506040513d601f19601f820116820180604052508101906103ce9190611f04565b905080156103f75760405162461bcd60e51b81526004016103ee90611f1f565b60405180910390fd5b6005805460ff1916600117905560608901516000906104178d6004611f68565b610422906002611f8b565b60ff168151811061043557610435611fa4565b6020026020010151905060008a606001518d60046104539190611f68565b61045e906001611f8b565b60ff168151811061047157610471611fa4565b602002602001015190506104898d8d8d8d858761093d565b600061049489610960565b9050806104ee5760405162461bcd60e51b815260206004820152602260248201527f5a6b445650207769746864726177616c2070726f63657373696e67206661696c604482015261195960f21b60648201526084016103ee565b6105018e8e8e8e8e878960056001610997565b7fb56925de4473993dbd4130af823a158e9ba5254b9b2014899e8478eba8e383fe89336040516105329291906120ea565b60405180910390a150506005805460ff191690555060019b9a5050505050505050505050565b60008054604080516308d63e0360e01b8152905183926001600160a01b0316916308d63e039160048083019260209291908290030181865afa1580156105a2573d6000803e3d6000fd5b505050506040513d601f19601f820116820180604052508101906105c69190611ebe565b6000805460408051635f997c5b60e01b8152905193945084936001600160a01b0390921691635f997c5b916004808201926020929091908290030181865afa158015610616573d6000803e3d6000fd5b505050506040513d601f19601f8201168201806040525081019061063a9190611edb565b6040516339cf0a3760e21b8152600481018290529091506000906001600160a01b0384169063e73c28dc90602401602060405180830381865afa158015610685573d6000803e3d6000fd5b505050506040513d601f19601f820116820180604052508101906106a99190611f04565b905080156106c95760405162461bcd60e51b81526004016103ee90611f1f565b6005805460ff1916600117905560608801516000906106e98c6004611f68565b6106f4906002611f8b565b60ff168151811061070757610707611fa4565b60200260200101519050600089606001518c60046107259190611f68565b610730906001611f8b565b60ff168151811061074357610743611fa4565b6020026020010151905060008a606001518d60056107619190611f68565b61076c906003611f8b565b60ff168151811061077f5761077f611fa4565b602002602001015190506107978d8d8d8d8688610bcc565b60006107a282610be6565b9050806107f15760405162461bcd60e51b815260206004820152601f60248201527f5a6b445650206465706f7369742070726f63657373696e67206661696c65640060448201526064016103ee565b6108048e8e8e8e8e888a60046000610997565b817fc2f09b5191305d491728302bf14a38c95ce305e4170331c1e810e3f11d043ff43360405161083491906116da565b60405180910390a250506005805460ff191690555060019b9a5050505050505050505050565b60ff8116600081815260046020908152604080832080546001600160a01b0319166001600160a01b038816908117909155905193845291927fd83a1873974d2ff1363ac82a38eda74345d27ba5b65968c85d33128f62f5ba3d910161026b565b600154604051630521bf7b60e11b81526000916001600160a01b031690819083908290630a437ef6906108f1908890600401612114565b6020604051808303816000875af1158015610910573d6000803e3d6000fd5b505050506040513d601f19601f820116820180604052508101906109349190611f04565b95945050505050565b61094d8686868686866001610c65565b6109578685610db3565b50505050505050565b600154604051632db2193760e21b81526000916001600160a01b03169081908390829063b6c864dc906108f1908890600401612114565b61099f6115c0565b81156109b5576109ae88610f91565b90506109c1565b6109be88611088565b90505b600054604051633d6ed60f60e01b8152600481018690526001600160a01b0390911690633d6ed60f90602401600060405180830381600087803b158015610a0757600080fd5b505af1158015610a1b573d6000803e3d6000fd5b50506000805460405163109c99f360e11b8152600481018990529193506001600160a01b0316915063213933e690602401602060405180830381865afa158015610a69573d6000803e3d6000fd5b505050506040513d601f19601f82011682018060405250810190610a8d9190611edb565b60005460405163160aa88b60e31b81529192506001600160a01b03169063b055445890610acc908e908e9087908e908d9089908e908e906004016121e8565b600060405180830381600087803b158015610ae657600080fd5b505af1158015610afa573d6000803e3d6000fd5b5050600054604051632b055fb760e01b81526001600160a01b039091169250632b055fb79150610b30908b908b9060040161229e565b600060405180830381600087803b158015610b4a57600080fd5b505af1158015610b5e573d6000803e3d6000fd5b505060005460405162ed82bb60e31b8152600481018990526001600160a01b03909116925063076c15d89150602401600060405180830381600087803b158015610ba757600080fd5b505af1158015610bbb573d6000803e3d6000fd5b505050505050505050505050505050565b610bdc8686868686866000610c65565b6109578685611173565b6001546040516371db048760e01b8152600481018390526000916001600160a01b0316908190839082906371db04879060240160408051808303816000875af1158015610c37573d6000803e3d6000fd5b505050506040513d601f19601f82011682018060405250810190610c5b9190612310565b5095945050505050565b610c6d6115c0565b8115610c8357610c7c86610f91565b9050610c8f565b610c8c86611088565b90505b600054604051636cb79c7160e11b81526001600160a01b039091169063d96f38e290610cc9908b908b9086908b908b908b9060040161233c565b60006040518083038186803b158015610ce157600080fd5b505afa158015610cf5573d6000803e3d6000fd5b50505050600082610d215760ff89166000908152600360205260409020546001600160a01b0316610d3e565b60ff89166000908152600460205260409020546001600160a01b03165b90506001600160a01b038116151583610d6f5760405180606001604052806024815260200161250b60249139610d89565b60405180606001604052806025815260200161252f602591395b90610da75760405162461bcd60e51b81526004016103ee9190612394565b50505050505050505050565b60008260ff16600203610ed15760ff8316600090815260046020908152604091829020548451918501519285015160608601516001600160a01b039092169363a0c2a19a9392909190610e05906112fa565b6040518563ffffffff1660e01b8152600401610e2494939291906123a7565b602060405180830381865afa158015610e41573d6000803e3d6000fd5b505050506040513d601f19601f82011682018060405250810190610e659190611f04565b610ecc5760405162461bcd60e51b815260206004820152603260248201527f76657269667950726f6f662072657475726e65642066616c73653a20496e76616044820152713634b2103bb4ba34323930bb90383937b7b360711b60648201526084016103ee565b610f88565b8260ff16600603610f405760ff8316600090815260046020908152604091829020548451918501519285015160608601516001600160a01b0390921693635547bd389392909190610f21906113b0565b6040518563ffffffff1660e01b8152600401610e249493929190612404565b60405162461bcd60e51b815260206004820181905260248201527f546861742076616c7565206f66206b206973206e6f7420737570706f7274656460448201526064016103ee565b50600192915050565b610f996115c0565b610fa16115c0565b825181526020808401519082015260408084015190820152606083015151600090610fce90600b90612455565b6001600160401b03811115610fe557610fe5611773565b60405190808252806020026020018201604052801561100e578160200160208202803683370190505b50905060015b600a8560600151516110269190612455565b81101561107c578460600151818151811061104357611043611fa4565b6020026020010151826001836110599190612455565b8151811061106957611069611fa4565b6020908102919091010152600101611014565b50606082015292915050565b6110906115c0565b6110986115c0565b8251815260208084015190820152604080840151908201526060830151516000906110c590600290612455565b6001600160401b038111156110dc576110dc611773565b604051908082528060200260200182016040528015611105578160200160208202803683370190505b50905060015b600185606001515161111d9190612455565b81101561107c578460600151818151811061113a5761113a611fa4565b6020026020010151826001836111509190612455565b8151811061116057611160611fa4565b602090810291909101015260010161110b565b60008260ff1660020361128b5760ff8316600090815260036020908152604091829020548451918501519285015160608601516001600160a01b0390921693638d15f88f93929091906111c590611460565b6040518563ffffffff1660e01b81526004016111e49493929190612468565b602060405180830381865afa158015611201573d6000803e3d6000fd5b505050506040513d601f19601f820116820180604052508101906112259190611f04565b610ecc5760405162461bcd60e51b815260206004820152603160248201527f76657269667950726f6f662072657475726e65642066616c73653a20496e76616044820152703634b2103232b837b9b4ba10383937b7b360791b60648201526084016103ee565b8260ff16600603610f405760ff8316600090815260036020908152604091829020548451918501519285015160608601516001600160a01b0390921693638525a61d93929091906112db90611510565b6040518563ffffffff1660e01b81526004016111e494939291906124b9565b6113026115fa565b81516017146113655760405162461bcd60e51b815260206004820152602960248201527f496e707574206172726179206d75737420686176652065786163746c7920323360448201526820656c656d656e747360b81b60648201526084016103ee565b60005b60178110156113aa5782818151811061138357611383611fa4565b602002602001015182826017811061139d5761139d611fa4565b6020020152600101611368565b50919050565b6113b8611619565b8151602b1461141b5760405162461bcd60e51b815260206004820152602960248201527f496e707574206172726179206d75737420686176652065786163746c7920343360448201526820656c656d656e747360b81b60648201526084016103ee565b60005b602b8110156113aa5782818151811061143957611439611fa4565b60200260200101518282602b811061145357611453611fa4565b602002015260010161141e565b611468611638565b8151600e146114cb5760405162461bcd60e51b815260206004820152602960248201527f496e707574206172726179206d75737420686176652065786163746c7920313460448201526820656c656d656e747360b81b60648201526084016103ee565b60005b600e8110156113aa578281815181106114e9576114e9611fa4565b60200260200101518282600e811061150357611503611fa4565b60200201526001016114ce565b611518611657565b815160221461157b5760405162461bcd60e51b815260206004820152602960248201527f496e707574206172726179206d75737420686176652065786163746c7920333460448201526820656c656d656e747360b81b60648201526084016103ee565b60005b60228110156113aa5782818151811061159957611599611fa4565b60200260200101518282602281106115b3576115b3611fa4565b602002015260010161157e565b60405180608001604052806115d3611676565b81526020016115e0611694565b81526020016115ed611676565b8152602001606081525090565b604051806102e001604052806017906020820280368337509192915050565b604051806105600160405280602b906020820280368337509192915050565b604051806101c00160405280600e906020820280368337509192915050565b6040518061044001604052806022906020820280368337509192915050565b60405180604001604052806002906020820280368337509192915050565b60405180604001604052806002905b6116ab611676565b8152602001906001900390816116a35790505090565b6000602082840312156116d357600080fd5b5035919050565b6001600160a01b0391909116815260200190565b803560ff811681146116ff57600080fd5b919050565b60006020828403121561171657600080fd5b61171f826116ee565b9392505050565b6001600160a01b038116811461173b57600080fd5b50565b6000806040838503121561175157600080fd5b823561175c81611726565b915061176a602084016116ee565b90509250929050565b634e487b7160e01b600052604160045260246000fd5b604080519081016001600160401b03811182821017156117ab576117ab611773565b60405290565b604051608081016001600160401b03811182821017156117ab576117ab611773565b60405160c081016001600160401b03811182821017156117ab576117ab611773565b604051601f8201601f191681016001600160401b038111828210171561181d5761181d611773565b604052919050565b60006001600160401b0382111561183e5761183e611773565b5060051b60200190565b60006040828403121561185a57600080fd5b611862611789565b9050813581526020820135602082015292915050565b600082601f83011261188957600080fd5b8135602061189e61189983611825565b6117f5565b8083825260208201915060208460061b8701019350868411156118c057600080fd5b602086015b848110156118e5576118d78882611848565b8352918301916040016118c5565b509695505050505050565b600082601f83011261190157600080fd5b611909611789565b80604084018581111561191b57600080fd5b845b8181101561193557803584526020938401930161191d565b509095945050505050565b600082601f83011261195157600080fd5b8135602061196161189983611825565b8083825260208201915060208460051b87010193508684111561198357600080fd5b602086015b848110156118e55780358352918301918301611988565b600061012082840312156119b257600080fd5b6119ba6117b1565b90506119c683836118f0565b8152604083605f8401126119d957600080fd5b6119e1611789565b8060c08501868111156119f357600080fd5b604086015b81811015611a1957611a0a88826118f0565b845260209093019284016119f8565b50816020860152611a2a87826118f0565b6040860152505050506101008201356001600160401b03811115611a4d57600080fd5b611a5984828501611940565b60608301525092915050565b6000601f83601f840112611a7857600080fd5b82356020611a8861189983611825565b82815260059290921b85018101918181019087841115611aa757600080fd5b8287015b84811015611b3d5780356001600160401b0380821115611acb5760008081fd5b818a0191508a603f830112611ae05760008081fd5b85820135604082821115611af657611af6611773565b611b07828b01601f191689016117f5565b92508183528c81838601011115611b1e5760008081fd5b8181850189850137506000908201870152845250918301918301611aab565b50979650505050505050565b6000818303610100811215611b5d57600080fd5b604051606081018181106001600160401b0382111715611b7f57611b7f611773565b604052915081611b8f8585611848565b81526080603f1983011215611ba357600080fd5b611bab611789565b9150611bba85604086016118f0565b8252611bc985608086016118f0565b6020830152816020820152611be18560c08601611848565b6040820152505092915050565b60006101a08284031215611c0157600080fd5b611c096117d3565b9050611c158383611b49565b81526101008201356001600160401b0380821115611c3257600080fd5b611c3e85838601611940565b60208401526101208401356040840152610140840135915080821115611c6357600080fd5b611c6f85838601611940565b6060840152610160840135915080821115611c8957600080fd5b611c9585838601611940565b6080840152610180840135915080821115611caf57600080fd5b50611cbc84828501611940565b60a08301525092915050565b60008060008060008060c08789031215611ce157600080fd5b611cea876116ee565b955060208701356001600160401b0380821115611d0657600080fd5b611d128a838b01611878565b96506040890135915080821115611d2857600080fd5b611d348a838b0161199f565b95506060890135915080821115611d4a57600080fd5b611d568a838b01611940565b94506080890135915080821115611d6c57600080fd5b611d788a838b01611a65565b935060a0890135915080821115611d8e57600080fd5b50611d9b89828a01611bee565b9150509295509295509295565b600080600080600060a08688031215611dc057600080fd5b611dc9866116ee565b945060208601356001600160401b0380821115611de557600080fd5b611df189838a01611878565b95506040880135915080821115611e0757600080fd5b611e1389838a0161199f565b94506060880135915080821115611e2957600080fd5b611e3589838a01611940565b93506080880135915080821115611e4b57600080fd5b50611e5888828901611a65565b9150509295509295909350565b600060208284031215611e7757600080fd5b81356001600160401b03811115611e8d57600080fd5b611e9984828501611bee565b949350505050565b600060208284031215611eb357600080fd5b813561171f81611726565b600060208284031215611ed057600080fd5b815161171f81611726565b600060208284031215611eed57600080fd5b5051919050565b805180151581146116ff57600080fd5b600060208284031215611f1657600080fd5b61171f82611ef4565b602080825260199082015278546f6b656e20697320696e20667265657a652073746174757360381b604082015260600190565b634e487b7160e01b600052601160045260246000fd5b60ff8181168382160290811690818114611f8457611f84611f52565b5092915050565b60ff818116838216019081111561027757610277611f52565b634e487b7160e01b600052603260045260246000fd5b8060005b6002811015611fdd578151845260209384019390910190600101611fbe565b50505050565b60008151808452602080850194506020840160005b8381101561201457815187529582019590820190600101611ff8565b509495945050505050565b60006101a0825161203b85825180518252602090810151910152565b602081015161204e604087018251611fba565b6020015161205f6080870182611fba565b5060400151805160c0860152602081015160e08601525060208301518161010086015261208e82860182611fe3565b915050604083015161012085015260608301518482036101408601526120b48282611fe3565b91505060808301518482036101608601526120cf8282611fe3565b91505060a08301518482036101808601526109348282611fe3565b6040815260006120fd604083018561201f565b905060018060a01b03831660208301529392505050565b60208152600061171f602083018461201f565b60008151808452602080850194506020840160005b838110156120145761215987835180518252602090810151910152565b604096909601959082019060010161213c565b8060005b6002811015611fdd57612184848351611fba565b6040939093019260209190910190600101612170565b60006101206121aa848451611fba565b60208301516121bc604086018261216c565b5060408301516121cf60c0860182611fba565b5060608301518161010086015261093482860182611fe3565b600061010060ff8b1683528060208401526122058184018b612127565b90508281036040840152612219818a61219a565b9050828103606084015261222d8189611fe3565b9150508560808301528460a08301528360c083015260ff831660e08301529998505050505050505050565b6000815180845260005b8181101561227e57602081850181015186830182015201612262565b506000602082860101526020601f19601f83011685010191505092915050565b6040815260006122b16040830185611fe3565b6020838203818501528185518084528284019150828160051b85010183880160005b8381101561230157601f198784030185526122ef838351612258565b948601949250908501906001016122d3565b50909998505050505050505050565b6000806040838503121561232357600080fd5b61232c83611ef4565b9150602083015190509250929050565b60ff8716815260c06020820152600061235860c0830188612127565b828103604084015261236a818861219a565b9050828103606084015261237e8187611fe3565b6080840195909552505060a00152949350505050565b60208152600061171f6020830184612258565b6103e081016123b68287611fba565b6123c3604083018661216c565b6123d060c0830185611fba565b61010082018360005b60178110156123f85781518352602092830192909101906001016123d9565b50505095945050505050565b61066081016124138287611fba565b612420604083018661216c565b61242d60c0830185611fba565b61010082018360005b602b8110156123f8578151835260209283019290910190600101612436565b8181038181111561027757610277611f52565b6102c081016124778287611fba565b612484604083018661216c565b61249160c0830185611fba565b61010082018360005b600e8110156123f857815183526020928301929091019060010161249a565b61054081016124c88287611fba565b6124d5604083018661216c565b6124e260c0830185611fba565b61010082018360005b60228110156123f85781518352602092830192909101906001016124eb56fe4465706f736974207665726966696572206e6f742073657420666f7220676976656e206b5769746864726177207665726966696572206e6f742073657420666f7220676976656e206ba26469706673582212202d0f191e12e669e1aafcbc014e54e32cb99e4b01fc027275c4b469a7344530aa64736f6c63430008180033",
  "linkReferences": {},
  "deployedLinkReferences": {}
}