{
  "_format": "hh-sol-artifact-1",
  "contractName": "TokenRegistryV1",
  "sourceName": "src/commitChain/TokenRegistry/TokenRegistryV1.sol",
  "abi": [
    {
      "inputs": [
        {
          "internalType": "address",
          "name": "target",
          "type": "address"
        }
      ],
      "name": "AddressEmptyCode",
      "type": "error"
    },
    {
      "inputs": [
        {
          "internalType": "address",
          "name": "implementation",
          "type": "address"
        }
      ],
      "name": "ERC1967InvalidImplementation",
      "type": "error"
    },
    {
      "inputs": [],
      "name": "ERC1967NonPayable",
      "type": "error"
    },
    {
      "inputs": [],
      "name": "FailedInnerCall",
      "type": "error"
    },
    {
      "inputs": [],
      "name": "InvalidInitialization",
      "type": "error"
    },
    {
      "inputs": [],
      "name": "NotInitializing",
      "type": "error"
    },
    {
      "inputs": [
        {
          "internalType": "address",
          "name": "owner",
          "type": "address"
        }
      ],
      "name": "OwnableInvalidOwner",
      "type": "error"
    },
    {
      "inputs": [
        {
          "internalType": "address",
          "name": "account",
          "type": "address"
        }
      ],
      "name": "OwnableUnauthorizedAccount",
      "type": "error"
    },
    {
      "inputs": [],
      "name": "TokenNameDuplicate",
      "type": "error"
    },
    {
      "inputs": [],
      "name": "TokenNotFound",
      "type": "error"
    },
    {
      "inputs": [],
      "name": "TokenStatusAlreadySet",
      "type": "error"
    },
    {
      "inputs": [],
      "name": "UUPSUnauthorizedCallContext",
      "type": "error"
    },
    {
      "inputs": [
        {
          "internalType": "bytes32",
          "name": "slot",
          "type": "bytes32"
        }
      ],
      "name": "UUPSUnsupportedProxiableUUID",
      "type": "error"
    },
    {
      "inputs": [],
      "name": "UnauthorizedParticipant",
      "type": "error"
    },
    {
      "anonymous": false,
      "inputs": [
        {
          "indexed": false,
          "internalType": "bytes32",
          "name": "resourceId",
          "type": "bytes32"
        }
      ],
      "name": "EnygmaTokenFreezed",
      "type": "event"
    },
    {
      "anonymous": false,
      "inputs": [
        {
          "indexed": false,
          "internalType": "bytes32",
          "name": "resourceId",
          "type": "bytes32"
        },
        {
          "indexed": true,
          "internalType": "uint256",
          "name": "issuerChainId",
          "type": "uint256"
        },
        {
          "indexed": false,
          "internalType": "uint256",
          "name": "blockNumber",
          "type": "uint256"
        },
        {
          "indexed": false,
          "internalType": "string",
          "name": "name",
          "type": "string"
        },
        {
          "indexed": false,
          "internalType": "uint256",
          "name": "initialSupply",
          "type": "uint256"
        }
      ],
      "name": "EnygmaTokenRegistered",
      "type": "event"
    },
    {
      "anonymous": false,
      "inputs": [
        {
          "indexed": false,
          "internalType": "bytes32",
          "name": "resourceId",
          "type": "bytes32"
        }
      ],
      "name": "EnygmaTokenUnfreezed",
      "type": "event"
    },
    {
      "anonymous": false,
      "inputs": [
        {
          "indexed": false,
          "internalType": "bytes32",
          "name": "resourceId",
          "type": "bytes32"
        },
        {
          "indexed": true,
          "internalType": "uint256",
          "name": "issuerChainId",
          "type": "uint256"
        },
        {
          "indexed": false,
          "internalType": "uint256",
          "name": "blockNumber",
          "type": "uint256"
        },
        {
          "indexed": false,
          "internalType": "string",
          "name": "name",
          "type": "string"
        },
        {
          "components": [
            {
              "internalType": "uint256",
              "name": "id",
              "type": "uint256"
            },
            {
              "internalType": "uint256",
              "name": "amount",
              "type": "uint256"
            }
          ],
          "indexed": false,
          "internalType": "struct SharedObjects.ERC1155Supply[]",
          "name": "initialSupply",
          "type": "tuple[]"
        }
      ],
      "name": "Erc1155TokenRegistered",
      "type": "event"
    },
    {
      "anonymous": false,
      "inputs": [
        {
          "indexed": false,
          "internalType": "bytes32",
          "name": "resourceId",
          "type": "bytes32"
        },
        {
          "indexed": true,
          "internalType": "uint256",
          "name": "issuerChainId",
          "type": "uint256"
        },
        {
          "indexed": false,
          "internalType": "uint256",
          "name": "blockNumber",
          "type": "uint256"
        },
        {
          "indexed": false,
          "internalType": "string",
          "name": "name",
          "type": "string"
        },
        {
          "indexed": false,
          "internalType": "uint256",
          "name": "initialSupply",
          "type": "uint256"
        }
      ],
      "name": "Erc20TokenRegistered",
      "type": "event"
    },
    {
      "anonymous": false,
      "inputs": [
        {
          "indexed": false,
          "internalType": "bytes32",
          "name": "resourceId",
          "type": "bytes32"
        },
        {
          "indexed": true,
          "internalType": "uint256",
          "name": "issuerChainId",
          "type": "uint256"
        },
        {
          "indexed": false,
          "internalType": "uint256",
          "name": "blockNumber",
          "type": "uint256"
        },
        {
          "indexed": false,
          "internalType": "string",
          "name": "name",
          "type": "string"
        },
        {
          "indexed": false,
          "internalType": "uint256[]",
          "name": "initialSupply",
          "type": "uint256[]"
        }
      ],
      "name": "Erc721TokenRegistered",
      "type": "event"
    },
    {
      "anonymous": false,
      "inputs": [
        {
          "indexed": false,
          "internalType": "uint64",
          "name": "version",
          "type": "uint64"
        }
      ],
      "name": "Initialized",
      "type": "event"
    },
    {
      "anonymous": false,
      "inputs": [
        {
          "indexed": true,
          "internalType": "address",
          "name": "previousOwner",
          "type": "address"
        },
        {
          "indexed": true,
          "internalType": "address",
          "name": "newOwner",
          "type": "address"
        }
      ],
      "name": "OwnershipTransferred",
      "type": "event"
    },
    {
      "anonymous": false,
      "inputs": [
        {
          "indexed": false,
          "internalType": "bytes32",
          "name": "resourceId",
          "type": "bytes32"
        },
        {
          "indexed": false,
          "internalType": "uint256",
          "name": "issuerChainId",
          "type": "uint256"
        },
        {
          "indexed": false,
          "internalType": "enum SharedObjects.BalanceUpdateType",
          "name": "updateType",
          "type": "uint8"
        },
        {
          "components": [
            {
              "internalType": "uint256",
              "name": "amount",
              "type": "uint256"
            },
            {
              "internalType": "uint256",
              "name": "ercId",
              "type": "uint256"
            }
          ],
          "indexed": false,
          "internalType": "struct TokenRegistryV1.BalanceUpdate",
          "name": "payload",
          "type": "tuple"
        }
      ],
      "name": "TokenBalanceUpdated",
      "type": "event"
    },
    {
      "anonymous": false,
      "inputs": [
        {
          "indexed": false,
          "internalType": "uint256",
          "name": "issuerChainId",
          "type": "uint256"
        },
        {
          "indexed": false,
          "internalType": "string",
          "name": "name",
          "type": "string"
        },
        {
          "indexed": false,
          "internalType": "enum TokenRegistryV1.TokenStatus",
          "name": "status",
          "type": "uint8"
        }
      ],
      "name": "TokenStatusUpdated",
      "type": "event"
    },
    {
      "anonymous": false,
      "inputs": [
        {
          "indexed": true,
          "internalType": "address",
          "name": "implementation",
          "type": "address"
        }
      ],
      "name": "Upgraded",
      "type": "event"
    },
    {
      "inputs": [],
      "name": "UPGRADE_INTERFACE_VERSION",
      "outputs": [
        {
          "internalType": "string",
          "name": "",
          "type": "string"
        }
      ],
      "stateMutability": "view",
      "type": "function"
    },
    {
      "inputs": [
        {
          "components": [
            {
              "internalType": "string",
              "name": "name",
              "type": "string"
            },
            {
              "internalType": "string",
              "name": "symbol",
              "type": "string"
            },
            {
              "internalType": "bytes",
              "name": "totalSupply",
              "type": "bytes"
            },
            {
              "internalType": "uint256",
              "name": "issuerChainId",
              "type": "uint256"
            },
            {
              "internalType": "bytes",
              "name": "bytecode",
              "type": "bytes"
            },
            {
              "internalType": "bytes",
              "name": "initializerParams",
              "type": "bytes"
            },
            {
              "internalType": "bool",
              "name": "isFungible",
              "type": "bool"
            },
            {
              "internalType": "enum SharedObjects.ErcStandard",
              "name": "ercStandard",
              "type": "uint8"
            },
            {
              "internalType": "bool",
              "name": "isCustom",
              "type": "bool"
            },
            {
              "internalType": "uint8",
              "name": "storageSlot",
              "type": "uint8"
            }
          ],
          "internalType": "struct SharedObjects.TokenRegistrationData",
          "name": "tokenData",
          "type": "tuple"
        }
      ],
      "name": "addToken",
      "outputs": [
        {
          "internalType": "bytes32",
          "name": "",
          "type": "bytes32"
        }
      ],
      "stateMutability": "nonpayable",
      "type": "function"
    },
    {
      "inputs": [],
      "name": "broadcastCurrentFrozenResourcesForNewParticipant",
      "outputs": [],
      "stateMutability": "nonpayable",
      "type": "function"
    },
    {
      "inputs": [],
      "name": "contractVersion",
      "outputs": [
        {
          "internalType": "uint256",
          "name": "",
          "type": "uint256"
        }
      ],
      "stateMutability": "pure",
      "type": "function"
    },
    {
      "inputs": [],
      "name": "endpoint",
      "outputs": [
        {
          "internalType": "contract IRaylsEndpoint",
          "name": "",
          "type": "address"
        }
      ],
      "stateMutability": "view",
      "type": "function"
    },
    {
      "inputs": [],
      "name": "enygmaFactory",
      "outputs": [
        {
          "internalType": "address",
          "name": "",
          "type": "address"
        }
      ],
      "stateMutability": "view",
      "type": "function"
    },
    {
      "inputs": [
        {
          "internalType": "bytes32",
          "name": "resourceId",
          "type": "bytes32"
        }
      ],
      "name": "freezeEnygmaToken",
      "outputs": [],
      "stateMutability": "nonpayable",
      "type": "function"
    },
    {
      "inputs": [
        {
          "internalType": "bytes32",
          "name": "resourceId",
          "type": "bytes32"
        },
        {
          "internalType": "uint256[]",
          "name": "chainIds",
          "type": "uint256[]"
        }
      ],
      "name": "freezeToken",
      "outputs": [],
      "stateMutability": "nonpayable",
      "type": "function"
    },
    {
      "inputs": [
        {
          "internalType": "bytes32",
          "name": "_resourceId",
          "type": "bytes32"
        }
      ],
      "name": "getAddressByResourceId",
      "outputs": [
        {
          "internalType": "address",
          "name": "",
          "type": "address"
        }
      ],
      "stateMutability": "view",
      "type": "function"
    },
    {
      "inputs": [],
      "name": "getAllTokens",
      "outputs": [
        {
          "components": [
            {
              "internalType": "bytes32",
              "name": "resourceId",
              "type": "bytes32"
            },
            {
              "internalType": "string",
              "name": "name",
              "type": "string"
            },
            {
              "internalType": "string",
              "name": "symbol",
              "type": "string"
            },
            {
              "internalType": "uint256",
              "name": "issuerChainId",
              "type": "uint256"
            },
            {
              "internalType": "address",
              "name": "issuerImplementationAddress",
              "type": "address"
            },
            {
              "internalType": "bool",
              "name": "isFungible",
              "type": "bool"
            },
            {
              "internalType": "enum TokenRegistryV1.TokenStatus",
              "name": "status",
              "type": "uint8"
            },
            {
              "internalType": "uint256",
              "name": "createdAt",
              "type": "uint256"
            },
            {
              "internalType": "uint256",
              "name": "updatedAt",
              "type": "uint256"
            },
            {
              "components": [
                {
                  "internalType": "string",
                  "name": "url",
                  "type": "string"
                },
                {
                  "internalType": "uint8",
                  "name": "decimals",
                  "type": "uint8"
                }
              ],
              "internalType": "struct TokenRegistryV1.TokenMetadata",
              "name": "metadata",
              "type": "tuple"
            },
            {
              "internalType": "enum SharedObjects.ErcStandard",
              "name": "ercStandard",
              "type": "uint8"
            },
            {
              "internalType": "uint8",
              "name": "storageSlot",
              "type": "uint8"
            }
          ],
          "internalType": "struct TokenRegistryV1.Token[]",
          "name": "",
          "type": "tuple[]"
        }
      ],
      "stateMutability": "view",
      "type": "function"
    },
    {
      "inputs": [
        {
          "internalType": "bytes32",
          "name": "resourceId",
          "type": "bytes32"
        }
      ],
      "name": "getTokenByResourceId",
      "outputs": [
        {
          "components": [
            {
              "internalType": "bytes32",
              "name": "resourceId",
              "type": "bytes32"
            },
            {
              "internalType": "string",
              "name": "name",
              "type": "string"
            },
            {
              "internalType": "string",
              "name": "symbol",
              "type": "string"
            },
            {
              "internalType": "uint256",
              "name": "issuerChainId",
              "type": "uint256"
            },
            {
              "internalType": "address",
              "name": "issuerImplementationAddress",
              "type": "address"
            },
            {
              "internalType": "bool",
              "name": "isFungible",
              "type": "bool"
            },
            {
              "internalType": "enum TokenRegistryV1.TokenStatus",
              "name": "status",
              "type": "uint8"
            },
            {
              "internalType": "uint256",
              "name": "createdAt",
              "type": "uint256"
            },
            {
              "internalType": "uint256",
              "name": "updatedAt",
              "type": "uint256"
            },
            {
              "components": [
                {
                  "internalType": "string",
                  "name": "url",
                  "type": "string"
                },
                {
                  "internalType": "uint8",
                  "name": "decimals",
                  "type": "uint8"
                }
              ],
              "internalType": "struct TokenRegistryV1.TokenMetadata",
              "name": "metadata",
              "type": "tuple"
            },
            {
              "internalType": "enum SharedObjects.ErcStandard",
              "name": "ercStandard",
              "type": "uint8"
            },
            {
              "internalType": "uint8",
              "name": "storageSlot",
              "type": "uint8"
            }
          ],
          "internalType": "struct TokenRegistryV1.Token",
          "name": "",
          "type": "tuple"
        }
      ],
      "stateMutability": "view",
      "type": "function"
    },
    {
      "inputs": [
        {
          "internalType": "address",
          "name": "_endpoint",
          "type": "address"
        }
      ],
      "name": "initialize",
      "outputs": [],
      "stateMutability": "nonpayable",
      "type": "function"
    },
    {
      "inputs": [
        {
          "internalType": "address",
          "name": "initialOwner",
          "type": "address"
        },
        {
          "internalType": "address",
          "name": "participantStorageAt",
          "type": "address"
        },
        {
          "internalType": "address",
          "name": "resourceRegistryAt",
          "type": "address"
        },
        {
          "internalType": "address",
          "name": "_endpoint",
          "type": "address"
        }
      ],
      "name": "initialize",
      "outputs": [],
      "stateMutability": "nonpayable",
      "type": "function"
    },
    {
      "inputs": [],
      "name": "owner",
      "outputs": [
        {
          "internalType": "address",
          "name": "",
          "type": "address"
        }
      ],
      "stateMutability": "view",
      "type": "function"
    },
    {
      "inputs": [],
      "name": "proxiableUUID",
      "outputs": [
        {
          "internalType": "bytes32",
          "name": "",
          "type": "bytes32"
        }
      ],
      "stateMutability": "view",
      "type": "function"
    },
    {
      "inputs": [],
      "name": "renounceOwnership",
      "outputs": [],
      "stateMutability": "nonpayable",
      "type": "function"
    },
    {
      "inputs": [],
      "name": "resourceId",
      "outputs": [
        {
          "internalType": "bytes32",
          "name": "",
          "type": "bytes32"
        }
      ],
      "stateMutability": "view",
      "type": "function"
    },
    {
      "inputs": [
        {
          "internalType": "bytes32",
          "name": "resourceId",
          "type": "bytes32"
        }
      ],
      "name": "tokenEnygmaIsFreeze",
      "outputs": [
        {
          "internalType": "bool",
          "name": "",
          "type": "bool"
        }
      ],
      "stateMutability": "view",
      "type": "function"
    },
    {
      "inputs": [
        {
          "internalType": "address",
          "name": "newOwner",
          "type": "address"
        }
      ],
      "name": "transferOwnership",
      "outputs": [],
      "stateMutability": "nonpayable",
      "type": "function"
    },
    {
      "inputs": [
        {
          "internalType": "bytes32",
          "name": "resourceId",
          "type": "bytes32"
        }
      ],
      "name": "unfreezeEnygmaToken",
      "outputs": [],
      "stateMutability": "nonpayable",
      "type": "function"
    },
    {
      "inputs": [
        {
          "internalType": "bytes32",
          "name": "resourceId",
          "type": "bytes32"
        },
        {
          "internalType": "uint256[]",
          "name": "chainIds",
          "type": "uint256[]"
        }
      ],
      "name": "unfreezeToken",
      "outputs": [],
      "stateMutability": "nonpayable",
      "type": "function"
    },
    {
      "inputs": [
        {
          "internalType": "address",
          "name": "_enygmaFactory",
          "type": "address"
        }
      ],
      "name": "updateEnygmaFactory",
      "outputs": [],
      "stateMutability": "nonpayable",
      "type": "function"
    },
    {
      "inputs": [
        {
          "internalType": "bytes32",
          "name": "resourceId",
          "type": "bytes32"
        },
        {
          "internalType": "enum TokenRegistryV1.TokenStatus",
          "name": "status",
          "type": "uint8"
        }
      ],
      "name": "updateStatus",
      "outputs": [],
      "stateMutability": "nonpayable",
      "type": "function"
    },
    {
      "inputs": [
        {
          "internalType": "uint256",
          "name": "issuerChainId",
          "type": "uint256"
        },
        {
          "internalType": "bytes32",
          "name": "resourceId",
          "type": "bytes32"
        },
        {
          "internalType": "enum SharedObjects.BalanceUpdateType",
          "name": "updateType",
          "type": "uint8"
        },
        {
          "internalType": "bytes",
          "name": "metadata",
          "type": "bytes"
        }
      ],
      "name": "updateTokenBalance",
      "outputs": [],
      "stateMutability": "nonpayable",
      "type": "function"
    },
    {
      "inputs": [
        {
          "internalType": "address",
          "name": "newImplementation",
          "type": "address"
        },
        {
          "internalType": "bytes",
          "name": "data",
          "type": "bytes"
        }
      ],
      "name": "upgradeToAndCall",
      "outputs": [],
      "stateMutability": "payable",
      "type": "function"
    }
  ],
  "bytecode": "0x60a06040523060805234801561001457600080fd5b50608051613d6761003e60003960008181611c0d01528181611c360152611d6e0152613d676000f3fe6080604052600436106101365760003560e01c806380387be2116100b157806380387be2146102ab5780638a58b79f146102cb5780638b55462d146102f85780638da5cb5b14610318578063a0a8e4601461032d578063a9ac0efd14610341578063ad3cb1cc14610361578063c4d66de81461039f578063e08ac15e146103bf578063e73c28dc146103df578063f2fde38b1461041f578063f7bb5fad1461043f578063f8c8765e1461045f57600080fd5b8063054372ed1461013b57806311f50c851461015d5780632a5c792a14610193578063352b2d5a146101b557806349f6ee3c146101d55780634f1ef286146101ea57806352d1902d146101fd5780635e280f11146102205780635e76f500146102405780635f997c5b14610260578063715018a6146102765780637c5ff5981461028b575b600080fd5b34801561014757600080fd5b5061015b610156366004612b70565b61047f565b005b34801561016957600080fd5b5061017d610178366004612ba0565b6105e1565b60405161018a9190612bb9565b60405180910390f35b34801561019f57600080fd5b506101a8610655565b60405161018a9190612d6a565b3480156101c157600080fd5b5061015b6101d0366004612de3565b61095d565b3480156101e157600080fd5b5061015b610987565b61015b6101f8366004612f0e565b610abb565b34801561020957600080fd5b50610212610ad6565b60405190815260200161018a565b34801561022c57600080fd5b5060005461017d906001600160a01b031681565b34801561024c57600080fd5b5061015b61025b366004612ba0565b610af4565b34801561026c57600080fd5b5061021260015481565b34801561028257600080fd5b5061015b610b4f565b34801561029757600080fd5b5061015b6102a6366004612ba0565b610b63565b3480156102b757600080fd5b5061015b6102c6366004612f5d565b610bb6565b3480156102d757600080fd5b506102eb6102e6366004612ba0565b610db2565b60405161018a9190612fc3565b34801561030457600080fd5b50610212610313366004612fd6565b6110e1565b34801561032457600080fd5b5061017d6112b8565b34801561033957600080fd5b506001610212565b34801561034d57600080fd5b5060025461017d906001600160a01b031681565b34801561036d57600080fd5b50610392604051806040016040528060058152602001640352e302e360dc1b81525081565b60405161018a9190613011565b3480156103ab57600080fd5b5061015b6103ba366004612de3565b6112d3565b3480156103cb57600080fd5b5061015b6103da366004613024565b6112fd565b3480156103eb57600080fd5b5061040f6103fa366004612ba0565b60009081526003602052604090205460ff1690565b604051901515815260200161018a565b34801561042b57600080fd5b5061015b61043a366004612de3565b6115ab565b34801561044b57600080fd5b5061015b61045a36600461312f565b6115e9565b34801561046b57600080fd5b5061015b61047a36600461316b565b61186b565b610487611a1d565b600061049283611a4f565b90508160028111156104a6576104a6612c1d565b6004820154600160a81b900460ff1660028111156104c6576104c6612c1d565b036104e4576040516377095b5560e01b815260040160405180910390fd5b60048101805483919060ff60a81b1916600160a81b83600281111561050b5761050b612c1d565b021790555042600682015560038101546040517f1394170a3706b92cbd694c5455042c6aa429a67adde17453e770b81a3cbcb3e4916105509160018501908690613201565b60405180910390a160016004820154600160a81b900460ff16600281111561057a5761057a612c1d565b036105dc576003810154600482015482546040516105dc93926001600160a01b0316916105ad9160240190815260200190565b60408051601f198184030181529190526020810180516001600160e01b031663e3ee8a4360e01b179052611ac4565b505050565b600080546040516311f50c8560e01b8152600481018490526001600160a01b03909116906311f50c8590602401602060405180830381865afa15801561062b573d6000803e3d6000fd5b505050506040513d601f19601f8201168201806040525081019061064f91906132a1565b92915050565b606061065f611b41565b600401805480602002602001604051908101604052809291908181526020016000905b8282101561095457838290600052602060002090600a020160405180610180016040529081600082015481526020016001820180546106c0906131c7565b80601f01602080910402602001604051908101604052809291908181526020018280546106ec906131c7565b80156107395780601f1061070e57610100808354040283529160200191610739565b820191906000526020600020905b81548152906001019060200180831161071c57829003601f168201915b50505050508152602001600282018054610752906131c7565b80601f016020809104026020016040519081016040528092919081815260200182805461077e906131c7565b80156107cb5780601f106107a0576101008083540402835291602001916107cb565b820191906000526020600020905b8154815290600101906020018083116107ae57829003601f168201915b50505091835250506003820154602082015260048201546001600160a01b038116604083015260ff600160a01b8204811615156060840152608090920191600160a81b90910416600281111561082357610823612c1d565b600281111561083457610834612c1d565b815260200160058201548152602001600682015481526020016007820160405180604001604052908160008201805461086c906131c7565b80601f0160208091040260200160405190810160405280929190818152602001828054610898906131c7565b80156108e55780601f106108ba576101008083540402835291602001916108e5565b820191906000526020600020905b8154815290600101906020018083116108c857829003601f168201915b50505091835250506001919091015460ff908116602092830152918352600984015492019116600581111561091c5761091c612c1d565b600581111561092d5761092d612c1d565b815260099190910154610100900460ff166020918201529082526001929092019101610682565b50505050905090565b610965611a1d565b600280546001600160a01b0319166001600160a01b0392909216919091179055565b6000546040516333932be560e11b81526001600160a01b039091169063672657ca906109b7903390600401612bb9565b602060405180830381865afa1580156109d4573d6000803e3d6000fd5b505050506040513d601f19601f820116820180604052508101906109f891906132d7565b610a1d5760405162461bcd60e51b8152600401610a14906132f4565b60405180910390fd5b6000610a27611b41565b9050610a31612a72565b610ab7610a3c611b65565b6001546040516311170d8b60e11b90610a5c906005880190602401613362565b60408051601f19818403018152918152602080830180516001600160e01b03166001600160e01b0319909516949094179093528051808401825260008082528251808601845281815283519586019093528452919287611b79565b5050565b610ac3611c02565b610acc82611ca7565b610ab78282611caf565b6000610ae0611d63565b50600080516020613d128339815191525b90565b610afc611a1d565b60008181526003602052604090819020805460ff19169055517f1aa0e80c57ca9e36c707728502071d9f55a4dda14b13f772b13018f9bec7e4dd90610b449083815260200190565b60405180910390a150565b610b57611a1d565b610b616000611dac565b565b610b6b611a1d565b60008181526003602052604090819020805460ff19166001179055517f4cb0cdc0987f50f47007a116350e3b68b01228318a432fbab94e3504be2bb8df90610b449083815260200190565b6000546040516333932be560e11b81526001600160a01b039091169063672657ca90610be6903390600401612bb9565b602060405180830381865afa158015610c03573d6000803e3d6000fd5b505050506040513d601f19601f82011682018060405250810190610c2791906132d7565b610c435760405162461bcd60e51b8152600401610a14906132f4565b6000610c4e84611a4f565b905060008080600984015460ff166005811115610c6d57610c6d612c1d565b03610c8d5783806020019051810190610c86919061340c565b9150610d58565b6002600984015460ff166005811115610ca857610ca8612c1d565b03610ccc5783806020019051810190610cc1919061340c565b905060019150610d58565b6003600984015460ff166005811115610ce757610ce7612c1d565b03610d1557600084806020019051810190610d029190613425565b602081015190519093509150610d589050565b60405162461bcd60e51b8152602060048201526018602482015277155b9cdd5c1c1bdc9d195908115490c81cdd185b99185c9960421b6044820152606401610a14565b6040805180820182528381526020810183905290517f8b36c0f6840ad43b7be3eb5ff57d1bd7c8d85e73eac78179bcfed7e9e99c8f4f90610da09089908b908a908690613457565b60405180910390a15050505050505050565b610e2860408051610180810182526000808252606060208084018290528385018290528184018390526080840183905260a0840183905260c0840183905260e084018390526101008401839052845180860190955290845283015290610120820190815260200160008152600060209091015290565b610e3182611a4f565b6040518061018001604052908160008201548152602001600182018054610e57906131c7565b80601f0160208091040260200160405190810160405280929190818152602001828054610e83906131c7565b8015610ed05780601f10610ea557610100808354040283529160200191610ed0565b820191906000526020600020905b815481529060010190602001808311610eb357829003601f168201915b50505050508152602001600282018054610ee9906131c7565b80601f0160208091040260200160405190810160405280929190818152602001828054610f15906131c7565b8015610f625780601f10610f3757610100808354040283529160200191610f62565b820191906000526020600020905b815481529060010190602001808311610f4557829003601f168201915b50505091835250506003820154602082015260048201546001600160a01b038116604083015260ff600160a01b8204811615156060840152608090920191600160a81b909104166002811115610fba57610fba612c1d565b6002811115610fcb57610fcb612c1d565b8152602001600582015481526020016006820154815260200160078201604051806040016040529081600082018054611003906131c7565b80601f016020809104026020016040519081016040528092919081815260200182805461102f906131c7565b801561107c5780601f106110515761010080835404028352916020019161107c565b820191906000526020600020905b81548152906001019060200180831161105f57829003601f168201915b50505091835250506001919091015460ff90811660209283015291835260098401549201911660058111156110b3576110b3612c1d565b60058111156110c4576110c4612c1d565b815260099190910154610100900460ff1660209091015292915050565b600080546040516333932be560e11b81526001600160a01b039091169063672657ca90611112903390600401612bb9565b602060405180830381865afa15801561112f573d6000803e3d6000fd5b505050506040513d601f19601f8201168201806040525081019061115391906132d7565b61116f5760405162461bcd60e51b8152600401610a14906132f4565b61117c8260600135611e08565b61119957604051634cacd6ff60e01b815260040160405180910390fd5b60006111a3611b41565b9050600381016111b38480613496565b6040516111c19291906134e3565b9081526040519081900360200190205460ff16156111f2576040516311475c8b60e31b815260040160405180910390fd5b60018101546001600160a01b03166000816341700488611219610100880160e089016134f3565b6112266080890189613496565b61123360a08b018b613496565b6040518663ffffffff1660e01b815260040161125395949392919061353d565b6020604051808303816000875af1158015611272573d6000803e3d6000fd5b505050506040513d601f19601f82011682018060405250810190611296919061340c565b90506112a3858285611ecc565b6112ae8582856122ff565b925050505b919050565b6000806112c361279c565b546001600160a01b031692915050565b6112db6127c0565b600080546001600160a01b0319166001600160a01b0392909216919091179055565b611305611a1d565b600061130f611b41565b9050600080805b600584015481101561136357868460050182815481106113385761133861357d565b9060005260206000209060020201600001540361135b5780925060019150611363565b600101611316565b5080156114b35760008360050183815481106113815761138161357d565b9060005260206000209060020201905060005b8581101561143f576000805b60018401548110156113f7578888848181106113be576113be61357d565b905060200201358460010182815481106113da576113da61357d565b9060005260206000200154036113ef57600191505b6001016113a0565b508061143657826001018888848181106114135761141361357d565b835460018101855560009485526020948590209190940292909201359190920155505b50600101611394565b506040805180820182528254815260018301805483516020828102820181019095528181526114ad94869381860193909183018282801561149f57602002820191906000526020600020905b81548152602001906001019080831161148b575b5050505050815250506127e5565b506115a3565b6040805180820190915260606020820152868152846001600160401b038111156114df576114df612e00565b604051908082528060200260200182016040528015611508578160200160208202803683370190505b50602082015260005b8581101561155b5786868281811061152b5761152b61357d565b90506020020135826020015182815181106115485761154861357d565b6020908102919091010152600101611511565b5060058401805460018181018355600092835260209283902084516002909302019182558284015180518594611595938501920190612aa9565b5050506115a1816127e5565b505b505050505050565b6115b3611a1d565b6001600160a01b0381166115dd576000604051631e4fbdf760e01b8152600401610a149190612bb9565b6115e681611dac565b50565b6115f1611a1d565b60006115fb611b41565b9050600080805b600584015481101561164f57858460050182815481106116245761162461357d565b90600052602060002090600202016000015403611647578092506001915061164f565b600101611602565b508061168f5760405162461bcd60e51b815260206004820152600f60248201526e151bdad95b881b9bdd08199bdd5b99608a1b6044820152606401610a14565b60008360050183815481106116a6576116a661357d565b600091825260208220600290910201915060018201905b86518110156117955760005b825481101561178c578782815181106116e4576116e461357d565b60200260200101518382815481106116fe576116fe61357d565b906000526020600020015403611784578254839061171e90600190613593565b8154811061172e5761172e61357d565b906000526020600020015483828154811061174b5761174b61357d565b906000526020600020018190555082805480611769576117696135b4565b6001900381819060005260206000200160009055905561178c565b6001016116c9565b506001016116bd565b50805460000361184e576005850180546117b190600190613593565b815481106117c1576117c161357d565b90600052602060002090600202018560050185815481106117e4576117e461357d565b6000918252602090912082546002909202019081556001808301805461180d9284019190612af4565b50505060058501805480611823576118236135b4565b600082815260208120600260001990930192830201818155906118496001830182612b34565b505090555b6115a160405180604001604052808981526020018881525061280e565b6000611875612837565b805490915060ff600160401b82041615906001600160401b031660008115801561189c5750825b90506000826001600160401b031660011480156118b85750303b155b9050811580156118c6575080155b156118e45760405163f92ee8a960e01b815260040160405180910390fd5b845467ffffffffffffffff19166001178555831561190e57845460ff60401b1916600160401b1785555b6119178961285b565b61191f61286c565b611928866112d3565b6000611932611b41565b80546001600160a01b03808c166001600160a01b0319928316178355600180840180548d841690851617905560008054928c1692909316821790925560039182905560405163d4f951c760e01b81529293509163d4f951c7916119999130906004016135ca565b600060405180830381600087803b1580156119b357600080fd5b505af11580156119c7573d6000803e3d6000fd5b50505050508315611a1257845460ff60401b19168555604051600181527fc7f505b2f371ae2175ee4913f4499e1f2633a7b5936321eed1cdaeb6115181d29060200160405180910390a15b505050505050505050565b33611a266112b8565b6001600160a01b031614610b61573360405163118cdaa760e01b8152600401610a149190612bb9565b600080611a5a611b41565b6000848152600282016020526040812054919250819003611a8e57604051630cbdb7b360e41b815260040160405180910390fd5b60048201611a9d600183613593565b81548110611aad57611aad61357d565b90600052602060002090600a020192505050919050565b60005460405163150b375f60e01b81526001600160a01b039091169063150b375f90611af8908690869086906004016135e1565b6020604051808303816000875af1158015611b17573d6000803e3d6000fd5b505050506040513d601f19601f82011682018060405250810190611b3b919061340c565b50505050565b7f935fd693b8de0a9e4162b9723bbbccf5a1174c5f90a7fd1a24c16111cba69d0090565b600060343610610af1575060331936013590565b600054604051631075c5d160e21b81526001600160a01b03909116906341d7174490611bb5908a908a908a908a908a908a908a9060040161360b565b6020604051808303816000875af1158015611bd4573d6000803e3d6000fd5b505050506040513d601f19601f82011682018060405250810190611bf8919061340c565b5050505050505050565b306001600160a01b037f0000000000000000000000000000000000000000000000000000000000000000161480611c8957507f00000000000000000000000000000000000000000000000000000000000000006001600160a01b0316611c7d600080516020613d12833981519152546001600160a01b031690565b6001600160a01b031614155b15610b615760405163703e46dd60e11b815260040160405180910390fd5b6115e6611a1d565b816001600160a01b03166352d1902d6040518163ffffffff1660e01b8152600401602060405180830381865afa925050508015611d09575060408051601f3d908101601f19168201909252611d069181019061340c565b60015b611d285781604051634c9c8ce360e01b8152600401610a149190612bb9565b600080516020613d128339815191528114611d5957604051632a87526960e21b815260048101829052602401610a14565b6105dc8383612874565b306001600160a01b037f00000000000000000000000000000000000000000000000000000000000000001614610b615760405163703e46dd60e11b815260040160405180910390fd5b6000611db661279c565b80546001600160a01b038481166001600160a01b031983168117845560405193945091169182907f8be0079c531659141344cd1fd0a4f28419497f9722a3daafe3b4186f6b6457e090600090a3505050565b600080611e13611b41565b54604051631b9db2ef60e01b8152600481018590526001600160a01b0390911691506000908290631b9db2ef90602401600060405180830381865afa158015611e60573d6000803e3d6000fd5b505050506040513d6000823e601f3d908101601f19168201604052611e889190810190613730565b9050600181602001516002811115611ea257611ea2612c1d565b148015611ec45750600181604001516003811115611ec257611ec2612c1d565b145b949350505050565b60408051602081019091526000808252611eee61012086016101008701613812565b612002576003611f05610100870160e088016134f3565b6005811115611f1657611f16612c1d565b1480611f4357506002611f30610100870160e088016134f3565b6005811115611f4157611f41612c1d565b145b15611f7c576000611f5760a0870187613496565b611f6591600490829061382f565b810190611f729190613859565b5092506120029050565b6000611f8f610100870160e088016134f3565b6005811115611fa057611fa0612c1d565b1480611fcd57506004611fba610100870160e088016134f3565b6005811115611fcb57611fcb612c1d565b145b15612002576000611fe160a0870187613496565b611fef91600490829061382f565b810190611ffc91906138c3565b93505050505b6040805161018081019091528481526004840190602081016120248880613496565b8080601f01602080910402602001604051908101604052809392919081815260200183838082843760009201919091525050509082525060209081019061206d90890189613496565b8080601f016020809104026020016040519081016040528093929190818152602001838380828437600092019190915250505090825250606088013560208201526040016120b96128ca565b6001600160a01b031681526020016120d760e0890160c08a01613812565b151581526020016000815260200142815260200142815260200160405180604001604052808681526020018560ff1681525081526020018760e001602081019061212191906134f3565b600581111561213257612132612c1d565b815260200161214961014089016101208a01613936565b60ff16905281546001818101845560009384526020938490208351600a909302019182559282015191929091908201906121839082613999565b50604082015160028201906121989082613999565b5060608201516003820155608082015160048201805460a08501511515600160a01b026001600160a81b03199091166001600160a01b03909316929092179190911780825560c0840151919060ff60a81b1916600160a81b83600281111561220257612202612c1d565b021790555060e0820151600582015561010082015160068201556101208201518051600783019081906122359082613999565b50602091909101516001918201805460ff90921660ff1992831617905561014084015160098401805491939092919091169083600581111561227957612279612c1d565b021790555061016091909101516009909101805460ff9092166101000261ff00199092169190911790556001600384016122b38780613496565b6040516122c19291906134e3565b9081526040805160209281900383019020805460ff191693151593909317909255600485015460009687526002909501905290932091909155505050565b6000612312610100850160e086016134f3565b600581111561232357612323612c1d565b036123925760608301357f854ca631ac00ccdf92a95f2c9e281476b4330d7fd59102a05a2bba5eced66bbe834361235a8780613496565b61236760408a018a613496565b8101906123749190612ba0565b604051612385959493929190613a58565b60405180910390a2505050565b60026123a5610100850160e086016134f3565b60058111156123b6576123b6612c1d565b036124185760608301357f6483a44d2d25781cbe19bebaab2530a911bae8db9c8ce0bf863c536bbdae1ba383436123ed8780613496565b6123fa60408a018a613496565b8101906124079190613a8a565b604051612385959493929190613afa565b600361242b610100850160e086016134f3565b600581111561243c5761243c612c1d565b0361249e5760608301357fc175facb57ff4961d5a14d9665eb3c97fbf206263beddcddb694763ad59f0ade83436124738780613496565b61248060408a018a613496565b81019061248d9190613b2c565b604051612385959493929190613be1565b60046124b1610100850160e086016134f3565b60058111156124c2576124c2612c1d565b03610d15576002546001600160a01b031680635ee229c56124e38680613496565b6124f06020890189613496565b6124fd60a08b018b613496565b61250b91600490829061382f565b8101906125189190613936565b896125216128ca565b8c606001358b60000160009054906101000a90046001600160a01b031660008054906101000a90046001600160a01b0316306040518c63ffffffff1660e01b81526004016125799b9a99989796959493929190613c5b565b600060405180830381600087803b15801561259357600080fd5b505af11580156125a7573d6000803e3d6000fd5b505060405163613d60ff60e01b8152600481018690526001600160a01b038416925063613d60ff9150602401600060405180830381600087803b1580156125ed57600080fd5b505af1158015612601573d6000803e3d6000fd5b50506040516315aa229360e01b8152600481018690526001600160a01b03841692506315aa22939150602401600060405180830381600087803b15801561264757600080fd5b505af115801561265b573d6000803e3d6000fd5b50506040516375ede10d60e01b815260048101869052600092506001600160a01b03841691506375ede10d90602401602060405180830381865afa1580156126a7573d6000803e3d6000fd5b505050506040513d601f19601f820116820180604052508101906126cb91906132a1565b60005460405163d4f951c760e01b81529192506001600160a01b03169063d4f951c7906126fe90879085906004016135ca565b600060405180830381600087803b15801561271857600080fd5b505af115801561272c573d6000803e3d6000fd5b5050505060608501357f74d31871242a42afa34ddbdcd2089ee9700aa8499e2662f830955d4b457aaf3085436127628980613496565b61276f60408c018c613496565b81019061277c9190612ba0565b60405161278d959493929190613a58565b60405180910390a25050505050565b7f9016d09d72d40fdae2fd8ceac6b6234c7706214fd39c1cd1e609a0528c19930090565b6127c86128e0565b610b6157604051631afcd79f60e31b815260040160405180910390fd5b6127ed612a72565b610ab76000600154639eb7b4eb60e01b85604051602401610a5c9190613cd0565b612816612a72565b610ab7600060015463f5aeb43460e01b85604051602401610a5c9190613cd0565b7ff0c57e16840df040f15088dc2f81fe391c3923bec73e23a9662efc9c229c6a0090565b6128636127c0565b6115e6816128fa565b610b616127c0565b61287d82612902565b6040516001600160a01b038316907fbc7cd75a20ee27fd9adebab32041f755214dbc6bffa90cc0225b39da2e5c2d3b90600090a28051156128c2576105dc828261295e565b610ab76129d4565b3360143610610af1575060131936013560601c90565b60006128ea612837565b54600160401b900460ff16919050565b6115b36127c0565b806001600160a01b03163b60000361292f5780604051634c9c8ce360e01b8152600401610a149190612bb9565b600080516020613d1283398151915280546001600160a01b0319166001600160a01b0392909216919091179055565b6060600080846001600160a01b03168460405161297b9190613cf5565b600060405180830381855af49150503d80600081146129b6576040519150601f19603f3d011682016040523d82523d6000602084013e6129bb565b606091505b50915091506129cb8583836129f3565b95945050505050565b3415610b615760405163b398979f60e01b815260040160405180910390fd5b606082612a0857612a0382612a49565b612a42565b8151158015612a1f57506001600160a01b0384163b155b15612a3f5783604051639996b31560e01b8152600401610a149190612bb9565b50805b9392505050565b805115612a595780518082602001fd5b604051630a12f52160e11b815260040160405180910390fd5b6040805160c08101909152806000815260006020820181905260408201819052606082018190526080820181905260a09091015290565b828054828255906000526020600020908101928215612ae4579160200282015b82811115612ae4578251825591602001919060010190612ac9565b50612af0929150612b4e565b5090565b828054828255906000526020600020908101928215612ae45760005260206000209182015b82811115612ae4578254825591600101919060010190612b19565b50805460008255906000526020600020908101906115e691905b5b80821115612af05760008155600101612b4f565b600381106115e657600080fd5b60008060408385031215612b8357600080fd5b823591506020830135612b9581612b63565b809150509250929050565b600060208284031215612bb257600080fd5b5035919050565b6001600160a01b0391909116815260200190565b60005b83811015612be8578181015183820152602001612bd0565b50506000910152565b60008151808452612c09816020860160208601612bcd565b601f01601f19169290920160200192915050565b634e487b7160e01b600052602160045260246000fd5b60038110612c4357612c43612c1d565b9052565b6000815160408452612c5c6040850182612bf1565b60209384015160ff16949093019390935250919050565b60068110612c4357612c43612c1d565b6000610180825184526020830151816020860152612ca382860182612bf1565b91505060408301518482036040860152612cbd8282612bf1565b915050606083015160608501526080830151612ce460808601826001600160a01b03169052565b5060a0830151612cf860a086018215159052565b5060c0830151612d0b60c0860182612c33565b5060e083015160e08501526101008084015181860152506101208084015185830382870152612d3a8382612c47565b9250505061014080840151612d5182870182612c73565b50506101609283015160ff169390920192909252919050565b600060208083016020845280855180835260408601915060408160051b87010192506020870160005b82811015612dc157603f19888603018452612daf858351612c83565b94509285019290850190600101612d93565b5092979650505050505050565b6001600160a01b03811681146115e657600080fd5b600060208284031215612df557600080fd5b8135612a4281612dce565b634e487b7160e01b600052604160045260246000fd5b604080519081016001600160401b0381118282101715612e3857612e38612e00565b60405290565b60405161010081016001600160401b0381118282101715612e3857612e38612e00565b604051601f8201601f191681016001600160401b0381118282101715612e8957612e89612e00565b604052919050565b60006001600160401b03821115612eaa57612eaa612e00565b50601f01601f191660200190565b600082601f830112612ec957600080fd5b8135612edc612ed782612e91565b612e61565b818152846020838601011115612ef157600080fd5b816020850160208301376000918101602001919091529392505050565b60008060408385031215612f2157600080fd5b8235612f2c81612dce565b915060208301356001600160401b03811115612f4757600080fd5b612f5385828601612eb8565b9150509250929050565b60008060008060808587031215612f7357600080fd5b8435935060208501359250604085013560028110612f9057600080fd5b915060608501356001600160401b03811115612fab57600080fd5b612fb787828801612eb8565b91505092959194509250565b602081526000612a426020830184612c83565b600060208284031215612fe857600080fd5b81356001600160401b03811115612ffe57600080fd5b82016101408185031215612a4257600080fd5b602081526000612a426020830184612bf1565b60008060006040848603121561303957600080fd5b8335925060208401356001600160401b038082111561305757600080fd5b818601915086601f83011261306b57600080fd5b81358181111561307a57600080fd5b8760208260051b850101111561308f57600080fd5b6020830194508093505050509250925092565b60006001600160401b038211156130bb576130bb612e00565b5060051b60200190565b600082601f8301126130d657600080fd5b813560206130e6612ed7836130a2565b8083825260208201915060208460051b87010193508684111561310857600080fd5b602086015b84811015613124578035835291830191830161310d565b509695505050505050565b6000806040838503121561314257600080fd5b8235915060208301356001600160401b0381111561315f57600080fd5b612f53858286016130c5565b6000806000806080858703121561318157600080fd5b843561318c81612dce565b9350602085013561319c81612dce565b925060408501356131ac81612dce565b915060608501356131bc81612dce565b939692955090935050565b600181811c908216806131db57607f821691505b6020821081036131fb57634e487b7160e01b600052602260045260246000fd5b50919050565b83815260006020606060208401526000855461321c816131c7565b806060870152608060018084166000811461323e576001811461325a5761328a565b60ff19851660808a0152608084151560051b8a0101955061328a565b8a600052602060002060005b858110156132815781548b8201860152908301908801613266565b8a016080019650505b50505050508092505050611ec46040830184612c33565b6000602082840312156132b357600080fd5b8151612a4281612dce565b80151581146115e657600080fd5b80516112b3816132be565b6000602082840312156132e957600080fd5b8151612a42816132be565b60208082526048908201527f5468697320697320612072656365697665206d6574686f642e204f6e6c79206560408201527f6e64706f696e742773206578656375746f722063616e2063616c6c20746869736060820152671036b2ba3437b21760c11b608082015260a00190565b600060208083018184528085548083526040925060408601915060408160051b8701016000888152858120815b848110156133fd57898403603f1901865281548452878401879052600180830180548987018190529085528985209190859060608801905b808310156133e457845482529383019391830191908c01906133c7565b50988b019896505050600292909201915060010161338f565b50919998505050505050505050565b60006020828403121561341e57600080fd5b5051919050565b60006040828403121561343757600080fd5b61343f612e16565b82518152602083015160208201528091505092915050565b8481526020810184905260a081016002841061347557613475612c1d565b60408201849052825160608301526020830151608083015295945050505050565b6000808335601e198436030181126134ad57600080fd5b8301803591506001600160401b038211156134c757600080fd5b6020019150368190038213156134dc57600080fd5b9250929050565b8183823760009101908152919050565b60006020828403121561350557600080fd5b813560068110612a4257600080fd5b81835281816020850137506000828201602090810191909152601f909101601f19169091010190565b6135478187612c73565b60606020820152600061355e606083018688613514565b8281036040840152613571818587613514565b98975050505050505050565b634e487b7160e01b600052603260045260246000fd5b8181038181111561064f57634e487b7160e01b600052601160045260246000fd5b634e487b7160e01b600052603160045260246000fd5b9182526001600160a01b0316602082015260400190565b8381526001600160a01b03831660208201526060604082018190526000906129cb90830184612bf1565b600061018089835288602084015280604084015261362b81840189612bf1565b9050828103606084015261363f8188612bf1565b905082810360808401526136538187612bf1565b905082810360a08401526136678186612bf1565b91505082516005811061367c5761367c612c1d565b60c0830152602083015160e083015260408301516001600160a01b039081166101008401526060840151811661012084015260808401511661014083015260a090920151610160909101529695505050505050565b80516112b381612b63565b8051600481106112b357600080fd5b600082601f8301126136fc57600080fd5b815161370a612ed782612e91565b81815284602083860101111561371f57600080fd5b611ec4826020830160208701612bcd565b60006020828403121561374257600080fd5b81516001600160401b038082111561375957600080fd5b90830190610100828603121561376e57600080fd5b613776612e3e565b82518152613786602084016136d1565b6020820152613797604084016136dc565b60408201526060830151828111156137ae57600080fd5b6137ba878286016136eb565b6060830152506080830151828111156137d257600080fd5b6137de878286016136eb565b60808301525060a083015160a082015260c083015160c082015261380460e084016132cc565b60e082015295945050505050565b60006020828403121561382457600080fd5b8135612a42816132be565b6000808585111561383f57600080fd5b8386111561384c57600080fd5b5050820193919092039150565b6000806040838503121561386c57600080fd5b82356001600160401b038082111561388357600080fd5b61388f86838701612eb8565b935060208501359150808211156138a557600080fd5b50612f5385828601612eb8565b803560ff811681146112b357600080fd5b6000806000606084860312156138d857600080fd5b83356001600160401b03808211156138ef57600080fd5b6138fb87838801612eb8565b9450602086013591508082111561391157600080fd5b5061391e86828701612eb8565b92505061392d604085016138b2565b90509250925092565b60006020828403121561394857600080fd5b612a42826138b2565b601f8211156105dc576000816000526020600020601f850160051c8101602086101561397a5750805b601f850160051c820191505b818110156115a357828155600101613986565b81516001600160401b038111156139b2576139b2612e00565b6139c6816139c084546131c7565b84613951565b602080601f8311600181146139fb57600084156139e35750858301515b600019600386901b1c1916600185901b1785556115a3565b600085815260208120601f198616915b82811015613a2a57888601518255948401946001909101908401613a0b565b5085821015613a485787850151600019600388901b60f8161c191681555b5050505050600190811b01905550565b858152846020820152608060408201526000613a78608083018587613514565b90508260608301529695505050505050565b600060208284031215613a9c57600080fd5b81356001600160401b03811115613ab257600080fd5b611ec4848285016130c5565b60008151808452602080850194506020840160005b83811015613aef57815187529582019590820190600101613ad3565b509495945050505050565b858152846020820152608060408201526000613b1a608083018587613514565b82810360608401526135718185613abe565b60006020808385031215613b3f57600080fd5b82356001600160401b03811115613b5557600080fd5b8301601f81018513613b6657600080fd5b8035613b74612ed7826130a2565b81815260069190911b82018301908381019087831115613b9357600080fd5b928401925b82841015613bd65760408489031215613bb15760008081fd5b613bb9612e16565b843581528585013586820152825260409093019290840190613b98565b979650505050505050565b85815260006020866020840152604060806040850152613c05608085018789613514565b84810360608601528551808252602080880192019060005b81811015613c4a57613c3a83855180518252602090810151910152565b9285019291840191600101613c1d565b50909b9a5050505050505050505050565b61012081526000613c7161012083018d8f613514565b8281036020840152613c84818c8e613514565b60ff9a909a166040840152505060608101969096526001600160a01b03948516608087015260a086019390935290831660c0850152821660e08401521661010090910152949350505050565b602081528151602082015260006020830151604080840152611ec46060840182613abe565b60008251613d07818460208701612bcd565b919091019291505056fe360894a13ba1a3210667c828492db98dca3e2076cc3735a920a3ca505d382bbca264697066735822122016cc90d6323c5995fecf22827d3fb1fddb080f07f964e4aa53a4534678f5d8af64736f6c63430008180033",
  "linkReferences": {},
  "deployedLinkReferences": {}
}