{
  "_format": "hh-sol-artifact-1",
  "contractName": "PLCommunicatorV1",
  "sourceName": "src/rayls-protocol/PLCommunicator/PLCommunicatorV1.sol",
  "abi": [
    {
      "inputs": [
        {
          "internalType": "address",
          "name": "target",
          "type": "address"
        }
      ],
      "name": "AddressEmptyCode",
      "type": "error"
    },
    {
      "inputs": [
        {
          "internalType": "address",
          "name": "implementation",
          "type": "address"
        }
      ],
      "name": "ERC1967InvalidImplementation",
      "type": "error"
    },
    {
      "inputs": [],
      "name": "ERC1967NonPayable",
      "type": "error"
    },
    {
      "inputs": [],
      "name": "FailedInnerCall",
      "type": "error"
    },
    {
      "inputs": [],
      "name": "InvalidInitialization",
      "type": "error"
    },
    {
      "inputs": [],
      "name": "NotInitializing",
      "type": "error"
    },
    {
      "inputs": [
        {
          "internalType": "address",
          "name": "owner",
          "type": "address"
        }
      ],
      "name": "OwnableInvalidOwner",
      "type": "error"
    },
    {
      "inputs": [
        {
          "internalType": "address",
          "name": "account",
          "type": "address"
        }
      ],
      "name": "OwnableUnauthorizedAccount",
      "type": "error"
    },
    {
      "inputs": [],
      "name": "UUPSUnauthorizedCallContext",
      "type": "error"
    },
    {
      "inputs": [
        {
          "internalType": "bytes32",
          "name": "slot",
          "type": "bytes32"
        }
      ],
      "name": "UUPSUnsupportedProxiableUUID",
      "type": "error"
    },
    {
      "anonymous": false,
      "inputs": [
        {
          "indexed": false,
          "internalType": "uint64",
          "name": "version",
          "type": "uint64"
        }
      ],
      "name": "Initialized",
      "type": "event"
    },
    {
      "anonymous": false,
      "inputs": [
        {
          "indexed": true,
          "internalType": "address",
          "name": "previousOwner",
          "type": "address"
        },
        {
          "indexed": true,
          "internalType": "address",
          "name": "newOwner",
          "type": "address"
        }
      ],
      "name": "OwnershipTransferred",
      "type": "event"
    },
    {
      "anonymous": false,
      "inputs": [
        {
          "indexed": false,
          "internalType": "bytes32",
          "name": "sharedId",
          "type": "bytes32"
        },
        {
          "indexed": false,
          "internalType": "uint256",
          "name": "status",
          "type": "uint256"
        },
        {
          "indexed": false,
          "internalType": "uint256",
          "name": "blockNumber",
          "type": "uint256"
        },
        {
          "indexed": false,
          "internalType": "string",
          "name": "message",
          "type": "string"
        },
        {
          "indexed": false,
          "internalType": "uint256",
          "name": "index",
          "type": "uint256"
        }
      ],
      "name": "SharedInfoAdded",
      "type": "event"
    },
    {
      "anonymous": false,
      "inputs": [
        {
          "indexed": false,
          "internalType": "bytes32",
          "name": "sharedId",
          "type": "bytes32"
        },
        {
          "indexed": false,
          "internalType": "uint256",
          "name": "index",
          "type": "uint256"
        }
      ],
      "name": "SharedInfoRemoved",
      "type": "event"
    },
    {
      "anonymous": false,
      "inputs": [
        {
          "indexed": true,
          "internalType": "address",
          "name": "implementation",
          "type": "address"
        }
      ],
      "name": "Upgraded",
      "type": "event"
    },
    {
      "inputs": [],
      "name": "UPGRADE_INTERFACE_VERSION",
      "outputs": [
        {
          "internalType": "string",
          "name": "",
          "type": "string"
        }
      ],
      "stateMutability": "view",
      "type": "function"
    },
    {
      "inputs": [
        {
          "internalType": "bytes32",
          "name": "_sharedId",
          "type": "bytes32"
        },
        {
          "internalType": "uint256",
          "name": "_status",
          "type": "uint256"
        },
        {
          "internalType": "uint256",
          "name": "_context",
          "type": "uint256"
        },
        {
          "internalType": "string",
          "name": "_message",
          "type": "string"
        }
      ],
      "name": "addSharedInfo",
      "outputs": [],
      "stateMutability": "nonpayable",
      "type": "function"
    },
    {
      "inputs": [],
      "name": "contractVersion",
      "outputs": [
        {
          "internalType": "uint256",
          "name": "",
          "type": "uint256"
        }
      ],
      "stateMutability": "pure",
      "type": "function"
    },
    {
      "inputs": [],
      "name": "endpoint",
      "outputs": [
        {
          "internalType": "contract IRaylsEndpoint",
          "name": "",
          "type": "address"
        }
      ],
      "stateMutability": "view",
      "type": "function"
    },
    {
      "inputs": [
        {
          "internalType": "bytes32",
          "name": "_resourceId",
          "type": "bytes32"
        }
      ],
      "name": "getAddressByResourceId",
      "outputs": [
        {
          "internalType": "address",
          "name": "",
          "type": "address"
        }
      ],
      "stateMutability": "view",
      "type": "function"
    },
    {
      "inputs": [
        {
          "internalType": "bytes32",
          "name": "_sharedId",
          "type": "bytes32"
        }
      ],
      "name": "getAllSharedInfo",
      "outputs": [
        {
          "internalType": "uint256",
          "name": "context",
          "type": "uint256"
        },
        {
          "components": [
            {
              "internalType": "uint256",
              "name": "status",
              "type": "uint256"
            },
            {
              "internalType": "uint256",
              "name": "blockNumber",
              "type": "uint256"
            },
            {
              "internalType": "string",
              "name": "message",
              "type": "string"
            }
          ],
          "internalType": "struct SharedObjects.CommunicatiorDataHistory[]",
          "name": "",
          "type": "tuple[]"
        }
      ],
      "stateMutability": "view",
      "type": "function"
    },
    {
      "inputs": [
        {
          "internalType": "bytes32",
          "name": "_sharedId",
          "type": "bytes32"
        }
      ],
      "name": "getSharedInfo",
      "outputs": [
        {
          "internalType": "uint256",
          "name": "status",
          "type": "uint256"
        },
        {
          "internalType": "uint256",
          "name": "blockNumber",
          "type": "uint256"
        },
        {
          "internalType": "string",
          "name": "message",
          "type": "string"
        },
        {
          "internalType": "uint256",
          "name": "context",
          "type": "uint256"
        }
      ],
      "stateMutability": "view",
      "type": "function"
    },
    {
      "inputs": [
        {
          "internalType": "bytes32",
          "name": "_sharedId",
          "type": "bytes32"
        },
        {
          "internalType": "uint256",
          "name": "_index",
          "type": "uint256"
        }
      ],
      "name": "getSharedInfoAt",
      "outputs": [
        {
          "internalType": "uint256",
          "name": "status",
          "type": "uint256"
        },
        {
          "internalType": "uint256",
          "name": "blockNumber",
          "type": "uint256"
        },
        {
          "internalType": "string",
          "name": "message",
          "type": "string"
        },
        {
          "internalType": "uint256",
          "name": "context",
          "type": "uint256"
        }
      ],
      "stateMutability": "view",
      "type": "function"
    },
    {
      "inputs": [
        {
          "internalType": "bytes32",
          "name": "_sharedId",
          "type": "bytes32"
        }
      ],
      "name": "getSharedInfoCount",
      "outputs": [
        {
          "internalType": "uint256",
          "name": "",
          "type": "uint256"
        }
      ],
      "stateMutability": "view",
      "type": "function"
    },
    {
      "inputs": [
        {
          "internalType": "bytes32",
          "name": "_sharedId",
          "type": "bytes32"
        }
      ],
      "name": "hasSharedInfo",
      "outputs": [
        {
          "internalType": "bool",
          "name": "",
          "type": "bool"
        }
      ],
      "stateMutability": "view",
      "type": "function"
    },
    {
      "inputs": [
        {
          "internalType": "address",
          "name": "_initialOwner",
          "type": "address"
        },
        {
          "internalType": "address",
          "name": "_endpointAddress",
          "type": "address"
        }
      ],
      "name": "initialize",
      "outputs": [],
      "stateMutability": "nonpayable",
      "type": "function"
    },
    {
      "inputs": [
        {
          "internalType": "address",
          "name": "_endpoint",
          "type": "address"
        }
      ],
      "name": "initialize",
      "outputs": [],
      "stateMutability": "nonpayable",
      "type": "function"
    },
    {
      "inputs": [],
      "name": "owner",
      "outputs": [
        {
          "internalType": "address",
          "name": "",
          "type": "address"
        }
      ],
      "stateMutability": "view",
      "type": "function"
    },
    {
      "inputs": [],
      "name": "proxiableUUID",
      "outputs": [
        {
          "internalType": "bytes32",
          "name": "",
          "type": "bytes32"
        }
      ],
      "stateMutability": "view",
      "type": "function"
    },
    {
      "inputs": [
        {
          "internalType": "bytes32",
          "name": "_sharedId",
          "type": "bytes32"
        }
      ],
      "name": "removeSharedInfo",
      "outputs": [],
      "stateMutability": "nonpayable",
      "type": "function"
    },
    {
      "inputs": [
        {
          "internalType": "bytes32",
          "name": "_sharedId",
          "type": "bytes32"
        },
        {
          "internalType": "uint256",
          "name": "_index",
          "type": "uint256"
        }
      ],
      "name": "removeSharedInfoAt",
      "outputs": [],
      "stateMutability": "nonpayable",
      "type": "function"
    },
    {
      "inputs": [],
      "name": "renounceOwnership",
      "outputs": [],
      "stateMutability": "nonpayable",
      "type": "function"
    },
    {
      "inputs": [],
      "name": "resourceId",
      "outputs": [
        {
          "internalType": "bytes32",
          "name": "",
          "type": "bytes32"
        }
      ],
      "stateMutability": "view",
      "type": "function"
    },
    {
      "inputs": [
        {
          "internalType": "address",
          "name": "newOwner",
          "type": "address"
        }
      ],
      "name": "transferOwnership",
      "outputs": [],
      "stateMutability": "nonpayable",
      "type": "function"
    },
    {
      "inputs": [
        {
          "internalType": "address",
          "name": "newImplementation",
          "type": "address"
        },
        {
          "internalType": "bytes",
          "name": "data",
          "type": "bytes"
        }
      ],
      "name": "upgradeToAndCall",
      "outputs": [],
      "stateMutability": "payable",
      "type": "function"
    }
  ],
  "bytecode": "0x60a06040523060805234801561001457600080fd5b506080516118fb61003e60003960008181610d4501528181610d6e0152610eab01526118fb6000f3fe6080604052600436106100ff5760003560e01c80635f997c5b116100905780635f997c5b1461028e578063715018a6146102a45780638da5cb5b146102b9578063976e3744146102ce578063a0a8e460146102fc578063ad3cb1cc14610310578063c4d66de81461034e578063cba06a481461036e578063db76edaa1461038e578063f2fde38b146103ae57600080fd5b80630f4ea0c51461010457806311f50c851461013d5780632262357b1461016a578063485cc9551461018a5780634888c7bb146101ac5780634f1ef286146101eb57806352d1902d146101fe57806358f48ebf146102215780635c7a85201461024e5780635e280f111461026e575b600080fd5b34801561011057600080fd5b5061012461011f366004611246565b6103ce565b60405161013494939291906112b8565b60405180910390f35b34801561014957600080fd5b5061015d6101583660046112e8565b61051b565b6040516101349190611301565b34801561017657600080fd5b506101246101853660046112e8565b61058f565b34801561019657600080fd5b506101aa6101a536600461132a565b610704565b005b3480156101b857600080fd5b506101db6101c73660046112e8565b600090815260026020526040902054151590565b6040519015158152602001610134565b6101aa6101f93660046113ee565b61087a565b34801561020a57600080fd5b50610213610899565b604051908152602001610134565b34801561022d57600080fd5b5061021361023c3660046112e8565b60009081526002602052604090205490565b34801561025a57600080fd5b506101aa6102693660046112e8565b6108b6565b34801561027a57600080fd5b5060005461015d906001600160a01b031681565b34801561029a57600080fd5b5061021360015481565b3480156102b057600080fd5b506101aa6108dc565b3480156102c557600080fd5b5061015d6108f0565b3480156102da57600080fd5b506102ee6102e93660046112e8565b61090b565b604051610134929190611451565b34801561030857600080fd5b506001610213565b34801561031c57600080fd5b50610341604051806040016040528060058152602001640352e302e360dc1b81525081565b60405161013491906114d9565b34801561035a57600080fd5b506101aa6103693660046114ec565b610a27565b34801561037a57600080fd5b506101aa610389366004611246565b610a51565b34801561039a57600080fd5b506101aa6103a9366004611509565b610bc6565b3480156103ba57600080fd5b506101aa6103c93660046114ec565b610cbf565b60008281526002602052604081205481906060908290851061040b5760405162461bcd60e51b815260040161040290611576565b60405180910390fd5b600086815260026020526040812080548790811061042b5761042b6115a3565b90600052602060002090600302016040518060600160405290816000820154815260200160018201548152602001600282018054610468906115b9565b80601f0160208091040260200160405190810160405280929190818152602001828054610494906115b9565b80156104e15780601f106104b6576101008083540402835291602001916104e1565b820191906000526020600020905b8154815290600101906020018083116104c457829003601f168201915b505050919092525050815160208084015160409485015160009c8d52600290925293909a2060010154909a92999850965090945050505050565b600080546040516311f50c8560e01b8152600481018490526001600160a01b03909116906311f50c8590602401602060405180830381865afa158015610565573d6000803e3d6000fd5b505050506040513d601f19601f8201168201806040525081019061058991906115f3565b92915050565b600081815260026020526040812054819060609082906105e95760405162461bcd60e51b81526020600482015260156024820152744e6f2073686172656420696e666f2065786973747360581b6044820152606401610402565b6000858152600260205260408120805461060590600190611610565b81548110610615576106156115a3565b90600052602060002090600302016040518060600160405290816000820154815260200160018201548152602001600282018054610652906115b9565b80601f016020809104026020016040519081016040528092919081815260200182805461067e906115b9565b80156106cb5780601f106106a0576101008083540402835291602001916106cb565b820191906000526020600020905b8154815290600101906020018083116106ae57829003601f168201915b505050919092525050815160208084015160409485015160009b8c52600290925293909920600101549099929897509550909350505050565b600061070e610cfd565b805490915060ff600160401b82041615906001600160401b03166000811580156107355750825b90506000826001600160401b031660011480156107515750303b155b90508115801561075f575080155b1561077d5760405163f92ee8a960e01b815260040160405180910390fd5b845467ffffffffffffffff1916600117855583156107a757845460ff60401b1916600160401b1785555b6107b087610d21565b6107b8610d32565b6107c186610a27565b6005600181905560005460405163d4f951c760e01b815260048101929092523060248301526001600160a01b03169063d4f951c790604401600060405180830381600087803b15801561081357600080fd5b505af1158015610827573d6000803e3d6000fd5b50505050831561087157845460ff60401b19168555604051600181527fc7f505b2f371ae2175ee4913f4499e1f2633a7b5936321eed1cdaeb6115181d29060200160405180910390a15b50505050505050565b610882610d3a565b61088b82610ddf565b6108958282610de7565b5050565b60006108a3610ea0565b506000805160206118a683398151915290565b6000818152600260205260408120906108cf82826111a8565b6001820160009055505050565b6108e4610ee9565b6108ee6000610f1b565b565b6000806108fb610f77565b546001600160a01b031692915050565b600081815260026020908152604080832060018101548154835181860281018601909452808452606094919391839190879084015b82821015610a1857838290600052602060002090600302016040518060600160405290816000820154815260200160018201548152602001600282018054610987906115b9565b80601f01602080910402602001604051908101604052809291908181526020018280546109b3906115b9565b8015610a005780601f106109d557610100808354040283529160200191610a00565b820191906000526020600020905b8154815290600101906020018083116109e357829003601f168201915b50505050508152505081526020019060010190610940565b50505050905091509150915091565b610a2f610f9b565b600080546001600160a01b0319166001600160a01b0392909216919091179055565b6000828152600260205260409020548110610a7e5760405162461bcd60e51b815260040161040290611576565b600082815260026020526040902054610a9990600190611610565b811015610b3b5760008281526002602052604090208054610abc90600190611610565b81548110610acc57610acc6115a3565b9060005260206000209060030201600260008481526020019081526020016000206000018281548110610b0157610b016115a3565b9060005260206000209060030201600082015481600001556001820154816001015560028201816002019081610b379190611696565b5050505b6000828152600260205260409020805480610b5857610b58611770565b6000828152602081206003600019909301928302018181556001810182905590610b8560028301826111c9565b5050905560408051838152602081018390527fcdf34371fb3ddbefe693dfd0f972e9beeb51f181fbc68ac5094ce3ae89e80402910160405180910390a15050565b60408051606081018252848152436020808301919091528183018490526000878152600290915291822054909103610c0d5760008581526002602052604090206001018390555b60008581526002602081815260408084208054600181810183559186529483902086516003909602019485559185015191840191909155830151839291820190610c579082611786565b5050506000858152600260205260409020547fe00365e63912d463887c3d0161120235b0a762e8d01193f8691ed6a9b66700e4908690869043908690610c9f90600190611610565b604051610cb0959493929190611839565b60405180910390a15050505050565b610cc7610ee9565b6001600160a01b038116610cf1576000604051631e4fbdf760e01b81526004016104029190611301565b610cfa81610f1b565b50565b7ff0c57e16840df040f15088dc2f81fe391c3923bec73e23a9662efc9c229c6a0090565b610d29610f9b565b610cfa81610fc0565b6108ee610f9b565b306001600160a01b037f0000000000000000000000000000000000000000000000000000000000000000161480610dc157507f00000000000000000000000000000000000000000000000000000000000000006001600160a01b0316610db56000805160206118a6833981519152546001600160a01b031690565b6001600160a01b031614155b156108ee5760405163703e46dd60e11b815260040160405180910390fd5b610cfa610ee9565b816001600160a01b03166352d1902d6040518163ffffffff1660e01b8152600401602060405180830381865afa925050508015610e41575060408051601f3d908101601f19168201909252610e3e91810190611870565b60015b610e605781604051634c9c8ce360e01b81526004016104029190611301565b6000805160206118a68339815191528114610e9157604051632a87526960e21b815260048101829052602401610402565b610e9b8383610fc8565b505050565b306001600160a01b037f000000000000000000000000000000000000000000000000000000000000000016146108ee5760405163703e46dd60e11b815260040160405180910390fd5b33610ef26108f0565b6001600160a01b0316146108ee573360405163118cdaa760e01b81526004016104029190611301565b6000610f25610f77565b80546001600160a01b038481166001600160a01b031983168117845560405193945091169182907f8be0079c531659141344cd1fd0a4f28419497f9722a3daafe3b4186f6b6457e090600090a3505050565b7f9016d09d72d40fdae2fd8ceac6b6234c7706214fd39c1cd1e609a0528c19930090565b610fa361101e565b6108ee57604051631afcd79f60e31b815260040160405180910390fd5b610cc7610f9b565b610fd182611038565b6040516001600160a01b038316907fbc7cd75a20ee27fd9adebab32041f755214dbc6bffa90cc0225b39da2e5c2d3b90600090a280511561101657610e9b8282611094565b61089561110a565b6000611028610cfd565b54600160401b900460ff16919050565b806001600160a01b03163b6000036110655780604051634c9c8ce360e01b81526004016104029190611301565b6000805160206118a683398151915280546001600160a01b0319166001600160a01b0392909216919091179055565b6060600080846001600160a01b0316846040516110b19190611889565b600060405180830381855af49150503d80600081146110ec576040519150601f19603f3d011682016040523d82523d6000602084013e6110f1565b606091505b5091509150611101858383611129565b95945050505050565b34156108ee5760405163b398979f60e01b815260040160405180910390fd5b60608261113e576111398261117f565b611178565b815115801561115557506001600160a01b0384163b155b156111755783604051639996b31560e01b81526004016104029190611301565b50805b9392505050565b80511561118f5780518082602001fd5b604051630a12f52160e11b815260040160405180910390fd5b5080546000825560030290600052602060002090810190610cfa9190611203565b5080546111d5906115b9565b6000825580601f106111e5575050565b601f016020900490600052602060002090810190610cfa9190611231565b8082111561122d5760008082556001820181905561122460028301826111c9565b50600301611203565b5090565b5b8082111561122d5760008155600101611232565b6000806040838503121561125957600080fd5b50508035926020909101359150565b60005b8381101561128357818101518382015260200161126b565b50506000910152565b600081518084526112a4816020860160208601611268565b601f01601f19169290920160200192915050565b8481528360208201526080604082015260006112d7608083018561128c565b905082606083015295945050505050565b6000602082840312156112fa57600080fd5b5035919050565b6001600160a01b0391909116815260200190565b6001600160a01b0381168114610cfa57600080fd5b6000806040838503121561133d57600080fd5b823561134881611315565b9150602083013561135881611315565b809150509250929050565b634e487b7160e01b600052604160045260246000fd5b60006001600160401b038084111561139357611393611363565b604051601f8501601f19908116603f011681019082821181831017156113bb576113bb611363565b816040528093508581528686860111156113d457600080fd5b858560208301376000602087830101525050509392505050565b6000806040838503121561140157600080fd5b823561140c81611315565b915060208301356001600160401b0381111561142757600080fd5b8301601f8101851361143857600080fd5b61144785823560208401611379565b9150509250929050565b6000604080830185845260206040818601528186518084526060935060608701915060608160051b88010183890160005b838110156114c957898303605f1901855281518051845286810151878501528801518884018890526114b68885018261128c565b9587019593505090850190600101611482565b50909a9950505050505050505050565b602081526000611178602083018461128c565b6000602082840312156114fe57600080fd5b813561117881611315565b6000806000806080858703121561151f57600080fd5b84359350602085013592506040850135915060608501356001600160401b0381111561154a57600080fd5b8501601f8101871361155b57600080fd5b61156a87823560208401611379565b91505092959194509250565b602080825260139082015272496e646578206f7574206f6620626f756e647360681b604082015260600190565b634e487b7160e01b600052603260045260246000fd5b600181811c908216806115cd57607f821691505b6020821081036115ed57634e487b7160e01b600052602260045260246000fd5b50919050565b60006020828403121561160557600080fd5b815161117881611315565b8181038181111561058957634e487b7160e01b600052601160045260246000fd5b601f821115610e9b576000816000526020600020601f850160051c8101602086101561165a5750805b601f850160051c820191505b8181101561167957828155600101611666565b505050505050565b600019600383901b1c191660019190911b1790565b8181036116a1575050565b6116ab82546115b9565b6001600160401b038111156116c2576116c2611363565b6116d6816116d084546115b9565b84611631565b6000601f82116001811461170457600083156116f25750848201545b6116fc8482611681565b855550611769565b600085815260209020601f19841690600086815260209020845b8381101561173e578286015482556001958601959091019060200161171e565b508583101561175c5781850154600019600388901b60f8161c191681555b50505060018360011b0184555b5050505050565b634e487b7160e01b600052603160045260246000fd5b81516001600160401b0381111561179f5761179f611363565b6117ad816116d084546115b9565b602080601f8311600181146117dc57600084156117ca5750858301515b6117d48582611681565b865550611679565b600085815260208120601f198616915b8281101561180b578886015182559484019460019091019084016117ec565b50858210156118295787850151600019600388901b60f8161c191681555b5050505050600190811b01905550565b85815284602082015283604082015260a06060820152600061185e60a083018561128c565b90508260808301529695505050505050565b60006020828403121561188257600080fd5b5051919050565b6000825161189b818460208701611268565b919091019291505056fe360894a13ba1a3210667c828492db98dca3e2076cc3735a920a3ca505d382bbca2646970667358221220c8844244e50f2efedf5f8d569d8a70da6d958efe24a97e91cbb0b8d7d98388f064736f6c63430008180033",
  "linkReferences": {},
  "deployedLinkReferences": {}
}