{
  "_format": "hh-sol-artifact-1",
  "contractName": "ParticipantStorageReplicaV2",
  "sourceName": "src/rayls-protocol/ParticipantStorageReplica/ParticipantStorageReplicaV2.sol",
  "abi": [
    {
      "inputs": [
        {
          "internalType": "address",
          "name": "target",
          "type": "address"
        }
      ],
      "name": "AddressEmptyCode",
      "type": "error"
    },
    {
      "inputs": [
        {
          "internalType": "address",
          "name": "implementation",
          "type": "address"
        }
      ],
      "name": "ERC1967InvalidImplementation",
      "type": "error"
    },
    {
      "inputs": [],
      "name": "ERC1967NonPayable",
      "type": "error"
    },
    {
      "inputs": [],
      "name": "FailedInnerCall",
      "type": "error"
    },
    {
      "inputs": [],
      "name": "InvalidInitialization",
      "type": "error"
    },
    {
      "inputs": [],
      "name": "NotInitializing",
      "type": "error"
    },
    {
      "inputs": [
        {
          "internalType": "address",
          "name": "owner",
          "type": "address"
        }
      ],
      "name": "OwnableInvalidOwner",
      "type": "error"
    },
    {
      "inputs": [
        {
          "internalType": "address",
          "name": "account",
          "type": "address"
        }
      ],
      "name": "OwnableUnauthorizedAccount",
      "type": "error"
    },
    {
      "inputs": [],
      "name": "UUPSUnauthorizedCallContext",
      "type": "error"
    },
    {
      "inputs": [
        {
          "internalType": "bytes32",
          "name": "slot",
          "type": "bytes32"
        }
      ],
      "name": "UUPSUnsupportedProxiableUUID",
      "type": "error"
    },
    {
      "anonymous": false,
      "inputs": [
        {
          "indexed": false,
          "internalType": "uint64",
          "name": "version",
          "type": "uint64"
        }
      ],
      "name": "Initialized",
      "type": "event"
    },
    {
      "anonymous": false,
      "inputs": [
        {
          "indexed": true,
          "internalType": "address",
          "name": "previousOwner",
          "type": "address"
        },
        {
          "indexed": true,
          "internalType": "address",
          "name": "newOwner",
          "type": "address"
        }
      ],
      "name": "OwnershipTransferred",
      "type": "event"
    },
    {
      "anonymous": false,
      "inputs": [
        {
          "indexed": true,
          "internalType": "address",
          "name": "implementation",
          "type": "address"
        }
      ],
      "name": "Upgraded",
      "type": "event"
    },
    {
      "inputs": [],
      "name": "UPGRADE_INTERFACE_VERSION",
      "outputs": [
        {
          "internalType": "string",
          "name": "",
          "type": "string"
        }
      ],
      "stateMutability": "view",
      "type": "function"
    },
    {
      "inputs": [
        {
          "components": [
            {
              "internalType": "uint256",
              "name": "chainId",
              "type": "uint256"
            },
            {
              "internalType": "enum ParticipantStorageV1.Role",
              "name": "role",
              "type": "uint8"
            },
            {
              "internalType": "enum ParticipantStorageV1.Status",
              "name": "status",
              "type": "uint8"
            },
            {
              "internalType": "string",
              "name": "ownerId",
              "type": "string"
            },
            {
              "internalType": "string",
              "name": "name",
              "type": "string"
            },
            {
              "internalType": "uint256",
              "name": "createdAt",
              "type": "uint256"
            },
            {
              "internalType": "uint256",
              "name": "updatedAt",
              "type": "uint256"
            },
            {
              "internalType": "bool",
              "name": "allowedToBroadcast",
              "type": "bool"
            }
          ],
          "internalType": "struct ParticipantStorageV1.Participant[]",
          "name": "_participants",
          "type": "tuple[]"
        }
      ],
      "name": "addOrUpdateParticipants",
      "outputs": [],
      "stateMutability": "nonpayable",
      "type": "function"
    },
    {
      "inputs": [
        {
          "internalType": "uint256[]",
          "name": "_sharedSecrets",
          "type": "uint256[]"
        },
        {
          "internalType": "uint256[]",
          "name": "_orderedChainIds",
          "type": "uint256[]"
        },
        {
          "internalType": "uint256",
          "name": "_PLChainId",
          "type": "uint256"
        }
      ],
      "name": "broadcastAndSetSharedSecrets",
      "outputs": [],
      "stateMutability": "nonpayable",
      "type": "function"
    },
    {
      "inputs": [],
      "name": "contractVersion",
      "outputs": [
        {
          "internalType": "uint256",
          "name": "",
          "type": "uint256"
        }
      ],
      "stateMutability": "pure",
      "type": "function"
    },
    {
      "inputs": [],
      "name": "endpoint",
      "outputs": [
        {
          "internalType": "contract IRaylsEndpoint",
          "name": "",
          "type": "address"
        }
      ],
      "stateMutability": "view",
      "type": "function"
    },
    {
      "inputs": [
        {
          "internalType": "bytes32",
          "name": "_resourceId",
          "type": "bytes32"
        }
      ],
      "name": "getAddressByResourceId",
      "outputs": [
        {
          "internalType": "address",
          "name": "",
          "type": "address"
        }
      ],
      "stateMutability": "view",
      "type": "function"
    },
    {
      "inputs": [],
      "name": "getAllParticipants",
      "outputs": [
        {
          "components": [
            {
              "internalType": "uint256",
              "name": "chainId",
              "type": "uint256"
            },
            {
              "internalType": "enum ParticipantStorageV1.Role",
              "name": "role",
              "type": "uint8"
            },
            {
              "internalType": "enum ParticipantStorageV1.Status",
              "name": "status",
              "type": "uint8"
            },
            {
              "internalType": "string",
              "name": "ownerId",
              "type": "string"
            },
            {
              "internalType": "string",
              "name": "name",
              "type": "string"
            },
            {
              "internalType": "uint256",
              "name": "createdAt",
              "type": "uint256"
            },
            {
              "internalType": "uint256",
              "name": "updatedAt",
              "type": "uint256"
            },
            {
              "internalType": "bool",
              "name": "allowedToBroadcast",
              "type": "bool"
            }
          ],
          "internalType": "struct ParticipantStorageV1.Participant[]",
          "name": "",
          "type": "tuple[]"
        }
      ],
      "stateMutability": "view",
      "type": "function"
    },
    {
      "inputs": [
        {
          "internalType": "uint256",
          "name": "chainId",
          "type": "uint256"
        }
      ],
      "name": "getSharedSecret",
      "outputs": [
        {
          "internalType": "uint256",
          "name": "",
          "type": "uint256"
        }
      ],
      "stateMutability": "view",
      "type": "function"
    },
    {
      "inputs": [],
      "name": "getSharedSecrets",
      "outputs": [
        {
          "internalType": "uint256[]",
          "name": "",
          "type": "uint256[]"
        }
      ],
      "stateMutability": "view",
      "type": "function"
    },
    {
      "inputs": [
        {
          "internalType": "address",
          "name": "initialOwner",
          "type": "address"
        },
        {
          "internalType": "address",
          "name": "_endpoint",
          "type": "address"
        }
      ],
      "name": "initialize",
      "outputs": [],
      "stateMutability": "nonpayable",
      "type": "function"
    },
    {
      "inputs": [
        {
          "internalType": "address",
          "name": "_endpoint",
          "type": "address"
        }
      ],
      "name": "initialize",
      "outputs": [],
      "stateMutability": "nonpayable",
      "type": "function"
    },
    {
      "inputs": [],
      "name": "initializeV2",
      "outputs": [],
      "stateMutability": "nonpayable",
      "type": "function"
    },
    {
      "inputs": [],
      "name": "isSetupSharedSecretsFinished",
      "outputs": [
        {
          "internalType": "bool",
          "name": "",
          "type": "bool"
        }
      ],
      "stateMutability": "view",
      "type": "function"
    },
    {
      "inputs": [],
      "name": "owner",
      "outputs": [
        {
          "internalType": "address",
          "name": "",
          "type": "address"
        }
      ],
      "stateMutability": "view",
      "type": "function"
    },
    {
      "inputs": [],
      "name": "plChainId",
      "outputs": [
        {
          "internalType": "uint256",
          "name": "",
          "type": "uint256"
        }
      ],
      "stateMutability": "view",
      "type": "function"
    },
    {
      "inputs": [],
      "name": "proxiableUUID",
      "outputs": [
        {
          "internalType": "bytes32",
          "name": "",
          "type": "bytes32"
        }
      ],
      "stateMutability": "view",
      "type": "function"
    },
    {
      "inputs": [
        {
          "internalType": "uint256",
          "name": "value",
          "type": "uint256"
        },
        {
          "internalType": "uint256[]",
          "name": "orderedChainIds",
          "type": "uint256[]"
        },
        {
          "internalType": "uint256",
          "name": "chainIdReceiver",
          "type": "uint256"
        }
      ],
      "name": "receiveSharedSecret",
      "outputs": [],
      "stateMutability": "nonpayable",
      "type": "function"
    },
    {
      "inputs": [],
      "name": "renounceOwnership",
      "outputs": [],
      "stateMutability": "nonpayable",
      "type": "function"
    },
    {
      "inputs": [],
      "name": "requestAllParticipantsDataFromCommitChain",
      "outputs": [],
      "stateMutability": "nonpayable",
      "type": "function"
    },
    {
      "inputs": [],
      "name": "resourceId",
      "outputs": [
        {
          "internalType": "bytes32",
          "name": "",
          "type": "bytes32"
        }
      ],
      "stateMutability": "view",
      "type": "function"
    },
    {
      "inputs": [
        {
          "internalType": "address",
          "name": "newOwner",
          "type": "address"
        }
      ],
      "name": "transferOwnership",
      "outputs": [],
      "stateMutability": "nonpayable",
      "type": "function"
    },
    {
      "inputs": [
        {
          "internalType": "address",
          "name": "newImplementation",
          "type": "address"
        },
        {
          "internalType": "bytes",
          "name": "data",
          "type": "bytes"
        }
      ],
      "name": "upgradeToAndCall",
      "outputs": [],
      "stateMutability": "payable",
      "type": "function"
    },
    {
      "inputs": [
        {
          "internalType": "uint256",
          "name": "originChainId",
          "type": "uint256"
        },
        {
          "internalType": "uint256",
          "name": "destinationChainId",
          "type": "uint256"
        }
      ],
      "name": "validateMessageParticipants",
      "outputs": [],
      "stateMutability": "view",
      "type": "function"
    }
  ],
  "bytecode": "0x60a06040523060805234801561001457600080fd5b506080516124b761003e6000396000818161117b015281816111a401526112dc01526124b76000f3fe6080604052600436106101205760003560e01c8063715018a6116100a6578063715018a614610280578063899cb662146102955780638da5cb5b146102b55780639acc1730146102ca578063a0a8e460146102ec578063ad3cb1cc14610300578063bb5cf0201461033e578063c4d66de81461035e578063cd93db191461037e578063d5c3614f14610393578063d6d087a5146103b3578063f2fde38b146103e057600080fd5b806311f50c8514610125578063195ec9ee1461015b57806320c89d9a1461017d57806339dd85fd146101a7578063485cc955146101c95780634f1ef286146101e957806352d1902d146101fc5780635366405c1461021f5780635cd8a76b146102355780635e280f111461024a5780635f997c5b1461026a575b600080fd5b34801561013157600080fd5b50610145610140366004611a72565b610400565b6040516101529190611a8b565b60405180910390f35b34801561016757600080fd5b50610170610474565b6040516101529190611b19565b34801561018957600080fd5b506008546101979060ff1681565b6040519015158152602001610152565b3480156101b357600080fd5b506101c76101c2366004611d08565b61069d565b005b3480156101d557600080fd5b506101c76101e4366004611d6c565b61075a565b6101c76101f7366004611dfc565b6108ce565b34801561020857600080fd5b506102116108ed565b604051908152602001610152565b34801561022b57600080fd5b5061021160075481565b34801561024157600080fd5b506101c761090b565b34801561025657600080fd5b50600054610145906001600160a01b031681565b34801561027657600080fd5b5061021160015481565b34801561028c57600080fd5b506101c76109cb565b3480156102a157600080fd5b506101c76102b0366004611ebb565b6109df565b3480156102c157600080fd5b50610145610b86565b3480156102d657600080fd5b506102df610ba1565b6040516101529190612055565b3480156102f857600080fd5b506002610211565b34801561030c57600080fd5b50610331604051806040016040528060058152602001640352e302e360dc1b81525081565b6040516101529190612068565b34801561034a57600080fd5b506101c761035936600461207b565b610bf9565b34801561036a57600080fd5b506101c76103793660046120d6565b610e85565b34801561038a57600080fd5b506101c7610eaf565b34801561039f57600080fd5b506101c76103ae3660046120f3565b610f7e565b3480156103bf57600080fd5b506102116103ce366004611a72565b60009081526005602052604090205490565b3480156103ec57600080fd5b506101c76103fb3660046120d6565b61100f565b600080546040516311f50c8560e01b8152600481018490526001600160a01b03909116906311f50c8590602401602060405180830381865afa15801561044a573d6000803e3d6000fd5b505050506040513d601f19601f8201168201806040525081019061046e9190612115565b92915050565b60606002805480602002602001604051908101604052809291908181526020016000905b82821015610694578382906000526020600020906007020160405180610100016040529081600082015481526020016001820160009054906101000a900460ff1660028111156104ea576104ea611a9f565b60028111156104fb576104fb611a9f565b81526020016001820160019054906101000a900460ff16600381111561052357610523611a9f565b600381111561053457610534611a9f565b815260200160028201805461054890612132565b80601f016020809104026020016040519081016040528092919081815260200182805461057490612132565b80156105c15780601f10610596576101008083540402835291602001916105c1565b820191906000526020600020905b8154815290600101906020018083116105a457829003601f168201915b505050505081526020016003820180546105da90612132565b80601f016020809104026020016040519081016040528092919081815260200182805461060690612132565b80156106535780601f1061062857610100808354040283529160200191610653565b820191906000526020600020905b81548152906001019060200180831161063657829003601f168201915b505050918352505060048201546020808301919091526005830154604083015260069092015460ff1615156060909101529082526001929092019101610498565b50505050905090565b6000546040516333932be560e11b81526001600160a01b039091169063672657ca906106cd903390600401611a8b565b602060405180830381865afa1580156106ea573d6000803e3d6000fd5b505050506040513d601f19601f8201168201806040525081019061070e919061216c565b6107335760405162461bcd60e51b815260040161072a90612189565b60405180910390fd5b806007540361075557600061074661104a565b905061075381858561105e565b505b505050565b6000610764611133565b805490915060ff600160401b82041615906001600160401b031660008115801561078b5750825b90506000826001600160401b031660011480156107a75750303b155b9050811580156107b5575080155b156107d35760405163f92ee8a960e01b815260040160405180910390fd5b845467ffffffffffffffff1916600117855583156107fd57845460ff60401b1916600160401b1785555b610805611157565b61080e8761115f565b61081786610e85565b600180805560005460405163d4f951c760e01b815260048101929092523060248301526001600160a01b03169063d4f951c790604401600060405180830381600087803b15801561086757600080fd5b505af115801561087b573d6000803e3d6000fd5b5050505083156108c557845460ff60401b19168555604051600181527fc7f505b2f371ae2175ee4913f4499e1f2633a7b5936321eed1cdaeb6115181d29060200160405180910390a15b50505050505050565b6108d6611170565b6108df82611215565b6108e9828261121d565b5050565b60006108f76112d1565b506000805160206124628339815191525b90565b60026000610917611133565b8054909150600160401b900460ff168061093e575080546001600160401b03808416911610155b1561095c5760405163f92ee8a960e01b815260040160405180910390fd5b805468ffffffffffffffffff19166001600160401b038316908117600160401b1782556008805460ff19169055815460ff60401b191682556040519081527fc7f505b2f371ae2175ee4913f4499e1f2633a7b5936321eed1cdaeb6115181d29060200160405180910390a15050565b6109d361131a565b6109dd600061134c565b565b6000546040516333932be560e11b81526001600160a01b039091169063672657ca90610a0f903390600401611a8b565b602060405180830381865afa158015610a2c573d6000803e3d6000fd5b505050506040513d601f19601f82011682018060405250810190610a50919061216c565b610a6c5760405162461bcd60e51b815260040161072a90612189565b60008054906101000a90046001600160a01b03166001600160a01b0316632232a4e26040518163ffffffff1660e01b8152600401602060405180830381865afa158015610abd573d6000803e3d6000fd5b505050506040513d601f19601f82011682018060405250810190610ae191906121f7565b610ae961104a565b14610b505760405162461bcd60e51b815260206004820152603160248201527f54686973206d6574686f64206f6e6c7920726563656976652063616c6c7320666044820152703937b69031b7b6b6b4ba1031b430b4b71760791b606482015260840161072a565b60005b81518110156108e957610b7e828281518110610b7157610b71612210565b60200260200101516113a8565b600101610b53565b600080610b91611610565b546001600160a01b031692915050565b60606006805480602002602001604051908101604052809291908181526020018280548015610bef57602002820191906000526020600020905b815481526020019060010190808311610bdb575b5050505050905090565b610c016119db565b8251845114610c615760405162461bcd60e51b815260206004820152602660248201527f496e70757420617272617973206d7573742068617665207468652073616d65206044820152650d8cadccee8d60d31b606482015260840161072a565b60085460ff1615610d005760405162461bcd60e51b815260206004820152605c60248201527f536861726564205365637265742053657475702068617320616c72656164792060448201527f6265656e20646f6e652e20546869732066756e6374696f6e2073686f756c642060648201527f72756e206f6e6c79206f6e636520617420504c20737461727475702e00000000608482015260a40161072a565b600782905560005b8351811015610e1f576000848281518110610d2557610d25612210565b602002602001015190506000868381518110610d4357610d43612210565b60200260200101519050848203610da4578015610d9f5760405162461bcd60e51b815260206004820152601a60248201527927bbb71039b2b1b932ba1039b437bab632103132903d32b9379760311b604482015260640161072a565b610e15565b610e1582600160001b838986604051602401610dc293929190612226565b60408051601f19818403018152918152602080830180516001600160e01b03166339dd85fd60e01b179052815180820183526000808252835180840185528181528451938401909452825291908a611634565b5050600101610d08565b5060005b8351811015610e7157610e69848281518110610e4157610e41612210565b6020026020010151868381518110610e5b57610e5b612210565b60200260200101518661105e565b600101610e23565b50506008805460ff19166001179055505050565b610e8d6116bd565b600080546001600160a01b0319166001600160a01b0392909216919091179055565b610eb76119db565b60005460408051631119527160e11b81529051610f7b926001600160a01b031691632232a4e29160048083019260209291908290030181865afa158015610f02573d6000803e3d6000fd5b505050506040513d601f19601f82011682018060405250810190610f2691906121f7565b6001546040805160048152602481018252602080820180516001600160e01b03166306ec249d60e01b179052825180820184526000808252845180840186528181528551938401909552825291929087611634565b50565b60008054906101000a90046001600160a01b03166001600160a01b0316632232a4e26040518163ffffffff1660e01b8152600401602060405180830381865afa158015610fcf573d6000803e3d6000fd5b505050506040513d601f19601f82011682018060405250810190610ff391906121f7565b8103610ffd575050565b611006826116e2565b6108e9816116e2565b61101761131a565b6001600160a01b038116611041576000604051631e4fbdf760e01b815260040161072a9190611a8b565b610f7b8161134c565b600060343610610908575060331936013590565b600083815260056020526040812083905581516001600160401b0381111561108857611088611c07565b6040519080825280602002602001820160405280156110b1578160200160208202803683370190505b50905060005b82518110156111185760008382815181106110d4576110d4612210565b60200260200101519050600560008281526020019081526020016000205483838151811061110457611104612210565b6020908102919091010152506001016110b7565b50805161112c906006906020840190611a12565b5050505050565b7ff0c57e16840df040f15088dc2f81fe391c3923bec73e23a9662efc9c229c6a0090565b6109dd6116bd565b6111676116bd565b610f7b816117f3565b306001600160a01b037f00000000000000000000000000000000000000000000000000000000000000001614806111f757507f00000000000000000000000000000000000000000000000000000000000000006001600160a01b03166111eb600080516020612462833981519152546001600160a01b031690565b6001600160a01b031614155b156109dd5760405163703e46dd60e11b815260040160405180910390fd5b610f7b61131a565b816001600160a01b03166352d1902d6040518163ffffffff1660e01b8152600401602060405180830381865afa925050508015611277575060408051601f3d908101601f19168201909252611274918101906121f7565b60015b6112965781604051634c9c8ce360e01b815260040161072a9190611a8b565b60008051602061246283398151915281146112c757604051632a87526960e21b81526004810182905260240161072a565b61075583836117fb565b306001600160a01b037f000000000000000000000000000000000000000000000000000000000000000016146109dd5760405163703e46dd60e11b815260040160405180910390fd5b33611323610b86565b6001600160a01b0316146109dd573360405163118cdaa760e01b815260040161072a9190611a8b565b6000611356611610565b80546001600160a01b038481166001600160a01b031983168117845560405193945091169182907f8be0079c531659141344cd1fd0a4f28419497f9722a3daafe3b4186f6b6457e090600090a3505050565b80516000818152600460205260408120549081900361151e5760028054600181810183556000839052855160079092027f405787fa12a823e0f2b7631cc41b3ba8828b3321ca811111fa75cd3aa3bb5ace810192835560208701517f405787fa12a823e0f2b7631cc41b3ba8828b3321ca811111fa75cd3aa3bb5acf909101805488959293919260ff199091169190849081111561144857611448611a9f565b0217905550604082015160018201805461ff00191661010083600381111561147257611472611a9f565b02179055506060820151600282019061148b908261229f565b50608082015160038201906114a0908261229f565b5060a082015160048083019190915560c0830151600583015560e0909201516006909101805491151560ff1990921691909117905560038054600181019091557fc2575a0e9e593c00f959f8c92f12db2869c3395a3b0502d05e2516446f71f85b018390556002546000848152602092909252604090912055505050565b600061152b60018361235e565b9050836002828154811061154157611541612210565b90600052602060002090600702016000820151816000015560208201518160010160006101000a81548160ff0219169083600281111561158357611583611a9f565b0217905550604082015160018201805461ff0019166101008360038111156115ad576115ad611a9f565b0217905550606082015160028201906115c6908261229f565b50608082015160038201906115db908261229f565b5060a0820151600482015560c0820151600582015560e0909101516006909101805460ff191691151591909117905550505050565b7f9016d09d72d40fdae2fd8ceac6b6234c7706214fd39c1cd1e609a0528c19930090565b600054604051631075c5d160e21b81526001600160a01b03909116906341d7174490611670908a908a908a908a908a908a908a9060040161237f565b6020604051808303816000875af115801561168f573d6000803e3d6000fd5b505050506040513d601f19601f820116820180604052508101906116b391906121f7565b5050505050505050565b6116c5611851565b6109dd57604051631afcd79f60e31b815260040160405180910390fd5b806000036116ed5750565b600081815260046020526040902054806117465760405162461bcd60e51b815260206004820152601a60248201527914185c9d1a58da5c185b9d081b9bdd081c9959da5cdd195c995960321b604482015260640161072a565b600061175360018361235e565b905060016002828154811061176a5761176a612210565b906000526020600020906007020160010160019054906101000a900460ff16600381111561179a5761179a611a9f565b146107555760405162461bcd60e51b815260206004820152602360248201527f5061727469636970616e74206e6f7420696e20616e206163746976652073746160448201526274757360e81b606482015260840161072a565b6110176116bd565b6118048261186b565b6040516001600160a01b038316907fbc7cd75a20ee27fd9adebab32041f755214dbc6bffa90cc0225b39da2e5c2d3b90600090a28051156118495761075582826118c7565b6108e961193d565b600061185b611133565b54600160401b900460ff16919050565b806001600160a01b03163b6000036118985780604051634c9c8ce360e01b815260040161072a9190611a8b565b60008051602061246283398151915280546001600160a01b0319166001600160a01b0392909216919091179055565b6060600080846001600160a01b0316846040516118e49190612445565b600060405180830381855af49150503d806000811461191f576040519150601f19603f3d011682016040523d82523d6000602084013e611924565b606091505b509150915061193485838361195c565b95945050505050565b34156109dd5760405163b398979f60e01b815260040160405180910390fd5b6060826119715761196c826119b2565b6119ab565b815115801561198857506001600160a01b0384163b155b156119a85783604051639996b31560e01b815260040161072a9190611a8b565b50805b9392505050565b8051156119c25780518082602001fd5b604051630a12f52160e11b815260040160405180910390fd5b6040805160c08101909152806000815260006020820181905260408201819052606082018190526080820181905260a09091015290565b828054828255906000526020600020908101928215611a4d579160200282015b82811115611a4d578251825591602001919060010190611a32565b50611a59929150611a5d565b5090565b5b80821115611a595760008155600101611a5e565b600060208284031215611a8457600080fd5b5035919050565b6001600160a01b0391909116815260200190565b634e487b7160e01b600052602160045260246000fd5b60048110611ac557611ac5611a9f565b9052565b60005b83811015611ae4578181015183820152602001611acc565b50506000910152565b60008151808452611b05816020860160208601611ac9565b601f01601f19169290920160200192915050565b600060208083018184528085518083526040925060408601915060408160051b87010184880160005b83811015611bf957603f198984030185528151610100815185528882015160038110611b7057611b70611a9f565b858a015281880151611b8489870182611ab5565b506060808301518282880152611b9c83880182611aed565b9250505060808083015186830382880152611bb78382611aed565b60a0858101519089015260c0808601519089015260e094850151801515868a0152949093509150611be59050565b509588019593505090860190600101611b42565b509098975050505050505050565b634e487b7160e01b600052604160045260246000fd5b60405161010081016001600160401b0381118282101715611c4057611c40611c07565b60405290565b604051601f8201601f191681016001600160401b0381118282101715611c6e57611c6e611c07565b604052919050565b60006001600160401b03821115611c8f57611c8f611c07565b5060051b60200190565b600082601f830112611caa57600080fd5b81356020611cbf611cba83611c76565b611c46565b8083825260208201915060208460051b870101935086841115611ce157600080fd5b602086015b84811015611cfd5780358352918301918301611ce6565b509695505050505050565b600080600060608486031215611d1d57600080fd5b8335925060208401356001600160401b03811115611d3a57600080fd5b611d4686828701611c99565b925050604084013590509250925092565b6001600160a01b0381168114610f7b57600080fd5b60008060408385031215611d7f57600080fd5b8235611d8a81611d57565b91506020830135611d9a81611d57565b809150509250929050565b60006001600160401b03831115611dbe57611dbe611c07565b611dd1601f8401601f1916602001611c46565b9050828152838383011115611de557600080fd5b828260208301376000602084830101529392505050565b60008060408385031215611e0f57600080fd5b8235611e1a81611d57565b915060208301356001600160401b03811115611e3557600080fd5b8301601f81018513611e4657600080fd5b611e5585823560208401611da5565b9150509250929050565b803560038110611e6e57600080fd5b919050565b803560048110611e6e57600080fd5b600082601f830112611e9357600080fd5b6119ab83833560208501611da5565b8015158114610f7b57600080fd5b8035611e6e81611ea2565b60006020808385031215611ece57600080fd5b82356001600160401b0380821115611ee557600080fd5b818501915085601f830112611ef957600080fd5b8135611f07611cba82611c76565b81815260059190911b83018401908481019088831115611f2657600080fd5b8585015b8381101561200c57803585811115611f4157600080fd5b8601610100818c03601f1901811315611f5957600080fd5b611f61611c1d565b898301358152611f7360408401611e5f565b8a820152611f8360608401611e73565b6040820152608083013588811115611f9b5760008081fd5b611fa98e8c83870101611e82565b60608301525060a08084013589811115611fc35760008081fd5b611fd18f8d83880101611e82565b60808401525060c0808501358284015260e09150818501358184015250611ff9838501611eb0565b9082015285525050918601918601611f2a565b5098975050505050505050565b60008151808452602080850194506020840160005b8381101561204a5781518752958201959082019060010161202e565b509495945050505050565b6020815260006119ab6020830184612019565b6020815260006119ab6020830184611aed565b60008060006060848603121561209057600080fd5b83356001600160401b03808211156120a757600080fd5b6120b387838801611c99565b945060208601359150808211156120c957600080fd5b50611d4686828701611c99565b6000602082840312156120e857600080fd5b81356119ab81611d57565b6000806040838503121561210657600080fd5b50508035926020909101359150565b60006020828403121561212757600080fd5b81516119ab81611d57565b600181811c9082168061214657607f821691505b60208210810361216657634e487b7160e01b600052602260045260246000fd5b50919050565b60006020828403121561217e57600080fd5b81516119ab81611ea2565b60208082526048908201527f5468697320697320612072656365697665206d6574686f642e204f6e6c79206560408201527f6e64706f696e742773206578656375746f722063616e2063616c6c20746869736060820152671036b2ba3437b21760c11b608082015260a00190565b60006020828403121561220957600080fd5b5051919050565b634e487b7160e01b600052603260045260246000fd5b83815260606020820152600061223f6060830185612019565b9050826040830152949350505050565b601f821115610755576000816000526020600020601f850160051c810160208610156122785750805b601f850160051c820191505b8181101561229757828155600101612284565b505050505050565b81516001600160401b038111156122b8576122b8611c07565b6122cc816122c68454612132565b8461224f565b602080601f83116001811461230157600084156122e95750858301515b600019600386901b1c1916600185901b178555612297565b600085815260208120601f198616915b8281101561233057888601518255948401946001909101908401612311565b508582101561234e5787850151600019600388901b60f8161c191681555b5050505050600190811b01905550565b8181038181111561046e57634e487b7160e01b600052601160045260246000fd5b600061018089835288602084015280604084015261239f81840189611aed565b905082810360608401526123b38188611aed565b905082810360808401526123c78187611aed565b905082810360a08401526123db8186611aed565b9150508251600581106123f0576123f0611a9f565b60c0830152602083015160e083015260408301516001600160a01b039081166101008401526060840151811661012084015260808401511661014083015260a090920151610160909101529695505050505050565b60008251612457818460208701611ac9565b919091019291505056fe360894a13ba1a3210667c828492db98dca3e2076cc3735a920a3ca505d382bbca264697066735822122089e294aade8d77f5edf07c8ed2ecdc28fa48ea069a731332378daf7aff6f923864736f6c63430008180033",
  "linkReferences": {},
  "deployedLinkReferences": {}
}