{
  "_format": "hh-sol-artifact-1",
  "contractName": "ParticipantStorageV1",
  "sourceName": "src/commitChain/ParticipantStorage/ParticipantStorageV1.sol",
  "abi": [
    {
      "inputs": [
        {
          "internalType": "address",
          "name": "target",
          "type": "address"
        }
      ],
      "name": "AddressEmptyCode",
      "type": "error"
    },
    {
      "inputs": [
        {
          "internalType": "address",
          "name": "implementation",
          "type": "address"
        }
      ],
      "name": "ERC1967InvalidImplementation",
      "type": "error"
    },
    {
      "inputs": [],
      "name": "ERC1967NonPayable",
      "type": "error"
    },
    {
      "inputs": [],
      "name": "FailedInnerCall",
      "type": "error"
    },
    {
      "inputs": [],
      "name": "InvalidInitialization",
      "type": "error"
    },
    {
      "inputs": [],
      "name": "NotInitializing",
      "type": "error"
    },
    {
      "inputs": [
        {
          "internalType": "address",
          "name": "owner",
          "type": "address"
        }
      ],
      "name": "OwnableInvalidOwner",
      "type": "error"
    },
    {
      "inputs": [
        {
          "internalType": "address",
          "name": "account",
          "type": "address"
        }
      ],
      "name": "OwnableUnauthorizedAccount",
      "type": "error"
    },
    {
      "inputs": [],
      "name": "UUPSUnauthorizedCallContext",
      "type": "error"
    },
    {
      "inputs": [
        {
          "internalType": "bytes32",
          "name": "slot",
          "type": "bytes32"
        }
      ],
      "name": "UUPSUnsupportedProxiableUUID",
      "type": "error"
    },
    {
      "anonymous": false,
      "inputs": [
        {
          "indexed": false,
          "internalType": "uint64",
          "name": "version",
          "type": "uint64"
        }
      ],
      "name": "Initialized",
      "type": "event"
    },
    {
      "anonymous": false,
      "inputs": [],
      "name": "NewAuditOrChainInfo",
      "type": "event"
    },
    {
      "anonymous": false,
      "inputs": [
        {
          "indexed": true,
          "internalType": "address",
          "name": "previousOwner",
          "type": "address"
        },
        {
          "indexed": true,
          "internalType": "address",
          "name": "newOwner",
          "type": "address"
        }
      ],
      "name": "OwnershipTransferred",
      "type": "event"
    },
    {
      "anonymous": false,
      "inputs": [
        {
          "components": [
            {
              "internalType": "uint256",
              "name": "chainId",
              "type": "uint256"
            },
            {
              "internalType": "enum ParticipantStorageV1.Role",
              "name": "role",
              "type": "uint8"
            },
            {
              "internalType": "enum ParticipantStorageV1.Status",
              "name": "status",
              "type": "uint8"
            },
            {
              "internalType": "string",
              "name": "ownerId",
              "type": "string"
            },
            {
              "internalType": "string",
              "name": "name",
              "type": "string"
            },
            {
              "internalType": "uint256",
              "name": "createdAt",
              "type": "uint256"
            },
            {
              "internalType": "uint256",
              "name": "updatedAt",
              "type": "uint256"
            },
            {
              "internalType": "bool",
              "name": "allowedToBroadcast",
              "type": "bool"
            }
          ],
          "indexed": false,
          "internalType": "struct ParticipantStorageV1.Participant",
          "name": "",
          "type": "tuple"
        }
      ],
      "name": "ParticipantRegistered",
      "type": "event"
    },
    {
      "anonymous": false,
      "inputs": [
        {
          "components": [
            {
              "internalType": "uint256",
              "name": "chainId",
              "type": "uint256"
            },
            {
              "internalType": "enum ParticipantStorageV1.Role",
              "name": "role",
              "type": "uint8"
            },
            {
              "internalType": "enum ParticipantStorageV1.Status",
              "name": "status",
              "type": "uint8"
            },
            {
              "internalType": "string",
              "name": "ownerId",
              "type": "string"
            },
            {
              "internalType": "string",
              "name": "name",
              "type": "string"
            },
            {
              "internalType": "uint256",
              "name": "createdAt",
              "type": "uint256"
            },
            {
              "internalType": "uint256",
              "name": "updatedAt",
              "type": "uint256"
            },
            {
              "internalType": "bool",
              "name": "allowedToBroadcast",
              "type": "bool"
            }
          ],
          "indexed": false,
          "internalType": "struct ParticipantStorageV1.Participant",
          "name": "",
          "type": "tuple"
        }
      ],
      "name": "ParticipantUpdated",
      "type": "event"
    },
    {
      "anonymous": false,
      "inputs": [
        {
          "indexed": true,
          "internalType": "address",
          "name": "implementation",
          "type": "address"
        }
      ],
      "name": "Upgraded",
      "type": "event"
    },
    {
      "inputs": [],
      "name": "UPGRADE_INTERFACE_VERSION",
      "outputs": [
        {
          "internalType": "string",
          "name": "",
          "type": "string"
        }
      ],
      "stateMutability": "view",
      "type": "function"
    },
    {
      "inputs": [
        {
          "components": [
            {
              "internalType": "uint256",
              "name": "chainId",
              "type": "uint256"
            },
            {
              "internalType": "enum ParticipantStorageV1.Role",
              "name": "role",
              "type": "uint8"
            },
            {
              "internalType": "string",
              "name": "ownerId",
              "type": "string"
            },
            {
              "internalType": "string",
              "name": "name",
              "type": "string"
            }
          ],
          "internalType": "struct ParticipantStorageV1.ParticipantData",
          "name": "_participant",
          "type": "tuple"
        }
      ],
      "name": "addParticipant",
      "outputs": [],
      "stateMutability": "nonpayable",
      "type": "function"
    },
    {
      "inputs": [
        {
          "components": [
            {
              "internalType": "uint256",
              "name": "chainId",
              "type": "uint256"
            },
            {
              "internalType": "enum ParticipantStorageV1.Role",
              "name": "role",
              "type": "uint8"
            },
            {
              "internalType": "string",
              "name": "ownerId",
              "type": "string"
            },
            {
              "internalType": "string",
              "name": "name",
              "type": "string"
            }
          ],
          "internalType": "struct ParticipantStorageV1.ParticipantData[]",
          "name": "_participants",
          "type": "tuple[]"
        }
      ],
      "name": "addParticipants",
      "outputs": [],
      "stateMutability": "nonpayable",
      "type": "function"
    },
    {
      "inputs": [
        {
          "internalType": "uint256",
          "name": "",
          "type": "uint256"
        }
      ],
      "name": "allAuditInfoChainIds",
      "outputs": [
        {
          "internalType": "uint256",
          "name": "",
          "type": "uint256"
        }
      ],
      "stateMutability": "view",
      "type": "function"
    },
    {
      "inputs": [
        {
          "internalType": "uint256",
          "name": "",
          "type": "uint256"
        }
      ],
      "name": "allEnygmaParticipants",
      "outputs": [
        {
          "internalType": "uint256",
          "name": "",
          "type": "uint256"
        }
      ],
      "stateMutability": "view",
      "type": "function"
    },
    {
      "inputs": [
        {
          "internalType": "uint256",
          "name": "",
          "type": "uint256"
        }
      ],
      "name": "allPrivateLedgerChainIds",
      "outputs": [
        {
          "internalType": "uint256",
          "name": "",
          "type": "uint256"
        }
      ],
      "stateMutability": "view",
      "type": "function"
    },
    {
      "inputs": [
        {
          "internalType": "uint256",
          "name": "",
          "type": "uint256"
        },
        {
          "internalType": "uint256",
          "name": "",
          "type": "uint256"
        }
      ],
      "name": "auditInfoData",
      "outputs": [
        {
          "internalType": "uint256",
          "name": "chainId",
          "type": "uint256"
        },
        {
          "internalType": "string",
          "name": "publicKey",
          "type": "string"
        },
        {
          "internalType": "bytes",
          "name": "encryptedPrivateKey",
          "type": "bytes"
        },
        {
          "internalType": "bytes",
          "name": "mac",
          "type": "bytes"
        },
        {
          "internalType": "uint256",
          "name": "blockNumber",
          "type": "uint256"
        }
      ],
      "stateMutability": "view",
      "type": "function"
    },
    {
      "inputs": [],
      "name": "broadcastCurrentParticipants",
      "outputs": [],
      "stateMutability": "nonpayable",
      "type": "function"
    },
    {
      "inputs": [
        {
          "internalType": "address",
          "name": "_address",
          "type": "address"
        }
      ],
      "name": "checkEnygmaAccountAllowed",
      "outputs": [
        {
          "internalType": "bool",
          "name": "",
          "type": "bool"
        }
      ],
      "stateMutability": "view",
      "type": "function"
    },
    {
      "inputs": [
        {
          "internalType": "address",
          "name": "_address",
          "type": "address"
        },
        {
          "internalType": "uint256",
          "name": "_chainId",
          "type": "uint256"
        }
      ],
      "name": "checkEnygmaIssuerAccountAllowed",
      "outputs": [
        {
          "internalType": "bool",
          "name": "",
          "type": "bool"
        }
      ],
      "stateMutability": "view",
      "type": "function"
    },
    {
      "inputs": [],
      "name": "contractVersion",
      "outputs": [
        {
          "internalType": "uint256",
          "name": "",
          "type": "uint256"
        }
      ],
      "stateMutability": "pure",
      "type": "function"
    },
    {
      "inputs": [],
      "name": "endpoint",
      "outputs": [
        {
          "internalType": "contract IRaylsEndpoint",
          "name": "",
          "type": "address"
        }
      ],
      "stateMutability": "view",
      "type": "function"
    },
    {
      "inputs": [
        {
          "internalType": "bytes32",
          "name": "_resourceId",
          "type": "bytes32"
        }
      ],
      "name": "getAddressByResourceId",
      "outputs": [
        {
          "internalType": "address",
          "name": "",
          "type": "address"
        }
      ],
      "stateMutability": "view",
      "type": "function"
    },
    {
      "inputs": [],
      "name": "getAllParticipants",
      "outputs": [
        {
          "components": [
            {
              "internalType": "uint256",
              "name": "chainId",
              "type": "uint256"
            },
            {
              "internalType": "enum ParticipantStorageV1.Role",
              "name": "role",
              "type": "uint8"
            },
            {
              "internalType": "enum ParticipantStorageV1.Status",
              "name": "status",
              "type": "uint8"
            },
            {
              "internalType": "string",
              "name": "ownerId",
              "type": "string"
            },
            {
              "internalType": "string",
              "name": "name",
              "type": "string"
            },
            {
              "internalType": "uint256",
              "name": "createdAt",
              "type": "uint256"
            },
            {
              "internalType": "uint256",
              "name": "updatedAt",
              "type": "uint256"
            },
            {
              "internalType": "bool",
              "name": "allowedToBroadcast",
              "type": "bool"
            }
          ],
          "internalType": "struct ParticipantStorageV1.Participant[]",
          "name": "",
          "type": "tuple[]"
        }
      ],
      "stateMutability": "view",
      "type": "function"
    },
    {
      "inputs": [],
      "name": "getAllParticipantsChainIds",
      "outputs": [
        {
          "internalType": "uint256[]",
          "name": "",
          "type": "uint256[]"
        }
      ],
      "stateMutability": "view",
      "type": "function"
    },
    {
      "inputs": [],
      "name": "getAllPrivateLedgers",
      "outputs": [
        {
          "internalType": "uint256[]",
          "name": "",
          "type": "uint256[]"
        }
      ],
      "stateMutability": "view",
      "type": "function"
    },
    {
      "inputs": [
        {
          "internalType": "uint256",
          "name": "chainId",
          "type": "uint256"
        }
      ],
      "name": "getAuditInfo",
      "outputs": [
        {
          "components": [
            {
              "internalType": "uint256",
              "name": "chainId",
              "type": "uint256"
            },
            {
              "internalType": "string",
              "name": "publicKey",
              "type": "string"
            },
            {
              "internalType": "bytes",
              "name": "encryptedPrivateKey",
              "type": "bytes"
            },
            {
              "internalType": "bytes",
              "name": "mac",
              "type": "bytes"
            },
            {
              "internalType": "uint256",
              "name": "blockNumber",
              "type": "uint256"
            }
          ],
          "internalType": "struct ParticipantStorageV1.AuditInfoData[]",
          "name": "data",
          "type": "tuple[]"
        }
      ],
      "stateMutability": "view",
      "type": "function"
    },
    {
      "inputs": [
        {
          "internalType": "uint256",
          "name": "chainId",
          "type": "uint256"
        }
      ],
      "name": "getChainInfo",
      "outputs": [
        {
          "components": [
            {
              "internalType": "uint256",
              "name": "chainId",
              "type": "uint256"
            },
            {
              "internalType": "string",
              "name": "publicKey",
              "type": "string"
            },
            {
              "internalType": "uint256",
              "name": "blockNumber",
              "type": "uint256"
            }
          ],
          "internalType": "struct ParticipantStorageV1.PrivateLedgerData[]",
          "name": "data",
          "type": "tuple[]"
        }
      ],
      "stateMutability": "view",
      "type": "function"
    },
    {
      "inputs": [],
      "name": "getEnygmaAllBabyJubJubPublicKeys",
      "outputs": [
        {
          "components": [
            {
              "internalType": "uint256",
              "name": "babyJubjubX",
              "type": "uint256"
            },
            {
              "internalType": "uint256",
              "name": "babyJubjubY",
              "type": "uint256"
            },
            {
              "internalType": "address[]",
              "name": "plAddresses",
              "type": "address[]"
            },
            {
              "internalType": "uint256",
              "name": "chainId",
              "type": "uint256"
            }
          ],
          "internalType": "struct ParticipantStorageV1.PrivateLedgerDataEnygmaSafeReturn[]",
          "name": "",
          "type": "tuple[]"
        }
      ],
      "stateMutability": "view",
      "type": "function"
    },
    {
      "inputs": [],
      "name": "getEnygmaAllParticipantsChainIds",
      "outputs": [
        {
          "internalType": "uint256[]",
          "name": "",
          "type": "uint256[]"
        }
      ],
      "stateMutability": "view",
      "type": "function"
    },
    {
      "inputs": [
        {
          "internalType": "uint256",
          "name": "chainId",
          "type": "uint256"
        }
      ],
      "name": "getEnygmaBabyJubJubPublicKeyByChainId",
      "outputs": [
        {
          "internalType": "uint256",
          "name": "",
          "type": "uint256"
        },
        {
          "internalType": "uint256",
          "name": "",
          "type": "uint256"
        }
      ],
      "stateMutability": "view",
      "type": "function"
    },
    {
      "inputs": [
        {
          "internalType": "uint256",
          "name": "chainId",
          "type": "uint256"
        }
      ],
      "name": "getParticipant",
      "outputs": [
        {
          "components": [
            {
              "internalType": "uint256",
              "name": "chainId",
              "type": "uint256"
            },
            {
              "internalType": "enum ParticipantStorageV1.Role",
              "name": "role",
              "type": "uint8"
            },
            {
              "internalType": "enum ParticipantStorageV1.Status",
              "name": "status",
              "type": "uint8"
            },
            {
              "internalType": "string",
              "name": "ownerId",
              "type": "string"
            },
            {
              "internalType": "string",
              "name": "name",
              "type": "string"
            },
            {
              "internalType": "uint256",
              "name": "createdAt",
              "type": "uint256"
            },
            {
              "internalType": "uint256",
              "name": "updatedAt",
              "type": "uint256"
            },
            {
              "internalType": "bool",
              "name": "allowedToBroadcast",
              "type": "bool"
            }
          ],
          "internalType": "struct ParticipantStorageV1.Participant",
          "name": "",
          "type": "tuple"
        }
      ],
      "stateMutability": "view",
      "type": "function"
    },
    {
      "inputs": [],
      "name": "getParticipantDataBatch",
      "outputs": [
        {
          "components": [
            {
              "internalType": "uint256",
              "name": "chainId",
              "type": "uint256"
            },
            {
              "internalType": "string",
              "name": "publicKey",
              "type": "string"
            },
            {
              "internalType": "uint256",
              "name": "blockNumber",
              "type": "uint256"
            }
          ],
          "internalType": "struct ParticipantStorageV1.PrivateLedgerData[]",
          "name": "plData",
          "type": "tuple[]"
        },
        {
          "components": [
            {
              "internalType": "uint256",
              "name": "chainId",
              "type": "uint256"
            },
            {
              "internalType": "string",
              "name": "publicKey",
              "type": "string"
            },
            {
              "internalType": "bytes",
              "name": "encryptedPrivateKey",
              "type": "bytes"
            },
            {
              "internalType": "bytes",
              "name": "mac",
              "type": "bytes"
            },
            {
              "internalType": "uint256",
              "name": "blockNumber",
              "type": "uint256"
            }
          ],
          "internalType": "struct ParticipantStorageV1.AuditInfoData[]",
          "name": "auditInfo",
          "type": "tuple[]"
        },
        {
          "internalType": "uint256[]",
          "name": "plChainIds",
          "type": "uint256[]"
        },
        {
          "internalType": "uint256[]",
          "name": "auditChainIds",
          "type": "uint256[]"
        }
      ],
      "stateMutability": "view",
      "type": "function"
    },
    {
      "inputs": [
        {
          "internalType": "address",
          "name": "initialOwner",
          "type": "address"
        },
        {
          "internalType": "address",
          "name": "_endpoint",
          "type": "address"
        }
      ],
      "name": "initialize",
      "outputs": [],
      "stateMutability": "nonpayable",
      "type": "function"
    },
    {
      "inputs": [
        {
          "internalType": "address",
          "name": "_endpoint",
          "type": "address"
        }
      ],
      "name": "initialize",
      "outputs": [],
      "stateMutability": "nonpayable",
      "type": "function"
    },
    {
      "inputs": [],
      "name": "owner",
      "outputs": [
        {
          "internalType": "address",
          "name": "",
          "type": "address"
        }
      ],
      "stateMutability": "view",
      "type": "function"
    },
    {
      "inputs": [],
      "name": "plEnygmaEvents",
      "outputs": [
        {
          "internalType": "address",
          "name": "",
          "type": "address"
        }
      ],
      "stateMutability": "view",
      "type": "function"
    },
    {
      "inputs": [
        {
          "internalType": "uint256",
          "name": "",
          "type": "uint256"
        },
        {
          "internalType": "uint256",
          "name": "",
          "type": "uint256"
        }
      ],
      "name": "privateLedgerData",
      "outputs": [
        {
          "internalType": "uint256",
          "name": "chainId",
          "type": "uint256"
        },
        {
          "internalType": "string",
          "name": "publicKey",
          "type": "string"
        },
        {
          "internalType": "uint256",
          "name": "blockNumber",
          "type": "uint256"
        }
      ],
      "stateMutability": "view",
      "type": "function"
    },
    {
      "inputs": [],
      "name": "proxiableUUID",
      "outputs": [
        {
          "internalType": "bytes32",
          "name": "",
          "type": "bytes32"
        }
      ],
      "stateMutability": "view",
      "type": "function"
    },
    {
      "inputs": [
        {
          "internalType": "uint256",
          "name": "chainId",
          "type": "uint256"
        }
      ],
      "name": "removeParticipant",
      "outputs": [],
      "stateMutability": "nonpayable",
      "type": "function"
    },
    {
      "inputs": [],
      "name": "renounceOwnership",
      "outputs": [],
      "stateMutability": "nonpayable",
      "type": "function"
    },
    {
      "inputs": [],
      "name": "resourceId",
      "outputs": [
        {
          "internalType": "bytes32",
          "name": "",
          "type": "bytes32"
        }
      ],
      "stateMutability": "view",
      "type": "function"
    },
    {
      "inputs": [
        {
          "internalType": "uint256",
          "name": "chainId",
          "type": "uint256"
        },
        {
          "internalType": "string",
          "name": "publicKey",
          "type": "string"
        },
        {
          "internalType": "bytes",
          "name": "encryptedPrivateKey",
          "type": "bytes"
        },
        {
          "internalType": "bytes",
          "name": "mac",
          "type": "bytes"
        },
        {
          "internalType": "uint256",
          "name": "blockNumber",
          "type": "uint256"
        }
      ],
      "name": "setAuditInfo",
      "outputs": [],
      "stateMutability": "nonpayable",
      "type": "function"
    },
    {
      "inputs": [
        {
          "internalType": "uint256",
          "name": "chainId",
          "type": "uint256"
        },
        {
          "internalType": "string",
          "name": "publicKey",
          "type": "string"
        },
        {
          "internalType": "uint256",
          "name": "blockNumber",
          "type": "uint256"
        }
      ],
      "name": "setChainInfo",
      "outputs": [],
      "stateMutability": "nonpayable",
      "type": "function"
    },
    {
      "inputs": [
        {
          "internalType": "uint256",
          "name": "_chainId",
          "type": "uint256"
        },
        {
          "internalType": "uint256",
          "name": "_babyJubjubX",
          "type": "uint256"
        },
        {
          "internalType": "uint256",
          "name": "_babyJubjubY",
          "type": "uint256"
        },
        {
          "internalType": "address[]",
          "name": "_plAddresses",
          "type": "address[]"
        }
      ],
      "name": "setEnygmaBabyJubJubPublicKey",
      "outputs": [],
      "stateMutability": "nonpayable",
      "type": "function"
    },
    {
      "inputs": [
        {
          "internalType": "address",
          "name": "_plEnygmaEvents",
          "type": "address"
        }
      ],
      "name": "setEnygmaPlEventsAddress",
      "outputs": [],
      "stateMutability": "nonpayable",
      "type": "function"
    },
    {
      "inputs": [
        {
          "internalType": "address",
          "name": "newOwner",
          "type": "address"
        }
      ],
      "name": "transferOwnership",
      "outputs": [],
      "stateMutability": "nonpayable",
      "type": "function"
    },
    {
      "inputs": [
        {
          "internalType": "uint256",
          "name": "chainId",
          "type": "uint256"
        },
        {
          "internalType": "bool",
          "name": "allowed",
          "type": "bool"
        }
      ],
      "name": "updateBroadcastMessagesPermission",
      "outputs": [],
      "stateMutability": "nonpayable",
      "type": "function"
    },
    {
      "inputs": [
        {
          "internalType": "uint256",
          "name": "chainId",
          "type": "uint256"
        },
        {
          "internalType": "enum ParticipantStorageV1.Role",
          "name": "role",
          "type": "uint8"
        }
      ],
      "name": "updateRole",
      "outputs": [],
      "stateMutability": "nonpayable",
      "type": "function"
    },
    {
      "inputs": [
        {
          "internalType": "uint256",
          "name": "chainId",
          "type": "uint256"
        },
        {
          "internalType": "enum ParticipantStorageV1.Status",
          "name": "status",
          "type": "uint8"
        }
      ],
      "name": "updateStatus",
      "outputs": [],
      "stateMutability": "nonpayable",
      "type": "function"
    },
    {
      "inputs": [
        {
          "internalType": "address",
          "name": "newImplementation",
          "type": "address"
        },
        {
          "internalType": "bytes",
          "name": "data",
          "type": "bytes"
        }
      ],
      "name": "upgradeToAndCall",
      "outputs": [],
      "stateMutability": "payable",
      "type": "function"
    },
    {
      "inputs": [
        {
          "internalType": "uint256",
          "name": "originChainId",
          "type": "uint256"
        },
        {
          "internalType": "uint256",
          "name": "destinationChainId",
          "type": "uint256"
        }
      ],
      "name": "validateMessageParticipants",
      "outputs": [],
      "stateMutability": "view",
      "type": "function"
    },
    {
      "inputs": [
        {
          "internalType": "uint256",
          "name": "chainId",
          "type": "uint256"
        }
      ],
      "name": "verifyParticipant",
      "outputs": [
        {
          "internalType": "bool",
          "name": "",
          "type": "bool"
        }
      ],
      "stateMutability": "view",
      "type": "function"
    }
  ],
  "bytecode": "0x60a06040523060805234801561001457600080fd5b506080516149bc61003e6000396000818161320701528181613230015261336801526149bc6000f3fe60806040526004361061021c5760003560e01c8063715018a611610124578063ad3cb1cc116100a6578063ad3cb1cc1461065d578063b3816fdb1461069b578063c0ac4daf146106bb578063c4d66de8146106db578063c7b0b420146106fb578063c804e7b014610738578063d5c3614f14610758578063ddac6d8714610778578063df5cc33514610798578063ea2efa0b146107c5578063f2fde38b146107e557600080fd5b8063715018a6146104d057806375c5aa4e146104e55780637b063005146105165780637b7dae1f14610538578063804ea33414610558578063884e7ddf146105855780638c8e0c2a146105cf5780638da5cb5b146105ef578063a0842e3314610604578063a0a8e46014610629578063a789759d1461063d57600080fd5b8063452e119e116101ad578063452e119e1461038d578063485cc955146103ad5780634b9bd78c146103cd5780634d178ea1146103fd5780634f1ef2861461041257806352d1902d146104255780635e280f111461043a5780635f997c5b1461045a5780636279aa9f1461047057806365ffa17e14610490578063683f7f27146104b057600080fd5b806306ec249d146102215780630ad3609a1461023857806311f50c851461026b5780631479ca0214610298578063195ec9ee146102c75780631b9db2ef146102e95780632d3358751461031657806333ded4a81461033857806337e0d45d146103585780633a1b3d311461036d575b600080fd5b34801561022d57600080fd5b50610236610805565b005b34801561024457600080fd5b506102586102533660046139a7565b61098d565b6040519081526020015b60405180910390f35b34801561027757600080fd5b5061028b6102863660046139a7565b6109ae565b60405161026291906139c0565b3480156102a457600080fd5b506102b86102b33660046139d4565b610a22565b60405161026293929190613a46565b3480156102d357600080fd5b506102dc610af1565b6040516102629190613b36565b3480156102f557600080fd5b506103096103043660046139a7565b610d1a565b6040516102629190613b9a565b34801561032257600080fd5b5061032b610ef8565b6040516102629190613be9565b34801561034457600080fd5b50610236610353366004613c0a565b610f50565b34801561036457600080fd5b5061032b611187565b34801561037957600080fd5b50610236610388366004613c3a565b6111dd565b34801561039957600080fd5b50600b5461028b906001600160a01b031681565b3480156103b957600080fd5b506102366103c8366004613c78565b6113f6565b3480156103d957600080fd5b506103ed6103e8366004613ca6565b61156a565b6040519015158152602001610262565b34801561040957600080fd5b5061032b611625565b610236610420366004613d78565b61167b565b34801561043157600080fd5b5061025861169a565b34801561044657600080fd5b5060005461028b906001600160a01b031681565b34801561046657600080fd5b5061025860015481565b34801561047c57600080fd5b5061023661048b366004613e0f565b6116b8565b34801561049c57600080fd5b506102366104ab366004613ec2565b6118a6565b3480156104bc57600080fd5b506102366104cb3660046139a7565b61196c565b3480156104dc57600080fd5b50610236611977565b3480156104f157600080fd5b506105056105003660046139d4565b61198b565b604051610262959493929190613eee565b34801561052257600080fd5b5061052b611b76565b6040516102629190613f40565b34801561054457600080fd5b506102366105533660046140a5565b611cf4565b34801561056457600080fd5b506105786105733660046139a7565b611d05565b604051610262919061415a565b34801561059157600080fd5b506105ba6105a03660046139a7565b600090815260076020526040902080546001909101549091565b60408051928352602083019190915201610262565b3480156105db57600080fd5b506103ed6105ea36600461416d565b611e1d565b3480156105fb57600080fd5b5061028b611f20565b34801561061057600080fd5b50610619611f3b565b604051610262949392919061423b565b34801561063557600080fd5b506001610258565b34801561064957600080fd5b50610236610658366004614293565b6125fa565b34801561066957600080fd5b5061068e604051806040016040528060058152602001640352e302e360dc1b81525081565b6040516102629190614355565b3480156106a757600080fd5b506103ed6106b63660046139a7565b612638565b3480156106c757600080fd5b506102586106d63660046139a7565b6126c4565b3480156106e757600080fd5b506102366106f6366004613ca6565b6126d4565b34801561070757600080fd5b50610236610716366004613ca6565b600b80546001600160a01b0319166001600160a01b0392909216919091179055565b34801561074457600080fd5b50610236610753366004614368565b6126fe565b34801561076457600080fd5b506102366107733660046139d4565b612872565b34801561078457600080fd5b506102586107933660046139a7565b612982565b3480156107a457600080fd5b506107b86107b33660046139a7565b612992565b60405161026291906143f7565b3480156107d157600080fd5b506102366107e036600461440a565b612bc3565b3480156107f157600080fd5b50610236610800366004613ca6565b612d71565b6000546040516333932be560e11b81526001600160a01b039091169063672657ca906108359033906004016139c0565b602060405180830381865afa158015610852573d6000803e3d6000fd5b505050506040513d601f19601f82011682018060405250810190610876919061445c565b6108fe5760405162461bcd60e51b815260206004820152604860248201527f5468697320697320612072656365697665206d6574686f642e204f6e6c79206560448201527f6e64706f696e742773206578656375746f722063616e2063616c6c20746869736064820152671036b2ba3437b21760c11b608482015260a4015b60405180910390fd5b6109066138b0565b61098a610911612dac565b6001546040516344ce5b3160e11b9061092f90600290602401614530565b60408051601f19818403018152918152602080830180516001600160e01b03166001600160e01b0319909516949094179093528051808401825260008082528251808601845281815283519586019093528452919287612dc0565b50565b6008818154811061099d57600080fd5b600091825260209091200154905081565b600080546040516311f50c8560e01b8152600481018490526001600160a01b03909116906311f50c8590602401602060405180830381865afa1580156109f8573d6000803e3d6000fd5b505050506040513d601f19601f82011682018060405250810190610a1c919061461e565b92915050565b60066020528160005260406000208181548110610a3e57600080fd5b906000526020600020906003020160009150915050806000015490806001018054610a6890614479565b80601f0160208091040260200160405190810160405280929190818152602001828054610a9490614479565b8015610ae15780601f10610ab657610100808354040283529160200191610ae1565b820191906000526020600020905b815481529060010190602001808311610ac457829003601f168201915b5050505050908060020154905083565b60606002805480602002602001604051908101604052809291908181526020016000905b82821015610d11578382906000526020600020906007020160405180610100016040529081600082015481526020016001820160009054906101000a900460ff166002811115610b6757610b67613a6f565b6002811115610b7857610b78613a6f565b81526020016001820160019054906101000a900460ff166003811115610ba057610ba0613a6f565b6003811115610bb157610bb1613a6f565b8152602001600282018054610bc590614479565b80601f0160208091040260200160405190810160405280929190818152602001828054610bf190614479565b8015610c3e5780601f10610c1357610100808354040283529160200191610c3e565b820191906000526020600020905b815481529060010190602001808311610c2157829003601f168201915b50505050508152602001600382018054610c5790614479565b80601f0160208091040260200160405190810160405280929190818152602001828054610c8390614479565b8015610cd05780601f10610ca557610100808354040283529160200191610cd0565b820191906000526020600020905b815481529060010190602001808311610cb357829003601f168201915b505050918352505060048201546020808301919091526005830154604083015260069092015460ff1615156060909101529082526001929092019101610b15565b50505050905090565b610d226138e7565b610d2b82612e49565b604080516101008101909152815481526001820154909190602083019060ff166002811115610d5c57610d5c613a6f565b6002811115610d6d57610d6d613a6f565b81526020016001820160019054906101000a900460ff166003811115610d9557610d95613a6f565b6003811115610da657610da6613a6f565b8152602001600282018054610dba90614479565b80601f0160208091040260200160405190810160405280929190818152602001828054610de690614479565b8015610e335780601f10610e0857610100808354040283529160200191610e33565b820191906000526020600020905b815481529060010190602001808311610e1657829003601f168201915b50505050508152602001600382018054610e4c90614479565b80601f0160208091040260200160405190810160405280929190818152602001828054610e7890614479565b8015610ec55780601f10610e9a57610100808354040283529160200191610ec5565b820191906000526020600020905b815481529060010190602001808311610ea857829003601f168201915b5050509183525050600482015460208201526005820154604082015260069091015460ff16151560609091015292915050565b6060600a805480602002602001604051908101604052809291908181526020018280548015610f4657602002820191906000526020600020905b815481526020019060010190808311610f32575b5050505050905090565b610f58612eae565b6000610f6383612e49565b600681015490915082151560ff909116151503610fde5760405162461bcd60e51b815260206004820152603360248201527f42726f616463617374207065726d697373696f6e20616c72656164792073657460448201527220746f207265717565737465642076616c756560681b60648201526084016108f5565b604080516101008101909152838152600182015460009190602082019060ff16600281111561100f5761100f613a6f565b81526020018360010160019054906101000a900460ff16600381111561103757611037613a6f565b815260200183600201805461104b90614479565b80601f016020809104026020016040519081016040528092919081815260200182805461107790614479565b80156110c45780601f10611099576101008083540402835291602001916110c4565b820191906000526020600020905b8154815290600101906020018083116110a757829003601f168201915b505050505081526020018360030180546110dd90614479565b80601f016020809104026020016040519081016040528092919081815260200182805461110990614479565b80156111565780601f1061112b57610100808354040283529160200191611156565b820191906000526020600020905b81548152906001019060200180831161113957829003601f168201915b5050505050815260200183600401548152602001428152602001841515815250905061118181612ee0565b50505050565b60606003805480602002602001604051908101604052809291908181526020018280548015610f465760200282019190600052602060002090815481526020019060010190808311610f32575050505050905090565b60006111e883612e49565b90508160038111156111fc576111fc613a6f565b6001820154610100900460ff16600381111561121a5761121a613a6f565b0361125c5760405162461bcd60e51b815260206004820152601260248201527114dd185d1d5cc8185b1c9958591e481cd95d60721b60448201526064016108f5565b604080516101008101909152838152600182015460009190602082019060ff16600281111561128d5761128d613a6f565b81526020018460038111156112a4576112a4613a6f565b81526020018360020180546112b890614479565b80601f01602080910402602001604051908101604052809291908181526020018280546112e490614479565b80156113315780601f1061130657610100808354040283529160200191611331565b820191906000526020600020905b81548152906001019060200180831161131457829003601f168201915b5050505050815260200183600301805461134a90614479565b80601f016020809104026020016040519081016040528092919081815260200182805461137690614479565b80156113c35780601f10611398576101008083540402835291602001916113c3565b820191906000526020600020905b8154815290600101906020018083116113a657829003601f168201915b505050918352505060048401546020820152426040820152600684015460ff161515606090910152905061118181612ee0565b60006114006131bf565b805490915060ff600160401b82041615906001600160401b03166000811580156114275750825b90506000826001600160401b031660011480156114435750303b155b905081158015611451575080155b1561146f5760405163f92ee8a960e01b815260040160405180910390fd5b845467ffffffffffffffff19166001178555831561149957845460ff60401b1916600160401b1785555b6114a16131e3565b6114aa876131eb565b6114b3866126d4565b600180805560005460405163d4f951c760e01b815260048101929092523060248301526001600160a01b03169063d4f951c790604401600060405180830381600087803b15801561150357600080fd5b505af1158015611517573d6000803e3d6000fd5b50505050831561156157845460ff60401b19168555604051600181527fc7f505b2f371ae2175ee4913f4499e1f2633a7b5936321eed1cdaeb6115181d29060200160405180910390a15b50505050505050565b6000805b600a5481101561161c576000600a828154811061158d5761158d61463b565b9060005260206000200154905060005b60008281526007602052604090206002015481101561161257600082815260076020526040902060020180546001600160a01b0387169190839081106115e5576115e561463b565b6000918252602090912001546001600160a01b03160361160a57506001949350505050565b60010161159d565b505060010161156e565b50600092915050565b60606009805480602002602001604051908101604052809291908181526020018280548015610f465760200282019190600052602060002090815481526020019060010190808311610f32575050505050905090565b6116836131fc565b61168c826132a1565b61169682826132a9565b5050565b60006116a461335d565b506000805160206149678339815191525b90565b6116c186612638565b6116dd5760405162461bcd60e51b81526004016108f590614651565b6000868152600560205260409020541561174f5760008681526005602052604090208054829190611710906001906146bc565b815481106117205761172061463b565b9060005260206000209060050201600401541061174f5760405162461bcd60e51b81526004016108f5906146cf565b60006040518060a0016040528088815260200187878080601f01602080910402602001604051908101604052809392919081815260200183838082843760009201829052509385525050506020808301889052604080840188905260609093018690528a8252600580825292822080546001818101835591845292829020855193909402909301918255830151929350839290918201906117f0908261474c565b5060408201516002820190611805908261474c565b506060820151600382019061181a908261474c565b506080919091015160049091015560008781526005602052604090205460010361187457600880546001810182556000919091527ff3f7a9fe364faab93b216da50a3214154f22a0a2b415b23a84c8169e8b636ee3018790555b6040517fefa978e68976096dc1d0418832a3125fca64783298b24167eb8bbab0c46a682390600090a150505050505050565b60006118b183612e49565b90508160028111156118c5576118c5613a6f565b600182015460ff1660028111156118de576118de613a6f565b0361191e5760405162461bcd60e51b815260206004820152601060248201526f149bdb1948185b1c9958591e481cd95d60821b60448201526064016108f5565b600060405180610100016040528085815260200184600281111561194457611944613a6f565b81526020018360010160019054906101000a900460ff1660038111156112a4576112a4613a6f565b61098a8160026111dd565b61197f612eae565b61198960006133a6565b565b600560205281600052604060002081815481106119a757600080fd5b9060005260206000209060050201600091509150508060000154908060010180546119d190614479565b80601f01602080910402602001604051908101604052809291908181526020018280546119fd90614479565b8015611a4a5780601f10611a1f57610100808354040283529160200191611a4a565b820191906000526020600020905b815481529060010190602001808311611a2d57829003601f168201915b505050505090806002018054611a5f90614479565b80601f0160208091040260200160405190810160405280929190818152602001828054611a8b90614479565b8015611ad85780601f10611aad57610100808354040283529160200191611ad8565b820191906000526020600020905b815481529060010190602001808311611abb57829003601f168201915b505050505090806003018054611aed90614479565b80601f0160208091040260200160405190810160405280929190818152602001828054611b1990614479565b8015611b665780601f10611b3b57610100808354040283529160200191611b66565b820191906000526020600020905b815481529060010190602001808311611b4957829003601f168201915b5050505050908060040154905085565b600a546060906000816001600160401b03811115611b9657611b96613cc3565b604051908082528060200260200182016040528015611bf257816020015b611bdf6040518060800160405280600081526020016000815260200160608152602001600081525090565b815260200190600190039081611bb45790505b50905060005b82811015611ced576000600a8281548110611c1557611c1561463b565b60009182526020808320909101546040805160808101825282855260078085528286208054835260018101548387015295849052845260029094018054825181860281018601845281815293965091850193909190830182828015611ca357602002820191906000526020600020905b81546001600160a01b03168152600190910190602001808311611c85575b505050505081526020016007600084815260200190815260200160002060030154815250838381518110611cd957611cd961463b565b602090810291909101015250600101611bf8565b5092915050565b611cfc612eae565b61098a81613402565b606060066000838152602001908152602001600020805480602002602001604051908101604052809291908181526020016000905b82821015611e12578382906000526020600020906003020160405180606001604052908160008201548152602001600182018054611d7790614479565b80601f0160208091040260200160405190810160405280929190818152602001828054611da390614479565b8015611df05780601f10611dc557610100808354040283529160200191611df0565b820191906000526020600020905b815481529060010190602001808311611dd357829003601f168201915b5050505050815260200160028201548152505081526020019060010190611d3a565b505050509050919050565b6000805b600a54811015611f165782600a8281548110611e3f57611e3f61463b565b906000526020600020015403611f0e57600083815260076020908152604080832060020180548251818502810185019093528083529192909190830182828015611eb257602002820191906000526020600020905b81546001600160a01b03168152600190910190602001808311611e94575b5050505050905060005b8151811015611f0b57856001600160a01b0316828281518110611ee157611ee161463b565b60200260200101516001600160a01b031603611f035760019350505050610a1c565b600101611ebc565b50505b600101611e21565b5060009392505050565b600080611f2b6134c4565b546001600160a01b031692915050565b60608060608060008060005b600954811015611f9a57600060098281548110611f6657611f6661463b565b60009182526020808320909101548083526006909152604090912054909150611f8f908561480b565b935050600101611f47565b5060005b600854811015611ff157600060088281548110611fbd57611fbd61463b565b60009182526020808320909101548083526005909152604090912054909150611fe6908461480b565b925050600101611f9e565b50816001600160401b0381111561200a5761200a613cc3565b60405190808252806020026020018201604052801561205f57816020015b61204c60405180606001604052806000815260200160608152602001600081525090565b8152602001906001900390816120285790505b5060098054604080516020808402820181019092528281529399508301828280156120a957602002820191906000526020600020905b815481526020019060010190808311612095575b50505050509350806001600160401b038111156120c8576120c8613cc3565b60405190808252806020026020018201604052801561212b57816020015b6121186040518060a0016040528060008152602001606081526020016060815260200160608152602001600081525090565b8152602001906001900390816120e65790505b50600880546040805160208084028201810190925282815293985083018282801561217557602002820191906000526020600020905b815481526020019060010190808311612161575b505050505092506000805b6009548110156123235760006009828154811061219f5761219f61463b565b90600052602060002001549050600060066000838152602001908152602001600020805480602002602001604051908101604052809291908181526020016000905b828210156122b957838290600052602060002090600302016040518060600160405290816000820154815260200160018201805461221e90614479565b80601f016020809104026020016040519081016040528092919081815260200182805461224a90614479565b80156122975780601f1061226c57610100808354040283529160200191612297565b820191906000526020600020905b81548152906001019060200180831161227a57829003601f168201915b50505050508152602001600282015481525050815260200190600101906121e1565b50505050905060005b8151811015612318578181815181106122dd576122dd61463b565b60200260200101518b86815181106122f7576122f761463b565b6020026020010181905250848061230d9061481e565b9550506001016122c2565b505050600101612180565b506000805b6008548110156125ef576000600882815481106123475761234761463b565b90600052602060002001549050600060056000838152602001908152602001600020805480602002602001604051908101604052809291908181526020016000905b8282101561258557838290600052602060002090600502016040518060a0016040529081600082015481526020016001820180546123c690614479565b80601f01602080910402602001604051908101604052809291908181526020018280546123f290614479565b801561243f5780601f106124145761010080835404028352916020019161243f565b820191906000526020600020905b81548152906001019060200180831161242257829003601f168201915b5050505050815260200160028201805461245890614479565b80601f016020809104026020016040519081016040528092919081815260200182805461248490614479565b80156124d15780601f106124a6576101008083540402835291602001916124d1565b820191906000526020600020905b8154815290600101906020018083116124b457829003601f168201915b505050505081526020016003820180546124ea90614479565b80601f016020809104026020016040519081016040528092919081815260200182805461251690614479565b80156125635780601f1061253857610100808354040283529160200191612563565b820191906000526020600020905b81548152906001019060200180831161254657829003601f168201915b5050505050815260200160048201548152505081526020019060010190612389565b50505050905060005b81518110156125e4578181815181106125a9576125a961463b565b60200260200101518b86815181106125c3576125c361463b565b602002602001018190525084806125d99061481e565b95505060010161258e565b505050600101612328565b505050505090919293565b612602612eae565b60005b8151811015611696576126308282815181106126235761262361463b565b6020026020010151613402565b600101612605565b6000818152600460205260408120548082036126575750600092915050565b60006126646001836146bc565b905060016002828154811061267b5761267b61463b565b906000526020600020906007020160010160019054906101000a900460ff1660038111156126ab576126ab613a6f565b146126ba575060009392505050565b5060019392505050565b600a818154811061099d57600080fd5b6126dc6134e8565b600080546001600160a01b0319166001600160a01b0392909216919091179055565b6000858152600760205260409020541561276f5760405162461bcd60e51b815260206004820152602c60248201527f456e79676d61204461746120666f72207468697320636861696e49642069732060448201526b616c7265616479207365742160a01b60648201526084016108f5565b61277885612638565b6127e05760405162461bcd60e51b815260206004820152603360248201527f5061727469636970616e74206e6f7420657869737473206f72206e6f74207769604482015272746820616e204163746976652053746174757360681b60648201526084016108f5565b60008581526007602052604081208581556001018490555b8181101561282557600086815260076020526040902061281c90600201848461392f565b506001016127f8565b5050506000838152600760205260408120600301849055600a805460018101825591527fc65a7bb8d6351c1cf70c95a316cc6a92839c986682d98bc35f958f4883f9d2a801929092555050565b60008054906101000a90046001600160a01b03166001600160a01b0316632232a4e26040518163ffffffff1660e01b8152600401602060405180830381865afa1580156128c3573d6000803e3d6000fd5b505050506040513d601f19601f820116820180604052508101906128e79190614837565b82036128f1575050565b60008054906101000a90046001600160a01b03166001600160a01b0316632232a4e26040518163ffffffff1660e01b8152600401602060405180830381865afa158015612942573d6000803e3d6000fd5b505050506040513d601f19601f820116820180604052508101906129669190614837565b8103612970575050565b6129798261350d565b6116968161350d565b6009818154811061099d57600080fd5b606060056000838152602001908152602001600020805480602002602001604051908101604052809291908181526020016000905b82821015611e1257838290600052602060002090600502016040518060a001604052908160008201548152602001600182018054612a0490614479565b80601f0160208091040260200160405190810160405280929190818152602001828054612a3090614479565b8015612a7d5780601f10612a5257610100808354040283529160200191612a7d565b820191906000526020600020905b815481529060010190602001808311612a6057829003601f168201915b50505050508152602001600282018054612a9690614479565b80601f0160208091040260200160405190810160405280929190818152602001828054612ac290614479565b8015612b0f5780601f10612ae457610100808354040283529160200191612b0f565b820191906000526020600020905b815481529060010190602001808311612af257829003601f168201915b50505050508152602001600382018054612b2890614479565b80601f0160208091040260200160405190810160405280929190818152602001828054612b5490614479565b8015612ba15780601f10612b7657610100808354040283529160200191612ba1565b820191906000526020600020905b815481529060010190602001808311612b8457829003601f168201915b50505050508152602001600482015481525050815260200190600101906129c7565b612bcc84612638565b612be85760405162461bcd60e51b81526004016108f590614651565b60008481526006602052604090205415612c5a5760008481526006602052604090208054829190612c1b906001906146bc565b81548110612c2b57612c2b61463b565b90600052602060002090600302016002015410612c5a5760405162461bcd60e51b81526004016108f5906146cf565b6000604051806060016040528086815260200185858080601f0160208091040260200160405190810160405280939291908181526020018383808284376000920182905250938552505050602091820185905287815260068252604081208054600181810183559183529183902084516003909302019182559183015192935083929091820190612ceb908261474c565b50604091820151600290910155600086815260066020522054600103612d4157600980546001810182556000919091527f6e1540171b6c0c960b71a7020d9f60077f6af931a8bbf590da0223dacf75c7af018590555b6040517fefa978e68976096dc1d0418832a3125fca64783298b24167eb8bbab0c46a682390600090a15050505050565b612d79612eae565b6001600160a01b038116612da3576000604051631e4fbdf760e01b81526004016108f591906139c0565b61098a816133a6565b6000603436106116b5575060331936013590565b600054604051631075c5d160e21b81526001600160a01b03909116906341d7174490612dfc908a908a908a908a908a908a908a90600401614850565b6020604051808303816000875af1158015612e1b573d6000803e3d6000fd5b505050506040513d601f19601f82011682018060405250810190612e3f9190614837565b5050505050505050565b60008181526004602052604081205480612e755760405162461bcd60e51b81526004016108f590614916565b6000612e826001836146bc565b905060028181548110612e9757612e9761463b565b906000526020600020906007020192505050919050565b33612eb7611f20565b6001600160a01b031614611989573360405163118cdaa760e01b81526004016108f591906139c0565b80516000818152600460205260408120549081900361308b5760028054600181810183556000839052855160079092027f405787fa12a823e0f2b7631cc41b3ba8828b3321ca811111fa75cd3aa3bb5ace810192835560208701517f405787fa12a823e0f2b7631cc41b3ba8828b3321ca811111fa75cd3aa3bb5acf909101805488959293919260ff1990911691908490811115612f8057612f80613a6f565b0217905550604082015160018201805461ff001916610100836003811115612faa57612faa613a6f565b021790555060608201516002820190612fc3908261474c565b5060808201516003820190612fd8908261474c565b5060a082015160048281019190915560c0830151600583015560e0909201516006909101805460ff191691151591909117905560038054600181019091557fc2575a0e9e593c00f959f8c92f12db2869c3395a3b0502d05e2516446f71f85b01839055600254600084815260209290925260409182902055517f5d2a2cb28f34531426e8581592f81439fc29efd2e4edf7b8a93f56196f80418b9061307e908590613b9a565b60405180910390a16131b1565b60006130986001836146bc565b905083600282815481106130ae576130ae61463b565b90600052602060002090600702016000820151816000015560208201518160010160006101000a81548160ff021916908360028111156130f0576130f0613a6f565b0217905550604082015160018201805461ff00191661010083600381111561311a5761311a613a6f565b021790555060608201516002820190613133908261474c565b5060808201516003820190613148908261474c565b5060a0820151600482015560c0820151600582015560e0909101516006909101805460ff19169115159190911790556040517f4ccc415e85f0b873741ad366aeb697016e2f8a73fdcacb570bfa1bff847d4b34906131a7908690613b9a565b60405180910390a1505b6131ba836135f1565b505050565b7ff0c57e16840df040f15088dc2f81fe391c3923bec73e23a9662efc9c229c6a0090565b6119896134e8565b6131f36134e8565b61098a816136c8565b306001600160a01b037f000000000000000000000000000000000000000000000000000000000000000016148061328357507f00000000000000000000000000000000000000000000000000000000000000006001600160a01b0316613277600080516020614967833981519152546001600160a01b031690565b6001600160a01b031614155b156119895760405163703e46dd60e11b815260040160405180910390fd5b61098a612eae565b816001600160a01b03166352d1902d6040518163ffffffff1660e01b8152600401602060405180830381865afa925050508015613303575060408051601f3d908101601f1916820190925261330091810190614837565b60015b6133225781604051634c9c8ce360e01b81526004016108f591906139c0565b600080516020614967833981519152811461335357604051632a87526960e21b8152600481018290526024016108f5565b6131ba83836136d0565b306001600160a01b037f000000000000000000000000000000000000000000000000000000000000000016146119895760405163703e46dd60e11b815260040160405180910390fd5b60006133b06134c4565b80546001600160a01b038481166001600160a01b031983168117845560405193945091169182907f8be0079c531659141344cd1fd0a4f28419497f9722a3daafe3b4186f6b6457e090600090a3505050565b8051600061340f82612638565b9050801561345c5760405162461bcd60e51b815260206004820152601a6024820152795061727469636970616e7420616c72656164792065786973747360301b60448201526064016108f5565b60006040518061010001604052808481526020018560200151600281111561348657613486613a6f565b815260200160008152602001856040015181526020018560600151815260200142815260200142815260200160001515815250905061118181612ee0565b7f9016d09d72d40fdae2fd8ceac6b6234c7706214fd39c1cd1e609a0528c19930090565b6134f0613726565b61198957604051631afcd79f60e31b815260040160405180910390fd5b806000036135185750565b600081815260046020526040902054806135445760405162461bcd60e51b81526004016108f590614916565b60006135516001836146bc565b90506001600282815481106135685761356861463b565b906000526020600020906007020160010160019054906101000a900460ff16600381111561359857613598613a6f565b146131ba5760405162461bcd60e51b815260206004820152602360248201527f5061727469636970616e74206e6f7420696e20616e206163746976652073746160448201526274757360e81b60648201526084016108f5565b6135f96138b0565b604080516001808252818301909252600091816020015b6136186138e7565b81526020019060019003908161361057905050905082816000815181106136415761364161463b565b60200260200101819052506131ba600060015463899cb66260e01b8460405160240161366d9190613b36565b60408051601f19818403018152918152602080830180516001600160e01b03166001600160e01b0319909516949094179093528051808401825260008082528251808601845281815283519586019093528452919288612dc0565b612d796134e8565b6136d982613740565b6040516001600160a01b038316907fbc7cd75a20ee27fd9adebab32041f755214dbc6bffa90cc0225b39da2e5c2d3b90600090a280511561371e576131ba828261379c565b611696613812565b60006137306131bf565b54600160401b900460ff16919050565b806001600160a01b03163b60000361376d5780604051634c9c8ce360e01b81526004016108f591906139c0565b60008051602061496783398151915280546001600160a01b0319166001600160a01b0392909216919091179055565b6060600080846001600160a01b0316846040516137b9919061494a565b600060405180830381855af49150503d80600081146137f4576040519150601f19603f3d011682016040523d82523d6000602084013e6137f9565b606091505b5091509150613809858383613831565b95945050505050565b34156119895760405163b398979f60e01b815260040160405180910390fd5b6060826138465761384182613887565b613880565b815115801561385d57506001600160a01b0384163b155b1561387d5783604051639996b31560e01b81526004016108f591906139c0565b50805b9392505050565b8051156138975780518082602001fd5b604051630a12f52160e11b815260040160405180910390fd5b6040805160c08101909152806000815260006020820181905260408201819052606082018190526080820181905260a09091015290565b60408051610100810190915260008082526020820190815260200160008152602001606081526020016060815260200160008152602001600081526020016000151581525090565b828054828255906000526020600020908101928215613982579160200282015b828111156139825781546001600160a01b0319166001600160a01b0384351617825560209092019160019091019061394f565b5061398e929150613992565b5090565b5b8082111561398e5760008155600101613993565b6000602082840312156139b957600080fd5b5035919050565b6001600160a01b0391909116815260200190565b600080604083850312156139e757600080fd5b50508035926020909101359150565b60005b83811015613a115781810151838201526020016139f9565b50506000910152565b60008151808452613a328160208601602086016139f6565b601f01601f19169290920160200192915050565b838152606060208201526000613a5f6060830185613a1a565b9050826040830152949350505050565b634e487b7160e01b600052602160045260246000fd5b60038110613a9557613a95613a6f565b9052565b60048110613a9557613a95613a6f565b6000610100825184526020830151613ac46020860182613a85565b506040830151613ad76040860182613a99565b506060830151816060860152613aef82860182613a1a565b91505060808301518482036080860152613b098282613a1a565b91505060a083015160a085015260c083015160c085015260e0830151151560e08501528091505092915050565b600060208083016020845280855180835260408601915060408160051b87010192506020870160005b82811015613b8d57603f19888603018452613b7b858351613aa9565b94509285019290850190600101613b5f565b5092979650505050505050565b6020815260006138806020830184613aa9565b60008151808452602080850194506020840160005b83811015613bde57815187529582019590820190600101613bc2565b509495945050505050565b6020815260006138806020830184613bad565b801515811461098a57600080fd5b60008060408385031215613c1d57600080fd5b823591506020830135613c2f81613bfc565b809150509250929050565b60008060408385031215613c4d57600080fd5b82359150602083013560048110613c2f57600080fd5b6001600160a01b038116811461098a57600080fd5b60008060408385031215613c8b57600080fd5b8235613c9681613c63565b91506020830135613c2f81613c63565b600060208284031215613cb857600080fd5b813561388081613c63565b634e487b7160e01b600052604160045260246000fd5b604051601f8201601f191681016001600160401b0381118282101715613d0157613d01613cc3565b604052919050565b600082601f830112613d1a57600080fd5b81356001600160401b03811115613d3357613d33613cc3565b613d46601f8201601f1916602001613cd9565b818152846020838601011115613d5b57600080fd5b816020850160208301376000918101602001919091529392505050565b60008060408385031215613d8b57600080fd5b8235613d9681613c63565b915060208301356001600160401b03811115613db157600080fd5b613dbd85828601613d09565b9150509250929050565b60008083601f840112613dd957600080fd5b5081356001600160401b03811115613df057600080fd5b602083019150836020828501011115613e0857600080fd5b9250929050565b60008060008060008060a08789031215613e2857600080fd5b8635955060208701356001600160401b0380821115613e4657600080fd5b613e528a838b01613dc7565b90975095506040890135915080821115613e6b57600080fd5b613e778a838b01613d09565b94506060890135915080821115613e8d57600080fd5b50613e9a89828a01613d09565b925050608087013590509295509295509295565b803560038110613ebd57600080fd5b919050565b60008060408385031215613ed557600080fd5b82359150613ee560208401613eae565b90509250929050565b85815260a060208201526000613f0760a0830187613a1a565b8281036040840152613f198187613a1a565b90508281036060840152613f2d8186613a1a565b9150508260808301529695505050505050565b600060208083018184528085518083526040925060408601915060408160051b8701018488016000805b84811015613ff257898403603f190186528251805185528881015189860152878101516080898701819052815190870181905260a08701918b019085905b80821015613fd15782516001600160a01b03168452928c0192918c019160019190910190613fa8565b50505060609182015195909101949094529487019491870191600101613f6a565b50919998505050505050505050565b60006080828403121561401357600080fd5b604051608081016001600160401b03828210818311171561403657614036613cc3565b816040528293508435835261404d60208601613eae565b6020840152604085013591508082111561406657600080fd5b61407286838701613d09565b6040840152606085013591508082111561408b57600080fd5b5061409885828601613d09565b6060830152505092915050565b6000602082840312156140b757600080fd5b81356001600160401b038111156140cd57600080fd5b6140d984828501614001565b949350505050565b600082825180855260208086019550808260051b84010181860160005b8481101561414d57601f19868403018952815160608151855285820151818787015261412c82870182613a1a565b604093840151969093019590955250988401989250908301906001016140fe565b5090979650505050505050565b60208152600061388060208301846140e1565b6000806040838503121561418057600080fd5b823561418b81613c63565b946020939093013593505050565b600082825180855260208086019550808260051b84010181860160005b8481101561414d57601f19868403018952815160a0815185528582015181878701526141e482870182613a1a565b915050604080830151868303828801526141fe8382613a1a565b92505050606080830151868303828801526142198382613a1a565b60809485015197909401969096525050988401989250908301906001016141b6565b60808152600061424e60808301876140e1565b82810360208401526142608187614199565b905082810360408401526142748186613bad565b905082810360608401526142888185613bad565b979650505050505050565b600060208083850312156142a657600080fd5b82356001600160401b03808211156142bd57600080fd5b818501915085601f8301126142d157600080fd5b8135818111156142e3576142e3613cc3565b8060051b6142f2858201613cd9565b918252838101850191858101908984111561430c57600080fd5b86860192505b838310156143485782358581111561432a5760008081fd5b6143388b89838a0101614001565b8352509186019190860190614312565b9998505050505050505050565b6020815260006138806020830184613a1a565b60008060008060006080868803121561438057600080fd5b85359450602086013593506040860135925060608601356001600160401b03808211156143ac57600080fd5b818801915088601f8301126143c057600080fd5b8135818111156143cf57600080fd5b8960208260051b85010111156143e457600080fd5b9699959850939650602001949392505050565b6020815260006138806020830184614199565b6000806000806060858703121561442057600080fd5b8435935060208501356001600160401b0381111561443d57600080fd5b61444987828801613dc7565b9598909750949560400135949350505050565b60006020828403121561446e57600080fd5b815161388081613bfc565b600181811c9082168061448d57607f821691505b6020821081036144ad57634e487b7160e01b600052602260045260246000fd5b50919050565b600081546144c081614479565b8085526020600183811680156144dd57600181146144f757614525565b60ff1985168884015283151560051b880183019550614525565b866000528260002060005b8581101561451d5781548a8201860152908301908401614502565b890184019650505b505050505092915050565b600060208083016020845280855480835260409250604086019150600560408260051b88010188600052602060002060005b8481101561460f57603f198a840301865261010082548452600183015460ff61458f8b8701828416613a85565b6145a08a8701828460081c16613a99565b50508060608501526145b7818501600285016144b3565b905083810360808501526145ce81600385016144b3565b9050600483015460a08501528483015460c08501526145f1600684015460ff1690565b80151560e08601525095880195925060079190910190600101614562565b50909998505050505050505050565b60006020828403121561463057600080fd5b815161388081613c63565b634e487b7160e01b600052603260045260246000fd5b60208082526035908201527f5061727469636970616e7420646f6573206e6f74206578697374206f72206973604082015274206e6f7420696e204163746976652073746174757360581b606082015260800190565b634e487b7160e01b600052601160045260246000fd5b81810381811115610a1c57610a1c6146a6565b602080825260139082015272426c6f636b206e756d626572206973206c6f7760681b604082015260600190565b601f8211156131ba576000816000526020600020601f850160051c810160208610156147255750805b601f850160051c820191505b8181101561474457828155600101614731565b505050505050565b81516001600160401b0381111561476557614765613cc3565b614779816147738454614479565b846146fc565b602080601f8311600181146147ae57600084156147965750858301515b600019600386901b1c1916600185901b178555614744565b600085815260208120601f198616915b828110156147dd578886015182559484019460019091019084016147be565b50858210156147fb5787850151600019600388901b60f8161c191681555b5050505050600190811b01905550565b80820180821115610a1c57610a1c6146a6565b600060018201614830576148306146a6565b5060010190565b60006020828403121561484957600080fd5b5051919050565b600061018089835288602084015280604084015261487081840189613a1a565b905082810360608401526148848188613a1a565b905082810360808401526148988187613a1a565b905082810360a08401526148ac8186613a1a565b9150508251600581106148c1576148c1613a6f565b60c0830152602083015160e083015260408301516001600160a01b039081166101008401526060840151811661012084015260808401511661014083015260a090920151610160909101529695505050505050565b6020808252601a908201527914185c9d1a58da5c185b9d081b9bdd081c9959da5cdd195c995960321b604082015260600190565b6000825161495c8184602087016139f6565b919091019291505056fe360894a13ba1a3210667c828492db98dca3e2076cc3735a920a3ca505d382bbca2646970667358221220563a54df7068a38e410c0a9d1cf8897d33b2a6d02c03764daee911b34c368f5864736f6c63430008180033",
  "linkReferences": {},
  "deployedLinkReferences": {}
}