{
  "_format": "hh-sol-artifact-1",
  "contractName": "ZkDvpErc721CC",
  "sourceName": "src/rayls-protocol/ZkDvp/ZkDvpErc721CC.sol",
  "abi": [
    {
      "inputs": [
        {
          "internalType": "string",
          "name": "uri",
          "type": "string"
        },
        {
          "internalType": "string",
          "name": "name_",
          "type": "string"
        },
        {
          "internalType": "string",
          "name": "symbol_",
          "type": "string"
        },
        {
          "internalType": "address",
          "name": "_endpoint",
          "type": "address"
        },
        {
          "internalType": "address",
          "name": "_owner",
          "type": "address"
        }
      ],
      "stateMutability": "nonpayable",
      "type": "constructor"
    },
    {
      "inputs": [
        {
          "internalType": "address",
          "name": "sender",
          "type": "address"
        },
        {
          "internalType": "uint256",
          "name": "tokenId",
          "type": "uint256"
        },
        {
          "internalType": "address",
          "name": "owner",
          "type": "address"
        }
      ],
      "name": "ERC721IncorrectOwner",
      "type": "error"
    },
    {
      "inputs": [
        {
          "internalType": "address",
          "name": "operator",
          "type": "address"
        },
        {
          "internalType": "uint256",
          "name": "tokenId",
          "type": "uint256"
        }
      ],
      "name": "ERC721InsufficientApproval",
      "type": "error"
    },
    {
      "inputs": [
        {
          "internalType": "address",
          "name": "approver",
          "type": "address"
        }
      ],
      "name": "ERC721InvalidApprover",
      "type": "error"
    },
    {
      "inputs": [
        {
          "internalType": "address",
          "name": "operator",
          "type": "address"
        }
      ],
      "name": "ERC721InvalidOperator",
      "type": "error"
    },
    {
      "inputs": [
        {
          "internalType": "address",
          "name": "owner",
          "type": "address"
        }
      ],
      "name": "ERC721InvalidOwner",
      "type": "error"
    },
    {
      "inputs": [
        {
          "internalType": "address",
          "name": "receiver",
          "type": "address"
        }
      ],
      "name": "ERC721InvalidReceiver",
      "type": "error"
    },
    {
      "inputs": [
        {
          "internalType": "address",
          "name": "sender",
          "type": "address"
        }
      ],
      "name": "ERC721InvalidSender",
      "type": "error"
    },
    {
      "inputs": [
        {
          "internalType": "uint256",
          "name": "tokenId",
          "type": "uint256"
        }
      ],
      "name": "ERC721NonexistentToken",
      "type": "error"
    },
    {
      "inputs": [],
      "name": "InvalidInitialization",
      "type": "error"
    },
    {
      "inputs": [],
      "name": "NotInitializing",
      "type": "error"
    },
    {
      "inputs": [
        {
          "internalType": "address",
          "name": "owner",
          "type": "address"
        }
      ],
      "name": "OwnableInvalidOwner",
      "type": "error"
    },
    {
      "inputs": [
        {
          "internalType": "address",
          "name": "account",
          "type": "address"
        }
      ],
      "name": "OwnableUnauthorizedAccount",
      "type": "error"
    },
    {
      "anonymous": false,
      "inputs": [
        {
          "indexed": true,
          "internalType": "address",
          "name": "owner",
          "type": "address"
        },
        {
          "indexed": true,
          "internalType": "address",
          "name": "approved",
          "type": "address"
        },
        {
          "indexed": true,
          "internalType": "uint256",
          "name": "tokenId",
          "type": "uint256"
        }
      ],
      "name": "Approval",
      "type": "event"
    },
    {
      "anonymous": false,
      "inputs": [
        {
          "indexed": true,
          "internalType": "address",
          "name": "owner",
          "type": "address"
        },
        {
          "indexed": true,
          "internalType": "address",
          "name": "operator",
          "type": "address"
        },
        {
          "indexed": false,
          "internalType": "bool",
          "name": "approved",
          "type": "bool"
        }
      ],
      "name": "ApprovalForAll",
      "type": "event"
    },
    {
      "anonymous": false,
      "inputs": [
        {
          "indexed": false,
          "internalType": "uint64",
          "name": "version",
          "type": "uint64"
        }
      ],
      "name": "Initialized",
      "type": "event"
    },
    {
      "anonymous": false,
      "inputs": [
        {
          "indexed": true,
          "internalType": "address",
          "name": "previousOwner",
          "type": "address"
        },
        {
          "indexed": true,
          "internalType": "address",
          "name": "newOwner",
          "type": "address"
        }
      ],
      "name": "OwnershipTransferred",
      "type": "event"
    },
    {
      "anonymous": false,
      "inputs": [
        {
          "indexed": true,
          "internalType": "address",
          "name": "from",
          "type": "address"
        },
        {
          "indexed": true,
          "internalType": "address",
          "name": "to",
          "type": "address"
        },
        {
          "indexed": true,
          "internalType": "uint256",
          "name": "tokenId",
          "type": "uint256"
        }
      ],
      "name": "Transfer",
      "type": "event"
    },
    {
      "inputs": [
        {
          "internalType": "uint256",
          "name": "_nftId",
          "type": "uint256"
        },
        {
          "internalType": "uint256",
          "name": "_chainId",
          "type": "uint256"
        },
        {
          "components": [
            {
              "internalType": "string",
              "name": "key",
              "type": "string"
            },
            {
              "internalType": "string",
              "name": "value",
              "type": "string"
            },
            {
              "internalType": "bool",
              "name": "isPublic",
              "type": "bool"
            }
          ],
          "internalType": "struct SharedObjects.ZkDvp721ExtraData[]",
          "name": "_extraDatas",
          "type": "tuple[]"
        },
        {
          "internalType": "address",
          "name": "_newOwner",
          "type": "address"
        }
      ],
      "name": "UpdateInfosAfterZkDvpWithdraw",
      "outputs": [],
      "stateMutability": "nonpayable",
      "type": "function"
    },
    {
      "inputs": [],
      "name": "_getEndpointAddress",
      "outputs": [
        {
          "internalType": "address",
          "name": "",
          "type": "address"
        }
      ],
      "stateMutability": "view",
      "type": "function"
    },
    {
      "inputs": [],
      "name": "_tokenName",
      "outputs": [
        {
          "internalType": "string",
          "name": "",
          "type": "string"
        }
      ],
      "stateMutability": "view",
      "type": "function"
    },
    {
      "inputs": [],
      "name": "_tokenSymbol",
      "outputs": [
        {
          "internalType": "string",
          "name": "",
          "type": "string"
        }
      ],
      "stateMutability": "view",
      "type": "function"
    },
    {
      "inputs": [
        {
          "internalType": "address",
          "name": "_endpoint",
          "type": "address"
        }
      ],
      "name": "_updateEndpoint",
      "outputs": [],
      "stateMutability": "nonpayable",
      "type": "function"
    },
    {
      "inputs": [
        {
          "internalType": "address",
          "name": "to",
          "type": "address"
        },
        {
          "internalType": "uint256",
          "name": "tokenId",
          "type": "uint256"
        }
      ],
      "name": "approve",
      "outputs": [],
      "stateMutability": "nonpayable",
      "type": "function"
    },
    {
      "inputs": [
        {
          "internalType": "address",
          "name": "owner",
          "type": "address"
        }
      ],
      "name": "balanceOf",
      "outputs": [
        {
          "internalType": "uint256",
          "name": "",
          "type": "uint256"
        }
      ],
      "stateMutability": "view",
      "type": "function"
    },
    {
      "inputs": [
        {
          "internalType": "uint256",
          "name": "_id",
          "type": "uint256"
        }
      ],
      "name": "burn",
      "outputs": [],
      "stateMutability": "nonpayable",
      "type": "function"
    },
    {
      "inputs": [
        {
          "internalType": "bytes32",
          "name": "_resourceId",
          "type": "bytes32"
        }
      ],
      "name": "getAddressByResourceId",
      "outputs": [
        {
          "internalType": "address",
          "name": "",
          "type": "address"
        }
      ],
      "stateMutability": "view",
      "type": "function"
    },
    {
      "inputs": [
        {
          "internalType": "uint256",
          "name": "tokenId",
          "type": "uint256"
        }
      ],
      "name": "getApproved",
      "outputs": [
        {
          "internalType": "address",
          "name": "",
          "type": "address"
        }
      ],
      "stateMutability": "view",
      "type": "function"
    },
    {
      "inputs": [
        {
          "internalType": "uint256",
          "name": "_nftId",
          "type": "uint256"
        }
      ],
      "name": "getChainIdOwnerByNftId",
      "outputs": [
        {
          "internalType": "uint256",
          "name": "",
          "type": "uint256"
        }
      ],
      "stateMutability": "view",
      "type": "function"
    },
    {
      "inputs": [
        {
          "internalType": "uint256",
          "name": "_tokenId",
          "type": "uint256"
        }
      ],
      "name": "getNftExtradaData",
      "outputs": [
        {
          "components": [
            {
              "internalType": "string",
              "name": "key",
              "type": "string"
            },
            {
              "internalType": "string",
              "name": "value",
              "type": "string"
            },
            {
              "internalType": "bool",
              "name": "isPublic",
              "type": "bool"
            }
          ],
          "internalType": "struct SharedObjects.ZkDvp721ExtraData[]",
          "name": "",
          "type": "tuple[]"
        }
      ],
      "stateMutability": "view",
      "type": "function"
    },
    {
      "inputs": [],
      "name": "getTotalSupply",
      "outputs": [
        {
          "internalType": "uint256[]",
          "name": "",
          "type": "uint256[]"
        }
      ],
      "stateMutability": "view",
      "type": "function"
    },
    {
      "inputs": [
        {
          "internalType": "string",
          "name": "uri",
          "type": "string"
        },
        {
          "internalType": "string",
          "name": "name_",
          "type": "string"
        },
        {
          "internalType": "string",
          "name": "symbol_",
          "type": "string"
        }
      ],
      "name": "initialize",
      "outputs": [],
      "stateMutability": "nonpayable",
      "type": "function"
    },
    {
      "inputs": [
        {
          "internalType": "address",
          "name": "owner",
          "type": "address"
        },
        {
          "internalType": "address",
          "name": "operator",
          "type": "address"
        }
      ],
      "name": "isApprovedForAll",
      "outputs": [
        {
          "internalType": "bool",
          "name": "",
          "type": "bool"
        }
      ],
      "stateMutability": "view",
      "type": "function"
    },
    {
      "inputs": [
        {
          "internalType": "address",
          "name": "_to",
          "type": "address"
        },
        {
          "internalType": "uint256",
          "name": "_id",
          "type": "uint256"
        },
        {
          "internalType": "uint256",
          "name": "_chainId",
          "type": "uint256"
        },
        {
          "components": [
            {
              "internalType": "string",
              "name": "key",
              "type": "string"
            },
            {
              "internalType": "string",
              "name": "value",
              "type": "string"
            },
            {
              "internalType": "bool",
              "name": "isPublic",
              "type": "bool"
            }
          ],
          "internalType": "struct SharedObjects.ZkDvp721ExtraData[]",
          "name": "_extraDatas",
          "type": "tuple[]"
        }
      ],
      "name": "mint",
      "outputs": [],
      "stateMutability": "nonpayable",
      "type": "function"
    },
    {
      "inputs": [],
      "name": "name",
      "outputs": [
        {
          "internalType": "string",
          "name": "",
          "type": "string"
        }
      ],
      "stateMutability": "view",
      "type": "function"
    },
    {
      "inputs": [],
      "name": "owner",
      "outputs": [
        {
          "internalType": "address",
          "name": "",
          "type": "address"
        }
      ],
      "stateMutability": "view",
      "type": "function"
    },
    {
      "inputs": [
        {
          "internalType": "uint256",
          "name": "tokenId",
          "type": "uint256"
        }
      ],
      "name": "ownerOf",
      "outputs": [
        {
          "internalType": "address",
          "name": "",
          "type": "address"
        }
      ],
      "stateMutability": "view",
      "type": "function"
    },
    {
      "inputs": [
        {
          "internalType": "bytes32",
          "name": "_resourceId",
          "type": "bytes32"
        }
      ],
      "name": "receiveResourceId",
      "outputs": [],
      "stateMutability": "nonpayable",
      "type": "function"
    },
    {
      "inputs": [],
      "name": "renounceOwnership",
      "outputs": [],
      "stateMutability": "nonpayable",
      "type": "function"
    },
    {
      "inputs": [],
      "name": "resourceId",
      "outputs": [
        {
          "internalType": "bytes32",
          "name": "",
          "type": "bytes32"
        }
      ],
      "stateMutability": "view",
      "type": "function"
    },
    {
      "inputs": [
        {
          "internalType": "address",
          "name": "from",
          "type": "address"
        },
        {
          "internalType": "address",
          "name": "to",
          "type": "address"
        },
        {
          "internalType": "uint256",
          "name": "tokenId",
          "type": "uint256"
        }
      ],
      "name": "safeTransferFrom",
      "outputs": [],
      "stateMutability": "nonpayable",
      "type": "function"
    },
    {
      "inputs": [
        {
          "internalType": "address",
          "name": "from",
          "type": "address"
        },
        {
          "internalType": "address",
          "name": "to",
          "type": "address"
        },
        {
          "internalType": "uint256",
          "name": "tokenId",
          "type": "uint256"
        },
        {
          "internalType": "bytes",
          "name": "data",
          "type": "bytes"
        }
      ],
      "name": "safeTransferFrom",
      "outputs": [],
      "stateMutability": "nonpayable",
      "type": "function"
    },
    {
      "inputs": [
        {
          "internalType": "address",
          "name": "operator",
          "type": "address"
        },
        {
          "internalType": "bool",
          "name": "approved",
          "type": "bool"
        }
      ],
      "name": "setApprovalForAll",
      "outputs": [],
      "stateMutability": "nonpayable",
      "type": "function"
    },
    {
      "inputs": [
        {
          "internalType": "bytes4",
          "name": "interfaceId",
          "type": "bytes4"
        }
      ],
      "name": "supportsInterface",
      "outputs": [
        {
          "internalType": "bool",
          "name": "",
          "type": "bool"
        }
      ],
      "stateMutability": "view",
      "type": "function"
    },
    {
      "inputs": [],
      "name": "symbol",
      "outputs": [
        {
          "internalType": "string",
          "name": "",
          "type": "string"
        }
      ],
      "stateMutability": "view",
      "type": "function"
    },
    {
      "inputs": [
        {
          "internalType": "uint256",
          "name": "tokenId",
          "type": "uint256"
        }
      ],
      "name": "tokenURI",
      "outputs": [
        {
          "internalType": "string",
          "name": "",
          "type": "string"
        }
      ],
      "stateMutability": "view",
      "type": "function"
    },
    {
      "inputs": [
        {
          "internalType": "address",
          "name": "from",
          "type": "address"
        },
        {
          "internalType": "address",
          "name": "to",
          "type": "address"
        },
        {
          "internalType": "uint256",
          "name": "tokenId",
          "type": "uint256"
        }
      ],
      "name": "transferFrom",
      "outputs": [],
      "stateMutability": "nonpayable",
      "type": "function"
    },
    {
      "inputs": [
        {
          "internalType": "address",
          "name": "newOwner",
          "type": "address"
        }
      ],
      "name": "transferOwnership",
      "outputs": [],
      "stateMutability": "nonpayable",
      "type": "function"
    }
  ],
  "bytecode": "0x60806040523480156200001157600080fd5b50604051620025ab380380620025ab8339810160408190526200003491620002da565b600080546001600160a01b0319166001600160a01b038416179055808484600262000060838262000422565b5060036200006f828262000422565b5050506001600160a01b038116620000a157604051631e4fbdf760e01b81526000600482015260240160405180910390fd5b620000ac81620000ef565b50600a620000bb858262000422565b50600b620000ca848262000422565b506009620000d9868262000422565b50620000e462000141565b5050505050620004ee565b600880546001600160a01b038381166001600160a01b0319831681179093556040519116919082907f8be0079c531659141344cd1fd0a4f28419497f9722a3daafe3b4186f6b6457e090600090a35050565b7ff0c57e16840df040f15088dc2f81fe391c3923bec73e23a9662efc9c229c6a00805468010000000000000000900460ff1615620001925760405163f92ee8a960e01b815260040160405180910390fd5b80546001600160401b0390811614620001f25780546001600160401b0319166001600160401b0390811782556040519081527fc7f505b2f371ae2175ee4913f4499e1f2633a7b5936321eed1cdaeb6115181d29060200160405180910390a15b50565b634e487b7160e01b600052604160045260246000fd5b600082601f8301126200021d57600080fd5b81516001600160401b03808211156200023a576200023a620001f5565b604051601f8301601f19908116603f01168101908282118183101715620002655762000265620001f5565b81604052838152602092508660208588010111156200028357600080fd5b600091505b83821015620002a7578582018301518183018401529082019062000288565b6000602085830101528094505050505092915050565b80516001600160a01b0381168114620002d557600080fd5b919050565b600080600080600060a08688031215620002f357600080fd5b85516001600160401b03808211156200030b57600080fd5b6200031989838a016200020b565b965060208801519150808211156200033057600080fd5b6200033e89838a016200020b565b955060408801519150808211156200035557600080fd5b5062000364888289016200020b565b9350506200037560608701620002bd565b91506200038560808701620002bd565b90509295509295909350565b600181811c90821680620003a657607f821691505b602082108103620003c757634e487b7160e01b600052602260045260246000fd5b50919050565b601f8211156200041d576000816000526020600020601f850160051c81016020861015620003f85750805b601f850160051c820191505b81811015620004195782815560010162000404565b5050505b505050565b81516001600160401b038111156200043e576200043e620001f5565b62000456816200044f845462000391565b84620003cd565b602080601f8311600181146200048e5760008415620004755750858301515b600019600386901b1c1916600185901b17855562000419565b600085815260208120601f198616915b82811015620004bf578886015182559484019460019091019084016200049e565b5085821015620004de5787850151600019600388901b60f8161c191681555b5050505050600190811b01905550565b6120ad80620004fe6000396000f3fe608060405234801561001057600080fd5b506004361061017a5760003560e01c80638da5cb5b116100d45780638da5cb5b146102f25780638fa43d7a1461030357806395d89b41146103165780639f0c81251461031e578063a22cb46514610326578063a6487c5314610339578063b247d9461461034c578063b88d4fde1461035d578063c4e41b2214610370578063c87b56dd14610385578063e3ee8a4314610398578063e6195fd1146103ab578063e985e9c5146103be578063ecf35cca146103d1578063f2fde38b146103d957600080fd5b806301ffc9a71461017f57806306fdde03146101a7578063081812fc146101bc578063095ea7b3146101dc5780630e9a7f73146101f157806311f50c851461021157806323b872dd1461022457806342842e0e1461023757806342966c681461024a5780635f997c5b1461025d5780636352211e146102745780636f1813181461028757806370a08231146102b7578063715018a6146102ca5780637a16b264146102d2575b600080fd5b61019261018d3660046117e6565b6103ec565b60405190151581526020015b60405180910390f35b6101af61043e565b60405161019e9190611853565b6101cf6101ca366004611866565b6104d0565b60405161019e919061187f565b6101ef6101ea3660046118a8565b6104e5565b005b6102046101ff366004611866565b6104f4565b60405161019e91906118d4565b6101cf61021f366004611866565b61069c565b6101ef610232366004611969565b61070a565b6101ef610245366004611969565b61079e565b6101ef610258366004611866565b6107be565b61026660015481565b60405190815260200161019e565b6101cf610282366004611866565b6107d8565b6101ef6102953660046119aa565b600080546001600160a01b0319166001600160a01b0392909216919091179055565b6102666102c53660046119aa565b6107e3565b6101ef61082b565b6102666102e0366004611866565b6000908152600e602052604090205490565b6008546001600160a01b03166101cf565b6101ef610311366004611bcb565b61083f565b6101af6108f8565b6101af610907565b6101ef610334366004611c2d565b610995565b6101ef610347366004611c62565b6109a0565b6000546001600160a01b03166101cf565b6101ef61036b366004611ce9565b610b1b565b610378610b32565b60405161019e9190611d5c565b6101af610393366004611866565b610b41565b6101ef6103a6366004611866565b610ba9565b6101ef6103b9366004611da0565b610bb9565b6101926103cc366004611e02565b610c8e565b6101af610cbc565b6101ef6103e73660046119aa565b610cc9565b60006001600160e01b031982166380ac58cd60e01b148061041d57506001600160e01b03198216635b5e139f60e01b145b8061043857506301ffc9a760e01b6001600160e01b03198316145b92915050565b6060600a805461044d90611e3b565b80601f016020809104026020016040519081016040528092919081815260200182805461047990611e3b565b80156104c65780601f1061049b576101008083540402835291602001916104c6565b820191906000526020600020905b8154815290600101906020018083116104a957829003601f168201915b5050505050905090565b60006104db82610d04565b5061043882610d3c565b6104f0828233610d57565b5050565b6060600f6000838152602001908152602001600020805480602002602001604051908101604052809291908181526020016000905b82821015610691578382906000526020600020906003020160405180606001604052908160008201805461055c90611e3b565b80601f016020809104026020016040519081016040528092919081815260200182805461058890611e3b565b80156105d55780601f106105aa576101008083540402835291602001916105d5565b820191906000526020600020905b8154815290600101906020018083116105b857829003601f168201915b505050505081526020016001820180546105ee90611e3b565b80601f016020809104026020016040519081016040528092919081815260200182805461061a90611e3b565b80156106675780601f1061063c57610100808354040283529160200191610667565b820191906000526020600020905b81548152906001019060200180831161064a57829003601f168201915b50505091835250506002919091015460ff1615156020918201529082526001929092019101610529565b505050509050919050565b600080546040516311f50c8560e01b8152600481018490526001600160a01b03909116906311f50c8590602401602060405180830381865afa1580156106e6573d6000803e3d6000fd5b505050506040513d601f19601f820116820180604052508101906104389190611e75565b6001600160a01b03821661073d576000604051633250574960e11b8152600401610734919061187f565b60405180910390fd5b600061074a838333610d64565b9050836001600160a01b0316816001600160a01b031614610798576040516364283d7b60e01b81526001600160a01b0380861660048301526024820184905282166044820152606401610734565b50505050565b6107b983838360405180602001604052806000815250610b1b565b505050565b6107c781610ebe565b6000908152600e6020526040812055565b600061043882610d04565b60006001600160a01b03821661080f5760006040516322718ad960e21b8152600401610734919061187f565b506001600160a01b031660009081526005602052604090205490565b610833610ef9565b61083d6000610f26565b565b6108498484610f78565b6000838152600e602052604081208390555b81518110156108f1576000848152600f60205260409020825183908390811061088657610886611e92565b602090810291909101810151825460018101845560009384529190922082516003909202019081906108b89082611ef8565b50602082015160018201906108cd9082611ef8565b50604091909101516002909101805460ff191691151591909117905560010161085b565b5050505050565b6060600b805461044d90611e3b565b600a805461091490611e3b565b80601f016020809104026020016040519081016040528092919081815260200182805461094090611e3b565b801561098d5780601f106109625761010080835404028352916020019161098d565b820191906000526020600020905b81548152906001019060200180831161097057829003601f168201915b505050505081565b6104f0338383610fdd565b7ff0c57e16840df040f15088dc2f81fe391c3923bec73e23a9662efc9c229c6a008054600160401b810460ff1615906001600160401b03166000811580156109e55750825b90506000826001600160401b03166001148015610a015750303b155b905081158015610a0f575080155b15610a2d5760405163f92ee8a960e01b815260040160405180910390fd5b845467ffffffffffffffff191660011785558315610a5757845460ff60401b1916600160401b1785555b6000610a61611073565b90506000610a6d61108b565b9050610a776110a2565b600155600a610a868a82611ef8565b50600b610a938982611ef8565b506009610aa08b82611ef8565b50610aaa82610f26565b600080546001600160a01b0319166001600160a01b0392909216919091179055508315610b1157845460ff60401b19168555604051600181527fc7f505b2f371ae2175ee4913f4499e1f2633a7b5936321eed1cdaeb6115181d29060200160405180910390a15b5050505050505050565b610b2684848461070a565b610798848484846110b6565b6060610b3c6111c6565b905090565b6060610b4c82610d04565b506000610b5761121d565b90506000815111610b775760405180602001604052806000815250610ba2565b80610b818461122c565b604051602001610b92929190611fb7565b6040516020818303038152906040525b9392505050565b6001819055610bb66112be565b50565b610bc581856000610d64565b506000848152600e60205260409020839055815115610798576000848152600f60205260408120610bf59161172e565b60005b82518110156108f1576000858152600f602052604090208351849083908110610c2357610c23611e92565b60209081029190910181015182546001810184556000938452919092208251600390920201908190610c559082611ef8565b5060208201516001820190610c6a9082611ef8565b50604091909101516002909101805460ff1916911515919091179055600101610bf8565b6001600160a01b03918216600090815260076020908152604080832093909416825291909152205460ff1690565b600b805461091490611e3b565b610cd1610ef9565b6001600160a01b038116610cfb576000604051631e4fbdf760e01b8152600401610734919061187f565b610bb681610f26565b600080610d1083611383565b90506001600160a01b03811661043857604051637e27328960e01b815260048101849052602401610734565b6000908152600660205260409020546001600160a01b031690565b6107b9838383600161139e565b600080610d7285858561149b565b90506001600160a01b038116610de3576000848152600c602052604090205460ff16610de357600d805460018181019092557fd7b6990105719101dabeb77144f2a3385c8033acd3af97e9423a695e81ad1eb5018590556000858152600c60205260409020805460ff191690911790555b6001600160a01b038516610eb6576000848152600c60205260408120805460ff191690555b600d54811015610eb45784600d8281548110610e2657610e26611e92565b906000526020600020015403610eac57600d8054610e4690600190611fe6565b81548110610e5657610e56611e92565b9060005260206000200154600d8281548110610e7457610e74611e92565b600091825260209091200155600d805480610e9157610e91612007565b60019003818190600052602060002001600090559055610eb4565b600101610e08565b505b949350505050565b6000610ecd6000836000610d64565b90506001600160a01b0381166104f057604051637e27328960e01b815260048101839052602401610734565b6008546001600160a01b0316331461083d573360405163118cdaa760e01b8152600401610734919061187f565b600880546001600160a01b038381166001600160a01b0319831681179093556040519116919082907f8be0079c531659141344cd1fd0a4f28419497f9722a3daafe3b4186f6b6457e090600090a35050565b6001600160a01b038216610fa2576000604051633250574960e11b8152600401610734919061187f565b6000610fb083836000610d64565b90506001600160a01b038116156107b95760006040516339e3563760e11b8152600401610734919061187f565b6001600160a01b0382166110065781604051630b61174360e31b8152600401610734919061187f565b6001600160a01b03838116600081815260076020908152604080832094871680845294825291829020805460ff191686151590811790915591519182527f17307eab39ab6107e8899845ad3d59bd9653f200f220920489ca2b5937696c31910160405180910390a3505050565b600060343610611088575060331936013560601c5b90565b600060483610611088575060471936013560601c90565b6000602036106110885750601f1936013590565b6001600160a01b0383163b1561079857604051630a85bd0160e11b81526001600160a01b0384169063150b7a02906110f890339088908790879060040161201d565b6020604051808303816000875af1925050508015611133575060408051601f3d908101601f191682019092526111309181019061205a565b60015b611193573d808015611161576040519150601f19603f3d011682016040523d82523d6000602084013e611166565b606091505b50805160000361118b5783604051633250574960e11b8152600401610734919061187f565b805181602001fd5b6001600160e01b03198116630a85bd0160e11b146108f15783604051633250574960e11b8152600401610734919061187f565b6060600d8054806020026020016040519081016040528092919081815260200182805480156104c657602002820191906000526020600020905b815481526020019060010190808311611200575050505050905090565b60606009805461044d90611e3b565b606060006112398361158f565b60010190506000816001600160401b03811115611258576112586119c7565b6040519080825280601f01601f191660200182016040528015611282576020820181803683370190505b5090508181016020015b600019016f181899199a1a9b1b9c1cb0b131b232b360811b600a86061a8153600a850494508461128c57509392505050565b60015461131f5760405162461bcd60e51b815260206004820152602960248201527f4f6e6c79207265676973746572207265736f75726365207768656e206974277360448201526808185c1c1c9bdd995960ba1b6064820152608401610734565b60005460015460405163d4f951c760e01b815260048101919091523060248201526001600160a01b039091169063d4f951c790604401600060405180830381600087803b15801561136f57600080fd5b505af1158015610798573d6000803e3d6000fd5b6000908152600460205260409020546001600160a01b031690565b80806113b257506001600160a01b03821615155b1561146b5760006113c284610d04565b90506001600160a01b038316158015906113ee5750826001600160a01b0316816001600160a01b031614155b801561140157506113ff8184610c8e565b155b15611421578260405163a9fbf51f60e01b8152600401610734919061187f565b81156114695783856001600160a01b0316826001600160a01b03167f8c5be1e5ebec7d5bd14f71427d1e84f3dd0314c0f7b2291e5b200ac8c7c3b92560405160405180910390a45b505b5050600090815260066020526040902080546001600160a01b0319166001600160a01b0392909216919091179055565b6000806114a784611383565b90506001600160a01b038316156114c3576114c3818486611665565b6001600160a01b03811615611501576114e060008560008061139e565b6001600160a01b038116600090815260056020526040902080546000190190555b6001600160a01b03851615611530576001600160a01b0385166000908152600560205260409020805460010190555b60008481526004602052604080822080546001600160a01b0319166001600160a01b0389811691821790925591518793918516917fddf252ad1be2c89b69c2b068fc378daa952ba7f163c4a11628f55a4df523b3ef91a4949350505050565b60008072184f03e93ff9f4daa797ed6e38ed64bf6a1f0160401b83106115ce5772184f03e93ff9f4daa797ed6e38ed64bf6a1f0160401b830492506040015b6904ee2d6d415b85acef8160201b83106115f8576904ee2d6d415b85acef8160201b830492506020015b662386f26fc10000831061161657662386f26fc10000830492506010015b6305f5e100831061162e576305f5e100830492506008015b612710831061164257612710830492506004015b60648310611654576064830492506002015b600a83106104385760010192915050565b6116708383836116c9565b6107b9576001600160a01b03831661169e57604051637e27328960e01b815260048101829052602401610734565b60405163177e802f60e01b81526001600160a01b038316600482015260248101829052604401610734565b60006001600160a01b03831615801590610eb65750826001600160a01b0316846001600160a01b0316148061170357506117038484610c8e565b80610eb65750826001600160a01b031661171c83610d3c565b6001600160a01b031614949350505050565b5080546000825560030290600052602060002090810190610bb691905b8082111561178257600061175f8282611786565b61176d600183016000611786565b5060028101805460ff1916905560030161174b565b5090565b50805461179290611e3b565b6000825580601f106117a2575050565b601f016020900490600052602060002090810190610bb691905b8082111561178257600081556001016117bc565b6001600160e01b031981168114610bb657600080fd5b6000602082840312156117f857600080fd5b8135610ba2816117d0565b60005b8381101561181e578181015183820152602001611806565b50506000910152565b6000815180845261183f816020860160208601611803565b601f01601f19169290920160200192915050565b602081526000610ba26020830184611827565b60006020828403121561187857600080fd5b5035919050565b6001600160a01b0391909116815260200190565b6001600160a01b0381168114610bb657600080fd5b600080604083850312156118bb57600080fd5b82356118c681611893565b946020939093013593505050565b600060208083018184528085518083526040925060408601915060408160051b87010184880160005b8381101561195b57603f1989840301855281516060815181865261192382870182611827565b915050888201518582038a87015261193b8282611827565b9289015115159589019590955250948701949250908601906001016118fd565b509098975050505050505050565b60008060006060848603121561197e57600080fd5b833561198981611893565b9250602084013561199981611893565b929592945050506040919091013590565b6000602082840312156119bc57600080fd5b8135610ba281611893565b634e487b7160e01b600052604160045260246000fd5b604051606081016001600160401b03811182821017156119ff576119ff6119c7565b60405290565b604051601f8201601f191681016001600160401b0381118282101715611a2d57611a2d6119c7565b604052919050565b60006001600160401b03831115611a4e57611a4e6119c7565b611a61601f8401601f1916602001611a05565b9050828152838383011115611a7557600080fd5b828260208301376000602084830101529392505050565b600082601f830112611a9d57600080fd5b610ba283833560208501611a35565b80358015158114611abc57600080fd5b919050565b600082601f830112611ad257600080fd5b813560206001600160401b0380831115611aee57611aee6119c7565b8260051b611afd838201611a05565b9384528581018301938381019088861115611b1757600080fd5b84880192505b85831015611bbf57823584811115611b355760008081fd5b88016060818b03601f1901811315611b4d5760008081fd5b611b556119dd565b8783013587811115611b675760008081fd5b611b758d8a83870101611a8c565b82525060408084013588811115611b8c5760008081fd5b611b9a8e8b83880101611a8c565b8a84015250611baa838501611aac565b90820152845250509184019190840190611b1d565b98975050505050505050565b60008060008060808587031215611be157600080fd5b8435611bec81611893565b9350602085013592506040850135915060608501356001600160401b03811115611c1557600080fd5b611c2187828801611ac1565b91505092959194509250565b60008060408385031215611c4057600080fd5b8235611c4b81611893565b9150611c5960208401611aac565b90509250929050565b600080600060608486031215611c7757600080fd5b83356001600160401b0380821115611c8e57600080fd5b611c9a87838801611a8c565b94506020860135915080821115611cb057600080fd5b611cbc87838801611a8c565b93506040860135915080821115611cd257600080fd5b50611cdf86828701611a8c565b9150509250925092565b60008060008060808587031215611cff57600080fd5b8435611d0a81611893565b93506020850135611d1a81611893565b92506040850135915060608501356001600160401b03811115611d3c57600080fd5b8501601f81018713611d4d57600080fd5b611c2187823560208401611a35565b6020808252825182820181905260009190848201906040850190845b81811015611d9457835183529284019291840191600101611d78565b50909695505050505050565b60008060008060808587031215611db657600080fd5b843593506020850135925060408501356001600160401b03811115611dda57600080fd5b611de687828801611ac1565b9250506060850135611df781611893565b939692955090935050565b60008060408385031215611e1557600080fd5b8235611e2081611893565b91506020830135611e3081611893565b809150509250929050565b600181811c90821680611e4f57607f821691505b602082108103611e6f57634e487b7160e01b600052602260045260246000fd5b50919050565b600060208284031215611e8757600080fd5b8151610ba281611893565b634e487b7160e01b600052603260045260246000fd5b601f8211156107b9576000816000526020600020601f850160051c81016020861015611ed15750805b601f850160051c820191505b81811015611ef057828155600101611edd565b505050505050565b81516001600160401b03811115611f1157611f116119c7565b611f2581611f1f8454611e3b565b84611ea8565b602080601f831160018114611f5a5760008415611f425750858301515b600019600386901b1c1916600185901b178555611ef0565b600085815260208120601f198616915b82811015611f8957888601518255948401946001909101908401611f6a565b5085821015611fa75787850151600019600388901b60f8161c191681555b5050505050600190811b01905550565b60008351611fc9818460208801611803565b835190830190611fdd818360208801611803565b01949350505050565b8181038181111561043857634e487b7160e01b600052601160045260246000fd5b634e487b7160e01b600052603160045260246000fd5b6001600160a01b038581168252841660208201526040810183905260806060820181905260009061205090830184611827565b9695505050505050565b60006020828403121561206c57600080fd5b8151610ba2816117d056fea2646970667358221220f41e0ad8313e108c2a2ac1324f976a722f0c0a7e571d0027479af8ae121b563964736f6c63430008180033",
  "linkReferences": {},
  "deployedLinkReferences": {}
}