{
  "_format": "hh-sol-artifact-1",
  "contractName": "Erc721ZkDvpExample",
  "sourceName": "src/rayls-protocol/test-contracts/Erc721ZkDvpExample.sol",
  "abi": [
    {
      "inputs": [
        {
          "internalType": "string",
          "name": "baseUri",
          "type": "string"
        },
        {
          "internalType": "string",
          "name": "name",
          "type": "string"
        },
        {
          "internalType": "string",
          "name": "symbol",
          "type": "string"
        },
        {
          "internalType": "address",
          "name": "_endpoint",
          "type": "address"
        }
      ],
      "stateMutability": "nonpayable",
      "type": "constructor"
    },
    {
      "inputs": [
        {
          "internalType": "address",
          "name": "sender",
          "type": "address"
        },
        {
          "internalType": "uint256",
          "name": "tokenId",
          "type": "uint256"
        },
        {
          "internalType": "address",
          "name": "owner",
          "type": "address"
        }
      ],
      "name": "ERC721IncorrectOwner",
      "type": "error"
    },
    {
      "inputs": [
        {
          "internalType": "address",
          "name": "operator",
          "type": "address"
        },
        {
          "internalType": "uint256",
          "name": "tokenId",
          "type": "uint256"
        }
      ],
      "name": "ERC721InsufficientApproval",
      "type": "error"
    },
    {
      "inputs": [
        {
          "internalType": "address",
          "name": "approver",
          "type": "address"
        }
      ],
      "name": "ERC721InvalidApprover",
      "type": "error"
    },
    {
      "inputs": [
        {
          "internalType": "address",
          "name": "operator",
          "type": "address"
        }
      ],
      "name": "ERC721InvalidOperator",
      "type": "error"
    },
    {
      "inputs": [
        {
          "internalType": "address",
          "name": "owner",
          "type": "address"
        }
      ],
      "name": "ERC721InvalidOwner",
      "type": "error"
    },
    {
      "inputs": [
        {
          "internalType": "address",
          "name": "receiver",
          "type": "address"
        }
      ],
      "name": "ERC721InvalidReceiver",
      "type": "error"
    },
    {
      "inputs": [
        {
          "internalType": "address",
          "name": "sender",
          "type": "address"
        }
      ],
      "name": "ERC721InvalidSender",
      "type": "error"
    },
    {
      "inputs": [
        {
          "internalType": "uint256",
          "name": "tokenId",
          "type": "uint256"
        }
      ],
      "name": "ERC721NonexistentToken",
      "type": "error"
    },
    {
      "inputs": [],
      "name": "InvalidInitialization",
      "type": "error"
    },
    {
      "inputs": [],
      "name": "NotInitializing",
      "type": "error"
    },
    {
      "inputs": [
        {
          "internalType": "address",
          "name": "owner",
          "type": "address"
        }
      ],
      "name": "OwnableInvalidOwner",
      "type": "error"
    },
    {
      "inputs": [
        {
          "internalType": "address",
          "name": "account",
          "type": "address"
        }
      ],
      "name": "OwnableUnauthorizedAccount",
      "type": "error"
    },
    {
      "anonymous": false,
      "inputs": [
        {
          "indexed": true,
          "internalType": "address",
          "name": "owner",
          "type": "address"
        },
        {
          "indexed": true,
          "internalType": "address",
          "name": "approved",
          "type": "address"
        },
        {
          "indexed": true,
          "internalType": "uint256",
          "name": "tokenId",
          "type": "uint256"
        }
      ],
      "name": "Approval",
      "type": "event"
    },
    {
      "anonymous": false,
      "inputs": [
        {
          "indexed": true,
          "internalType": "address",
          "name": "owner",
          "type": "address"
        },
        {
          "indexed": true,
          "internalType": "address",
          "name": "operator",
          "type": "address"
        },
        {
          "indexed": false,
          "internalType": "bool",
          "name": "approved",
          "type": "bool"
        }
      ],
      "name": "ApprovalForAll",
      "type": "event"
    },
    {
      "anonymous": false,
      "inputs": [
        {
          "indexed": false,
          "internalType": "uint64",
          "name": "version",
          "type": "uint64"
        }
      ],
      "name": "Initialized",
      "type": "event"
    },
    {
      "anonymous": false,
      "inputs": [
        {
          "indexed": true,
          "internalType": "address",
          "name": "previousOwner",
          "type": "address"
        },
        {
          "indexed": true,
          "internalType": "address",
          "name": "newOwner",
          "type": "address"
        }
      ],
      "name": "OwnershipTransferred",
      "type": "event"
    },
    {
      "anonymous": false,
      "inputs": [
        {
          "indexed": true,
          "internalType": "address",
          "name": "from",
          "type": "address"
        },
        {
          "indexed": true,
          "internalType": "address",
          "name": "to",
          "type": "address"
        },
        {
          "indexed": true,
          "internalType": "uint256",
          "name": "tokenId",
          "type": "uint256"
        }
      ],
      "name": "Transfer",
      "type": "event"
    },
    {
      "inputs": [
        {
          "internalType": "uint256",
          "name": "_tokenId",
          "type": "uint256"
        },
        {
          "internalType": "address",
          "name": "_destinationOwner",
          "type": "address"
        },
        {
          "components": [
            {
              "internalType": "string",
              "name": "key",
              "type": "string"
            },
            {
              "internalType": "string",
              "name": "value",
              "type": "string"
            },
            {
              "internalType": "bool",
              "name": "isPublic",
              "type": "bool"
            }
          ],
          "internalType": "struct SharedObjects.ZkDvp721ExtraData[]",
          "name": "_extraDatas",
          "type": "tuple[]"
        }
      ],
      "name": "MintFromSwapZkDvp",
      "outputs": [],
      "stateMutability": "nonpayable",
      "type": "function"
    },
    {
      "inputs": [],
      "name": "_getEndpointAddress",
      "outputs": [
        {
          "internalType": "address",
          "name": "",
          "type": "address"
        }
      ],
      "stateMutability": "view",
      "type": "function"
    },
    {
      "inputs": [],
      "name": "_tokenName",
      "outputs": [
        {
          "internalType": "string",
          "name": "",
          "type": "string"
        }
      ],
      "stateMutability": "view",
      "type": "function"
    },
    {
      "inputs": [],
      "name": "_tokenSymbol",
      "outputs": [
        {
          "internalType": "string",
          "name": "",
          "type": "string"
        }
      ],
      "stateMutability": "view",
      "type": "function"
    },
    {
      "inputs": [
        {
          "internalType": "address",
          "name": "_endpoint",
          "type": "address"
        }
      ],
      "name": "_updateEndpoint",
      "outputs": [],
      "stateMutability": "nonpayable",
      "type": "function"
    },
    {
      "inputs": [
        {
          "internalType": "address",
          "name": "to",
          "type": "address"
        },
        {
          "internalType": "uint256",
          "name": "tokenId",
          "type": "uint256"
        }
      ],
      "name": "approve",
      "outputs": [],
      "stateMutability": "nonpayable",
      "type": "function"
    },
    {
      "inputs": [
        {
          "internalType": "address",
          "name": "owner",
          "type": "address"
        }
      ],
      "name": "balanceOf",
      "outputs": [
        {
          "internalType": "uint256",
          "name": "",
          "type": "uint256"
        }
      ],
      "stateMutability": "view",
      "type": "function"
    },
    {
      "inputs": [],
      "name": "baseUri",
      "outputs": [
        {
          "internalType": "string",
          "name": "",
          "type": "string"
        }
      ],
      "stateMutability": "view",
      "type": "function"
    },
    {
      "inputs": [
        {
          "internalType": "uint256",
          "name": "_id",
          "type": "uint256"
        }
      ],
      "name": "burn",
      "outputs": [],
      "stateMutability": "nonpayable",
      "type": "function"
    },
    {
      "inputs": [
        {
          "internalType": "uint256",
          "name": "_tokenId",
          "type": "uint256"
        }
      ],
      "name": "depositIntoZkdvp",
      "outputs": [],
      "stateMutability": "nonpayable",
      "type": "function"
    },
    {
      "inputs": [
        {
          "internalType": "bytes32",
          "name": "_resourceId",
          "type": "bytes32"
        }
      ],
      "name": "getAddressByResourceId",
      "outputs": [
        {
          "internalType": "address",
          "name": "",
          "type": "address"
        }
      ],
      "stateMutability": "view",
      "type": "function"
    },
    {
      "inputs": [
        {
          "internalType": "uint256",
          "name": "tokenId",
          "type": "uint256"
        }
      ],
      "name": "getApproved",
      "outputs": [
        {
          "internalType": "address",
          "name": "",
          "type": "address"
        }
      ],
      "stateMutability": "view",
      "type": "function"
    },
    {
      "inputs": [],
      "name": "getEnygmaEventsAdress",
      "outputs": [
        {
          "internalType": "address",
          "name": "",
          "type": "address"
        }
      ],
      "stateMutability": "view",
      "type": "function"
    },
    {
      "inputs": [
        {
          "internalType": "uint256",
          "name": "_tokenId",
          "type": "uint256"
        }
      ],
      "name": "getNftExtradaData",
      "outputs": [
        {
          "components": [
            {
              "internalType": "string",
              "name": "key",
              "type": "string"
            },
            {
              "internalType": "string",
              "name": "value",
              "type": "string"
            },
            {
              "internalType": "bool",
              "name": "isPublic",
              "type": "bool"
            }
          ],
          "internalType": "struct SharedObjects.ZkDvp721ExtraData[]",
          "name": "",
          "type": "tuple[]"
        }
      ],
      "stateMutability": "view",
      "type": "function"
    },
    {
      "inputs": [],
      "name": "getPLCommunicatorAddress",
      "outputs": [
        {
          "internalType": "address",
          "name": "",
          "type": "address"
        }
      ],
      "stateMutability": "view",
      "type": "function"
    },
    {
      "inputs": [],
      "name": "getTotalSupply",
      "outputs": [
        {
          "internalType": "uint256[]",
          "name": "",
          "type": "uint256[]"
        }
      ],
      "stateMutability": "view",
      "type": "function"
    },
    {
      "inputs": [],
      "name": "getTotalSupplyAtPL",
      "outputs": [
        {
          "internalType": "uint256[]",
          "name": "",
          "type": "uint256[]"
        }
      ],
      "stateMutability": "view",
      "type": "function"
    },
    {
      "inputs": [
        {
          "internalType": "string",
          "name": "uri",
          "type": "string"
        },
        {
          "internalType": "string",
          "name": "name_",
          "type": "string"
        },
        {
          "internalType": "string",
          "name": "symbol_",
          "type": "string"
        }
      ],
      "name": "initialize",
      "outputs": [],
      "stateMutability": "nonpayable",
      "type": "function"
    },
    {
      "inputs": [
        {
          "internalType": "address",
          "name": "owner",
          "type": "address"
        },
        {
          "internalType": "address",
          "name": "operator",
          "type": "address"
        }
      ],
      "name": "isApprovedForAll",
      "outputs": [
        {
          "internalType": "bool",
          "name": "",
          "type": "bool"
        }
      ],
      "stateMutability": "view",
      "type": "function"
    },
    {
      "inputs": [
        {
          "internalType": "address",
          "name": "account",
          "type": "address"
        },
        {
          "internalType": "uint256",
          "name": "id",
          "type": "uint256"
        }
      ],
      "name": "isTokenLocked",
      "outputs": [
        {
          "internalType": "bool",
          "name": "",
          "type": "bool"
        }
      ],
      "stateMutability": "view",
      "type": "function"
    },
    {
      "inputs": [
        {
          "internalType": "address",
          "name": "_to",
          "type": "address"
        },
        {
          "internalType": "uint256",
          "name": "_id",
          "type": "uint256"
        },
        {
          "components": [
            {
              "internalType": "string",
              "name": "key",
              "type": "string"
            },
            {
              "internalType": "string",
              "name": "value",
              "type": "string"
            },
            {
              "internalType": "bool",
              "name": "isPublic",
              "type": "bool"
            }
          ],
          "internalType": "struct SharedObjects.ZkDvp721ExtraData[]",
          "name": "_extraDatas",
          "type": "tuple[]"
        }
      ],
      "name": "mint",
      "outputs": [],
      "stateMutability": "nonpayable",
      "type": "function"
    },
    {
      "inputs": [],
      "name": "name",
      "outputs": [
        {
          "internalType": "string",
          "name": "",
          "type": "string"
        }
      ],
      "stateMutability": "view",
      "type": "function"
    },
    {
      "inputs": [
        {
          "internalType": "bytes32",
          "name": "_sharedId",
          "type": "bytes32"
        },
        {
          "internalType": "uint256",
          "name": "_destinationChainId",
          "type": "uint256"
        }
      ],
      "name": "notifySwapCompleted",
      "outputs": [],
      "stateMutability": "nonpayable",
      "type": "function"
    },
    {
      "inputs": [
        {
          "internalType": "bytes32",
          "name": "_sharedId",
          "type": "bytes32"
        },
        {
          "internalType": "uint256",
          "name": "_destinationChainId",
          "type": "uint256"
        }
      ],
      "name": "notifySwapProcessing",
      "outputs": [],
      "stateMutability": "nonpayable",
      "type": "function"
    },
    {
      "inputs": [],
      "name": "owner",
      "outputs": [
        {
          "internalType": "address",
          "name": "",
          "type": "address"
        }
      ],
      "stateMutability": "view",
      "type": "function"
    },
    {
      "inputs": [
        {
          "internalType": "uint256",
          "name": "tokenId",
          "type": "uint256"
        }
      ],
      "name": "ownerOf",
      "outputs": [
        {
          "internalType": "address",
          "name": "",
          "type": "address"
        }
      ],
      "stateMutability": "view",
      "type": "function"
    },
    {
      "inputs": [
        {
          "internalType": "bytes32",
          "name": "_resourceId",
          "type": "bytes32"
        }
      ],
      "name": "receiveResourceId",
      "outputs": [],
      "stateMutability": "nonpayable",
      "type": "function"
    },
    {
      "inputs": [],
      "name": "renounceOwnership",
      "outputs": [],
      "stateMutability": "nonpayable",
      "type": "function"
    },
    {
      "inputs": [],
      "name": "resourceId",
      "outputs": [
        {
          "internalType": "bytes32",
          "name": "",
          "type": "bytes32"
        }
      ],
      "stateMutability": "view",
      "type": "function"
    },
    {
      "inputs": [
        {
          "internalType": "address",
          "name": "from",
          "type": "address"
        },
        {
          "internalType": "address",
          "name": "to",
          "type": "address"
        },
        {
          "internalType": "uint256",
          "name": "tokenId",
          "type": "uint256"
        }
      ],
      "name": "safeTransferFrom",
      "outputs": [],
      "stateMutability": "nonpayable",
      "type": "function"
    },
    {
      "inputs": [
        {
          "internalType": "address",
          "name": "from",
          "type": "address"
        },
        {
          "internalType": "address",
          "name": "to",
          "type": "address"
        },
        {
          "internalType": "uint256",
          "name": "tokenId",
          "type": "uint256"
        },
        {
          "internalType": "bytes",
          "name": "data",
          "type": "bytes"
        }
      ],
      "name": "safeTransferFrom",
      "outputs": [],
      "stateMutability": "nonpayable",
      "type": "function"
    },
    {
      "inputs": [
        {
          "internalType": "address",
          "name": "operator",
          "type": "address"
        },
        {
          "internalType": "bool",
          "name": "approved",
          "type": "bool"
        }
      ],
      "name": "setApprovalForAll",
      "outputs": [],
      "stateMutability": "nonpayable",
      "type": "function"
    },
    {
      "inputs": [
        {
          "internalType": "uint8",
          "name": "_storageSlot",
          "type": "uint8"
        }
      ],
      "name": "submitTokenRegistration",
      "outputs": [],
      "stateMutability": "nonpayable",
      "type": "function"
    },
    {
      "inputs": [
        {
          "internalType": "enum SharedObjects.BalanceUpdateType",
          "name": "updateType",
          "type": "uint8"
        },
        {
          "internalType": "uint256",
          "name": "tokenId",
          "type": "uint256"
        }
      ],
      "name": "submitTokenUpdate",
      "outputs": [],
      "stateMutability": "nonpayable",
      "type": "function"
    },
    {
      "inputs": [
        {
          "internalType": "bytes4",
          "name": "interfaceId",
          "type": "bytes4"
        }
      ],
      "name": "supportsInterface",
      "outputs": [
        {
          "internalType": "bool",
          "name": "",
          "type": "bool"
        }
      ],
      "stateMutability": "view",
      "type": "function"
    },
    {
      "inputs": [
        {
          "internalType": "uint256",
          "name": "_nftId",
          "type": "uint256"
        },
        {
          "internalType": "uint256",
          "name": "_enygmaAmount",
          "type": "uint256"
        },
        {
          "internalType": "bytes32",
          "name": "_enygmaResourceId",
          "type": "bytes32"
        },
        {
          "internalType": "uint256",
          "name": "_destChainId",
          "type": "uint256"
        },
        {
          "internalType": "bytes32",
          "name": "_sharedId",
          "type": "bytes32"
        },
        {
          "components": [
            {
              "internalType": "address",
              "name": "contractAddress",
              "type": "address"
            },
            {
              "internalType": "bytes32",
              "name": "resourceId",
              "type": "bytes32"
            },
            {
              "internalType": "bytes",
              "name": "payload",
              "type": "bytes"
            }
          ],
          "internalType": "struct SharedObjects.ZkDvpProgramability",
          "name": "_msg",
          "type": "tuple"
        }
      ],
      "name": "swapWithZkDvpForEnygma",
      "outputs": [],
      "stateMutability": "nonpayable",
      "type": "function"
    },
    {
      "inputs": [],
      "name": "symbol",
      "outputs": [
        {
          "internalType": "string",
          "name": "",
          "type": "string"
        }
      ],
      "stateMutability": "view",
      "type": "function"
    },
    {
      "inputs": [
        {
          "internalType": "uint256",
          "name": "tokenId",
          "type": "uint256"
        }
      ],
      "name": "tokenURI",
      "outputs": [
        {
          "internalType": "string",
          "name": "",
          "type": "string"
        }
      ],
      "stateMutability": "view",
      "type": "function"
    },
    {
      "inputs": [
        {
          "internalType": "address",
          "name": "from",
          "type": "address"
        },
        {
          "internalType": "address",
          "name": "to",
          "type": "address"
        },
        {
          "internalType": "uint256",
          "name": "tokenId",
          "type": "uint256"
        }
      ],
      "name": "transferFrom",
      "outputs": [],
      "stateMutability": "nonpayable",
      "type": "function"
    },
    {
      "inputs": [
        {
          "internalType": "address",
          "name": "newOwner",
          "type": "address"
        }
      ],
      "name": "transferOwnership",
      "outputs": [],
      "stateMutability": "nonpayable",
      "type": "function"
    },
    {
      "inputs": [
        {
          "internalType": "address",
          "name": "to",
          "type": "address"
        },
        {
          "internalType": "uint256",
          "name": "id",
          "type": "uint256"
        }
      ],
      "name": "unlock",
      "outputs": [
        {
          "internalType": "bool",
          "name": "",
          "type": "bool"
        }
      ],
      "stateMutability": "nonpayable",
      "type": "function"
    },
    {
      "inputs": [
        {
          "internalType": "uint256",
          "name": "_tokenId",
          "type": "uint256"
        }
      ],
      "name": "unlockFromZkDvp",
      "outputs": [],
      "stateMutability": "nonpayable",
      "type": "function"
    },
    {
      "inputs": [
        {
          "internalType": "uint256",
          "name": "_tokenId",
          "type": "uint256"
        }
      ],
      "name": "withdrawFromZkDvp",
      "outputs": [],
      "stateMutability": "nonpayable",
      "type": "function"
    },
    {
      "inputs": [
        {
          "internalType": "uint256",
          "name": "_tokenId",
          "type": "uint256"
        },
        {
          "internalType": "uint256",
          "name": "_destinationChainId",
          "type": "uint256"
        },
        {
          "internalType": "address",
          "name": "_destinationOwner",
          "type": "address"
        },
        {
          "internalType": "bytes32",
          "name": "_sharedId",
          "type": "bytes32"
        }
      ],
      "name": "zkDvpSwapCompleted",
      "outputs": [],
      "stateMutability": "nonpayable",
      "type": "function"
    }
  ],
  "bytecode": "0x60806040523480156200001157600080fd5b506040516200497d3803806200497d8339810160408190526200003491620002ec565b600080546001600160a01b0319166001600160a01b0383161781558490849084908490339081858560026200006a838262000430565b50600362000079828262000430565b5050506001600160a01b038116620000ab57604051631e4fbdf760e01b81526000600482015260240160405180910390fd5b620000b6816200011e565b50600a620000c5868262000430565b50600b620000d4858262000430565b506009620000e3878262000430565b50600c805460ff1916821515179055620000fc62000170565b505050505050836015908162000113919062000430565b5050505050620004fc565b600880546001600160a01b038381166001600160a01b0319831681179093556040519116919082907f8be0079c531659141344cd1fd0a4f28419497f9722a3daafe3b4186f6b6457e090600090a35050565b7ff0c57e16840df040f15088dc2f81fe391c3923bec73e23a9662efc9c229c6a00805468010000000000000000900460ff1615620001c15760405163f92ee8a960e01b815260040160405180910390fd5b80546001600160401b0390811614620002215780546001600160401b0319166001600160401b0390811782556040519081527fc7f505b2f371ae2175ee4913f4499e1f2633a7b5936321eed1cdaeb6115181d29060200160405180910390a15b50565b634e487b7160e01b600052604160045260246000fd5b600082601f8301126200024c57600080fd5b81516001600160401b038082111562000269576200026962000224565b604051601f8301601f19908116603f0116810190828211818310171562000294576200029462000224565b8160405283815260209250866020858801011115620002b257600080fd5b600091505b83821015620002d65785820183015181830184015290820190620002b7565b6000602085830101528094505050505092915050565b600080600080608085870312156200030357600080fd5b84516001600160401b03808211156200031b57600080fd5b62000329888389016200023a565b955060208701519150808211156200034057600080fd5b6200034e888389016200023a565b945060408701519150808211156200036557600080fd5b5062000374878288016200023a565b606087015190935090506001600160a01b03811681146200039457600080fd5b939692955090935050565b600181811c90821680620003b457607f821691505b602082108103620003d557634e487b7160e01b600052602260045260246000fd5b50919050565b601f8211156200042b576000816000526020600020601f850160051c81016020861015620004065750805b601f850160051c820191505b81811015620004275782815560010162000412565b5050505b505050565b81516001600160401b038111156200044c576200044c62000224565b62000464816200045d84546200039f565b84620003db565b602080601f8311600181146200049c5760008415620004835750858301515b600019600386901b1c1916600185901b17855562000427565b600085815260208120601f198616915b82811015620004cd57888601518255948401946001909101908401620004ac565b5085821015620004ec5787850151600019600388901b60f8161c191681555b5050505050600190811b01905550565b614471806200050c6000396000f3fe608060405234801561001057600080fd5b50600436106102345760003560e01c80637e60577411610131578063b247d946116100b3578063b247d946146104e6578063b88d4fde146104f7578063c4e41b221461050a578063c87b56dd14610512578063cd7b8df714610525578063cea14eac14610538578063d0acffc11461054b578063e3ee8a4314610553578063e985e9c514610566578063ecf35cca14610579578063f2fde38b1461058157600080fd5b80637e6057741461044a5780637eee288d1461045d57806382fbe5801461047057806387c5d197146104785780638da5cb5b1461048b57806395d89b41146104935780639abc83201461049b5780639f0c8125146104a3578063a22cb465146104ab578063a6487c53146104be578063a6aaad8c146104d157600080fd5b806342842e0e116101ba57806342842e0e1461033d57806342966c681461035057806352a48dc014610363578063556da1b9146103765780635f997c5b146103895780636352211e146103a05780636f181318146103b357806370a08231146103e3578063715018a6146103f657806371c3645e146103fe5780637ae1ccf91461041157600080fd5b806301ffc9a71461023957806304b67a3e1461026157806306fdde0314610276578063081812fc1461028b578063095ea7b3146102ab5780630e5ee780146102be5780630e9a7f73146102d157806311f50c85146102f157806314f699b9146103045780631ecb9cc11461031757806323b872dd1461032a575b600080fd5b61024c6102473660046132ed565b610594565b60405190151581526020015b60405180910390f35b61027461026f36600461330a565b6105e6565b005b61027e6106f6565b6040516102589190613373565b61029e61029936600461330a565b610788565b6040516102589190613386565b6102746102b93660046133af565b61079d565b6102746102cc3660046133db565b6107ac565b6102e46102df36600461330a565b6107be565b60405161025891906133fd565b61029e6102ff36600461330a565b610966565b610274610312366004613492565b6109d4565b61027461032536600461330a565b610a8e565b6102746103383660046134b4565b610b8c565b61027461034b3660046134b4565b610c03565b61027461035e36600461330a565b610c23565b6102746103713660046134f5565b610ce3565b610274610384366004613534565b610f0b565b61039260015481565b604051908152602001610258565b61029e6103ae36600461330a565b611252565b6102746103c1366004613557565b600080546001600160a01b0319166001600160a01b0392909216919091179055565b6103926103f1366004613557565b61125d565b6102746112a5565b61027461040c366004613492565b6112b9565b61024c61041f3660046133af565b6001600160a01b03919091166000908152600d60209081526040808320938352929052205460ff1690565b610274610458366004613574565b611335565b61024c61046b3660046133af565b611753565b61029e6117e8565b6102746104863660046137e7565b61185c565b61029e6119be565b61027e6119cd565b61027e6119dc565b61027e6119e6565b6102746104b936600461383f565b611a74565b6102746104cc366004613878565b611a7f565b6104d9611bfa565b60405161025891906138f5565b6000546001600160a01b031661029e565b610274610505366004613939565b611c51565b6104d9611c68565b61027e61052036600461330a565b611c72565b61027461053336600461330a565b611cda565b6102746105463660046139b8565b611df5565b61029e611f83565b61027461056136600461330a565b611fb5565b61024c6105743660046139fa565b61216a565b61027e612198565b61027461058f366004613557565b6121a5565b60006001600160e01b031982166380ac58cd60e01b14806105c557506001600160e01b03198216635b5e139f60e01b145b806105e057506301ffc9a760e01b6001600160e01b03198316145b92915050565b60015461060e5760405162461bcd60e51b815260040161060590613a28565b60405180910390fd5b6000818152600e602052604090205460ff1661063c5760405162461bcd60e51b815260040161060590613a55565b60008181526011602052604090205460ff16151560011461066f5760405162461bcd60e51b815260040161060590613a83565b6000818152601260205260409020805460ff19166001179055610690611f83565b6001600160a01b0316638afb970460015483336040518463ffffffff1660e01b81526004016106c193929190613ac9565b600060405180830381600087803b1580156106db57600080fd5b505af11580156106ef573d6000803e3d6000fd5b5050505050565b6060600a805461070590613ae8565b80601f016020809104026020016040519081016040528092919081815260200182805461073190613ae8565b801561077e5780601f106107535761010080835404028352916020019161077e565b820191906000526020600020905b81548152906001019060200180831161076157829003601f168201915b5050505050905090565b6000610793826121e0565b506105e082612218565b6107a8828233612233565b5050565b6107b4612240565b6107a88282612272565b606060136000838152602001908152602001600020805480602002602001604051908101604052809291908181526020016000905b8282101561095b578382906000526020600020906003020160405180606001604052908160008201805461082690613ae8565b80601f016020809104026020016040519081016040528092919081815260200182805461085290613ae8565b801561089f5780601f106108745761010080835404028352916020019161089f565b820191906000526020600020905b81548152906001019060200180831161088257829003601f168201915b505050505081526020016001820180546108b890613ae8565b80601f01602080910402602001604051908101604052809291908181526020018280546108e490613ae8565b80156109315780601f1061090657610100808354040283529160200191610931565b820191906000526020600020905b81548152906001019060200180831161091457829003601f168201915b50505091835250506002919091015460ff16151560209182015290825260019290920191016107f3565b505050509050919050565b600080546040516311f50c8560e01b8152600481018490526001600160a01b03909116906311f50c8590602401602060405180830381865afa1580156109b0573d6000803e3d6000fd5b505050506040513d601f19601f820116820180604052508101906105e09190613b22565b6109dc6117e8565b6001600160a01b031663db76edaa83600560006040518463ffffffff1660e01b8152600401610a0d93929190613b55565b600060405180830381600087803b158015610a2757600080fd5b505af1158015610a3b573d6000803e3d6000fd5b506107a892508391506005905084815b6000604051602401610a5f93929190613b55565b60408051601f198184030181529190526020810180516001600160e01b0316636dbb76d560e11b179052612436565b600154610aad5760405162461bcd60e51b815260040161060590613a28565b6000818152600e602052604090205460ff16610adb5760405162461bcd60e51b815260040161060590613a55565b60008181526011602052604090205460ff1615610b3a5760405162461bcd60e51b815260206004820152601c60248201527f416c7265616479206465706f736974656420696e746f205a6b647670000000006044820152606401610605565b6000818152601160205260409020805460ff19166001179055610b5b611f83565b6001600160a01b031663f3c1bbc260015483336040518463ffffffff1660e01b81526004016106c193929190613ac9565b6001600160a01b038216610bb6576000604051633250574960e11b81526004016106059190613386565b6000610bc38383336124ad565b9050836001600160a01b0316816001600160a01b031614610bfd578382826040516364283d7b60e01b815260040161060593929190613b7a565b50505050565b610c1e83838360405180602001604052806000815250611c51565b505050565b610c2b612240565b60008181526011602052604090205460ff1615610c845760405162461bcd60e51b815260206004820152601760248201527604e4654206973206c6f636b656420666f72205a6b64767604c1b6044820152606401610605565b610c8f600082612272565b610c988161268e565b60015415610ce057610ca8611f83565b6001600160a01b0316638c9c14b5600154836040518363ffffffff1660e01b81526004016106c1929190918252602082015260400190565b50565b600154610d025760405162461bcd60e51b815260040161060590613a28565b6000848152600e602052604090205460ff16610d305760405162461bcd60e51b815260040161060590613a55565b60008481526011602052604090205460ff161515600114610d635760405162461bcd60e51b815260040161060590613a83565b6000848152601160205260409020805460ff19169055610d81613158565b610e128460015463cea14eac60e01b8887601360008c8152602001908152602001600020604051602401610db793929190613c1a565b60408051601f19818403018152918152602080830180516001600160e01b03166001600160e01b03199095169490941790935280518084018252600080825282518086018452818152835195860190935284529192876126c9565b610e1b8561268e565b610e26600086612272565b60008581526013602052604090205415610e51576000858152601360205260408120610e519161318f565b60005b601054811015610f00578560108281548110610e7257610e72613cc9565b906000526020600020015403610ef85760108054610e9290600190613cdf565b81548110610ea257610ea2613cc9565b906000526020600020015460108281548110610ec057610ec0613cc9565b6000918252602090912001556010805480610edd57610edd613d00565b60019003818190600052602060002001600090559055610f00565b600101610e54565b506106ef82856112b9565b60005460408051631119527160e11b81529051610ce0926001600160a01b031691632232a4e29160048083019260209291908290030181865afa158015610f56573d6000803e3d6000fd5b505050506040513d601f19601f82011682018060405250810190610f7a9190613d16565b60005460405163377890a160e11b81526001600160a01b0390911690636ef1214290610fa890600401613d2f565b602060405180830381865afa158015610fc5573d6000803e3d6000fd5b505050506040513d601f19601f82011682018060405250810190610fe99190613b22565b604051806101400160405280600a805461100290613ae8565b80601f016020809104026020016040519081016040528092919081815260200182805461102e90613ae8565b801561107b5780601f106110505761010080835404028352916020019161107b565b820191906000526020600020905b81548152906001019060200180831161105e57829003601f168201915b50505050508152602001600b805461109290613ae8565b80601f01602080910402602001604051908101604052809291908181526020018280546110be90613ae8565b801561110b5780601f106110e05761010080835404028352916020019161110b565b820191906000526020600020905b8154815290600101906020018083116110ee57829003601f168201915b5050505050815260200161111d612748565b60405160200161112d91906138f5565b604051602081830303815290604052815260200160008054906101000a90046001600160a01b03166001600160a01b0316633408e4706040518163ffffffff1660e01b8152600401602060405180830381865afa158015611192573d6000803e3d6000fd5b505050506040513d601f19601f820116820180604052508101906111b69190613d16565b8152602001306001600160a01b0316803b806020016040519081016040528181526000908060200190933c81526020016111ee61279e565b81526000602082015260400160028152600c5460ff908116151560208301528616604091820152516112239190602401613d6a565b60408051601f198184030181529190526020810180516001600160e01b0316638b55462d60e01b1790526127e7565b60006105e0826121e0565b60006001600160a01b0382166112895760006040516322718ad960e21b81526004016106059190613386565b506001600160a01b031660009081526005602052604090205490565b6112ad612240565b6112b7600061281b565b565b6112c16117e8565b6001600160a01b031663db76edaa83600660006040518463ffffffff1660e01b81526004016112f293929190613b55565b600060405180830381600087803b15801561130c57600080fd5b505af1158015611320573d6000803e3d6000fd5b506107a8925083915060059050846006610a4b565b6001546113545760405162461bcd60e51b815260040161060590613a28565b6000868152600e602052604090205460ff166113825760405162461bcd60e51b815260040161060590613a55565b60008681526011602052604090205460ff1615156001146113e55760405162461bcd60e51b815260206004820152601c60248201527f4e4654206e6f74206465706f736974656420696e746f205a6b647670000000006044820152606401610605565b604080516000808252602082018352909161140290840184613e5c565b90501115611653576020820135156114955760006114236020840184613557565b6001600160a01b0316146114955760405162461bcd60e51b815260206004820152603360248201527f43616e6e6f74206861766520626f7468207265736f75726365496420616e642060448201527218dbdb9d1c9858dd1059191c995cdcc81cd95d606a1b6064820152608401610605565b60006114a46020840184613557565b6001600160a01b031614611520576020820135156115205760405162461bcd60e51b815260206004820152603360248201527f43616e6e6f74206861766520626f746820636f6e74726163744164647265737360448201527208185b99081c995cdbdd5c98d95259081cd95d606a1b6064820152608401610605565b6115286131b0565b80516001610100909101526115406040840184613e5c565b8080601f016020809104026020016040519081016040528093929190818152602001838380828437600092018290525060208087019590955285518886013560609091015254604080516303408e4760e41b8152905163fe12d9c360e01b966001600160a01b039093169550633408e47094506004808301945090918290030181865afa1580156115d5573d6000803e3d6000fd5b505050506040513d601f19601f820116820180604052508101906115f99190613d16565b336116076020870187613557565b848860405160240161161d959493929190613f85565b60408051601f198184030181529190526020810180516001600160e01b03166001600160e01b0319909316929092179091529150505b61165b611f83565b6001600160a01b0316635a368d1d6001548989896116763390565b8a8a896040518963ffffffff1660e01b815260040161169c9897969594939291906140a7565b600060405180830381600087803b1580156116b657600080fd5b505af11580156116ca573d6000803e3d6000fd5b505050506116d66117e8565b6001600160a01b031663db76edaa84600160006040518463ffffffff1660e01b815260040161170793929190613b55565b600060405180830381600087803b15801561172157600080fd5b505af1158015611735573d6000803e3d6000fd5b5061174a925086915060059050856002610a4b565b50505050505050565b600061175d6119be565b6001600160a01b0316836001600160a01b0316146117df576000611781848461286d565b9050806117cb5760405162461bcd60e51b815260206004820152601860248201527763616e6e6f7420756e6c6f636b207468652061737365747360401b6044820152606401610605565b6117dd6117d66119be565b8585612923565b505b50600192915050565b600080546040516311f50c8560e01b8152600560048201526001600160a01b03909116906311f50c85906024015b602060405180830381865afa158015611833573d6000803e3d6000fd5b505050506040513d601f19601f820116820180604052508101906118579190613b22565b905090565b611864612240565b61186e838361293e565b60108054600181810183556000929092527f1b6847dc741a1b0cd08d278845f9d819d87b734759afb55fe2de5cb82a9ae672018390556118ae9083612272565b60005b815181101561194757600083815260136020526040902082518390839081106118dc576118dc613cc9565b6020908102919091018101518254600181018455600093845291909220825160039092020190819061190e908261414c565b5060208201516001820190611923908261414c565b50604091909101516002909101805460ff19169115159190911790556001016118b1565b5060015415610c1e57611958611f83565b6001600160a01b031663d01d9eef600154846040518363ffffffff1660e01b8152600401611990929190918252602082015260400190565b600060405180830381600087803b1580156119aa57600080fd5b505af115801561174a573d6000803e3d6000fd5b6008546001600160a01b031690565b6060600b805461070590613ae8565b60606118576129a3565b600a80546119f390613ae8565b80601f0160208091040260200160405190810160405280929190818152602001828054611a1f90613ae8565b8015611a6c5780601f10611a4157610100808354040283529160200191611a6c565b820191906000526020600020905b815481529060010190602001808311611a4f57829003601f168201915b505050505081565b6107a83383836129b2565b7ff0c57e16840df040f15088dc2f81fe391c3923bec73e23a9662efc9c229c6a008054600160401b810460ff1615906001600160401b0316600081158015611ac45750825b90506000826001600160401b03166001148015611ae05750303b155b905081158015611aee575080155b15611b0c5760405163f92ee8a960e01b815260040160405180910390fd5b845467ffffffffffffffff191660011785558315611b3657845460ff60401b1916600160401b1785555b6000611b40612a48565b90506000611b4c612a60565b9050611b56612a77565b600155600a611b658a8261414c565b50600b611b72898261414c565b506009611b7f8b8261414c565b50611b898261281b565b600080546001600160a01b0319166001600160a01b0392909216919091179055508315611bf057845460ff60401b19168555604051600181527fc7f505b2f371ae2175ee4913f4499e1f2633a7b5936321eed1cdaeb6115181d29060200160405180910390a15b5050505050505050565b6060601080548060200260200160405190810160405280929190818152602001828054801561077e57602002820191906000526020600020905b815481526020019060010190808311611c34575050505050905090565b611c5c848484610b8c565b610bfd84848484612a8b565b6060611857612748565b6060611c7d826121e0565b506000611c886129a3565b90506000815111611ca85760405180602001604052806000815250611cd3565b80611cb284612b9b565b604051602001611cc392919061420b565b6040516020818303038152906040525b9392505050565b600154611cf95760405162461bcd60e51b815260040161060590613a28565b6000818152600e602052604090205460ff16611d275760405162461bcd60e51b815260040161060590613a55565b60008181526011602052604090205460ff161515600114611d5a5760405162461bcd60e51b815260040161060590613a83565b60008181526012602052604090205460ff161515600114611dc85760405162461bcd60e51b815260206004820152602260248201527f5468697320746f6b656e206973206e6f7420726561647920666f7220756e6c6f604482015261636b60f01b6064820152608401610605565b6000908152601160209081526040808320805460ff19908116909155601290925290912080549091169055565b6000546040516333932be560e11b81526001600160a01b039091169063672657ca90611e25903390600401613386565b602060405180830381865afa158015611e42573d6000803e3d6000fd5b505050506040513d601f19601f82011682018060405250810190611e66919061423a565b611e825760405162461bcd60e51b815260040161060590614257565b611e8c828461293e565b60108054600181810183556000929092527f1b6847dc741a1b0cd08d278845f9d819d87b734759afb55fe2de5cb82a9ae67201849055611ecc9084612272565b60005b8151811015611f655760008481526013602052604090208251839083908110611efa57611efa613cc9565b60209081029190910181015182546001810184556000938452919092208251600390920201908190611f2c908261414c565b5060208201516001820190611f41908261414c565b50604091909101516002909101805460ff1916911515919091179055600101611ecf565b5050506000908152601160205260409020805460ff19166001179055565b600080546040516311f50c8560e01b8152600260048201526001600160a01b03909116906311f50c8590602401611816565b6000546040516333932be560e11b81526001600160a01b039091169063672657ca90611fe5903390600401613386565b602060405180830381865afa158015612002573d6000803e3d6000fd5b505050506040513d601f19601f82011682018060405250810190612026919061423a565b6120425760405162461bcd60e51b815260040161060590614257565b60008054906101000a90046001600160a01b03166001600160a01b0316632232a4e26040518163ffffffff1660e01b8152600401602060405180830381865afa158015612093573d6000803e3d6000fd5b505050506040513d601f19601f820116820180604052508101906120b79190613d16565b6120bf612c2d565b146121265760405162461bcd60e51b815260206004820152603160248201527f54686973206d6574686f64206f6e6c7920726563656976652063616c6c7320666044820152703937b69031b7b6b6b4ba1031b430b4b71760791b6064820152608401610605565b6001819055612133612c41565b61213b611f83565b6001600160a01b0316630113fd396001546040518263ffffffff1660e01b81526004016106c191815260200190565b6001600160a01b03918216600090815260076020908152604080832093909416825291909152205460ff1690565b600b80546119f390613ae8565b6121ad612240565b6001600160a01b0381166121d7576000604051631e4fbdf760e01b81526004016106059190613386565b610ce08161281b565b6000806121ec83612d06565b90506001600160a01b0381166105e057604051637e27328960e01b815260048101849052602401610605565b6000908152600660205260409020546001600160a01b031690565b610c1e8383836001612d21565b336122496119be565b6001600160a01b0316146112b7573360405163118cdaa760e01b81526004016106059190613386565b60015461227d575050565b60005460408051631119527160e11b815290516107a8926001600160a01b031691632232a4e29160048083019260209291908290030181865afa1580156122c8573d6000803e3d6000fd5b505050506040513d601f19601f820116820180604052508101906122ec9190613d16565b60005460405163377890a160e11b81526001600160a01b0390911690636ef121429061231a90600401613d2f565b602060405180830381865afa158015612337573d6000803e3d6000fd5b505050506040513d601f19601f8201168201806040525081019061235b9190613b22565b60008054906101000a90046001600160a01b03166001600160a01b0316633408e4706040518163ffffffff1660e01b8152600401602060405180830381865afa1580156123ac573d6000803e3d6000fd5b505050506040513d601f19601f820116820180604052508101906123d09190613d16565b60015486866040516020016123e791815260200190565b60408051601f1981840301815290829052612407949392916024016142c5565b60408051601f198184030181529190526020810180516001600160e01b031663401c3df160e11b1790526127e7565b6000546040516320599dfd60e11b81526001600160a01b03909116906340b33bfa9061246a908690869086906004016142fd565b6020604051808303816000875af1158015612489573d6000803e3d6000fd5b505050506040513d601f19601f82011682018060405250810190610bfd9190613d16565b60008281526011602052604081205460ff1615156001036125355760008381526012602052604090205460ff1615156001146125355760405162461bcd60e51b815260206004820152602160248201527f5468697320746f6b656e206973206c6f636b656420696e20746865205a6b44766044820152600760fc1b6064820152608401610605565b6000612542858585612e1e565b90506001600160a01b0381166125b3576000848152600e602052604090205460ff166125b357600f805460018181019092557f8d1108e10bcb7c27dddfc02ed9d693a074039d026cf4ea4240b40f7d581ac802018590556000858152600e60205260409020805460ff191690911790555b6001600160a01b038516612686576000848152600e60205260408120805460ff191690555b600f548110156126845784600f82815481106125f6576125f6613cc9565b90600052602060002001540361267c57600f805461261690600190613cdf565b8154811061262657612626613cc9565b9060005260206000200154600f828154811061264457612644613cc9565b600091825260209091200155600f80548061266157612661613d00565b60019003818190600052602060002001600090559055612684565b6001016125d8565b505b949350505050565b600061269d60008360006124ad565b90506001600160a01b0381166107a857604051637e27328960e01b815260048101839052602401610605565b600054604051631075c5d160e21b81526001600160a01b03909116906341d7174490612705908a908a908a908a908a908a908a9060040161431c565b6020604051808303816000875af1158015612724573d6000803e3d6000fd5b505050506040513d601f19601f82011682018060405250810190611bf09190613d16565b6060600f80548060200260200160405190810160405280929190818152602001828054801561077e5760200282019190600052602060002090815481526020019060010190808311611c34575050505050905090565b60606009600a600b6040516024016127b893929190614388565b60408051601f198184030181529190526020810180516001600160e01b031663a6487c5360e01b179052919050565b60005460405163150b375f60e01b81526001600160a01b039091169063150b375f9061246a908690869086906004016143c1565b600880546001600160a01b038381166001600160a01b0319831681179093556040519116919082907f8be0079c531659141344cd1fd0a4f28419497f9722a3daafe3b4186f6b6457e090600090a35050565b60006001600160a01b03831661288257600080fd5b6001600160a01b0383166000908152600d6020908152604080832085845290915290205460ff168015156001146128f05760405162461bcd60e51b81526020600482015260126024820152714e6f2066756e647320746f20756e6c6f636b60701b6044820152606401610605565b50506001600160a01b03919091166000908152600d6020908152604080832093835292905220805460ff19169055600190565b610c1e83838360405180602001604052806000815250612f12565b6001600160a01b038216612968576000604051633250574960e11b81526004016106059190613386565b6000612976838360006124ad565b90506001600160a01b03811615610c1e5760006040516339e3563760e11b81526004016106059190613386565b60606015805461070590613ae8565b6001600160a01b0382166129db5781604051630b61174360e31b81526004016106059190613386565b6001600160a01b03838116600081815260076020908152604080832094871680845294825291829020805460ff191686151590811790915591519182527f17307eab39ab6107e8899845ad3d59bd9653f200f220920489ca2b5937696c31910160405180910390a3505050565b600060343610612a5d575060331936013560601c5b90565b600060483610612a5d575060471936013560601c90565b600060203610612a5d5750601f1936013590565b6001600160a01b0383163b15610bfd57604051630a85bd0160e11b81526001600160a01b0384169063150b7a0290612acd9033908890879087906004016143eb565b6020604051808303816000875af1925050508015612b08575060408051601f3d908101601f19168201909252612b059181019061441e565b60015b612b68573d808015612b36576040519150601f19603f3d011682016040523d82523d6000602084013e612b3b565b606091505b508051600003612b605783604051633250574960e11b81526004016106059190613386565b805181602001fd5b6001600160e01b03198116630a85bd0160e11b146106ef5783604051633250574960e11b81526004016106059190613386565b60606000612ba883612f1d565b60010190506000816001600160401b03811115612bc757612bc76135e6565b6040519080825280601f01601f191660200182016040528015612bf1576020820181803683370190505b5090508181016020015b600019016f181899199a1a9b1b9c1cb0b131b232b360811b600a86061a8153600a8504945084612bfb57509392505050565b600060343610612a5d575060331936013590565b600154612ca25760405162461bcd60e51b815260206004820152602960248201527f4f6e6c79207265676973746572207265736f75726365207768656e206974277360448201526808185c1c1c9bdd995960ba1b6064820152608401610605565b60005460015460405163d4f951c760e01b815260048101919091523060248201526001600160a01b039091169063d4f951c790604401600060405180830381600087803b158015612cf257600080fd5b505af1158015610bfd573d6000803e3d6000fd5b6000908152600460205260409020546001600160a01b031690565b8080612d3557506001600160a01b03821615155b15612dee576000612d45846121e0565b90506001600160a01b03831615801590612d715750826001600160a01b0316816001600160a01b031614155b8015612d845750612d82818461216a565b155b15612da4578260405163a9fbf51f60e01b81526004016106059190613386565b8115612dec5783856001600160a01b0316826001600160a01b03167f8c5be1e5ebec7d5bd14f71427d1e84f3dd0314c0f7b2291e5b200ac8c7c3b92560405160405180910390a45b505b5050600090815260066020526040902080546001600160a01b0319166001600160a01b0392909216919091179055565b600080612e2a84612d06565b90506001600160a01b03831615612e4657612e46818486612ff3565b6001600160a01b03811615612e8457612e63600085600080612d21565b6001600160a01b038116600090815260056020526040902080546000190190555b6001600160a01b03851615612eb3576001600160a01b0385166000908152600560205260409020805460010190555b60008481526004602052604080822080546001600160a01b0319166001600160a01b0389811691821790925591518793918516917fddf252ad1be2c89b69c2b068fc378daa952ba7f163c4a11628f55a4df523b3ef91a4949350505050565b611c5c848484613057565b60008072184f03e93ff9f4daa797ed6e38ed64bf6a1f0160401b8310612f5c5772184f03e93ff9f4daa797ed6e38ed64bf6a1f0160401b830492506040015b6904ee2d6d415b85acef8160201b8310612f86576904ee2d6d415b85acef8160201b830492506020015b662386f26fc100008310612fa457662386f26fc10000830492506010015b6305f5e1008310612fbc576305f5e100830492506008015b6127108310612fd057612710830492506004015b60648310612fe2576064830492506002015b600a83106105e05760010192915050565b612ffe8383836130f3565b610c1e576001600160a01b03831661302c57604051637e27328960e01b815260048101829052602401610605565b60405163177e802f60e01b81526001600160a01b038316600482015260248101829052604401610605565b6001600160a01b038216613081576000604051633250574960e11b81526004016106059190613386565b600061308f838360006124ad565b90506001600160a01b0381166130bb57604051637e27328960e01b815260048101839052602401610605565b836001600160a01b0316816001600160a01b031614610bfd578382826040516364283d7b60e01b815260040161060593929190613b7a565b60006001600160a01b038316158015906126865750826001600160a01b0316846001600160a01b0316148061312d575061312d848461216a565b806126865750826001600160a01b031661314683612218565b6001600160a01b031614949350505050565b6040805160c08101909152806000815260006020820181905260408201819052606082018190526080820181905260a09091015290565b5080546000825560030290600052602060002090810190610ce091906131d0565b60405180604001604052806131c361320b565b8152602001606081525090565b808211156132075760006131e48282613260565b6131f2600183016000613260565b5060028101805460ff191690556003016131d0565b5090565b60408051610120810182526000808252602082015290810161322b61329a565b815260006020820152606060408201819052808201819052608082015260a001613253613158565b8152600060209091015290565b50805461326c90613ae8565b6000825580601f1061327c575050565b601f016020900490600052602060002090810190610ce091906132c2565b6040805160a081019091526000808252602082019081526060602082015260400160006131c3565b5b8082111561320757600081556001016132c3565b6001600160e01b031981168114610ce057600080fd5b6000602082840312156132ff57600080fd5b8135611cd3816132d7565b60006020828403121561331c57600080fd5b5035919050565b60005b8381101561333e578181015183820152602001613326565b50506000910152565b6000815180845261335f816020860160208601613323565b601f01601f19169290920160200192915050565b602081526000611cd36020830184613347565b6001600160a01b0391909116815260200190565b6001600160a01b0381168114610ce057600080fd5b600080604083850312156133c257600080fd5b82356133cd8161339a565b946020939093013593505050565b600080604083850312156133ee57600080fd5b8235600281106133cd57600080fd5b600060208083018184528085518083526040925060408601915060408160051b87010184880160005b8381101561348457603f1989840301855281516060815181865261344c82870182613347565b915050888201518582038a8701526134648282613347565b928901511515958901959095525094870194925090860190600101613426565b509098975050505050505050565b600080604083850312156134a557600080fd5b50508035926020909101359150565b6000806000606084860312156134c957600080fd5b83356134d48161339a565b925060208401356134e48161339a565b929592945050506040919091013590565b6000806000806080858703121561350b57600080fd5b843593506020850135925060408501356135248161339a565b9396929550929360600135925050565b60006020828403121561354657600080fd5b813560ff81168114611cd357600080fd5b60006020828403121561356957600080fd5b8135611cd38161339a565b60008060008060008060c0878903121561358d57600080fd5b863595506020870135945060408701359350606087013592506080870135915060a08701356001600160401b038111156135c657600080fd5b87016060818a0312156135d857600080fd5b809150509295509295509295565b634e487b7160e01b600052604160045260246000fd5b604051606081016001600160401b038111828210171561361e5761361e6135e6565b60405290565b604051601f8201601f191681016001600160401b038111828210171561364c5761364c6135e6565b604052919050565b60006001600160401b0383111561366d5761366d6135e6565b613680601f8401601f1916602001613624565b905082815283838301111561369457600080fd5b828260208301376000602084830101529392505050565b600082601f8301126136bc57600080fd5b611cd383833560208501613654565b8015158114610ce057600080fd5b600082601f8301126136ea57600080fd5b813560206001600160401b0380831115613706576137066135e6565b8260051b613715838201613624565b938452858101830193838101908886111561372f57600080fd5b84880192505b858310156137db5782358481111561374d5760008081fd5b88016060818b03601f19018113156137655760008081fd5b61376d6135fc565b878301358781111561377f5760008081fd5b61378d8d8a838701016136ab565b825250604080840135888111156137a45760008081fd5b6137b28e8b838801016136ab565b838b01525092820135926137c5846136cb565b8101929092525082529184019190840190613735565b98975050505050505050565b6000806000606084860312156137fc57600080fd5b83356138078161339a565b92506020840135915060408401356001600160401b0381111561382957600080fd5b613835868287016136d9565b9150509250925092565b6000806040838503121561385257600080fd5b823561385d8161339a565b9150602083013561386d816136cb565b809150509250929050565b60008060006060848603121561388d57600080fd5b83356001600160401b03808211156138a457600080fd5b6138b0878388016136ab565b945060208601359150808211156138c657600080fd5b6138d2878388016136ab565b935060408601359150808211156138e857600080fd5b50613835868287016136ab565b6020808252825182820181905260009190848201906040850190845b8181101561392d57835183529284019291840191600101613911565b50909695505050505050565b6000806000806080858703121561394f57600080fd5b843561395a8161339a565b9350602085013561396a8161339a565b92506040850135915060608501356001600160401b0381111561398c57600080fd5b8501601f8101871361399d57600080fd5b6139ac87823560208401613654565b91505092959194509250565b6000806000606084860312156139cd57600080fd5b8335925060208401356139df8161339a565b915060408401356001600160401b0381111561382957600080fd5b60008060408385031215613a0d57600080fd5b8235613a188161339a565b9150602083013561386d8161339a565b6020808252601390820152722a37b5b2b7103737ba1030b8383937bb32b21760691b604082015260600190565b602080825260149082015273151bdad95b88191bd95cc81b9bdd08195e1a5cdd60621b604082015260600190565b60208082526026908201527f5468697320746f6b656e206973206e6f74206465706f736974656420696e746f6040820152650205a6b6476760d41b606082015260800190565b92835260208301919091526001600160a01b0316604082015260600190565b600181811c90821680613afc57607f821691505b602082108103613b1c57634e487b7160e01b600052602260045260246000fd5b50919050565b600060208284031215613b3457600080fd5b8151611cd38161339a565b634e487b7160e01b600052602160045260246000fd5b9283526020830191909152604082015260806060820181905260009082015260a00190565b6001600160a01b0393841681526020810192909252909116604082015260600190565b60008154613baa81613ae8565b808552602060018381168015613bc75760018114613be157613c0f565b60ff1985168884015283151560051b880183019550613c0f565b866000528260002060005b85811015613c075781548a8201860152908301908401613bec565b890184019650505b505050505092915050565b60006060808301868452602060018060a01b038716602086015260406060604087015282875480855260808801915060808160051b890101945088600052602060002060005b82811015613cb857898703607f19018452878752613c8088880183613b9d565b87810387890152613c948160018501613b9d565b600284015460ff161515988701989098525092850192600390910190600101613c60565b50949b9a5050505050505050505050565b634e487b7160e01b600052603260045260246000fd5b818103818111156105e057634e487b7160e01b600052601160045260246000fd5b634e487b7160e01b600052603160045260246000fd5b600060208284031215613d2857600080fd5b5051919050565b6020808252600d908201526c546f6b656e526567697374727960981b604082015260600190565b60068110613d6657613d66613b3f565b9052565b6020815260008251610140806020850152613d89610160850183613347565b91506020850151601f1980868503016040870152613da78483613347565b93506040870151915080868503016060870152613dc48483613347565b93506060870151608087015260808701519150808685030160a0870152613deb8483613347565b935060a08701519150808685030160c087015250613e098382613347565b92505060c0850151613e1f60e086018215159052565b5060e0850151610100613e3481870183613d56565b8601519050610120613e498682018315159052565b9095015160ff1693019290925250919050565b6000808335601e19843603018112613e7357600080fd5b8301803591506001600160401b03821115613e8d57600080fd5b602001915036819003821315613ea257600080fd5b9250929050565b60028110610ce057610ce0613b3f565b60058110613d6657613d66613b3f565b80511515825260006020820151613edf81613ea9565b80602085015250604082015160a06040850152613eff60a0850182613347565b90506060830151613f136060860182613eb9565b5060808301518482036080860152613f2b8282613347565b95945050505050565b613f3f828251613eb9565b60208101516020830152604081015160018060a01b038082166040850152806060840151166060850152806080840151166080850152505060a081015160a08301525050565b858152600060018060a01b03808716602084015280861660408401525060a060608301528351604060a0840152613fc160e08401825115159052565b60208101516101008181860152604083015191506101c080610120870152613fed6102a0870184613ec9565b92506060840151610140870152608084015160df1980888603016101608901526140178583613347565b945060a0860151915080888603016101808901526140358583613347565b945060c0860151915080888603016101a0890152506140548482613347565b93505060e084015161406882880182613f34565b5050919091015115156102808401526020850151609f198483030160c0850152906140938183613347565b925050508260808301529695505050505050565b60006101008a835289602084015288604084015287606084015260018060a01b03871660808401528560a08401528460c08401528060e08401526140ed81840185613347565b9b9a5050505050505050505050565b601f821115610c1e576000816000526020600020601f850160051c810160208610156141255750805b601f850160051c820191505b8181101561414457828155600101614131565b505050505050565b81516001600160401b03811115614165576141656135e6565b614179816141738454613ae8565b846140fc565b602080601f8311600181146141ae57600084156141965750858301515b600019600386901b1c1916600185901b178555614144565b600085815260208120601f198616915b828110156141dd578886015182559484019460019091019084016141be565b50858210156141fb5787850151600019600388901b60f8161c191681555b5050505050600190811b01905550565b6000835161421d818460208801613323565b835190830190614231818360208801613323565b01949350505050565b60006020828403121561424c57600080fd5b8151611cd3816136cb565b60208082526048908201527f5468697320697320612072656365697665206d6574686f642e204f6e6c79206560408201527f6e64706f696e742773206578656375746f722063616e2063616c6c20746869736060820152671036b2ba3437b21760c11b608082015260a00190565b8481528360208201526142d783613ea9565b8260408201526080606082015260006142f36080830184613347565b9695505050505050565b838152826020820152606060408201526000613f2b6060830184613347565b600061018089835288602084015280604084015261433c81840189613347565b905082810360608401526143508188613347565b905082810360808401526143648187613347565b905082810360a08401526143788186613347565b9150506137db60c0830184613f34565b60608152600061439b6060830186613b9d565b82810360208401526143ad8186613b9d565b905082810360408401526142f38185613b9d565b8381526001600160a01b0383166020820152606060408201819052600090613f2b90830184613347565b6001600160a01b03858116825284166020820152604081018390526080606082018190526000906142f390830184613347565b60006020828403121561443057600080fd5b8151611cd3816132d756fea2646970667358221220414dc5f2084edb4b378a8f5a46f525b55a7a515f93f9165c1d2d7b1ed22ba7c064736f6c63430008180033",
  "linkReferences": {},
  "deployedLinkReferences": {}
}