{
  "_format": "hh-sol-artifact-1",
  "contractName": "BroadcastManager",
  "sourceName": "src/commitChain/ParticipantStorage-New/BroadcastManager.sol",
  "abi": [
    {
      "anonymous": false,
      "inputs": [
        {
          "components": [
            {
              "internalType": "uint256",
              "name": "babyJubjubX",
              "type": "uint256"
            },
            {
              "internalType": "uint256",
              "name": "babyJubjubY",
              "type": "uint256"
            },
            {
              "internalType": "address[]",
              "name": "plAddresses",
              "type": "address[]"
            },
            {
              "internalType": "uint256",
              "name": "chainId",
              "type": "uint256"
            }
          ],
          "indexed": false,
          "internalType": "struct StorageBase.PrivateLedgerDataEnygma[]",
          "name": "enygmaData",
          "type": "tuple[]"
        }
      ],
      "name": "EnygmaBroadcasted",
      "type": "event"
    },
    {
      "anonymous": false,
      "inputs": [
        {
          "components": [
            {
              "internalType": "uint256",
              "name": "chainId",
              "type": "uint256"
            },
            {
              "internalType": "string",
              "name": "name",
              "type": "string"
            },
            {
              "internalType": "uint256",
              "name": "createdAt",
              "type": "uint256"
            },
            {
              "internalType": "uint256",
              "name": "updatedAt",
              "type": "uint256"
            },
            {
              "internalType": "uint256[50]",
              "name": "__gap",
              "type": "uint256[50]"
            }
          ],
          "indexed": false,
          "internalType": "struct StorageBase.Participant[]",
          "name": "participants",
          "type": "tuple[]"
        }
      ],
      "name": "ParticipantsBroadcasted",
      "type": "event"
    },
    {
      "inputs": [
        {
          "internalType": "uint256",
          "name": "",
          "type": "uint256"
        }
      ],
      "name": "allEnygmaParticipants",
      "outputs": [
        {
          "internalType": "uint256",
          "name": "",
          "type": "uint256"
        }
      ],
      "stateMutability": "view",
      "type": "function"
    },
    {
      "inputs": [
        {
          "internalType": "uint256",
          "name": "",
          "type": "uint256"
        }
      ],
      "name": "allPrivateLedgers",
      "outputs": [
        {
          "internalType": "uint256",
          "name": "",
          "type": "uint256"
        }
      ],
      "stateMutability": "view",
      "type": "function"
    },
    {
      "inputs": [
        {
          "internalType": "uint256",
          "name": "",
          "type": "uint256"
        }
      ],
      "name": "auditInfoData",
      "outputs": [
        {
          "internalType": "uint256",
          "name": "chainId",
          "type": "uint256"
        },
        {
          "internalType": "string",
          "name": "publicKey",
          "type": "string"
        },
        {
          "internalType": "bytes",
          "name": "encryptedPrivateKey",
          "type": "bytes"
        },
        {
          "internalType": "bytes",
          "name": "mac",
          "type": "bytes"
        },
        {
          "internalType": "uint256",
          "name": "blockNumber",
          "type": "uint256"
        }
      ],
      "stateMutability": "view",
      "type": "function"
    },
    {
      "inputs": [],
      "name": "broadcastEnygmaData",
      "outputs": [
        {
          "components": [
            {
              "internalType": "uint256",
              "name": "babyJubjubX",
              "type": "uint256"
            },
            {
              "internalType": "uint256",
              "name": "babyJubjubY",
              "type": "uint256"
            },
            {
              "internalType": "address[]",
              "name": "plAddresses",
              "type": "address[]"
            },
            {
              "internalType": "uint256",
              "name": "chainId",
              "type": "uint256"
            }
          ],
          "internalType": "struct StorageBase.PrivateLedgerDataEnygma[]",
          "name": "",
          "type": "tuple[]"
        }
      ],
      "stateMutability": "nonpayable",
      "type": "function"
    },
    {
      "inputs": [],
      "name": "broadcastParticipants",
      "outputs": [
        {
          "components": [
            {
              "internalType": "uint256",
              "name": "chainId",
              "type": "uint256"
            },
            {
              "internalType": "string",
              "name": "name",
              "type": "string"
            },
            {
              "internalType": "uint256",
              "name": "createdAt",
              "type": "uint256"
            },
            {
              "internalType": "uint256",
              "name": "updatedAt",
              "type": "uint256"
            },
            {
              "internalType": "uint256[50]",
              "name": "__gap",
              "type": "uint256[50]"
            }
          ],
          "internalType": "struct StorageBase.Participant[]",
          "name": "",
          "type": "tuple[]"
        }
      ],
      "stateMutability": "nonpayable",
      "type": "function"
    },
    {
      "inputs": [
        {
          "internalType": "uint256",
          "name": "",
          "type": "uint256"
        }
      ],
      "name": "enygmaData",
      "outputs": [
        {
          "internalType": "uint256",
          "name": "babyJubjubX",
          "type": "uint256"
        },
        {
          "internalType": "uint256",
          "name": "babyJubjubY",
          "type": "uint256"
        },
        {
          "internalType": "uint256",
          "name": "chainId",
          "type": "uint256"
        }
      ],
      "stateMutability": "view",
      "type": "function"
    },
    {
      "inputs": [
        {
          "internalType": "uint256",
          "name": "",
          "type": "uint256"
        }
      ],
      "name": "participants",
      "outputs": [
        {
          "internalType": "uint256",
          "name": "chainId",
          "type": "uint256"
        },
        {
          "internalType": "string",
          "name": "name",
          "type": "string"
        },
        {
          "internalType": "uint256",
          "name": "createdAt",
          "type": "uint256"
        },
        {
          "internalType": "uint256",
          "name": "updatedAt",
          "type": "uint256"
        }
      ],
      "stateMutability": "view",
      "type": "function"
    },
    {
      "inputs": [],
      "name": "plEnygmaEvents",
      "outputs": [
        {
          "internalType": "address",
          "name": "",
          "type": "address"
        }
      ],
      "stateMutability": "view",
      "type": "function"
    },
    {
      "inputs": [
        {
          "internalType": "uint256",
          "name": "",
          "type": "uint256"
        }
      ],
      "name": "privateLedgerData",
      "outputs": [
        {
          "internalType": "uint256",
          "name": "chainId",
          "type": "uint256"
        },
        {
          "internalType": "string",
          "name": "publicKey",
          "type": "string"
        },
        {
          "internalType": "uint256",
          "name": "blockNumber",
          "type": "uint256"
        }
      ],
      "stateMutability": "view",
      "type": "function"
    },
    {
      "inputs": [
        {
          "internalType": "uint256",
          "name": "",
          "type": "uint256"
        }
      ],
      "name": "registeredChainIds",
      "outputs": [
        {
          "internalType": "uint256",
          "name": "",
          "type": "uint256"
        }
      ],
      "stateMutability": "view",
      "type": "function"
    }
  ],
  "bytecode": "0x608060405234801561001057600080fd5b50610c42806100206000396000f3fe608060405234801561001057600080fd5b506004361061008e5760003560e01c806306f544731461009357806311b3821b146100b157806327451558146100d257806335c1d349146100e7578063452e119e1461010a5780636788540f1461013557806369b6e5b41461015757806390379d861461017b578063b7ef4e021461018e578063c0ac4daf146101d8575b600080fd5b61009b6101eb565b6040516100a89190610978565b60405180910390f35b6100c46100bf366004610a34565b6103de565b6040519081526020016100a8565b6100da6103ff565b6040516100a89190610a4d565b6100fa6100f5366004610a34565b61059c565b6040516100a89493929190610aff565b60395461011d906001600160a01b031681565b6040516001600160a01b0390911681526020016100a8565b610148610143366004610a34565b61064d565b6040516100a893929190610b2b565b61016a610165366004610a34565b6106f8565b6040516100a8959493929190610b54565b6100c4610189366004610a34565b6108bf565b6101bd61019c366004610a34565b60356020526000908152604090208054600182015460039092015490919083565b604080519384526020840192909252908201526060016100a8565b6100c46101e6366004610a34565b6108cf565b60365460609060009067ffffffffffffffff81111561020c5761020c610ba6565b60405190808252806020026020018201604052801561024557816020015b6102326108df565b81526020019060019003908161022a5790505b50905060005b6036548110156103a157603260006036838154811061026c5761026c610bbc565b906000526020600020015481526020019081526020016000206040518060a0016040529081600082015481526020016001820180546102aa90610bd2565b80601f01602080910402602001604051908101604052809291908181526020018280546102d690610bd2565b80156103235780601f106102f857610100808354040283529160200191610323565b820191906000526020600020905b81548152906001019060200180831161030657829003601f168201915b5050509183525050600282015460208201526003820154604080830191909152805161064081019182905260609092019190600484019060329082845b8154815260200190600101908083116103605750505050508152505082828151811061038e5761038e610bbc565b602090810291909101015260010161024b565b507f79f1596da360ea195616025f1463256347f870c73d230455b326e95bfd9150d2816040516103d19190610978565b60405180910390a1919050565b603781815481106103ee57600080fd5b600091825260209091200154905081565b60385460609060009067ffffffffffffffff81111561042057610420610ba6565b60405190808252806020026020018201604052801561047c57816020015b6104696040518060800160405280600081526020016000815260200160608152602001600081525090565b81526020019060019003908161043e5790505b50905060005b60385481101561056c5760356000603883815481106104a3576104a3610bbc565b9060005260206000200154815260200190815260200160002060405180608001604052908160008201548152602001600182015481526020016002820180548060200260200160405190810160405280929190818152602001828054801561053457602002820191906000526020600020905b81546001600160a01b03168152600190910190602001808311610516575b5050505050815260200160038201548152505082828151811061055957610559610bbc565b6020908102919091010152600101610482565b507f3d835f13cc20f51ef7bac98b4c27fd78faa38179d48b657722e89735d592ecf7816040516103d19190610a4d565b603260205260009081526040902080546001820180549192916105be90610bd2565b80601f01602080910402602001604051908101604052809291908181526020018280546105ea90610bd2565b80156106375780601f1061060c57610100808354040283529160200191610637565b820191906000526020600020905b81548152906001019060200180831161061a57829003601f168201915b5050505050908060020154908060030154905084565b6034602052600090815260409020805460018201805491929161066f90610bd2565b80601f016020809104026020016040519081016040528092919081815260200182805461069b90610bd2565b80156106e85780601f106106bd576101008083540402835291602001916106e8565b820191906000526020600020905b8154815290600101906020018083116106cb57829003601f168201915b5050505050908060020154905083565b6033602052600090815260409020805460018201805491929161071a90610bd2565b80601f016020809104026020016040519081016040528092919081815260200182805461074690610bd2565b80156107935780601f1061076857610100808354040283529160200191610793565b820191906000526020600020905b81548152906001019060200180831161077657829003601f168201915b5050505050908060020180546107a890610bd2565b80601f01602080910402602001604051908101604052809291908181526020018280546107d490610bd2565b80156108215780601f106107f657610100808354040283529160200191610821565b820191906000526020600020905b81548152906001019060200180831161080457829003601f168201915b50505050509080600301805461083690610bd2565b80601f016020809104026020016040519081016040528092919081815260200182805461086290610bd2565b80156108af5780601f10610884576101008083540402835291602001916108af565b820191906000526020600020905b81548152906001019060200180831161089257829003601f168201915b5050505050908060040154905085565b603681815481106103ee57600080fd5b603881815481106103ee57600080fd5b6040518060a001604052806000815260200160608152602001600081526020016000815260200161090e610913565b905290565b6040518061064001604052806032906020820280368337509192915050565b6000815180845260005b818110156109585760208185018101518683018201520161093c565b506000602082860101526020601f19601f83011685010191505092915050565b600060208083018184528085518083526040925060408601915060408160051b8701018488016000805b84811015610a2557603f198a850301865282516106c08151865289820151818b8801526109d182880182610932565b838b0151888c0152606080850151908901526080938401519390925087019050845b6032811015610a105783518252928b0192908b01906001016109f3565b505096890196945050918701916001016109a2565b50919998505050505050505050565b600060208284031215610a4657600080fd5b5035919050565b600060208083018184528085518083526040925060408601915060408160051b8701018488016000805b84811015610a2557898403603f190186528251805185528881015189860152878101516080898701819052815190870181905260a08701918b019085905b80821015610ade5782516001600160a01b03168452928c0192918c019160019190910190610ab5565b50505060609182015195909101949094529487019491870191600101610a77565b848152608060208201526000610b186080830186610932565b6040830194909452506060015292915050565b838152606060208201526000610b446060830185610932565b9050826040830152949350505050565b85815260a060208201526000610b6d60a0830187610932565b8281036040840152610b7f8187610932565b90508281036060840152610b938186610932565b9150508260808301529695505050505050565b634e487b7160e01b600052604160045260246000fd5b634e487b7160e01b600052603260045260246000fd5b600181811c90821680610be657607f821691505b602082108103610c0657634e487b7160e01b600052602260045260246000fd5b5091905056fea2646970667358221220b5650e39f0bd711090aab05603d1401d179c37742b14d6d5eecd92c537382cec64736f6c63430008180033",
  "linkReferences": {},
  "deployedLinkReferences": {}
}