{
  "_format": "hh-sol-artifact-1",
  "contractName": "ZkDvpTeleport",
  "sourceName": "src/rayls-protocol/ZkDvp/ZkDvpTeleport.sol",
  "abi": [
    {
      "anonymous": false,
      "inputs": [
        {
          "indexed": true,
          "internalType": "bytes32",
          "name": "sharedId",
          "type": "bytes32"
        }
      ],
      "name": "CalldataExecuted",
      "type": "event"
    },
    {
      "anonymous": false,
      "inputs": [
        {
          "indexed": true,
          "internalType": "bytes32",
          "name": "sharedId",
          "type": "bytes32"
        }
      ],
      "name": "InitiateCalldata",
      "type": "event"
    },
    {
      "anonymous": false,
      "inputs": [
        {
          "indexed": true,
          "internalType": "bytes32",
          "name": "sharedId",
          "type": "bytes32"
        },
        {
          "indexed": false,
          "internalType": "enum ZkDvpTeleport.SwapState",
          "name": "state",
          "type": "uint8"
        }
      ],
      "name": "SwapStateChanged",
      "type": "event"
    },
    {
      "anonymous": false,
      "inputs": [
        {
          "indexed": false,
          "internalType": "string",
          "name": "print",
          "type": "string"
        },
        {
          "indexed": false,
          "internalType": "bytes",
          "name": "data",
          "type": "bytes"
        },
        {
          "indexed": true,
          "internalType": "uint256",
          "name": "blockNumber",
          "type": "uint256"
        }
      ],
      "name": "TransferEncryptedData",
      "type": "event"
    },
    {
      "inputs": [
        {
          "internalType": "bytes32",
          "name": "sharedId",
          "type": "bytes32"
        },
        {
          "internalType": "string",
          "name": "print",
          "type": "string"
        },
        {
          "internalType": "bytes",
          "name": "data",
          "type": "bytes"
        },
        {
          "internalType": "uint256",
          "name": "blockNumber",
          "type": "uint256"
        }
      ],
      "name": "InitiateTransferEncryptedData",
      "outputs": [],
      "stateMutability": "nonpayable",
      "type": "function"
    },
    {
      "inputs": [
        {
          "internalType": "bytes32",
          "name": "sharedId",
          "type": "bytes32"
        }
      ],
      "name": "calldataExecutions",
      "outputs": [
        {
          "internalType": "uint8",
          "name": "executions",
          "type": "uint8"
        }
      ],
      "stateMutability": "view",
      "type": "function"
    },
    {
      "inputs": [
        {
          "internalType": "bytes32",
          "name": "sharedId",
          "type": "bytes32"
        }
      ],
      "name": "completeSwap",
      "outputs": [],
      "stateMutability": "nonpayable",
      "type": "function"
    },
    {
      "inputs": [
        {
          "internalType": "bytes32",
          "name": "sharedId",
          "type": "bytes32"
        }
      ],
      "name": "executeCalldata",
      "outputs": [],
      "stateMutability": "nonpayable",
      "type": "function"
    },
    {
      "inputs": [
        {
          "internalType": "bytes32",
          "name": "sharedId",
          "type": "bytes32"
        }
      ],
      "name": "initiateCalldata",
      "outputs": [],
      "stateMutability": "nonpayable",
      "type": "function"
    },
    {
      "inputs": [
        {
          "internalType": "bytes32",
          "name": "sharedId",
          "type": "bytes32"
        }
      ],
      "name": "revertSwap",
      "outputs": [],
      "stateMutability": "nonpayable",
      "type": "function"
    },
    {
      "inputs": [
        {
          "internalType": "bytes32",
          "name": "sharedId",
          "type": "bytes32"
        }
      ],
      "name": "swapInitialisations",
      "outputs": [
        {
          "internalType": "bool",
          "name": "initialised",
          "type": "bool"
        }
      ],
      "stateMutability": "view",
      "type": "function"
    },
    {
      "inputs": [
        {
          "internalType": "string",
          "name": "print",
          "type": "string"
        },
        {
          "internalType": "bytes",
          "name": "data",
          "type": "bytes"
        },
        {
          "internalType": "uint256",
          "name": "blockNumber",
          "type": "uint256"
        }
      ],
      "name": "transferEncryptedData",
      "outputs": [],
      "stateMutability": "nonpayable",
      "type": "function"
    }
  ],
  "bytecode": "0x608060405234801561001057600080fd5b5061065f806100206000396000f3fe608060405234801561001057600080fd5b50600436106100785760003560e01c80630143664a1461007d5780630a913679146100925780633cc5499e146100a55780633d511b8c146100b857806378bf0199146100f057806383c7a457146101255780638c88397a14610138578063c3a74c5d1461014b575b600080fd5b61009061008b366004610465565b61015e565b005b6100906100a03660046104d2565b61019d565b6100906100b33660046104d2565b6101d9565b6100db6100c63660046104d2565b60016020526000908152604090205460ff1681565b60405190151581526020015b60405180910390f35b6101136100fe3660046104d2565b60006020819052908152604090205460ff1681565b60405160ff90911681526020016100e7565b6100906101333660046104d2565b610207565b6100906101463660046104eb565b6102cd565b6100906101593660046104d2565b610391565b807f43c788ab3309319c9670ae5f123320c0ad30c5a96dc78a9b9bfccaf187242a1684846040516101909291906105a6565b60405180910390a2505050565b807f1a29a2466d037dcb4e1cec4abdb8c609191cebb6093a9a341e412a08d298718860016040516101ce91906105d4565b60405180910390a250565b60405181907f7390f63f046b620dbeb3de874ca62b42b9f821f6faf449f6324d0375808aec1090600090a250565b60008181526020819052604090205460ff166002811061026a5760405162461bcd60e51b815260206004820152601960248201527810d85b1b19185d1848185b1c9958591e48195e1958dd5d1959603a1b60448201526064015b60405180910390fd5b6102758160016105fc565b6000838152602081905260409020805460ff191660ff83169081179091559091506002036102c95760405182907ffa731f14885e8268a85e7e629527a1146a0a1fc5a8684fd35df634af45f642fc90600090a25b5050565b60008481526001602052604081205460ff161515900361034357600084815260016020819052604091829020805460ff191690911790555181907f43c788ab3309319c9670ae5f123320c0ad30c5a96dc78a9b9bfccaf187242a169061033690869086906105a6565b60405180910390a261038b565b60405162461bcd60e51b815260206004820181905260248201527f5472616e7366657220636865636b20616c726561647920696e697469617465646044820152606401610261565b50505050565b807f1a29a2466d037dcb4e1cec4abdb8c609191cebb6093a9a341e412a08d298718860006040516101ce91906105d4565b634e487b7160e01b600052604160045260246000fd5b600082601f8301126103e957600080fd5b813567ffffffffffffffff80821115610404576104046103c2565b604051601f8301601f19908116603f0116810190828211818310171561042c5761042c6103c2565b8160405283815286602085880101111561044557600080fd5b836020870160208301376000602085830101528094505050505092915050565b60008060006060848603121561047a57600080fd5b833567ffffffffffffffff8082111561049257600080fd5b61049e878388016103d8565b945060208601359150808211156104b457600080fd5b506104c1868287016103d8565b925050604084013590509250925092565b6000602082840312156104e457600080fd5b5035919050565b6000806000806080858703121561050157600080fd5b84359350602085013567ffffffffffffffff8082111561052057600080fd5b61052c888389016103d8565b9450604087013591508082111561054257600080fd5b5061054f878288016103d8565b949793965093946060013593505050565b6000815180845260005b818110156105865760208185018101518683018201520161056a565b506000602082860101526020601f19601f83011685010191505092915050565b6040815260006105b96040830185610560565b82810360208401526105cb8185610560565b95945050505050565b60208101600283106105f657634e487b7160e01b600052602160045260246000fd5b91905290565b60ff818116838216019081111561062357634e487b7160e01b600052601160045260246000fd5b9291505056fea2646970667358221220d68d8f4cda4753a46138fcd28838a3f96f91d8a4146791052a079e87361a87e864736f6c63430008180033",
  "linkReferences": {},
  "deployedLinkReferences": {}
}