{
  "_format": "hh-sol-artifact-1",
  "contractName": "RaylsErc721Example",
  "sourceName": "src/rayls-protocol/test-contracts/Erc721Example.sol",
  "abi": [
    {
      "inputs": [
        {
          "internalType": "string",
          "name": "baseUri",
          "type": "string"
        },
        {
          "internalType": "string",
          "name": "name",
          "type": "string"
        },
        {
          "internalType": "string",
          "name": "symbol",
          "type": "string"
        },
        {
          "internalType": "address",
          "name": "_endpoint",
          "type": "address"
        }
      ],
      "stateMutability": "nonpayable",
      "type": "constructor"
    },
    {
      "inputs": [
        {
          "internalType": "address",
          "name": "sender",
          "type": "address"
        },
        {
          "internalType": "uint256",
          "name": "tokenId",
          "type": "uint256"
        },
        {
          "internalType": "address",
          "name": "owner",
          "type": "address"
        }
      ],
      "name": "ERC721IncorrectOwner",
      "type": "error"
    },
    {
      "inputs": [
        {
          "internalType": "address",
          "name": "operator",
          "type": "address"
        },
        {
          "internalType": "uint256",
          "name": "tokenId",
          "type": "uint256"
        }
      ],
      "name": "ERC721InsufficientApproval",
      "type": "error"
    },
    {
      "inputs": [
        {
          "internalType": "address",
          "name": "approver",
          "type": "address"
        }
      ],
      "name": "ERC721InvalidApprover",
      "type": "error"
    },
    {
      "inputs": [
        {
          "internalType": "address",
          "name": "operator",
          "type": "address"
        }
      ],
      "name": "ERC721InvalidOperator",
      "type": "error"
    },
    {
      "inputs": [
        {
          "internalType": "address",
          "name": "owner",
          "type": "address"
        }
      ],
      "name": "ERC721InvalidOwner",
      "type": "error"
    },
    {
      "inputs": [
        {
          "internalType": "address",
          "name": "receiver",
          "type": "address"
        }
      ],
      "name": "ERC721InvalidReceiver",
      "type": "error"
    },
    {
      "inputs": [
        {
          "internalType": "address",
          "name": "sender",
          "type": "address"
        }
      ],
      "name": "ERC721InvalidSender",
      "type": "error"
    },
    {
      "inputs": [
        {
          "internalType": "uint256",
          "name": "tokenId",
          "type": "uint256"
        }
      ],
      "name": "ERC721NonexistentToken",
      "type": "error"
    },
    {
      "inputs": [],
      "name": "InvalidInitialization",
      "type": "error"
    },
    {
      "inputs": [],
      "name": "NotInitializing",
      "type": "error"
    },
    {
      "inputs": [
        {
          "internalType": "address",
          "name": "owner",
          "type": "address"
        }
      ],
      "name": "OwnableInvalidOwner",
      "type": "error"
    },
    {
      "inputs": [
        {
          "internalType": "address",
          "name": "account",
          "type": "address"
        }
      ],
      "name": "OwnableUnauthorizedAccount",
      "type": "error"
    },
    {
      "anonymous": false,
      "inputs": [
        {
          "indexed": true,
          "internalType": "address",
          "name": "owner",
          "type": "address"
        },
        {
          "indexed": true,
          "internalType": "address",
          "name": "approved",
          "type": "address"
        },
        {
          "indexed": true,
          "internalType": "uint256",
          "name": "tokenId",
          "type": "uint256"
        }
      ],
      "name": "Approval",
      "type": "event"
    },
    {
      "anonymous": false,
      "inputs": [
        {
          "indexed": true,
          "internalType": "address",
          "name": "owner",
          "type": "address"
        },
        {
          "indexed": true,
          "internalType": "address",
          "name": "operator",
          "type": "address"
        },
        {
          "indexed": false,
          "internalType": "bool",
          "name": "approved",
          "type": "bool"
        }
      ],
      "name": "ApprovalForAll",
      "type": "event"
    },
    {
      "anonymous": false,
      "inputs": [
        {
          "indexed": false,
          "internalType": "uint64",
          "name": "version",
          "type": "uint64"
        }
      ],
      "name": "Initialized",
      "type": "event"
    },
    {
      "anonymous": false,
      "inputs": [
        {
          "indexed": true,
          "internalType": "address",
          "name": "previousOwner",
          "type": "address"
        },
        {
          "indexed": true,
          "internalType": "address",
          "name": "newOwner",
          "type": "address"
        }
      ],
      "name": "OwnershipTransferred",
      "type": "event"
    },
    {
      "anonymous": false,
      "inputs": [
        {
          "indexed": true,
          "internalType": "address",
          "name": "from",
          "type": "address"
        },
        {
          "indexed": true,
          "internalType": "address",
          "name": "to",
          "type": "address"
        },
        {
          "indexed": true,
          "internalType": "uint256",
          "name": "tokenId",
          "type": "uint256"
        }
      ],
      "name": "Transfer",
      "type": "event"
    },
    {
      "inputs": [],
      "name": "_getEndpointAddress",
      "outputs": [
        {
          "internalType": "address",
          "name": "",
          "type": "address"
        }
      ],
      "stateMutability": "view",
      "type": "function"
    },
    {
      "inputs": [],
      "name": "_tokenName",
      "outputs": [
        {
          "internalType": "string",
          "name": "",
          "type": "string"
        }
      ],
      "stateMutability": "view",
      "type": "function"
    },
    {
      "inputs": [],
      "name": "_tokenSymbol",
      "outputs": [
        {
          "internalType": "string",
          "name": "",
          "type": "string"
        }
      ],
      "stateMutability": "view",
      "type": "function"
    },
    {
      "inputs": [
        {
          "internalType": "address",
          "name": "_endpoint",
          "type": "address"
        }
      ],
      "name": "_updateEndpoint",
      "outputs": [],
      "stateMutability": "nonpayable",
      "type": "function"
    },
    {
      "inputs": [
        {
          "internalType": "address",
          "name": "to",
          "type": "address"
        },
        {
          "internalType": "uint256",
          "name": "tokenId",
          "type": "uint256"
        }
      ],
      "name": "approve",
      "outputs": [],
      "stateMutability": "nonpayable",
      "type": "function"
    },
    {
      "inputs": [
        {
          "internalType": "address",
          "name": "account",
          "type": "address"
        }
      ],
      "name": "awardItem",
      "outputs": [
        {
          "internalType": "uint256",
          "name": "",
          "type": "uint256"
        }
      ],
      "stateMutability": "nonpayable",
      "type": "function"
    },
    {
      "inputs": [
        {
          "internalType": "address",
          "name": "owner",
          "type": "address"
        }
      ],
      "name": "balanceOf",
      "outputs": [
        {
          "internalType": "uint256",
          "name": "",
          "type": "uint256"
        }
      ],
      "stateMutability": "view",
      "type": "function"
    },
    {
      "inputs": [
        {
          "internalType": "uint256",
          "name": "id",
          "type": "uint256"
        }
      ],
      "name": "burn",
      "outputs": [],
      "stateMutability": "nonpayable",
      "type": "function"
    },
    {
      "inputs": [
        {
          "internalType": "bytes32",
          "name": "_resourceId",
          "type": "bytes32"
        }
      ],
      "name": "getAddressByResourceId",
      "outputs": [
        {
          "internalType": "address",
          "name": "",
          "type": "address"
        }
      ],
      "stateMutability": "view",
      "type": "function"
    },
    {
      "inputs": [
        {
          "internalType": "uint256",
          "name": "tokenId",
          "type": "uint256"
        }
      ],
      "name": "getApproved",
      "outputs": [
        {
          "internalType": "address",
          "name": "",
          "type": "address"
        }
      ],
      "stateMutability": "view",
      "type": "function"
    },
    {
      "inputs": [
        {
          "internalType": "string",
          "name": "uri",
          "type": "string"
        },
        {
          "internalType": "string",
          "name": "name_",
          "type": "string"
        },
        {
          "internalType": "string",
          "name": "symbol_",
          "type": "string"
        }
      ],
      "name": "initialize",
      "outputs": [],
      "stateMutability": "nonpayable",
      "type": "function"
    },
    {
      "inputs": [
        {
          "internalType": "address",
          "name": "owner",
          "type": "address"
        },
        {
          "internalType": "address",
          "name": "operator",
          "type": "address"
        }
      ],
      "name": "isApprovedForAll",
      "outputs": [
        {
          "internalType": "bool",
          "name": "",
          "type": "bool"
        }
      ],
      "stateMutability": "view",
      "type": "function"
    },
    {
      "inputs": [
        {
          "internalType": "address",
          "name": "account",
          "type": "address"
        },
        {
          "internalType": "uint256",
          "name": "id",
          "type": "uint256"
        }
      ],
      "name": "isTokenLocked",
      "outputs": [
        {
          "internalType": "bool",
          "name": "",
          "type": "bool"
        }
      ],
      "stateMutability": "view",
      "type": "function"
    },
    {
      "inputs": [
        {
          "internalType": "address",
          "name": "to",
          "type": "address"
        },
        {
          "internalType": "uint256",
          "name": "id",
          "type": "uint256"
        }
      ],
      "name": "mint",
      "outputs": [],
      "stateMutability": "nonpayable",
      "type": "function"
    },
    {
      "inputs": [],
      "name": "name",
      "outputs": [
        {
          "internalType": "string",
          "name": "",
          "type": "string"
        }
      ],
      "stateMutability": "view",
      "type": "function"
    },
    {
      "inputs": [],
      "name": "owner",
      "outputs": [
        {
          "internalType": "address",
          "name": "",
          "type": "address"
        }
      ],
      "stateMutability": "view",
      "type": "function"
    },
    {
      "inputs": [
        {
          "internalType": "uint256",
          "name": "tokenId",
          "type": "uint256"
        }
      ],
      "name": "ownerOf",
      "outputs": [
        {
          "internalType": "address",
          "name": "",
          "type": "address"
        }
      ],
      "stateMutability": "view",
      "type": "function"
    },
    {
      "inputs": [
        {
          "internalType": "bytes32",
          "name": "_resourceId",
          "type": "bytes32"
        }
      ],
      "name": "receiveResourceId",
      "outputs": [],
      "stateMutability": "nonpayable",
      "type": "function"
    },
    {
      "inputs": [
        {
          "internalType": "address",
          "name": "to",
          "type": "address"
        },
        {
          "internalType": "uint256",
          "name": "id",
          "type": "uint256"
        }
      ],
      "name": "receiveTeleport",
      "outputs": [],
      "stateMutability": "nonpayable",
      "type": "function"
    },
    {
      "inputs": [
        {
          "internalType": "address",
          "name": "to",
          "type": "address"
        },
        {
          "internalType": "uint256",
          "name": "id",
          "type": "uint256"
        }
      ],
      "name": "receiveTeleportAtomic",
      "outputs": [],
      "stateMutability": "nonpayable",
      "type": "function"
    },
    {
      "inputs": [],
      "name": "renounceOwnership",
      "outputs": [],
      "stateMutability": "nonpayable",
      "type": "function"
    },
    {
      "inputs": [],
      "name": "resourceId",
      "outputs": [
        {
          "internalType": "bytes32",
          "name": "",
          "type": "bytes32"
        }
      ],
      "stateMutability": "view",
      "type": "function"
    },
    {
      "inputs": [
        {
          "internalType": "uint256",
          "name": "id",
          "type": "uint256"
        }
      ],
      "name": "revertTeleportBurn",
      "outputs": [],
      "stateMutability": "nonpayable",
      "type": "function"
    },
    {
      "inputs": [
        {
          "internalType": "address",
          "name": "to",
          "type": "address"
        },
        {
          "internalType": "uint256",
          "name": "id",
          "type": "uint256"
        }
      ],
      "name": "revertTeleportMint",
      "outputs": [],
      "stateMutability": "nonpayable",
      "type": "function"
    },
    {
      "inputs": [
        {
          "internalType": "address",
          "name": "from",
          "type": "address"
        },
        {
          "internalType": "address",
          "name": "to",
          "type": "address"
        },
        {
          "internalType": "uint256",
          "name": "tokenId",
          "type": "uint256"
        }
      ],
      "name": "safeTransferFrom",
      "outputs": [],
      "stateMutability": "nonpayable",
      "type": "function"
    },
    {
      "inputs": [
        {
          "internalType": "address",
          "name": "from",
          "type": "address"
        },
        {
          "internalType": "address",
          "name": "to",
          "type": "address"
        },
        {
          "internalType": "uint256",
          "name": "tokenId",
          "type": "uint256"
        },
        {
          "internalType": "bytes",
          "name": "data",
          "type": "bytes"
        }
      ],
      "name": "safeTransferFrom",
      "outputs": [],
      "stateMutability": "nonpayable",
      "type": "function"
    },
    {
      "inputs": [
        {
          "internalType": "address",
          "name": "operator",
          "type": "address"
        },
        {
          "internalType": "bool",
          "name": "approved",
          "type": "bool"
        }
      ],
      "name": "setApprovalForAll",
      "outputs": [],
      "stateMutability": "nonpayable",
      "type": "function"
    },
    {
      "inputs": [
        {
          "internalType": "uint8",
          "name": "_storageSlot",
          "type": "uint8"
        }
      ],
      "name": "submitTokenRegistration",
      "outputs": [],
      "stateMutability": "nonpayable",
      "type": "function"
    },
    {
      "inputs": [
        {
          "internalType": "enum SharedObjects.BalanceUpdateType",
          "name": "updateType",
          "type": "uint8"
        },
        {
          "internalType": "uint256",
          "name": "tokenId",
          "type": "uint256"
        }
      ],
      "name": "submitTokenUpdate",
      "outputs": [],
      "stateMutability": "nonpayable",
      "type": "function"
    },
    {
      "inputs": [
        {
          "internalType": "bytes4",
          "name": "interfaceId",
          "type": "bytes4"
        }
      ],
      "name": "supportsInterface",
      "outputs": [
        {
          "internalType": "bool",
          "name": "",
          "type": "bool"
        }
      ],
      "stateMutability": "view",
      "type": "function"
    },
    {
      "inputs": [],
      "name": "symbol",
      "outputs": [
        {
          "internalType": "string",
          "name": "",
          "type": "string"
        }
      ],
      "stateMutability": "view",
      "type": "function"
    },
    {
      "inputs": [
        {
          "internalType": "address",
          "name": "to",
          "type": "address"
        },
        {
          "internalType": "uint256",
          "name": "id",
          "type": "uint256"
        },
        {
          "internalType": "uint256",
          "name": "chainId",
          "type": "uint256"
        }
      ],
      "name": "teleport",
      "outputs": [
        {
          "internalType": "bool",
          "name": "",
          "type": "bool"
        }
      ],
      "stateMutability": "nonpayable",
      "type": "function"
    },
    {
      "inputs": [
        {
          "internalType": "address",
          "name": "to",
          "type": "address"
        },
        {
          "internalType": "uint256",
          "name": "id",
          "type": "uint256"
        },
        {
          "internalType": "uint256",
          "name": "chainId",
          "type": "uint256"
        }
      ],
      "name": "teleportAtomic",
      "outputs": [
        {
          "internalType": "bool",
          "name": "",
          "type": "bool"
        }
      ],
      "stateMutability": "nonpayable",
      "type": "function"
    },
    {
      "inputs": [
        {
          "internalType": "uint256",
          "name": "tokenId",
          "type": "uint256"
        }
      ],
      "name": "tokenURI",
      "outputs": [
        {
          "internalType": "string",
          "name": "",
          "type": "string"
        }
      ],
      "stateMutability": "view",
      "type": "function"
    },
    {
      "inputs": [
        {
          "internalType": "address",
          "name": "from",
          "type": "address"
        },
        {
          "internalType": "address",
          "name": "to",
          "type": "address"
        },
        {
          "internalType": "uint256",
          "name": "tokenId",
          "type": "uint256"
        }
      ],
      "name": "transferFrom",
      "outputs": [],
      "stateMutability": "nonpayable",
      "type": "function"
    },
    {
      "inputs": [
        {
          "internalType": "address",
          "name": "newOwner",
          "type": "address"
        }
      ],
      "name": "transferOwnership",
      "outputs": [],
      "stateMutability": "nonpayable",
      "type": "function"
    },
    {
      "inputs": [
        {
          "internalType": "address",
          "name": "to",
          "type": "address"
        },
        {
          "internalType": "uint256",
          "name": "id",
          "type": "uint256"
        }
      ],
      "name": "unlock",
      "outputs": [
        {
          "internalType": "bool",
          "name": "",
          "type": "bool"
        }
      ],
      "stateMutability": "nonpayable",
      "type": "function"
    }
  ],
  "bytecode": "0x60806040523480156200001157600080fd5b5060405162003a9d38038062003a9d8339810160408190526200003491620009d2565b600080546001600160a01b0319166001600160a01b0383161781558490849084908490339081858560026200006a838262000b15565b50600362000079828262000b15565b5050506001600160a01b038116620000ac57604051631e4fbdf760e01b8152600060048201526024015b60405180910390fd5b620000b78162000149565b50600a620000c6868262000b15565b50600b620000d5858262000b15565b506009620000e4878262000b15565b50600c805460ff1916821515179055620000fd6200019b565b505050505050620001163360006200024f60201b60201c565b620001233360646200024f565b620001303360966200024f565b60126200013e858262000b15565b505050505062000cb8565b600880546001600160a01b038381166001600160a01b0319831681179093556040519116919082907f8be0079c531659141344cd1fd0a4f28419497f9722a3daafe3b4186f6b6457e090600090a35050565b7ff0c57e16840df040f15088dc2f81fe391c3923bec73e23a9662efc9c229c6a00805468010000000000000000900460ff1615620001ec5760405163f92ee8a960e01b815260040160405180910390fd5b80546001600160401b03908116146200024c5780546001600160401b0319166001600160401b0390811782556040519081527fc7f505b2f371ae2175ee4913f4499e1f2633a7b5936321eed1cdaeb6115181d29060200160405180910390a15b50565b620002718282604051806020016040528060008152506200027560201b60201c565b5050565b62000281838362000295565b620002906000848484620002ff565b505050565b6001600160a01b038216620002c157604051633250574960e11b815260006004820152602401620000a3565b6000620002d083838362000436565b90506001600160a01b0381161562000290576040516339e3563760e11b815260006004820152602401620000a3565b6001600160a01b0383163b156200043057604051630a85bd0160e11b81526001600160a01b0384169063150b7a02906200034490339088908790879060040162000be1565b6020604051808303816000875af192505050801562000382575060408051601f3d908101601f191682019092526200037f9181019062000c37565b60015b620003f0573d808015620003b3576040519150601f19603f3d011682016040523d82523d6000602084013e620003b8565b606091505b508051600003620003e857604051633250574960e11b81526001600160a01b0385166004820152602401620000a3565b805181602001fd5b6001600160e01b03198116630a85bd0160e11b146200042e57604051633250574960e11b81526001600160a01b0385166004820152602401620000a3565b505b50505050565b60008062000446858585620005a7565b90506001600160a01b038116620004b9576000848152600f602052604090205460ff16620004b9576010805460018181019092557f1b6847dc741a1b0cd08d278845f9d819d87b734759afb55fe2de5cb82a9ae672018590556000858152600f60205260409020805460ff191690911790555b6001600160a01b0385166200059f576000848152600f60205260408120805460ff191690555b6010548110156200059d57846010828154811062000501576200050162000c6a565b906000526020600020015403620005945760108054620005249060019062000c80565b8154811062000537576200053762000c6a565b90600052602060002001546010828154811062000558576200055862000c6a565b600091825260209091200155601080548062000578576200057862000ca2565b600190038181906000526020600020016000905590556200059d565b600101620004df565b505b949350505050565b6000828152600460205260408120546001600160a01b0390811690831615620005d757620005d7818486620006a6565b6001600160a01b038116156200061757620005f6600085818062000710565b6001600160a01b038116600090815260056020526040902080546000190190555b6001600160a01b0385161562000647576001600160a01b0385166000908152600560205260409020805460010190555b60008481526004602052604080822080546001600160a01b0319166001600160a01b0389811691821790925591518793918516917fddf252ad1be2c89b69c2b068fc378daa952ba7f163c4a11628f55a4df523b3ef91a4949350505050565b620006b38383836200083e565b62000290576001600160a01b038316620006e457604051637e27328960e01b815260048101829052602401620000a3565b60405163177e802f60e01b81526001600160a01b038316600482015260248101829052604401620000a3565b80806200072557506001600160a01b03821615155b156200080e5760006200073884620008c4565b90506001600160a01b03831615801590620007655750826001600160a01b0316816001600160a01b031614155b80156200079857506001600160a01b0380821660009081526007602090815260408083209387168352929052205460ff16155b15620007c35760405163a9fbf51f60e01b81526001600160a01b0384166004820152602401620000a3565b81156200080c5783856001600160a01b0316826001600160a01b03167f8c5be1e5ebec7d5bd14f71427d1e84f3dd0314c0f7b2291e5b200ac8c7c3b92560405160405180910390a45b505b5050600090815260066020526040902080546001600160a01b0319166001600160a01b0392909216919091179055565b60006001600160a01b038316158015906200059f5750826001600160a01b0316846001600160a01b031614806200089a57506001600160a01b0380851660009081526007602090815260408083209387168352929052205460ff165b806200059f5750506000908152600660205260409020546001600160a01b03908116911614919050565b6000818152600460205260408120546001600160a01b031680620008ff57604051637e27328960e01b815260048101849052602401620000a3565b92915050565b634e487b7160e01b600052604160045260246000fd5b60005b83811015620009385781810151838201526020016200091e565b50506000910152565b600082601f8301126200095357600080fd5b81516001600160401b038082111562000970576200097062000905565b604051601f8301601f19908116603f011681019082821181831017156200099b576200099b62000905565b81604052838152866020858801011115620009b557600080fd5b620009c88460208301602089016200091b565b9695505050505050565b60008060008060808587031215620009e957600080fd5b84516001600160401b038082111562000a0157600080fd5b62000a0f8883890162000941565b9550602087015191508082111562000a2657600080fd5b62000a348883890162000941565b9450604087015191508082111562000a4b57600080fd5b5062000a5a8782880162000941565b606087015190935090506001600160a01b038116811462000a7a57600080fd5b939692955090935050565b600181811c9082168062000a9a57607f821691505b60208210810362000abb57634e487b7160e01b600052602260045260246000fd5b50919050565b601f82111562000290576000816000526020600020601f850160051c8101602086101562000aec5750805b601f850160051c820191505b8181101562000b0d5782815560010162000af8565b505050505050565b81516001600160401b0381111562000b315762000b3162000905565b62000b498162000b42845462000a85565b8462000ac1565b602080601f83116001811462000b81576000841562000b685750858301515b600019600386901b1c1916600185901b17855562000b0d565b600085815260208120601f198616915b8281101562000bb25788860151825594840194600190910190840162000b91565b508582101562000bd15787850151600019600388901b60f8161c191681555b5050505050600190811b01905550565b600060018060a01b03808716835280861660208401525083604083015260806060830152825180608084015262000c208160a08501602087016200091b565b601f01601f19169190910160a00195945050505050565b60006020828403121562000c4a57600080fd5b81516001600160e01b03198116811462000c6357600080fd5b9392505050565b634e487b7160e01b600052603260045260246000fd5b81810381811115620008ff57634e487b7160e01b600052601160045260246000fd5b634e487b7160e01b600052603160045260246000fd5b612dd58062000cc86000396000f3fe608060405234801561001057600080fd5b50600436106101e75760003560e01c80637eee288d11610110578063b88d4fde116100a8578063b88d4fde1461042c578063be1ad65c1461043f578063c0251d5514610452578063c6a690a414610465578063c87b56dd14610478578063e3ee8a431461048b578063e985e9c51461049e578063ecf35cca146104b1578063f2fb2120146104b9578063f2fde38b146104cc57600080fd5b80637eee288d146103a45780638da5cb5b146103b7578063921e3168146103bf57806395d89b41146103d257806396bebd04146103da5780639f0c8125146103ed578063a22cb465146103f5578063a6487c5314610408578063b247d9461461041b57600080fd5b806342842e0e1161018357806342842e0e146102bd57806342966c68146102d0578063556da1b9146102e35780635f997c5b146102f65780636352211e1461030d5780636f1813181461032057806370a0823114610350578063715018a6146103635780637ae1ccf91461036b57600080fd5b806301ffc9a7146101ec57806306fdde0314610214578063081812fc14610229578063095ea7b3146102495780630e5ee7801461025e57806311f50c851461027157806323b872dd146102845780632e30417b1461029757806340c10f19146102aa575b600080fd5b6101ff6101fa366004612313565b6104df565b60405190151581526020015b60405180910390f35b61021c610531565b60405161020b9190612380565b61023c610237366004612393565b6105c3565b60405161020b91906123ac565b61025c6102573660046123d5565b6105d8565b005b61025c61026c366004612401565b6105e7565b61023c61027f366004612393565b6105f9565b61025c610292366004612423565b610667565b61025c6102a5366004612393565b6106e7565b61025c6102b83660046123d5565b610780565b61025c6102cb366004612423565b61079d565b61025c6102de366004612393565b6107bd565b61025c6102f1366004612464565b6107d9565b6102ff60015481565b60405190815260200161020b565b61023c61031b366004612393565b610b20565b61025c61032e366004612487565b600080546001600160a01b0319166001600160a01b0392909216919091179055565b6102ff61035e366004612487565b610b2b565b61025c610b73565b6101ff6103793660046123d5565b6001600160a01b03919091166000908152600d60209081526040808320938352929052205460ff1690565b6101ff6103b23660046123d5565b610b87565b61023c610c1c565b6101ff6103cd3660046124a4565b610c2b565b61021c610d6f565b61025c6103e83660046123d5565b610d7e565b61021c610d88565b61025c6104033660046124e7565b610e16565b61025c6104163660046125cb565b610e21565b6000546001600160a01b031661023c565b61025c61043a366004612652565b610f9c565b6101ff61044d3660046124a4565b610fb3565b61025c6104603660046123d5565b611053565b61025c6104733660046123d5565b61108e565b61021c610486366004612393565b61111b565b61025c610499366004612393565b611183565b6101ff6104ac3660046126d1565b611301565b61021c61132f565b6102ff6104c7366004612487565b61133c565b61025c6104da366004612487565b611368565b60006001600160e01b031982166380ac58cd60e01b148061051057506001600160e01b03198216635b5e139f60e01b145b8061052b57506301ffc9a760e01b6001600160e01b03198316145b92915050565b6060600a8054610540906126ff565b80601f016020809104026020016040519081016040528092919081815260200182805461056c906126ff565b80156105b95780601f1061058e576101008083540402835291602001916105b9565b820191906000526020600020905b81548152906001019060200180831161059c57829003601f168201915b5050505050905090565b60006105ce826113a3565b5061052b826113db565b6105e38282336113f6565b5050565b6105ef611403565b6105e38282611435565b600080546040516311f50c8560e01b8152600481018490526001600160a01b03909116906311f50c8590602401602060405180830381865afa158015610643573d6000803e3d6000fd5b505050506040513d601f19601f8201168201806040525081019061052b9190612739565b6001600160a01b03821661069a576000604051633250574960e11b815260040161069191906123ac565b60405180910390fd5b60006106a78383336115f9565b9050836001600160a01b0316816001600160a01b0316146106e1578382826040516364283d7b60e01b815260040161069193929190612756565b50505050565b6000546040516333932be560e11b81526001600160a01b039091169063672657ca906107179033906004016123ac565b602060405180830381865afa158015610734573d6000803e3d6000fd5b505050506040513d601f19601f820116820180604052508101906107589190612779565b6107745760405162461bcd60e51b815260040161069190612796565b61077d81611753565b50565b610788611403565b610792828261178e565b6105e3600182611435565b6107b883838360405180602001604052806000815250610f9c565b505050565b6107c5611403565b6107ce81611753565b61077d600082611435565b60005460408051631119527160e11b8152905161077d926001600160a01b031691632232a4e29160048083019260209291908290030181865afa158015610824573d6000803e3d6000fd5b505050506040513d601f19601f820116820180604052508101906108489190612804565b60005460405163377890a160e11b81526001600160a01b0390911690636ef12142906108769060040161281d565b602060405180830381865afa158015610893573d6000803e3d6000fd5b505050506040513d601f19601f820116820180604052508101906108b79190612739565b604051806101400160405280600a80546108d0906126ff565b80601f01602080910402602001604051908101604052809291908181526020018280546108fc906126ff565b80156109495780601f1061091e57610100808354040283529160200191610949565b820191906000526020600020905b81548152906001019060200180831161092c57829003601f168201915b50505050508152602001600b8054610960906126ff565b80601f016020809104026020016040519081016040528092919081815260200182805461098c906126ff565b80156109d95780601f106109ae576101008083540402835291602001916109d9565b820191906000526020600020905b8154815290600101906020018083116109bc57829003601f168201915b505050505081526020016109eb6117f3565b6040516020016109fb9190612844565b604051602081830303815290604052815260200160008054906101000a90046001600160a01b03166001600160a01b0316633408e4706040518163ffffffff1660e01b8152600401602060405180830381865afa158015610a60573d6000803e3d6000fd5b505050506040513d601f19601f82011682018060405250810190610a849190612804565b8152602001306001600160a01b0316803b806020016040519081016040528181526000908060200190933c8152602001610abc61184a565b81526000602082015260400160028152600c5460ff90811615156020830152861660409182015251610af191906024016128b2565b60408051601f198184030181529190526020810180516001600160e01b0316638b55462d60e01b179052611893565b600061052b826113a3565b60006001600160a01b038216610b575760006040516322718ad960e21b815260040161069191906123ac565b506001600160a01b031660009081526005602052604090205490565b610b7b611403565b610b85600061190a565b565b6000610b91610c1c565b6001600160a01b0316836001600160a01b031614610c13576000610bb5848461195c565b905080610bff5760405162461bcd60e51b815260206004820152601860248201527763616e6e6f7420756e6c6f636b207468652061737365747360401b6044820152606401610691565b610c11610c0a610c1c565b8585611a12565b505b50600192915050565b6008546001600160a01b031690565b6000610c3683611753565b6040805160c08101825260018082526020820186905233828401526001600160a01b038716606083015230608083015260a08201529051610d64908490610c8390889088906024016129a4565b60408051601f198184030181529181526020820180516001600160e01b031663c0251d5560e01b17905251610cbe90899089906024016129a4565b60408051601f198184030181529181526020820180516001600160e01b0316637eee288d60e01b17905251610cf99033908a906024016129a4565b60408051601f198184030181529181526020820180516001600160e01b03166331a9a42960e21b17905251610d349033908b906024016129a4565b60408051601f198184030181529190526020810180516001600160e01b0316630e3f4c6f60e31b17905286611a2d565b506001949350505050565b6060600b8054610540906126ff565b6105e3828261178e565b600a8054610d95906126ff565b80601f0160208091040260200160405190810160405280929190818152602001828054610dc1906126ff565b8015610e0e5780601f10610de357610100808354040283529160200191610e0e565b820191906000526020600020905b815481529060010190602001808311610df157829003601f168201915b505050505081565b6105e3338383611a8d565b7ff0c57e16840df040f15088dc2f81fe391c3923bec73e23a9662efc9c229c6a008054600160401b810460ff1615906001600160401b0316600081158015610e665750825b90506000826001600160401b03166001148015610e825750303b155b905081158015610e90575080155b15610eae5760405163f92ee8a960e01b815260040160405180910390fd5b845467ffffffffffffffff191660011785558315610ed857845460ff60401b1916600160401b1785555b6000610ee2611b23565b90506000610eee611b3b565b9050610ef8611b52565b600155600a610f078a82612a05565b50600b610f148982612a05565b506009610f218b82612a05565b50610f2b8261190a565b600080546001600160a01b0319166001600160a01b0392909216919091179055508315610f9257845460ff60401b19168555604051600181527fc7f505b2f371ae2175ee4913f4499e1f2633a7b5936321eed1cdaeb6115181d29060200160405180910390a15b5050505050505050565b610fa7848484610667565b6106e184848484611b66565b6000610fbe83611753565b6040805160c08101825260018082526020820186905233828401526001600160a01b038716606083015230608083015260a08201529051610d6490849061100b90889088906024016129a4565b60408051601f19818403018152918152602080830180516001600160e01b03166325afaf4160e21b17905281519081018252600081529051610cf99033908a906024016129a4565b61106461105e610c1c565b8261178e565b61106c610c1c565b6001600160a01b0316826001600160a01b0316146105e3576105e38282611c7d565b6000546040516333932be560e11b81526001600160a01b039091169063672657ca906110be9033906004016123ac565b602060405180830381865afa1580156110db573d6000803e3d6000fd5b505050506040513d601f19601f820116820180604052508101906110ff9190612779565b610d7e5760405162461bcd60e51b815260040161069190612796565b6060611126826113a3565b506000611131611cc0565b90506000815111611151576040518060200160405280600081525061117c565b8061115b84611ccf565b60405160200161116c929190612ac4565b6040516020818303038152906040525b9392505050565b6000546040516333932be560e11b81526001600160a01b039091169063672657ca906111b39033906004016123ac565b602060405180830381865afa1580156111d0573d6000803e3d6000fd5b505050506040513d601f19601f820116820180604052508101906111f49190612779565b6112105760405162461bcd60e51b815260040161069190612796565b60008054906101000a90046001600160a01b03166001600160a01b0316632232a4e26040518163ffffffff1660e01b8152600401602060405180830381865afa158015611261573d6000803e3d6000fd5b505050506040513d601f19601f820116820180604052508101906112859190612804565b61128d611d61565b146112f45760405162461bcd60e51b815260206004820152603160248201527f54686973206d6574686f64206f6e6c7920726563656976652063616c6c7320666044820152703937b69031b7b6b6b4ba1031b430b4b71760791b6064820152608401610691565b600181905561077d611d75565b6001600160a01b03918216600090815260076020908152604080832093909416825291909152205460ff1690565b600b8054610d95906126ff565b60115460009061134c838261178e565b6011805490600061135c83612b09565b90915550909392505050565b611370611403565b6001600160a01b03811661139a576000604051631e4fbdf760e01b815260040161069191906123ac565b61077d8161190a565b6000806113af83611e3a565b90506001600160a01b03811661052b57604051637e27328960e01b815260048101849052602401610691565b6000908152600660205260409020546001600160a01b031690565b6107b88383836001611e55565b3361140c610c1c565b6001600160a01b031614610b85573360405163118cdaa760e01b815260040161069191906123ac565b600154611440575050565b60005460408051631119527160e11b815290516105e3926001600160a01b031691632232a4e29160048083019260209291908290030181865afa15801561148b573d6000803e3d6000fd5b505050506040513d601f19601f820116820180604052508101906114af9190612804565b60005460405163377890a160e11b81526001600160a01b0390911690636ef12142906114dd9060040161281d565b602060405180830381865afa1580156114fa573d6000803e3d6000fd5b505050506040513d601f19601f8201168201806040525081019061151e9190612739565b60008054906101000a90046001600160a01b03166001600160a01b0316633408e4706040518163ffffffff1660e01b8152600401602060405180830381865afa15801561156f573d6000803e3d6000fd5b505050506040513d601f19601f820116820180604052508101906115939190612804565b60015486866040516020016115aa91815260200190565b60408051601f19818403018152908290526115ca94939291602401612b22565b60408051601f198184030181529190526020810180516001600160e01b031663401c3df160e11b179052611893565b600080611607858585611f52565b90506001600160a01b038116611678576000848152600f602052604090205460ff16611678576010805460018181019092557f1b6847dc741a1b0cd08d278845f9d819d87b734759afb55fe2de5cb82a9ae672018590556000858152600f60205260409020805460ff191690911790555b6001600160a01b03851661174b576000848152600f60205260408120805460ff191690555b6010548110156117495784601082815481106116bb576116bb612b61565b90600052602060002001540361174157601080546116db90600190612b77565b815481106116eb576116eb612b61565b90600052602060002001546010828154811061170957611709612b61565b600091825260209091200155601080548061172657611726612b8a565b60019003818190600052602060002001600090559055611749565b60010161169d565b505b949350505050565b600061176260008360006115f9565b90506001600160a01b0381166105e357604051637e27328960e01b815260048101839052602401610691565b6001600160a01b0382166117b8576000604051633250574960e11b815260040161069191906123ac565b60006117c6838360006115f9565b90506001600160a01b038116156107b85760006040516339e3563760e11b815260040161069191906123ac565b606060108054806020026020016040519081016040528092919081815260200182805480156105b957602002820191906000526020600020905b81548152602001906001019080831161182d575050505050905090565b60606009600a600b60405160240161186493929190612c1d565b60408051601f198184030181529190526020810180516001600160e01b031663a6487c5360e01b179052919050565b60005460405163150b375f60e01b81526001600160a01b039091169063150b375f906118c790869086908690600401612c56565b6020604051808303816000875af11580156118e6573d6000803e3d6000fd5b505050506040513d601f19601f820116820180604052508101906106e19190612804565b600880546001600160a01b038381166001600160a01b0319831681179093556040519116919082907f8be0079c531659141344cd1fd0a4f28419497f9722a3daafe3b4186f6b6457e090600090a35050565b60006001600160a01b03831661197157600080fd5b6001600160a01b0383166000908152600d6020908152604080832085845290915290205460ff168015156001146119df5760405162461bcd60e51b81526020600482015260126024820152714e6f2066756e647320746f20756e6c6f636b60701b6044820152606401610691565b50506001600160a01b03919091166000908152600d6020908152604080832093835292905220805460ff19169055600190565b6107b883838360405180602001604052806000815250612046565b600154611a745760405162461bcd60e51b81526020600482015260156024820152742a37b5b2b7103737ba103932b3b4b9ba32b932b21760591b6044820152606401610691565b611a85866001548787878787612051565b505050505050565b6001600160a01b038216611ab65781604051630b61174360e31b815260040161069191906123ac565b6001600160a01b03838116600081815260076020908152604080832094871680845294825291829020805460ff191686151590811790915591519182527f17307eab39ab6107e8899845ad3d59bd9653f200f220920489ca2b5937696c31910160405180910390a3505050565b600060343610611b38575060331936013560601c5b90565b600060483610611b38575060471936013560601c90565b600060203610611b385750601f1936013590565b6001600160a01b0383163b156106e157604051630a85bd0160e11b81526001600160a01b0384169063150b7a0290611ba8903390889087908790600401612c89565b6020604051808303816000875af1925050508015611be3575060408051601f3d908101601f19168201909252611be091810190612cbc565b60015b611c43573d808015611c11576040519150601f19603f3d011682016040523d82523d6000602084013e611c16565b606091505b508051600003611c3b5783604051633250574960e11b815260040161069191906123ac565b805181602001fd5b6001600160e01b03198116630a85bd0160e11b14611c765783604051633250574960e11b815260040161069191906123ac565b5050505050565b6001600160a01b038216611c9057600080fd5b6001600160a01b039091166000908152600d6020908152604080832093835292905220805460ff19166001179055565b606060128054610540906126ff565b60606000611cdc836120d0565b60010190506000816001600160401b03811115611cfb57611cfb612520565b6040519080825280601f01601f191660200182016040528015611d25576020820181803683370190505b5090508181016020015b600019016f181899199a1a9b1b9c1cb0b131b232b360811b600a86061a8153600a8504945084611d2f57509392505050565b600060343610611b38575060331936013590565b600154611dd65760405162461bcd60e51b815260206004820152602960248201527f4f6e6c79207265676973746572207265736f75726365207768656e206974277360448201526808185c1c1c9bdd995960ba1b6064820152608401610691565b60005460015460405163d4f951c760e01b815260048101919091523060248201526001600160a01b039091169063d4f951c790604401600060405180830381600087803b158015611e2657600080fd5b505af11580156106e1573d6000803e3d6000fd5b6000908152600460205260409020546001600160a01b031690565b8080611e6957506001600160a01b03821615155b15611f22576000611e79846113a3565b90506001600160a01b03831615801590611ea55750826001600160a01b0316816001600160a01b031614155b8015611eb85750611eb68184611301565b155b15611ed8578260405163a9fbf51f60e01b815260040161069191906123ac565b8115611f205783856001600160a01b0316826001600160a01b03167f8c5be1e5ebec7d5bd14f71427d1e84f3dd0314c0f7b2291e5b200ac8c7c3b92560405160405180910390a45b505b5050600090815260066020526040902080546001600160a01b0319166001600160a01b0392909216919091179055565b600080611f5e84611e3a565b90506001600160a01b03831615611f7a57611f7a8184866121a6565b6001600160a01b03811615611fb857611f97600085600080611e55565b6001600160a01b038116600090815260056020526040902080546000190190555b6001600160a01b03851615611fe7576001600160a01b0385166000908152600560205260409020805460010190555b60008481526004602052604080822080546001600160a01b0319166001600160a01b0389811691821790925591518793918516917fddf252ad1be2c89b69c2b068fc378daa952ba7f163c4a11628f55a4df523b3ef91a4949350505050565b610fa78484846121fc565b600054604051631075c5d160e21b81526001600160a01b03909116906341d717449061208d908a908a908a908a908a908a908a90600401612cd9565b6020604051808303816000875af11580156120ac573d6000803e3d6000fd5b505050506040513d601f19601f82011682018060405250810190610f929190612804565b60008072184f03e93ff9f4daa797ed6e38ed64bf6a1f0160401b831061210f5772184f03e93ff9f4daa797ed6e38ed64bf6a1f0160401b830492506040015b6904ee2d6d415b85acef8160201b8310612139576904ee2d6d415b85acef8160201b830492506020015b662386f26fc10000831061215757662386f26fc10000830492506010015b6305f5e100831061216f576305f5e100830492506008015b612710831061218357612710830492506004015b60648310612195576064830492506002015b600a831061052b5760010192915050565b6121b1838383612298565b6107b8576001600160a01b0383166121df57604051637e27328960e01b815260048101829052602401610691565b818160405163177e802f60e01b81526004016106919291906129a4565b6001600160a01b038216612226576000604051633250574960e11b815260040161069191906123ac565b6000612234838360006115f9565b90506001600160a01b03811661226057604051637e27328960e01b815260048101839052602401610691565b836001600160a01b0316816001600160a01b0316146106e1578382826040516364283d7b60e01b815260040161069193929190612756565b60006001600160a01b0383161580159061174b5750826001600160a01b0316846001600160a01b031614806122d257506122d28484611301565b8061174b5750826001600160a01b03166122eb836113db565b6001600160a01b031614949350505050565b6001600160e01b03198116811461077d57600080fd5b60006020828403121561232557600080fd5b813561117c816122fd565b60005b8381101561234b578181015183820152602001612333565b50506000910152565b6000815180845261236c816020860160208601612330565b601f01601f19169290920160200192915050565b60208152600061117c6020830184612354565b6000602082840312156123a557600080fd5b5035919050565b6001600160a01b0391909116815260200190565b6001600160a01b038116811461077d57600080fd5b600080604083850312156123e857600080fd5b82356123f3816123c0565b946020939093013593505050565b6000806040838503121561241457600080fd5b8235600281106123f357600080fd5b60008060006060848603121561243857600080fd5b8335612443816123c0565b92506020840135612453816123c0565b929592945050506040919091013590565b60006020828403121561247657600080fd5b813560ff8116811461117c57600080fd5b60006020828403121561249957600080fd5b813561117c816123c0565b6000806000606084860312156124b957600080fd5b83356124c4816123c0565b95602085013595506040909401359392505050565b801515811461077d57600080fd5b600080604083850312156124fa57600080fd5b8235612505816123c0565b91506020830135612515816124d9565b809150509250929050565b634e487b7160e01b600052604160045260246000fd5b60006001600160401b038084111561255057612550612520565b604051601f8501601f19908116603f0116810190828211818310171561257857612578612520565b8160405280935085815286868601111561259157600080fd5b858560208301376000602087830101525050509392505050565b600082601f8301126125bc57600080fd5b61117c83833560208501612536565b6000806000606084860312156125e057600080fd5b83356001600160401b03808211156125f757600080fd5b612603878388016125ab565b9450602086013591508082111561261957600080fd5b612625878388016125ab565b9350604086013591508082111561263b57600080fd5b50612648868287016125ab565b9150509250925092565b6000806000806080858703121561266857600080fd5b8435612673816123c0565b93506020850135612683816123c0565b92506040850135915060608501356001600160401b038111156126a557600080fd5b8501601f810187136126b657600080fd5b6126c587823560208401612536565b91505092959194509250565b600080604083850312156126e457600080fd5b82356126ef816123c0565b91506020830135612515816123c0565b600181811c9082168061271357607f821691505b60208210810361273357634e487b7160e01b600052602260045260246000fd5b50919050565b60006020828403121561274b57600080fd5b815161117c816123c0565b6001600160a01b0393841681526020810192909252909116604082015260600190565b60006020828403121561278b57600080fd5b815161117c816124d9565b60208082526048908201527f5468697320697320612072656365697665206d6574686f642e204f6e6c79206560408201527f6e64706f696e742773206578656375746f722063616e2063616c6c20746869736060820152671036b2ba3437b21760c11b608082015260a00190565b60006020828403121561281657600080fd5b5051919050565b6020808252600d908201526c546f6b656e526567697374727960981b604082015260600190565b6020808252825182820181905260009190848201906040850190845b8181101561287c57835183529284019291840191600101612860565b50909695505050505050565b634e487b7160e01b600052602160045260246000fd5b600681106128ae576128ae612888565b9052565b60208152600082516101408060208501526128d1610160850183612354565b91506020850151601f19808685030160408701526128ef8483612354565b9350604087015191508086850301606087015261290c8483612354565b93506060870151608087015260808701519150808685030160a08701526129338483612354565b935060a08701519150808685030160c0870152506129518382612354565b92505060c085015161296760e086018215159052565b5060e085015161010061297c8187018361289e565b86015190506101206129918682018315159052565b9095015160ff1693019290925250919050565b6001600160a01b03929092168252602082015260400190565b601f8211156107b8576000816000526020600020601f850160051c810160208610156129e65750805b601f850160051c820191505b81811015611a85578281556001016129f2565b81516001600160401b03811115612a1e57612a1e612520565b612a3281612a2c84546126ff565b846129bd565b602080601f831160018114612a675760008415612a4f5750858301515b600019600386901b1c1916600185901b178555611a85565b600085815260208120601f198616915b82811015612a9657888601518255948401946001909101908401612a77565b5085821015612ab45787850151600019600388901b60f8161c191681555b5050505050600190811b01905550565b60008351612ad6818460208801612330565b835190830190612aea818360208801612330565b01949350505050565b634e487b7160e01b600052601160045260246000fd5b600060018201612b1b57612b1b612af3565b5060010190565b848152836020820152600060028410612b3d57612b3d612888565b83604083015260806060830152612b576080830184612354565b9695505050505050565b634e487b7160e01b600052603260045260246000fd5b8181038181111561052b5761052b612af3565b634e487b7160e01b600052603160045260246000fd5b60008154612bad816126ff565b808552602060018381168015612bca5760018114612be457612c12565b60ff1985168884015283151560051b880183019550612c12565b866000528260002060005b85811015612c0a5781548a8201860152908301908401612bef565b890184019650505b505050505092915050565b606081526000612c306060830186612ba0565b8281036020840152612c428186612ba0565b90508281036040840152612b578185612ba0565b8381526001600160a01b0383166020820152606060408201819052600090612c8090830184612354565b95945050505050565b6001600160a01b0385811682528416602082015260408101839052608060608201819052600090612b5790830184612354565b600060208284031215612cce57600080fd5b815161117c816122fd565b6000610180898352886020840152806040840152612cf981840189612354565b90508281036060840152612d0d8188612354565b90508281036080840152612d218187612354565b905082810360a0840152612d358186612354565b915050825160058110612d4a57612d4a612888565b60c0830152602083015160e083015260408301516001600160a01b039081166101008401526060840151811661012084015260808401511661014083015260a09092015161016090910152969550505050505056fea2646970667358221220ff55c90f9dcad8c17c7ef3c5df471d33825eab3652f5b339d19e8141ede5d7bc64736f6c63430008180033",
  "linkReferences": {},
  "deployedLinkReferences": {}
}