{
  "_format": "hh-sol-artifact-1",
  "contractName": "TeleportV1",
  "sourceName": "src/commitChain/Teleport/TeleportV1.sol",
  "abi": [
    {
      "inputs": [
        {
          "internalType": "address",
          "name": "target",
          "type": "address"
        }
      ],
      "name": "AddressEmptyCode",
      "type": "error"
    },
    {
      "inputs": [
        {
          "internalType": "address",
          "name": "implementation",
          "type": "address"
        }
      ],
      "name": "ERC1967InvalidImplementation",
      "type": "error"
    },
    {
      "inputs": [],
      "name": "ERC1967NonPayable",
      "type": "error"
    },
    {
      "inputs": [],
      "name": "FailedInnerCall",
      "type": "error"
    },
    {
      "inputs": [],
      "name": "InvalidInitialization",
      "type": "error"
    },
    {
      "inputs": [],
      "name": "NotInitializing",
      "type": "error"
    },
    {
      "inputs": [
        {
          "internalType": "address",
          "name": "owner",
          "type": "address"
        }
      ],
      "name": "OwnableInvalidOwner",
      "type": "error"
    },
    {
      "inputs": [
        {
          "internalType": "address",
          "name": "account",
          "type": "address"
        }
      ],
      "name": "OwnableUnauthorizedAccount",
      "type": "error"
    },
    {
      "inputs": [],
      "name": "UUPSUnauthorizedCallContext",
      "type": "error"
    },
    {
      "inputs": [
        {
          "internalType": "bytes32",
          "name": "slot",
          "type": "bytes32"
        }
      ],
      "name": "UUPSUnsupportedProxiableUUID",
      "type": "error"
    },
    {
      "anonymous": false,
      "inputs": [
        {
          "indexed": false,
          "internalType": "string[]",
          "name": "msgIds",
          "type": "string[]"
        },
        {
          "indexed": false,
          "internalType": "string",
          "name": "encryptedData",
          "type": "string"
        }
      ],
      "name": "AtomicMessageAdditionalDataBatch",
      "type": "event"
    },
    {
      "anonymous": false,
      "inputs": [
        {
          "indexed": false,
          "internalType": "string[]",
          "name": "msgIds",
          "type": "string[]"
        },
        {
          "indexed": false,
          "internalType": "enum Utils.MessageStatus",
          "name": "status",
          "type": "uint8"
        }
      ],
      "name": "AtomicMessageStatusChangedBatch",
      "type": "event"
    },
    {
      "anonymous": false,
      "inputs": [
        {
          "indexed": false,
          "internalType": "string[]",
          "name": "msgIds",
          "type": "string[]"
        },
        {
          "indexed": false,
          "internalType": "uint256",
          "name": "expirationTime",
          "type": "uint256"
        }
      ],
      "name": "AtomicMessageTeleportStartedBatch",
      "type": "event"
    },
    {
      "anonymous": false,
      "inputs": [
        {
          "indexed": false,
          "internalType": "string",
          "name": "print",
          "type": "string"
        },
        {
          "indexed": false,
          "internalType": "bytes",
          "name": "data",
          "type": "bytes"
        },
        {
          "indexed": true,
          "internalType": "uint256",
          "name": "blockNumber",
          "type": "uint256"
        }
      ],
      "name": "EncryptedDataBatchStored",
      "type": "event"
    },
    {
      "anonymous": false,
      "inputs": [
        {
          "indexed": false,
          "internalType": "uint64",
          "name": "version",
          "type": "uint64"
        }
      ],
      "name": "Initialized",
      "type": "event"
    },
    {
      "anonymous": false,
      "inputs": [
        {
          "indexed": true,
          "internalType": "address",
          "name": "previousOwner",
          "type": "address"
        },
        {
          "indexed": true,
          "internalType": "address",
          "name": "newOwner",
          "type": "address"
        }
      ],
      "name": "OwnershipTransferred",
      "type": "event"
    },
    {
      "anonymous": false,
      "inputs": [
        {
          "indexed": true,
          "internalType": "address",
          "name": "implementation",
          "type": "address"
        }
      ],
      "name": "Upgraded",
      "type": "event"
    },
    {
      "inputs": [
        {
          "internalType": "enum Utils.MessageStatus",
          "name": "",
          "type": "uint8"
        }
      ],
      "name": "AtomicStatus",
      "outputs": [
        {
          "internalType": "string",
          "name": "",
          "type": "string"
        }
      ],
      "stateMutability": "view",
      "type": "function"
    },
    {
      "inputs": [
        {
          "internalType": "string[]",
          "name": "msgIds",
          "type": "string[]"
        },
        {
          "internalType": "string",
          "name": "encryptedData_",
          "type": "string"
        }
      ],
      "name": "EmitAdditionalAtomicDataBatchFor",
      "outputs": [],
      "stateMutability": "nonpayable",
      "type": "function"
    },
    {
      "inputs": [],
      "name": "LOCK_TIME",
      "outputs": [
        {
          "internalType": "uint32",
          "name": "",
          "type": "uint32"
        }
      ],
      "stateMutability": "view",
      "type": "function"
    },
    {
      "inputs": [],
      "name": "UPGRADE_INTERFACE_VERSION",
      "outputs": [
        {
          "internalType": "string",
          "name": "",
          "type": "string"
        }
      ],
      "stateMutability": "view",
      "type": "function"
    },
    {
      "inputs": [
        {
          "internalType": "uint256",
          "name": "chainId",
          "type": "uint256"
        },
        {
          "components": [
            {
              "internalType": "string",
              "name": "parentHash",
              "type": "string"
            },
            {
              "internalType": "string",
              "name": "uncleHash",
              "type": "string"
            },
            {
              "internalType": "string",
              "name": "coinbase",
              "type": "string"
            },
            {
              "internalType": "string",
              "name": "stateRoot",
              "type": "string"
            },
            {
              "internalType": "string",
              "name": "transactionsRoot",
              "type": "string"
            },
            {
              "internalType": "string",
              "name": "receiptsRoot",
              "type": "string"
            },
            {
              "internalType": "bytes",
              "name": "logsBloom",
              "type": "bytes"
            },
            {
              "internalType": "uint256",
              "name": "difficulty",
              "type": "uint256"
            },
            {
              "internalType": "uint256",
              "name": "number",
              "type": "uint256"
            },
            {
              "internalType": "uint64",
              "name": "gasLimit",
              "type": "uint64"
            },
            {
              "internalType": "uint64",
              "name": "gasUsed",
              "type": "uint64"
            },
            {
              "internalType": "uint64",
              "name": "timestamp",
              "type": "uint64"
            },
            {
              "internalType": "uint8[]",
              "name": "extra",
              "type": "uint8[]"
            },
            {
              "internalType": "string",
              "name": "mixHash",
              "type": "string"
            },
            {
              "internalType": "bytes8",
              "name": "nonce",
              "type": "bytes8"
            },
            {
              "internalType": "string",
              "name": "_hash",
              "type": "string"
            }
          ],
          "internalType": "struct TeleportV1.Header",
          "name": "header",
          "type": "tuple"
        }
      ],
      "name": "addHeader",
      "outputs": [],
      "stateMutability": "nonpayable",
      "type": "function"
    },
    {
      "inputs": [
        {
          "internalType": "string",
          "name": "_hash",
          "type": "string"
        },
        {
          "components": [
            {
              "internalType": "string",
              "name": "parentHash",
              "type": "string"
            },
            {
              "internalType": "string",
              "name": "uncleHash",
              "type": "string"
            },
            {
              "internalType": "string",
              "name": "coinbase",
              "type": "string"
            },
            {
              "internalType": "string",
              "name": "stateRoot",
              "type": "string"
            },
            {
              "internalType": "string",
              "name": "transactionsRoot",
              "type": "string"
            },
            {
              "internalType": "string",
              "name": "receiptsRoot",
              "type": "string"
            },
            {
              "internalType": "bytes",
              "name": "logsBloom",
              "type": "bytes"
            },
            {
              "internalType": "uint256",
              "name": "difficulty",
              "type": "uint256"
            },
            {
              "internalType": "uint256",
              "name": "number",
              "type": "uint256"
            },
            {
              "internalType": "uint64",
              "name": "gasLimit",
              "type": "uint64"
            },
            {
              "internalType": "uint64",
              "name": "gasUsed",
              "type": "uint64"
            },
            {
              "internalType": "uint64",
              "name": "timestamp",
              "type": "uint64"
            },
            {
              "internalType": "uint8[]",
              "name": "extra",
              "type": "uint8[]"
            },
            {
              "internalType": "string",
              "name": "mixHash",
              "type": "string"
            },
            {
              "internalType": "bytes8",
              "name": "nonce",
              "type": "bytes8"
            },
            {
              "internalType": "string",
              "name": "_hash",
              "type": "string"
            }
          ],
          "internalType": "struct TeleportV1.Header",
          "name": "header",
          "type": "tuple"
        }
      ],
      "name": "addSingleHeader",
      "outputs": [],
      "stateMutability": "nonpayable",
      "type": "function"
    },
    {
      "inputs": [
        {
          "internalType": "string",
          "name": "",
          "type": "string"
        }
      ],
      "name": "atomicTeleportMessages",
      "outputs": [
        {
          "internalType": "uint256",
          "name": "startTime",
          "type": "uint256"
        },
        {
          "internalType": "uint256",
          "name": "expiration",
          "type": "uint256"
        },
        {
          "internalType": "enum Utils.MessageStatus",
          "name": "status",
          "type": "uint8"
        }
      ],
      "stateMutability": "view",
      "type": "function"
    },
    {
      "inputs": [],
      "name": "contractVersion",
      "outputs": [
        {
          "internalType": "uint256",
          "name": "",
          "type": "uint256"
        }
      ],
      "stateMutability": "pure",
      "type": "function"
    },
    {
      "inputs": [
        {
          "internalType": "string[]",
          "name": "msgIds",
          "type": "string[]"
        },
        {
          "internalType": "string",
          "name": "encryptedData_",
          "type": "string"
        }
      ],
      "name": "executeAtomicMessageBatch",
      "outputs": [],
      "stateMutability": "nonpayable",
      "type": "function"
    },
    {
      "inputs": [
        {
          "internalType": "string",
          "name": "msgId",
          "type": "string"
        }
      ],
      "name": "getAtomicMessage",
      "outputs": [
        {
          "components": [
            {
              "internalType": "uint256",
              "name": "startTime",
              "type": "uint256"
            },
            {
              "internalType": "uint256",
              "name": "expiration",
              "type": "uint256"
            },
            {
              "internalType": "enum Utils.MessageStatus",
              "name": "status",
              "type": "uint8"
            }
          ],
          "internalType": "struct TeleportV1.AtomicTeleportMessage",
          "name": "",
          "type": "tuple"
        }
      ],
      "stateMutability": "view",
      "type": "function"
    },
    {
      "inputs": [
        {
          "internalType": "string",
          "name": "msgId",
          "type": "string"
        }
      ],
      "name": "getAtomicMessageExpiration",
      "outputs": [
        {
          "internalType": "uint256",
          "name": "",
          "type": "uint256"
        }
      ],
      "stateMutability": "view",
      "type": "function"
    },
    {
      "inputs": [
        {
          "internalType": "string",
          "name": "msgId",
          "type": "string"
        }
      ],
      "name": "getAtomicMessageStatus",
      "outputs": [
        {
          "internalType": "string",
          "name": "",
          "type": "string"
        }
      ],
      "stateMutability": "view",
      "type": "function"
    },
    {
      "inputs": [
        {
          "internalType": "string[]",
          "name": "msgIds",
          "type": "string[]"
        }
      ],
      "name": "getAtomicMessageStatuses",
      "outputs": [
        {
          "components": [
            {
              "internalType": "string",
              "name": "msgId",
              "type": "string"
            },
            {
              "internalType": "string",
              "name": "status",
              "type": "string"
            }
          ],
          "internalType": "struct TeleportV1.MessageStatusResult[]",
          "name": "",
          "type": "tuple[]"
        }
      ],
      "stateMutability": "view",
      "type": "function"
    },
    {
      "inputs": [
        {
          "internalType": "uint256",
          "name": "chainId",
          "type": "uint256"
        }
      ],
      "name": "getHeaders",
      "outputs": [
        {
          "components": [
            {
              "internalType": "string",
              "name": "parentHash",
              "type": "string"
            },
            {
              "internalType": "string",
              "name": "uncleHash",
              "type": "string"
            },
            {
              "internalType": "string",
              "name": "coinbase",
              "type": "string"
            },
            {
              "internalType": "string",
              "name": "stateRoot",
              "type": "string"
            },
            {
              "internalType": "string",
              "name": "transactionsRoot",
              "type": "string"
            },
            {
              "internalType": "string",
              "name": "receiptsRoot",
              "type": "string"
            },
            {
              "internalType": "bytes",
              "name": "logsBloom",
              "type": "bytes"
            },
            {
              "internalType": "uint256",
              "name": "difficulty",
              "type": "uint256"
            },
            {
              "internalType": "uint256",
              "name": "number",
              "type": "uint256"
            },
            {
              "internalType": "uint64",
              "name": "gasLimit",
              "type": "uint64"
            },
            {
              "internalType": "uint64",
              "name": "gasUsed",
              "type": "uint64"
            },
            {
              "internalType": "uint64",
              "name": "timestamp",
              "type": "uint64"
            },
            {
              "internalType": "uint8[]",
              "name": "extra",
              "type": "uint8[]"
            },
            {
              "internalType": "string",
              "name": "mixHash",
              "type": "string"
            },
            {
              "internalType": "bytes8",
              "name": "nonce",
              "type": "bytes8"
            },
            {
              "internalType": "string",
              "name": "_hash",
              "type": "string"
            }
          ],
          "internalType": "struct TeleportV1.Header[]",
          "name": "header",
          "type": "tuple[]"
        }
      ],
      "stateMutability": "view",
      "type": "function"
    },
    {
      "inputs": [
        {
          "internalType": "string",
          "name": "_hash",
          "type": "string"
        }
      ],
      "name": "getSingleHeader",
      "outputs": [
        {
          "components": [
            {
              "internalType": "string",
              "name": "parentHash",
              "type": "string"
            },
            {
              "internalType": "string",
              "name": "uncleHash",
              "type": "string"
            },
            {
              "internalType": "string",
              "name": "coinbase",
              "type": "string"
            },
            {
              "internalType": "string",
              "name": "stateRoot",
              "type": "string"
            },
            {
              "internalType": "string",
              "name": "transactionsRoot",
              "type": "string"
            },
            {
              "internalType": "string",
              "name": "receiptsRoot",
              "type": "string"
            },
            {
              "internalType": "bytes",
              "name": "logsBloom",
              "type": "bytes"
            },
            {
              "internalType": "uint256",
              "name": "difficulty",
              "type": "uint256"
            },
            {
              "internalType": "uint256",
              "name": "number",
              "type": "uint256"
            },
            {
              "internalType": "uint64",
              "name": "gasLimit",
              "type": "uint64"
            },
            {
              "internalType": "uint64",
              "name": "gasUsed",
              "type": "uint64"
            },
            {
              "internalType": "uint64",
              "name": "timestamp",
              "type": "uint64"
            },
            {
              "internalType": "uint8[]",
              "name": "extra",
              "type": "uint8[]"
            },
            {
              "internalType": "string",
              "name": "mixHash",
              "type": "string"
            },
            {
              "internalType": "bytes8",
              "name": "nonce",
              "type": "bytes8"
            },
            {
              "internalType": "string",
              "name": "_hash",
              "type": "string"
            }
          ],
          "internalType": "struct TeleportV1.Header",
          "name": "header",
          "type": "tuple"
        }
      ],
      "stateMutability": "view",
      "type": "function"
    },
    {
      "inputs": [
        {
          "internalType": "address",
          "name": "initialOwner",
          "type": "address"
        }
      ],
      "name": "initialize",
      "outputs": [],
      "stateMutability": "nonpayable",
      "type": "function"
    },
    {
      "inputs": [],
      "name": "owner",
      "outputs": [
        {
          "internalType": "address",
          "name": "",
          "type": "address"
        }
      ],
      "stateMutability": "view",
      "type": "function"
    },
    {
      "inputs": [],
      "name": "proxiableUUID",
      "outputs": [
        {
          "internalType": "bytes32",
          "name": "",
          "type": "bytes32"
        }
      ],
      "stateMutability": "view",
      "type": "function"
    },
    {
      "inputs": [],
      "name": "renounceOwnership",
      "outputs": [],
      "stateMutability": "nonpayable",
      "type": "function"
    },
    {
      "inputs": [
        {
          "internalType": "string[]",
          "name": "msgIds",
          "type": "string[]"
        },
        {
          "internalType": "string",
          "name": "encryptedData_",
          "type": "string"
        }
      ],
      "name": "revertAtomicMessageBatch",
      "outputs": [],
      "stateMutability": "nonpayable",
      "type": "function"
    },
    {
      "inputs": [
        {
          "internalType": "string[]",
          "name": "msgIds",
          "type": "string[]"
        }
      ],
      "name": "storeAtomicMessageBatch",
      "outputs": [],
      "stateMutability": "nonpayable",
      "type": "function"
    },
    {
      "inputs": [
        {
          "components": [
            {
              "internalType": "string",
              "name": "batchId",
              "type": "string"
            },
            {
              "internalType": "string",
              "name": "fingerprint",
              "type": "string"
            },
            {
              "internalType": "bytes",
              "name": "data",
              "type": "bytes"
            },
            {
              "internalType": "string[]",
              "name": "sharedIds",
              "type": "string[]"
            }
          ],
          "internalType": "struct TeleportV1.dataBatch",
          "name": "batch",
          "type": "tuple"
        },
        {
          "internalType": "uint256",
          "name": "blockNumber",
          "type": "uint256"
        }
      ],
      "name": "storeEncryptedDataBatch",
      "outputs": [],
      "stateMutability": "nonpayable",
      "type": "function"
    },
    {
      "inputs": [
        {
          "internalType": "address",
          "name": "newOwner",
          "type": "address"
        }
      ],
      "name": "transferOwnership",
      "outputs": [],
      "stateMutability": "nonpayable",
      "type": "function"
    },
    {
      "inputs": [
        {
          "internalType": "address",
          "name": "newImplementation",
          "type": "address"
        },
        {
          "internalType": "bytes",
          "name": "data",
          "type": "bytes"
        }
      ],
      "name": "upgradeToAndCall",
      "outputs": [],
      "stateMutability": "payable",
      "type": "function"
    }
  ],
  "bytecode": "0x60a06040523060805234801561001457600080fd5b5060805161350961003e600039600081816120650152818161208e01526121cb01526135096000f3fe60806040526004361061012b5760003560e01c806381a544b0116100a657806381a544b0146102fa5780638da5cb5b1461031a57806393af0e791461033c5780639e5c688714610369578063a0a8e46014610389578063a78c5f6b1461039d578063a9ddbc6c146103bd578063ad3cb1cc146103ea578063bcecda0b1461041b578063c4d66de814610448578063e2b7341c14610468578063f2fde38b1461049557600080fd5b80631b7cebb0146101305780633fba845714610166578063413d9c3a146101885780634f1ef286146101b2578063527b5ba4146101c557806352d1902d146101e557806359b39eb3146102085780635f3f9fa2146102285780636207b10f14610248578063684364c5146102685780636d4f53bf146102c5578063715018a6146102e5575b600080fd5b34801561013c57600080fd5b5061015061014b3660046125f1565b6104b5565b60405161015d9190612662565b60405180910390f35b34801561017257600080fd5b50610186610181366004612a18565b61054f565b005b34801561019457600080fd5b5061019d60f081565b60405163ffffffff909116815260200161015d565b6101866101c0366004612a75565b6106e2565b3480156101d157600080fd5b506101866101e0366004612b44565b610701565b3480156101f157600080fd5b506101fa610874565b60405190815260200161015d565b34801561021457600080fd5b50610186610223366004612baf565b610891565b34801561023457600080fd5b506101fa610243366004612bf0565b61095a565b34801561025457600080fd5b50610186610263366004612b44565b610989565b34801561027457600080fd5b506102b6610283366004612c25565b80516020818301810180516002808352938301929094019190912092905281546001830154929091015490919060ff1683565b60405161015d93929190612c99565b3480156102d157600080fd5b506101866102e0366004612cb4565b610a82565b3480156102f157600080fd5b50610186610c14565b34801561030657600080fd5b50610186610315366004612d1c565b610c28565b34801561032657600080fd5b5061032f610ca7565b60405161015d9190612d65565b34801561034857600080fd5b5061035c610357366004612baf565b610cc2565b60405161015d9190612d79565b34801561037557600080fd5b50610186610384366004612b44565b610ed4565b34801561039557600080fd5b5060016101fa565b3480156103a957600080fd5b506101506103b8366004612bf0565b610f09565b3480156103c957600080fd5b506103dd6103d8366004612bf0565b610ffd565b60405161015d9190612e00565b3480156103f657600080fd5b50610150604051806040016040528060058152602001640352e302e360dc1b81525081565b34801561042757600080fd5b5061043b610436366004612bf0565b611078565b60405161015d9190612ffc565b34801561045457600080fd5b5061018661046336600461300f565b611750565b34801561047457600080fd5b5061048861048336600461302a565b6119b3565b60405161015d9190613043565b3480156104a157600080fd5b506101866104b036600461300f565b61201c565b600360205260009081526040902080546104ce906130a7565b80601f01602080910402602001604051908101604052809291908181526020018280546104fa906130a7565b80156105475780601f1061051c57610100808354040283529160200191610547565b820191906000526020600020905b81548152906001019060200180831161052a57829003601f168201915b505050505081565b60008281526020818152604082208054600181018255908352912082518392600e029091019081906105819082613129565b50602082015160018201906105969082613129565b50604082015160028201906105ab9082613129565b50606082015160038201906105c09082613129565b50608082015160048201906105d59082613129565b5060a082015160058201906105ea9082613129565b5060c082015160068201906105ff9082613129565b5060e0820151600782015561010082015160088201556101208201516009820180546101408501516101608601516001600160401b03908116600160801b0267ffffffffffffffff60801b19928216600160401b026001600160801b031990941691909516179190911716919091179055610180820151805161068c91600a840191602090910190612505565b506101a0820151600b8201906106a29082613129565b506101c0820151600c8201805467ffffffffffffffff191660c09290921c9190911790556101e0820151600d8201906106db9082613129565b5050505050565b6106ea61205a565b6106f3826120ff565b6106fd8282612107565b5050565b60005b838110156107f45760006002868684818110610722576107226131e8565b905060200281019061073491906131fe565b604051610742929190613244565b90815260405190819003602001902090506000600282015460ff16600381111561076e5761076e612c61565b036107875760028101805460ff191660031790556107eb565b858583818110610799576107996131e8565b90506020028101906107ab91906131fe565b6040516020016107bc929190613254565b60408051601f198184030181529082905262461bcd60e51b82526107e291600401612662565b60405180910390fd5b50600101610704565b507f0a079e8171ea2dbacfc57c51cb1fb78489174c86bcd39996544f0610097ef0e68484600360405161082993929190613348565b60405180910390a17f18d8bb075a439b4a2738dee36600ab0f7173274ffb2af5221ba46c73366206f784848484604051610866949392919061336b565b60405180910390a150505050565b600061087e6121c0565b506000805160206134b483398151915290565b60005b8181101561091057600060028484848181106108b2576108b26131e8565b90506020028101906108c491906131fe565b6040516108d2929190613244565b908152604051908190036020019020428082559091506108f49060f090613392565b6001828101919091556002909101805460ff1916905501610894565b507f8af973b0c569dcf8e0e92e36ec4cd4087cd228a600224273333c2c810505f1d2828261093f60f042613392565b60405161094e939291906133b3565b60405180910390a15050565b60006002838360405161096e929190613244565b90815260200160405180910390206001015490505b92915050565b60005b83811015610a4d57600060028686848181106109aa576109aa6131e8565b90506020028101906109bc91906131fe565b6040516109ca929190613244565b90815260405190819003602001902090506000600282015460ff1660038111156109f6576109f6612c61565b03610a0f5760028101805460ff19166001179055610a44565b858583818110610a2157610a216131e8565b9050602002810190610a3391906131fe565b6040516020016107bc9291906133d7565b5060010161098c565b507f0a079e8171ea2dbacfc57c51cb1fb78489174c86bcd39996544f0610097ef0e68484600160405161082993929190613348565b8060018484604051610a95929190613244565b90815260405190819003602001902081518190610ab29082613129565b5060208201516001820190610ac79082613129565b5060408201516002820190610adc9082613129565b5060608201516003820190610af19082613129565b5060808201516004820190610b069082613129565b5060a08201516005820190610b1b9082613129565b5060c08201516006820190610b309082613129565b5060e0820151600782015561010082015160088201556101208201516009820180546101408501516101608601516001600160401b03908116600160801b0267ffffffffffffffff60801b19928216600160401b026001600160801b0319909416919095161791909117169190911790556101808201518051610bbd91600a840191602090910190612505565b506101a0820151600b820190610bd39082613129565b506101c0820151600c8201805467ffffffffffffffff191660c09290921c9190911790556101e0820151600d820190610c0c9082613129565b505050505050565b610c1c612209565b610c26600061223b565b565b6000610c376060840184613421565b90501115610c4f57610c4f6102236060840184613421565b807f45f220317ad141350388cc53178ad392ce858a35c4019e7be288a9eeb21120e0610c7e60208501856131fe565b610c8b60408701876131fe565b604051610c9b949392919061346a565b60405180910390a25050565b600080610cb2612297565b546001600160a01b031692915050565b60606000826001600160401b03811115610cde57610cde612675565b604051908082528060200260200182016040528015610d2357816020015b6040805180820190915260608082526020820152815260200190600190039081610cfc5790505b50905060005b83811015610ecc5760006002868684818110610d4757610d476131e8565b9050602002810190610d5991906131fe565b604051610d67929190613244565b908152604080519182900360200182206002015482820190915260ff16915080878785818110610d9957610d996131e8565b9050602002810190610dab91906131fe565b8080601f01602080910402602001604051908101604052809392919081815260200183838082843760009201829052509385525050602090920191506003908482811115610dfb57610dfb612c61565b6003811115610e0c57610e0c612c61565b81526020019081526020016000208054610e25906130a7565b80601f0160208091040260200160405190810160405280929190818152602001828054610e51906130a7565b8015610e9e5780601f10610e7357610100808354040283529160200191610e9e565b820191906000526020600020905b815481529060010190602001808311610e8157829003601f168201915b5050505050815250838381518110610eb857610eb86131e8565b602090810291909101015250600101610d29565b509392505050565b7f18d8bb075a439b4a2738dee36600ab0f7173274ffb2af5221ba46c73366206f784848484604051610866949392919061336b565b6060600060028484604051610f1f929190613244565b9081526040519081900360200190206002015460ff169050600360008282811115610f4c57610f4c612c61565b6003811115610f5d57610f5d612c61565b81526020019081526020016000208054610f76906130a7565b80601f0160208091040260200160405190810160405280929190818152602001828054610fa2906130a7565b8015610fef5780601f10610fc457610100808354040283529160200191610fef565b820191906000526020600020905b815481529060010190602001808311610fd257829003601f168201915b505050505091505092915050565b6110056125ab565b60028383604051611017929190613244565b908152604080519182900360209081018320606084018352805484526001810154918401919091526002810154909183019060ff16600381111561105d5761105d612c61565b600381111561106e5761106e612c61565b9052509392505050565b61111d60405180610200016040528060608152602001606081526020016060815260200160608152602001606081526020016060815260200160608152602001600081526020016000815260200160006001600160401b0316815260200160006001600160401b0316815260200160006001600160401b03168152602001606081526020016060815260200160006001600160c01b0319168152602001606081525090565b6001838360405161112f929190613244565b908152602001604051809103902060405180610200016040529081600082018054611159906130a7565b80601f0160208091040260200160405190810160405280929190818152602001828054611185906130a7565b80156111d25780601f106111a7576101008083540402835291602001916111d2565b820191906000526020600020905b8154815290600101906020018083116111b557829003601f168201915b505050505081526020016001820180546111eb906130a7565b80601f0160208091040260200160405190810160405280929190818152602001828054611217906130a7565b80156112645780601f1061123957610100808354040283529160200191611264565b820191906000526020600020905b81548152906001019060200180831161124757829003601f168201915b5050505050815260200160028201805461127d906130a7565b80601f01602080910402602001604051908101604052809291908181526020018280546112a9906130a7565b80156112f65780601f106112cb576101008083540402835291602001916112f6565b820191906000526020600020905b8154815290600101906020018083116112d957829003601f168201915b5050505050815260200160038201805461130f906130a7565b80601f016020809104026020016040519081016040528092919081815260200182805461133b906130a7565b80156113885780601f1061135d57610100808354040283529160200191611388565b820191906000526020600020905b81548152906001019060200180831161136b57829003601f168201915b505050505081526020016004820180546113a1906130a7565b80601f01602080910402602001604051908101604052809291908181526020018280546113cd906130a7565b801561141a5780601f106113ef5761010080835404028352916020019161141a565b820191906000526020600020905b8154815290600101906020018083116113fd57829003601f168201915b50505050508152602001600582018054611433906130a7565b80601f016020809104026020016040519081016040528092919081815260200182805461145f906130a7565b80156114ac5780601f10611481576101008083540402835291602001916114ac565b820191906000526020600020905b81548152906001019060200180831161148f57829003601f168201915b505050505081526020016006820180546114c5906130a7565b80601f01602080910402602001604051908101604052809291908181526020018280546114f1906130a7565b801561153e5780601f106115135761010080835404028352916020019161153e565b820191906000526020600020905b81548152906001019060200180831161152157829003601f168201915b50505091835250506007820154602080830191909152600883015460408084019190915260098401546001600160401b038082166060860152600160401b820481166080860152600160801b9091041660a0840152600a8401805482518185028101850190935280835260c090940193919290919083018282801561160057602002820191906000526020600020906000905b825461010083900a900460ff168152602060019283018181049485019490930390920291018084116115d15790505b50505050508152602001600b82018054611619906130a7565b80601f0160208091040260200160405190810160405280929190818152602001828054611645906130a7565b80156116925780601f1061166757610100808354040283529160200191611692565b820191906000526020600020905b81548152906001019060200180831161167557829003601f168201915b5050509183525050600c82015460c01b6001600160c01b0319166020820152600d820180546040909201916116c6906130a7565b80601f01602080910402602001604051908101604052809291908181526020018280546116f2906130a7565b801561173f5780601f106117145761010080835404028352916020019161173f565b820191906000526020600020905b81548152906001019060200180831161172257829003601f168201915b505050505081525050905092915050565b600061175a6122bb565b805490915060ff600160401b82041615906001600160401b03166000811580156117815750825b90506000826001600160401b0316600114801561179d5750303b155b9050811580156117ab575080155b156117c95760405163f92ee8a960e01b815260040160405180910390fd5b845467ffffffffffffffff1916600117855583156117f357845460ff60401b1916600160401b1785555b6117fc866122df565b6118046122f0565b60408051808201909152600781526650656e64696e6760c81b60208083019190915260008052600390527f3617319a054d772f909f7c479a2cebe5066e836a939412e32403c99029b92eff9061185a9082613129565b50604080518082019091526008815267115e1958dd5d195960c21b6020808301919091526001600052600390527fa15bc60c955c405d20d9149c709e2460f1c2d9a497496a7f46004d1772c3054c906118b39082613129565b5060408051808201909152600881526714995a9958dd195960c21b6020808301919091526002600052600390527fc3a24b0501bd2c13a7e57f2db4369ec4c223447539fc0724a9d55ac4a06ebd4d9061190c9082613129565b5060408051808201909152600881526714995d995c9d195960c21b6020808301919091526003600081905290527fcbc4e5fb02c3d1de23a9f1e014b4d2ee5aeaea9505df5e855c9210bf472495af906119659082613129565b508315610c0c57845460ff60401b19168555604051600181527fc7f505b2f371ae2175ee4913f4499e1f2633a7b5936321eed1cdaeb6115181d29060200160405180910390a1505050505050565b600081815260208181526040808320805482518185028101850190935280835260609492939192909184015b8282101561201157838290600052602060002090600e020160405180610200016040529081600082018054611a13906130a7565b80601f0160208091040260200160405190810160405280929190818152602001828054611a3f906130a7565b8015611a8c5780601f10611a6157610100808354040283529160200191611a8c565b820191906000526020600020905b815481529060010190602001808311611a6f57829003601f168201915b50505050508152602001600182018054611aa5906130a7565b80601f0160208091040260200160405190810160405280929190818152602001828054611ad1906130a7565b8015611b1e5780601f10611af357610100808354040283529160200191611b1e565b820191906000526020600020905b815481529060010190602001808311611b0157829003601f168201915b50505050508152602001600282018054611b37906130a7565b80601f0160208091040260200160405190810160405280929190818152602001828054611b63906130a7565b8015611bb05780601f10611b8557610100808354040283529160200191611bb0565b820191906000526020600020905b815481529060010190602001808311611b9357829003601f168201915b50505050508152602001600382018054611bc9906130a7565b80601f0160208091040260200160405190810160405280929190818152602001828054611bf5906130a7565b8015611c425780601f10611c1757610100808354040283529160200191611c42565b820191906000526020600020905b815481529060010190602001808311611c2557829003601f168201915b50505050508152602001600482018054611c5b906130a7565b80601f0160208091040260200160405190810160405280929190818152602001828054611c87906130a7565b8015611cd45780601f10611ca957610100808354040283529160200191611cd4565b820191906000526020600020905b815481529060010190602001808311611cb757829003601f168201915b50505050508152602001600582018054611ced906130a7565b80601f0160208091040260200160405190810160405280929190818152602001828054611d19906130a7565b8015611d665780601f10611d3b57610100808354040283529160200191611d66565b820191906000526020600020905b815481529060010190602001808311611d4957829003601f168201915b50505050508152602001600682018054611d7f906130a7565b80601f0160208091040260200160405190810160405280929190818152602001828054611dab906130a7565b8015611df85780601f10611dcd57610100808354040283529160200191611df8565b820191906000526020600020905b815481529060010190602001808311611ddb57829003601f168201915b50505091835250506007820154602080830191909152600883015460408084019190915260098401546001600160401b038082166060860152600160401b820481166080860152600160801b9091041660a0840152600a8401805482518185028101850190935280835260c0909401939192909190830182828015611eba57602002820191906000526020600020906000905b825461010083900a900460ff16815260206001928301818104948501949093039092029101808411611e8b5790505b50505050508152602001600b82018054611ed3906130a7565b80601f0160208091040260200160405190810160405280929190818152602001828054611eff906130a7565b8015611f4c5780601f10611f2157610100808354040283529160200191611f4c565b820191906000526020600020905b815481529060010190602001808311611f2f57829003601f168201915b5050509183525050600c82015460c01b6001600160c01b0319166020820152600d82018054604090920191611f80906130a7565b80601f0160208091040260200160405190810160405280929190818152602001828054611fac906130a7565b8015611ff95780601f10611fce57610100808354040283529160200191611ff9565b820191906000526020600020905b815481529060010190602001808311611fdc57829003601f168201915b505050505081525050815260200190600101906119df565b505050509050919050565b612024612209565b6001600160a01b03811661204e576000604051631e4fbdf760e01b81526004016107e29190612d65565b6120578161223b565b50565b306001600160a01b037f00000000000000000000000000000000000000000000000000000000000000001614806120e157507f00000000000000000000000000000000000000000000000000000000000000006001600160a01b03166120d56000805160206134b4833981519152546001600160a01b031690565b6001600160a01b031614155b15610c265760405163703e46dd60e11b815260040160405180910390fd5b612057612209565b816001600160a01b03166352d1902d6040518163ffffffff1660e01b8152600401602060405180830381865afa925050508015612161575060408051601f3d908101601f1916820190925261215e9181019061347e565b60015b6121805781604051634c9c8ce360e01b81526004016107e29190612d65565b6000805160206134b483398151915281146121b157604051632a87526960e21b8152600481018290526024016107e2565b6121bb83836122f8565b505050565b306001600160a01b037f00000000000000000000000000000000000000000000000000000000000000001614610c265760405163703e46dd60e11b815260040160405180910390fd5b33612212610ca7565b6001600160a01b031614610c26573360405163118cdaa760e01b81526004016107e29190612d65565b6000612245612297565b80546001600160a01b038481166001600160a01b031983168117845560405193945091169182907f8be0079c531659141344cd1fd0a4f28419497f9722a3daafe3b4186f6b6457e090600090a3505050565b7f9016d09d72d40fdae2fd8ceac6b6234c7706214fd39c1cd1e609a0528c19930090565b7ff0c57e16840df040f15088dc2f81fe391c3923bec73e23a9662efc9c229c6a0090565b6122e761234e565b61205781612373565b610c2661234e565b6123018261237b565b6040516001600160a01b038316907fbc7cd75a20ee27fd9adebab32041f755214dbc6bffa90cc0225b39da2e5c2d3b90600090a2805115612346576121bb82826123d7565b6106fd61244d565b61235661246c565b610c2657604051631afcd79f60e31b815260040160405180910390fd5b61202461234e565b806001600160a01b03163b6000036123a85780604051634c9c8ce360e01b81526004016107e29190612d65565b6000805160206134b483398151915280546001600160a01b0319166001600160a01b0392909216919091179055565b6060600080846001600160a01b0316846040516123f49190613497565b600060405180830381855af49150503d806000811461242f576040519150601f19603f3d011682016040523d82523d6000602084013e612434565b606091505b5091509150612444858383612486565b95945050505050565b3415610c265760405163b398979f60e01b815260040160405180910390fd5b60006124766122bb565b54600160401b900460ff16919050565b60608261249b57612496826124dc565b6124d5565b81511580156124b257506001600160a01b0384163b155b156124d25783604051639996b31560e01b81526004016107e29190612d65565b50805b9392505050565b8051156124ec5780518082602001fd5b604051630a12f52160e11b815260040160405180910390fd5b82805482825590600052602060002090601f0160209004810192821561259b5791602002820160005b8382111561256c57835183826101000a81548160ff021916908360ff160217905550926020019260010160208160000104928301926001030261252e565b80156125995782816101000a81549060ff021916905560010160208160000104928301926001030261256c565b505b506125a79291506125dc565b5090565b60405180606001604052806000815260200160008152602001600060038111156125d7576125d7612c61565b905290565b5b808211156125a757600081556001016125dd565b60006020828403121561260357600080fd5b8135600481106124d557600080fd5b60005b8381101561262d578181015183820152602001612615565b50506000910152565b6000815180845261264e816020860160208601612612565b601f01601f19169290920160200192915050565b6020815260006124d56020830184612636565b634e487b7160e01b600052604160045260246000fd5b60405161020081016001600160401b03811182821017156126ae576126ae612675565b60405290565b604051601f8201601f191681016001600160401b03811182821017156126dc576126dc612675565b604052919050565b600082601f8301126126f557600080fd5b81356001600160401b0381111561270e5761270e612675565b612721601f8201601f19166020016126b4565b81815284602083860101111561273657600080fd5b816020850160208301376000918101602001919091529392505050565b80356001600160401b038116811461276a57600080fd5b919050565b600082601f83011261278057600080fd5b813560206001600160401b0382111561279b5761279b612675565b8160051b6127aa8282016126b4565b92835284810182019282810190878511156127c457600080fd5b83870192505b848310156127f357823560ff811681146127e45760008081fd5b825291830191908301906127ca565b979650505050505050565b80356001600160c01b03198116811461276a57600080fd5b6000610200828403121561282957600080fd5b61283161268b565b905081356001600160401b038082111561284a57600080fd5b612856858386016126e4565b8352602084013591508082111561286c57600080fd5b612878858386016126e4565b6020840152604084013591508082111561289157600080fd5b61289d858386016126e4565b604084015260608401359150808211156128b657600080fd5b6128c2858386016126e4565b606084015260808401359150808211156128db57600080fd5b6128e7858386016126e4565b608084015260a084013591508082111561290057600080fd5b61290c858386016126e4565b60a084015260c084013591508082111561292557600080fd5b612931858386016126e4565b60c084015260e084810135908401526101008085013590840152610120915061295b828501612753565b82840152610140915061296f828501612753565b828401526101609150612983828501612753565b828401526101809150818401358181111561299d57600080fd5b6129a98682870161276f565b83850152506101a0915081840135818111156129c457600080fd5b6129d0868287016126e4565b83850152506101c091506129e58285016127fe565b828401526101e0915081840135818111156129ff57600080fd5b612a0b868287016126e4565b8385015250505092915050565b60008060408385031215612a2b57600080fd5b8235915060208301356001600160401b03811115612a4857600080fd5b612a5485828601612816565b9150509250929050565b80356001600160a01b038116811461276a57600080fd5b60008060408385031215612a8857600080fd5b612a9183612a5e565b915060208301356001600160401b03811115612aac57600080fd5b612a54858286016126e4565b60008083601f840112612aca57600080fd5b5081356001600160401b03811115612ae157600080fd5b6020830191508360208260051b8501011115612afc57600080fd5b9250929050565b60008083601f840112612b1557600080fd5b5081356001600160401b03811115612b2c57600080fd5b602083019150836020828501011115612afc57600080fd5b60008060008060408587031215612b5a57600080fd5b84356001600160401b0380821115612b7157600080fd5b612b7d88838901612ab8565b90965094506020870135915080821115612b9657600080fd5b50612ba387828801612b03565b95989497509550505050565b60008060208385031215612bc257600080fd5b82356001600160401b03811115612bd857600080fd5b612be485828601612ab8565b90969095509350505050565b60008060208385031215612c0357600080fd5b82356001600160401b03811115612c1957600080fd5b612be485828601612b03565b600060208284031215612c3757600080fd5b81356001600160401b03811115612c4d57600080fd5b612c59848285016126e4565b949350505050565b634e487b7160e01b600052602160045260246000fd5b60048110612c9557634e487b7160e01b600052602160045260246000fd5b9052565b8381526020810183905260608101612c596040830184612c77565b600080600060408486031215612cc957600080fd5b83356001600160401b0380821115612ce057600080fd5b612cec87838801612b03565b90955093506020860135915080821115612d0557600080fd5b50612d1286828701612816565b9150509250925092565b60008060408385031215612d2f57600080fd5b82356001600160401b03811115612d4557600080fd5b830160808186031215612d5757600080fd5b946020939093013593505050565b6001600160a01b0391909116815260200190565b600060208083018184528085518083526040925060408601915060408160051b87010184880160005b83811015612df257888303603f1901855281518051878552612dc688860182612636565b91890151858303868b0152919050612dde8183612636565b968901969450505090860190600101612da2565b509098975050505050505050565b600060608201905082518252602083015160208301526040830151612e286040840182612c77565b5092915050565b60008151808452602080850194506020840160005b83811015612e6357815160ff1687529582019590820190600101612e44565b509495945050505050565b60006102008251818552612e8482860182612636565b91505060208301518482036020860152612e9e8282612636565b91505060408301518482036040860152612eb88282612636565b91505060608301518482036060860152612ed28282612636565b91505060808301518482036080860152612eec8282612636565b91505060a083015184820360a0860152612f068282612636565b91505060c083015184820360c0860152612f208282612636565b91505060e083015160e085015261010080840151818601525061012080840151612f54828701826001600160401b03169052565b5050610140838101516001600160401b038116868301525050610160838101516001600160401b0381168683015250506101808084015185830382870152612f9c8382612e2f565b925050506101a08084015185830382870152612fb88382612636565b925050506101c080840151612fd8828701826001600160c01b0319169052565b50506101e08084015185830382870152612ff28382612636565b9695505050505050565b6020815260006124d56020830184612e6e565b60006020828403121561302157600080fd5b6124d582612a5e565b60006020828403121561303c57600080fd5b5035919050565b600060208083016020845280855180835260408601915060408160051b87010192506020870160005b8281101561309a57603f19888603018452613088858351612e6e565b9450928501929085019060010161306c565b5092979650505050505050565b600181811c908216806130bb57607f821691505b6020821081036130db57634e487b7160e01b600052602260045260246000fd5b50919050565b601f8211156121bb576000816000526020600020601f850160051c8101602086101561310a5750805b601f850160051c820191505b81811015610c0c57828155600101613116565b81516001600160401b0381111561314257613142612675565b6131568161315084546130a7565b846130e1565b602080601f83116001811461318b57600084156131735750858301515b600019600386901b1c1916600185901b178555610c0c565b600085815260208120601f198616915b828110156131ba5788860151825594840194600190910190840161319b565b50858210156131d85787850151600019600388901b60f8161c191681555b5050505050600190811b01905550565b634e487b7160e01b600052603260045260246000fd5b6000808335601e1984360301811261321557600080fd5b8301803591506001600160401b0382111561322f57600080fd5b602001915036819003821315612afc57600080fd5b8183823760009101908152919050565b7813595cdcd859d9481a185cc81899595b88195e1958dd5d1959603a1b81528183601983013760009101601901908152919050565b81835281816020850137506000828201602090810191909152601f909101601f19169091010190565b6000838385526020808601955060208560051b8301018460005b8781101561333b57848303601f19018952813536889003601e190181126132f257600080fd5b870184810190356001600160401b0381111561330d57600080fd5b80360382131561331c57600080fd5b613327858284613289565b9a86019a94505050908301906001016132cc565b5090979650505050505050565b60408152600061335c6040830185876132b2565b9050612c596020830184612c77565b60408152600061337f6040830186886132b2565b82810360208401526127f3818587613289565b8082018082111561098357634e487b7160e01b600052601160045260246000fd5b6040815260006133c76040830185876132b2565b9050826020830152949350505050565b7f4d65737361676520696e2074686520626174636820686173206265656e20726581526703b32b93a32b21d160c51b60208201528183602883013760009101602801908152919050565b6000808335601e1984360301811261343857600080fd5b8301803591506001600160401b0382111561345257600080fd5b6020019150600581901b3603821315612afc57600080fd5b60408152600061337f604083018688613289565b60006020828403121561349057600080fd5b5051919050565b600082516134a9818460208701612612565b919091019291505056fe360894a13ba1a3210667c828492db98dca3e2076cc3735a920a3ca505d382bbca2646970667358221220f883dd008d86040dd88e9671f43cc2c8a45a9d6198470d9c4f2c7958777d3bfa64736f6c63430008180033",
  "linkReferences": {},
  "deployedLinkReferences": {}
}