{
  "_format": "hh-sol-artifact-1",
  "contractName": "WithdrawFromZkDvpVerifierk6",
  "sourceName": "src/rayls-protocol/Enygma/WithdrawFromZkDvpVerifierk6.sol",
  "abi": [
    {
      "inputs": [
        {
          "internalType": "uint256[2]",
          "name": "_pA",
          "type": "uint256[2]"
        },
        {
          "internalType": "uint256[2][2]",
          "name": "_pB",
          "type": "uint256[2][2]"
        },
        {
          "internalType": "uint256[2]",
          "name": "_pC",
          "type": "uint256[2]"
        },
        {
          "internalType": "uint256[43]",
          "name": "_pubSignals",
          "type": "uint256[43]"
        }
      ],
      "name": "verifyProof",
      "outputs": [
        {
          "internalType": "bool",
          "name": "",
          "type": "bool"
        }
      ],
      "stateMutability": "view",
      "type": "function"
    }
  ],
  "bytecode": "0x608060405234801561001057600080fd5b506114e3806100206000396000f3fe608060405234801561001057600080fd5b506004361061002b5760003560e01c80635547bd3814610030575b600080fd5b61004361003e366004611447565b610057565b604051901515815260200160405180910390f35b60006111ba565b7f30644e72e131a029b85045b68181585d2833e84879b9709143e1f593f0000001811061008f576000805260206000f35b50565b600060405183815284602082015285604082015260408160608360076107d05a03fa9150816100c5576000805260206000f35b825160408201526020830151606082015260408360808360066107d05a03fa915050806100f6576000805260206000f35b5050505050565b7f20f5d08ddf288944511214c69f094f4e301d3ce58ca72d33274cc6795fb931b185527f1e432de2e6a53e0bcc6215d6f6b3689abb8d1bdb1cb72a4c24a74999b30695bc60208601526000608086018661019a87357f1a64ee144ad747fc305f666dbc75874949cec9de0852daba440a78c564131c117f1781e6802793a4cc7374334a1905c8028eb1d3f5c7150922ffa4760941f3896a84610092565b6101ea60208801357f2667f5ccdef9c32fc384654a0920d3184555f57b387c0cbd8a3cb82311e3cd7b7f301c66e9fb2e00fc55ef260401f78699b660522ef9a05502189e6255439ac17884610092565b61023a60408801357f0bef387fffbde44c93a9224d8f15da98ab7d4428f50ef333f1026da14dac0f877f021ae688e3ebe2a443e8c2bd7ccdba3c16251baa845c00a0b10b97e21a816cef84610092565b61028a60608801357f1fa29e0a73c0122b9241ee3ed9a4092fdd07ed21dc0dc99fd178d8438125a7d97f07692465fdbe98ec106d540f93fd6ee0b49f7f066ee0b6b373e0a934b933578084610092565b6102da60808801357f1544a9fb853830b0750b1db36ac12ba2718218cc5a72865387c03c3eb7f181247f1b695f485778e960f58ae41d210a40bb1579732d745323beb5e64e46eace8e1084610092565b61032a60a08801357f0a3a87cc9eb009b10687a8e1fe2c129707f5ebdf3e7e9147219ca82d73a33bb97f224a1b12c016f9e22f6b43930746279be4196beba4d0b71f319d83b31270ea3784610092565b61037a60c08801357f1acb5894cbde820db5adc42e2e1fda86cd9bb80d3e6ee863b477503fe71019627f12ec1b336b5790dc74f26f9e17410db89c0d4306b98f23a86150bd7394cecda884610092565b6103ca60e08801357f250f5d749fb575555821431f125316bc0247feb0468809d8c839d9b82eab515b7f09cf6c42478c216a2cf7a909c18e722edc439ec98e5e5a9e8343117b1bea650184610092565b61041b6101008801357f1854e7b1f99297cee8f92af5dcd135f50f1a211f5aaf43e3637fa01fade87d147f14cb8a9d961db56605ee501e3b5980c9c069f87ef691b01a42ec9b56eef5896484610092565b61046c6101208801357f26802153e12700ee257921c37c494b786efe240210180a89de8e25394b0417657f21a25311f63578d7a26c1a48fc95975c2054cc5071a2b7f337f61f09f8d7004484610092565b6104bd6101408801357f1ec8ec29c0a3aad52c44c1dcabead045bab64ee022533dd3c8b128f73f42133b7f2f4f15f61df069c2d7487748056a695a4e6b28721eeb195f5d5f9d5a937a51a984610092565b61050e6101608801357f05a2d888a2eab806186a9f65a8fab2706ab11b8b6b537185041f89f251783c1f7f168a0ada648aef9767c5df1939efa7180d8ec094c9fe85485a1e63367838794c84610092565b61055f6101808801357f028f49a3d89c81bb8df71371497021284dc10f5e9dde4aee40a68fcab97045c97f2571c9877652e1134b569a57d925b39c9883d6a6a7d545c2c2171f69f5d5abe084610092565b6105af6101a08801357e8df051e74ac78f7e7b745a59312c1d8977ff5fd32ea1b3117fd09c9c02c99b7f0a80e0ff297cc01b0fdff7905c0508c7716cb945d1963e378f9a330d6538ccb284610092565b6106006101c08801357f1d5db2d129c215669581958e30d11bea1887188afd3593a9e02ee05bbdb874b17f0bdd7ea85034d0df400e7a249fbc5de97fa5849783d7273c16d7c1b14f4f1a7484610092565b6106516101e08801357f24a8488234760cb7d686491e3c2c82fd6fdbb61d1eb88dd921524d6bfef259d87f1f8f781c877fa4b157fb3ffe4ef77564a83e0bf9573f062a184f3b9f4feb9edc84610092565b6106a26102008801357f2d1e69816e2e4cda7bb69a51e79277390e069f8d0772dfea8cb601ae38a17b267f0e017d76f3942a42a0bf6720751ad2d32f4c77dc53ea7ce38f1a782c54649c7284610092565b6106f36102208801357f0c0700dc306a3f50c4393ad5d14fc35f1128dd2d8eb7c0b19b6be59c07d44d867f155217f358f206b3afcbe971afccb9688246019672bbb9f24168aaf245c9981884610092565b6107436102408801357e82c4d741d9f7e58a3a34cd98f4e65d34220180a48024fa09058649f70347537f18b2a615da93f7c632f6fd3df337dc30c767a87d90ce5cc2e7a0fd7f7b5d9c5484610092565b6107946102608801357f29d9478edcafd7a5ff9acba9edad04e440f1da0702c5178711502ffa904d453b7f1731b8d0a5bb99cadb6dd9b5dbd641b36136d06c6d72dd63a6083f54d102569984610092565b6107e56102808801357f2326aaec8134e57a80a5f36ea4939d59ac47bb770d085adcc26bd1d48496dbc17f1425706aadc6007d961e15d00bf1d27fee6e3f3acbf0084ca08c96738216c90384610092565b6108366102a08801357f0ff1ef7befeae27426853ec41f9c9dcbc6b50677f0b7cfa3e67396d95e01d01a7f12b71201cdb7a7d225b4510be825654568e5cdeebc17657a11c779148fc7d95884610092565b6108876102c08801357f27770bc2b5e29acfa87001b3c74b0e3484493501d5fc04f8e92b0d535138c8fb7f2f672976665d61044684e009aa32303024c9c321aa260dd4f585b9a49ca3e48884610092565b6108d76102e08801357e4b454e98e73cb65933f4ab5756651608efce41022fd3ae27b509750dfc6cf07f1e982284c8d1276b79c1881674dc0e6e534e5f16cb8e87a7f91a12677282214f84610092565b6109286103008801357f2d20f7cfd422989576f3c94a06a209bee9e4ea1177205fce6f3564bbb16238337f1961611063395bf0ec73f72d82c8eaf0159156bc5e577ced129b8bed6956fe1184610092565b6109796103208801357f19645fbd1b0b34cc09a4097218a018402b355fe2966df84f7adafba56c3f6aa37f257b1a66fbe3b7e4a965caf0379d3995ccbd07cd0b661bf99e819f4ca6715f3e84610092565b6109ca6103408801357f20928bf3553f786a1a983ae0e1868a7c386b6743d5d075fecc55db99578fdc007f05cf81308b5fb8b1ca88c75f3e794f55127d0768b5d0f4876883ba66601311a884610092565b610a1b6103608801357f2ff7a5e83ea9cf93e786387a35d40c0a9236e68274a15a61eba21325007c681d7f1e0cc758a575c37e6ef2b20aeb65a8dd13325706a9d70aa4caaece3a47a4ccca84610092565b610a6c6103808801357f0f410233efc6469b78e13ddea428a966b3b29489ae50b45d3a4c9d28606220fe7f1369fd93e309dde02879639004088c85b7d94267fbb7dbc43c152effffdfb98484610092565b610abd6103a08801357f1721b7522c6a67f6d5032b39434e6a66ada7c51dbd1f78f03c9498898bfdf7db7f304f65a6027560a4336c6faec0c61c92e49f5620d52585e58ece5cc62c4b708b84610092565b610b0e6103c08801357f0f893f84bc70c138f2d0099f969f79f585f663ea1c0bb860fdd9971ae4bc6c027f1ee076cbe206532d93766d0598a0db63dccd7074fd25dc88b480f9b59134c48e84610092565b610b5f6103e08801357f11e6ba25e0d7bdf1391ecbfe0a1f319e36bcc96c4ec3430ad7d623f1b0961a607f05a8e4ba5e5417e985e4e841654f86513704dea8374e11ff31ea778a49b99e8484610092565b610bb06104008801357f1b636f735f4b9951c946f2f0b3191c73b71d74b324c9488434fa7007e6999f857f11e16b8c5598c1f8e3c09be6356e27026045f050370be029983862bf552e40b884610092565b610c016104208801357f20ac29dda23505c1ac4cf8491b4a922df9eb2411ab18a3e10a2cba9c386a8dff7f04eda95c8ab3c6ebd650793135df87ba68fc160b7282c46d0ba6a05796cd7ffd84610092565b610c526104408801357f25cec8282588f0332cc3519317e8679547a8c0250690a5c6eca04467edccb45c7f0b11ab7565f168763235603c72900951953e0f9417458b1826758e163bc0c35b84610092565b610ca36104608801357f12ee5ce18b417f43625bdfe84aaa1eda6de12aabe1e8bfd42e58c439f43e56e77f0bb377df9df1f7ec8aeb32a343be8c68d2c65dc6e297a4197ab48740e6772b1384610092565b610cf46104808801357f2b5d06c6452c4bacc4f16c8ebea37760180fa9b6211e037f0663059c1f98ae0f7f08d2f9b39134ba2bf66b1c92571068d1ebc1409c0163d1dbe623bb25cadc92e984610092565b610d456104a08801357f1e1762672a0f1bc9d29c32e47da384d45482941d3f846db23bbaeb6a32e8abff7f1a18cacf0323a33986123c74342460ea1d974d8441fce19ccb29a36569b8b51c84610092565b610d966104c08801357f13dd9186e429fd144e458237d60b40a6b2277a343ded8ab08fba127740940db67f0754ac78b80db01f08ed256e3d8adf80d5a10d2da8ac1ac0bf7de58f681f6c6f84610092565b610de76104e08801357f024767a847d0827952202e417e6773d15a61dc79fcc839f83ca7befbd53f6fb87f07e237bc53f36b817e253313beb5a0022c8a71c1000cbc0fd0adf7775186a42c84610092565b610e386105008801357f2baa76fae792d95a83f1c61fa9d7875d87d7350665a9042224547906e08b6de87f27ead33e4a8861f752a22094150d9ddee7ea0d1dd289ccded6782ec4057bfbd784610092565b610e896105208801357f2c80c204275a383b051afd99fc73923710127ab78d56a3c6da699e27cd76b1477f1982970936b775884fa3f8986b5992385c350130d1479868a277030a579a541084610092565b610eda6105408801357f16a55f24bd893e0c5b52b31238906e9789988b78a0b74f3b17cbc326726e94d57f17ae4b8080628b4e5b5b03a761bad4942f37e17422f95223892a7a620bae326b84610092565b50823581527f30644e72e131a029b85045b68181585d97816a916871ca8d3c208c16d87cfd4760208401357f30644e72e131a029b85045b68181585d97816a916871ca8d3c208c16d87cfd4703066020820152833560408201526020840135606082015260408401356080820152606084013560a08201527f2d4d9aa7e302d9df41749d5507949d05dbea33fbb16c643b22f599a2be6df2e260c08201527f14bedd503c37ceb061d8ec60209fe345ce89830a19230301f076caff004d192660e08201527f0967032fcbf776d1afc985f88877f182d38480a653f2decaa9794cbc3bf3060c6101008201527f0e187847ad4c798374d0d6732bf501847dd68bc0e071241e0213bc7fc13db7ab6101208201527f304cfbd1e08a704a99f5e847d93f8c3caafddec46b7a0d379da69a4d112346a76101408201527f1739c1b1a457a8c7313123d24d2f9192f896b7c63eea05a9d57f06547ad0cec8610160820152600087015161018082015260206000018701516101a08201527f198e9393920d483a7260bfb731fb5d25f1aa493335a9e71297e485b7aef312c26101c08201527f1800deef121f1e76426a00665e5c4479674322d4f75edadd46debd5cd992f6ed6101e08201527f090689d0585ff075ec9e99ad690c3395bc4b313370b38ef355acdadcd122975b6102008201527f12c85ea5db8c6deb4aab71808dcb408fe3d1e7690c43d37b4ce6cc0166fa7daa610220820152843561024082015260208501356102608201527f28a86af8d128f74e81a138eddfabe0c07402c559fba520baf70797cb035b9db66102808201527f25b2132fb9d2f822c8647e0a938e739df5a7d0838852e78dcd2abfd023c7e21b6102a08201527f174c3d82297538e2219e47515fe48ed54c1c4a55da020ce427cfd1cfde3ce2636102c08201527f08a7995ee3f2528fcc323f6d2427aacb36316c5183e1c78f1f9cddc0a6b9c4c46102e08201526020816103008360086107d05a03fa9051169695505050505050565b60405161038081016040526111d2600084013561005e565b6111df602084013561005e565b6111ec604084013561005e565b6111f9606084013561005e565b611206608084013561005e565b61121360a084013561005e565b61122060c084013561005e565b61122d60e084013561005e565b61123b61010084013561005e565b61124961012084013561005e565b61125761014084013561005e565b61126561016084013561005e565b61127361018084013561005e565b6112816101a084013561005e565b61128f6101c084013561005e565b61129d6101e084013561005e565b6112ab61020084013561005e565b6112b961022084013561005e565b6112c761024084013561005e565b6112d561026084013561005e565b6112e361028084013561005e565b6112f16102a084013561005e565b6112ff6102c084013561005e565b61130d6102e084013561005e565b61131b61030084013561005e565b61132961032084013561005e565b61133761034084013561005e565b61134561036084013561005e565b61135361038084013561005e565b6113616103a084013561005e565b61136f6103c084013561005e565b61137d6103e084013561005e565b61138b61040084013561005e565b61139961042084013561005e565b6113a761044084013561005e565b6113b561046084013561005e565b6113c361048084013561005e565b6113d16104a084013561005e565b6113df6104c084013561005e565b6113ed6104e084013561005e565b6113fb61050084013561005e565b61140961052084013561005e565b61141761054084013561005e565b611424818486888a6100fd565b90508060005260206000f35b806040810183101561144157600080fd5b92915050565b60008060008061066080868803121561145f57600080fd5b6114698787611430565b945060c086018781111561147c57600080fd5b60408701945061148c8882611430565b93505086818701111561149e57600080fd5b5092959194509261010001915056fea2646970667358221220d144baba5744e27e8fcf4e6dada65e9d3250df584669cad4e55a022412bd6a6f64736f6c63430008180033",
  "linkReferences": {},
  "deployedLinkReferences": {}
}