{
  "_format": "hh-sol-artifact-1",
  "contractName": "SignatureStorage",
  "sourceName": "src/SignatureStorage.sol",
  "abi": [
    {
      "inputs": [
        {
          "internalType": "string",
          "name": "signatureKey",
          "type": "string"
        },
        {
          "components": [
            {
              "internalType": "enum Utils.MessageStatus",
              "name": "status",
              "type": "uint8"
            },
            {
              "internalType": "bytes",
              "name": "signature",
              "type": "bytes"
            },
            {
              "internalType": "bytes32",
              "name": "resourceId",
              "type": "bytes32"
            },
            {
              "internalType": "uint256",
              "name": "signatureExecuteChainId",
              "type": "uint256"
            },
            {
              "internalType": "uint256",
              "name": "destinationChainId",
              "type": "uint256"
            }
          ],
          "internalType": "struct SignatureStorage.Signature",
          "name": "sig",
          "type": "tuple"
        }
      ],
      "name": "addSignature",
      "outputs": [],
      "stateMutability": "nonpayable",
      "type": "function"
    },
    {
      "inputs": [
        {
          "internalType": "string",
          "name": "signatureKey",
          "type": "string"
        }
      ],
      "name": "deleteSignature",
      "outputs": [],
      "stateMutability": "nonpayable",
      "type": "function"
    },
    {
      "inputs": [
        {
          "internalType": "string",
          "name": "signatureKey",
          "type": "string"
        }
      ],
      "name": "getSignature",
      "outputs": [
        {
          "components": [
            {
              "internalType": "enum Utils.MessageStatus",
              "name": "status",
              "type": "uint8"
            },
            {
              "internalType": "bytes",
              "name": "signature",
              "type": "bytes"
            },
            {
              "internalType": "bytes32",
              "name": "resourceId",
              "type": "bytes32"
            },
            {
              "internalType": "uint256",
              "name": "signatureExecuteChainId",
              "type": "uint256"
            },
            {
              "internalType": "uint256",
              "name": "destinationChainId",
              "type": "uint256"
            }
          ],
          "internalType": "struct SignatureStorage.Signature",
          "name": "",
          "type": "tuple"
        }
      ],
      "stateMutability": "view",
      "type": "function"
    }
  ],
  "bytecode": "0x608060405234801561001057600080fd5b506106e9806100206000396000f3fe608060405234801561001057600080fd5b50600436106100415760003560e01c80635ded571b146100465780635e9592871461005b578063ee6a2c9214610084575b600080fd5b610059610054366004610350565b610097565b005b61006e6100693660046103ba565b6100c7565b60405161007b9190610430565b60405180910390f35b6100596100923660046103ba565b610208565b806000836040516100a891906104b7565b9081526040519081900360200190206100c1828261061e565b50505050565b6100fd6040805160a081019091528060008152602001606081526020016000801916815260200160008152602001600081525090565b60008260405161010d91906104b7565b9081526040805191829003602001822060a083019091528054829060ff16600381111561013c5761013c6103f6565b600381111561014d5761014d6103f6565b8152602001600182018054610161906104d3565b80601f016020809104026020016040519081016040528092919081815260200182805461018d906104d3565b80156101da5780601f106101af576101008083540402835291602001916101da565b820191906000526020600020905b8154815290600101906020018083116101bd57829003601f168201915b5050505050815260200160028201548152602001600382015481526020016004820154815250509050919050565b60008160405161021891906104b7565b908152604051908190036020019020805460ff19168155600061023e6001830182610258565b506000600282018190556003820181905560049091015550565b508054610264906104d3565b6000825580601f10610274575050565b601f0160209004906000526020600020908101906102929190610295565b50565b5b808211156102aa5760008155600101610296565b5090565b634e487b7160e01b600052604160045260246000fd5b600082601f8301126102d557600080fd5b81356001600160401b03808211156102ef576102ef6102ae565b604051601f8301601f19908116603f01168101908282118183101715610317576103176102ae565b8160405283815286602085880101111561033057600080fd5b836020870160208301376000602085830101528094505050505092915050565b6000806040838503121561036357600080fd5b82356001600160401b038082111561037a57600080fd5b610386868387016102c4565b9350602085013591508082111561039c57600080fd5b50830160a081860312156103af57600080fd5b809150509250929050565b6000602082840312156103cc57600080fd5b81356001600160401b038111156103e257600080fd5b6103ee848285016102c4565b949350505050565b634e487b7160e01b600052602160045260246000fd5b60005b8381101561042757818101518382015260200161040f565b50506000910152565b60208152600082516004811061045657634e487b7160e01b600052602160045260246000fd5b80602084015250602083015160a0604084015280518060c08501526104828160e086016020850161040c565b6040850151606085015260608501516080850152608085015160a085015260e0601f19601f8301168501019250505092915050565b600082516104c981846020870161040c565b9190910192915050565b600181811c908216806104e757607f821691505b60208210810361050757634e487b7160e01b600052602260045260246000fd5b50919050565b601f821115610559576000816000526020600020601f850160051c810160208610156105365750805b601f850160051c820191505b8181101561055557828155600101610542565b5050505b505050565b6001600160401b03831115610575576105756102ae565b6105898361058383546104d3565b8361050d565b6000601f8411600181146105bd57600085156105a55750838201355b600019600387901b1c1916600186901b178355610617565b600083815260209020601f19861690835b828110156105ee57868501358255602094850194600190920191016105ce565b508682101561060b5760001960f88860031b161c19848701351681555b505060018560011b0183555b5050505050565b81356004811061062d57600080fd5b60ff1982541660ff82168117835550506020820135601e1983360301811261065457600080fd5b820180356001600160401b0381111561066c57600080fd5b60208201915080360382131561068157600080fd5b61068f81836001860161055e565b5050604082013560028201556060820135600382015560808201356004820155505056fea26469706673582212209f5ad8fa10bf6e550104a6c9a95599d6f81fadd0d4eb182b12edaef37ba8852864736f6c63430008180033",
  "linkReferences": {},
  "deployedLinkReferences": {}
}