{
  "_format": "hh-sol-artifact-1",
  "contractName": "TokenExample",
  "sourceName": "src/rayls-protocol/test-contracts/TokenExample.sol",
  "abi": [
    {
      "inputs": [
        {
          "internalType": "string",
          "name": "_name",
          "type": "string"
        },
        {
          "internalType": "string",
          "name": "_symbol",
          "type": "string"
        },
        {
          "internalType": "address",
          "name": "_endpoint",
          "type": "address"
        }
      ],
      "stateMutability": "nonpayable",
      "type": "constructor"
    },
    {
      "inputs": [
        {
          "internalType": "address",
          "name": "spender",
          "type": "address"
        },
        {
          "internalType": "uint256",
          "name": "allowance",
          "type": "uint256"
        },
        {
          "internalType": "uint256",
          "name": "needed",
          "type": "uint256"
        }
      ],
      "name": "ERC20InsufficientAllowance",
      "type": "error"
    },
    {
      "inputs": [
        {
          "internalType": "address",
          "name": "sender",
          "type": "address"
        },
        {
          "internalType": "uint256",
          "name": "balance",
          "type": "uint256"
        },
        {
          "internalType": "uint256",
          "name": "needed",
          "type": "uint256"
        }
      ],
      "name": "ERC20InsufficientBalance",
      "type": "error"
    },
    {
      "inputs": [
        {
          "internalType": "address",
          "name": "approver",
          "type": "address"
        }
      ],
      "name": "ERC20InvalidApprover",
      "type": "error"
    },
    {
      "inputs": [
        {
          "internalType": "address",
          "name": "receiver",
          "type": "address"
        }
      ],
      "name": "ERC20InvalidReceiver",
      "type": "error"
    },
    {
      "inputs": [
        {
          "internalType": "address",
          "name": "sender",
          "type": "address"
        }
      ],
      "name": "ERC20InvalidSender",
      "type": "error"
    },
    {
      "inputs": [
        {
          "internalType": "address",
          "name": "spender",
          "type": "address"
        }
      ],
      "name": "ERC20InvalidSpender",
      "type": "error"
    },
    {
      "inputs": [],
      "name": "InvalidInitialization",
      "type": "error"
    },
    {
      "inputs": [],
      "name": "NotInitializing",
      "type": "error"
    },
    {
      "inputs": [
        {
          "internalType": "address",
          "name": "owner",
          "type": "address"
        }
      ],
      "name": "OwnableInvalidOwner",
      "type": "error"
    },
    {
      "inputs": [
        {
          "internalType": "address",
          "name": "account",
          "type": "address"
        }
      ],
      "name": "OwnableUnauthorizedAccount",
      "type": "error"
    },
    {
      "anonymous": false,
      "inputs": [
        {
          "indexed": true,
          "internalType": "address",
          "name": "owner",
          "type": "address"
        },
        {
          "indexed": true,
          "internalType": "address",
          "name": "spender",
          "type": "address"
        },
        {
          "indexed": false,
          "internalType": "uint256",
          "name": "value",
          "type": "uint256"
        }
      ],
      "name": "Approval",
      "type": "event"
    },
    {
      "anonymous": false,
      "inputs": [
        {
          "indexed": false,
          "internalType": "uint64",
          "name": "version",
          "type": "uint64"
        }
      ],
      "name": "Initialized",
      "type": "event"
    },
    {
      "anonymous": false,
      "inputs": [
        {
          "indexed": true,
          "internalType": "address",
          "name": "previousOwner",
          "type": "address"
        },
        {
          "indexed": true,
          "internalType": "address",
          "name": "newOwner",
          "type": "address"
        }
      ],
      "name": "OwnershipTransferred",
      "type": "event"
    },
    {
      "anonymous": false,
      "inputs": [
        {
          "indexed": true,
          "internalType": "address",
          "name": "from",
          "type": "address"
        },
        {
          "indexed": true,
          "internalType": "address",
          "name": "to",
          "type": "address"
        },
        {
          "indexed": false,
          "internalType": "uint256",
          "name": "value",
          "type": "uint256"
        }
      ],
      "name": "Transfer",
      "type": "event"
    },
    {
      "inputs": [],
      "name": "_getEndpointAddress",
      "outputs": [
        {
          "internalType": "address",
          "name": "",
          "type": "address"
        }
      ],
      "stateMutability": "view",
      "type": "function"
    },
    {
      "inputs": [
        {
          "internalType": "address",
          "name": "_endpoint",
          "type": "address"
        }
      ],
      "name": "_updateEndpoint",
      "outputs": [],
      "stateMutability": "nonpayable",
      "type": "function"
    },
    {
      "inputs": [],
      "name": "addressToFail",
      "outputs": [
        {
          "internalType": "address",
          "name": "",
          "type": "address"
        }
      ],
      "stateMutability": "view",
      "type": "function"
    },
    {
      "inputs": [
        {
          "internalType": "address",
          "name": "owner",
          "type": "address"
        },
        {
          "internalType": "address",
          "name": "spender",
          "type": "address"
        }
      ],
      "name": "allowance",
      "outputs": [
        {
          "internalType": "uint256",
          "name": "",
          "type": "uint256"
        }
      ],
      "stateMutability": "view",
      "type": "function"
    },
    {
      "inputs": [
        {
          "internalType": "address",
          "name": "spender",
          "type": "address"
        },
        {
          "internalType": "uint256",
          "name": "value",
          "type": "uint256"
        }
      ],
      "name": "approve",
      "outputs": [
        {
          "internalType": "bool",
          "name": "",
          "type": "bool"
        }
      ],
      "stateMutability": "nonpayable",
      "type": "function"
    },
    {
      "inputs": [
        {
          "internalType": "address",
          "name": "account",
          "type": "address"
        }
      ],
      "name": "balanceOf",
      "outputs": [
        {
          "internalType": "uint256",
          "name": "",
          "type": "uint256"
        }
      ],
      "stateMutability": "view",
      "type": "function"
    },
    {
      "inputs": [
        {
          "internalType": "address",
          "name": "from",
          "type": "address"
        },
        {
          "internalType": "uint256",
          "name": "value",
          "type": "uint256"
        }
      ],
      "name": "burn",
      "outputs": [],
      "stateMutability": "nonpayable",
      "type": "function"
    },
    {
      "inputs": [],
      "name": "decimals",
      "outputs": [
        {
          "internalType": "uint8",
          "name": "",
          "type": "uint8"
        }
      ],
      "stateMutability": "view",
      "type": "function"
    },
    {
      "inputs": [
        {
          "internalType": "bytes32",
          "name": "_resourceId",
          "type": "bytes32"
        }
      ],
      "name": "getAddressByResourceId",
      "outputs": [
        {
          "internalType": "address",
          "name": "",
          "type": "address"
        }
      ],
      "stateMutability": "view",
      "type": "function"
    },
    {
      "inputs": [
        {
          "internalType": "address",
          "name": "account",
          "type": "address"
        }
      ],
      "name": "getLockedAmount",
      "outputs": [
        {
          "internalType": "uint256",
          "name": "",
          "type": "uint256"
        }
      ],
      "stateMutability": "view",
      "type": "function"
    },
    {
      "inputs": [
        {
          "internalType": "string",
          "name": "_name",
          "type": "string"
        },
        {
          "internalType": "string",
          "name": "_symbol",
          "type": "string"
        },
        {
          "internalType": "uint8",
          "name": "_decimals",
          "type": "uint8"
        }
      ],
      "name": "initialize",
      "outputs": [],
      "stateMutability": "nonpayable",
      "type": "function"
    },
    {
      "inputs": [
        {
          "internalType": "address",
          "name": "to",
          "type": "address"
        },
        {
          "internalType": "uint256",
          "name": "value",
          "type": "uint256"
        }
      ],
      "name": "mint",
      "outputs": [],
      "stateMutability": "nonpayable",
      "type": "function"
    },
    {
      "inputs": [],
      "name": "name",
      "outputs": [
        {
          "internalType": "string",
          "name": "",
          "type": "string"
        }
      ],
      "stateMutability": "view",
      "type": "function"
    },
    {
      "inputs": [],
      "name": "owner",
      "outputs": [
        {
          "internalType": "address",
          "name": "",
          "type": "address"
        }
      ],
      "stateMutability": "view",
      "type": "function"
    },
    {
      "inputs": [
        {
          "internalType": "bytes32",
          "name": "_resourceId",
          "type": "bytes32"
        }
      ],
      "name": "receiveResourceId",
      "outputs": [],
      "stateMutability": "nonpayable",
      "type": "function"
    },
    {
      "inputs": [
        {
          "internalType": "address",
          "name": "to",
          "type": "address"
        },
        {
          "internalType": "uint256",
          "name": "value",
          "type": "uint256"
        }
      ],
      "name": "receiveTeleport",
      "outputs": [],
      "stateMutability": "nonpayable",
      "type": "function"
    },
    {
      "inputs": [
        {
          "internalType": "address",
          "name": "to",
          "type": "address"
        },
        {
          "internalType": "uint256",
          "name": "value",
          "type": "uint256"
        }
      ],
      "name": "receiveTeleportAtomic",
      "outputs": [],
      "stateMutability": "nonpayable",
      "type": "function"
    },
    {
      "inputs": [],
      "name": "renounceOwnership",
      "outputs": [],
      "stateMutability": "nonpayable",
      "type": "function"
    },
    {
      "inputs": [],
      "name": "resourceId",
      "outputs": [
        {
          "internalType": "bytes32",
          "name": "",
          "type": "bytes32"
        }
      ],
      "stateMutability": "view",
      "type": "function"
    },
    {
      "inputs": [
        {
          "internalType": "uint256",
          "name": "value",
          "type": "uint256"
        }
      ],
      "name": "revertTeleportBurn",
      "outputs": [],
      "stateMutability": "nonpayable",
      "type": "function"
    },
    {
      "inputs": [
        {
          "internalType": "address",
          "name": "to",
          "type": "address"
        },
        {
          "internalType": "uint256",
          "name": "value",
          "type": "uint256"
        }
      ],
      "name": "revertTeleportMint",
      "outputs": [],
      "stateMutability": "nonpayable",
      "type": "function"
    },
    {
      "inputs": [
        {
          "internalType": "uint8",
          "name": "_storageSlot",
          "type": "uint8"
        }
      ],
      "name": "submitTokenRegistration",
      "outputs": [],
      "stateMutability": "nonpayable",
      "type": "function"
    },
    {
      "inputs": [
        {
          "internalType": "enum SharedObjects.BalanceUpdateType",
          "name": "updateType",
          "type": "uint8"
        },
        {
          "internalType": "uint256",
          "name": "amount",
          "type": "uint256"
        }
      ],
      "name": "submitTokenUpdate",
      "outputs": [],
      "stateMutability": "nonpayable",
      "type": "function"
    },
    {
      "inputs": [],
      "name": "symbol",
      "outputs": [
        {
          "internalType": "string",
          "name": "",
          "type": "string"
        }
      ],
      "stateMutability": "view",
      "type": "function"
    },
    {
      "inputs": [
        {
          "internalType": "address",
          "name": "to",
          "type": "address"
        },
        {
          "internalType": "uint256",
          "name": "value",
          "type": "uint256"
        },
        {
          "internalType": "uint256",
          "name": "chainId",
          "type": "uint256"
        }
      ],
      "name": "teleport",
      "outputs": [
        {
          "internalType": "bool",
          "name": "",
          "type": "bool"
        }
      ],
      "stateMutability": "nonpayable",
      "type": "function"
    },
    {
      "inputs": [
        {
          "internalType": "address",
          "name": "to",
          "type": "address"
        },
        {
          "internalType": "uint256",
          "name": "value",
          "type": "uint256"
        },
        {
          "internalType": "uint256",
          "name": "destinationChainId",
          "type": "uint256"
        }
      ],
      "name": "teleportAtomic",
      "outputs": [
        {
          "internalType": "bool",
          "name": "",
          "type": "bool"
        }
      ],
      "stateMutability": "nonpayable",
      "type": "function"
    },
    {
      "inputs": [
        {
          "internalType": "address",
          "name": "from",
          "type": "address"
        },
        {
          "internalType": "address",
          "name": "to",
          "type": "address"
        },
        {
          "internalType": "uint256",
          "name": "value",
          "type": "uint256"
        },
        {
          "internalType": "uint256",
          "name": "destinationChainId",
          "type": "uint256"
        }
      ],
      "name": "teleportAtomicFrom",
      "outputs": [
        {
          "internalType": "bool",
          "name": "",
          "type": "bool"
        }
      ],
      "stateMutability": "nonpayable",
      "type": "function"
    },
    {
      "inputs": [
        {
          "internalType": "address",
          "name": "from",
          "type": "address"
        },
        {
          "internalType": "address",
          "name": "to",
          "type": "address"
        },
        {
          "internalType": "uint256",
          "name": "value",
          "type": "uint256"
        },
        {
          "internalType": "uint256",
          "name": "chainId",
          "type": "uint256"
        }
      ],
      "name": "teleportFrom",
      "outputs": [
        {
          "internalType": "bool",
          "name": "",
          "type": "bool"
        }
      ],
      "stateMutability": "nonpayable",
      "type": "function"
    },
    {
      "inputs": [],
      "name": "totalSupply",
      "outputs": [
        {
          "internalType": "uint256",
          "name": "",
          "type": "uint256"
        }
      ],
      "stateMutability": "view",
      "type": "function"
    },
    {
      "inputs": [
        {
          "internalType": "address",
          "name": "to",
          "type": "address"
        },
        {
          "internalType": "uint256",
          "name": "value",
          "type": "uint256"
        }
      ],
      "name": "transfer",
      "outputs": [
        {
          "internalType": "bool",
          "name": "",
          "type": "bool"
        }
      ],
      "stateMutability": "nonpayable",
      "type": "function"
    },
    {
      "inputs": [
        {
          "internalType": "address",
          "name": "from",
          "type": "address"
        },
        {
          "internalType": "address",
          "name": "to",
          "type": "address"
        },
        {
          "internalType": "uint256",
          "name": "value",
          "type": "uint256"
        }
      ],
      "name": "transferFrom",
      "outputs": [
        {
          "internalType": "bool",
          "name": "",
          "type": "bool"
        }
      ],
      "stateMutability": "nonpayable",
      "type": "function"
    },
    {
      "inputs": [
        {
          "internalType": "address",
          "name": "newOwner",
          "type": "address"
        }
      ],
      "name": "transferOwnership",
      "outputs": [],
      "stateMutability": "nonpayable",
      "type": "function"
    },
    {
      "inputs": [
        {
          "internalType": "address",
          "name": "to",
          "type": "address"
        },
        {
          "internalType": "uint256",
          "name": "amount",
          "type": "uint256"
        }
      ],
      "name": "unlock",
      "outputs": [
        {
          "internalType": "bool",
          "name": "",
          "type": "bool"
        }
      ],
      "stateMutability": "nonpayable",
      "type": "function"
    }
  ],
  "bytecode": "0x60806040523480156200001157600080fd5b5060405162002c3438038062002c34833981016040819052620000349162000456565b600080546001600160a01b0319166001600160a01b0383161781558390839083903390818585600562000068838262000574565b50600662000077828262000574565b5050506001600160a01b038116620000aa57604051631e4fbdf760e01b8152600060048201526024015b60405180910390fd5b620000b58162000117565b506008620000c4868262000574565b506009620000d3858262000574565b50600a805460ff1916821515179055620000ec62000169565b50505050506200010e336a01a784379d99db420000006200021d60201b60201c565b50505062000668565b600780546001600160a01b038381166001600160a01b0319831681179093556040519116919082907f8be0079c531659141344cd1fd0a4f28419497f9722a3daafe3b4186f6b6457e090600090a35050565b7ff0c57e16840df040f15088dc2f81fe391c3923bec73e23a9662efc9c229c6a00805468010000000000000000900460ff1615620001ba5760405163f92ee8a960e01b815260040160405180910390fd5b80546001600160401b03908116146200021a5780546001600160401b0319166001600160401b0390811782556040519081527fc7f505b2f371ae2175ee4913f4499e1f2633a7b5936321eed1cdaeb6115181d29060200160405180910390a15b50565b6001600160a01b038216620002495760405163ec442f0560e01b815260006004820152602401620000a1565b62000257600083836200025b565b5050565b6001600160a01b0383166200028a5780600460008282546200027e919062000640565b90915550620002fe9050565b6001600160a01b03831660009081526002602052604090205481811015620002df5760405163391434e360e21b81526001600160a01b03851660048201526024810182905260448101839052606401620000a1565b6001600160a01b03841660009081526002602052604090209082900390555b6001600160a01b0382166200031c576004805482900390556200033b565b6001600160a01b03821660009081526002602052604090208054820190555b816001600160a01b0316836001600160a01b03167fddf252ad1be2c89b69c2b068fc378daa952ba7f163c4a11628f55a4df523b3ef836040516200038191815260200190565b60405180910390a3505050565b634e487b7160e01b600052604160045260246000fd5b600082601f830112620003b657600080fd5b81516001600160401b0380821115620003d357620003d36200038e565b604051601f8301601f19908116603f01168101908282118183101715620003fe57620003fe6200038e565b81604052838152602092508660208588010111156200041c57600080fd5b600091505b8382101562000440578582018301518183018401529082019062000421565b6000602085830101528094505050505092915050565b6000806000606084860312156200046c57600080fd5b83516001600160401b03808211156200048457600080fd5b6200049287838801620003a4565b94506020860151915080821115620004a957600080fd5b50620004b886828701620003a4565b604086015190935090506001600160a01b0381168114620004d857600080fd5b809150509250925092565b600181811c90821680620004f857607f821691505b6020821081036200051957634e487b7160e01b600052602260045260246000fd5b50919050565b601f8211156200056f576000816000526020600020601f850160051c810160208610156200054a5750805b601f850160051c820191505b818110156200056b5782815560010162000556565b5050505b505050565b81516001600160401b038111156200059057620005906200038e565b620005a881620005a18454620004e3565b846200051f565b602080601f831160018114620005e05760008415620005c75750858301515b600019600386901b1c1916600185901b1785556200056b565b600085815260208120601f198616915b828110156200061157888601518255948401946001909101908401620005f0565b5085821015620006305787850151600019600388901b60f8161c191681555b5050505050600190811b01905550565b808201808211156200066257634e487b7160e01b600052601160045260246000fd5b92915050565b6125bc80620006786000396000f3fe608060405234801561001057600080fd5b50600436106101bb5760003560e01c80637eee288d116100fa578063a9059cbb1161009d578063a9059cbb146103d9578063b247d946146103ec578063be1ad65c146103fd578063c0251d5514610410578063c6a690a4146103b3578063dd62ed3e14610423578063e3ee8a4314610436578063e6ba408914610449578063f2fde38b1461045b57600080fd5b80637eee288d146103415780638da5cb5b14610354578063921e31681461035c578063929ec5371461036f578063953e3ef01461039857806395d89b41146103ab57806396bebd04146103b35780639dc29fac146103c657600080fd5b80632e30417b116101625780632e30417b14610281578063313ce5671461029457806340c10f19146102b1578063556da1b9146102c45780635f997c5b146102d75780636f181318146102e057806370a0823114610310578063715018a61461033957600080fd5b806306fdde03146101c0578063095ea7b3146101de5780630e5ee7801461020157806311f50c85146102165780631624f6c61461023657806318160ddd1461024957806323b872dd1461025b5780632c080daf1461026e575b600080fd5b6101c861046e565b6040516101d59190611cd6565b60405180910390f35b6101f16101ec366004611d05565b610500565b60405190151581526020016101d5565b61021461020f366004611d31565b61051a565b005b610229610224366004611d53565b610530565b6040516101d59190611d6c565b610214610244366004611e38565b61059e565b6004545b6040519081526020016101d5565b6101f1610269366004611eab565b610720565b6101f161027c366004611eec565b610744565b61021461028f366004611d53565b61080b565b600a54610100900460ff1660405160ff90911681526020016101d5565b6102146102bf366004611d05565b6108b5565b6102146102d2366004611f32565b6108d2565b61024d60015481565b6102146102ee366004611f4d565b600080546001600160a01b0319166001600160a01b0392909216919091179055565b61024d61031e366004611f4d565b6001600160a01b031660009081526002602052604090205490565b610214610b16565b6101f161034f366004611d05565b610b2a565b610229610bc7565b6101f161036a366004611f6a565b610bd6565b61024d61037d366004611f4d565b6001600160a01b03166000908152600b602052604090205490565b6101f16103a6366004611eec565b610d0b565b6101c8610e22565b6102146103c1366004611d05565b610e31565b6102146103d4366004611d05565b610ec8565b6101f16103e7366004611d05565b610ee5565b6000546001600160a01b0316610229565b6101f161040b366004611f6a565b610ef3565b61021461041e366004611d05565b610f4c565b61024d610431366004611f9f565b611064565b610214610444366004611d53565b61108f565b6102296a055500000000000000112381565b610214610469366004611f4d565b61120d565b60606008805461047d90611fd8565b80601f01602080910402602001604051908101604052809291908181526020018280546104a990611fd8565b80156104f65780601f106104cb576101008083540402835291602001916104f6565b820191906000526020600020905b8154815290600101906020018083116104d957829003601f168201915b5050505050905090565b60003361050e818585611248565b60019150505b92915050565b61052261125a565b61052c828261128c565b5050565b600080546040516311f50c8560e01b8152600481018490526001600160a01b03909116906311f50c8590602401602060405180830381865afa15801561057a573d6000803e3d6000fd5b505050506040513d601f19601f820116820180604052508101906105149190612012565b7ff0c57e16840df040f15088dc2f81fe391c3923bec73e23a9662efc9c229c6a008054600160401b810460ff1615906001600160401b03166000811580156105e35750825b90506000826001600160401b031660011480156105ff5750303b155b90508115801561060d575080155b1561062b5760405163f92ee8a960e01b815260040160405180910390fd5b845467ffffffffffffffff19166001178555831561065557845460ff60401b1916600160401b1785555b600061065f611450565b9050600061066b611468565b905061067561147f565b60015560086106848b82612077565b5060096106918a82612077565b5061069b82611493565b600080546001600160a01b0319166001600160a01b039290921691909117905550600a805461ff00191661010060ff891602179055831561071657845460ff60401b19168555604051600181527fc7f505b2f371ae2175ee4913f4499e1f2633a7b5936321eed1cdaeb6115181d29060200160405180910390a15b5050505050505050565b60003361072e8582856114e5565b610739858585611538565b506001949350505050565b6000336107528682866114e5565b61075c8685611597565b6040805160c081018252600080825260208201526001600160a01b03808916828401528716606082015230608082015260a0810186905290516107fe9085906107ab908990899060240161214c565b60408051601f19818403018152918152602080830180516001600160e01b03166325afaf4160e21b17905281518082018352600080825283518084018552818152845193840190945282529190866115cd565b5060019695505050505050565b6000546040516333932be560e11b81526001600160a01b039091169063672657ca9061083b903390600401611d6c565b602060405180830381865afa158015610858573d6000803e3d6000fd5b505050506040513d601f19601f8201168201806040525081019061087c9190612165565b6108a15760405162461bcd60e51b815260040161089890612187565b60405180910390fd5b6108b26108ac610bc7565b82611597565b50565b6108bd61125a565b6108c7828261162d565b61052c60018261128c565b60005460408051631119527160e11b815290516108b2926001600160a01b031691632232a4e29160048083019260209291908290030181865afa15801561091d573d6000803e3d6000fd5b505050506040513d601f19601f8201168201806040525081019061094191906121f5565b60005460405163377890a160e11b81526001600160a01b0390911690636ef121429061096f9060040161220e565b602060405180830381865afa15801561098c573d6000803e3d6000fd5b505050506040513d601f19601f820116820180604052508101906109b09190612012565b6040518061014001604052806109c461046e565b81526020016109d1610e22565b81526020016109df60045490565b6040516020016109f191815260200190565b604051602081830303815290604052815260200160008054906101000a90046001600160a01b03166001600160a01b0316633408e4706040518163ffffffff1660e01b8152600401602060405180830381865afa158015610a56573d6000803e3d6000fd5b505050506040513d601f19601f82011682018060405250810190610a7a91906121f5565b8152602001306001600160a01b0316803b806020016040519081016040528181526000908060200190933c8152602001610ab2611663565b81526001602082015260400160008152600a5460ff90811615156020830152861660409182015251610ae79190602401612249565b60408051601f198184030181529190526020810180516001600160e01b0316638b55462d60e01b1790526116bc565b610b1e61125a565b610b286000611493565b565b6000610b34610bc7565b6001600160a01b0316836001600160a01b031614610bbe576000610b588484611733565b905080610ba25760405162461bcd60e51b815260206004820152601860248201527763616e6e6f7420756e6c6f636b207468652061737365747360401b6044820152606401610898565b610bb4610bad610bc7565b8585611538565b6001915050610514565b50600192915050565b6007546001600160a01b031690565b6000610be23384611597565b6040805160c0810182526000808252602082015233818301526001600160a01b038616606082015230608082015260a081018590529051610739908490610c2f908890889060240161214c565b60408051601f198184030181529181526020820180516001600160e01b031663c0251d5560e01b17905251610c6a908990899060240161214c565b60408051601f198184030181529181526020820180516001600160e01b0316637eee288d60e01b17905251610ca59033908a9060240161214c565b60408051601f198184030181529181526020820180516001600160e01b03166331a9a42960e21b17905251602481018a90526044015b60408051601f198184030181529190526020810180516001600160e01b0316632e30417b60e01b179052866115cd565b600033610d198682866114e5565b610d238685611597565b6040805160c081018252600080825260208201526001600160a01b03808916828401528716606082015230608082015260a0810186905290516107fe908590610d72908990899060240161214c565b60408051601f198184030181529181526020820180516001600160e01b031663c0251d5560e01b17905251610dad908a908a9060240161214c565b60408051601f198184030181529181526020820180516001600160e01b0316637eee288d60e01b17905251610de8908c908b9060240161214c565b60408051601f198184030181529181526020820180516001600160e01b03166331a9a42960e21b17905251602481018b9052604401610cdb565b60606009805461047d90611fd8565b6000546040516333932be560e11b81526001600160a01b039091169063672657ca90610e61903390600401611d6c565b602060405180830381865afa158015610e7e573d6000803e3d6000fd5b505050506040513d601f19601f82011682018060405250810190610ea29190612165565b610ebe5760405162461bcd60e51b815260040161089890612187565b61052c828261162d565b610ed061125a565b610eda8282611597565b61052c60008261128c565b60003361050e818585611538565b6000610eff3384611597565b6040805160c0810182526000808252602082015233818301526001600160a01b038616606082015230608082015260a0810185905290516107399084906107ab908890889060240161214c565b6000546040516333932be560e11b81526001600160a01b039091169063672657ca90610f7c903390600401611d6c565b602060405180830381865afa158015610f99573d6000803e3d6000fd5b505050506040513d601f19601f82011682018060405250810190610fbd9190612165565b610fd95760405162461bcd60e51b815260040161089890612187565b6a0555000000000000001122196001600160a01b0383160161105a5760405162461bcd60e51b815260206004820152603460248201527f44657374696e6174696f6e206164647265737320697320746865206f6e6520746044820152733430ba103932bb32b93a1036b2b9b9b0b3b2b99760611b6064820152608401610898565b61052c82826117f0565b6001600160a01b03918216600090815260036020908152604080832093909416825291909152205490565b6000546040516333932be560e11b81526001600160a01b039091169063672657ca906110bf903390600401611d6c565b602060405180830381865afa1580156110dc573d6000803e3d6000fd5b505050506040513d601f19601f820116820180604052508101906111009190612165565b61111c5760405162461bcd60e51b815260040161089890612187565b60008054906101000a90046001600160a01b03166001600160a01b0316632232a4e26040518163ffffffff1660e01b8152600401602060405180830381865afa15801561116d573d6000803e3d6000fd5b505050506040513d601f19601f8201168201806040525081019061119191906121f5565b6111996118b8565b146112005760405162461bcd60e51b815260206004820152603160248201527f54686973206d6574686f64206f6e6c7920726563656976652063616c6c7320666044820152703937b69031b7b6b6b4ba1031b430b4b71760791b6064820152608401610898565b60018190556108b26118cc565b61121561125a565b6001600160a01b03811661123f576000604051631e4fbdf760e01b81526004016108989190611d6c565b6108b281611493565b6112558383836001611991565b505050565b33611263610bc7565b6001600160a01b031614610b28573360405163118cdaa760e01b81526004016108989190611d6c565b600154611297575050565b60005460408051631119527160e11b8152905161052c926001600160a01b031691632232a4e29160048083019260209291908290030181865afa1580156112e2573d6000803e3d6000fd5b505050506040513d601f19601f8201168201806040525081019061130691906121f5565b60005460405163377890a160e11b81526001600160a01b0390911690636ef12142906113349060040161220e565b602060405180830381865afa158015611351573d6000803e3d6000fd5b505050506040513d601f19601f820116820180604052508101906113759190612012565b60008054906101000a90046001600160a01b03166001600160a01b0316633408e4706040518163ffffffff1660e01b8152600401602060405180830381865afa1580156113c6573d6000803e3d6000fd5b505050506040513d601f19601f820116820180604052508101906113ea91906121f5565b600154868660405160200161140191815260200190565b60408051601f19818403018152908290526114219493929160240161233b565b60408051601f198184030181529190526020810180516001600160e01b031663401c3df160e11b1790526116bc565b600060343610611465575060331936013560601c5b90565b600060483610611465575060471936013560601c90565b6000602036106114655750601f1936013590565b600780546001600160a01b038381166001600160a01b0319831681179093556040519116919082907f8be0079c531659141344cd1fd0a4f28419497f9722a3daafe3b4186f6b6457e090600090a35050565b60006114f18484611064565b90506000198114611532578181101561152357828183604051637dc7a0d960e11b81526004016108989392919061237a565b61153284848484036000611991565b50505050565b6001600160a01b038316611562576000604051634b637e8f60e11b81526004016108989190611d6c565b6001600160a01b03821661158c57600060405163ec442f0560e01b81526004016108989190611d6c565b611255838383611a66565b6001600160a01b0382166115c1576000604051634b637e8f60e11b81526004016108989190611d6c565b61052c82600083611a66565b6001546116145760405162461bcd60e51b81526020600482015260156024820152742a37b5b2b7103737ba103932b3b4b9ba32b932b21760591b6044820152606401610898565b611625866001548787878787611b7d565b505050505050565b6001600160a01b03821661165757600060405163ec442f0560e01b81526004016108989190611d6c565b61052c60008383611a66565b60606008600961167b600a5460ff6101009091041690565b60405160240161168d93929190612418565b60408051601f198184030181529190526020810180516001600160e01b0316630b127b6360e11b179052919050565b60005460405163150b375f60e01b81526001600160a01b039091169063150b375f906116f090869086908690600401612451565b6020604051808303816000875af115801561170f573d6000803e3d6000fd5b505050506040513d601f19601f8201168201806040525081019061153291906121f5565b60006001600160a01b03831661174857600080fd5b6001600160a01b0383166000908152600b602052604090205482158015906117705750808311155b6117b95760405162461bcd60e51b815260206004820152601a6024820152794e6f7420656e6f7567682066756e647320746f20756e6c6f636b60301b6044820152606401610898565b6001600160a01b0384166000908152600b6020526040812080548592906117e190849061249a565b90915550600195945050505050565b6000546040516333932be560e11b81526001600160a01b039091169063672657ca90611820903390600401611d6c565b602060405180830381865afa15801561183d573d6000803e3d6000fd5b505050506040513d601f19601f820116820180604052508101906118619190612165565b61187d5760405162461bcd60e51b815260040161089890612187565b61188e611888610bc7565b8261162d565b611896610bc7565b6001600160a01b0316826001600160a01b03161461052c5761052c8282611bfc565b600060343610611465575060331936013590565b60015461192d5760405162461bcd60e51b815260206004820152602960248201527f4f6e6c79207265676973746572207265736f75726365207768656e206974277360448201526808185c1c1c9bdd995960ba1b6064820152608401610898565b60005460015460405163d4f951c760e01b815260048101919091523060248201526001600160a01b039091169063d4f951c790604401600060405180830381600087803b15801561197d57600080fd5b505af1158015611532573d6000803e3d6000fd5b6001600160a01b0384166119bb57600060405163e602df0560e01b81526004016108989190611d6c565b6001600160a01b0383166119e5576000604051634a1406b160e11b81526004016108989190611d6c565b6001600160a01b038085166000908152600360209081526040808320938716835292905220829055801561153257826001600160a01b0316846001600160a01b03167f8c5be1e5ebec7d5bd14f71427d1e84f3dd0314c0f7b2291e5b200ac8c7c3b92584604051611a5891815260200190565b60405180910390a350505050565b6001600160a01b038316611a91578060046000828254611a8691906124ad565b90915550611af09050565b6001600160a01b03831660009081526002602052604090205481811015611ad15783818360405163391434e360e21b81526004016108989392919061237a565b6001600160a01b03841660009081526002602052604090209082900390555b6001600160a01b038216611b0c57600480548290039055611b2b565b6001600160a01b03821660009081526002602052604090208054820190555b816001600160a01b0316836001600160a01b03167fddf252ad1be2c89b69c2b068fc378daa952ba7f163c4a11628f55a4df523b3ef83604051611b7091815260200190565b60405180910390a3505050565b600054604051631075c5d160e21b81526001600160a01b03909116906341d7174490611bb9908a908a908a908a908a908a908a906004016124c0565b6020604051808303816000875af1158015611bd8573d6000803e3d6000fd5b505050506040513d601f19601f8201168201806040525081019061071691906121f5565b60008111611c4c5760405162461bcd60e51b815260206004820152601d60248201527f416d6f756e74206d7573742062652067726561746572207468616e20300000006044820152606401610898565b6001600160a01b038216611c5f57600080fd5b6001600160a01b0382166000908152600b602052604081208054839290611c879084906124ad565b90915550505050565b6000815180845260005b81811015611cb657602081850181015186830182015201611c9a565b506000602082860101526020601f19601f83011685010191505092915050565b602081526000611ce96020830184611c90565b9392505050565b6001600160a01b03811681146108b257600080fd5b60008060408385031215611d1857600080fd5b8235611d2381611cf0565b946020939093013593505050565b60008060408385031215611d4457600080fd5b823560028110611d2357600080fd5b600060208284031215611d6557600080fd5b5035919050565b6001600160a01b0391909116815260200190565b634e487b7160e01b600052604160045260246000fd5b600082601f830112611da757600080fd5b81356001600160401b0380821115611dc157611dc1611d80565b604051601f8301601f19908116603f01168101908282118183101715611de957611de9611d80565b81604052838152866020858801011115611e0257600080fd5b836020870160208301376000602085830101528094505050505092915050565b803560ff81168114611e3357600080fd5b919050565b600080600060608486031215611e4d57600080fd5b83356001600160401b0380821115611e6457600080fd5b611e7087838801611d96565b94506020860135915080821115611e8657600080fd5b50611e9386828701611d96565b925050611ea260408501611e22565b90509250925092565b600080600060608486031215611ec057600080fd5b8335611ecb81611cf0565b92506020840135611edb81611cf0565b929592945050506040919091013590565b60008060008060808587031215611f0257600080fd5b8435611f0d81611cf0565b93506020850135611f1d81611cf0565b93969395505050506040820135916060013590565b600060208284031215611f4457600080fd5b611ce982611e22565b600060208284031215611f5f57600080fd5b8135611ce981611cf0565b600080600060608486031215611f7f57600080fd5b8335611f8a81611cf0565b95602085013595506040909401359392505050565b60008060408385031215611fb257600080fd5b8235611fbd81611cf0565b91506020830135611fcd81611cf0565b809150509250929050565b600181811c90821680611fec57607f821691505b60208210810361200c57634e487b7160e01b600052602260045260246000fd5b50919050565b60006020828403121561202457600080fd5b8151611ce981611cf0565b601f821115611255576000816000526020600020601f850160051c810160208610156120585750805b601f850160051c820191505b8181101561162557828155600101612064565b81516001600160401b0381111561209057612090611d80565b6120a48161209e8454611fd8565b8461202f565b602080601f8311600181146120d957600084156120c15750858301515b600019600386901b1c1916600185901b178555611625565b600085815260208120601f198616915b82811015612108578886015182559484019460019091019084016120e9565b50858210156121265787850151600019600388901b60f8161c191681555b5050505050600190811b01905550565b634e487b7160e01b600052602160045260246000fd5b6001600160a01b03929092168252602082015260400190565b60006020828403121561217757600080fd5b81518015158114611ce957600080fd5b60208082526048908201527f5468697320697320612072656365697665206d6574686f642e204f6e6c79206560408201527f6e64706f696e742773206578656375746f722063616e2063616c6c20746869736060820152671036b2ba3437b21760c11b608082015260a00190565b60006020828403121561220757600080fd5b5051919050565b6020808252600d908201526c546f6b656e526567697374727960981b604082015260600190565b6006811061224557612245612136565b9052565b6020815260008251610140806020850152612268610160850183611c90565b91506020850151601f19808685030160408701526122868483611c90565b935060408701519150808685030160608701526122a38483611c90565b93506060870151608087015260808701519150808685030160a08701526122ca8483611c90565b935060a08701519150808685030160c0870152506122e88382611c90565b92505060c08501516122fe60e086018215159052565b5060e085015161010061231381870183612235565b86015190506101206123288682018315159052565b9095015160ff1693019290925250919050565b84815283602082015260006002841061235657612356612136565b836040830152608060608301526123706080830184611c90565b9695505050505050565b6001600160a01b039390931683526020830191909152604082015260600190565b600081546123a881611fd8565b8085526020600183811680156123c557600181146123df5761240d565b60ff1985168884015283151560051b88018301955061240d565b866000528260002060005b858110156124055781548a82018601529083019084016123ea565b890184019650505b505050505092915050565b60608152600061242b606083018661239b565b828103602084015261243d818661239b565b91505060ff83166040830152949350505050565b8381526001600160a01b038316602082015260606040820181905260009061247b90830184611c90565b95945050505050565b634e487b7160e01b600052601160045260246000fd5b8181038181111561051457610514612484565b8082018082111561051457610514612484565b60006101808983528860208401528060408401526124e081840189611c90565b905082810360608401526124f48188611c90565b905082810360808401526125088187611c90565b905082810360a084015261251c8186611c90565b91505082516005811061253157612531612136565b60c0830152602083015160e083015260408301516001600160a01b039081166101008401526060840151811661012084015260808401511661014083015260a09092015161016090910152969550505050505056fea2646970667358221220dc85a9f56a25d3752b1b6ec27bd57a0222513958861ce5dfa25a6a64083f410064736f6c63430008180033",
  "linkReferences": {},
  "deployedLinkReferences": {}
}