{
  "_format": "hh-sol-artifact-1",
  "contractName": "MessageExecutor",
  "sourceName": "src/MessageExecutor.sol",
  "abi": [
    {
      "inputs": [],
      "stateMutability": "nonpayable",
      "type": "constructor"
    },
    {
      "inputs": [
        {
          "internalType": "bytes32",
          "name": "messageId",
          "type": "bytes32"
        },
        {
          "internalType": "bytes",
          "name": "errorData",
          "type": "bytes"
        }
      ],
      "name": "MessageFailure",
      "type": "error"
    },
    {
      "inputs": [
        {
          "internalType": "bytes32",
          "name": "messageId",
          "type": "bytes32"
        }
      ],
      "name": "MessageIdAlreadyExecuted",
      "type": "error"
    },
    {
      "anonymous": false,
      "inputs": [
        {
          "indexed": true,
          "internalType": "uint256",
          "name": "fromChainId",
          "type": "uint256"
        },
        {
          "indexed": true,
          "internalType": "bytes32",
          "name": "messageId",
          "type": "bytes32"
        }
      ],
      "name": "MessageIdExecuted",
      "type": "event"
    },
    {
      "inputs": [
        {
          "internalType": "address",
          "name": "_to",
          "type": "address"
        },
        {
          "internalType": "bytes",
          "name": "_data",
          "type": "bytes"
        },
        {
          "internalType": "bytes32",
          "name": "_messageId",
          "type": "bytes32"
        },
        {
          "internalType": "uint256",
          "name": "_fromChainId",
          "type": "uint256"
        },
        {
          "internalType": "address",
          "name": "_from",
          "type": "address"
        }
      ],
      "name": "executeMessage",
      "outputs": [],
      "stateMutability": "nonpayable",
      "type": "function"
    },
    {
      "inputs": [
        {
          "internalType": "bytes32",
          "name": "",
          "type": "bytes32"
        }
      ],
      "name": "executed",
      "outputs": [
        {
          "internalType": "bool",
          "name": "",
          "type": "bool"
        }
      ],
      "stateMutability": "view",
      "type": "function"
    }
  ],
  "bytecode": "0x608060405234801561001057600080fd5b50600080546001600160a01b0319163317905561048d806100326000396000f3fe608060405234801561001057600080fd5b50600436106100365760003560e01c806390fe4cff1461003b578063a9fcfb3314610050575b600080fd5b61004e6100493660046102e2565b610087565b005b61007361005e366004610388565b60016020526000908152604090205460ff1681565b604051901515815260200160405180910390f35b6000546001600160a01b031633146100fe5760405162461bcd60e51b815260206004820152602f60248201527f657865637574654d6573736167652063616c6c65642066726f6d20756e61757460448201526e1a1bdc9a5e9959081858d8dbdd5b9d608a1b60648201526084015b60405180910390fd5b600083815260016020818152604092839020805460ff19811690931790558251601f880182900482028101820190935286835260ff9091169161016491899190899089908190840183828082843760009201919091525089925088915087905086610199565b604051849084907e769f3f82cb2a521c5b72f211aff687dae3cebd0b4631790417d1b17e15689a90600090a350505050505050565b80156101bb5760405163153bf81360e31b8152600481018590526024016100f5565b6000866001600160a01b03163b116102155760405162461bcd60e51b815260206004820152601d60248201527f4e6f20636f6e747261637420617420746172676574206164647265737300000060448201526064016100f5565b600080876001600160a01b03168787878760405160200161023994939291906103c5565b60408051601f198184030181529082905261025391610401565b6000604051808303816000865af19150503d8060008114610290576040519150601f19603f3d011682016040523d82523d6000602084013e610295565b606091505b5091509150816102bc578581604051632f9c844f60e21b81526004016100f592919061041d565b5050505050505050565b80356001600160a01b03811681146102dd57600080fd5b919050565b60008060008060008060a087890312156102fb57600080fd5b610304876102c6565b9550602087013567ffffffffffffffff8082111561032157600080fd5b818901915089601f83011261033557600080fd5b81358181111561034457600080fd5b8a602082850101111561035657600080fd5b602083019750809650505050604087013592506060870135915061037c608088016102c6565b90509295509295509295565b60006020828403121561039a57600080fd5b5035919050565b60005b838110156103bc5781810151838201526020016103a4565b50506000910152565b600085516103d7818460208a016103a1565b9190910193845250602083019190915260601b6001600160601b0319166040820152605401919050565b600082516104138184602087016103a1565b9190910192915050565b82815260406020820152600082518060408401526104428160608501602087016103a1565b601f01601f191691909101606001939250505056fea26469706673582212203aa6335f0452d4f764828180ff867ad614e5a88b0992e35e7320978115f7bb2f64736f6c63430008180033",
  "linkReferences": {},
  "deployedLinkReferences": {}
}