{
  "_format": "hh-sol-artifact-1",
  "contractName": "EnygmaPLEvents",
  "sourceName": "src/rayls-protocol/Enygma/EnygmaPLEvents.sol",
  "abi": [
    {
      "inputs": [
        {
          "internalType": "address",
          "name": "_endpointAddress",
          "type": "address"
        }
      ],
      "stateMutability": "nonpayable",
      "type": "constructor"
    },
    {
      "anonymous": false,
      "inputs": [
        {
          "indexed": false,
          "internalType": "bytes32",
          "name": "_resourceId",
          "type": "bytes32"
        },
        {
          "indexed": false,
          "internalType": "uint256",
          "name": "_amount",
          "type": "uint256"
        }
      ],
      "name": "EnygmaBurn",
      "type": "event"
    },
    {
      "anonymous": false,
      "inputs": [
        {
          "indexed": false,
          "internalType": "bytes32",
          "name": "_resourceId",
          "type": "bytes32"
        }
      ],
      "name": "EnygmaCreation",
      "type": "event"
    },
    {
      "anonymous": false,
      "inputs": [
        {
          "indexed": false,
          "internalType": "bytes32",
          "name": "_resourceId",
          "type": "bytes32"
        },
        {
          "indexed": false,
          "internalType": "uint256",
          "name": "amount",
          "type": "uint256"
        },
        {
          "indexed": false,
          "internalType": "address",
          "name": "_from",
          "type": "address"
        },
        {
          "indexed": false,
          "internalType": "bytes32",
          "name": "_referenceId",
          "type": "bytes32"
        }
      ],
      "name": "EnygmaDepositToZkDvp",
      "type": "event"
    },
    {
      "anonymous": false,
      "inputs": [
        {
          "indexed": false,
          "internalType": "bytes32",
          "name": "_resourceId",
          "type": "bytes32"
        },
        {
          "indexed": false,
          "internalType": "uint256",
          "name": "_amount",
          "type": "uint256"
        }
      ],
      "name": "EnygmaMint",
      "type": "event"
    },
    {
      "anonymous": false,
      "inputs": [
        {
          "indexed": false,
          "internalType": "bytes",
          "name": "encryptedMessage",
          "type": "bytes"
        }
      ],
      "name": "EnygmaReceiveTransferPL",
      "type": "event"
    },
    {
      "anonymous": false,
      "inputs": [
        {
          "indexed": false,
          "internalType": "bytes32",
          "name": "_resourceId",
          "type": "bytes32"
        },
        {
          "indexed": false,
          "internalType": "uint256",
          "name": "_amount",
          "type": "uint256"
        },
        {
          "indexed": false,
          "internalType": "address",
          "name": "_to",
          "type": "address"
        },
        {
          "indexed": false,
          "internalType": "string",
          "name": "_reason",
          "type": "string"
        }
      ],
      "name": "EnygmaRevertMint",
      "type": "event"
    },
    {
      "anonymous": false,
      "inputs": [
        {
          "indexed": false,
          "internalType": "bytes32",
          "name": "_resourceId",
          "type": "bytes32"
        },
        {
          "indexed": false,
          "internalType": "uint256[]",
          "name": "_value",
          "type": "uint256[]"
        },
        {
          "indexed": false,
          "internalType": "uint256[]",
          "name": "_toChainId",
          "type": "uint256[]"
        },
        {
          "indexed": false,
          "internalType": "address[]",
          "name": "_to",
          "type": "address[]"
        },
        {
          "components": [
            {
              "internalType": "bytes32",
              "name": "resourceId",
              "type": "bytes32"
            },
            {
              "internalType": "address",
              "name": "contractAddress",
              "type": "address"
            },
            {
              "internalType": "bytes",
              "name": "payload",
              "type": "bytes"
            }
          ],
          "indexed": false,
          "internalType": "struct SharedObjects.EnygmaCrossTransferCallable[][]",
          "name": "_callables",
          "type": "tuple[][]"
        },
        {
          "indexed": false,
          "internalType": "address",
          "name": "_from",
          "type": "address"
        },
        {
          "indexed": false,
          "internalType": "bytes32",
          "name": "_referenceId",
          "type": "bytes32"
        }
      ],
      "name": "EnygmaSendTransferCC",
      "type": "event"
    },
    {
      "anonymous": false,
      "inputs": [
        {
          "indexed": false,
          "internalType": "bytes32",
          "name": "_resourceId",
          "type": "bytes32"
        },
        {
          "indexed": false,
          "internalType": "uint256",
          "name": "_nftId",
          "type": "uint256"
        },
        {
          "indexed": false,
          "internalType": "bytes32",
          "name": "_nftResourceId",
          "type": "bytes32"
        },
        {
          "indexed": false,
          "internalType": "uint256",
          "name": "_enygmaAmount",
          "type": "uint256"
        },
        {
          "indexed": false,
          "internalType": "address",
          "name": "_from",
          "type": "address"
        },
        {
          "indexed": false,
          "internalType": "uint256",
          "name": "_destChainId",
          "type": "uint256"
        },
        {
          "indexed": false,
          "internalType": "bytes32",
          "name": "_sharedId",
          "type": "bytes32"
        },
        {
          "indexed": false,
          "internalType": "bytes",
          "name": "_calldata",
          "type": "bytes"
        }
      ],
      "name": "EnygmaSwapWithZkDvpForERC721",
      "type": "event"
    },
    {
      "anonymous": false,
      "inputs": [
        {
          "indexed": false,
          "internalType": "bytes32",
          "name": "_resourceId",
          "type": "bytes32"
        },
        {
          "indexed": false,
          "internalType": "uint256",
          "name": "amount",
          "type": "uint256"
        },
        {
          "indexed": false,
          "internalType": "address",
          "name": "_to",
          "type": "address"
        },
        {
          "indexed": false,
          "internalType": "bytes32",
          "name": "_referenceId",
          "type": "bytes32"
        }
      ],
      "name": "EnygmaWithdrawFromZkDvp",
      "type": "event"
    },
    {
      "anonymous": false,
      "inputs": [
        {
          "indexed": false,
          "internalType": "bytes32",
          "name": "_resourceId",
          "type": "bytes32"
        },
        {
          "indexed": false,
          "internalType": "uint256",
          "name": "_nftId",
          "type": "uint256"
        }
      ],
      "name": "ZkDvp721Burn",
      "type": "event"
    },
    {
      "anonymous": false,
      "inputs": [
        {
          "indexed": false,
          "internalType": "bytes32",
          "name": "_resourceId",
          "type": "bytes32"
        }
      ],
      "name": "ZkDvp721Creation",
      "type": "event"
    },
    {
      "anonymous": false,
      "inputs": [
        {
          "indexed": false,
          "internalType": "bytes32",
          "name": "_resourceId",
          "type": "bytes32"
        },
        {
          "indexed": false,
          "internalType": "uint256",
          "name": "_nftId",
          "type": "uint256"
        },
        {
          "indexed": false,
          "internalType": "address",
          "name": "from",
          "type": "address"
        }
      ],
      "name": "ZkDvp721DepositIntoZkDvp",
      "type": "event"
    },
    {
      "anonymous": false,
      "inputs": [
        {
          "indexed": false,
          "internalType": "bytes32",
          "name": "_resourceId",
          "type": "bytes32"
        },
        {
          "indexed": false,
          "internalType": "uint256",
          "name": "_nftId",
          "type": "uint256"
        }
      ],
      "name": "ZkDvp721Mint",
      "type": "event"
    },
    {
      "anonymous": false,
      "inputs": [
        {
          "indexed": false,
          "internalType": "bytes32",
          "name": "_resourceId",
          "type": "bytes32"
        },
        {
          "indexed": false,
          "internalType": "uint256",
          "name": "_nftId",
          "type": "uint256"
        },
        {
          "indexed": false,
          "internalType": "uint256",
          "name": "_destinationChainId",
          "type": "uint256"
        },
        {
          "indexed": false,
          "internalType": "address",
          "name": "_destinationOwner",
          "type": "address"
        }
      ],
      "name": "ZkDvp721SwapCompleted",
      "type": "event"
    },
    {
      "anonymous": false,
      "inputs": [
        {
          "indexed": false,
          "internalType": "bytes32",
          "name": "_nftResourceId",
          "type": "bytes32"
        },
        {
          "indexed": false,
          "internalType": "uint256",
          "name": "_nftId",
          "type": "uint256"
        },
        {
          "indexed": false,
          "internalType": "uint256",
          "name": "_enygmaAmount",
          "type": "uint256"
        },
        {
          "indexed": false,
          "internalType": "bytes32",
          "name": "_enygmaResourceId",
          "type": "bytes32"
        },
        {
          "indexed": false,
          "internalType": "address",
          "name": "_from",
          "type": "address"
        },
        {
          "indexed": false,
          "internalType": "uint256",
          "name": "_destChainId",
          "type": "uint256"
        },
        {
          "indexed": false,
          "internalType": "bytes32",
          "name": "_sharedId",
          "type": "bytes32"
        },
        {
          "indexed": false,
          "internalType": "bytes",
          "name": "_calldata",
          "type": "bytes"
        }
      ],
      "name": "ZkDvp721SwapForEnygma",
      "type": "event"
    },
    {
      "anonymous": false,
      "inputs": [
        {
          "indexed": false,
          "internalType": "bytes32",
          "name": "_resourceId",
          "type": "bytes32"
        },
        {
          "indexed": false,
          "internalType": "uint256",
          "name": "_nftId",
          "type": "uint256"
        },
        {
          "indexed": false,
          "internalType": "address",
          "name": "owner",
          "type": "address"
        }
      ],
      "name": "ZkDvp721WithdrawFromZkDvp",
      "type": "event"
    },
    {
      "inputs": [],
      "name": "_getEndpointAddress",
      "outputs": [
        {
          "internalType": "address",
          "name": "",
          "type": "address"
        }
      ],
      "stateMutability": "view",
      "type": "function"
    },
    {
      "inputs": [
        {
          "internalType": "address",
          "name": "_endpoint",
          "type": "address"
        }
      ],
      "name": "_updateEndpoint",
      "outputs": [],
      "stateMutability": "nonpayable",
      "type": "function"
    },
    {
      "inputs": [
        {
          "internalType": "bytes32",
          "name": "_resourceId",
          "type": "bytes32"
        },
        {
          "internalType": "uint256",
          "name": "_amount",
          "type": "uint256"
        }
      ],
      "name": "burn",
      "outputs": [],
      "stateMutability": "nonpayable",
      "type": "function"
    },
    {
      "inputs": [
        {
          "internalType": "bytes32",
          "name": "_resourceId",
          "type": "bytes32"
        }
      ],
      "name": "creation",
      "outputs": [],
      "stateMutability": "nonpayable",
      "type": "function"
    },
    {
      "inputs": [
        {
          "internalType": "bytes32",
          "name": "_resourceId",
          "type": "bytes32"
        },
        {
          "internalType": "uint256",
          "name": "amount",
          "type": "uint256"
        },
        {
          "internalType": "address",
          "name": "_from",
          "type": "address"
        },
        {
          "internalType": "bytes32",
          "name": "_referenceId",
          "type": "bytes32"
        }
      ],
      "name": "depositToZkDvp",
      "outputs": [],
      "stateMutability": "nonpayable",
      "type": "function"
    },
    {
      "inputs": [
        {
          "internalType": "bytes32",
          "name": "_resourceId",
          "type": "bytes32"
        }
      ],
      "name": "getAddressByResourceId",
      "outputs": [
        {
          "internalType": "address",
          "name": "",
          "type": "address"
        }
      ],
      "stateMutability": "view",
      "type": "function"
    },
    {
      "inputs": [],
      "name": "initialize",
      "outputs": [],
      "stateMutability": "nonpayable",
      "type": "function"
    },
    {
      "inputs": [
        {
          "internalType": "bytes32",
          "name": "_resourceId",
          "type": "bytes32"
        },
        {
          "internalType": "uint256",
          "name": "_amount",
          "type": "uint256"
        }
      ],
      "name": "mint",
      "outputs": [],
      "stateMutability": "nonpayable",
      "type": "function"
    },
    {
      "inputs": [
        {
          "internalType": "bytes",
          "name": "encryptedMessage",
          "type": "bytes"
        }
      ],
      "name": "receiveTransferInPl",
      "outputs": [],
      "stateMutability": "nonpayable",
      "type": "function"
    },
    {
      "inputs": [],
      "name": "resourceId",
      "outputs": [
        {
          "internalType": "bytes32",
          "name": "",
          "type": "bytes32"
        }
      ],
      "stateMutability": "view",
      "type": "function"
    },
    {
      "inputs": [
        {
          "internalType": "bytes32",
          "name": "_resourceId",
          "type": "bytes32"
        },
        {
          "internalType": "uint256",
          "name": "_amount",
          "type": "uint256"
        },
        {
          "internalType": "address",
          "name": "_to",
          "type": "address"
        },
        {
          "internalType": "string",
          "name": "_reason",
          "type": "string"
        }
      ],
      "name": "revertMint",
      "outputs": [],
      "stateMutability": "nonpayable",
      "type": "function"
    },
    {
      "inputs": [
        {
          "components": [
            {
              "internalType": "bytes32",
              "name": "resourceId",
              "type": "bytes32"
            },
            {
              "internalType": "uint256[]",
              "name": "value",
              "type": "uint256[]"
            },
            {
              "internalType": "uint256[]",
              "name": "toChainId",
              "type": "uint256[]"
            },
            {
              "internalType": "address[]",
              "name": "to",
              "type": "address[]"
            },
            {
              "components": [
                {
                  "internalType": "bytes32",
                  "name": "resourceId",
                  "type": "bytes32"
                },
                {
                  "internalType": "address",
                  "name": "contractAddress",
                  "type": "address"
                },
                {
                  "internalType": "bytes",
                  "name": "payload",
                  "type": "bytes"
                }
              ],
              "internalType": "struct SharedObjects.EnygmaCrossTransferCallable[][]",
              "name": "callables",
              "type": "tuple[][]"
            },
            {
              "internalType": "address",
              "name": "from",
              "type": "address"
            },
            {
              "internalType": "bytes32",
              "name": "referenceId",
              "type": "bytes32"
            }
          ],
          "internalType": "struct SharedObjects.CCTransfer",
          "name": "_ccTransfer",
          "type": "tuple"
        }
      ],
      "name": "sendTransferCC",
      "outputs": [],
      "stateMutability": "nonpayable",
      "type": "function"
    },
    {
      "inputs": [
        {
          "internalType": "bytes32",
          "name": "_resourceId",
          "type": "bytes32"
        },
        {
          "internalType": "uint256",
          "name": "_nftId",
          "type": "uint256"
        },
        {
          "internalType": "bytes32",
          "name": "_nftResourceId",
          "type": "bytes32"
        },
        {
          "internalType": "uint256",
          "name": "_enygmaAmount",
          "type": "uint256"
        },
        {
          "internalType": "address",
          "name": "_from",
          "type": "address"
        },
        {
          "internalType": "uint256",
          "name": "_destChainId",
          "type": "uint256"
        },
        {
          "internalType": "bytes32",
          "name": "_sharedId",
          "type": "bytes32"
        },
        {
          "internalType": "bytes",
          "name": "_calldata",
          "type": "bytes"
        }
      ],
      "name": "swapWithZkDvpForERC721",
      "outputs": [],
      "stateMutability": "nonpayable",
      "type": "function"
    },
    {
      "inputs": [
        {
          "internalType": "bytes",
          "name": "encryptedMessage",
          "type": "bytes"
        }
      ],
      "name": "transferExecuted",
      "outputs": [],
      "stateMutability": "nonpayable",
      "type": "function"
    },
    {
      "inputs": [
        {
          "internalType": "bytes32",
          "name": "_resourceId",
          "type": "bytes32"
        },
        {
          "internalType": "uint256",
          "name": "amount",
          "type": "uint256"
        },
        {
          "internalType": "address",
          "name": "_to",
          "type": "address"
        },
        {
          "internalType": "bytes32",
          "name": "_referenceId",
          "type": "bytes32"
        }
      ],
      "name": "withdrawFromZkDvp",
      "outputs": [],
      "stateMutability": "nonpayable",
      "type": "function"
    },
    {
      "inputs": [
        {
          "internalType": "bytes32",
          "name": "_resourceId",
          "type": "bytes32"
        },
        {
          "internalType": "uint256",
          "name": "_nftId",
          "type": "uint256"
        }
      ],
      "name": "zkDvp721Burn",
      "outputs": [],
      "stateMutability": "nonpayable",
      "type": "function"
    },
    {
      "inputs": [
        {
          "internalType": "bytes32",
          "name": "_resourceId",
          "type": "bytes32"
        }
      ],
      "name": "zkDvp721Creation",
      "outputs": [],
      "stateMutability": "nonpayable",
      "type": "function"
    },
    {
      "inputs": [
        {
          "internalType": "bytes32",
          "name": "_resourceId",
          "type": "bytes32"
        },
        {
          "internalType": "uint256",
          "name": "_nftId",
          "type": "uint256"
        },
        {
          "internalType": "address",
          "name": "from",
          "type": "address"
        }
      ],
      "name": "zkDvp721DepositIntoZkDvp",
      "outputs": [],
      "stateMutability": "nonpayable",
      "type": "function"
    },
    {
      "inputs": [
        {
          "internalType": "bytes32",
          "name": "_resourceId",
          "type": "bytes32"
        },
        {
          "internalType": "uint256",
          "name": "_nftId",
          "type": "uint256"
        }
      ],
      "name": "zkDvp721Mint",
      "outputs": [],
      "stateMutability": "nonpayable",
      "type": "function"
    },
    {
      "inputs": [
        {
          "internalType": "bytes32",
          "name": "_resourceId",
          "type": "bytes32"
        },
        {
          "internalType": "uint256",
          "name": "_nftId",
          "type": "uint256"
        },
        {
          "internalType": "uint256",
          "name": "_destinationChainId",
          "type": "uint256"
        },
        {
          "internalType": "address",
          "name": "_destinationOwner",
          "type": "address"
        }
      ],
      "name": "zkDvp721SwapCompleted",
      "outputs": [],
      "stateMutability": "nonpayable",
      "type": "function"
    },
    {
      "inputs": [
        {
          "internalType": "bytes32",
          "name": "_nftResourceId",
          "type": "bytes32"
        },
        {
          "internalType": "uint256",
          "name": "_nftId",
          "type": "uint256"
        },
        {
          "internalType": "uint256",
          "name": "_enygmaAmount",
          "type": "uint256"
        },
        {
          "internalType": "bytes32",
          "name": "_enygmaResourceId",
          "type": "bytes32"
        },
        {
          "internalType": "address",
          "name": "_from",
          "type": "address"
        },
        {
          "internalType": "uint256",
          "name": "_destChainId",
          "type": "uint256"
        },
        {
          "internalType": "bytes32",
          "name": "_sharedId",
          "type": "bytes32"
        },
        {
          "internalType": "bytes",
          "name": "_calldata",
          "type": "bytes"
        }
      ],
      "name": "zkDvp721SwapForEnygma",
      "outputs": [],
      "stateMutability": "nonpayable",
      "type": "function"
    },
    {
      "inputs": [
        {
          "internalType": "bytes32",
          "name": "_resourceId",
          "type": "bytes32"
        },
        {
          "internalType": "uint256",
          "name": "_nftId",
          "type": "uint256"
        },
        {
          "internalType": "address",
          "name": "owner",
          "type": "address"
        }
      ],
      "name": "zkDvp721WithdrawFromZkDvp",
      "outputs": [],
      "stateMutability": "nonpayable",
      "type": "function"
    }
  ],
  "bytecode": "0x608060405234801561001057600080fd5b5060405161136938038061136983398101604081905261002f91610054565b600080546001600160a01b0319166001600160a01b0392909216919091179055610084565b60006020828403121561006657600080fd5b81516001600160a01b038116811461007d57600080fd5b9392505050565b6112d6806100936000396000f3fe608060405234801561001057600080fd5b50600436106101225760003560e01c80638afb9704116100a85780638afb9704146102265780638c9c14b51461023957806399004d791461024c5780639b39b39f1461025f5780639b80077214610272578063ab16522114610285578063af90f1c114610298578063b247d946146102ab578063d01d9eef146102bc578063e1856ff4146102cf578063f3c1bbc2146102e257600080fd5b80630113fd39146101275780630efac99a1461013c57806311f50c851461014f578063235beec81461017857806338743de91461018b5780633caf04761461019e5780635a368d1d146101b15780635f997c5b146101c45780636f181318146101db5780637a4084541461020b5780638129fc1c1461021e575b600080fd5b61013a61013536600461089f565b6102f5565b005b61013a61014a36600461089f565b61032c565b61016261015d36600461089f565b61035c565b60405161016f91906108b8565b60405180910390f35b61013a610186366004610c58565b6103d0565b61013a610199366004610d58565b610427565b61013a6101ac366004610de1565b610476565b61013a6101bf366004610d58565b6104b9565b6101cd60015481565b60405190815260200161016f565b61013a6101e9366004610e57565b600080546001600160a01b0319166001600160a01b0392909216919091179055565b61013a610219366004610e74565b6104f6565b61013a610534565b61013a610234366004610e96565b6105a0565b61013a610247366004610e74565b6105e0565b61013a61025a366004610ecf565b610616565b61013a61026d366004610f0e565b61064b565b61013a610280366004610ecf565b61067a565b61013a610293366004610f4a565b6106af565b61013a6102a6366004610f0e565b6106fc565b6000546001600160a01b0316610162565b61013a6102ca366004610e74565b610800565b61013a6102dd366004610e74565b610836565b61013a6102f0366004610e96565b61086c565b6040518181527fa03816f9e59950c96339d1549af03aa7adbe4e0889cbf6109856be63de68045d906020015b60405180910390a150565b6040518181527f4397bf52dd532b38a9817fdf5322118f385196ef47a4cc33fde446970997ed5490602001610321565b600080546040516311f50c8560e01b8152600481018490526001600160a01b03909116906311f50c8590602401602060405180830381865afa1580156103a6573d6000803e3d6000fd5b505050506040513d601f19601f820116820180604052508101906103ca9190610f8b565b92915050565b7ff7352a43ee736d7d71b65e679b5115947d0131cedfc7e4d61a12b28c66679321816000015182602001518360400151846060015185608001518660a001518760c0015160405161032197969594939291906110ef565b7f7aa0f88c231354eefeac14e6482763ed75479a3d898e67fea656b1036d7562ff888888888888888860405161046498979695949392919061119c565b60405180910390a15050505050505050565b7f489efbdeed278783d61c02fad16bbe7839e6416f21f2f4b07b4312fde2209cfc848484846040516104ab94939291906111f1565b60405180910390a150505050565b7f0ad71229bd8c96a2263b7e8ae2c8a77620767ffd09b8be5531e1931df30aaca4888888888888888860405161046498979695949392919061119c565b60408051838152602081018390527f8b5a4125fc43090730945216eec17cd692d01fa018219aeca16e26cf1482f98891015b60405180910390a15050565b6002600181905560005460405163d4f951c760e01b815260048101929092523060248301526001600160a01b03169063d4f951c790604401600060405180830381600087803b15801561058657600080fd5b505af115801561059a573d6000803e3d6000fd5b50505050565b7f605643e1fc521573f6055a418d53e0317518ac6e01bf62b41d8af1b83661e7698383836040516105d393929190611228565b60405180910390a1505050565b60408051838152602081018390527f62459cf5207bf4895d72ba552faeb90acfa36f5fd56097dccb2bee8aedb43dc39101610528565b7ff47d53bd67ba7906112d6fe139e15c292d22c372106b18fcd3faa1e0a5ec356d848484846040516104ab9493929190611247565b7fcdf2432082f1f071c2c88e6c0d3d5ea5d758f9131a754db75705ad753664bad181604051610321919061126b565b7f91186224550f8f7f3e97e15acf84de88b579dc9fd03a483c874ccba481d70785848484846040516104ab9493929190611247565b60408051858152602081018590529081018390526001600160a01b03821660608201527fc8a1472ac77797834c658a3b7de91bf3f0c0d2589778143da7394b1718e5d7fd906080016104ab565b6000546040516333932be560e11b81526001600160a01b039091169063672657ca9061072c9033906004016108b8565b602060405180830381865afa158015610749573d6000803e3d6000fd5b505050506040513d601f19601f8201168201806040525081019061076d919061127e565b6107f45760405162461bcd60e51b815260206004820152604860248201527f5468697320697320612072656365697665206d6574686f642e204f6e6c79206560448201527f6e64706f696e742773206578656375746f722063616e2063616c6c20746869736064820152671036b2ba3437b21760c11b608482015260a40160405180910390fd5b6107fd8161064b565b50565b60408051838152602081018390527f997ffab3c8232c231a97fceaccdd74477e4b132b94816d1f6ef5016c97f1a9b59101610528565b60408051838152602081018390527f83786b8dd0b92404155a27b69e6422fbe7d55fe78dd144eed7a2592ce780ac6b9101610528565b7fa726f7735a326e0b7c14c52979f65a0fb41b4415d03cc1e7d63a06899f7910a68383836040516105d393929190611228565b6000602082840312156108b157600080fd5b5035919050565b6001600160a01b0391909116815260200190565b634e487b7160e01b600052604160045260246000fd5b604051606081016001600160401b0381118282101715610904576109046108cc565b60405290565b60405160e081016001600160401b0381118282101715610904576109046108cc565b604051601f8201601f191681016001600160401b0381118282101715610954576109546108cc565b604052919050565b60006001600160401b03821115610975576109756108cc565b5060051b60200190565b600082601f83011261099057600080fd5b813560206109a56109a08361095c565b61092c565b8083825260208201915060208460051b8701019350868411156109c757600080fd5b602086015b848110156109e357803583529183019183016109cc565b509695505050505050565b6001600160a01b03811681146107fd57600080fd5b8035610a0e816109ee565b919050565b600082601f830112610a2457600080fd5b81356020610a346109a08361095c565b8083825260208201915060208460051b870101935086841115610a5657600080fd5b602086015b848110156109e3578035610a6e816109ee565b8352918301918301610a5b565b60006001600160401b03831115610a9457610a946108cc565b610aa7601f8401601f191660200161092c565b9050828152838383011115610abb57600080fd5b828260208301376000602084830101529392505050565b600082601f830112610ae357600080fd5b610af283833560208501610a7b565b9392505050565b600082601f830112610b0a57600080fd5b610b176109a0833561095c565b82358082526020808301929160051b850101851015610b3557600080fd5b602084015b6020853560051b860101811015610c4f576001600160401b038082351115610b6157600080fd5b8135860187603f820112610b7457600080fd5b610b846109a0602083013561095c565b602082810135808352908201919060051b83016040018a811115610ba757600080fd5b604084015b81811015610c38578581351115610bc257600080fd5b803585016060818e03603f19011215610bda57600080fd5b610be26108e2565b60408201358152610bf660608301356109ee565b606082013560208201528760808301351115610c1157600080fd5b610c248e60406080850135850101610ad2565b604082015285525060209384019301610bac565b505086525050602093840193919091019050610b3a565b50949350505050565b600060208284031215610c6a57600080fd5b81356001600160401b0380821115610c8157600080fd5b9083019060e08286031215610c9557600080fd5b610c9d61090a565b82358152602083013582811115610cb357600080fd5b610cbf8782860161097f565b602083015250604083013582811115610cd757600080fd5b610ce38782860161097f565b604083015250606083013582811115610cfb57600080fd5b610d0787828601610a13565b606083015250608083013582811115610d1f57600080fd5b610d2b87828601610af9565b608083015250610d3d60a08401610a03565b60a082015260c083013560c082015280935050505092915050565b600080600080600080600080610100898b031215610d7557600080fd5b883597506020890135965060408901359550606089013594506080890135610d9c816109ee565b935060a0890135925060c0890135915060e08901356001600160401b03811115610dc557600080fd5b610dd18b828c01610ad2565b9150509295985092959890939650565b60008060008060808587031215610df757600080fd5b84359350602085013592506040850135610e10816109ee565b915060608501356001600160401b03811115610e2b57600080fd5b8501601f81018713610e3c57600080fd5b610e4b87823560208401610a7b565b91505092959194509250565b600060208284031215610e6957600080fd5b8135610af2816109ee565b60008060408385031215610e8757600080fd5b50508035926020909101359150565b600080600060608486031215610eab57600080fd5b83359250602084013591506040840135610ec4816109ee565b809150509250925092565b60008060008060808587031215610ee557600080fd5b84359350602085013592506040850135610efe816109ee565b9396929550929360600135925050565b600060208284031215610f2057600080fd5b81356001600160401b03811115610f3657600080fd5b610f4284828501610ad2565b949350505050565b60008060008060808587031215610f6057600080fd5b8435935060208501359250604085013591506060850135610f80816109ee565b939692955090935050565b600060208284031215610f9d57600080fd5b8151610af2816109ee565b60008151808452602080850194506020840160005b83811015610fd957815187529582019590820190600101610fbd565b509495945050505050565b6000815180845260005b8181101561100a57602081850181015186830182015201610fee565b506000602082860101526020601f19601f83011685010191505092915050565b6000828251808552602080860195506005818360051b8501018287016000805b868110156110e057601f1988850381018c5283518051808752908801908887019080891b88018a01865b828110156110c957898203860184528451805183528c8101516001600160a01b03168d8401526040908101516060918401829052906110b581850183610fe4565b968e0196958e019593505050600101611074565b509e8a019e9750505093870193505060010161104a565b50919998505050505050505050565b8781526000602060e0602084015261110a60e084018a610fa8565b838103604085015261111c818a610fa8565b848103606086015288518082526020808b0193509091019060005b8181101561115c5783516001600160a01b031683529284019291840191600101611137565b50508481036080860152611170818961102a565b935050505061118a60a08301856001600160a01b03169052565b8260c083015298975050505050505050565b60006101008a835289602084015288604084015287606084015260018060a01b03871660808401528560a08401528460c08401528060e08401526111e281840185610fe4565b9b9a5050505050505050505050565b84815283602082015260018060a01b038316604082015260806060820152600061121e6080830184610fe4565b9695505050505050565b92835260208301919091526001600160a01b0316604082015260600190565b93845260208401929092526001600160a01b03166040830152606082015260800190565b602081526000610af26020830184610fe4565b60006020828403121561129057600080fd5b81518015158114610af257600080fdfea26469706673582212209e2503ec664e2ac360ac3e75afa972d14e2045e0d2c78765a78daa6d473591cc64736f6c63430008180033",
  "linkReferences": {},
  "deployedLinkReferences": {}
}