{
  "_format": "hh-sol-artifact-1",
  "contractName": "TokenRegistryReplicaV1",
  "sourceName": "src/rayls-protocol/TokenRegistryReplica/TokenRegistryReplicaV1.sol",
  "abi": [
    {
      "inputs": [
        {
          "internalType": "address",
          "name": "target",
          "type": "address"
        }
      ],
      "name": "AddressEmptyCode",
      "type": "error"
    },
    {
      "inputs": [
        {
          "internalType": "address",
          "name": "implementation",
          "type": "address"
        }
      ],
      "name": "ERC1967InvalidImplementation",
      "type": "error"
    },
    {
      "inputs": [],
      "name": "ERC1967NonPayable",
      "type": "error"
    },
    {
      "inputs": [],
      "name": "FailedInnerCall",
      "type": "error"
    },
    {
      "inputs": [],
      "name": "InvalidInitialization",
      "type": "error"
    },
    {
      "inputs": [],
      "name": "NotInitializing",
      "type": "error"
    },
    {
      "inputs": [
        {
          "internalType": "address",
          "name": "owner",
          "type": "address"
        }
      ],
      "name": "OwnableInvalidOwner",
      "type": "error"
    },
    {
      "inputs": [
        {
          "internalType": "address",
          "name": "account",
          "type": "address"
        }
      ],
      "name": "OwnableUnauthorizedAccount",
      "type": "error"
    },
    {
      "inputs": [],
      "name": "TokenIsFrozenForParticipant",
      "type": "error"
    },
    {
      "inputs": [],
      "name": "UUPSUnauthorizedCallContext",
      "type": "error"
    },
    {
      "inputs": [
        {
          "internalType": "bytes32",
          "name": "slot",
          "type": "bytes32"
        }
      ],
      "name": "UUPSUnsupportedProxiableUUID",
      "type": "error"
    },
    {
      "anonymous": false,
      "inputs": [
        {
          "indexed": false,
          "internalType": "uint64",
          "name": "version",
          "type": "uint64"
        }
      ],
      "name": "Initialized",
      "type": "event"
    },
    {
      "anonymous": false,
      "inputs": [
        {
          "indexed": true,
          "internalType": "address",
          "name": "previousOwner",
          "type": "address"
        },
        {
          "indexed": true,
          "internalType": "address",
          "name": "newOwner",
          "type": "address"
        }
      ],
      "name": "OwnershipTransferred",
      "type": "event"
    },
    {
      "anonymous": false,
      "inputs": [
        {
          "indexed": true,
          "internalType": "address",
          "name": "implementation",
          "type": "address"
        }
      ],
      "name": "Upgraded",
      "type": "event"
    },
    {
      "inputs": [],
      "name": "UPGRADE_INTERFACE_VERSION",
      "outputs": [
        {
          "internalType": "string",
          "name": "",
          "type": "string"
        }
      ],
      "stateMutability": "view",
      "type": "function"
    },
    {
      "inputs": [],
      "name": "contractVersion",
      "outputs": [
        {
          "internalType": "uint256",
          "name": "",
          "type": "uint256"
        }
      ],
      "stateMutability": "pure",
      "type": "function"
    },
    {
      "inputs": [],
      "name": "endpoint",
      "outputs": [
        {
          "internalType": "contract IRaylsEndpoint",
          "name": "",
          "type": "address"
        }
      ],
      "stateMutability": "view",
      "type": "function"
    },
    {
      "inputs": [
        {
          "internalType": "bytes32",
          "name": "_resourceId",
          "type": "bytes32"
        }
      ],
      "name": "getAddressByResourceId",
      "outputs": [
        {
          "internalType": "address",
          "name": "",
          "type": "address"
        }
      ],
      "stateMutability": "view",
      "type": "function"
    },
    {
      "inputs": [
        {
          "internalType": "bytes32",
          "name": "resourceId",
          "type": "bytes32"
        },
        {
          "internalType": "uint256",
          "name": "chainId",
          "type": "uint256"
        }
      ],
      "name": "getFrozenTokenForParticipant",
      "outputs": [
        {
          "internalType": "bool",
          "name": "",
          "type": "bool"
        }
      ],
      "stateMutability": "view",
      "type": "function"
    },
    {
      "inputs": [
        {
          "internalType": "address",
          "name": "initialOwner",
          "type": "address"
        },
        {
          "internalType": "address",
          "name": "_endpoint",
          "type": "address"
        }
      ],
      "name": "initialize",
      "outputs": [],
      "stateMutability": "nonpayable",
      "type": "function"
    },
    {
      "inputs": [
        {
          "internalType": "address",
          "name": "_endpoint",
          "type": "address"
        }
      ],
      "name": "initialize",
      "outputs": [],
      "stateMutability": "nonpayable",
      "type": "function"
    },
    {
      "inputs": [],
      "name": "owner",
      "outputs": [
        {
          "internalType": "address",
          "name": "",
          "type": "address"
        }
      ],
      "stateMutability": "view",
      "type": "function"
    },
    {
      "inputs": [],
      "name": "proxiableUUID",
      "outputs": [
        {
          "internalType": "bytes32",
          "name": "",
          "type": "bytes32"
        }
      ],
      "stateMutability": "view",
      "type": "function"
    },
    {
      "inputs": [
        {
          "components": [
            {
              "internalType": "bytes32",
              "name": "resourceId",
              "type": "bytes32"
            },
            {
              "internalType": "uint256[]",
              "name": "frozenParticipants",
              "type": "uint256[]"
            }
          ],
          "internalType": "struct TokenRegistryV1.FrozenToken",
          "name": "_unfrozenToken",
          "type": "tuple"
        }
      ],
      "name": "removeFrozenToken",
      "outputs": [],
      "stateMutability": "nonpayable",
      "type": "function"
    },
    {
      "inputs": [],
      "name": "renounceOwnership",
      "outputs": [],
      "stateMutability": "nonpayable",
      "type": "function"
    },
    {
      "inputs": [],
      "name": "requestAllFrozenTokensDataFromCommitChain",
      "outputs": [],
      "stateMutability": "nonpayable",
      "type": "function"
    },
    {
      "inputs": [],
      "name": "resourceId",
      "outputs": [
        {
          "internalType": "bytes32",
          "name": "",
          "type": "bytes32"
        }
      ],
      "stateMutability": "view",
      "type": "function"
    },
    {
      "inputs": [
        {
          "components": [
            {
              "internalType": "bytes32",
              "name": "resourceId",
              "type": "bytes32"
            },
            {
              "internalType": "uint256[]",
              "name": "frozenParticipants",
              "type": "uint256[]"
            }
          ],
          "internalType": "struct TokenRegistryV1.FrozenToken[]",
          "name": "_frozenTokens",
          "type": "tuple[]"
        }
      ],
      "name": "syncFrozenTokens",
      "outputs": [],
      "stateMutability": "nonpayable",
      "type": "function"
    },
    {
      "inputs": [
        {
          "internalType": "address",
          "name": "newOwner",
          "type": "address"
        }
      ],
      "name": "transferOwnership",
      "outputs": [],
      "stateMutability": "nonpayable",
      "type": "function"
    },
    {
      "inputs": [
        {
          "components": [
            {
              "internalType": "bytes32",
              "name": "resourceId",
              "type": "bytes32"
            },
            {
              "internalType": "uint256[]",
              "name": "frozenParticipants",
              "type": "uint256[]"
            }
          ],
          "internalType": "struct TokenRegistryV1.FrozenToken",
          "name": "_frozenToken",
          "type": "tuple"
        }
      ],
      "name": "updateFrozenToken",
      "outputs": [],
      "stateMutability": "nonpayable",
      "type": "function"
    },
    {
      "inputs": [
        {
          "internalType": "address",
          "name": "newImplementation",
          "type": "address"
        },
        {
          "internalType": "bytes",
          "name": "data",
          "type": "bytes"
        }
      ],
      "name": "upgradeToAndCall",
      "outputs": [],
      "stateMutability": "payable",
      "type": "function"
    },
    {
      "inputs": [
        {
          "internalType": "bytes32",
          "name": "resourceId",
          "type": "bytes32"
        },
        {
          "internalType": "uint256",
          "name": "chainId",
          "type": "uint256"
        }
      ],
      "name": "validateTokenForParticipant",
      "outputs": [],
      "stateMutability": "view",
      "type": "function"
    }
  ],
  "bytecode": "0x60a06040523060805234801561001457600080fd5b506080516117c661003e60003960008181610d5301528181610d7c0152610eb401526117c66000f3fe6080604052600436106100e95760003560e01c80638da5cb5b116100855780638da5cb5b146102325780639eb7b4eb14610247578063a0a8e46014610267578063ad3cb1cc1461027b578063c3034ec0146102b9578063c4d66de8146102d9578063ca6936c0146102f9578063f2fde38b1461030e578063f5aeb4341461032e57600080fd5b806311f50c85146100ee578063222e1b1614610124578063485cc955146101465780634f1ef2861461016657806352d1902d146101795780635e280f111461019c5780635f997c5b146101bc578063715018a6146101d257806378dd4e6f146101e7575b600080fd5b3480156100fa57600080fd5b5061010e61010936600461123a565b61034e565b60405161011b9190611253565b60405180910390f35b34801561013057600080fd5b5061014461013f366004611267565b6103c2565b005b34801561015257600080fd5b506101446101613660046112f0565b6105f5565b61014461017436600461133f565b61077c565b34801561018557600080fd5b5061018e61079b565b60405190815260200161011b565b3480156101a857600080fd5b5060005461010e906001600160a01b031681565b3480156101c857600080fd5b5061018e60015481565b3480156101de57600080fd5b506101446107b9565b3480156101f357600080fd5b50610222610202366004611402565b600091825260026020908152604080842092845291905290205460ff1690565b604051901515815260200161011b565b34801561023e57600080fd5b5061010e6107cd565b34801561025357600080fd5b50610144610262366004611424565b6107e8565b34801561027357600080fd5b50600161018e565b34801561028757600080fd5b506102ac604051806040016040528060058152602001640352e302e360dc1b81525081565b60405161011b91906114ae565b3480156102c557600080fd5b506101446102d4366004611402565b6109a6565b3480156102e557600080fd5b506101446102f43660046114c1565b6109e1565b34801561030557600080fd5b50610144610a0b565b34801561031a57600080fd5b506101446103293660046114c1565b610b00565b34801561033a57600080fd5b50610144610349366004611424565b610b3b565b600080546040516311f50c8560e01b8152600481018490526001600160a01b03909116906311f50c8590602401602060405180830381865afa158015610398573d6000803e3d6000fd5b505050506040513d601f19601f820116820180604052508101906103bc91906114de565b92915050565b6000546040516333932be560e11b81526001600160a01b039091169063672657ca906103f2903390600401611253565b602060405180830381865afa15801561040f573d6000803e3d6000fd5b505050506040513d601f19601f8201168201806040525081019061043391906114fb565b6104585760405162461bcd60e51b815260040161044f9061151d565b60405180910390fd5b60008054906101000a90046001600160a01b03166001600160a01b0316632232a4e26040518163ffffffff1660e01b8152600401602060405180830381865afa1580156104a9573d6000803e3d6000fd5b505050506040513d601f19601f820116820180604052508101906104cd919061158b565b6104d5610cf7565b146104f25760405162461bcd60e51b815260040161044f906115a4565b60005b818110156105f0576000838383818110610511576105116115f5565b9050602002810190610523919061160b565b35905060005b84848481811061053b5761053b6115f5565b905060200281019061054d919061160b565b61055b90602081019061162b565b90508110156105e6576000858585818110610578576105786115f5565b905060200281019061058a919061160b565b61059890602081019061162b565b838181106105a8576105a86115f5565b6000868152600260209081526040808320938202959095013582529190915291909120805460ff191660019081179091559290920191506105299050565b50506001016104f5565b505050565b60006105ff610d0b565b805490915060ff600160401b82041615906001600160401b03166000811580156106265750825b90506000826001600160401b031660011480156106425750303b155b905081158015610650575080155b1561066e5760405163f92ee8a960e01b815260040160405180910390fd5b845467ffffffffffffffff19166001178555831561069857845460ff60401b1916600160401b1785555b6106a187610d2f565b6106a9610d40565b6106b2866109e1565b600080546001600160a01b0319166001600160a01b0388169081179091556003600181905560405163d4f951c760e01b8152600481019190915230602482015263d4f951c790604401600060405180830381600087803b15801561071557600080fd5b505af1158015610729573d6000803e3d6000fd5b50505050831561077357845460ff60401b19168555604051600181527fc7f505b2f371ae2175ee4913f4499e1f2633a7b5936321eed1cdaeb6115181d29060200160405180910390a15b50505050505050565b610784610d48565b61078d82610ded565b6107978282610df5565b5050565b60006107a5610ea9565b506000805160206117718339815191525b90565b6107c1610ef2565b6107cb6000610f24565b565b6000806107d8610f80565b546001600160a01b031692915050565b6000546040516333932be560e11b81526001600160a01b039091169063672657ca90610818903390600401611253565b602060405180830381865afa158015610835573d6000803e3d6000fd5b505050506040513d601f19601f8201168201806040525081019061085991906114fb565b6108755760405162461bcd60e51b815260040161044f9061151d565b60008054906101000a90046001600160a01b03166001600160a01b0316632232a4e26040518163ffffffff1660e01b8152600401602060405180830381865afa1580156108c6573d6000803e3d6000fd5b505050506040513d601f19601f820116820180604052508101906108ea919061158b565b6108f2610cf7565b1461090f5760405162461bcd60e51b815260040161044f906115a4565b803560005b610921602084018461162b565b90508110156105f0576000610939602085018561162b565b83818110610949576109496115f5565b6000868152600260209081526040808320938202959095013580835292905292909220549192505060ff1661099d5760008381526002602090815260408083208484529091529020805460ff191660011790555b50600101610914565b600082815260026020908152604080832084845290915290205460ff16156107975760405163164d0b9960e21b815260040160405180910390fd5b6109e9610fa4565b600080546001600160a01b0319166001600160a01b0392909216919091179055565b6040805160c08101825260008082526020808301829052828401829052606083018290526080830182905260a0830182905290548351631119527160e11b815293519293610afd936001600160a01b0390921692632232a4e2926004808401938290030181865afa158015610a84573d6000803e3d6000fd5b505050506040513d601f19601f82011682018060405250810190610aa8919061158b565b6001546040805160048152602481018252602080820180516001600160e01b031663127dbb8f60e21b179052825180820184526000808252845180840186528181528551938401909552825291929087610fc9565b50565b610b08610ef2565b6001600160a01b038116610b32576000604051631e4fbdf760e01b815260040161044f9190611253565b610afd81610f24565b6000546040516333932be560e11b81526001600160a01b039091169063672657ca90610b6b903390600401611253565b602060405180830381865afa158015610b88573d6000803e3d6000fd5b505050506040513d601f19601f82011682018060405250810190610bac91906114fb565b610bc85760405162461bcd60e51b815260040161044f9061151d565b60008054906101000a90046001600160a01b03166001600160a01b0316632232a4e26040518163ffffffff1660e01b8152600401602060405180830381865afa158015610c19573d6000803e3d6000fd5b505050506040513d601f19601f82011682018060405250810190610c3d919061158b565b610c45610cf7565b14610c625760405162461bcd60e51b815260040161044f906115a4565b803560005b610c74602084018461162b565b90508110156105f0576000610c8c602085018561162b565b83818110610c9c57610c9c6115f5565b6000868152600260209081526040808320938202959095013580835292905292909220549192505060ff1615610cee5760008381526002602090815260408083208484529091529020805460ff191690555b50600101610c67565b6000603436106107b6575060331936013590565b7ff0c57e16840df040f15088dc2f81fe391c3923bec73e23a9662efc9c229c6a0090565b610d37610fa4565b610afd81611052565b6107cb610fa4565b306001600160a01b037f0000000000000000000000000000000000000000000000000000000000000000161480610dcf57507f00000000000000000000000000000000000000000000000000000000000000006001600160a01b0316610dc3600080516020611771833981519152546001600160a01b031690565b6001600160a01b031614155b156107cb5760405163703e46dd60e11b815260040160405180910390fd5b610afd610ef2565b816001600160a01b03166352d1902d6040518163ffffffff1660e01b8152600401602060405180830381865afa925050508015610e4f575060408051601f3d908101601f19168201909252610e4c9181019061158b565b60015b610e6e5781604051634c9c8ce360e01b815260040161044f9190611253565b6000805160206117718339815191528114610e9f57604051632a87526960e21b81526004810182905260240161044f565b6105f0838361105a565b306001600160a01b037f000000000000000000000000000000000000000000000000000000000000000016146107cb5760405163703e46dd60e11b815260040160405180910390fd5b33610efb6107cd565b6001600160a01b0316146107cb573360405163118cdaa760e01b815260040161044f9190611253565b6000610f2e610f80565b80546001600160a01b038481166001600160a01b031983168117845560405193945091169182907f8be0079c531659141344cd1fd0a4f28419497f9722a3daafe3b4186f6b6457e090600090a3505050565b7f9016d09d72d40fdae2fd8ceac6b6234c7706214fd39c1cd1e609a0528c19930090565b610fac6110b0565b6107cb57604051631afcd79f60e31b815260040160405180910390fd5b600054604051631075c5d160e21b81526001600160a01b03909116906341d7174490611005908a908a908a908a908a908a908a9060040161167b565b6020604051808303816000875af1158015611024573d6000803e3d6000fd5b505050506040513d601f19601f82011682018060405250810190611048919061158b565b5050505050505050565b610b08610fa4565b611063826110ca565b6040516001600160a01b038316907fbc7cd75a20ee27fd9adebab32041f755214dbc6bffa90cc0225b39da2e5c2d3b90600090a28051156110a8576105f08282611126565b61079761119c565b60006110ba610d0b565b54600160401b900460ff16919050565b806001600160a01b03163b6000036110f75780604051634c9c8ce360e01b815260040161044f9190611253565b60008051602061177183398151915280546001600160a01b0319166001600160a01b0392909216919091179055565b6060600080846001600160a01b031684604051611143919061175e565b600060405180830381855af49150503d806000811461117e576040519150601f19603f3d011682016040523d82523d6000602084013e611183565b606091505b50915091506111938583836111bb565b95945050505050565b34156107cb5760405163b398979f60e01b815260040160405180910390fd5b6060826111d0576111cb82611211565b61120a565b81511580156111e757506001600160a01b0384163b155b156112075783604051639996b31560e01b815260040161044f9190611253565b50805b9392505050565b8051156112215780518082602001fd5b604051630a12f52160e11b815260040160405180910390fd5b60006020828403121561124c57600080fd5b5035919050565b6001600160a01b0391909116815260200190565b6000806020838503121561127a57600080fd5b82356001600160401b038082111561129157600080fd5b818501915085601f8301126112a557600080fd5b8135818111156112b457600080fd5b8660208260051b85010111156112c957600080fd5b60209290920196919550909350505050565b6001600160a01b0381168114610afd57600080fd5b6000806040838503121561130357600080fd5b823561130e816112db565b9150602083013561131e816112db565b809150509250929050565b634e487b7160e01b600052604160045260246000fd5b6000806040838503121561135257600080fd5b823561135d816112db565b915060208301356001600160401b038082111561137957600080fd5b818501915085601f83011261138d57600080fd5b81358181111561139f5761139f611329565b604051601f8201601f19908116603f011681019083821181831017156113c7576113c7611329565b816040528281528860208487010111156113e057600080fd5b8260208601602083013760006020848301015280955050505050509250929050565b6000806040838503121561141557600080fd5b50508035926020909101359150565b60006020828403121561143657600080fd5b81356001600160401b0381111561144c57600080fd5b82016040818503121561120a57600080fd5b60005b83811015611479578181015183820152602001611461565b50506000910152565b6000815180845261149a81602086016020860161145e565b601f01601f19169290920160200192915050565b60208152600061120a6020830184611482565b6000602082840312156114d357600080fd5b813561120a816112db565b6000602082840312156114f057600080fd5b815161120a816112db565b60006020828403121561150d57600080fd5b8151801515811461120a57600080fd5b60208082526048908201527f5468697320697320612072656365697665206d6574686f642e204f6e6c79206560408201527f6e64706f696e742773206578656375746f722063616e2063616c6c20746869736060820152671036b2ba3437b21760c11b608082015260a00190565b60006020828403121561159d57600080fd5b5051919050565b60208082526031908201527f54686973206d6574686f64206f6e6c7920726563656976652063616c6c7320666040820152703937b69031b7b6b6b4ba1031b430b4b71760791b606082015260800190565b634e487b7160e01b600052603260045260246000fd5b60008235603e1983360301811261162157600080fd5b9190910192915050565b6000808335601e1984360301811261164257600080fd5b8301803591506001600160401b0382111561165c57600080fd5b6020019150600581901b360382131561167457600080fd5b9250929050565b600061018089835288602084015280604084015261169b81840189611482565b905082810360608401526116af8188611482565b905082810360808401526116c38187611482565b905082810360a08401526116d78186611482565b9150508251600581106116fa57634e487b7160e01b600052602160045260246000fd5b60c0830152602083015160e083015260408301516001600160a01b0390811661010084015260608401511661012083015260808301516117466101408401826001600160a01b03169052565b5060a083015161016083015298975050505050505050565b6000825161162181846020870161145e56fe360894a13ba1a3210667c828492db98dca3e2076cc3735a920a3ca505d382bbca264697066735822122055b579efd676fb504f4841fd9cde070314edf15fae8d9c165ff7981c77ee89a164736f6c63430008180033",
  "linkReferences": {},
  "deployedLinkReferences": {}
}