{
  "_format": "hh-sol-artifact-1",
  "contractName": "DeploymentProxyRegistry",
  "sourceName": "src/commitChain/DeploymentProxyRegistry/DeploymentProxyRegistry.sol",
  "abi": [
    {
      "inputs": [],
      "stateMutability": "nonpayable",
      "type": "constructor"
    },
    {
      "inputs": [],
      "name": "AccessControlBadConfirmation",
      "type": "error"
    },
    {
      "inputs": [
        {
          "internalType": "address",
          "name": "account",
          "type": "address"
        },
        {
          "internalType": "bytes32",
          "name": "neededRole",
          "type": "bytes32"
        }
      ],
      "name": "AccessControlUnauthorizedAccount",
      "type": "error"
    },
    {
      "anonymous": false,
      "inputs": [
        {
          "indexed": true,
          "internalType": "address",
          "name": "resourceRegistryAddress",
          "type": "address"
        },
        {
          "indexed": true,
          "internalType": "address",
          "name": "teleportAddress",
          "type": "address"
        },
        {
          "indexed": true,
          "internalType": "address",
          "name": "endpointAddress",
          "type": "address"
        },
        {
          "indexed": false,
          "internalType": "address",
          "name": "tokenRegistryAddress",
          "type": "address"
        },
        {
          "indexed": false,
          "internalType": "address",
          "name": "proofsAddress",
          "type": "address"
        },
        {
          "indexed": false,
          "internalType": "address",
          "name": "participantStorageAddress",
          "type": "address"
        },
        {
          "indexed": false,
          "internalType": "address",
          "name": "zkDvpAddress",
          "type": "address"
        },
        {
          "indexed": false,
          "internalType": "address",
          "name": "zkDvpTeleportAddress",
          "type": "address"
        },
        {
          "indexed": false,
          "internalType": "address",
          "name": "zkDvpAssetFactoryAddress",
          "type": "address"
        },
        {
          "indexed": false,
          "internalType": "address",
          "name": "enygmaCCEventsAddress",
          "type": "address"
        }
      ],
      "name": "DeploymentUpdated",
      "type": "event"
    },
    {
      "anonymous": false,
      "inputs": [
        {
          "indexed": true,
          "internalType": "bytes32",
          "name": "role",
          "type": "bytes32"
        },
        {
          "indexed": true,
          "internalType": "bytes32",
          "name": "previousAdminRole",
          "type": "bytes32"
        },
        {
          "indexed": true,
          "internalType": "bytes32",
          "name": "newAdminRole",
          "type": "bytes32"
        }
      ],
      "name": "RoleAdminChanged",
      "type": "event"
    },
    {
      "anonymous": false,
      "inputs": [
        {
          "indexed": true,
          "internalType": "bytes32",
          "name": "role",
          "type": "bytes32"
        },
        {
          "indexed": true,
          "internalType": "address",
          "name": "account",
          "type": "address"
        },
        {
          "indexed": true,
          "internalType": "address",
          "name": "sender",
          "type": "address"
        }
      ],
      "name": "RoleGranted",
      "type": "event"
    },
    {
      "anonymous": false,
      "inputs": [
        {
          "indexed": true,
          "internalType": "bytes32",
          "name": "role",
          "type": "bytes32"
        },
        {
          "indexed": true,
          "internalType": "address",
          "name": "account",
          "type": "address"
        },
        {
          "indexed": true,
          "internalType": "address",
          "name": "sender",
          "type": "address"
        }
      ],
      "name": "RoleRevoked",
      "type": "event"
    },
    {
      "inputs": [],
      "name": "DEFAULT_ADMIN_ROLE",
      "outputs": [
        {
          "internalType": "bytes32",
          "name": "",
          "type": "bytes32"
        }
      ],
      "stateMutability": "view",
      "type": "function"
    },
    {
      "inputs": [],
      "name": "deployment",
      "outputs": [
        {
          "internalType": "address",
          "name": "resourceRegistryAddress",
          "type": "address"
        },
        {
          "internalType": "address",
          "name": "teleportAddress",
          "type": "address"
        },
        {
          "internalType": "address",
          "name": "endpointAddress",
          "type": "address"
        },
        {
          "internalType": "address",
          "name": "tokenRegistryAddress",
          "type": "address"
        },
        {
          "internalType": "address",
          "name": "proofsAddress",
          "type": "address"
        },
        {
          "internalType": "address",
          "name": "participantStorageAddress",
          "type": "address"
        },
        {
          "internalType": "address",
          "name": "zkDvpAddress",
          "type": "address"
        },
        {
          "internalType": "address",
          "name": "zkDvpTeleportAddress",
          "type": "address"
        },
        {
          "internalType": "address",
          "name": "zkDvpAssetFactoryAddress",
          "type": "address"
        },
        {
          "internalType": "address",
          "name": "enygmaCCEventsAddress",
          "type": "address"
        }
      ],
      "stateMutability": "view",
      "type": "function"
    },
    {
      "inputs": [],
      "name": "getDeployment",
      "outputs": [
        {
          "components": [
            {
              "internalType": "address",
              "name": "resourceRegistryAddress",
              "type": "address"
            },
            {
              "internalType": "address",
              "name": "teleportAddress",
              "type": "address"
            },
            {
              "internalType": "address",
              "name": "endpointAddress",
              "type": "address"
            },
            {
              "internalType": "address",
              "name": "tokenRegistryAddress",
              "type": "address"
            },
            {
              "internalType": "address",
              "name": "proofsAddress",
              "type": "address"
            },
            {
              "internalType": "address",
              "name": "participantStorageAddress",
              "type": "address"
            },
            {
              "internalType": "address",
              "name": "zkDvpAddress",
              "type": "address"
            },
            {
              "internalType": "address",
              "name": "zkDvpTeleportAddress",
              "type": "address"
            },
            {
              "internalType": "address",
              "name": "zkDvpAssetFactoryAddress",
              "type": "address"
            },
            {
              "internalType": "address",
              "name": "enygmaCCEventsAddress",
              "type": "address"
            }
          ],
          "internalType": "struct Deployment",
          "name": "",
          "type": "tuple"
        }
      ],
      "stateMutability": "view",
      "type": "function"
    },
    {
      "inputs": [
        {
          "internalType": "bytes32",
          "name": "role",
          "type": "bytes32"
        }
      ],
      "name": "getRoleAdmin",
      "outputs": [
        {
          "internalType": "bytes32",
          "name": "",
          "type": "bytes32"
        }
      ],
      "stateMutability": "view",
      "type": "function"
    },
    {
      "inputs": [
        {
          "internalType": "bytes32",
          "name": "role",
          "type": "bytes32"
        },
        {
          "internalType": "address",
          "name": "account",
          "type": "address"
        }
      ],
      "name": "grantRole",
      "outputs": [],
      "stateMutability": "nonpayable",
      "type": "function"
    },
    {
      "inputs": [
        {
          "internalType": "bytes32",
          "name": "role",
          "type": "bytes32"
        },
        {
          "internalType": "address",
          "name": "account",
          "type": "address"
        }
      ],
      "name": "hasRole",
      "outputs": [
        {
          "internalType": "bool",
          "name": "",
          "type": "bool"
        }
      ],
      "stateMutability": "view",
      "type": "function"
    },
    {
      "inputs": [
        {
          "internalType": "bytes32",
          "name": "role",
          "type": "bytes32"
        },
        {
          "internalType": "address",
          "name": "callerConfirmation",
          "type": "address"
        }
      ],
      "name": "renounceRole",
      "outputs": [],
      "stateMutability": "nonpayable",
      "type": "function"
    },
    {
      "inputs": [
        {
          "internalType": "bytes32",
          "name": "role",
          "type": "bytes32"
        },
        {
          "internalType": "address",
          "name": "account",
          "type": "address"
        }
      ],
      "name": "revokeRole",
      "outputs": [],
      "stateMutability": "nonpayable",
      "type": "function"
    },
    {
      "inputs": [
        {
          "internalType": "address",
          "name": "resourceRegistryAddress",
          "type": "address"
        },
        {
          "internalType": "address",
          "name": "teleportAddress",
          "type": "address"
        },
        {
          "internalType": "address",
          "name": "endpointAddress",
          "type": "address"
        },
        {
          "internalType": "address",
          "name": "tokenRegistryAddress",
          "type": "address"
        },
        {
          "internalType": "address",
          "name": "proofsAddress",
          "type": "address"
        },
        {
          "internalType": "address",
          "name": "participantStorageAddress",
          "type": "address"
        },
        {
          "internalType": "address",
          "name": "zkDvpAddress",
          "type": "address"
        },
        {
          "internalType": "address",
          "name": "zkDvpTeleportAddress",
          "type": "address"
        },
        {
          "internalType": "address",
          "name": "zkDvpAssetFactoryAddress",
          "type": "address"
        },
        {
          "internalType": "address",
          "name": "enygmaCCEventsAddress",
          "type": "address"
        }
      ],
      "name": "setDeployment",
      "outputs": [],
      "stateMutability": "nonpayable",
      "type": "function"
    },
    {
      "inputs": [
        {
          "internalType": "bytes4",
          "name": "interfaceId",
          "type": "bytes4"
        }
      ],
      "name": "supportsInterface",
      "outputs": [
        {
          "internalType": "bool",
          "name": "",
          "type": "bool"
        }
      ],
      "stateMutability": "view",
      "type": "function"
    }
  ],
  "bytecode": "0x608060405234801561001057600080fd5b5061001c600033610022565b506100ce565b6000828152602081815260408083206001600160a01b038516845290915281205460ff166100c4576000838152602081815260408083206001600160a01b03861684529091529020805460ff1916600117905561007c3390565b6001600160a01b0316826001600160a01b0316847f2f8788117e7eff1d82e926ec794901d17c78024a50270940304540a733656f0d60405160405180910390a45060016100c8565b5060005b92915050565b610ca7806100dd6000396000f3fe608060405234801561001057600080fd5b506004361061008e5760003560e01c806301ffc9a714610093578063248a9ca3146100bb5780632dde9aca146100ec5780632f2ff15d1461019957806336568abe146101ae5780638011e1fd146101c157806391d14854146102a0578063a217fddf146102b3578063a33e1bc3146102bb578063d547741f146102ce575b600080fd5b6100a66100a1366004610a4f565b6102e1565b60405190151581526020015b60405180910390f35b6100de6100c9366004610a80565b60009081526020819052604090206001015490565b6040519081526020016100b2565b600154600254600354600454600554600654600754600854600954600a54610136996001600160a01b0390811699811698811697811696811695811694811693811692811691168a565b604080516001600160a01b039b8c168152998b1660208b0152978a16978901979097529488166060880152928716608087015290861660a0860152851660c0850152841660e08401528316610100830152909116610120820152610140016100b2565b6101ac6101a7366004610ac2565b610318565b005b6101ac6101bc366004610ac2565b610343565b6102936040805161014081018252600080825260208201819052918101829052606081018290526080810182905260a0810182905260c0810182905260e0810182905261010081018290526101208101919091525060408051610140810182526001546001600160a01b039081168252600254811660208301526003548116928201929092526004548216606082015260055482166080820152600654821660a0820152600754821660c0820152600854821660e08201526009548216610100820152600a5490911661012082015290565b6040516100b29190610aee565b6100a66102ae366004610ac2565b61037b565b6100de600081565b6101ac6102c9366004610bb7565b6103a4565b6101ac6102dc366004610ac2565b6108e3565b60006001600160e01b03198216637965db0b60e01b148061031257506301ffc9a760e01b6001600160e01b03198316145b92915050565b60008281526020819052604090206001015461033381610908565b61033d8383610915565b50505050565b6001600160a01b038116331461036c5760405163334bd91960e11b815260040160405180910390fd5b61037682826109a7565b505050565b6000918252602082815260408084206001600160a01b0393909316845291905290205460ff1690565b60006103af81610908565b6003546001600160a01b0316156104195760405162461bcd60e51b8152602060048201526024808201527f4465706c6f796d656e7420726567697374727920616c726561647920646566696044820152633732b21760e11b60648201526084015b60405180910390fd5b6001600160a01b038b1661046f5760405162461bcd60e51b815260206004820152601f60248201527f496e76616c6964207265736f75726365526567697374727941646472657373006044820152606401610410565b6001600160a01b038a166104bf5760405162461bcd60e51b8152602060048201526017602482015276496e76616c69642074656c65706f72744164647265737360481b6044820152606401610410565b6001600160a01b03891661050f5760405162461bcd60e51b8152602060048201526017602482015276496e76616c696420656e64706f696e744164647265737360481b6044820152606401610410565b6001600160a01b0388166105655760405162461bcd60e51b815260206004820152601c60248201527f496e76616c696420746f6b656e526567697374727941646472657373000000006044820152606401610410565b6001600160a01b0387166105b35760405162461bcd60e51b8152602060048201526015602482015274496e76616c69642070726f6f66734164647265737360581b6044820152606401610410565b6001600160a01b0386166106135760405162461bcd60e51b815260206004820152602160248201527f496e76616c6964207061727469636970616e7453746f726167654164647265736044820152607360f81b6064820152608401610410565b6001600160a01b0384166106695760405162461bcd60e51b815260206004820152601c60248201527f496e76616c6964207a6b44767054656c65706f727441646472657373000000006044820152606401610410565b6001600160a01b0385166106b65760405162461bcd60e51b8152602060048201526014602482015273496e76616c6964207a6b4476704164647265737360601b6044820152606401610410565b6001600160a01b03831661070c5760405162461bcd60e51b815260206004820181905260248201527f496e76616c6964207a6b4476704173736574466163746f7279416464726573736044820152606401610410565b6001600160a01b0382166107625760405162461bcd60e51b815260206004820152601d60248201527f496e76616c696420656e79676d6143434576656e7473416464726573730000006044820152606401610410565b60408051610140810182526001600160a01b03808e168083528d8216602084018190528d83168486018190528d8416606086018190528d8516608087018190528d861660a088018190528d871660c089018190528d881660e08a018190528d89166101008b01819052988d16610120909a018a9052600180546001600160a01b03199081168a17909155600280548216891790556003805482168817905560048054821690961790955560058054861690941790935560068054851690921790915560078054841690911790556008805483169091179055600980548216909517909455600a80549094169094179092559251919290917f4e305f3c504bd5490df7adbffb5e05e085d55b65f2b86f7e61f456f6638e80ff906108ce908d908d908d908d908d908d908d906001600160a01b03978816815295871660208701529386166040860152918516606085015284166080840152831660a083015290911660c082015260e00190565b60405180910390a45050505050505050505050565b6000828152602081905260409020600101546108fe81610908565b61033d83836109a7565b6109128133610a12565b50565b6000610921838361037b565b61099f576000838152602081815260408083206001600160a01b03861684529091529020805460ff191660011790556109573390565b6001600160a01b0316826001600160a01b0316847f2f8788117e7eff1d82e926ec794901d17c78024a50270940304540a733656f0d60405160405180910390a4506001610312565b506000610312565b60006109b3838361037b565b1561099f576000838152602081815260408083206001600160a01b0386168085529252808320805460ff1916905551339286917ff6391f5c32d9c69d2a47ea670b442974b53935d1edc7fd64eb21e047a839171b9190a4506001610312565b610a1c828261037b565b610a4b5760405163e2517d3f60e01b81526001600160a01b038216600482015260248101839052604401610410565b5050565b600060208284031215610a6157600080fd5b81356001600160e01b031981168114610a7957600080fd5b9392505050565b600060208284031215610a9257600080fd5b5035919050565b6001600160a01b03169052565b80356001600160a01b0381168114610abd57600080fd5b919050565b60008060408385031215610ad557600080fd5b82359150610ae560208401610aa6565b90509250929050565b600061014082019050610b02828451610a99565b6020830151610b146020840182610a99565b506040830151610b276040840182610a99565b506060830151610b3a6060840182610a99565b506080830151610b4d6080840182610a99565b5060a0830151610b6060a0840182610a99565b5060c0830151610b7360c0840182610a99565b5060e0830151610b8660e0840182610a99565b5061010080840151610b9a82850182610a99565b505061012080840151610baf82850182610a99565b505092915050565b6000806000806000806000806000806101408b8d031215610bd757600080fd5b610be08b610aa6565b9950610bee60208c01610aa6565b9850610bfc60408c01610aa6565b9750610c0a60608c01610aa6565b9650610c1860808c01610aa6565b9550610c2660a08c01610aa6565b9450610c3460c08c01610aa6565b9350610c4260e08c01610aa6565b9250610c516101008c01610aa6565b9150610c606101208c01610aa6565b90509295989b9194979a509295985056fea2646970667358221220b05449f0e96e7d83fec3bc7ddc3505e68544f17c763793f2e7942fef263ffb0c64736f6c63430008180033",
  "linkReferences": {},
  "deployedLinkReferences": {}
}