{
  "_format": "hh-sol-artifact-1",
  "contractName": "ResourceRegistryV1",
  "sourceName": "src/commitChain/ResourceRegistry/ResourceRegistryV1.sol",
  "abi": [
    {
      "inputs": [
        {
          "internalType": "address",
          "name": "target",
          "type": "address"
        }
      ],
      "name": "AddressEmptyCode",
      "type": "error"
    },
    {
      "inputs": [
        {
          "internalType": "address",
          "name": "implementation",
          "type": "address"
        }
      ],
      "name": "ERC1967InvalidImplementation",
      "type": "error"
    },
    {
      "inputs": [],
      "name": "ERC1967NonPayable",
      "type": "error"
    },
    {
      "inputs": [],
      "name": "FailedInnerCall",
      "type": "error"
    },
    {
      "inputs": [],
      "name": "InvalidInitialization",
      "type": "error"
    },
    {
      "inputs": [],
      "name": "NotInitializing",
      "type": "error"
    },
    {
      "inputs": [
        {
          "internalType": "address",
          "name": "owner",
          "type": "address"
        }
      ],
      "name": "OwnableInvalidOwner",
      "type": "error"
    },
    {
      "inputs": [
        {
          "internalType": "address",
          "name": "account",
          "type": "address"
        }
      ],
      "name": "OwnableUnauthorizedAccount",
      "type": "error"
    },
    {
      "inputs": [],
      "name": "UUPSUnauthorizedCallContext",
      "type": "error"
    },
    {
      "inputs": [
        {
          "internalType": "bytes32",
          "name": "slot",
          "type": "bytes32"
        }
      ],
      "name": "UUPSUnsupportedProxiableUUID",
      "type": "error"
    },
    {
      "anonymous": false,
      "inputs": [
        {
          "indexed": false,
          "internalType": "uint64",
          "name": "version",
          "type": "uint64"
        }
      ],
      "name": "Initialized",
      "type": "event"
    },
    {
      "anonymous": false,
      "inputs": [
        {
          "indexed": true,
          "internalType": "address",
          "name": "previousOwner",
          "type": "address"
        },
        {
          "indexed": true,
          "internalType": "address",
          "name": "newOwner",
          "type": "address"
        }
      ],
      "name": "OwnershipTransferred",
      "type": "event"
    },
    {
      "anonymous": false,
      "inputs": [
        {
          "indexed": true,
          "internalType": "address",
          "name": "implementation",
          "type": "address"
        }
      ],
      "name": "Upgraded",
      "type": "event"
    },
    {
      "inputs": [],
      "name": "UPGRADE_INTERFACE_VERSION",
      "outputs": [
        {
          "internalType": "string",
          "name": "",
          "type": "string"
        }
      ],
      "stateMutability": "view",
      "type": "function"
    },
    {
      "inputs": [],
      "name": "contractVersion",
      "outputs": [
        {
          "internalType": "uint256",
          "name": "",
          "type": "uint256"
        }
      ],
      "stateMutability": "pure",
      "type": "function"
    },
    {
      "inputs": [
        {
          "internalType": "bytes32",
          "name": "resourceId",
          "type": "bytes32"
        }
      ],
      "name": "getResourceById",
      "outputs": [
        {
          "components": [
            {
              "internalType": "bytes32",
              "name": "resourceId",
              "type": "bytes32"
            },
            {
              "internalType": "enum SharedObjects.ErcStandard",
              "name": "standard",
              "type": "uint8"
            },
            {
              "internalType": "bytes",
              "name": "bytecode",
              "type": "bytes"
            },
            {
              "internalType": "bytes",
              "name": "initializerParams",
              "type": "bytes"
            }
          ],
          "internalType": "struct ResourceRegistryV1.Resource",
          "name": "",
          "type": "tuple"
        }
      ],
      "stateMutability": "view",
      "type": "function"
    },
    {
      "inputs": [
        {
          "internalType": "address",
          "name": "initialOwner",
          "type": "address"
        }
      ],
      "name": "initialize",
      "outputs": [],
      "stateMutability": "nonpayable",
      "type": "function"
    },
    {
      "inputs": [],
      "name": "owner",
      "outputs": [
        {
          "internalType": "address",
          "name": "",
          "type": "address"
        }
      ],
      "stateMutability": "view",
      "type": "function"
    },
    {
      "inputs": [],
      "name": "proxiableUUID",
      "outputs": [
        {
          "internalType": "bytes32",
          "name": "",
          "type": "bytes32"
        }
      ],
      "stateMutability": "view",
      "type": "function"
    },
    {
      "inputs": [
        {
          "internalType": "enum SharedObjects.ErcStandard",
          "name": "standard",
          "type": "uint8"
        },
        {
          "internalType": "bytes",
          "name": "bytecode",
          "type": "bytes"
        },
        {
          "internalType": "bytes",
          "name": "initializerParams",
          "type": "bytes"
        }
      ],
      "name": "registerResource",
      "outputs": [
        {
          "internalType": "bytes32",
          "name": "",
          "type": "bytes32"
        }
      ],
      "stateMutability": "nonpayable",
      "type": "function"
    },
    {
      "inputs": [],
      "name": "renounceOwnership",
      "outputs": [],
      "stateMutability": "nonpayable",
      "type": "function"
    },
    {
      "inputs": [
        {
          "internalType": "address",
          "name": "tokenRegistryAt",
          "type": "address"
        }
      ],
      "name": "setTokenRegistry",
      "outputs": [],
      "stateMutability": "nonpayable",
      "type": "function"
    },
    {
      "inputs": [
        {
          "internalType": "address",
          "name": "newOwner",
          "type": "address"
        }
      ],
      "name": "transferOwnership",
      "outputs": [],
      "stateMutability": "nonpayable",
      "type": "function"
    },
    {
      "inputs": [
        {
          "internalType": "address",
          "name": "newImplementation",
          "type": "address"
        },
        {
          "internalType": "bytes",
          "name": "data",
          "type": "bytes"
        }
      ],
      "name": "upgradeToAndCall",
      "outputs": [],
      "stateMutability": "payable",
      "type": "function"
    }
  ],
  "bytecode": "0x60a06040523060805234801561001457600080fd5b506080516111f661003e600039600081816107e901528181610812015261094f01526111f66000f3fe60806040526004361061008c5760003560e01c806335a5af921461009157806341700488146100b35780634f1ef286146100e657806352d1902d146100f9578063715018a61461010e5780638da5cb5b14610123578063a0a8e46014610145578063ad3cb1cc14610159578063bc8a6f2014610197578063c4d66de8146101c4578063f2fde38b146101e4575b600080fd5b34801561009d57600080fd5b506100b16100ac366004610d42565b610204565b005b3480156100bf57600080fd5b506100d36100ce366004610dff565b610230565b6040519081526020015b60405180910390f35b6100b16100f4366004610e78565b610422565b34801561010557600080fd5b506100d3610441565b34801561011a57600080fd5b506100b161045e565b34801561012f57600080fd5b50610138610472565b6040516100dd9190610ec5565b34801561015157600080fd5b5060016100d3565b34801561016557600080fd5b5061018a604051806040016040528060058152602001640352e302e360dc1b81525081565b6040516100dd9190610f29565b3480156101a357600080fd5b506101b76101b2366004610f3c565b61048d565b6040516100dd9190610f6b565b3480156101d057600080fd5b506100b16101df366004610d42565b610629565b3480156101f057600080fd5b506100b16101ff366004610d42565b61072b565b600061020e610769565b80546001600160a01b0319166001600160a01b03939093169290921790915550565b60008061023b610769565b80549091506001600160a01b03166102925760405162461bcd60e51b8152602060048201526015602482015274139bc8151bdad95b88149959da5cdd1c9e481cd95d605a1b60448201526064015b60405180910390fd5b80546001600160a01b031633146102da5760405162461bcd60e51b815260206004820152600c60248201526b155b985d5d1a1bdc9a5e995960a21b6044820152606401610289565b60006102e4610769565b905060006102f061078d565b60008181526002840160205260409020549091501561034f5760405162461bcd60e51b815260206004820152601b60248201527a14995cdbdd5c98d948185b1c9958591e481c9959da5cdd195c9959602a1b6044820152606401610289565b81600101604051806080016040528083815260200189600581111561037657610376610f55565b815260208082018a905260409091018890528254600181810185556000948552938290208351600490920201908155908201518184018054939492939192909160ff1916908360058111156103cd576103cd610f55565b0217905550604082015160028201906103e6908261105a565b50606082015160038201906103fb908261105a565b50505060018201546000828152600290930160205260409092209190915595945050505050565b61042a6107de565b61043382610883565b61043d828261088b565b5050565b600061044b610944565b506000805160206111a183398151915290565b61046661098d565b61047060006109bf565b565b60008061047d610a1b565b546001600160a01b031692915050565b60408051608081018252600080825260208201526060918101829052818101919091526104b982610a3f565b6040805160808101909152815481526001820154909190602083019060ff1660058111156104e9576104e9610f55565b60058111156104fa576104fa610f55565b815260200160028201805461050e90610fd8565b80601f016020809104026020016040519081016040528092919081815260200182805461053a90610fd8565b80156105875780601f1061055c57610100808354040283529160200191610587565b820191906000526020600020905b81548152906001019060200180831161056a57829003601f168201915b505050505081526020016003820180546105a090610fd8565b80601f01602080910402602001604051908101604052809291908181526020018280546105cc90610fd8565b80156106195780601f106105ee57610100808354040283529160200191610619565b820191906000526020600020905b8154815290600101906020018083116105fc57829003601f168201915b5050505050815250509050919050565b6000610633610ada565b805490915060ff600160401b82041615906001600160401b031660008115801561065a5750825b90506000826001600160401b031660011480156106765750303b155b905081158015610684575080155b156106a25760405163f92ee8a960e01b815260040160405180910390fd5b845467ffffffffffffffff1916600117855583156106cc57845460ff60401b1916600160401b1785555b6106d586610afe565b6106dd610b0f565b831561072357845460ff60401b19168555604051600181527fc7f505b2f371ae2175ee4913f4499e1f2633a7b5936321eed1cdaeb6115181d29060200160405180910390a15b505050505050565b61073361098d565b6001600160a01b03811661075d576000604051631e4fbdf760e01b81526004016102899190610ec5565b610766816109bf565b50565b7f41133c463db09c45ecb7411517181d19bb0412bd30f732cc22500e159f40c40090565b600080610798610769565b60038101805491925060019060006107b0838561112f565b9091555050604080516020810183905201604051602081830303815290604052805190602001209250505090565b306001600160a01b037f000000000000000000000000000000000000000000000000000000000000000016148061086557507f00000000000000000000000000000000000000000000000000000000000000006001600160a01b03166108596000805160206111a1833981519152546001600160a01b031690565b6001600160a01b031614155b156104705760405163703e46dd60e11b815260040160405180910390fd5b61076661098d565b816001600160a01b03166352d1902d6040518163ffffffff1660e01b8152600401602060405180830381865afa9250505080156108e5575060408051601f3d908101601f191682019092526108e291810190611142565b60015b6109045781604051634c9c8ce360e01b81526004016102899190610ec5565b6000805160206111a1833981519152811461093557604051632a87526960e21b815260048101829052602401610289565b61093f8383610b17565b505050565b306001600160a01b037f000000000000000000000000000000000000000000000000000000000000000016146104705760405163703e46dd60e11b815260040160405180910390fd5b33610996610472565b6001600160a01b031614610470573360405163118cdaa760e01b81526004016102899190610ec5565b60006109c9610a1b565b80546001600160a01b038481166001600160a01b031983168117845560405193945091169182907f8be0079c531659141344cd1fd0a4f28419497f9722a3daafe3b4186f6b6457e090600090a3505050565b7f9016d09d72d40fdae2fd8ceac6b6234c7706214fd39c1cd1e609a0528c19930090565b600080610a4a610769565b6000848152600282016020526040812054919250819003610aa25760405162461bcd60e51b815260206004820152601260248201527114995cdbdd5c98d9481b9bdd08199bdd5b9960721b6044820152606401610289565b81600101600182610ab3919061115b565b81548110610ac357610ac361116e565b906000526020600020906004020192505050919050565b7ff0c57e16840df040f15088dc2f81fe391c3923bec73e23a9662efc9c229c6a0090565b610b06610b6d565b61076681610b92565b610470610b6d565b610b2082610b9a565b6040516001600160a01b038316907fbc7cd75a20ee27fd9adebab32041f755214dbc6bffa90cc0225b39da2e5c2d3b90600090a2805115610b655761093f8282610bf6565b61043d610c6e565b610b75610c8d565b61047057604051631afcd79f60e31b815260040160405180910390fd5b610733610b6d565b806001600160a01b03163b600003610bc75780604051634c9c8ce360e01b81526004016102899190610ec5565b6000805160206111a183398151915280546001600160a01b0319166001600160a01b0392909216919091179055565b6060600080846001600160a01b031684604051610c139190611184565b600060405180830381855af49150503d8060008114610c4e576040519150601f19603f3d011682016040523d82523d6000602084013e610c53565b606091505b5091509150610c63858383610ca7565b925050505b92915050565b34156104705760405163b398979f60e01b815260040160405180910390fd5b6000610c97610ada565b54600160401b900460ff16919050565b606082610cbc57610cb782610cfd565b610cf6565b8151158015610cd357506001600160a01b0384163b155b15610cf35783604051639996b31560e01b81526004016102899190610ec5565b50805b9392505050565b805115610d0d5780518082602001fd5b604051630a12f52160e11b815260040160405180910390fd5b80356001600160a01b0381168114610d3d57600080fd5b919050565b600060208284031215610d5457600080fd5b610cf682610d26565b634e487b7160e01b600052604160045260246000fd5b600082601f830112610d8457600080fd5b81356001600160401b0380821115610d9e57610d9e610d5d565b604051601f8301601f19908116603f01168101908282118183101715610dc657610dc6610d5d565b81604052838152866020858801011115610ddf57600080fd5b836020870160208301376000602085830101528094505050505092915050565b600080600060608486031215610e1457600080fd5b833560068110610e2357600080fd5b925060208401356001600160401b0380821115610e3f57600080fd5b610e4b87838801610d73565b93506040860135915080821115610e6157600080fd5b50610e6e86828701610d73565b9150509250925092565b60008060408385031215610e8b57600080fd5b610e9483610d26565b915060208301356001600160401b03811115610eaf57600080fd5b610ebb85828601610d73565b9150509250929050565b6001600160a01b0391909116815260200190565b60005b83811015610ef4578181015183820152602001610edc565b50506000910152565b60008151808452610f15816020860160208601610ed9565b601f01601f19169290920160200192915050565b602081526000610cf66020830184610efd565b600060208284031215610f4e57600080fd5b5035919050565b634e487b7160e01b600052602160045260246000fd5b60208152815160208201526000602083015160068110610f9b57634e487b7160e01b600052602160045260246000fd5b80604084015250604083015160806060840152610fbb60a0840182610efd565b90506060840151601f19848303016080850152610c638282610efd565b600181811c90821680610fec57607f821691505b60208210810361100c57634e487b7160e01b600052602260045260246000fd5b50919050565b601f82111561093f576000816000526020600020601f850160051c8101602086101561103b5750805b601f850160051c820191505b8181101561072357828155600101611047565b81516001600160401b0381111561107357611073610d5d565b611087816110818454610fd8565b84611012565b602080601f8311600181146110bc57600084156110a45750858301515b600019600386901b1c1916600185901b178555610723565b600085815260208120601f198616915b828110156110eb578886015182559484019460019091019084016110cc565b50858210156111095787850151600019600388901b60f8161c191681555b5050505050600190811b01905550565b634e487b7160e01b600052601160045260246000fd5b80820180821115610c6857610c68611119565b60006020828403121561115457600080fd5b5051919050565b81810381811115610c6857610c68611119565b634e487b7160e01b600052603260045260246000fd5b60008251611196818460208701610ed9565b919091019291505056fe360894a13ba1a3210667c828492db98dca3e2076cc3735a920a3ca505d382bbca2646970667358221220e090acfb447607e8f8b107ad2c4d9ce565007a16f313719f9c7ee2b78ac9158064736f6c63430008180033",
  "linkReferences": {},
  "deployedLinkReferences": {}
}