{
  "_format": "hh-sol-artifact-1",
  "contractName": "BatchTransfer",
  "sourceName": "src/rayls-protocol/test-contracts/BatchTransfer.sol",
  "abi": [
    {
      "inputs": [
        {
          "internalType": "bytes32",
          "name": "_resourceId",
          "type": "bytes32"
        },
        {
          "internalType": "address",
          "name": "_endpoint",
          "type": "address"
        }
      ],
      "stateMutability": "nonpayable",
      "type": "constructor"
    },
    {
      "anonymous": false,
      "inputs": [
        {
          "indexed": false,
          "internalType": "bytes",
          "name": "payloadA",
          "type": "bytes"
        },
        {
          "indexed": false,
          "internalType": "bytes",
          "name": "payloadB",
          "type": "bytes"
        }
      ],
      "name": "LogSend2MessagesPayload",
      "type": "event"
    },
    {
      "inputs": [],
      "name": "_getEndpointAddress",
      "outputs": [
        {
          "internalType": "address",
          "name": "",
          "type": "address"
        }
      ],
      "stateMutability": "view",
      "type": "function"
    },
    {
      "inputs": [
        {
          "internalType": "address",
          "name": "_endpoint",
          "type": "address"
        }
      ],
      "name": "_updateEndpoint",
      "outputs": [],
      "stateMutability": "nonpayable",
      "type": "function"
    },
    {
      "inputs": [
        {
          "internalType": "string",
          "name": "msgA",
          "type": "string"
        },
        {
          "internalType": "string",
          "name": "msgB",
          "type": "string"
        }
      ],
      "name": "generateSend2MessagesPayloads",
      "outputs": [],
      "stateMutability": "nonpayable",
      "type": "function"
    },
    {
      "inputs": [
        {
          "internalType": "bytes32",
          "name": "_resourceId",
          "type": "bytes32"
        }
      ],
      "name": "getAddressByResourceId",
      "outputs": [
        {
          "internalType": "address",
          "name": "",
          "type": "address"
        }
      ],
      "stateMutability": "view",
      "type": "function"
    },
    {
      "inputs": [],
      "name": "getMessages",
      "outputs": [
        {
          "internalType": "string[]",
          "name": "",
          "type": "string[]"
        }
      ],
      "stateMutability": "view",
      "type": "function"
    },
    {
      "inputs": [],
      "name": "messageA",
      "outputs": [
        {
          "internalType": "string",
          "name": "",
          "type": "string"
        }
      ],
      "stateMutability": "view",
      "type": "function"
    },
    {
      "inputs": [],
      "name": "messageB",
      "outputs": [
        {
          "internalType": "string",
          "name": "",
          "type": "string"
        }
      ],
      "stateMutability": "view",
      "type": "function"
    },
    {
      "inputs": [
        {
          "internalType": "uint256",
          "name": "",
          "type": "uint256"
        }
      ],
      "name": "messages",
      "outputs": [
        {
          "internalType": "string",
          "name": "",
          "type": "string"
        }
      ],
      "stateMutability": "view",
      "type": "function"
    },
    {
      "inputs": [],
      "name": "messagesAmount",
      "outputs": [
        {
          "internalType": "uint256",
          "name": "",
          "type": "uint256"
        }
      ],
      "stateMutability": "view",
      "type": "function"
    },
    {
      "inputs": [
        {
          "internalType": "string",
          "name": "_message",
          "type": "string"
        }
      ],
      "name": "receiveMessage",
      "outputs": [],
      "stateMutability": "nonpayable",
      "type": "function"
    },
    {
      "inputs": [
        {
          "internalType": "string",
          "name": "_messageA",
          "type": "string"
        }
      ],
      "name": "receiveMessageA",
      "outputs": [],
      "stateMutability": "nonpayable",
      "type": "function"
    },
    {
      "inputs": [
        {
          "internalType": "string",
          "name": "_messageB",
          "type": "string"
        }
      ],
      "name": "receiveMessageB",
      "outputs": [],
      "stateMutability": "nonpayable",
      "type": "function"
    },
    {
      "inputs": [],
      "name": "resourceId",
      "outputs": [
        {
          "internalType": "bytes32",
          "name": "",
          "type": "bytes32"
        }
      ],
      "stateMutability": "view",
      "type": "function"
    },
    {
      "inputs": [
        {
          "internalType": "string",
          "name": "msgA",
          "type": "string"
        },
        {
          "internalType": "string",
          "name": "msgB",
          "type": "string"
        },
        {
          "internalType": "uint256",
          "name": "destChainId",
          "type": "uint256"
        },
        {
          "internalType": "bytes32",
          "name": "_resourceId",
          "type": "bytes32"
        }
      ],
      "name": "send2MessagesV1",
      "outputs": [],
      "stateMutability": "nonpayable",
      "type": "function"
    },
    {
      "inputs": [
        {
          "internalType": "string",
          "name": "msgA",
          "type": "string"
        },
        {
          "internalType": "string",
          "name": "msgB",
          "type": "string"
        },
        {
          "components": [
            {
              "internalType": "uint256",
              "name": "_dstChainId",
              "type": "uint256"
            },
            {
              "internalType": "bytes32",
              "name": "_resourceId",
              "type": "bytes32"
            },
            {
              "internalType": "bytes",
              "name": "_payload",
              "type": "bytes"
            }
          ],
          "internalType": "struct ResourceIdPayloadRequest[]",
          "name": "_resourceIdPayloadRequests",
          "type": "tuple[]"
        }
      ],
      "name": "send2MessagesV2",
      "outputs": [],
      "stateMutability": "nonpayable",
      "type": "function"
    },
    {
      "inputs": [
        {
          "internalType": "string",
          "name": "msgA",
          "type": "string"
        },
        {
          "internalType": "string",
          "name": "msgB",
          "type": "string"
        },
        {
          "components": [
            {
              "internalType": "uint256",
              "name": "_dstChainId",
              "type": "uint256"
            },
            {
              "internalType": "bytes32",
              "name": "_resourceId",
              "type": "bytes32"
            },
            {
              "internalType": "bytes",
              "name": "_payload",
              "type": "bytes"
            }
          ],
          "internalType": "struct ResourceIdPayloadRequest[]",
          "name": "_resourceIdPayloadRequests",
          "type": "tuple[]"
        }
      ],
      "name": "send2MessagesV3",
      "outputs": [],
      "stateMutability": "nonpayable",
      "type": "function"
    },
    {
      "inputs": [
        {
          "components": [
            {
              "internalType": "uint256",
              "name": "_dstChainId",
              "type": "uint256"
            },
            {
              "internalType": "bytes32",
              "name": "_resourceId",
              "type": "bytes32"
            },
            {
              "internalType": "bytes",
              "name": "_payload",
              "type": "bytes"
            }
          ],
          "internalType": "struct ResourceIdPayloadRequest[]",
          "name": "_resourceIdPayloadRequests",
          "type": "tuple[]"
        }
      ],
      "name": "send2MessagesV4",
      "outputs": [],
      "stateMutability": "nonpayable",
      "type": "function"
    },
    {
      "inputs": [
        {
          "components": [
            {
              "internalType": "uint256",
              "name": "_dstChainId",
              "type": "uint256"
            },
            {
              "internalType": "bytes32",
              "name": "_resourceId",
              "type": "bytes32"
            },
            {
              "internalType": "bytes",
              "name": "_payload",
              "type": "bytes"
            }
          ],
          "internalType": "struct ResourceIdPayloadRequest[]",
          "name": "_resourceIdPayloadRequests",
          "type": "tuple[]"
        }
      ],
      "name": "send2MessagesV5",
      "outputs": [],
      "stateMutability": "nonpayable",
      "type": "function"
    },
    {
      "inputs": [
        {
          "components": [
            {
              "internalType": "uint256",
              "name": "_dstChainId",
              "type": "uint256"
            },
            {
              "internalType": "bytes32",
              "name": "_resourceId",
              "type": "bytes32"
            },
            {
              "internalType": "bytes",
              "name": "_payload",
              "type": "bytes"
            }
          ],
          "internalType": "struct ResourceIdPayloadRequest[]",
          "name": "_resourceIdPayloadRequests",
          "type": "tuple[]"
        }
      ],
      "name": "sendManyMessages",
      "outputs": [],
      "stateMutability": "nonpayable",
      "type": "function"
    }
  ],
  "bytecode": "0x608060405234801561001057600080fd5b5060405161141c38038061141c83398101604081905261002f91610132565b600080546001600160a01b0319166001600160a01b0383161790556001829055610057610063565b5050600060055561016f565b6001546100c85760405162461bcd60e51b815260206004820152602960248201527f4f6e6c79207265676973746572207265736f75726365207768656e206974277360448201526808185c1c1c9bdd995960ba1b606482015260840160405180910390fd5b60005460015460405163d4f951c760e01b815260048101919091523060248201526001600160a01b039091169063d4f951c790604401600060405180830381600087803b15801561011857600080fd5b505af115801561012c573d6000803e3d6000fd5b50505050565b6000806040838503121561014557600080fd5b825160208401519092506001600160a01b038116811461016457600080fd5b809150509250929050565b61129e8061017e6000396000f3fe608060405234801561001057600080fd5b50600436106101015760003560e01c80635ff6cbf31161009d5780635ff6cbf3146101db5780636a83f676146101f05780636f181318146101f85780637b6ef145146102285780637d68084b1461023b57806386a3d0f91461024e578063b247d94614610261578063ba9aa79314610272578063c565ff5b14610285578063ef1992e01461019557600080fd5b80630496cf49146101065780630d80fefd1461011b57806311f50c8514610144578063205ca6bd1461016f5780632f049bf3146101825780633f646715146101955780634ad5f0cb146101a85780635dc241a2146101bb5780635f997c5b146101d2575b600080fd5b610119610114366004610bb5565b61028d565b005b61012e610129366004610c3f565b61039e565b60405161013b9190610c9e565b60405180910390f35b610157610152366004610c3f565b61044a565b6040516001600160a01b03909116815260200161013b565b61011961017d366004610bb5565b6104be565b610119610190366004610cb1565b6105e0565b6101196101a3366004610ced565b610635565b6101196101b6366004610ced565b61064b565b6101c460055481565b60405190815260200161013b565b6101c460015481565b6101e361076d565b60405161013b9190610d2e565b61012e610846565b610119610206366004610daa565b600080546001600160a01b0319166001600160a01b0392909216919091179055565b610119610236366004610dc7565b610853565b610119610249366004610cb1565b61088f565b61011961025c366004610e3a565b61089b565b6000546001600160a01b0316610157565b610119610280366004610cb1565b61097b565b61012e610987565b61032d828260008181106102a3576102a3610e9d565b90506020028101906102b59190610eb3565b3583836000816102c7576102c7610e9d565b90506020028101906102d99190610eb3565b6020013563ba9aa79360e01b876040516024016102f69190610c9e565b60408051601f198184030181529190526020810180516001600160e01b03166001600160e01b031990931692909217909152610994565b6103988282600181811061034357610343610e9d565b90506020028101906103559190610eb3565b358383600181811061036957610369610e9d565b905060200281019061037b9190610eb3565b60200135637d68084b60e01b866040516024016102f69190610c9e565b50505050565b600481815481106103ae57600080fd5b9060005260206000200160009150905080546103c990610ed3565b80601f01602080910402602001604051908101604052809291908181526020018280546103f590610ed3565b80156104425780601f1061041757610100808354040283529160200191610442565b820191906000526020600020905b81548152906001019060200180831161042557829003601f168201915b505050505081565b600080546040516311f50c8560e01b8152600481018490526001600160a01b03909116906311f50c8590602401602060405180830381865afa158015610494573d6000803e3d6000fd5b505050506040513d601f19601f820116820180604052508101906104b89190610f0d565b92915050565b61054e828260008181106104d4576104d4610e9d565b90506020028101906104e69190610eb3565b3583836000816104f8576104f8610e9d565b905060200281019061050a9190610eb3565b602001358660405160240161051f9190610c9e565b60408051601f198184030181529190526020810180516001600160e01b031663ba9aa79360e01b179052610994565b6103988282600181811061056457610564610e9d565b90506020028101906105769190610eb3565b358383600181811061058a5761058a610e9d565b905060200281019061059c9190610eb3565b60200135856040516024016105b19190610c9e565b60408051601f198184030181529190526020810180516001600160e01b0316637d68084b60e01b179052610994565b600480546001810182556000919091527f8a35acfbc15ff81a39ae7d344fd709f28e8600b4aa8c65c6b64bfe7fe36bd19b0161061c8282610f7b565b506005805490600061062d8361103a565b919050555050565b6106476106428284611061565b610a0b565b5050565b6107088282600081811061066157610661610e9d565b90506020028101906106739190610eb3565b35838360008161068557610685610e9d565b90506020028101906106979190610eb3565b60200135848460008181106106ae576106ae610e9d565b90506020028101906106c09190610eb3565b6106ce90604081019061113b565b8080601f01602080910402602001604051908101604052809392919081815260200183838082843760009201919091525061099492505050565b6106478282600181811061071e5761071e610e9d565b90506020028101906107309190610eb3565b358383600181811061074457610744610e9d565b90506020028101906107569190610eb3565b60200135848460018181106106ae576106ae610e9d565b60606004805480602002602001604051908101604052809291908181526020016000905b8282101561083d5783829060005260206000200180546107b090610ed3565b80601f01602080910402602001604051908101604052809291908181526020018280546107dc90610ed3565b80156108295780601f106107fe57610100808354040283529160200191610829565b820191906000526020600020905b81548152906001019060200180831161080c57829003601f168201915b505050505081526020019060010190610791565b50505050905090565b600280546103c990610ed3565b610871828263ba9aa79360e01b876040516024016102f69190610c9e565b6103988282637d68084b60e01b866040516024016102f69190610c9e565b60036106478282610f7b565b600063ba9aa79360e01b836040516024016108b69190610c9e565b60408051601f198184030181529181526020820180516001600160e01b03166001600160e01b0319909416939093179092529051909150600090637d68084b60e01b90610907908590602401610c9e565b604051602081830303815290604052906001600160e01b0319166020820180516001600160e01b03838183161783525050505090507fae57a012c2a519ed9d87a12b8da5a37b262f0c2e0ee620bce251bc665e45e02c828260405161096d929190611181565b60405180910390a150505050565b60026106478282610f7b565b600380546103c990610ed3565b6000546040516320599dfd60e11b81526001600160a01b03909116906340b33bfa906109c8908690869086906004016111af565b6020604051808303816000875af11580156109e7573d6000803e3d6000fd5b505050506040513d601f19601f8201168201806040525081019061039891906111ce565b60005460405163594ac74d60e11b81526001600160a01b039091169063b2958e9a90610a3b9084906004016111e7565b6020604051808303816000875af1158015610a5a573d6000803e3d6000fd5b505050506040513d601f19601f8201168201806040525081019061064791906111ce565b634e487b7160e01b600052604160045260246000fd5b604051606081016001600160401b0381118282101715610ab657610ab6610a7e565b60405290565b604051601f8201601f191681016001600160401b0381118282101715610ae457610ae4610a7e565b604052919050565b60006001600160401b03831115610b0557610b05610a7e565b610b18601f8401601f1916602001610abc565b9050828152838383011115610b2c57600080fd5b828260208301376000602084830101529392505050565b600082601f830112610b5457600080fd5b610b6383833560208501610aec565b9392505050565b60008083601f840112610b7c57600080fd5b5081356001600160401b03811115610b9357600080fd5b6020830191508360208260051b8501011115610bae57600080fd5b9250929050565b60008060008060608587031215610bcb57600080fd5b84356001600160401b0380821115610be257600080fd5b610bee88838901610b43565b95506020870135915080821115610c0457600080fd5b610c1088838901610b43565b94506040870135915080821115610c2657600080fd5b50610c3387828801610b6a565b95989497509550505050565b600060208284031215610c5157600080fd5b5035919050565b6000815180845260005b81811015610c7e57602081850181015186830182015201610c62565b506000602082860101526020601f19601f83011685010191505092915050565b602081526000610b636020830184610c58565b600060208284031215610cc357600080fd5b81356001600160401b03811115610cd957600080fd5b610ce584828501610b43565b949350505050565b60008060208385031215610d0057600080fd5b82356001600160401b03811115610d1657600080fd5b610d2285828601610b6a565b90969095509350505050565b600060208083016020845280855180835260408601915060408160051b87010192506020870160005b82811015610d8557603f19888603018452610d73858351610c58565b94509285019290850190600101610d57565b5092979650505050505050565b6001600160a01b0381168114610da757600080fd5b50565b600060208284031215610dbc57600080fd5b8135610b6381610d92565b60008060008060808587031215610ddd57600080fd5b84356001600160401b0380821115610df457600080fd5b610e0088838901610b43565b95506020870135915080821115610e1657600080fd5b50610e2387828801610b43565b949794965050505060408301359260600135919050565b60008060408385031215610e4d57600080fd5b82356001600160401b0380821115610e6457600080fd5b610e7086838701610b43565b93506020850135915080821115610e8657600080fd5b50610e9385828601610b43565b9150509250929050565b634e487b7160e01b600052603260045260246000fd5b60008235605e19833603018112610ec957600080fd5b9190910192915050565b600181811c90821680610ee757607f821691505b602082108103610f0757634e487b7160e01b600052602260045260246000fd5b50919050565b600060208284031215610f1f57600080fd5b8151610b6381610d92565b601f821115610f76576000816000526020600020601f850160051c81016020861015610f535750805b601f850160051c820191505b81811015610f7257828155600101610f5f565b5050505b505050565b81516001600160401b03811115610f9457610f94610a7e565b610fa881610fa28454610ed3565b84610f2a565b602080601f831160018114610fdd5760008415610fc55750858301515b600019600386901b1c1916600185901b178555610f72565b600085815260208120601f198616915b8281101561100c57888601518255948401946001909101908401610fed565b508582101561102a5787850151600019600388901b60f8161c191681555b5050505050600190811b01905550565b60006001820161105a57634e487b7160e01b600052601160045260246000fd5b5060010190565b60006001600160401b038084111561107b5761107b610a7e565b8360051b602061108c818301610abc565b8681529185019181810190368411156110a457600080fd5b865b8481101561112f578035868111156110be5760008081fd5b880160603682900312156110d25760008081fd5b6110da610a94565b813581528582013586820152604080830135898111156110fa5760008081fd5b929092019136601f84011261110f5760008081fd5b61111d368435898601610aec565b908201528452509183019183016110a6565b50979650505050505050565b6000808335601e1984360301811261115257600080fd5b8301803591506001600160401b0382111561116c57600080fd5b602001915036819003821315610bae57600080fd5b6040815260006111946040830185610c58565b82810360208401526111a68185610c58565b95945050505050565b8381528260208201526060604082015260006111a66060830184610c58565b6000602082840312156111e057600080fd5b5051919050565b600060208083018184528085518083526040925060408601915060408160051b87010184880160005b8381101561125a57888303603f190185528151805184528781015188850152860151606087850181905261124681860183610c58565b968901969450505090860190600101611210565b50909897505050505050505056fea2646970667358221220e50e914b12b8c337e1409a9d1edf7e5d365d7710b64e733556c4ff4f04dfe87064736f6c63430008180033",
  "linkReferences": {},
  "deployedLinkReferences": {}
}