{
  "_format": "hh-sol-artifact-1",
  "contractName": "PlaygroundErc20",
  "sourceName": "src/rayls-protocol/test-contracts/PlaygroundErc20.sol",
  "abi": [
    {
      "inputs": [
        {
          "internalType": "string",
          "name": "name",
          "type": "string"
        },
        {
          "internalType": "string",
          "name": "symbol",
          "type": "string"
        },
        {
          "internalType": "address",
          "name": "endpoint",
          "type": "address"
        }
      ],
      "stateMutability": "nonpayable",
      "type": "constructor"
    },
    {
      "inputs": [
        {
          "internalType": "address",
          "name": "spender",
          "type": "address"
        },
        {
          "internalType": "uint256",
          "name": "allowance",
          "type": "uint256"
        },
        {
          "internalType": "uint256",
          "name": "needed",
          "type": "uint256"
        }
      ],
      "name": "ERC20InsufficientAllowance",
      "type": "error"
    },
    {
      "inputs": [
        {
          "internalType": "address",
          "name": "sender",
          "type": "address"
        },
        {
          "internalType": "uint256",
          "name": "balance",
          "type": "uint256"
        },
        {
          "internalType": "uint256",
          "name": "needed",
          "type": "uint256"
        }
      ],
      "name": "ERC20InsufficientBalance",
      "type": "error"
    },
    {
      "inputs": [
        {
          "internalType": "address",
          "name": "approver",
          "type": "address"
        }
      ],
      "name": "ERC20InvalidApprover",
      "type": "error"
    },
    {
      "inputs": [
        {
          "internalType": "address",
          "name": "receiver",
          "type": "address"
        }
      ],
      "name": "ERC20InvalidReceiver",
      "type": "error"
    },
    {
      "inputs": [
        {
          "internalType": "address",
          "name": "sender",
          "type": "address"
        }
      ],
      "name": "ERC20InvalidSender",
      "type": "error"
    },
    {
      "inputs": [
        {
          "internalType": "address",
          "name": "spender",
          "type": "address"
        }
      ],
      "name": "ERC20InvalidSpender",
      "type": "error"
    },
    {
      "inputs": [],
      "name": "InvalidInitialization",
      "type": "error"
    },
    {
      "inputs": [],
      "name": "NotInitializing",
      "type": "error"
    },
    {
      "inputs": [
        {
          "internalType": "address",
          "name": "owner",
          "type": "address"
        }
      ],
      "name": "OwnableInvalidOwner",
      "type": "error"
    },
    {
      "inputs": [
        {
          "internalType": "address",
          "name": "account",
          "type": "address"
        }
      ],
      "name": "OwnableUnauthorizedAccount",
      "type": "error"
    },
    {
      "anonymous": false,
      "inputs": [
        {
          "indexed": true,
          "internalType": "address",
          "name": "owner",
          "type": "address"
        },
        {
          "indexed": true,
          "internalType": "address",
          "name": "spender",
          "type": "address"
        },
        {
          "indexed": false,
          "internalType": "uint256",
          "name": "value",
          "type": "uint256"
        }
      ],
      "name": "Approval",
      "type": "event"
    },
    {
      "anonymous": false,
      "inputs": [
        {
          "indexed": false,
          "internalType": "uint64",
          "name": "version",
          "type": "uint64"
        }
      ],
      "name": "Initialized",
      "type": "event"
    },
    {
      "anonymous": false,
      "inputs": [
        {
          "indexed": true,
          "internalType": "address",
          "name": "previousOwner",
          "type": "address"
        },
        {
          "indexed": true,
          "internalType": "address",
          "name": "newOwner",
          "type": "address"
        }
      ],
      "name": "OwnershipTransferred",
      "type": "event"
    },
    {
      "anonymous": false,
      "inputs": [
        {
          "indexed": true,
          "internalType": "address",
          "name": "from",
          "type": "address"
        },
        {
          "indexed": true,
          "internalType": "address",
          "name": "to",
          "type": "address"
        },
        {
          "indexed": false,
          "internalType": "uint256",
          "name": "value",
          "type": "uint256"
        }
      ],
      "name": "Transfer",
      "type": "event"
    },
    {
      "inputs": [],
      "name": "_getEndpointAddress",
      "outputs": [
        {
          "internalType": "address",
          "name": "",
          "type": "address"
        }
      ],
      "stateMutability": "view",
      "type": "function"
    },
    {
      "inputs": [
        {
          "internalType": "address",
          "name": "_endpoint",
          "type": "address"
        }
      ],
      "name": "_updateEndpoint",
      "outputs": [],
      "stateMutability": "nonpayable",
      "type": "function"
    },
    {
      "inputs": [
        {
          "internalType": "address",
          "name": "owner",
          "type": "address"
        },
        {
          "internalType": "address",
          "name": "spender",
          "type": "address"
        }
      ],
      "name": "allowance",
      "outputs": [
        {
          "internalType": "uint256",
          "name": "",
          "type": "uint256"
        }
      ],
      "stateMutability": "view",
      "type": "function"
    },
    {
      "inputs": [
        {
          "internalType": "address",
          "name": "spender",
          "type": "address"
        },
        {
          "internalType": "uint256",
          "name": "value",
          "type": "uint256"
        }
      ],
      "name": "approve",
      "outputs": [
        {
          "internalType": "bool",
          "name": "",
          "type": "bool"
        }
      ],
      "stateMutability": "nonpayable",
      "type": "function"
    },
    {
      "inputs": [
        {
          "internalType": "address",
          "name": "account",
          "type": "address"
        }
      ],
      "name": "balanceOf",
      "outputs": [
        {
          "internalType": "uint256",
          "name": "",
          "type": "uint256"
        }
      ],
      "stateMutability": "view",
      "type": "function"
    },
    {
      "inputs": [
        {
          "internalType": "address",
          "name": "from",
          "type": "address"
        },
        {
          "internalType": "uint256",
          "name": "value",
          "type": "uint256"
        }
      ],
      "name": "burn",
      "outputs": [],
      "stateMutability": "nonpayable",
      "type": "function"
    },
    {
      "inputs": [],
      "name": "decimals",
      "outputs": [
        {
          "internalType": "uint8",
          "name": "",
          "type": "uint8"
        }
      ],
      "stateMutability": "view",
      "type": "function"
    },
    {
      "inputs": [
        {
          "internalType": "bytes32",
          "name": "_resourceId",
          "type": "bytes32"
        }
      ],
      "name": "getAddressByResourceId",
      "outputs": [
        {
          "internalType": "address",
          "name": "",
          "type": "address"
        }
      ],
      "stateMutability": "view",
      "type": "function"
    },
    {
      "inputs": [],
      "name": "getCreator",
      "outputs": [
        {
          "internalType": "address",
          "name": "",
          "type": "address"
        }
      ],
      "stateMutability": "view",
      "type": "function"
    },
    {
      "inputs": [],
      "name": "getErcStandard",
      "outputs": [
        {
          "internalType": "enum SharedObjects.ErcStandard",
          "name": "",
          "type": "uint8"
        }
      ],
      "stateMutability": "pure",
      "type": "function"
    },
    {
      "inputs": [
        {
          "internalType": "address",
          "name": "account",
          "type": "address"
        }
      ],
      "name": "getLockedAmount",
      "outputs": [
        {
          "internalType": "uint256",
          "name": "",
          "type": "uint256"
        }
      ],
      "stateMutability": "view",
      "type": "function"
    },
    {
      "inputs": [],
      "name": "getName",
      "outputs": [
        {
          "internalType": "string",
          "name": "",
          "type": "string"
        }
      ],
      "stateMutability": "view",
      "type": "function"
    },
    {
      "inputs": [],
      "name": "getSymbol",
      "outputs": [
        {
          "internalType": "string",
          "name": "",
          "type": "string"
        }
      ],
      "stateMutability": "view",
      "type": "function"
    },
    {
      "inputs": [
        {
          "internalType": "string",
          "name": "_name",
          "type": "string"
        },
        {
          "internalType": "string",
          "name": "_symbol",
          "type": "string"
        },
        {
          "internalType": "uint8",
          "name": "_decimals",
          "type": "uint8"
        }
      ],
      "name": "initialize",
      "outputs": [],
      "stateMutability": "nonpayable",
      "type": "function"
    },
    {
      "inputs": [
        {
          "internalType": "address",
          "name": "to",
          "type": "address"
        },
        {
          "internalType": "uint256",
          "name": "value",
          "type": "uint256"
        }
      ],
      "name": "mint",
      "outputs": [],
      "stateMutability": "nonpayable",
      "type": "function"
    },
    {
      "inputs": [],
      "name": "name",
      "outputs": [
        {
          "internalType": "string",
          "name": "",
          "type": "string"
        }
      ],
      "stateMutability": "view",
      "type": "function"
    },
    {
      "inputs": [],
      "name": "owner",
      "outputs": [
        {
          "internalType": "address",
          "name": "",
          "type": "address"
        }
      ],
      "stateMutability": "view",
      "type": "function"
    },
    {
      "inputs": [
        {
          "internalType": "bytes32",
          "name": "_resourceId",
          "type": "bytes32"
        }
      ],
      "name": "receiveResourceId",
      "outputs": [],
      "stateMutability": "nonpayable",
      "type": "function"
    },
    {
      "inputs": [
        {
          "internalType": "address",
          "name": "to",
          "type": "address"
        },
        {
          "internalType": "uint256",
          "name": "value",
          "type": "uint256"
        }
      ],
      "name": "receiveTeleport",
      "outputs": [],
      "stateMutability": "nonpayable",
      "type": "function"
    },
    {
      "inputs": [
        {
          "internalType": "address",
          "name": "to",
          "type": "address"
        },
        {
          "internalType": "uint256",
          "name": "value",
          "type": "uint256"
        }
      ],
      "name": "receiveTeleportAtomic",
      "outputs": [],
      "stateMutability": "nonpayable",
      "type": "function"
    },
    {
      "inputs": [],
      "name": "renounceOwnership",
      "outputs": [],
      "stateMutability": "nonpayable",
      "type": "function"
    },
    {
      "inputs": [],
      "name": "resourceId",
      "outputs": [
        {
          "internalType": "bytes32",
          "name": "",
          "type": "bytes32"
        }
      ],
      "stateMutability": "view",
      "type": "function"
    },
    {
      "inputs": [
        {
          "internalType": "uint256",
          "name": "value",
          "type": "uint256"
        }
      ],
      "name": "revertTeleportBurn",
      "outputs": [],
      "stateMutability": "nonpayable",
      "type": "function"
    },
    {
      "inputs": [
        {
          "internalType": "address",
          "name": "to",
          "type": "address"
        },
        {
          "internalType": "uint256",
          "name": "value",
          "type": "uint256"
        }
      ],
      "name": "revertTeleportMint",
      "outputs": [],
      "stateMutability": "nonpayable",
      "type": "function"
    },
    {
      "inputs": [
        {
          "internalType": "uint8",
          "name": "_storageSlot",
          "type": "uint8"
        }
      ],
      "name": "submitTokenRegistration",
      "outputs": [],
      "stateMutability": "nonpayable",
      "type": "function"
    },
    {
      "inputs": [
        {
          "internalType": "enum SharedObjects.BalanceUpdateType",
          "name": "updateType",
          "type": "uint8"
        },
        {
          "internalType": "uint256",
          "name": "amount",
          "type": "uint256"
        }
      ],
      "name": "submitTokenUpdate",
      "outputs": [],
      "stateMutability": "nonpayable",
      "type": "function"
    },
    {
      "inputs": [],
      "name": "symbol",
      "outputs": [
        {
          "internalType": "string",
          "name": "",
          "type": "string"
        }
      ],
      "stateMutability": "view",
      "type": "function"
    },
    {
      "inputs": [
        {
          "internalType": "address",
          "name": "to",
          "type": "address"
        },
        {
          "internalType": "uint256",
          "name": "value",
          "type": "uint256"
        },
        {
          "internalType": "uint256",
          "name": "chainId",
          "type": "uint256"
        }
      ],
      "name": "teleport",
      "outputs": [
        {
          "internalType": "bool",
          "name": "",
          "type": "bool"
        }
      ],
      "stateMutability": "nonpayable",
      "type": "function"
    },
    {
      "inputs": [
        {
          "internalType": "address",
          "name": "to",
          "type": "address"
        },
        {
          "internalType": "uint256",
          "name": "value",
          "type": "uint256"
        },
        {
          "internalType": "uint256",
          "name": "destinationChainId",
          "type": "uint256"
        }
      ],
      "name": "teleportAtomic",
      "outputs": [
        {
          "internalType": "bool",
          "name": "",
          "type": "bool"
        }
      ],
      "stateMutability": "nonpayable",
      "type": "function"
    },
    {
      "inputs": [
        {
          "internalType": "address",
          "name": "from",
          "type": "address"
        },
        {
          "internalType": "address",
          "name": "to",
          "type": "address"
        },
        {
          "internalType": "uint256",
          "name": "value",
          "type": "uint256"
        },
        {
          "internalType": "uint256",
          "name": "destinationChainId",
          "type": "uint256"
        }
      ],
      "name": "teleportAtomicFrom",
      "outputs": [
        {
          "internalType": "bool",
          "name": "",
          "type": "bool"
        }
      ],
      "stateMutability": "nonpayable",
      "type": "function"
    },
    {
      "inputs": [
        {
          "internalType": "address",
          "name": "from",
          "type": "address"
        },
        {
          "internalType": "address",
          "name": "to",
          "type": "address"
        },
        {
          "internalType": "uint256",
          "name": "value",
          "type": "uint256"
        },
        {
          "internalType": "uint256",
          "name": "chainId",
          "type": "uint256"
        }
      ],
      "name": "teleportFrom",
      "outputs": [
        {
          "internalType": "bool",
          "name": "",
          "type": "bool"
        }
      ],
      "stateMutability": "nonpayable",
      "type": "function"
    },
    {
      "inputs": [],
      "name": "totalSupply",
      "outputs": [
        {
          "internalType": "uint256",
          "name": "",
          "type": "uint256"
        }
      ],
      "stateMutability": "view",
      "type": "function"
    },
    {
      "inputs": [
        {
          "internalType": "address",
          "name": "to",
          "type": "address"
        },
        {
          "internalType": "uint256",
          "name": "value",
          "type": "uint256"
        }
      ],
      "name": "transfer",
      "outputs": [
        {
          "internalType": "bool",
          "name": "",
          "type": "bool"
        }
      ],
      "stateMutability": "nonpayable",
      "type": "function"
    },
    {
      "inputs": [
        {
          "internalType": "address",
          "name": "from",
          "type": "address"
        },
        {
          "internalType": "address",
          "name": "to",
          "type": "address"
        },
        {
          "internalType": "uint256",
          "name": "value",
          "type": "uint256"
        }
      ],
      "name": "transferFrom",
      "outputs": [
        {
          "internalType": "bool",
          "name": "",
          "type": "bool"
        }
      ],
      "stateMutability": "nonpayable",
      "type": "function"
    },
    {
      "inputs": [
        {
          "internalType": "address",
          "name": "newOwner",
          "type": "address"
        }
      ],
      "name": "transferOwnership",
      "outputs": [],
      "stateMutability": "nonpayable",
      "type": "function"
    },
    {
      "inputs": [
        {
          "internalType": "address",
          "name": "to",
          "type": "address"
        },
        {
          "internalType": "uint256",
          "name": "amount",
          "type": "uint256"
        }
      ],
      "name": "unlock",
      "outputs": [
        {
          "internalType": "bool",
          "name": "",
          "type": "bool"
        }
      ],
      "stateMutability": "nonpayable",
      "type": "function"
    }
  ],
  "bytecode": "0x60806040523480156200001157600080fd5b5060405162002b9238038062002b9283398101604081905262000034916200047d565b600080546001600160a01b0319166001600160a01b038316178155839083908390339081858560056200006883826200059b565b5060066200007782826200059b565b5050506001600160a01b038116620000aa57604051631e4fbdf760e01b8152600060048201526024015b60405180910390fd5b620000b5816200013e565b506008620000c486826200059b565b506009620000d385826200059b565b50600a805460ff1916821515179055620000ec62000190565b505050505062000105336103e86200024460201b60201c565b600c80546001600160a01b03191633179055600d6200012584826200059b565b50600e6200013483826200059b565b505050506200068f565b600780546001600160a01b038381166001600160a01b0319831681179093556040519116919082907f8be0079c531659141344cd1fd0a4f28419497f9722a3daafe3b4186f6b6457e090600090a35050565b7ff0c57e16840df040f15088dc2f81fe391c3923bec73e23a9662efc9c229c6a00805468010000000000000000900460ff1615620001e15760405163f92ee8a960e01b815260040160405180910390fd5b80546001600160401b0390811614620002415780546001600160401b0319166001600160401b0390811782556040519081527fc7f505b2f371ae2175ee4913f4499e1f2633a7b5936321eed1cdaeb6115181d29060200160405180910390a15b50565b6001600160a01b038216620002705760405163ec442f0560e01b815260006004820152602401620000a1565b6200027e6000838362000282565b5050565b6001600160a01b038316620002b1578060046000828254620002a5919062000667565b90915550620003259050565b6001600160a01b03831660009081526002602052604090205481811015620003065760405163391434e360e21b81526001600160a01b03851660048201526024810182905260448101839052606401620000a1565b6001600160a01b03841660009081526002602052604090209082900390555b6001600160a01b038216620003435760048054829003905562000362565b6001600160a01b03821660009081526002602052604090208054820190555b816001600160a01b0316836001600160a01b03167fddf252ad1be2c89b69c2b068fc378daa952ba7f163c4a11628f55a4df523b3ef83604051620003a891815260200190565b60405180910390a3505050565b634e487b7160e01b600052604160045260246000fd5b600082601f830112620003dd57600080fd5b81516001600160401b0380821115620003fa57620003fa620003b5565b604051601f8301601f19908116603f01168101908282118183101715620004255762000425620003b5565b81604052838152602092508660208588010111156200044357600080fd5b600091505b8382101562000467578582018301518183018401529082019062000448565b6000602085830101528094505050505092915050565b6000806000606084860312156200049357600080fd5b83516001600160401b0380821115620004ab57600080fd5b620004b987838801620003cb565b94506020860151915080821115620004d057600080fd5b50620004df86828701620003cb565b604086015190935090506001600160a01b0381168114620004ff57600080fd5b809150509250925092565b600181811c908216806200051f57607f821691505b6020821081036200054057634e487b7160e01b600052602260045260246000fd5b50919050565b601f82111562000596576000816000526020600020601f850160051c81016020861015620005715750805b601f850160051c820191505b8181101562000592578281556001016200057d565b5050505b505050565b81516001600160401b03811115620005b757620005b7620003b5565b620005cf81620005c884546200050a565b8462000546565b602080601f831160018114620006075760008415620005ee5750858301515b600019600386901b1c1916600185901b17855562000592565b600085815260208120601f198616915b82811015620006385788860151825594840194600190910190840162000617565b5085821015620006575787850151600019600388901b60f8161c191681555b5050505050600190811b01905550565b808201808211156200068957634e487b7160e01b600052601160045260246000fd5b92915050565b6124f3806200069f6000396000f3fe608060405234801561001057600080fd5b50600436106101dc5760003560e01c8063715018a611610105578063a9059cbb1161009d578063a9059cbb14610417578063b247d9461461042a578063be1ad65c1461043b578063c0251d551461044e578063c6a690a4146103f1578063dd62ed3e14610461578063e3ee8a4314610474578063e841716914610487578063f2fde38b1461049657600080fd5b8063715018a6146103775780637eee288d1461037f5780638da5cb5b14610392578063921e31681461039a578063929ec537146103ad578063953e3ef0146103d657806395d89b41146103e957806396bebd04146103f15780639dc29fac1461040457600080fd5b806323b872dd1161017857806323b872dd146102995780632c080daf146102ac5780632e30417b146102bf578063313ce567146102d257806340c10f19146102ef578063556da1b9146103025780635f997c5b146103155780636f1813181461031e57806370a082311461034e57600080fd5b806306fdde03146101e1578063095ea7b3146101ff5780630e5ee780146102225780630ee2cb101461023757806311f50c851461025157806315070401146102645780631624f6c61461026c57806317d7de7c1461027f57806318160ddd14610287575b600080fd5b6101e96104a9565b6040516101f69190611bff565b60405180910390f35b61021261020d366004611c2e565b61053b565b60405190151581526020016101f6565b610235610230366004611c5a565b610555565b005b600c546001600160a01b03165b6040516101f69190611c7c565b61024461025f366004611c90565b610563565b6101e96105d1565b61023561027a366004611d61565b6105e0565b6101e9610762565b6004545b6040519081526020016101f6565b6102126102a7366004611dd4565b610771565b6102126102ba366004611e15565b610795565b6102356102cd366004611c90565b61085c565b600a54610100900460ff1660405160ff90911681526020016101f6565b6102356102fd366004611c2e565b610906565b610235610310366004611e5b565b61091b565b61028b60015481565b61023561032c366004611e76565b600080546001600160a01b0319166001600160a01b0392909216919091179055565b61028b61035c366004611e76565b6001600160a01b031660009081526002602052604090205490565b610235610b5f565b61021261038d366004611c2e565b610b73565b610244610c10565b6102126103a8366004611e93565b610c1f565b61028b6103bb366004611e76565b6001600160a01b03166000908152600b602052604090205490565b6102126103e4366004611e15565b610d54565b6101e9610e6b565b6102356103ff366004611c2e565b610e7a565b610235610412366004611c2e565b610f11565b610212610425366004611c2e565b610f26565b6000546001600160a01b0316610244565b610212610449366004611e93565b610f34565b61023561045c366004611c2e565b610f8d565b61028b61046f366004611ec8565b611055565b610235610482366004611c90565b611080565b60006040516101f69190611f2b565b6102356104a4366004611e76565b6111fe565b6060600880546104b890611f39565b80601f01602080910402602001604051908101604052809291908181526020018280546104e490611f39565b80156105315780601f1061050657610100808354040283529160200191610531565b820191906000526020600020905b81548152906001019060200180831161051457829003601f168201915b5050505050905090565b600033610549818585611239565b60019150505b92915050565b61055f828261124b565b5050565b600080546040516311f50c8560e01b8152600481018490526001600160a01b03909116906311f50c8590602401602060405180830381865afa1580156105ad573d6000803e3d6000fd5b505050506040513d601f19601f8201168201806040525081019061054f9190611f73565b6060600e80546104b890611f39565b7ff0c57e16840df040f15088dc2f81fe391c3923bec73e23a9662efc9c229c6a008054600160401b810460ff1615906001600160401b03166000811580156106255750825b90506000826001600160401b031660011480156106415750303b155b90508115801561064f575080155b1561066d5760405163f92ee8a960e01b815260040160405180910390fd5b845467ffffffffffffffff19166001178555831561069757845460ff60401b1916600160401b1785555b60006106a161140f565b905060006106ad611427565b90506106b761143e565b60015560086106c68b82611fd8565b5060096106d38a82611fd8565b506106dd82611452565b600080546001600160a01b0319166001600160a01b039290921691909117905550600a805461ff00191661010060ff891602179055831561075857845460ff60401b19168555604051600181527fc7f505b2f371ae2175ee4913f4499e1f2633a7b5936321eed1cdaeb6115181d29060200160405180910390a15b5050505050505050565b6060600d80546104b890611f39565b60003361077f8582856114a4565b61078a8585856114f7565b506001949350505050565b6000336107a38682866114a4565b6107ad8685611556565b6040805160c081018252600080825260208201526001600160a01b03808916828401528716606082015230608082015260a08101869052905161084f9085906107fc9089908990602401612097565b60408051601f19818403018152918152602080830180516001600160e01b03166325afaf4160e21b179052815180820183526000808252835180840185528181528451938401909452825291908661158c565b5060019695505050505050565b6000546040516333932be560e11b81526001600160a01b039091169063672657ca9061088c903390600401611c7c565b602060405180830381865afa1580156108a9573d6000803e3d6000fd5b505050506040513d601f19601f820116820180604052508101906108cd91906120b0565b6108f25760405162461bcd60e51b81526004016108e9906120d2565b60405180910390fd5b6109036108fd610c10565b82611556565b50565b61091082826115ec565b61055f60018261124b565b60005460408051631119527160e11b81529051610903926001600160a01b031691632232a4e29160048083019260209291908290030181865afa158015610966573d6000803e3d6000fd5b505050506040513d601f19601f8201168201806040525081019061098a9190612140565b60005460405163377890a160e11b81526001600160a01b0390911690636ef12142906109b890600401612159565b602060405180830381865afa1580156109d5573d6000803e3d6000fd5b505050506040513d601f19601f820116820180604052508101906109f99190611f73565b604051806101400160405280610a0d6104a9565b8152602001610a1a610e6b565b8152602001610a2860045490565b604051602001610a3a91815260200190565b604051602081830303815290604052815260200160008054906101000a90046001600160a01b03166001600160a01b0316633408e4706040518163ffffffff1660e01b8152600401602060405180830381865afa158015610a9f573d6000803e3d6000fd5b505050506040513d601f19601f82011682018060405250810190610ac39190612140565b8152602001306001600160a01b0316803b806020016040519081016040528181526000908060200190933c8152602001610afb611622565b81526001602082015260400160008152600a5460ff90811615156020830152861660409182015251610b309190602401612180565b60408051601f198184030181529190526020810180516001600160e01b0316638b55462d60e01b17905261167b565b610b676116f2565b610b716000611452565b565b6000610b7d610c10565b6001600160a01b0316836001600160a01b031614610c07576000610ba18484611724565b905080610beb5760405162461bcd60e51b815260206004820152601860248201527763616e6e6f7420756e6c6f636b207468652061737365747360401b60448201526064016108e9565b610bfd610bf6610c10565b85856114f7565b600191505061054f565b50600192915050565b6007546001600160a01b031690565b6000610c2b3384611556565b6040805160c0810182526000808252602082015233818301526001600160a01b038616606082015230608082015260a08101859052905161078a908490610c789088908890602401612097565b60408051601f198184030181529181526020820180516001600160e01b031663c0251d5560e01b17905251610cb39089908990602401612097565b60408051601f198184030181529181526020820180516001600160e01b0316637eee288d60e01b17905251610cee9033908a90602401612097565b60408051601f198184030181529181526020820180516001600160e01b03166331a9a42960e21b17905251602481018a90526044015b60408051601f198184030181529190526020810180516001600160e01b0316632e30417b60e01b1790528661158c565b600033610d628682866114a4565b610d6c8685611556565b6040805160c081018252600080825260208201526001600160a01b03808916828401528716606082015230608082015260a08101869052905161084f908590610dbb9089908990602401612097565b60408051601f198184030181529181526020820180516001600160e01b031663c0251d5560e01b17905251610df6908a908a90602401612097565b60408051601f198184030181529181526020820180516001600160e01b0316637eee288d60e01b17905251610e31908c908b90602401612097565b60408051601f198184030181529181526020820180516001600160e01b03166331a9a42960e21b17905251602481018b9052604401610d24565b6060600980546104b890611f39565b6000546040516333932be560e11b81526001600160a01b039091169063672657ca90610eaa903390600401611c7c565b602060405180830381865afa158015610ec7573d6000803e3d6000fd5b505050506040513d601f19601f82011682018060405250810190610eeb91906120b0565b610f075760405162461bcd60e51b81526004016108e9906120d2565b61055f82826115ec565b610f1b8282611556565b61055f60008261124b565b6000336105498185856114f7565b6000610f403384611556565b6040805160c0810182526000808252602082015233818301526001600160a01b038616606082015230608082015260a08101859052905161078a9084906107fc9088908890602401612097565b6000546040516333932be560e11b81526001600160a01b039091169063672657ca90610fbd903390600401611c7c565b602060405180830381865afa158015610fda573d6000803e3d6000fd5b505050506040513d601f19601f82011682018060405250810190610ffe91906120b0565b61101a5760405162461bcd60e51b81526004016108e9906120d2565b61102b611025610c10565b826115ec565b611033610c10565b6001600160a01b0316826001600160a01b03161461055f5761055f82826117e1565b6001600160a01b03918216600090815260036020908152604080832093909416825291909152205490565b6000546040516333932be560e11b81526001600160a01b039091169063672657ca906110b0903390600401611c7c565b602060405180830381865afa1580156110cd573d6000803e3d6000fd5b505050506040513d601f19601f820116820180604052508101906110f191906120b0565b61110d5760405162461bcd60e51b81526004016108e9906120d2565b60008054906101000a90046001600160a01b03166001600160a01b0316632232a4e26040518163ffffffff1660e01b8152600401602060405180830381865afa15801561115e573d6000803e3d6000fd5b505050506040513d601f19601f820116820180604052508101906111829190612140565b61118a611875565b146111f15760405162461bcd60e51b815260206004820152603160248201527f54686973206d6574686f64206f6e6c7920726563656976652063616c6c7320666044820152703937b69031b7b6b6b4ba1031b430b4b71760791b60648201526084016108e9565b6001819055610903611889565b6112066116f2565b6001600160a01b038116611230576000604051631e4fbdf760e01b81526004016108e99190611c7c565b61090381611452565b611246838383600161194e565b505050565b600154611256575050565b60005460408051631119527160e11b8152905161055f926001600160a01b031691632232a4e29160048083019260209291908290030181865afa1580156112a1573d6000803e3d6000fd5b505050506040513d601f19601f820116820180604052508101906112c59190612140565b60005460405163377890a160e11b81526001600160a01b0390911690636ef12142906112f390600401612159565b602060405180830381865afa158015611310573d6000803e3d6000fd5b505050506040513d601f19601f820116820180604052508101906113349190611f73565b60008054906101000a90046001600160a01b03166001600160a01b0316633408e4706040518163ffffffff1660e01b8152600401602060405180830381865afa158015611385573d6000803e3d6000fd5b505050506040513d601f19601f820116820180604052508101906113a99190612140565b60015486866040516020016113c091815260200190565b60408051601f19818403018152908290526113e094939291602401612272565b60408051601f198184030181529190526020810180516001600160e01b031663401c3df160e11b17905261167b565b600060343610611424575060331936013560601c5b90565b600060483610611424575060471936013560601c90565b6000602036106114245750601f1936013590565b600780546001600160a01b038381166001600160a01b0319831681179093556040519116919082907f8be0079c531659141344cd1fd0a4f28419497f9722a3daafe3b4186f6b6457e090600090a35050565b60006114b08484611055565b905060001981146114f157818110156114e257828183604051637dc7a0d960e11b81526004016108e9939291906122b1565b6114f18484848403600061194e565b50505050565b6001600160a01b038316611521576000604051634b637e8f60e11b81526004016108e99190611c7c565b6001600160a01b03821661154b57600060405163ec442f0560e01b81526004016108e99190611c7c565b611246838383611a23565b6001600160a01b038216611580576000604051634b637e8f60e11b81526004016108e99190611c7c565b61055f82600083611a23565b6001546115d35760405162461bcd60e51b81526020600482015260156024820152742a37b5b2b7103737ba103932b3b4b9ba32b932b21760591b60448201526064016108e9565b6115e4866001548787878787611b3a565b505050505050565b6001600160a01b03821661161657600060405163ec442f0560e01b81526004016108e99190611c7c565b61055f60008383611a23565b60606008600961163a600a5460ff6101009091041690565b60405160240161164c9392919061234f565b60408051601f198184030181529190526020810180516001600160e01b0316630b127b6360e11b179052919050565b60005460405163150b375f60e01b81526001600160a01b039091169063150b375f906116af90869086908690600401612388565b6020604051808303816000875af11580156116ce573d6000803e3d6000fd5b505050506040513d601f19601f820116820180604052508101906114f19190612140565b336116fb610c10565b6001600160a01b031614610b71573360405163118cdaa760e01b81526004016108e99190611c7c565b60006001600160a01b03831661173957600080fd5b6001600160a01b0383166000908152600b602052604090205482158015906117615750808311155b6117aa5760405162461bcd60e51b815260206004820152601a6024820152794e6f7420656e6f7567682066756e647320746f20756e6c6f636b60301b60448201526064016108e9565b6001600160a01b0384166000908152600b6020526040812080548592906117d29084906123d1565b90915550600195945050505050565b600081116118315760405162461bcd60e51b815260206004820152601d60248201527f416d6f756e74206d7573742062652067726561746572207468616e203000000060448201526064016108e9565b6001600160a01b03821661184457600080fd5b6001600160a01b0382166000908152600b60205260408120805483929061186c9084906123e4565b90915550505050565b600060343610611424575060331936013590565b6001546118ea5760405162461bcd60e51b815260206004820152602960248201527f4f6e6c79207265676973746572207265736f75726365207768656e206974277360448201526808185c1c1c9bdd995960ba1b60648201526084016108e9565b60005460015460405163d4f951c760e01b815260048101919091523060248201526001600160a01b039091169063d4f951c790604401600060405180830381600087803b15801561193a57600080fd5b505af11580156114f1573d6000803e3d6000fd5b6001600160a01b03841661197857600060405163e602df0560e01b81526004016108e99190611c7c565b6001600160a01b0383166119a2576000604051634a1406b160e11b81526004016108e99190611c7c565b6001600160a01b03808516600090815260036020908152604080832093871683529290522082905580156114f157826001600160a01b0316846001600160a01b03167f8c5be1e5ebec7d5bd14f71427d1e84f3dd0314c0f7b2291e5b200ac8c7c3b92584604051611a1591815260200190565b60405180910390a350505050565b6001600160a01b038316611a4e578060046000828254611a4391906123e4565b90915550611aad9050565b6001600160a01b03831660009081526002602052604090205481811015611a8e5783818360405163391434e360e21b81526004016108e9939291906122b1565b6001600160a01b03841660009081526002602052604090209082900390555b6001600160a01b038216611ac957600480548290039055611ae8565b6001600160a01b03821660009081526002602052604090208054820190555b816001600160a01b0316836001600160a01b03167fddf252ad1be2c89b69c2b068fc378daa952ba7f163c4a11628f55a4df523b3ef83604051611b2d91815260200190565b60405180910390a3505050565b600054604051631075c5d160e21b81526001600160a01b03909116906341d7174490611b76908a908a908a908a908a908a908a906004016123f7565b6020604051808303816000875af1158015611b95573d6000803e3d6000fd5b505050506040513d601f19601f820116820180604052508101906107589190612140565b6000815180845260005b81811015611bdf57602081850181015186830182015201611bc3565b506000602082860101526020601f19601f83011685010191505092915050565b602081526000611c126020830184611bb9565b9392505050565b6001600160a01b038116811461090357600080fd5b60008060408385031215611c4157600080fd5b8235611c4c81611c19565b946020939093013593505050565b60008060408385031215611c6d57600080fd5b823560028110611c4c57600080fd5b6001600160a01b0391909116815260200190565b600060208284031215611ca257600080fd5b5035919050565b634e487b7160e01b600052604160045260246000fd5b600082601f830112611cd057600080fd5b81356001600160401b0380821115611cea57611cea611ca9565b604051601f8301601f19908116603f01168101908282118183101715611d1257611d12611ca9565b81604052838152866020858801011115611d2b57600080fd5b836020870160208301376000602085830101528094505050505092915050565b803560ff81168114611d5c57600080fd5b919050565b600080600060608486031215611d7657600080fd5b83356001600160401b0380821115611d8d57600080fd5b611d9987838801611cbf565b94506020860135915080821115611daf57600080fd5b50611dbc86828701611cbf565b925050611dcb60408501611d4b565b90509250925092565b600080600060608486031215611de957600080fd5b8335611df481611c19565b92506020840135611e0481611c19565b929592945050506040919091013590565b60008060008060808587031215611e2b57600080fd5b8435611e3681611c19565b93506020850135611e4681611c19565b93969395505050506040820135916060013590565b600060208284031215611e6d57600080fd5b611c1282611d4b565b600060208284031215611e8857600080fd5b8135611c1281611c19565b600080600060608486031215611ea857600080fd5b8335611eb381611c19565b95602085013595506040909401359392505050565b60008060408385031215611edb57600080fd5b8235611ee681611c19565b91506020830135611ef681611c19565b809150509250929050565b634e487b7160e01b600052602160045260246000fd5b60068110611f2757611f27611f01565b9052565b6020810161054f8284611f17565b600181811c90821680611f4d57607f821691505b602082108103611f6d57634e487b7160e01b600052602260045260246000fd5b50919050565b600060208284031215611f8557600080fd5b8151611c1281611c19565b601f821115611246576000816000526020600020601f850160051c81016020861015611fb95750805b601f850160051c820191505b818110156115e457828155600101611fc5565b81516001600160401b03811115611ff157611ff1611ca9565b61200581611fff8454611f39565b84611f90565b602080601f83116001811461203a57600084156120225750858301515b600019600386901b1c1916600185901b1785556115e4565b600085815260208120601f198616915b828110156120695788860151825594840194600190910190840161204a565b50858210156120875787850151600019600388901b60f8161c191681555b5050505050600190811b01905550565b6001600160a01b03929092168252602082015260400190565b6000602082840312156120c257600080fd5b81518015158114611c1257600080fd5b60208082526048908201527f5468697320697320612072656365697665206d6574686f642e204f6e6c79206560408201527f6e64706f696e742773206578656375746f722063616e2063616c6c20746869736060820152671036b2ba3437b21760c11b608082015260a00190565b60006020828403121561215257600080fd5b5051919050565b6020808252600d908201526c546f6b656e526567697374727960981b604082015260600190565b602081526000825161014080602085015261219f610160850183611bb9565b91506020850151601f19808685030160408701526121bd8483611bb9565b935060408701519150808685030160608701526121da8483611bb9565b93506060870151608087015260808701519150808685030160a08701526122018483611bb9565b935060a08701519150808685030160c08701525061221f8382611bb9565b92505060c085015161223560e086018215159052565b5060e085015161010061224a81870183611f17565b860151905061012061225f8682018315159052565b9095015160ff1693019290925250919050565b84815283602082015260006002841061228d5761228d611f01565b836040830152608060608301526122a76080830184611bb9565b9695505050505050565b6001600160a01b039390931683526020830191909152604082015260600190565b600081546122df81611f39565b8085526020600183811680156122fc576001811461231657612344565b60ff1985168884015283151560051b880183019550612344565b866000528260002060005b8581101561233c5781548a8201860152908301908401612321565b890184019650505b505050505092915050565b60608152600061236260608301866122d2565b828103602084015261237481866122d2565b91505060ff83166040830152949350505050565b8381526001600160a01b03831660208201526060604082018190526000906123b290830184611bb9565b95945050505050565b634e487b7160e01b600052601160045260246000fd5b8181038181111561054f5761054f6123bb565b8082018082111561054f5761054f6123bb565b600061018089835288602084015280604084015261241781840189611bb9565b9050828103606084015261242b8188611bb9565b9050828103608084015261243f8187611bb9565b905082810360a08401526124538186611bb9565b91505082516005811061246857612468611f01565b60c0830152602083015160e083015260408301516001600160a01b039081166101008401526060840151811661012084015260808401511661014083015260a09092015161016090910152969550505050505056fea2646970667358221220e11d628129316c5d756e9679c47ba53ccd35cf3ee3630812c91f5c690686690064736f6c63430008180033",
  "linkReferences": {},
  "deployedLinkReferences": {}
}