{
  "_format": "hh-sol-artifact-1",
  "contractName": "RaylsErc1155Example",
  "sourceName": "src/rayls-protocol/test-contracts/Erc1155TokenExample.sol",
  "abi": [
    {
      "inputs": [
        {
          "internalType": "string",
          "name": "_url",
          "type": "string"
        },
        {
          "internalType": "string",
          "name": "name",
          "type": "string"
        },
        {
          "internalType": "address",
          "name": "_endpoint",
          "type": "address"
        }
      ],
      "stateMutability": "nonpayable",
      "type": "constructor"
    },
    {
      "inputs": [
        {
          "internalType": "address",
          "name": "sender",
          "type": "address"
        },
        {
          "internalType": "uint256",
          "name": "balance",
          "type": "uint256"
        },
        {
          "internalType": "uint256",
          "name": "needed",
          "type": "uint256"
        },
        {
          "internalType": "uint256",
          "name": "tokenId",
          "type": "uint256"
        }
      ],
      "name": "ERC1155InsufficientBalance",
      "type": "error"
    },
    {
      "inputs": [
        {
          "internalType": "address",
          "name": "approver",
          "type": "address"
        }
      ],
      "name": "ERC1155InvalidApprover",
      "type": "error"
    },
    {
      "inputs": [
        {
          "internalType": "uint256",
          "name": "idsLength",
          "type": "uint256"
        },
        {
          "internalType": "uint256",
          "name": "valuesLength",
          "type": "uint256"
        }
      ],
      "name": "ERC1155InvalidArrayLength",
      "type": "error"
    },
    {
      "inputs": [
        {
          "internalType": "address",
          "name": "operator",
          "type": "address"
        }
      ],
      "name": "ERC1155InvalidOperator",
      "type": "error"
    },
    {
      "inputs": [
        {
          "internalType": "address",
          "name": "receiver",
          "type": "address"
        }
      ],
      "name": "ERC1155InvalidReceiver",
      "type": "error"
    },
    {
      "inputs": [
        {
          "internalType": "address",
          "name": "sender",
          "type": "address"
        }
      ],
      "name": "ERC1155InvalidSender",
      "type": "error"
    },
    {
      "inputs": [
        {
          "internalType": "address",
          "name": "operator",
          "type": "address"
        },
        {
          "internalType": "address",
          "name": "owner",
          "type": "address"
        }
      ],
      "name": "ERC1155MissingApprovalForAll",
      "type": "error"
    },
    {
      "inputs": [],
      "name": "InvalidInitialization",
      "type": "error"
    },
    {
      "inputs": [],
      "name": "NotInitializing",
      "type": "error"
    },
    {
      "inputs": [
        {
          "internalType": "address",
          "name": "owner",
          "type": "address"
        }
      ],
      "name": "OwnableInvalidOwner",
      "type": "error"
    },
    {
      "inputs": [
        {
          "internalType": "address",
          "name": "account",
          "type": "address"
        }
      ],
      "name": "OwnableUnauthorizedAccount",
      "type": "error"
    },
    {
      "anonymous": false,
      "inputs": [
        {
          "indexed": true,
          "internalType": "address",
          "name": "account",
          "type": "address"
        },
        {
          "indexed": true,
          "internalType": "address",
          "name": "operator",
          "type": "address"
        },
        {
          "indexed": false,
          "internalType": "bool",
          "name": "approved",
          "type": "bool"
        }
      ],
      "name": "ApprovalForAll",
      "type": "event"
    },
    {
      "anonymous": false,
      "inputs": [
        {
          "indexed": false,
          "internalType": "uint64",
          "name": "version",
          "type": "uint64"
        }
      ],
      "name": "Initialized",
      "type": "event"
    },
    {
      "anonymous": false,
      "inputs": [
        {
          "indexed": true,
          "internalType": "address",
          "name": "previousOwner",
          "type": "address"
        },
        {
          "indexed": true,
          "internalType": "address",
          "name": "newOwner",
          "type": "address"
        }
      ],
      "name": "OwnershipTransferred",
      "type": "event"
    },
    {
      "anonymous": false,
      "inputs": [
        {
          "indexed": true,
          "internalType": "address",
          "name": "operator",
          "type": "address"
        },
        {
          "indexed": true,
          "internalType": "address",
          "name": "from",
          "type": "address"
        },
        {
          "indexed": true,
          "internalType": "address",
          "name": "to",
          "type": "address"
        },
        {
          "indexed": false,
          "internalType": "uint256[]",
          "name": "ids",
          "type": "uint256[]"
        },
        {
          "indexed": false,
          "internalType": "uint256[]",
          "name": "values",
          "type": "uint256[]"
        }
      ],
      "name": "TransferBatch",
      "type": "event"
    },
    {
      "anonymous": false,
      "inputs": [
        {
          "indexed": true,
          "internalType": "address",
          "name": "operator",
          "type": "address"
        },
        {
          "indexed": true,
          "internalType": "address",
          "name": "from",
          "type": "address"
        },
        {
          "indexed": true,
          "internalType": "address",
          "name": "to",
          "type": "address"
        },
        {
          "indexed": false,
          "internalType": "uint256",
          "name": "id",
          "type": "uint256"
        },
        {
          "indexed": false,
          "internalType": "uint256",
          "name": "value",
          "type": "uint256"
        }
      ],
      "name": "TransferSingle",
      "type": "event"
    },
    {
      "anonymous": false,
      "inputs": [
        {
          "indexed": false,
          "internalType": "string",
          "name": "value",
          "type": "string"
        },
        {
          "indexed": true,
          "internalType": "uint256",
          "name": "id",
          "type": "uint256"
        }
      ],
      "name": "URI",
      "type": "event"
    },
    {
      "inputs": [],
      "name": "Gold",
      "outputs": [
        {
          "internalType": "uint256",
          "name": "",
          "type": "uint256"
        }
      ],
      "stateMutability": "view",
      "type": "function"
    },
    {
      "inputs": [],
      "name": "Silver",
      "outputs": [
        {
          "internalType": "uint256",
          "name": "",
          "type": "uint256"
        }
      ],
      "stateMutability": "view",
      "type": "function"
    },
    {
      "inputs": [],
      "name": "_getEndpointAddress",
      "outputs": [
        {
          "internalType": "address",
          "name": "",
          "type": "address"
        }
      ],
      "stateMutability": "view",
      "type": "function"
    },
    {
      "inputs": [
        {
          "internalType": "address",
          "name": "_endpoint",
          "type": "address"
        }
      ],
      "name": "_updateEndpoint",
      "outputs": [],
      "stateMutability": "nonpayable",
      "type": "function"
    },
    {
      "inputs": [],
      "name": "addressToFail",
      "outputs": [
        {
          "internalType": "address",
          "name": "",
          "type": "address"
        }
      ],
      "stateMutability": "view",
      "type": "function"
    },
    {
      "inputs": [
        {
          "internalType": "address",
          "name": "account",
          "type": "address"
        },
        {
          "internalType": "uint256",
          "name": "id",
          "type": "uint256"
        }
      ],
      "name": "balanceOf",
      "outputs": [
        {
          "internalType": "uint256",
          "name": "",
          "type": "uint256"
        }
      ],
      "stateMutability": "view",
      "type": "function"
    },
    {
      "inputs": [
        {
          "internalType": "address[]",
          "name": "accounts",
          "type": "address[]"
        },
        {
          "internalType": "uint256[]",
          "name": "ids",
          "type": "uint256[]"
        }
      ],
      "name": "balanceOfBatch",
      "outputs": [
        {
          "internalType": "uint256[]",
          "name": "",
          "type": "uint256[]"
        }
      ],
      "stateMutability": "view",
      "type": "function"
    },
    {
      "inputs": [
        {
          "internalType": "address",
          "name": "from",
          "type": "address"
        },
        {
          "internalType": "uint256",
          "name": "id",
          "type": "uint256"
        },
        {
          "internalType": "uint256",
          "name": "value",
          "type": "uint256"
        }
      ],
      "name": "burn",
      "outputs": [],
      "stateMutability": "nonpayable",
      "type": "function"
    },
    {
      "inputs": [
        {
          "internalType": "bytes32",
          "name": "_resourceId",
          "type": "bytes32"
        }
      ],
      "name": "getAddressByResourceId",
      "outputs": [
        {
          "internalType": "address",
          "name": "",
          "type": "address"
        }
      ],
      "stateMutability": "view",
      "type": "function"
    },
    {
      "inputs": [
        {
          "internalType": "address",
          "name": "account",
          "type": "address"
        },
        {
          "internalType": "uint256",
          "name": "id",
          "type": "uint256"
        }
      ],
      "name": "getLockedAmount",
      "outputs": [
        {
          "internalType": "uint256",
          "name": "",
          "type": "uint256"
        }
      ],
      "stateMutability": "view",
      "type": "function"
    },
    {
      "inputs": [
        {
          "internalType": "string",
          "name": "uri",
          "type": "string"
        },
        {
          "internalType": "string",
          "name": "_name",
          "type": "string"
        }
      ],
      "name": "initialize",
      "outputs": [],
      "stateMutability": "nonpayable",
      "type": "function"
    },
    {
      "inputs": [
        {
          "internalType": "address",
          "name": "account",
          "type": "address"
        },
        {
          "internalType": "address",
          "name": "operator",
          "type": "address"
        }
      ],
      "name": "isApprovedForAll",
      "outputs": [
        {
          "internalType": "bool",
          "name": "",
          "type": "bool"
        }
      ],
      "stateMutability": "view",
      "type": "function"
    },
    {
      "inputs": [
        {
          "internalType": "address",
          "name": "to",
          "type": "address"
        },
        {
          "internalType": "uint256",
          "name": "id",
          "type": "uint256"
        },
        {
          "internalType": "uint256",
          "name": "value",
          "type": "uint256"
        },
        {
          "internalType": "bytes",
          "name": "data",
          "type": "bytes"
        }
      ],
      "name": "mint",
      "outputs": [],
      "stateMutability": "nonpayable",
      "type": "function"
    },
    {
      "inputs": [],
      "name": "name",
      "outputs": [
        {
          "internalType": "string",
          "name": "",
          "type": "string"
        }
      ],
      "stateMutability": "view",
      "type": "function"
    },
    {
      "inputs": [],
      "name": "owner",
      "outputs": [
        {
          "internalType": "address",
          "name": "",
          "type": "address"
        }
      ],
      "stateMutability": "view",
      "type": "function"
    },
    {
      "inputs": [
        {
          "internalType": "bytes32",
          "name": "_resourceId",
          "type": "bytes32"
        }
      ],
      "name": "receiveResourceId",
      "outputs": [],
      "stateMutability": "nonpayable",
      "type": "function"
    },
    {
      "inputs": [
        {
          "internalType": "address",
          "name": "to",
          "type": "address"
        },
        {
          "internalType": "uint256",
          "name": "id",
          "type": "uint256"
        },
        {
          "internalType": "uint256",
          "name": "value",
          "type": "uint256"
        },
        {
          "internalType": "bytes",
          "name": "data",
          "type": "bytes"
        }
      ],
      "name": "receiveTeleport",
      "outputs": [],
      "stateMutability": "nonpayable",
      "type": "function"
    },
    {
      "inputs": [
        {
          "internalType": "address",
          "name": "to",
          "type": "address"
        },
        {
          "internalType": "uint256",
          "name": "id",
          "type": "uint256"
        },
        {
          "internalType": "uint256",
          "name": "value",
          "type": "uint256"
        },
        {
          "internalType": "bytes",
          "name": "data",
          "type": "bytes"
        }
      ],
      "name": "receiveTeleportAtomic",
      "outputs": [],
      "stateMutability": "nonpayable",
      "type": "function"
    },
    {
      "inputs": [],
      "name": "renounceOwnership",
      "outputs": [],
      "stateMutability": "nonpayable",
      "type": "function"
    },
    {
      "inputs": [],
      "name": "resourceId",
      "outputs": [
        {
          "internalType": "bytes32",
          "name": "",
          "type": "bytes32"
        }
      ],
      "stateMutability": "view",
      "type": "function"
    },
    {
      "inputs": [
        {
          "internalType": "address",
          "name": "to",
          "type": "address"
        },
        {
          "internalType": "uint256",
          "name": "id",
          "type": "uint256"
        },
        {
          "internalType": "uint256",
          "name": "value",
          "type": "uint256"
        }
      ],
      "name": "revertTeleportBurn",
      "outputs": [],
      "stateMutability": "nonpayable",
      "type": "function"
    },
    {
      "inputs": [
        {
          "internalType": "address",
          "name": "to",
          "type": "address"
        },
        {
          "internalType": "uint256",
          "name": "id",
          "type": "uint256"
        },
        {
          "internalType": "uint256",
          "name": "value",
          "type": "uint256"
        },
        {
          "internalType": "bytes",
          "name": "data",
          "type": "bytes"
        }
      ],
      "name": "revertTeleportMint",
      "outputs": [],
      "stateMutability": "nonpayable",
      "type": "function"
    },
    {
      "inputs": [
        {
          "internalType": "address",
          "name": "from",
          "type": "address"
        },
        {
          "internalType": "address",
          "name": "to",
          "type": "address"
        },
        {
          "internalType": "uint256[]",
          "name": "ids",
          "type": "uint256[]"
        },
        {
          "internalType": "uint256[]",
          "name": "values",
          "type": "uint256[]"
        },
        {
          "internalType": "bytes",
          "name": "data",
          "type": "bytes"
        }
      ],
      "name": "safeBatchTransferFrom",
      "outputs": [],
      "stateMutability": "nonpayable",
      "type": "function"
    },
    {
      "inputs": [
        {
          "internalType": "address",
          "name": "from",
          "type": "address"
        },
        {
          "internalType": "address",
          "name": "to",
          "type": "address"
        },
        {
          "internalType": "uint256",
          "name": "id",
          "type": "uint256"
        },
        {
          "internalType": "uint256",
          "name": "value",
          "type": "uint256"
        },
        {
          "internalType": "bytes",
          "name": "data",
          "type": "bytes"
        }
      ],
      "name": "safeTransferFrom",
      "outputs": [],
      "stateMutability": "nonpayable",
      "type": "function"
    },
    {
      "inputs": [
        {
          "internalType": "address",
          "name": "operator",
          "type": "address"
        },
        {
          "internalType": "bool",
          "name": "approved",
          "type": "bool"
        }
      ],
      "name": "setApprovalForAll",
      "outputs": [],
      "stateMutability": "nonpayable",
      "type": "function"
    },
    {
      "inputs": [
        {
          "internalType": "uint8",
          "name": "_storageSlot",
          "type": "uint8"
        }
      ],
      "name": "submitTokenRegistration",
      "outputs": [],
      "stateMutability": "nonpayable",
      "type": "function"
    },
    {
      "inputs": [
        {
          "internalType": "enum SharedObjects.BalanceUpdateType",
          "name": "updateType",
          "type": "uint8"
        },
        {
          "internalType": "uint256",
          "name": "id",
          "type": "uint256"
        },
        {
          "internalType": "uint256",
          "name": "amount",
          "type": "uint256"
        }
      ],
      "name": "submitTokenUpdate",
      "outputs": [],
      "stateMutability": "nonpayable",
      "type": "function"
    },
    {
      "inputs": [
        {
          "internalType": "bytes4",
          "name": "interfaceId",
          "type": "bytes4"
        }
      ],
      "name": "supportsInterface",
      "outputs": [
        {
          "internalType": "bool",
          "name": "",
          "type": "bool"
        }
      ],
      "stateMutability": "view",
      "type": "function"
    },
    {
      "inputs": [
        {
          "internalType": "address",
          "name": "to",
          "type": "address"
        },
        {
          "internalType": "uint256",
          "name": "id",
          "type": "uint256"
        },
        {
          "internalType": "uint256",
          "name": "value",
          "type": "uint256"
        },
        {
          "internalType": "uint256",
          "name": "chainId",
          "type": "uint256"
        },
        {
          "internalType": "bytes",
          "name": "data",
          "type": "bytes"
        }
      ],
      "name": "teleport",
      "outputs": [
        {
          "internalType": "bool",
          "name": "",
          "type": "bool"
        }
      ],
      "stateMutability": "nonpayable",
      "type": "function"
    },
    {
      "inputs": [
        {
          "internalType": "address",
          "name": "to",
          "type": "address"
        },
        {
          "internalType": "uint256",
          "name": "id",
          "type": "uint256"
        },
        {
          "internalType": "uint256",
          "name": "value",
          "type": "uint256"
        },
        {
          "internalType": "uint256",
          "name": "chainId",
          "type": "uint256"
        },
        {
          "internalType": "bytes",
          "name": "data",
          "type": "bytes"
        }
      ],
      "name": "teleportAtomic",
      "outputs": [
        {
          "internalType": "bool",
          "name": "",
          "type": "bool"
        }
      ],
      "stateMutability": "nonpayable",
      "type": "function"
    },
    {
      "inputs": [
        {
          "internalType": "address",
          "name": "newOwner",
          "type": "address"
        }
      ],
      "name": "transferOwnership",
      "outputs": [],
      "stateMutability": "nonpayable",
      "type": "function"
    },
    {
      "inputs": [
        {
          "internalType": "address",
          "name": "to",
          "type": "address"
        },
        {
          "internalType": "uint256",
          "name": "id",
          "type": "uint256"
        },
        {
          "internalType": "uint256",
          "name": "amount",
          "type": "uint256"
        },
        {
          "internalType": "bytes",
          "name": "data",
          "type": "bytes"
        }
      ],
      "name": "unlock",
      "outputs": [
        {
          "internalType": "bool",
          "name": "",
          "type": "bool"
        }
      ],
      "stateMutability": "nonpayable",
      "type": "function"
    },
    {
      "inputs": [
        {
          "internalType": "uint256",
          "name": "",
          "type": "uint256"
        }
      ],
      "name": "uri",
      "outputs": [
        {
          "internalType": "string",
          "name": "",
          "type": "string"
        }
      ],
      "stateMutability": "view",
      "type": "function"
    }
  ],
  "bytecode": "0x60806040523480156200001157600080fd5b506040516200417738038062004177833981016040819052620000349162000aea565b600080546001600160a01b0319166001600160a01b03831617815583908390839033908185620000648162000157565b506001600160a01b0381166200009557604051631e4fbdf760e01b8152600060048201526024015b60405180910390fd5b620000a08162000169565b506006620000af868262000c04565b506007620000be858262000c04565b506008805460ff1916821515179055620000d7620001bb565b50505050506200011433600060646040518060400160405280600a815260200169119a5c9cdd08135a5b9d60b21b8152506200026f60201b60201c565b6200014e3360326107d06040518060400160405280600b81526020016a14d958dbdb9908135a5b9d60aa1b8152506200026f60201b60201c565b50505062000ec0565b600662000165828262000c04565b5050565b600580546001600160a01b038381166001600160a01b0319831681179093556040519116919082907f8be0079c531659141344cd1fd0a4f28419497f9722a3daafe3b4186f6b6457e090600090a35050565b7ff0c57e16840df040f15088dc2f81fe391c3923bec73e23a9662efc9c229c6a00805468010000000000000000900460ff16156200020c5760405163f92ee8a960e01b815260040160405180910390fd5b80546001600160401b03908116146200026c5780546001600160401b0319166001600160401b0390811782556040519081527fc7f505b2f371ae2175ee4913f4499e1f2633a7b5936321eed1cdaeb6115181d29060200160405180910390a15b50565b6001600160a01b0384166200029b57604051632bfa23e760e11b8152600060048201526024016200008c565b60408051600180825260208201869052818301908152606082018590526080820190925290620002d0600087848487620002d8565b505050505050565b620002e6858585856200033b565b6001600160a01b038416156200033457825133906001036200032457602084810151908401516200031c838989858589620005c6565b5050620002d0565b620002d081878787878762000700565b5050505050565b6200034984848484620007f4565b6001600160a01b038416620004405760005b82518110156200043e5760008382815181106200037c576200037c62000cd0565b6020026020010151905060008383815181106200039d576200039d62000cd0565b6020026020010151905080600b60008481526020019081526020016000206000828254620003cc919062000cfc565b90915550506000828152600c602052604090205460ff166200043357600d805460018181019092557fd7b6990105719101dabeb77144f2a3385c8033acd3af97e9423a695e81ad1eb5018390556000838152600c60205260409020805460ff191690911790555b50506001016200035b565b505b6001600160a01b038316620005c05760005b82518110156200033457600083828151811062000473576200047362000cd0565b60200260200101519050600083838151811062000494576200049462000cd0565b6020026020010151905080600b60008481526020019081526020016000206000828254620004c3919062000d18565b90915550506000828152600b60205260408120549003620005b5576000828152600c60205260408120805460ff191690555b600d54811015620005b35782600d828154811062000517576200051762000cd0565b906000526020600020015403620005aa57600d80546200053a9060019062000d18565b815481106200054d576200054d62000cd0565b9060005260206000200154600d82815481106200056e576200056e62000cd0565b600091825260209091200155600d8054806200058e576200058e62000d2e565b60019003818190600052602060002001600090559055620005b3565b600101620004f5565b505b505060010162000452565b50505050565b6001600160a01b0384163b15620002d05760405163f23a6e6160e01b81526001600160a01b0385169063f23a6e61906200060d908990899088908890889060040162000d72565b6020604051808303816000875af19250505080156200064b575060408051601f3d908101601f19168201909252620006489181019062000db9565b60015b620006b9573d8080156200067c576040519150601f19603f3d011682016040523d82523d6000602084013e62000681565b606091505b508051600003620006b157604051632bfa23e760e11b81526001600160a01b03861660048201526024016200008c565b805181602001fd5b6001600160e01b0319811663f23a6e6160e01b14620006f757604051632bfa23e760e11b81526001600160a01b03861660048201526024016200008c565b50505050505050565b6001600160a01b0384163b15620002d05760405163bc197c8160e01b81526001600160a01b0385169063bc197c819062000747908990899088908890889060040162000e2a565b6020604051808303816000875af192505050801562000785575060408051601f3d908101601f19168201909252620007829181019062000db9565b60015b620007b6573d8080156200067c576040519150601f19603f3d011682016040523d82523d6000602084013e62000681565b6001600160e01b0319811663bc197c8160e01b14620006f757604051632bfa23e760e11b81526001600160a01b03861660048201526024016200008c565b8051825114620008255781518151604051635b05999160e01b8152600481019290925260248201526044016200008c565b3360005b835181101562000939576020818102858101820151908501909101516001600160a01b03881615620008e45760008281526002602090815260408083206001600160a01b038c16845290915290205481811015620008bb576040516303dee4c560e01b81526001600160a01b038a1660048201526024810182905260448101839052606481018490526084016200008c565b60008381526002602090815260408083206001600160a01b038d16845290915290209082900390555b6001600160a01b038716156200092e5760008281526002602090815260408083206001600160a01b038b168452909152812080548392906200092890849062000cfc565b90915550505b505060010162000829565b508251600103620009bd5760208301516000906020840151909150856001600160a01b0316876001600160a01b0316846001600160a01b03167fc3d58168c5ae7397731d063d5bbf3d657854427343f4c083240f7aacaa2d0f628585604051620009ad929190918252602082015260400190565b60405180910390a4505062000334565b836001600160a01b0316856001600160a01b0316826001600160a01b03167f4a39dc06d4c0dbc64b70af90fd698a233a518aa5d07e595d983b8c0526c8f7fb868660405162000a0e92919062000e8e565b60405180910390a45050505050565b634e487b7160e01b600052604160045260246000fd5b60005b8381101562000a5057818101518382015260200162000a36565b50506000910152565b600082601f83011262000a6b57600080fd5b81516001600160401b038082111562000a885762000a8862000a1d565b604051601f8301601f19908116603f0116810190828211818310171562000ab35762000ab362000a1d565b8160405283815286602085880101111562000acd57600080fd5b62000ae084602083016020890162000a33565b9695505050505050565b60008060006060848603121562000b0057600080fd5b83516001600160401b038082111562000b1857600080fd5b62000b268783880162000a59565b9450602086015191508082111562000b3d57600080fd5b5062000b4c8682870162000a59565b604086015190935090506001600160a01b038116811462000b6c57600080fd5b809150509250925092565b600181811c9082168062000b8c57607f821691505b60208210810362000bad57634e487b7160e01b600052602260045260246000fd5b50919050565b601f82111562000bff576000816000526020600020601f850160051c8101602086101562000bde5750805b601f850160051c820191505b81811015620002d05782815560010162000bea565b505050565b81516001600160401b0381111562000c205762000c2062000a1d565b62000c388162000c31845462000b77565b8462000bb3565b602080601f83116001811462000c70576000841562000c575750858301515b600019600386901b1c1916600185901b178555620002d0565b600085815260208120601f198616915b8281101562000ca15788860151825594840194600190910190840162000c80565b508582101562000cc05787850151600019600388901b60f8161c191681555b5050505050600190811b01905550565b634e487b7160e01b600052603260045260246000fd5b634e487b7160e01b600052601160045260246000fd5b8082018082111562000d125762000d1262000ce6565b92915050565b8181038181111562000d125762000d1262000ce6565b634e487b7160e01b600052603160045260246000fd5b6000815180845262000d5e81602086016020860162000a33565b601f01601f19169290920160200192915050565b6001600160a01b03868116825285166020820152604081018490526060810183905260a06080820181905260009062000dae9083018462000d44565b979650505050505050565b60006020828403121562000dcc57600080fd5b81516001600160e01b03198116811462000de557600080fd5b9392505050565b60008151808452602080850194506020840160005b8381101562000e1f5781518752958201959082019060010162000e01565b509495945050505050565b6001600160a01b0386811682528516602082015260a06040820181905260009062000e589083018662000dec565b828103606084015262000e6c818662000dec565b9050828103608084015262000e82818562000d44565b98975050505050505050565b60408152600062000ea3604083018562000dec565b828103602084015262000eb7818562000dec565b95945050505050565b6132a78062000ed06000396000f3fe608060405234801561001057600080fd5b50600436106101ba5760003560e01c80637cbfba7b116100fa578063e6ba40891161009d578063e6ba4089146103db578063e70cc6aa146103ed578063e985e9c514610400578063f242432a14610413578063f2fde38b14610426578063f5298aca14610439578063f9b5e2691461044c578063fb3ea8f31461045f578063fe2752801461047257600080fd5b80637cbfba7b146103385780638da5cb5b1461036e57806390b667aa14610376578063a1e2057b14610389578063a22cb4651461039c578063b247d946146103af578063c8449b65146103c0578063e3ee8a43146103c857600080fd5b80634cd88b76116101625780634cd88b761461028b5780634e1273f41461029e578063556da1b9146102be5780635f997c5b146102d157806367d9e042146102da5780636f181318146102ed578063715018a61461031d578063731133e91461032557600080fd5b8062fdd58e146101bf57806301ffc9a7146101e557806306fdde03146102085780630e89341c1461021d57806311f50c85146102305780632eb2c2d6146102505780633de5b586146102655780634792ea2714610278575b600080fd5b6101d26101cd3660046124e2565b61047a565b6040519081526020015b60405180910390f35b6101f86101f3366004612524565b6104a4565b60405190151581526020016101dc565b6102106104f4565b6040516101dc919061258e565b61021061022b3660046125a1565b610582565b61024361023e3660046125a1565b610616565b6040516101dc91906125ba565b61026361025e366004612715565b610684565b005b6102636102733660046127c2565b6106e5565b6101f8610286366004612824565b610805565b610263610299366004612883565b610961565b6102b16102ac3660046128e6565b610ace565b6040516101dc91906129d9565b6102636102cc3660046129ec565b610b9a565b6101d260015481565b6102636102e83660046127c2565b610ee4565b6102636102fb366004612a0f565b600080546001600160a01b0319166001600160a01b0392909216919091179055565b610263610f7d565b6102636103333660046127c2565b610f91565b6101d26103463660046124e2565b6001600160a01b03919091166000908152600960209081526040808320938352929052205490565b610243610fb1565b6102636103843660046127c2565b610f71565b610263610397366004612a2c565b610fc0565b6102636103aa366004612a6f565b61105d565b6000546001600160a01b0316610243565b6101d2600081565b6102636103d63660046125a1565b61106c565b6102436a055500000000000000112381565b6101f86103fb3660046127c2565b6111ea565b6101f861040e366004612aa8565b611284565b610263610421366004612ad6565b6112b2565b610263610434366004612a0f565b611302565b610263610447366004612a2c565b61133d565b6101f861045a366004612824565b61135c565b61026361046d366004612b32565b611407565b6101d2603281565b60008181526002602090815260408083206001600160a01b03861684529091529020545b92915050565b60006001600160e01b03198216636cdb3d1360e11b14806104d557506001600160e01b031982166303a24d0760e21b145b8061049e57506301ffc9a760e01b6001600160e01b031983161461049e565b6007805461050190612b56565b80601f016020809104026020016040519081016040528092919081815260200182805461052d90612b56565b801561057a5780601f1061054f5761010080835404028352916020019161057a565b820191906000526020600020905b81548152906001019060200180831161055d57829003601f168201915b505050505081565b60606006805461059190612b56565b80601f01602080910402602001604051908101604052809291908181526020018280546105bd90612b56565b801561060a5780601f106105df5761010080835404028352916020019161060a565b820191906000526020600020905b8154815290600101906020018083116105ed57829003601f168201915b50505050509050919050565b600080546040516311f50c8560e01b8152600481018490526001600160a01b03909116906311f50c8590602401602060405180830381865afa158015610660573d6000803e3d6000fd5b505050506040513d601f19601f8201168201806040525081019061049e9190612b8a565b336001600160a01b03861681148015906106a557506106a38682611284565b155b156106d057808660405163711bec9160e11b81526004016106c7929190612ba7565b60405180910390fd5b6106dd868686868661141a565b505050505050565b6000546040516333932be560e11b81526001600160a01b039091169063672657ca906107159033906004016125ba565b602060405180830381865afa158015610732573d6000803e3d6000fd5b505050506040513d601f19601f820116820180604052508101906107569190612bc1565b6107725760405162461bcd60e51b81526004016106c790612bde565b6a0555000000000000001122196001600160a01b038516016107f35760405162461bcd60e51b815260206004820152603460248201527f44657374696e6174696f6e206164647265737320697320746865206f6e6520746044820152733430ba103932bb32b93a1036b2b9b9b0b3b2b99760611b60648201526084016106c7565b6107ff84848484611481565b50505050565b60006108123386866114bf565b6040805160c081018252600281526020810187905233818301526001600160a01b038816606082015230608082015260a081018690529051610954908590610864908a908a908a908990602401612c62565b60408051601f198184030181529181526020820180516001600160e01b0316631ef2dac360e11b179052516108a3908b908b908b908a90602401612c62565b60408051601f198184030181529181526020820180516001600160e01b0316637386635560e11b179052516108e29033908c908c908b90602401612c62565b60408051601f198184030181529181526020820180516001600160e01b03166333ecf02160e11b17905251336024820152604481018c9052606481018b905260840160408051601f198184030181529190526020810180516001600160e01b031663a1e2057b60e01b17905286611516565b5060019695505050505050565b7ff0c57e16840df040f15088dc2f81fe391c3923bec73e23a9662efc9c229c6a008054600160401b810460ff1615906001600160401b03166000811580156109a65750825b90506000826001600160401b031660011480156109c25750303b155b9050811580156109d0575080155b156109ee5760405163f92ee8a960e01b815260040160405180910390fd5b845467ffffffffffffffff191660011785558315610a1857845460ff60401b1916600160401b1785555b6000610a2261156e565b90506000610a2e611586565b9050610a3861159d565b6001556006610a478a82612ce1565b506007610a548982612ce1565b50610a5e826115b1565b600080546001600160a01b0319166001600160a01b0392909216919091179055508315610ac557845460ff60401b19168555604051600181527fc7f505b2f371ae2175ee4913f4499e1f2633a7b5936321eed1cdaeb6115181d29060200160405180910390a15b50505050505050565b60608151835114610aff5781518351604051635b05999160e01b8152600481019290925260248201526044016106c7565b600083516001600160401b03811115610b1a57610b1a6125ce565b604051908082528060200260200182016040528015610b43578160200160208202803683370190505b50905060005b8451811015610b9257602080820286010151610b6d9060208084028701015161047a565b828281518110610b7f57610b7f612da0565b6020908102919091010152600101610b49565b509392505050565b60005460408051631119527160e11b81529051610ee1926001600160a01b031691632232a4e29160048083019260209291908290030181865afa158015610be5573d6000803e3d6000fd5b505050506040513d601f19601f82011682018060405250810190610c099190612db6565b60005460405163377890a160e11b81526001600160a01b0390911690636ef1214290610c3790600401612dcf565b602060405180830381865afa158015610c54573d6000803e3d6000fd5b505050506040513d601f19601f82011682018060405250810190610c789190612b8a565b60405180610140016040528060078054610c9190612b56565b80601f0160208091040260200160405190810160405280929190818152602001828054610cbd90612b56565b8015610d0a5780601f10610cdf57610100808354040283529160200191610d0a565b820191906000526020600020905b815481529060010190602001808311610ced57829003601f168201915b5050505050815260200160078054610d2190612b56565b80601f0160208091040260200160405190810160405280929190818152602001828054610d4d90612b56565b8015610d9a5780601f10610d6f57610100808354040283529160200191610d9a565b820191906000526020600020905b815481529060010190602001808311610d7d57829003601f168201915b50505050508152602001610dac611603565b604051602001610dbc9190612df6565b604051602081830303815290604052815260200160008054906101000a90046001600160a01b03166001600160a01b0316633408e4706040518163ffffffff1660e01b8152600401602060405180830381865afa158015610e21573d6000803e3d6000fd5b505050506040513d601f19601f82011682018060405250810190610e459190612db6565b8152602001306001600160a01b0316803b806020016040519081016040528181526000908060200190933c8152602001610e7d611705565b8152600060208201526040016003815260085460ff90811615156020830152861660409182015251610eb29190602401612e61565b60408051601f198184030181529190526020810180516001600160e01b0316638b55462d60e01b17905261174b565b50565b6000546040516333932be560e11b81526001600160a01b039091169063672657ca90610f149033906004016125ba565b602060405180830381865afa158015610f31573d6000803e3d6000fd5b505050506040513d601f19601f82011682018060405250810190610f559190612bc1565b610f715760405162461bcd60e51b81526004016106c790612bde565b6107ff848484846117c2565b610f8561180b565b610f8f60006115b1565b565b610f9961180b565b610fa5848484846117c2565b6107ff6001848461183d565b6005546001600160a01b031690565b6000546040516333932be560e11b81526001600160a01b039091169063672657ca90610ff09033906004016125ba565b602060405180830381865afa15801561100d573d6000803e3d6000fd5b505050506040513d601f19601f820116820180604052508101906110319190612bc1565b61104d5760405162461bcd60e51b81526004016106c790612bde565b6110588383836114bf565b505050565b611068338383611a14565b5050565b6000546040516333932be560e11b81526001600160a01b039091169063672657ca9061109c9033906004016125ba565b602060405180830381865afa1580156110b9573d6000803e3d6000fd5b505050506040513d601f19601f820116820180604052508101906110dd9190612bc1565b6110f95760405162461bcd60e51b81526004016106c790612bde565b60008054906101000a90046001600160a01b03166001600160a01b0316632232a4e26040518163ffffffff1660e01b8152600401602060405180830381865afa15801561114a573d6000803e3d6000fd5b505050506040513d601f19601f8201168201806040525081019061116e9190612db6565b611176611aaa565b146111dd5760405162461bcd60e51b815260206004820152603160248201527f54686973206d6574686f64206f6e6c7920726563656976652063616c6c7320666044820152703937b69031b7b6b6b4ba1031b430b4b71760791b60648201526084016106c7565b6001819055610ee1611abe565b60006111f4610fb1565b6001600160a01b0316856001600160a01b031614611279576000611219868686611b83565b9050806112635760405162461bcd60e51b815260206004820152601860248201527763616e6e6f7420756e6c6f636b207468652061737365747360401b60448201526064016106c7565b61127761126e610fb1565b87878787611c57565b505b506001949350505050565b6001600160a01b03918216600090815260036020908152604080832093909416825291909152205460ff1690565b336001600160a01b03861681148015906112d357506112d18682611284565b155b156112f557808660405163711bec9160e11b81526004016106c7929190612ba7565b6106dd8686868686611c57565b61130a61180b565b6001600160a01b038116611334576000604051631e4fbdf760e01b81526004016106c791906125ba565b610ee1816115b1565b61134561180b565b6113508383836114bf565b6110586000838361183d565b60006113693386866114bf565b6040805160c081018252600281526020810187905233818301526001600160a01b038816606082015230608082015260a0810186905290516109549085906113bb908a908a908a908990602401612c62565b60408051601f19818403018152918152602080830180516001600160e01b031663485b33d560e11b179052815190810182526000815290516108e29033908c908c908b90602401612c62565b61140f61180b565b61105883838361183d565b6001600160a01b038416611444576000604051632bfa23e760e11b81526004016106c791906125ba565b6001600160a01b03851661146d576000604051626a0d4560e21b81526004016106c791906125ba565b61147a8585858585611cc4565b5050505050565b61149461148c610fb1565b8484846117c2565b61149c610fb1565b6001600160a01b0316846001600160a01b0316146107ff576107ff848484611d17565b6001600160a01b0383166114e8576000604051626a0d4560e21b81526004016106c791906125ba565b6000806114f58484611db7565b9150915061147a856000848460405180602001604052806000815250611cc4565b60015461155d5760405162461bcd60e51b81526020600482015260156024820152742a37b5b2b7103737ba103932b3b4b9ba32b932b21760591b60448201526064016106c7565b6106dd866001548787878787611ddf565b600060343610611583575060331936013560601c5b90565b600060483610611583575060471936013560601c90565b6000602036106115835750601f1936013590565b600580546001600160a01b038381166001600160a01b0319831681179093556040519116919082907f8be0079c531659141344cd1fd0a4f28419497f9722a3daafe3b4186f6b6457e090600090a35050565b600d546060906000906001600160401b03811115611623576116236125ce565b60405190808252806020026020018201604052801561166857816020015b60408051808201909152600080825260208201528152602001906001900390816116415790505b50905060005b600d548110156116ff576040518060400160405280600d838154811061169657611696612da0565b90600052602060002001548152602001600b6000600d85815481106116bd576116bd612da0565b90600052602060002001548152602001908152602001600020548152508282815181106116ec576116ec612da0565b602090810291909101015260010161166e565b50919050565b60606006600760405160240161171c929190612fd0565b60408051601f198184030181529190526020810180516001600160e01b031663266c45bb60e11b179052919050565b60005460405163150b375f60e01b81526001600160a01b039091169063150b375f9061177f90869086908690600401612ffe565b6020604051808303816000875af115801561179e573d6000803e3d6000fd5b505050506040513d601f19601f820116820180604052508101906107ff9190612db6565b6001600160a01b0384166117ec576000604051632bfa23e760e11b81526004016106c791906125ba565b6000806117f98585611db7565b915091506106dd600087848487611cc4565b33611814610fb1565b6001600160a01b031614610f8f573360405163118cdaa760e01b81526004016106c791906125ba565b60015461184957505050565b60005460408051631119527160e11b81529051611058926001600160a01b031691632232a4e29160048083019260209291908290030181865afa158015611894573d6000803e3d6000fd5b505050506040513d601f19601f820116820180604052508101906118b89190612db6565b60005460405163377890a160e11b81526001600160a01b0390911690636ef12142906118e690600401612dcf565b602060405180830381865afa158015611903573d6000803e3d6000fd5b505050506040513d601f19601f820116820180604052508101906119279190612b8a565b60008054906101000a90046001600160a01b03166001600160a01b0316633408e4706040518163ffffffff1660e01b8152600401602060405180830381865afa158015611978573d6000803e3d6000fd5b505050506040513d601f19601f8201168201806040525081019061199c9190612db6565b600154876040518060400160405280898152602001888152506040516020016119c59190613028565b60408051601f19818403018152908290526119e59493929160240161303f565b60408051601f198184030181529190526020810180516001600160e01b031663401c3df160e11b17905261174b565b6001600160a01b038216611a3d57600060405162ced3e160e81b81526004016106c791906125ba565b6001600160a01b03838116600081815260036020908152604080832094871680845294825291829020805460ff191686151590811790915591519182527f17307eab39ab6107e8899845ad3d59bd9653f200f220920489ca2b5937696c31910160405180910390a3505050565b600060343610611583575060331936013590565b600154611b1f5760405162461bcd60e51b815260206004820152602960248201527f4f6e6c79207265676973746572207265736f75726365207768656e206974277360448201526808185c1c1c9bdd995960ba1b60648201526084016106c7565b60005460015460405163d4f951c760e01b815260048101919091523060248201526001600160a01b039091169063d4f951c790604401600060405180830381600087803b158015611b6f57600080fd5b505af11580156107ff573d6000803e3d6000fd5b60006001600160a01b038416611b9857600080fd5b6001600160a01b03841660009081526009602090815260408083208684529091529020548215801590611bcb5750808311155b611c145760405162461bcd60e51b815260206004820152601a6024820152794e6f7420656e6f7567682066756e647320746f20756e6c6f636b60301b60448201526064016106c7565b6001600160a01b038516600090815260096020908152604080832087845290915281208054859290611c4790849061308a565b9091555060019695505050505050565b6001600160a01b038416611c81576000604051632bfa23e760e11b81526004016106c791906125ba565b6001600160a01b038516611caa576000604051626a0d4560e21b81526004016106c791906125ba565b600080611cb78585611db7565b91509150610ac587878484875b611cd085858585611e68565b6001600160a01b0384161561147a5782513390600103611d095760208481015190840151611d028389898585896120c1565b50506106dd565b6106dd8187878787876121d3565b60008111611d675760405162461bcd60e51b815260206004820152601d60248201527f416d6f756e74206d7573742062652067726561746572207468616e203000000060448201526064016106c7565b6001600160a01b038316611d7a57600080fd5b6001600160a01b038316600090815260096020908152604080832085845290915281208054839290611dad90849061309d565b9091555050505050565b6040805160018082526020820194909452808201938452606081019290925260808201905291565b600054604051631075c5d160e21b81526001600160a01b03909116906341d7174490611e1b908a908a908a908a908a908a908a906004016130b0565b6020604051808303816000875af1158015611e3a573d6000803e3d6000fd5b505050506040513d601f19601f82011682018060405250810190611e5e9190612db6565b5050505050505050565b611e74848484846122b3565b6001600160a01b038416611f5f5760005b8251811015611f5d576000838281518110611ea257611ea2612da0565b602002602001015190506000838381518110611ec057611ec0612da0565b6020026020010151905080600b60008481526020019081526020016000206000828254611eed919061309d565b90915550506000828152600c602052604090205460ff16611f5357600d805460018181019092557fd7b6990105719101dabeb77144f2a3385c8033acd3af97e9423a695e81ad1eb5018390556000838152600c60205260409020805460ff191690911790555b5050600101611e85565b505b6001600160a01b0383166107ff5760005b825181101561147a576000838281518110611f8d57611f8d612da0565b602002602001015190506000838381518110611fab57611fab612da0565b6020026020010151905080600b60008481526020019081526020016000206000828254611fd8919061308a565b90915550506000828152600b602052604081205490036120b7576000828152600c60205260408120805460ff191690555b600d548110156120b55782600d828154811061202757612027612da0565b9060005260206000200154036120ad57600d80546120479060019061308a565b8154811061205757612057612da0565b9060005260206000200154600d828154811061207557612075612da0565b600091825260209091200155600d80548061209257612092613176565b600190038181906000526020600020016000905590556120b5565b600101612009565b505b5050600101611f70565b6001600160a01b0384163b156106dd5760405163f23a6e6160e01b81526001600160a01b0385169063f23a6e6190612105908990899088908890889060040161318c565b6020604051808303816000875af1925050508015612140575060408051601f3d908101601f1916820190925261213d918101906131d1565b60015b6121a0573d80801561216e576040519150601f19603f3d011682016040523d82523d6000602084013e612173565b606091505b5080516000036121985784604051632bfa23e760e11b81526004016106c791906125ba565b805181602001fd5b6001600160e01b0319811663f23a6e6160e01b14610ac55784604051632bfa23e760e11b81526004016106c791906125ba565b6001600160a01b0384163b156106dd5760405163bc197c8160e01b81526001600160a01b0385169063bc197c819061221790899089908890889088906004016131ee565b6020604051808303816000875af1925050508015612252575060408051601f3d908101601f1916820190925261224f918101906131d1565b60015b612280573d80801561216e576040519150601f19603f3d011682016040523d82523d6000602084013e612173565b6001600160e01b0319811663bc197c8160e01b14610ac55784604051632bfa23e760e11b81526004016106c791906125ba565b80518251146122e25781518151604051635b05999160e01b8152600481019290925260248201526044016106c7565b3360005b83518110156123ee576020818102858101820151908501909101516001600160a01b0388161561239d5760008281526002602090815260408083206001600160a01b038c16845290915290205481811015612374576040516303dee4c560e01b81526001600160a01b038a1660048201526024810182905260448101839052606481018490526084016106c7565b60008381526002602090815260408083206001600160a01b038d16845290915290209082900390555b6001600160a01b038716156123e45760008281526002602090815260408083206001600160a01b038b168452909152812080548392906123de90849061309d565b90915550505b50506001016122e6565b50825160010361246f5760208301516000906020840151909150856001600160a01b0316876001600160a01b0316846001600160a01b03167fc3d58168c5ae7397731d063d5bbf3d657854427343f4c083240f7aacaa2d0f628585604051612460929190918252602082015260400190565b60405180910390a4505061147a565b836001600160a01b0316856001600160a01b0316826001600160a01b03167f4a39dc06d4c0dbc64b70af90fd698a233a518aa5d07e595d983b8c0526c8f7fb86866040516124be92919061324c565b60405180910390a45050505050565b6001600160a01b0381168114610ee157600080fd5b600080604083850312156124f557600080fd5b8235612500816124cd565b946020939093013593505050565b6001600160e01b031981168114610ee157600080fd5b60006020828403121561253657600080fd5b81356125418161250e565b9392505050565b6000815180845260005b8181101561256e57602081850181015186830182015201612552565b506000602082860101526020601f19601f83011685010191505092915050565b6020815260006125416020830184612548565b6000602082840312156125b357600080fd5b5035919050565b6001600160a01b0391909116815260200190565b634e487b7160e01b600052604160045260246000fd5b604051601f8201601f191681016001600160401b038111828210171561260c5761260c6125ce565b604052919050565b60006001600160401b0382111561262d5761262d6125ce565b5060051b60200190565b600082601f83011261264857600080fd5b8135602061265d61265883612614565b6125e4565b8083825260208201915060208460051b87010193508684111561267f57600080fd5b602086015b8481101561269b5780358352918301918301612684565b509695505050505050565b600082601f8301126126b757600080fd5b81356001600160401b038111156126d0576126d06125ce565b6126e3601f8201601f19166020016125e4565b8181528460208386010111156126f857600080fd5b816020850160208301376000918101602001919091529392505050565b600080600080600060a0868803121561272d57600080fd5b8535612738816124cd565b94506020860135612748816124cd565b935060408601356001600160401b038082111561276457600080fd5b61277089838a01612637565b9450606088013591508082111561278657600080fd5b61279289838a01612637565b935060808801359150808211156127a857600080fd5b506127b5888289016126a6565b9150509295509295909350565b600080600080608085870312156127d857600080fd5b84356127e3816124cd565b9350602085013592506040850135915060608501356001600160401b0381111561280c57600080fd5b612818878288016126a6565b91505092959194509250565b600080600080600060a0868803121561283c57600080fd5b8535612847816124cd565b945060208601359350604086013592506060860135915060808601356001600160401b0381111561287757600080fd5b6127b5888289016126a6565b6000806040838503121561289657600080fd5b82356001600160401b03808211156128ad57600080fd5b6128b9868387016126a6565b935060208501359150808211156128cf57600080fd5b506128dc858286016126a6565b9150509250929050565b600080604083850312156128f957600080fd5b82356001600160401b038082111561291057600080fd5b818501915085601f83011261292457600080fd5b8135602061293461265883612614565b82815260059290921b8401810191818101908984111561295357600080fd5b948201945b8386101561297a57853561296b816124cd565b82529482019490820190612958565b9650508601359250508082111561299057600080fd5b506128dc85828601612637565b60008151808452602080850194506020840160005b838110156129ce578151875295820195908201906001016129b2565b509495945050505050565b602081526000612541602083018461299d565b6000602082840312156129fe57600080fd5b813560ff8116811461254157600080fd5b600060208284031215612a2157600080fd5b8135612541816124cd565b600080600060608486031215612a4157600080fd5b8335612a4c816124cd565b95602085013595506040909401359392505050565b8015158114610ee157600080fd5b60008060408385031215612a8257600080fd5b8235612a8d816124cd565b91506020830135612a9d81612a61565b809150509250929050565b60008060408385031215612abb57600080fd5b8235612ac6816124cd565b91506020830135612a9d816124cd565b600080600080600060a08688031215612aee57600080fd5b8535612af9816124cd565b94506020860135612b09816124cd565b9350604086013592506060860135915060808601356001600160401b0381111561287757600080fd5b600080600060608486031215612b4757600080fd5b833560028110612a4c57600080fd5b600181811c90821680612b6a57607f821691505b6020821081036116ff57634e487b7160e01b600052602260045260246000fd5b600060208284031215612b9c57600080fd5b8151612541816124cd565b6001600160a01b0392831681529116602082015260400190565b600060208284031215612bd357600080fd5b815161254181612a61565b60208082526048908201527f5468697320697320612072656365697665206d6574686f642e204f6e6c79206560408201527f6e64706f696e742773206578656375746f722063616e2063616c6c20746869736060820152671036b2ba3437b21760c11b608082015260a00190565b634e487b7160e01b600052602160045260246000fd5b60018060a01b0385168152836020820152826040820152608060608201526000612c8f6080830184612548565b9695505050505050565b601f821115611058576000816000526020600020601f850160051c81016020861015612cc25750805b601f850160051c820191505b818110156106dd57828155600101612cce565b81516001600160401b03811115612cfa57612cfa6125ce565b612d0e81612d088454612b56565b84612c99565b602080601f831160018114612d435760008415612d2b5750858301515b600019600386901b1c1916600185901b1785556106dd565b600085815260208120601f198616915b82811015612d7257888601518255948401946001909101908401612d53565b5085821015612d905787850151600019600388901b60f8161c191681555b5050505050600190811b01905550565b634e487b7160e01b600052603260045260246000fd5b600060208284031215612dc857600080fd5b5051919050565b6020808252600d908201526c546f6b656e526567697374727960981b604082015260600190565b602080825282518282018190526000919060409081850190868401855b82811015612e4057612e3084835180518252602090810151910152565b9284019290850190600101612e13565b5091979650505050505050565b60068110612e5d57612e5d612c4c565b9052565b6020815260008251610140806020850152612e80610160850183612548565b91506020850151601f1980868503016040870152612e9e8483612548565b93506040870151915080868503016060870152612ebb8483612548565b93506060870151608087015260808701519150808685030160a0870152612ee28483612548565b935060a08701519150808685030160c087015250612f008382612548565b92505060c0850151612f1660e086018215159052565b5060e0850151610100612f2b81870183612e4d565b8601519050610120612f408682018315159052565b9095015160ff1693019290925250919050565b60008154612f6081612b56565b808552602060018381168015612f7d5760018114612f9757612fc5565b60ff1985168884015283151560051b880183019550612fc5565b866000528260002060005b85811015612fbd5781548a8201860152908301908401612fa2565b890184019650505b505050505092915050565b604081526000612fe36040830185612f53565b8281036020840152612ff58185612f53565b95945050505050565b8381526001600160a01b0383166020820152606060408201819052600090612ff590830184612548565b81518152602080830151908201526040810161049e565b84815283602082015260006002841061305a5761305a612c4c565b83604083015260806060830152612c8f6080830184612548565b634e487b7160e01b600052601160045260246000fd5b8181038181111561049e5761049e613074565b8082018082111561049e5761049e613074565b60006101808983528860208401528060408401526130d081840189612548565b905082810360608401526130e48188612548565b905082810360808401526130f88187612548565b905082810360a084015261310c8186612548565b91505082516005811061312157613121612c4c565b60c0830152602083015160e083015260408301516001600160a01b039081166101008401526060840151811661012084015260808401511661014083015260a090920151610160909101529695505050505050565b634e487b7160e01b600052603160045260246000fd5b6001600160a01b03868116825285166020820152604081018490526060810183905260a0608082018190526000906131c690830184612548565b979650505050505050565b6000602082840312156131e357600080fd5b81516125418161250e565b6001600160a01b0386811682528516602082015260a06040820181905260009061321a9083018661299d565b828103606084015261322c818661299d565b905082810360808401526132408185612548565b98975050505050505050565b60408152600061325f604083018561299d565b8281036020840152612ff5818561299d56fea26469706673582212204926392d98180ba0c62c1e198bd846003674c869afc058d3ad8c25c4adf3699564736f6c63430008180033",
  "linkReferences": {},
  "deployedLinkReferences": {}
}