{
  "_format": "hh-sol-artifact-1",
  "contractName": "Merkle",
  "sourceName": "src/rayls-protocol/ZkDvp/Merkle.sol",
  "abi": [
    {
      "inputs": [
        {
          "internalType": "address",
          "name": "_poseidonWrapperAddress",
          "type": "address"
        }
      ],
      "stateMutability": "nonpayable",
      "type": "constructor"
    },
    {
      "inputs": [],
      "name": "AccessControlBadConfirmation",
      "type": "error"
    },
    {
      "inputs": [
        {
          "internalType": "address",
          "name": "account",
          "type": "address"
        },
        {
          "internalType": "bytes32",
          "name": "neededRole",
          "type": "bytes32"
        }
      ],
      "name": "AccessControlUnauthorizedAccount",
      "type": "error"
    },
    {
      "anonymous": false,
      "inputs": [
        {
          "indexed": true,
          "internalType": "bytes32",
          "name": "role",
          "type": "bytes32"
        },
        {
          "indexed": true,
          "internalType": "bytes32",
          "name": "previousAdminRole",
          "type": "bytes32"
        },
        {
          "indexed": true,
          "internalType": "bytes32",
          "name": "newAdminRole",
          "type": "bytes32"
        }
      ],
      "name": "RoleAdminChanged",
      "type": "event"
    },
    {
      "anonymous": false,
      "inputs": [
        {
          "indexed": true,
          "internalType": "bytes32",
          "name": "role",
          "type": "bytes32"
        },
        {
          "indexed": true,
          "internalType": "address",
          "name": "account",
          "type": "address"
        },
        {
          "indexed": true,
          "internalType": "address",
          "name": "sender",
          "type": "address"
        }
      ],
      "name": "RoleGranted",
      "type": "event"
    },
    {
      "anonymous": false,
      "inputs": [
        {
          "indexed": true,
          "internalType": "bytes32",
          "name": "role",
          "type": "bytes32"
        },
        {
          "indexed": true,
          "internalType": "address",
          "name": "account",
          "type": "address"
        },
        {
          "indexed": true,
          "internalType": "address",
          "name": "sender",
          "type": "address"
        }
      ],
      "name": "RoleRevoked",
      "type": "event"
    },
    {
      "inputs": [],
      "name": "DEFAULT_ADMIN_ROLE",
      "outputs": [
        {
          "internalType": "bytes32",
          "name": "",
          "type": "bytes32"
        }
      ],
      "stateMutability": "view",
      "type": "function"
    },
    {
      "inputs": [],
      "name": "DEFAULT_DVP_ROLE",
      "outputs": [
        {
          "internalType": "bytes32",
          "name": "",
          "type": "bytes32"
        }
      ],
      "stateMutability": "view",
      "type": "function"
    },
    {
      "inputs": [],
      "name": "ZERO_VALUE",
      "outputs": [
        {
          "internalType": "uint256",
          "name": "",
          "type": "uint256"
        }
      ],
      "stateMutability": "view",
      "type": "function"
    },
    {
      "inputs": [],
      "name": "currentRoot",
      "outputs": [
        {
          "internalType": "uint256",
          "name": "",
          "type": "uint256"
        }
      ],
      "stateMutability": "view",
      "type": "function"
    },
    {
      "inputs": [
        {
          "internalType": "bytes32",
          "name": "role",
          "type": "bytes32"
        }
      ],
      "name": "getRoleAdmin",
      "outputs": [
        {
          "internalType": "bytes32",
          "name": "",
          "type": "bytes32"
        }
      ],
      "stateMutability": "view",
      "type": "function"
    },
    {
      "inputs": [],
      "name": "getTreeId",
      "outputs": [
        {
          "internalType": "uint256",
          "name": "",
          "type": "uint256"
        }
      ],
      "stateMutability": "view",
      "type": "function"
    },
    {
      "inputs": [],
      "name": "getTreeNumber",
      "outputs": [
        {
          "internalType": "uint256",
          "name": "",
          "type": "uint256"
        }
      ],
      "stateMutability": "view",
      "type": "function"
    },
    {
      "inputs": [
        {
          "internalType": "bytes32",
          "name": "role",
          "type": "bytes32"
        },
        {
          "internalType": "address",
          "name": "account",
          "type": "address"
        }
      ],
      "name": "grantRole",
      "outputs": [],
      "stateMutability": "nonpayable",
      "type": "function"
    },
    {
      "inputs": [
        {
          "internalType": "bytes32",
          "name": "role",
          "type": "bytes32"
        },
        {
          "internalType": "address",
          "name": "account",
          "type": "address"
        }
      ],
      "name": "hasRole",
      "outputs": [
        {
          "internalType": "bool",
          "name": "",
          "type": "bool"
        }
      ],
      "stateMutability": "view",
      "type": "function"
    },
    {
      "inputs": [
        {
          "internalType": "uint256",
          "name": "_left",
          "type": "uint256"
        },
        {
          "internalType": "uint256",
          "name": "_right",
          "type": "uint256"
        }
      ],
      "name": "hashLeftRight",
      "outputs": [
        {
          "internalType": "uint256",
          "name": "",
          "type": "uint256"
        }
      ],
      "stateMutability": "view",
      "type": "function"
    },
    {
      "inputs": [
        {
          "internalType": "uint256",
          "name": "_treeDepth",
          "type": "uint256"
        },
        {
          "internalType": "uint256",
          "name": "_treeId",
          "type": "uint256"
        }
      ],
      "name": "initialize",
      "outputs": [],
      "stateMutability": "nonpayable",
      "type": "function"
    },
    {
      "inputs": [
        {
          "internalType": "uint256[]",
          "name": "_leafHashes",
          "type": "uint256[]"
        }
      ],
      "name": "insertLeaves",
      "outputs": [],
      "stateMutability": "nonpayable",
      "type": "function"
    },
    {
      "inputs": [
        {
          "internalType": "uint256",
          "name": "_treeNumber",
          "type": "uint256"
        },
        {
          "internalType": "uint256",
          "name": "_nullifierId",
          "type": "uint256"
        }
      ],
      "name": "isValidNullifier",
      "outputs": [
        {
          "internalType": "bool",
          "name": "",
          "type": "bool"
        }
      ],
      "stateMutability": "view",
      "type": "function"
    },
    {
      "inputs": [
        {
          "internalType": "uint256",
          "name": "_treeNumber",
          "type": "uint256"
        },
        {
          "internalType": "uint256",
          "name": "_merkleRoot",
          "type": "uint256"
        }
      ],
      "name": "isValidRoot",
      "outputs": [
        {
          "internalType": "bool",
          "name": "",
          "type": "bool"
        }
      ],
      "stateMutability": "view",
      "type": "function"
    },
    {
      "inputs": [],
      "name": "merkleRoot",
      "outputs": [
        {
          "internalType": "uint256",
          "name": "",
          "type": "uint256"
        }
      ],
      "stateMutability": "view",
      "type": "function"
    },
    {
      "inputs": [],
      "name": "name",
      "outputs": [
        {
          "internalType": "string",
          "name": "",
          "type": "string"
        }
      ],
      "stateMutability": "view",
      "type": "function"
    },
    {
      "inputs": [],
      "name": "newTree",
      "outputs": [],
      "stateMutability": "nonpayable",
      "type": "function"
    },
    {
      "inputs": [
        {
          "internalType": "uint256",
          "name": "",
          "type": "uint256"
        },
        {
          "internalType": "uint256",
          "name": "",
          "type": "uint256"
        }
      ],
      "name": "nullifiers",
      "outputs": [
        {
          "internalType": "bool",
          "name": "",
          "type": "bool"
        }
      ],
      "stateMutability": "view",
      "type": "function"
    },
    {
      "inputs": [],
      "name": "poseidonWrapperAddress",
      "outputs": [
        {
          "internalType": "address",
          "name": "",
          "type": "address"
        }
      ],
      "stateMutability": "view",
      "type": "function"
    },
    {
      "inputs": [
        {
          "internalType": "bytes32",
          "name": "role",
          "type": "bytes32"
        },
        {
          "internalType": "address",
          "name": "callerConfirmation",
          "type": "address"
        }
      ],
      "name": "renounceRole",
      "outputs": [],
      "stateMutability": "nonpayable",
      "type": "function"
    },
    {
      "inputs": [
        {
          "internalType": "bytes32",
          "name": "role",
          "type": "bytes32"
        },
        {
          "internalType": "address",
          "name": "account",
          "type": "address"
        }
      ],
      "name": "revokeRole",
      "outputs": [],
      "stateMutability": "nonpayable",
      "type": "function"
    },
    {
      "inputs": [
        {
          "internalType": "uint256",
          "name": "",
          "type": "uint256"
        },
        {
          "internalType": "uint256",
          "name": "",
          "type": "uint256"
        }
      ],
      "name": "rootHistory",
      "outputs": [
        {
          "internalType": "bool",
          "name": "",
          "type": "bool"
        }
      ],
      "stateMutability": "view",
      "type": "function"
    },
    {
      "inputs": [
        {
          "internalType": "uint256",
          "name": "_treeNumber",
          "type": "uint256"
        },
        {
          "internalType": "uint256",
          "name": "_nullifierId",
          "type": "uint256"
        }
      ],
      "name": "setNullifier",
      "outputs": [],
      "stateMutability": "nonpayable",
      "type": "function"
    },
    {
      "inputs": [
        {
          "internalType": "bytes4",
          "name": "interfaceId",
          "type": "bytes4"
        }
      ],
      "name": "supportsInterface",
      "outputs": [
        {
          "internalType": "bool",
          "name": "",
          "type": "bool"
        }
      ],
      "stateMutability": "view",
      "type": "function"
    },
    {
      "inputs": [],
      "name": "treeNumber",
      "outputs": [
        {
          "internalType": "uint256",
          "name": "",
          "type": "uint256"
        }
      ],
      "stateMutability": "view",
      "type": "function"
    },
    {
      "inputs": [
        {
          "internalType": "uint256",
          "name": "",
          "type": "uint256"
        }
      ],
      "name": "zeros",
      "outputs": [
        {
          "internalType": "uint256",
          "name": "",
          "type": "uint256"
        }
      ],
      "stateMutability": "view",
      "type": "function"
    }
  ],
  "bytecode": "0x608060405234801561001057600080fd5b5060405161139938038061139983398101604081905261002f91610108565b600180546001600160a01b0319166001600160a01b03831617905561005560003361005c565b5050610138565b6000828152602081815260408083206001600160a01b038516845290915281205460ff166100fe576000838152602081815260408083206001600160a01b03861684529091529020805460ff191660011790556100b63390565b6001600160a01b0316826001600160a01b0316847f2f8788117e7eff1d82e926ec794901d17c78024a50270940304540a733656f0d60405160405180910390a4506001610102565b5060005b92915050565b60006020828403121561011a57600080fd5b81516001600160a01b038116811461013157600080fd5b9392505050565b611252806101476000396000f3fe608060405234801561001057600080fd5b506004361061014e5760003560e01c80635bb93995116100be5780635bb93995146102d55780635f9563c0146102e857806366503315146102f057806378d3915c146102f957806391d1485414610327578063a217fddf1461033a578063d0f1303014610342578063d547741f1461034a578063e4a301161461035d578063e829558814610370578063ec73295914610383578063fdab463d1461038b578063fe6f79d31461039357600080fd5b806301ffc9a71461015357806306fdde031461017b578063176764b514610190578063248a9ca3146101a55780632db1e64a146101d65780632eb4a7ab146102045780632f2ff15d1461020d57806336568abe146102205780633895330514610233578063422998c51461026157806358a1d8ae1461028f57806358d199df146102ba57806359f880bd146102cd575b600080fd5b610166610161366004610dfd565b61039b565b60405190151581526020015b60405180910390f35b6101836103d2565b6040516101729190610e2e565b6101a361019e366004610e93565b610464565b005b6101c86101b3366004610f51565b60009081526020819052604090206001015490565b604051908152602001610172565b6101666101e4366004610f6a565b6000918252600a6020908152604080842092845291905290205460ff1690565b6101c860055481565b6101a361021b366004610f8c565b61072e565b6101a361022e366004610f8c565b610759565b610166610241366004610f6a565b600a60209081526000928352604080842090915290825290205460ff1681565b61016661026f366004610f6a565b600091825260026020908152604080842092845291905290205460ff1690565b6001546102a2906001600160a01b031681565b6040516001600160a01b039091168152602001610172565b6101a36102c8366004610f6a565b610791565b6101c86108bc565b6101c86102e3366004610f6a565b6108e4565b600c546101c8565b6101c860075481565b610166610307366004610f6a565b600260209081526000928352604080842090915290825290205460ff1681565b610166610335366004610f8c565b610971565b6101c8600081565b6007546101c8565b6101a3610358366004610f8c565b61099a565b6101a361036b366004610f6a565b6109bf565b6101c861037e366004610f51565b610b9d565b6101c8610bbe565b6005546101c8565b6101a3610be7565b60006001600160e01b03198216637965db0b60e01b14806103cc57506301ffc9a760e01b6001600160e01b03198316145b92915050565b6060600b80546103e190610fc8565b80601f016020809104026020016040519081016040528092919081815260200182805461040d90610fc8565b801561045a5780601f1061042f5761010080835404028352916020019161045a565b820191906000526020600020905b81548152906001019060200180831161043d57829003601f168201915b5050505050905090565b60405160200161047390611002565b6040516020818303038152906040528051906020012061049281610c38565b81516003546104a290600261110f565b816004546104b0919061111b565b106104bd576104bd610be7565b6004805490829060006104d0838561111b565b909155506000905080805b6003548110156106dc57600184901c915060006104f960028661112e565b6001036105885761050e83600187901c611150565b93506105506009838154811061052657610526611163565b906000526020600020015489838151811061054357610543611163565b60200260200101516108e4565b88858151811061056257610562611163565b602090810291909101015261057860018261111b565b905061058560018661111b565b94505b858110156106c157600061059d600188611150565b8210156105cf57886105b083600161111b565b815181106105c0576105c0611163565b602002602001015190506105f0565b600883815481106105e2576105e2611163565b906000526020600020015490505b6105fb600188611150565b821480610611575061060e600288611150565b82145b156106505788828151811061062857610628611163565b60200260200101516009848154811061064357610643611163565b6000918252602090912001555b61065e84600188901c611150565b945061068389838151811061067557610675611163565b6020026020010151826108e4565b89868151811061069557610695611163565b60209081029190910101526106ab60028761111b565b95506106ba905060028261111b565b9050610588565b8294508360016106d1919061111b565b9550506001016104db565b50856000815181106106f0576106f0611163565b60209081029190910181015160058190556007546000908152600a83526040808220928252919092529020805460ff19166001179055505050505050565b60008281526020819052604090206001015461074981610c38565b6107538383610c45565b50505050565b6001600160a01b03811633146107825760405163334bd91960e11b815260040160405180910390fd5b61078c8282610cd7565b505050565b6040516020016107a090611002565b604051602081830303815290604052805190602001206107bf81610c38565b600083815260026020908152604080832085845290915290205460ff161561083a5760405162461bcd60e51b815260206004820152602360248201527f4d65726b6c653a204e756c6c696669657220736c6f7420616c7265616479207360448201526232ba1760e91b60648201526084015b60405180910390fd5b816000036108955760405162461bcd60e51b815260206004820152602260248201527f4d65726b6c653a204e756c6c69666965722063616e206e6f74206265207a6572604482015261379760f11b6064820152608401610831565b5060009182526002602090815260408084209284529190529020805460ff19166001179055565b6040516020016108cb90611002565b6040516020818303038152906040528051906020012081565b60006108ee610d7f565b838152602081018390526001546040516314d2f97b60e11b81526001600160a01b03909116906329a5f2f690610928908490600401611179565b602060405180830381865afa158015610945573d6000803e3d6000fd5b505050506040513d601f19601f8201168201806040525081019061096991906111aa565b949350505050565b6000918252602082815260408084206001600160a01b0393909316845291905290205460ff1690565b6000828152602081905260409020600101546109b581610c38565b6107538383610cd7565b6003829055600d80546001600160a01b03191633179055600c8190558167ffffffffffffffff8111156109f4576109f4610e7d565b604051908082528060200260200182016040528015610a1d578160200160208202803683370190505b508051610a3291600991602090910190610d9d565b5060035467ffffffffffffffff811115610a4e57610a4e610e7d565b604051908082528060200260200182016040528015610a77578160200160208202803683370190505b508051610a8c91600891602090910190610d9d565b50610ab36000805160206111fd8339815191526000805160206111dd83398151915261112e565b6008600081548110610ac757610ac7611163565b6000918252602082200191909155610afb6000805160206111fd8339815191526000805160206111dd83398151915261112e565b905060005b600354811015610b3e578160088281548110610b1e57610b1e611163565b600091825260209091200155610b3482806108e4565b9150600101610b00565b50600581905560068190556007546000908152600a60209081526040808320848452825291829020805460ff19166001179055905161075391610b819101611002565b6040516020818303038152906040528051906020012033610c45565b60088181548110610bad57600080fd5b600091825260209091200154905081565b610be46000805160206111fd8339815191526000805160206111dd83398151915261112e565b81565b604051602001610bf690611002565b60405160208183030381529060405280519060200120610c1581610c38565b600654600555600060048190556007805491610c30836111c3565b919050555050565b610c428133610d42565b50565b6000610c518383610971565b610ccf576000838152602081815260408083206001600160a01b03861684529091529020805460ff19166001179055610c873390565b6001600160a01b0316826001600160a01b0316847f2f8788117e7eff1d82e926ec794901d17c78024a50270940304540a733656f0d60405160405180910390a45060016103cc565b5060006103cc565b6000610ce38383610971565b15610ccf576000838152602081815260408083206001600160a01b0386168085529252808320805460ff1916905551339286917ff6391f5c32d9c69d2a47ea670b442974b53935d1edc7fd64eb21e047a839171b9190a45060016103cc565b610d4c8282610971565b610d7b5760405163e2517d3f60e01b81526001600160a01b038216600482015260248101839052604401610831565b5050565b60405180604001604052806002906020820280368337509192915050565b828054828255906000526020600020908101928215610dd8579160200282015b82811115610dd8578251825591602001919060010190610dbd565b50610de4929150610de8565b5090565b5b80821115610de45760008155600101610de9565b600060208284031215610e0f57600080fd5b81356001600160e01b031981168114610e2757600080fd5b9392505050565b60006020808352835180602085015260005b81811015610e5c57858101830151858201604001528201610e40565b506000604082860101526040601f19601f8301168501019250505092915050565b634e487b7160e01b600052604160045260246000fd5b60006020808385031215610ea657600080fd5b823567ffffffffffffffff80821115610ebe57600080fd5b818501915085601f830112610ed257600080fd5b813581811115610ee457610ee4610e7d565b8060051b604051601f19603f83011681018181108582111715610f0957610f09610e7d565b604052918252848201925083810185019188831115610f2757600080fd5b938501935b82851015610f4557843584529385019392850192610f2c565b98975050505050505050565b600060208284031215610f6357600080fd5b5035919050565b60008060408385031215610f7d57600080fd5b50508035926020909101359150565b60008060408385031215610f9f57600080fd5b8235915060208301356001600160a01b0381168114610fbd57600080fd5b809150509250929050565b600181811c90821680610fdc57607f821691505b602082108103610ffc57634e487b7160e01b600052602260045260246000fd5b50919050565b66447670526f6c6560c81b815260070190565b634e487b7160e01b600052601160045260246000fd5b600181815b8085111561106657816000190482111561104c5761104c611015565b8085161561105957918102915b93841c9390800290611030565b509250929050565b60008261107d575060016103cc565b8161108a575060006103cc565b81600181146110a057600281146110aa576110c6565b60019150506103cc565b60ff8411156110bb576110bb611015565b50506001821b6103cc565b5060208310610133831016604e8410600b84101617156110e9575081810a6103cc565b6110f3838361102b565b806000190482111561110757611107611015565b029392505050565b6000610e27838361106e565b808201808211156103cc576103cc611015565b60008261114b57634e487b7160e01b600052601260045260246000fd5b500690565b818103818111156103cc576103cc611015565b634e487b7160e01b600052603260045260246000fd5b60408101818360005b60028110156111a1578151835260209283019290910190600101611182565b50505092915050565b6000602082840312156111bc57600080fd5b5051919050565b6000600182016111d5576111d5611015565b506001019056fe608ed681cbfb8cb4bb38bcb527512cf1a7736fdd8669bd2249d35d3e246f5efb30644e72e131a029b85045b68181585d2833e84879b9709143e1f593f0000001a2646970667358221220f00219161b521ab2a7170d06c3e373ce2a1beafbed54ff529352c311a316d60764736f6c63430008180033",
  "linkReferences": {},
  "deployedLinkReferences": {}
}