{
  "_format": "hh-sol-artifact-1",
  "contractName": "EnygmaVerifierk6",
  "sourceName": "src/rayls-protocol/Enygma/EnygmaVerifierk6.sol",
  "abi": [
    {
      "inputs": [
        {
          "internalType": "uint256[2]",
          "name": "_pA",
          "type": "uint256[2]"
        },
        {
          "internalType": "uint256[2][2]",
          "name": "_pB",
          "type": "uint256[2][2]"
        },
        {
          "internalType": "uint256[2]",
          "name": "_pC",
          "type": "uint256[2]"
        },
        {
          "internalType": "uint256[32]",
          "name": "_pubSignals",
          "type": "uint256[32]"
        }
      ],
      "name": "verifyProof",
      "outputs": [
        {
          "internalType": "bool",
          "name": "",
          "type": "bool"
        }
      ],
      "stateMutability": "view",
      "type": "function"
    }
  ],
  "bytecode": "0x608060405234801561001057600080fd5b506110d0806100206000396000f3fe608060405234801561001057600080fd5b506004361061002b5760003560e01c80633cc08b2414610030575b600080fd5b61004361003e366004611034565b610057565b604051901515815260200160405180910390f35b6000610e41565b7f30644e72e131a029b85045b68181585d2833e84879b9709143e1f593f0000001811061008f576000805260206000f35b50565b600060405183815284602082015285604082015260408160608360076107d05a03fa9150816100c5576000805260206000f35b825160408201526020830151606082015260408360808360066107d05a03fa915050806100f6576000805260206000f35b5050505050565b7f19bf6cf7520c8d676a287a2e383dd35d59f0da825233f83e41a6c525f478f01285527f1463eb85123651f7974a80c4b36afe273212e6f8bf872e0b226719b2df3cc69160208601526000608086018661019a87357f2aab249577e0eeca1fb1ef4740c931bdd75c155c9ff1fb555319c0cc415fe5c87f0c2be0a59173973d71cdcda35a08f4376e4770de2af76ab94e02088e26c3504884610092565b6101ea60208801357f1e91acb03ec205025af580f62a81b3592579aca5b5a565ac80d5b8c23a030f097f021c9be84e6d9b89854fb01314348908ea66809472d9efe280bf42f031703db084610092565b61023a60408801357f0625db79cbfa82998d866adc43f5e5316899f0ac9e44d31cfc70cd74ec47604b7f1215621f966c50a7e19b6c089492c67433bd2b5361d0cc1dbb692ef1851cf3c284610092565b61028a60608801357f1f641eae0227812408f96c4397edcdf106243b4c6027142d20d0c575bbeb00157f0c7f2db5ae21a19c63f4177292bdc7a6ec8ee56499a62c725781fc84751177a784610092565b6102da60808801357f14ecadb1337ddc4dc51d50dc76022c4cf37be68fe61287171721de0cecc1e28f7f2e58797f1dbc6a79a6dcbb610b82ce6e2a50eae4ea7270f0f0535b67a7bca64784610092565b61032a60a08801357f198265af8eaf0a3208149d72f3c0b2d8a182922c02a62a88ab48a7a7b777f5617f1fb4e5a09d761ede88f9cc43439787f043626290158833817b5821f8c2d14a1384610092565b61037a60c08801357f145dd3497819e9fb4de4555095769e5a77057ab2ba146856c63e9d4619c76d7e7f2c769a513e4c028d3be2a336fcbf14bd8ecb83682d5759bb46713735f22b370c84610092565b6103ca60e08801357f28cb630cf5699b9f39d9ffc79901e37f979972147c1e7ffb8d0487d054322a067f0d2e27074a646480b80dd02496bb68a215949cde4e17be64a08bed81b552c45984610092565b61041b6101008801357f154da16a456480ecd8a11b0e5bf397b1923e91fec1340005b0bcfd92936ea1667f09e690966b47c612f5477e41e111d6ff84c2ceb2736d99690a17809feb11949a84610092565b61046c6101208801357f22c1831c2589075715f5a616bcee6fa4886ee0712b69d4807af82fc4190a8dbb7f074556a9e53aca5010fcab7f9cf3faa64c870d96c51b6b17e626e0579928061884610092565b6104bd6101408801357f2dd4c67f79b2a57c0b16c18c2cd96a480ba3f95ee569a478db3dbbd09a422ad17f0fe4922766ba760ff706cae2406df4c7027854a52af3568b70f73557aa28371084610092565b61050e6101608801357f10cadd88635ef9afceb7b2cb559cd473bb9af96b42a347930ed9d2eaed04ecdc7f2a5e2fbb8899e4298d097f25ad73aa73d66dd1aa10855d0b7172c6d70f75163484610092565b61055f6101808801357f1fe5e0677355cb864f4bda2ab94ac8b5d068d05417ec6c6e81477c1a402ee4d97f0f87a15f1aa73836cac40b0011bca60e92db2edb3e50d3bcf8d262692885cff384610092565b6105b06101a08801357f07f344c847d0f3f4885459a9368c02aca2f8b286a26ec443f6cb39981c5242687f07a1b0a3cc7c11653ae0be2adf04e8dbad0802eab9481b86d4e31718783de9b584610092565b6106016101c08801357f1d0f0cdc30a7bb4e1d5b42209bc6d76d4a50626ade3b0b6a69c8d6480e09b7ba7f24c871588968012fa66052838a18130e31e79b1aa21682af136acdda294bd8e584610092565b6106516101e08801357ec019d8ca4cc9de5feae25f50e15f7d661e7b4b7bd13bbd14a7bbf337056b3f7f286f4a2f366214f97e7ef0827ded57f84f1b5807ec3879ac67cc1ed82d5e3a7884610092565b6106a26102008801357f13cbdffc3410a1dac149d04ba95880d6f76d965eb75228ef0b644a6b4ccb10467f0347b3a97a072d5f8fffc373c7550a9f0b83959b8ecc209917a84206369c5e7c84610092565b6106f36102208801357f24167a0afaee39e8d2dc0ab3ae69e081a01fc846402d1838973d0bd86c8242777f1fb076a283f190614ad1ea5e2705c42f8c644ba3a7dea563606a1f90d0c6e71a84610092565b6107446102408801357f098a6fa51237e61eb985a56e6f3b1f15115e16e51f2c9b0d77f8421681d0972a7f131faa6d743b68d0daa67ad71c7c1df63199eee458acf8b29e632bbf0c023cea84610092565b6107956102608801357f1ac8acfc38737e1e0bd1c74313a73fe805da0a865752dede61be4aa77bc18e187f17e05378100530ab4ddcd5faeb70ae5ee32a5e3d940cb321dc4532ca1bbe376984610092565b6107e66102808801357f2000e43d9ca9f0e4896a02bd47eefdd3c362e29b14c257e5710cab5a9a8e461e7f0a10adc3cebcbd5ca8d5a0b63baf316400f972a8c5c4fe3fb4aa1a98e8e5674184610092565b6108376102a08801357f2ccc6b05346fa962b16a62d25e9cd1129c204cf7f531d97e03bb07f26c44e0b07f17d666f3139dfd72f6d9a52ac959ed41e2ecba18ed60f2123bd6436beb74dbbf84610092565b6108886102c08801357f297b4a723f05f08fda2a189d616393002239d359596a64072f8ccdf6cf3e680a7f16ad67fa7a8be5ad6ea864984e7f64b5c71af0a945d60a01d1deb593fdcef01d84610092565b6108d96102e08801357f0bb6057fccf88b4a25c2ca81ae16d31c3fe4b853bebd25f233df6562a77a742a7f03f2258e76481a36ea8d75b5b7286b187f2732789032241a3ca79adabcaee9eb84610092565b61092a6103008801357f2a913fef6c0a89106a34bd324fa262bd07a58f50ecf5c2610981b17f672105ab7f15df81baaf4114852f3f6ebd308c02d8c1935a3a66de1b84388b8c1491e541e384610092565b61097b6103208801357f051220863045bfb8c076b4a2aafaa8417600301d1fcd4188ed3e01043fe501337f097c05818756d2aaa15cbfedc42c8b2e6a3440666aec978421e7c5a386aaa36884610092565b6109cc6103408801357f228ea33c82600b9b638e00f528df262d48b1496a43bd9ce34c212c92a55195827f1e88ac70aa9f2ad689045099e899ba9b65033f0e90c903cb50aa7c99dd4d36ef84610092565b610a1d6103608801357f266bc15c75146aaca15924168a742c9ab344a0212f86f8492c7d7b0efd1a13097f10f2b3e2792aad68f1f769c33b2e481646572f17b9b4cec1fd1acf1d34296a2e84610092565b610a6e6103808801357f1f7ec2b0ec02bd562b8b9befd5d76d301de620fb6c308fcaf53d8591fbda057d7f149d7e3214b36c326f3ed90a0f3e246101e8ec5f51d88d366a895d0075ea618a84610092565b610abf6103a08801357f0c5382647cf339582122c6cd72351acdd4467753fe75629b6adc4a78e82dc85c7f2b3038b636bb040adc1c8f8a1ba5afae6efd5a68ed29b230210b17a247e8c0ea84610092565b610b106103c08801357f28c7a0a77fd21e9f9a1b1e91fe4603307e2290970e78d833289566723d785c2b7f051107dbf096f3cf04798ee306b745b71338810587e25449a059df9074c35dca84610092565b610b616103e08801357f0fe78e1e088d46c1c25266064fe8e44e59a3c198b61011f2de957514ea3451a87f13ccc0f3c43f4c7f2e915ac58d861945f314da179ebf8455d19b5e5dae0af8d184610092565b50823581527f30644e72e131a029b85045b68181585d97816a916871ca8d3c208c16d87cfd4760208401357f30644e72e131a029b85045b68181585d97816a916871ca8d3c208c16d87cfd4703066020820152833560408201526020840135606082015260408401356080820152606084013560a08201527f2d4d9aa7e302d9df41749d5507949d05dbea33fbb16c643b22f599a2be6df2e260c08201527f14bedd503c37ceb061d8ec60209fe345ce89830a19230301f076caff004d192660e08201527f0967032fcbf776d1afc985f88877f182d38480a653f2decaa9794cbc3bf3060c6101008201527f0e187847ad4c798374d0d6732bf501847dd68bc0e071241e0213bc7fc13db7ab6101208201527f304cfbd1e08a704a99f5e847d93f8c3caafddec46b7a0d379da69a4d112346a76101408201527f1739c1b1a457a8c7313123d24d2f9192f896b7c63eea05a9d57f06547ad0cec8610160820152600087015161018082015260206000018701516101a08201527f198e9393920d483a7260bfb731fb5d25f1aa493335a9e71297e485b7aef312c26101c08201527f1800deef121f1e76426a00665e5c4479674322d4f75edadd46debd5cd992f6ed6101e08201527f090689d0585ff075ec9e99ad690c3395bc4b313370b38ef355acdadcd122975b6102008201527f12c85ea5db8c6deb4aab71808dcb408fe3d1e7690c43d37b4ce6cc0166fa7daa610220820152843561024082015260208501356102608201527f11a898855f40118b4f06c57dc87db10f86e93b1d882ae46ff5861ec0a1264e5d6102808201527f20ba58c5f283b6084dd90bc6a2ca51481df19278f21e08df07fd6dc44d03a3446102a08201527f0d414bf5c511a99c3ed0a7936e37538538faabc08f7797b7179da9b0f861f2826102c08201527f2cd91ba8daa203ede462f9d99843a8829936e9574f5ea50ea8cbb5c8315a9e1b6102e08201526020816103008360086107d05a03fa9051169695505050505050565b6040516103808101604052610e59600084013561005e565b610e66602084013561005e565b610e73604084013561005e565b610e80606084013561005e565b610e8d608084013561005e565b610e9a60a084013561005e565b610ea760c084013561005e565b610eb460e084013561005e565b610ec261010084013561005e565b610ed061012084013561005e565b610ede61014084013561005e565b610eec61016084013561005e565b610efa61018084013561005e565b610f086101a084013561005e565b610f166101c084013561005e565b610f246101e084013561005e565b610f3261020084013561005e565b610f4061022084013561005e565b610f4e61024084013561005e565b610f5c61026084013561005e565b610f6a61028084013561005e565b610f786102a084013561005e565b610f866102c084013561005e565b610f946102e084013561005e565b610fa261030084013561005e565b610fb061032084013561005e565b610fbe61034084013561005e565b610fcc61036084013561005e565b610fda61038084013561005e565b610fe86103a084013561005e565b610ff66103c084013561005e565b6110046103e084013561005e565b611011818486888a6100fd565b90508060005260206000f35b806040810183101561102e57600080fd5b92915050565b60008060008061050080868803121561104c57600080fd5b611056878761101d565b945060c086018781111561106957600080fd5b604087019450611079888261101d565b93505086818701111561108b57600080fd5b5092959194509261010001915056fea26469706673582212205a1455870ea00005c950807e24ab379fd870315ca89d28ebd7d86b8bf4bd709964736f6c63430008180033",
  "linkReferences": {},
  "deployedLinkReferences": {}
}