{
  "_format": "hh-sol-artifact-1",
  "contractName": "RaylsMessageExecutorV1",
  "sourceName": "src/rayls-protocol/RaylsMessageExecutor/RaylsMessageExecutorV1.sol",
  "abi": [
    {
      "inputs": [
        {
          "internalType": "address",
          "name": "target",
          "type": "address"
        }
      ],
      "name": "AddressEmptyCode",
      "type": "error"
    },
    {
      "inputs": [
        {
          "internalType": "address",
          "name": "implementation",
          "type": "address"
        }
      ],
      "name": "ERC1967InvalidImplementation",
      "type": "error"
    },
    {
      "inputs": [],
      "name": "ERC1967NonPayable",
      "type": "error"
    },
    {
      "inputs": [],
      "name": "FailedInnerCall",
      "type": "error"
    },
    {
      "inputs": [],
      "name": "InvalidInitialization",
      "type": "error"
    },
    {
      "inputs": [
        {
          "internalType": "bytes32",
          "name": "messageId",
          "type": "bytes32"
        },
        {
          "internalType": "uint256",
          "name": "messageIndex",
          "type": "uint256"
        },
        {
          "internalType": "bytes",
          "name": "errorData",
          "type": "bytes"
        }
      ],
      "name": "MessageBatchFailure",
      "type": "error"
    },
    {
      "inputs": [
        {
          "internalType": "bytes32",
          "name": "messageId",
          "type": "bytes32"
        },
        {
          "internalType": "bytes",
          "name": "errorData",
          "type": "bytes"
        }
      ],
      "name": "MessageFailure",
      "type": "error"
    },
    {
      "inputs": [
        {
          "internalType": "bytes32",
          "name": "messageId",
          "type": "bytes32"
        }
      ],
      "name": "MessageIdAlreadyExecuted",
      "type": "error"
    },
    {
      "inputs": [],
      "name": "NotInitializing",
      "type": "error"
    },
    {
      "inputs": [
        {
          "internalType": "address",
          "name": "owner",
          "type": "address"
        }
      ],
      "name": "OwnableInvalidOwner",
      "type": "error"
    },
    {
      "inputs": [
        {
          "internalType": "address",
          "name": "account",
          "type": "address"
        }
      ],
      "name": "OwnableUnauthorizedAccount",
      "type": "error"
    },
    {
      "inputs": [],
      "name": "UUPSUnauthorizedCallContext",
      "type": "error"
    },
    {
      "inputs": [
        {
          "internalType": "bytes32",
          "name": "slot",
          "type": "bytes32"
        }
      ],
      "name": "UUPSUnsupportedProxiableUUID",
      "type": "error"
    },
    {
      "anonymous": false,
      "inputs": [
        {
          "indexed": false,
          "internalType": "uint64",
          "name": "version",
          "type": "uint64"
        }
      ],
      "name": "Initialized",
      "type": "event"
    },
    {
      "anonymous": false,
      "inputs": [
        {
          "indexed": true,
          "internalType": "uint256",
          "name": "fromChainId",
          "type": "uint256"
        },
        {
          "indexed": true,
          "internalType": "bytes32",
          "name": "messageId",
          "type": "bytes32"
        }
      ],
      "name": "MessageIdExecuted",
      "type": "event"
    },
    {
      "anonymous": false,
      "inputs": [
        {
          "indexed": true,
          "internalType": "address",
          "name": "previousOwner",
          "type": "address"
        },
        {
          "indexed": true,
          "internalType": "address",
          "name": "newOwner",
          "type": "address"
        }
      ],
      "name": "OwnershipTransferred",
      "type": "event"
    },
    {
      "anonymous": false,
      "inputs": [
        {
          "indexed": true,
          "internalType": "address",
          "name": "implementation",
          "type": "address"
        }
      ],
      "name": "Upgraded",
      "type": "event"
    },
    {
      "inputs": [],
      "name": "UPGRADE_INTERFACE_VERSION",
      "outputs": [
        {
          "internalType": "string",
          "name": "",
          "type": "string"
        }
      ],
      "stateMutability": "view",
      "type": "function"
    },
    {
      "inputs": [],
      "name": "chainId",
      "outputs": [
        {
          "internalType": "uint256",
          "name": "",
          "type": "uint256"
        }
      ],
      "stateMutability": "view",
      "type": "function"
    },
    {
      "inputs": [],
      "name": "contractVersion",
      "outputs": [
        {
          "internalType": "uint256",
          "name": "",
          "type": "uint256"
        }
      ],
      "stateMutability": "pure",
      "type": "function"
    },
    {
      "inputs": [
        {
          "internalType": "address",
          "name": "to",
          "type": "address"
        },
        {
          "internalType": "bytes",
          "name": "data",
          "type": "bytes"
        },
        {
          "internalType": "bytes32",
          "name": "messageId",
          "type": "bytes32"
        },
        {
          "internalType": "uint256",
          "name": "fromChainId",
          "type": "uint256"
        },
        {
          "internalType": "address",
          "name": "from",
          "type": "address"
        }
      ],
      "name": "executeMessage",
      "outputs": [],
      "stateMutability": "nonpayable",
      "type": "function"
    },
    {
      "inputs": [
        {
          "components": [
            {
              "internalType": "address",
              "name": "to",
              "type": "address"
            },
            {
              "internalType": "bytes",
              "name": "data",
              "type": "bytes"
            }
          ],
          "internalType": "struct MessageLib.Message[]",
          "name": "messages",
          "type": "tuple[]"
        },
        {
          "internalType": "bytes32",
          "name": "messageId",
          "type": "bytes32"
        },
        {
          "internalType": "uint256",
          "name": "fromChainId",
          "type": "uint256"
        },
        {
          "internalType": "address",
          "name": "from",
          "type": "address"
        }
      ],
      "name": "executeMessageBatch",
      "outputs": [],
      "stateMutability": "nonpayable",
      "type": "function"
    },
    {
      "inputs": [
        {
          "internalType": "bytes32",
          "name": "",
          "type": "bytes32"
        }
      ],
      "name": "executed",
      "outputs": [
        {
          "internalType": "bool",
          "name": "",
          "type": "bool"
        }
      ],
      "stateMutability": "view",
      "type": "function"
    },
    {
      "inputs": [],
      "name": "initialize",
      "outputs": [],
      "stateMutability": "nonpayable",
      "type": "function"
    },
    {
      "inputs": [
        {
          "internalType": "address",
          "name": "initialOwner",
          "type": "address"
        }
      ],
      "name": "initialize",
      "outputs": [],
      "stateMutability": "nonpayable",
      "type": "function"
    },
    {
      "inputs": [],
      "name": "owner",
      "outputs": [
        {
          "internalType": "address",
          "name": "",
          "type": "address"
        }
      ],
      "stateMutability": "view",
      "type": "function"
    },
    {
      "inputs": [],
      "name": "proxiableUUID",
      "outputs": [
        {
          "internalType": "bytes32",
          "name": "",
          "type": "bytes32"
        }
      ],
      "stateMutability": "view",
      "type": "function"
    },
    {
      "inputs": [],
      "name": "renounceOwnership",
      "outputs": [],
      "stateMutability": "nonpayable",
      "type": "function"
    },
    {
      "inputs": [
        {
          "internalType": "address",
          "name": "newOwner",
          "type": "address"
        }
      ],
      "name": "transferOwnership",
      "outputs": [],
      "stateMutability": "nonpayable",
      "type": "function"
    },
    {
      "inputs": [
        {
          "internalType": "address",
          "name": "newImplementation",
          "type": "address"
        },
        {
          "internalType": "bytes",
          "name": "data",
          "type": "bytes"
        }
      ],
      "name": "upgradeToAndCall",
      "outputs": [],
      "stateMutability": "payable",
      "type": "function"
    }
  ],
  "bytecode": "0x60a06040523060805234801561001457600080fd5b5060805161121361003e600039600081816106150152818161063e015261077b01526112136000f3fe6080604052600436106100a25760003560e01c80634f1ef286146100a757806352d1902d146100bc578063715018a6146100e45780638129fc1c146100f95780638da5cb5b1461010e57806390fe4cff146101305780639a8a059214610150578063a0a8e46014610166578063a9fcfb331461017a578063ad3cb1cc146101ba578063c4d66de8146101f8578063c5c37a0014610218578063f2fde38b14610238575b600080fd5b6100ba6100b5366004610e03565b610258565b005b3480156100c857600080fd5b506100d1610277565b6040519081526020015b60405180910390f35b3480156100f057600080fd5b506100ba610294565b34801561010557600080fd5b506100ba6102a8565b34801561011a57600080fd5b50610123610398565b6040516100db9190610e50565b34801561013c57600080fd5b506100ba61014b366004610e64565b6103b3565b34801561015c57600080fd5b506100d160015481565b34801561017257600080fd5b5060016100d1565b34801561018657600080fd5b506101aa610195366004610f09565b60026020526000908152604090205460ff1681565b60405190151581526020016100db565b3480156101c657600080fd5b506101eb604051806040016040528060058152602001640352e302e360dc1b81525081565b6040516100db9190610f72565b34801561020457600080fd5b506100ba610213366004610f85565b61044d565b34801561022457600080fd5b506100ba610233366004610fa0565b61055b565b34801561024457600080fd5b506100ba610253366004610f85565b6105c3565b61026061060a565b610269826106af565b61027382826106b7565b5050565b6000610281610770565b506000805160206111be83398151915290565b61029c6107b9565b6102a660006107eb565b565b60006102b2610847565b805490915060ff600160401b82041615906001600160401b03166000811580156102d95750825b90506000826001600160401b031660011480156102f55750303b155b905081158015610303575080155b156103215760405163f92ee8a960e01b815260040160405180910390fd5b845467ffffffffffffffff19166001178555831561034b57845460ff60401b1916600160401b1785555b831561039157845460ff60401b19168555604051600181527fc7f505b2f371ae2175ee4913f4499e1f2633a7b5936321eed1cdaeb6115181d29060200160405180910390a15b5050505050565b6000806103a361086b565b546001600160a01b031692915050565b600083815260026020908152604091829020805460ff1981166001179091558251601f880183900483028101830190935286835260ff16916104189189919089908990819084018382808284376000920191909152508992508891508790508661088f565b604051849084907e769f3f82cb2a521c5b72f211aff687dae3cebd0b4631790417d1b17e15689a90600090a350505050505050565b6000610457610847565b805490915060ff600160401b82041615906001600160401b031660008115801561047e5750825b90506000826001600160401b0316600114801561049a5750303b155b9050811580156104a8575080155b156104c65760405163f92ee8a960e01b815260040160405180910390fd5b845467ffffffffffffffff1916600117855583156104f057845460ff60401b1916600160401b1785555b6104f98661096b565b61050161097c565b6105096102a8565b46600155831561055357845460ff60401b19168555604051600181527fc7f505b2f371ae2175ee4913f4499e1f2633a7b5936321eed1cdaeb6115181d29060200160405180910390a15b505050505050565b6000838152600260205260409020805460ff19811660011790915560ff1661058f6105868688611035565b85858585610984565b604051849084907e769f3f82cb2a521c5b72f211aff687dae3cebd0b4631790417d1b17e15689a90600090a3505050505050565b6105cb6107b9565b6001600160a01b0381166105fe576000604051631e4fbdf760e01b81526004016105f59190610e50565b60405180910390fd5b610607816107eb565b50565b306001600160a01b037f000000000000000000000000000000000000000000000000000000000000000016148061069157507f00000000000000000000000000000000000000000000000000000000000000006001600160a01b03166106856000805160206111be833981519152546001600160a01b031690565b6001600160a01b031614155b156102a65760405163703e46dd60e11b815260040160405180910390fd5b6106076107b9565b816001600160a01b03166352d1902d6040518163ffffffff1660e01b8152600401602060405180830381865afa925050508015610711575060408051601f3d908101601f1916820190925261070e918101906110f6565b60015b6107305781604051634c9c8ce360e01b81526004016105f59190610e50565b6000805160206111be833981519152811461076157604051632a87526960e21b8152600481018290526024016105f5565b61076b8383610aa3565b505050565b306001600160a01b037f000000000000000000000000000000000000000000000000000000000000000016146102a65760405163703e46dd60e11b815260040160405180910390fd5b336107c2610398565b6001600160a01b0316146102a6573360405163118cdaa760e01b81526004016105f59190610e50565b60006107f561086b565b80546001600160a01b038481166001600160a01b031983168117845560405193945091169182907f8be0079c531659141344cd1fd0a4f28419497f9722a3daafe3b4186f6b6457e090600090a3505050565b7ff0c57e16840df040f15088dc2f81fe391c3923bec73e23a9662efc9c229c6a0090565b7f9016d09d72d40fdae2fd8ceac6b6234c7706214fd39c1cd1e609a0528c19930090565b80156108b15760405163153bf81360e31b8152600481018590526024016105f5565b6108ba86610af9565b600080876001600160a01b0316878787876040516020016108de949392919061110f565b60408051601f19818403018152908290526108f89161114b565b6000604051808303816000865af19150503d8060008114610935576040519150601f19603f3d011682016040523d82523d6000602084013e61093a565b606091505b509150915081610961578581604051632f9c844f60e21b81526004016105f5929190611167565b5050505050505050565b610973610b53565b61060781610b78565b6102a6610b53565b80156109a65760405163153bf81360e31b8152600481018590526024016105f5565b845160005b81811015610a9a5760008782815181106109c7576109c7611188565b602002602001015190506109de8160000151610af9565b60008082600001516001600160a01b031683602001518a8a8a604051602001610a0a949392919061110f565b60408051601f1981840301815290829052610a249161114b565b6000604051808303816000865af19150503d8060008114610a61576040519150601f19603f3d011682016040523d82523d6000602084013e610a66565b606091505b509150915081610a8f578884826040516307ee0b0760e31b81526004016105f59392919061119e565b5050506001016109ab565b50505050505050565b610aac82610b80565b6040516001600160a01b038316907fbc7cd75a20ee27fd9adebab32041f755214dbc6bffa90cc0225b39da2e5c2d3b90600090a2805115610af15761076b8282610bdc565b610273610c52565b6000816001600160a01b03163b116106075760405162461bcd60e51b815260206004820152601c60248201527f4d6573736167654c69622f6e6f2d636f6e74726163742d61742d746f0000000060448201526064016105f5565b610b5b610c71565b6102a657604051631afcd79f60e31b815260040160405180910390fd5b6105cb610b53565b806001600160a01b03163b600003610bad5780604051634c9c8ce360e01b81526004016105f59190610e50565b6000805160206111be83398151915280546001600160a01b0319166001600160a01b0392909216919091179055565b6060600080846001600160a01b031684604051610bf9919061114b565b600060405180830381855af49150503d8060008114610c34576040519150601f19603f3d011682016040523d82523d6000602084013e610c39565b606091505b5091509150610c49858383610c8b565b95945050505050565b34156102a65760405163b398979f60e01b815260040160405180910390fd5b6000610c7b610847565b54600160401b900460ff16919050565b606082610ca057610c9b82610ce1565b610cda565b8151158015610cb757506001600160a01b0384163b155b15610cd75783604051639996b31560e01b81526004016105f59190610e50565b50805b9392505050565b805115610cf15780518082602001fd5b604051630a12f52160e11b815260040160405180910390fd5b80356001600160a01b0381168114610d2157600080fd5b919050565b634e487b7160e01b600052604160045260246000fd5b604080519081016001600160401b0381118282101715610d5e57610d5e610d26565b60405290565b604051601f8201601f191681016001600160401b0381118282101715610d8c57610d8c610d26565b604052919050565b600082601f830112610da557600080fd5b81356001600160401b03811115610dbe57610dbe610d26565b610dd1601f8201601f1916602001610d64565b818152846020838601011115610de657600080fd5b816020850160208301376000918101602001919091529392505050565b60008060408385031215610e1657600080fd5b610e1f83610d0a565b915060208301356001600160401b03811115610e3a57600080fd5b610e4685828601610d94565b9150509250929050565b6001600160a01b0391909116815260200190565b60008060008060008060a08789031215610e7d57600080fd5b610e8687610d0a565b955060208701356001600160401b0380821115610ea257600080fd5b818901915089601f830112610eb657600080fd5b813581811115610ec557600080fd5b8a6020828501011115610ed757600080fd5b6020830197508096505050506040870135925060608701359150610efd60808801610d0a565b90509295509295509295565b600060208284031215610f1b57600080fd5b5035919050565b60005b83811015610f3d578181015183820152602001610f25565b50506000910152565b60008151808452610f5e816020860160208601610f22565b601f01601f19169290920160200192915050565b602081526000610cda6020830184610f46565b600060208284031215610f9757600080fd5b610cda82610d0a565b600080600080600060808688031215610fb857600080fd5b85356001600160401b0380821115610fcf57600080fd5b818801915088601f830112610fe357600080fd5b813581811115610ff257600080fd5b8960208260051b850101111561100757600080fd5b6020928301975095505086013592506040860135915061102960608701610d0a565b90509295509295909350565b60006001600160401b038084111561104f5761104f610d26565b8360051b6020611060818301610d64565b86815291850191818101903684111561107857600080fd5b865b848110156110ea578035868111156110925760008081fd5b880160403682900312156110a65760008081fd5b6110ae610d3c565b6110b782610d0a565b815285820135888111156110cb5760008081fd5b6110d736828501610d94565b828801525084525091830191830161107a565b50979650505050505050565b60006020828403121561110857600080fd5b5051919050565b60008551611121818460208a01610f22565b9190910193845250602083019190915260601b6001600160601b0319166040820152605401919050565b6000825161115d818460208701610f22565b9190910192915050565b8281526040602082015260006111806040830184610f46565b949350505050565b634e487b7160e01b600052603260045260246000fd5b838152826020820152606060408201526000610c496060830184610f4656fe360894a13ba1a3210667c828492db98dca3e2076cc3735a920a3ca505d382bbca264697066735822122052bf0177da8312be7495e5c633c12f666a4a2109044929ba95e0f8f1bfc172fd64736f6c63430008180033",
  "linkReferences": {},
  "deployedLinkReferences": {}
}