{
  "_format": "hh-sol-artifact-1",
  "contractName": "GenericGroth16Verifier",
  "sourceName": "src/rayls-protocol/ZkDvp/GenericGroth16Verifier.sol",
  "abi": [
    {
      "inputs": [
        {
          "components": [
            {
              "internalType": "uint256",
              "name": "x",
              "type": "uint256"
            },
            {
              "internalType": "uint256",
              "name": "y",
              "type": "uint256"
            }
          ],
          "internalType": "struct IZkDvp.G1Point",
          "name": "p1",
          "type": "tuple"
        },
        {
          "components": [
            {
              "internalType": "uint256",
              "name": "x",
              "type": "uint256"
            },
            {
              "internalType": "uint256",
              "name": "y",
              "type": "uint256"
            }
          ],
          "internalType": "struct IZkDvp.G1Point",
          "name": "p2",
          "type": "tuple"
        }
      ],
      "name": "add",
      "outputs": [
        {
          "components": [
            {
              "internalType": "uint256",
              "name": "x",
              "type": "uint256"
            },
            {
              "internalType": "uint256",
              "name": "y",
              "type": "uint256"
            }
          ],
          "internalType": "struct IZkDvp.G1Point",
          "name": "",
          "type": "tuple"
        }
      ],
      "stateMutability": "view",
      "type": "function"
    },
    {
      "inputs": [
        {
          "components": [
            {
              "internalType": "uint256",
              "name": "x",
              "type": "uint256"
            },
            {
              "internalType": "uint256",
              "name": "y",
              "type": "uint256"
            }
          ],
          "internalType": "struct IZkDvp.G1Point",
          "name": "p",
          "type": "tuple"
        }
      ],
      "name": "negate",
      "outputs": [
        {
          "components": [
            {
              "internalType": "uint256",
              "name": "x",
              "type": "uint256"
            },
            {
              "internalType": "uint256",
              "name": "y",
              "type": "uint256"
            }
          ],
          "internalType": "struct IZkDvp.G1Point",
          "name": "",
          "type": "tuple"
        }
      ],
      "stateMutability": "pure",
      "type": "function"
    },
    {
      "inputs": [
        {
          "components": [
            {
              "internalType": "uint256",
              "name": "x",
              "type": "uint256"
            },
            {
              "internalType": "uint256",
              "name": "y",
              "type": "uint256"
            }
          ],
          "internalType": "struct IZkDvp.G1Point",
          "name": "_a1",
          "type": "tuple"
        },
        {
          "components": [
            {
              "internalType": "uint256[2]",
              "name": "x",
              "type": "uint256[2]"
            },
            {
              "internalType": "uint256[2]",
              "name": "y",
              "type": "uint256[2]"
            }
          ],
          "internalType": "struct IZkDvp.G2Point",
          "name": "_a2",
          "type": "tuple"
        },
        {
          "components": [
            {
              "internalType": "uint256",
              "name": "x",
              "type": "uint256"
            },
            {
              "internalType": "uint256",
              "name": "y",
              "type": "uint256"
            }
          ],
          "internalType": "struct IZkDvp.G1Point",
          "name": "_b1",
          "type": "tuple"
        },
        {
          "components": [
            {
              "internalType": "uint256[2]",
              "name": "x",
              "type": "uint256[2]"
            },
            {
              "internalType": "uint256[2]",
              "name": "y",
              "type": "uint256[2]"
            }
          ],
          "internalType": "struct IZkDvp.G2Point",
          "name": "_b2",
          "type": "tuple"
        },
        {
          "components": [
            {
              "internalType": "uint256",
              "name": "x",
              "type": "uint256"
            },
            {
              "internalType": "uint256",
              "name": "y",
              "type": "uint256"
            }
          ],
          "internalType": "struct IZkDvp.G1Point",
          "name": "_c1",
          "type": "tuple"
        },
        {
          "components": [
            {
              "internalType": "uint256[2]",
              "name": "x",
              "type": "uint256[2]"
            },
            {
              "internalType": "uint256[2]",
              "name": "y",
              "type": "uint256[2]"
            }
          ],
          "internalType": "struct IZkDvp.G2Point",
          "name": "_c2",
          "type": "tuple"
        },
        {
          "components": [
            {
              "internalType": "uint256",
              "name": "x",
              "type": "uint256"
            },
            {
              "internalType": "uint256",
              "name": "y",
              "type": "uint256"
            }
          ],
          "internalType": "struct IZkDvp.G1Point",
          "name": "_d1",
          "type": "tuple"
        },
        {
          "components": [
            {
              "internalType": "uint256[2]",
              "name": "x",
              "type": "uint256[2]"
            },
            {
              "internalType": "uint256[2]",
              "name": "y",
              "type": "uint256[2]"
            }
          ],
          "internalType": "struct IZkDvp.G2Point",
          "name": "_d2",
          "type": "tuple"
        }
      ],
      "name": "pairing",
      "outputs": [
        {
          "internalType": "bool",
          "name": "",
          "type": "bool"
        }
      ],
      "stateMutability": "view",
      "type": "function"
    },
    {
      "inputs": [
        {
          "components": [
            {
              "internalType": "uint256",
              "name": "x",
              "type": "uint256"
            },
            {
              "internalType": "uint256",
              "name": "y",
              "type": "uint256"
            }
          ],
          "internalType": "struct IZkDvp.G1Point",
          "name": "p",
          "type": "tuple"
        },
        {
          "internalType": "uint256",
          "name": "s",
          "type": "uint256"
        }
      ],
      "name": "scalarMul",
      "outputs": [
        {
          "components": [
            {
              "internalType": "uint256",
              "name": "x",
              "type": "uint256"
            },
            {
              "internalType": "uint256",
              "name": "y",
              "type": "uint256"
            }
          ],
          "internalType": "struct IZkDvp.G1Point",
          "name": "r",
          "type": "tuple"
        }
      ],
      "stateMutability": "view",
      "type": "function"
    },
    {
      "inputs": [
        {
          "components": [
            {
              "components": [
                {
                  "internalType": "uint256",
                  "name": "x",
                  "type": "uint256"
                },
                {
                  "internalType": "uint256",
                  "name": "y",
                  "type": "uint256"
                }
              ],
              "internalType": "struct IZkDvp.G1Point",
              "name": "alpha1",
              "type": "tuple"
            },
            {
              "components": [
                {
                  "internalType": "uint256[2]",
                  "name": "x",
                  "type": "uint256[2]"
                },
                {
                  "internalType": "uint256[2]",
                  "name": "y",
                  "type": "uint256[2]"
                }
              ],
              "internalType": "struct IZkDvp.G2Point",
              "name": "beta2",
              "type": "tuple"
            },
            {
              "components": [
                {
                  "internalType": "uint256[2]",
                  "name": "x",
                  "type": "uint256[2]"
                },
                {
                  "internalType": "uint256[2]",
                  "name": "y",
                  "type": "uint256[2]"
                }
              ],
              "internalType": "struct IZkDvp.G2Point",
              "name": "gamma2",
              "type": "tuple"
            },
            {
              "components": [
                {
                  "internalType": "uint256[2]",
                  "name": "x",
                  "type": "uint256[2]"
                },
                {
                  "internalType": "uint256[2]",
                  "name": "y",
                  "type": "uint256[2]"
                }
              ],
              "internalType": "struct IZkDvp.G2Point",
              "name": "delta2",
              "type": "tuple"
            },
            {
              "components": [
                {
                  "internalType": "uint256",
                  "name": "x",
                  "type": "uint256"
                },
                {
                  "internalType": "uint256",
                  "name": "y",
                  "type": "uint256"
                }
              ],
              "internalType": "struct IZkDvp.G1Point[]",
              "name": "ic",
              "type": "tuple[]"
            }
          ],
          "internalType": "struct IZkDvp.VerifyingKey",
          "name": "_vk",
          "type": "tuple"
        },
        {
          "components": [
            {
              "components": [
                {
                  "internalType": "uint256",
                  "name": "x",
                  "type": "uint256"
                },
                {
                  "internalType": "uint256",
                  "name": "y",
                  "type": "uint256"
                }
              ],
              "internalType": "struct IZkDvp.G1Point",
              "name": "a",
              "type": "tuple"
            },
            {
              "components": [
                {
                  "internalType": "uint256[2]",
                  "name": "x",
                  "type": "uint256[2]"
                },
                {
                  "internalType": "uint256[2]",
                  "name": "y",
                  "type": "uint256[2]"
                }
              ],
              "internalType": "struct IZkDvp.G2Point",
              "name": "b",
              "type": "tuple"
            },
            {
              "components": [
                {
                  "internalType": "uint256",
                  "name": "x",
                  "type": "uint256"
                },
                {
                  "internalType": "uint256",
                  "name": "y",
                  "type": "uint256"
                }
              ],
              "internalType": "struct IZkDvp.G1Point",
              "name": "c",
              "type": "tuple"
            }
          ],
          "internalType": "struct IZkDvp.SnarkProof",
          "name": "_proof",
          "type": "tuple"
        },
        {
          "internalType": "uint256[]",
          "name": "_input",
          "type": "uint256[]"
        }
      ],
      "name": "verify",
      "outputs": [
        {
          "internalType": "bool",
          "name": "",
          "type": "bool"
        }
      ],
      "stateMutability": "view",
      "type": "function"
    }
  ],
  "bytecode": "0x608060405234801561001057600080fd5b50610c8f806100206000396000f3fe608060405234801561001057600080fd5b50600436106100575760003560e01c8063161822441461005c57806340a058671461008457806382d23b8a146100b25780638de16fe3146100c5578063fb6b9e9a146100d8575b600080fd5b61006f61006a366004610842565b6100eb565b60405190151581526020015b60405180910390f35b6100976100923660046108e6565b61026d565b6040805182518152602092830151928101929092520161007b565b6100976100c0366004610911565b610307565b61006f6100d3366004610a4a565b61039c565b6100976100e6366004610ba2565b61055e565b6040805161030081018252895181526020808b015181830152895151928201929092528851820151606082015288820180515160808301525182015160a0820152875160c08201528782015160e08201528651516101008201528651820151610120820152868201805151610140830152518201516101608201528551610180820152858201516101a08201528451516101c082015284518201516101e08201528482018051516102008301525182015161022082015283516102408201528382015161026082015282515161028082015282518201516102a08201528282018051516102c083015251909101516102e08201526000906101ea61067e565b60006020826103008560086107d05a03fa90508061025b5760405162461bcd60e51b8152602060048201526024808201527f50616972696e673a2050616972696e6720566572696669636174696f6e2046616044820152631a5b195960e21b60648201526084015b60405180910390fd5b505115159a9950505050505050505050565b61027561069c565b61027d6106b6565b835181526020808501519082015260408082018490526000908360608460076107d05a03fa9050806102ff5760405162461bcd60e51b815260206004820152602560248201527f50616972696e673a205363616c6172204d756c7469706c69636174696f6e2046604482015264185a5b195960da1b6064820152608401610252565b505092915050565b61030f61069c565b6103176106d4565b8351815260208085015181830152835160408301528301516060820152600061033e61069c565b60408160808560066107d05a03fa9150816103915760405162461bcd60e51b815260206004820152601360248201527214185a5c9a5b99ce881059190811985a5b1959606a1b6044820152606401610252565b925050505b92915050565b6000836080015151825160016103b29190610bf1565b146103f45760405162461bcd60e51b81526020600482015260126024820152711d995c9a599a595c8b5898590b5a5b9c1d5d60721b6044820152606401610252565b604080518082019091526000808252602082018190525b83518110156104f6577f30644e72e131a029b85045b68181585d2833e84879b9709143e1f593f000000184828151811061044757610447610bc5565b60200260200101511061049c5760405162461bcd60e51b815260206004820152601f60248201527f76657269666965722d6774652d736e61726b2d7363616c61722d6669656c64006044820152606401610252565b6104ec826100c088608001518460016104b59190610bf1565b815181106104c5576104c5610bc5565b60200260200101518785815181106104df576104df610bc5565b602002602001015161026d565b915060010161040b565b5061051f81866080015160008151811061051257610512610bc5565b6020026020010151610307565b9050610555610531856000015161055e565b856020015187600001518860200151858a604001518a604001518c606001516100eb565b95945050505050565b61056661069c565b815115801561057757506020820151155b15610595575050604080518082019091526000808252602082015290565b6000600080516020610c3a833981519152835180099050600080516020610c3a833981519152835182099050600080516020610c3a8339815191526003820890506000600080516020610c3a8339815191526020850151800990508181146106295760405162461bcd60e51b8152602060048201526007602482015266029b730b9359d160cd1b6044820152606401610252565b604051806040016040528085600001518152602001600080516020610c3a833981519152866020015161065c9190610c04565b61067490600080516020610c3a833981519152610c26565b9052949350505050565b60405180602001604052806001906020820280368337509192915050565b604051806040016040528060008152602001600081525090565b60405180606001604052806003906020820280368337509192915050565b60405180608001604052806004906020820280368337509192915050565b634e487b7160e01b600052604160045260246000fd5b604080519081016001600160401b038111828210171561072a5761072a6106f2565b60405290565b60405160a081016001600160401b038111828210171561072a5761072a6106f2565b604051601f8201601f191681016001600160401b038111828210171561077a5761077a6106f2565b604052919050565b60006040828403121561079457600080fd5b61079c610708565b9050813581526020820135602082015292915050565b600082601f8301126107c357600080fd5b6107cb610708565b8060408401858111156107dd57600080fd5b845b818110156107f75780358452602093840193016107df565b509095945050505050565b60006080828403121561081457600080fd5b61081c610708565b905061082883836107b2565b815261083783604084016107b2565b602082015292915050565b600080600080600080600080610300898b03121561085f57600080fd5b6108698a8a610782565b97506108788a60408b01610802565b96506108878a60c08b01610782565b95506108978a6101008b01610802565b94506108a78a6101808b01610782565b93506108b78a6101c08b01610802565b92506108c78a6102408b01610782565b91506108d78a6102808b01610802565b90509295985092959890939650565b600080606083850312156108f957600080fd5b6109038484610782565b946040939093013593505050565b6000806080838503121561092457600080fd5b61092e8484610782565b915061093d8460408501610782565b90509250929050565b60006001600160401b0382111561095f5761095f6106f2565b5060051b60200190565b6000610100828403121561097c57600080fd5b604051606081018181106001600160401b038211171561099e5761099e6106f2565b6040529050806109ae8484610782565b81526109bd8460408501610802565b60208201526109cf8460c08501610782565b60408201525092915050565b600082601f8301126109ec57600080fd5b81356020610a016109fc83610946565b610752565b8083825260208201915060208460051b870101935086841115610a2357600080fd5b602086015b84811015610a3f5780358352918301918301610a28565b509695505050505050565b6000806000610140808587031215610a6157600080fd5b84356001600160401b0380821115610a7857600080fd5b908601906101e08289031215610a8d57600080fd5b610a95610730565b610a9f8984610782565b81526040610ab08a60408601610802565b60208181850152610ac48c60c08801610802565b6040850152610ad58c888801610802565b60608501526101c0860135965084871115610aef57600080fd5b86860196508b601f880112610b0357600080fd5b86359550610b136109fc87610946565b86815260069690961b870181019581810192508c871115610b3357600080fd5b968101965b86881015610b5957610b4a8d89610782565b83529683019691810191610b38565b80608086015250839950610b6f8c828d01610969565b985050505050610120870135925080831115610b8a57600080fd5b5050610b98868287016109db565b9150509250925092565b600060408284031215610bb457600080fd5b610bbe8383610782565b9392505050565b634e487b7160e01b600052603260045260246000fd5b634e487b7160e01b600052601160045260246000fd5b8082018082111561039657610396610bdb565b600082610c2157634e487b7160e01b600052601260045260246000fd5b500690565b8181038181111561039657610396610bdb56fe30644e72e131a029b85045b68181585d97816a916871ca8d3c208c16d87cfd47a2646970667358221220f14492aede2c3d022d7629a2be6d64de0b27debce8de82a704150b8dc4df6f7564736f6c63430008180033",
  "linkReferences": {},
  "deployedLinkReferences": {}
}