{
  "_format": "hh-sol-artifact-1",
  "contractName": "PoseidonWrapper",
  "sourceName": "src/rayls-protocol/ZkDvp/PoseidonWrapper.sol",
  "abi": [
    {
      "inputs": [
        {
          "internalType": "uint256[2]",
          "name": "input",
          "type": "uint256[2]"
        }
      ],
      "name": "poseidon",
      "outputs": [
        {
          "internalType": "uint256",
          "name": "",
          "type": "uint256"
        }
      ],
      "stateMutability": "pure",
      "type": "function"
    }
  ],
  "bytecode": "0x608060405234801561001057600080fd5b506101e4806100206000396000f3fe608060405234801561001057600080fd5b506004361061002b5760003560e01c806329a5f2f614610030575b600080fd5b61004361003e3660046100d6565b610055565b60405190815260200160405180910390f35b6040516314d2f97b60e11b815260009073__$ba3514684b8be2b40f26394d67f74cc7fa$__906329a5f2f69061008f908590600401610164565b602060405180830381865af41580156100ac573d6000803e3d6000fd5b505050506040513d601f19601f820116820180604052508101906100d09190610195565b92915050565b6000604082840312156100e857600080fd5b82601f8301126100f757600080fd5b6040516040810181811067ffffffffffffffff8211171561012857634e487b7160e01b600052604160045260246000fd5b806040525080604084018581111561013f57600080fd5b845b81811015610159578035835260209283019201610141565b509195945050505050565b60408101818360005b600281101561018c57815183526020928301929091019060010161016d565b50505092915050565b6000602082840312156101a757600080fd5b505191905056fea2646970667358221220b0f3b22d8ed42b34fe4dba10a89ff2d277032f09aa6c4180e61632e7b17b2bbf64736f6c63430008180033",
  "linkReferences": {
    "src/rayls-protocol/ZkDvp/Poseidon.sol": {
      "PoseidonT3": [
        {
          "length": 20,
          "start": 135
        }
      ]
    }
  },
  "deployedLinkReferences": {
    "src/rayls-protocol/ZkDvp/Poseidon.sol": {
      "PoseidonT3": [
        {
          "length": 20,
          "start": 103
        }
      ]
    }
  }
}