{
  "_format": "hh-sol-artifact-1",
  "contractName": "Commitments",
  "sourceName": "src/rayls-protocol/ZkDvp/Commitments.sol",
  "abi": [
    {
      "inputs": [],
      "stateMutability": "nonpayable",
      "type": "constructor"
    },
    {
      "inputs": [],
      "name": "CryproAddress",
      "outputs": [
        {
          "internalType": "address",
          "name": "",
          "type": "address"
        }
      ],
      "stateMutability": "view",
      "type": "function"
    },
    {
      "inputs": [],
      "name": "ZERO_VALUE",
      "outputs": [
        {
          "internalType": "uint256",
          "name": "",
          "type": "uint256"
        }
      ],
      "stateMutability": "view",
      "type": "function"
    },
    {
      "inputs": [
        {
          "internalType": "uint256",
          "name": "_left",
          "type": "uint256"
        },
        {
          "internalType": "uint256",
          "name": "_right",
          "type": "uint256"
        }
      ],
      "name": "hashLeftRight",
      "outputs": [
        {
          "internalType": "uint256",
          "name": "",
          "type": "uint256"
        }
      ],
      "stateMutability": "pure",
      "type": "function"
    },
    {
      "inputs": [],
      "name": "merkleRoot",
      "outputs": [
        {
          "internalType": "uint256",
          "name": "",
          "type": "uint256"
        }
      ],
      "stateMutability": "view",
      "type": "function"
    },
    {
      "inputs": [
        {
          "internalType": "uint256",
          "name": "",
          "type": "uint256"
        },
        {
          "internalType": "uint256",
          "name": "",
          "type": "uint256"
        }
      ],
      "name": "nullifiers",
      "outputs": [
        {
          "internalType": "bool",
          "name": "",
          "type": "bool"
        }
      ],
      "stateMutability": "view",
      "type": "function"
    },
    {
      "inputs": [
        {
          "internalType": "uint256",
          "name": "",
          "type": "uint256"
        },
        {
          "internalType": "uint256",
          "name": "",
          "type": "uint256"
        }
      ],
      "name": "rootHistory",
      "outputs": [
        {
          "internalType": "bool",
          "name": "",
          "type": "bool"
        }
      ],
      "stateMutability": "view",
      "type": "function"
    },
    {
      "inputs": [],
      "name": "treeNumber",
      "outputs": [
        {
          "internalType": "uint256",
          "name": "",
          "type": "uint256"
        }
      ],
      "stateMutability": "view",
      "type": "function"
    },
    {
      "inputs": [
        {
          "internalType": "uint256",
          "name": "",
          "type": "uint256"
        }
      ],
      "name": "zeros",
      "outputs": [
        {
          "internalType": "uint256",
          "name": "",
          "type": "uint256"
        }
      ],
      "stateMutability": "view",
      "type": "function"
    }
  ],
  "bytecode": "0x608060405234801561001057600080fd5b50610361806100206000396000f3fe608060405234801561001057600080fd5b50600436106100785760003560e01c80632eb4a7ab1461007d57806338953305146100995780635bb93995146100d757806366503315146100ea57806378d3915c146100f3578063b95dc03b1461011e578063e829558814610149578063ec7329591461015c575b600080fd5b61008660035481565b6040519081526020015b60405180910390f35b6100c76100a7366004610284565b600860209081526000928352604080842090915290825290205460ff1681565b6040519015158152602001610090565b6100866100e5366004610284565b610164565b61008660055481565b6100c7610101366004610284565b600060208181529281526040808220909352908152205460ff1681565b600954610131906001600160a01b031681565b6040516001600160a01b039091168152602001610090565b6100866101573660046102a6565b6101f8565b610086610219565b600061016e610266565b838152602081018390526040516314d2f97b60e11b815273__$ba3514684b8be2b40f26394d67f74cc7fa$__906329a5f2f6906101af9084906004016102bf565b602060405180830381865af41580156101cc573d6000803e3d6000fd5b505050506040513d601f19601f820116820180604052508101906101f091906102f0565b949350505050565b6006818154811061020857600080fd5b600091825260209091200154905081565b6102637f30644e72e131a029b85045b68181585d2833e84879b9709143e1f593f00000017f608ed681cbfb8cb4bb38bcb527512cf1a7736fdd8669bd2249d35d3e246f5efb610309565b81565b60405180604001604052806002906020820280368337509192915050565b6000806040838503121561029757600080fd5b50508035926020909101359150565b6000602082840312156102b857600080fd5b5035919050565b60408101818360005b60028110156102e75781518352602092830192909101906001016102c8565b50505092915050565b60006020828403121561030257600080fd5b5051919050565b60008261032657634e487b7160e01b600052601260045260246000fd5b50069056fea264697066735822122069c8ada1532ad6cd8c03460575c2164ce68f9146d298e13248ce309a5a9b742764736f6c63430008180033",
  "linkReferences": {
    "src/rayls-protocol/ZkDvp/Poseidon.sol": {
      "PoseidonT3": [
        {
          "length": 20,
          "start": 423
        }
      ]
    }
  },
  "deployedLinkReferences": {
    "src/rayls-protocol/ZkDvp/Poseidon.sol": {
      "PoseidonT3": [
        {
          "length": 20,
          "start": 391
        }
      ]
    }
  }
}