{
  "_format": "hh-sol-artifact-1",
  "contractName": "ParticipantStorageReplicaV1",
  "sourceName": "src/rayls-protocol/ParticipantStorageReplica/ParticipantStorageReplicaV1.sol",
  "abi": [
    {
      "inputs": [
        {
          "internalType": "address",
          "name": "target",
          "type": "address"
        }
      ],
      "name": "AddressEmptyCode",
      "type": "error"
    },
    {
      "inputs": [
        {
          "internalType": "address",
          "name": "implementation",
          "type": "address"
        }
      ],
      "name": "ERC1967InvalidImplementation",
      "type": "error"
    },
    {
      "inputs": [],
      "name": "ERC1967NonPayable",
      "type": "error"
    },
    {
      "inputs": [],
      "name": "FailedInnerCall",
      "type": "error"
    },
    {
      "inputs": [],
      "name": "InvalidInitialization",
      "type": "error"
    },
    {
      "inputs": [],
      "name": "NotInitializing",
      "type": "error"
    },
    {
      "inputs": [
        {
          "internalType": "address",
          "name": "owner",
          "type": "address"
        }
      ],
      "name": "OwnableInvalidOwner",
      "type": "error"
    },
    {
      "inputs": [
        {
          "internalType": "address",
          "name": "account",
          "type": "address"
        }
      ],
      "name": "OwnableUnauthorizedAccount",
      "type": "error"
    },
    {
      "inputs": [],
      "name": "UUPSUnauthorizedCallContext",
      "type": "error"
    },
    {
      "inputs": [
        {
          "internalType": "bytes32",
          "name": "slot",
          "type": "bytes32"
        }
      ],
      "name": "UUPSUnsupportedProxiableUUID",
      "type": "error"
    },
    {
      "anonymous": false,
      "inputs": [
        {
          "indexed": false,
          "internalType": "uint64",
          "name": "version",
          "type": "uint64"
        }
      ],
      "name": "Initialized",
      "type": "event"
    },
    {
      "anonymous": false,
      "inputs": [
        {
          "indexed": true,
          "internalType": "address",
          "name": "previousOwner",
          "type": "address"
        },
        {
          "indexed": true,
          "internalType": "address",
          "name": "newOwner",
          "type": "address"
        }
      ],
      "name": "OwnershipTransferred",
      "type": "event"
    },
    {
      "anonymous": false,
      "inputs": [
        {
          "indexed": true,
          "internalType": "address",
          "name": "implementation",
          "type": "address"
        }
      ],
      "name": "Upgraded",
      "type": "event"
    },
    {
      "inputs": [],
      "name": "UPGRADE_INTERFACE_VERSION",
      "outputs": [
        {
          "internalType": "string",
          "name": "",
          "type": "string"
        }
      ],
      "stateMutability": "view",
      "type": "function"
    },
    {
      "inputs": [
        {
          "components": [
            {
              "internalType": "uint256",
              "name": "chainId",
              "type": "uint256"
            },
            {
              "internalType": "enum ParticipantStorageV1.Role",
              "name": "role",
              "type": "uint8"
            },
            {
              "internalType": "enum ParticipantStorageV1.Status",
              "name": "status",
              "type": "uint8"
            },
            {
              "internalType": "string",
              "name": "ownerId",
              "type": "string"
            },
            {
              "internalType": "string",
              "name": "name",
              "type": "string"
            },
            {
              "internalType": "uint256",
              "name": "createdAt",
              "type": "uint256"
            },
            {
              "internalType": "uint256",
              "name": "updatedAt",
              "type": "uint256"
            },
            {
              "internalType": "bool",
              "name": "allowedToBroadcast",
              "type": "bool"
            }
          ],
          "internalType": "struct ParticipantStorageV1.Participant[]",
          "name": "_participants",
          "type": "tuple[]"
        }
      ],
      "name": "addOrUpdateParticipants",
      "outputs": [],
      "stateMutability": "nonpayable",
      "type": "function"
    },
    {
      "inputs": [],
      "name": "contractVersion",
      "outputs": [
        {
          "internalType": "uint256",
          "name": "",
          "type": "uint256"
        }
      ],
      "stateMutability": "pure",
      "type": "function"
    },
    {
      "inputs": [],
      "name": "endpoint",
      "outputs": [
        {
          "internalType": "contract IRaylsEndpoint",
          "name": "",
          "type": "address"
        }
      ],
      "stateMutability": "view",
      "type": "function"
    },
    {
      "inputs": [
        {
          "internalType": "bytes32",
          "name": "_resourceId",
          "type": "bytes32"
        }
      ],
      "name": "getAddressByResourceId",
      "outputs": [
        {
          "internalType": "address",
          "name": "",
          "type": "address"
        }
      ],
      "stateMutability": "view",
      "type": "function"
    },
    {
      "inputs": [],
      "name": "getAllParticipants",
      "outputs": [
        {
          "components": [
            {
              "internalType": "uint256",
              "name": "chainId",
              "type": "uint256"
            },
            {
              "internalType": "enum ParticipantStorageV1.Role",
              "name": "role",
              "type": "uint8"
            },
            {
              "internalType": "enum ParticipantStorageV1.Status",
              "name": "status",
              "type": "uint8"
            },
            {
              "internalType": "string",
              "name": "ownerId",
              "type": "string"
            },
            {
              "internalType": "string",
              "name": "name",
              "type": "string"
            },
            {
              "internalType": "uint256",
              "name": "createdAt",
              "type": "uint256"
            },
            {
              "internalType": "uint256",
              "name": "updatedAt",
              "type": "uint256"
            },
            {
              "internalType": "bool",
              "name": "allowedToBroadcast",
              "type": "bool"
            }
          ],
          "internalType": "struct ParticipantStorageV1.Participant[]",
          "name": "",
          "type": "tuple[]"
        }
      ],
      "stateMutability": "view",
      "type": "function"
    },
    {
      "inputs": [
        {
          "internalType": "address",
          "name": "initialOwner",
          "type": "address"
        },
        {
          "internalType": "address",
          "name": "_endpoint",
          "type": "address"
        }
      ],
      "name": "initialize",
      "outputs": [],
      "stateMutability": "nonpayable",
      "type": "function"
    },
    {
      "inputs": [
        {
          "internalType": "address",
          "name": "_endpoint",
          "type": "address"
        }
      ],
      "name": "initialize",
      "outputs": [],
      "stateMutability": "nonpayable",
      "type": "function"
    },
    {
      "inputs": [],
      "name": "owner",
      "outputs": [
        {
          "internalType": "address",
          "name": "",
          "type": "address"
        }
      ],
      "stateMutability": "view",
      "type": "function"
    },
    {
      "inputs": [],
      "name": "proxiableUUID",
      "outputs": [
        {
          "internalType": "bytes32",
          "name": "",
          "type": "bytes32"
        }
      ],
      "stateMutability": "view",
      "type": "function"
    },
    {
      "inputs": [],
      "name": "renounceOwnership",
      "outputs": [],
      "stateMutability": "nonpayable",
      "type": "function"
    },
    {
      "inputs": [],
      "name": "requestAllParticipantsDataFromCommitChain",
      "outputs": [],
      "stateMutability": "nonpayable",
      "type": "function"
    },
    {
      "inputs": [],
      "name": "resourceId",
      "outputs": [
        {
          "internalType": "bytes32",
          "name": "",
          "type": "bytes32"
        }
      ],
      "stateMutability": "view",
      "type": "function"
    },
    {
      "inputs": [
        {
          "internalType": "address",
          "name": "newOwner",
          "type": "address"
        }
      ],
      "name": "transferOwnership",
      "outputs": [],
      "stateMutability": "nonpayable",
      "type": "function"
    },
    {
      "inputs": [
        {
          "internalType": "address",
          "name": "newImplementation",
          "type": "address"
        },
        {
          "internalType": "bytes",
          "name": "data",
          "type": "bytes"
        }
      ],
      "name": "upgradeToAndCall",
      "outputs": [],
      "stateMutability": "payable",
      "type": "function"
    },
    {
      "inputs": [
        {
          "internalType": "uint256",
          "name": "originChainId",
          "type": "uint256"
        },
        {
          "internalType": "uint256",
          "name": "destinationChainId",
          "type": "uint256"
        }
      ],
      "name": "validateMessageParticipants",
      "outputs": [],
      "stateMutability": "view",
      "type": "function"
    }
  ],
  "bytecode": "0x60a06040523060805234801561001457600080fd5b50608051611c3e61003e60003960008181610b9201528181610bbb0152610cf80152611c3e6000f3fe6080604052600436106100d35760003560e01c8063899cb6621161007a578063899cb662146101d35780638da5cb5b146101f3578063a0a8e46014610208578063ad3cb1cc1461021c578063c4d66de81461025a578063cd93db191461027a578063d5c3614f1461028f578063f2fde38b146102af57600080fd5b806311f50c85146100d8578063195ec9ee1461010e578063485cc955146101305780634f1ef2861461015257806352d1902d146101655780635e280f11146101885780635f997c5b146101a8578063715018a6146101be575b600080fd5b3480156100e457600080fd5b506100f86100f3366004611409565b6102cf565b6040516101059190611422565b60405180910390f35b34801561011a57600080fd5b50610123610343565b60405161010591906114b0565b34801561013c57600080fd5b5061015061014b3660046115b3565b61056c565b005b6101506101603660046116b2565b6106e0565b34801561017157600080fd5b5061017a6106ff565b604051908152602001610105565b34801561019457600080fd5b506000546100f8906001600160a01b031681565b3480156101b457600080fd5b5061017a60015481565b3480156101ca57600080fd5b5061015061071d565b3480156101df57600080fd5b506101506101ee366004611771565b610731565b3480156101ff57600080fd5b506100f8610944565b34801561021457600080fd5b50600161017a565b34801561022857600080fd5b5061024d604051806040016040528060058152602001640352e302e360dc1b81525081565b60405161010591906118e1565b34801561026657600080fd5b506101506102753660046118f4565b61095f565b34801561028657600080fd5b50610150610989565b34801561029b57600080fd5b506101506102aa366004611911565b610a7e565b3480156102bb57600080fd5b506101506102ca3660046118f4565b610b0f565b600080546040516311f50c8560e01b8152600481018490526001600160a01b03909116906311f50c8590602401602060405180830381865afa158015610319573d6000803e3d6000fd5b505050506040513d601f19601f8201168201806040525081019061033d9190611933565b92915050565b60606002805480602002602001604051908101604052809291908181526020016000905b82821015610563578382906000526020600020906007020160405180610100016040529081600082015481526020016001820160009054906101000a900460ff1660028111156103b9576103b9611436565b60028111156103ca576103ca611436565b81526020016001820160019054906101000a900460ff1660038111156103f2576103f2611436565b600381111561040357610403611436565b815260200160028201805461041790611950565b80601f016020809104026020016040519081016040528092919081815260200182805461044390611950565b80156104905780601f1061046557610100808354040283529160200191610490565b820191906000526020600020905b81548152906001019060200180831161047357829003601f168201915b505050505081526020016003820180546104a990611950565b80601f01602080910402602001604051908101604052809291908181526020018280546104d590611950565b80156105225780601f106104f757610100808354040283529160200191610522565b820191906000526020600020905b81548152906001019060200180831161050557829003601f168201915b505050918352505060048201546020808301919091526005830154604083015260069092015460ff1615156060909101529082526001929092019101610367565b50505050905090565b6000610576610b4a565b805490915060ff600160401b82041615906001600160401b031660008115801561059d5750825b90506000826001600160401b031660011480156105b95750303b155b9050811580156105c7575080155b156105e55760405163f92ee8a960e01b815260040160405180910390fd5b845467ffffffffffffffff19166001178555831561060f57845460ff60401b1916600160401b1785555b610617610b6e565b61062087610b76565b6106298661095f565b600180805560005460405163d4f951c760e01b815260048101929092523060248301526001600160a01b03169063d4f951c790604401600060405180830381600087803b15801561067957600080fd5b505af115801561068d573d6000803e3d6000fd5b5050505083156106d757845460ff60401b19168555604051600181527fc7f505b2f371ae2175ee4913f4499e1f2633a7b5936321eed1cdaeb6115181d29060200160405180910390a15b50505050505050565b6106e8610b87565b6106f182610c2c565b6106fb8282610c34565b5050565b6000610709610ced565b50600080516020611be98339815191525b90565b610725610d36565b61072f6000610d68565b565b6000546040516333932be560e11b81526001600160a01b039091169063672657ca90610761903390600401611422565b602060405180830381865afa15801561077e573d6000803e3d6000fd5b505050506040513d601f19601f820116820180604052508101906107a2919061198a565b61082a5760405162461bcd60e51b815260206004820152604860248201527f5468697320697320612072656365697665206d6574686f642e204f6e6c79206560448201527f6e64706f696e742773206578656375746f722063616e2063616c6c20746869736064820152671036b2ba3437b21760c11b608482015260a4015b60405180910390fd5b60008054906101000a90046001600160a01b03166001600160a01b0316632232a4e26040518163ffffffff1660e01b8152600401602060405180830381865afa15801561087b573d6000803e3d6000fd5b505050506040513d601f19601f8201168201806040525081019061089f91906119a7565b6108a7610dc4565b1461090e5760405162461bcd60e51b815260206004820152603160248201527f54686973206d6574686f64206f6e6c7920726563656976652063616c6c7320666044820152703937b69031b7b6b6b4ba1031b430b4b71760791b6064820152608401610821565b60005b81518110156106fb5761093c82828151811061092f5761092f6119c0565b6020026020010151610dd8565b600101610911565b60008061094f61103e565b546001600160a01b031692915050565b610967611062565b600080546001600160a01b0319166001600160a01b0392909216919091179055565b6040805160c08101825260008082526020808301829052828401829052606083018290526080830182905260a0830182905290548351631119527160e11b815293519293610a7b936001600160a01b0390921692632232a4e2926004808401938290030181865afa158015610a02573d6000803e3d6000fd5b505050506040513d601f19601f82011682018060405250810190610a2691906119a7565b6001546040805160048152602481018252602080820180516001600160e01b03166306ec249d60e01b179052825180820184526000808252845180840186528181528551938401909552825291929087611087565b50565b60008054906101000a90046001600160a01b03166001600160a01b0316632232a4e26040518163ffffffff1660e01b8152600401602060405180830381865afa158015610acf573d6000803e3d6000fd5b505050506040513d601f19601f82011682018060405250810190610af391906119a7565b8103610afd575050565b610b0682611110565b6106fb81611110565b610b17610d36565b6001600160a01b038116610b41576000604051631e4fbdf760e01b81526004016108219190611422565b610a7b81610d68565b7ff0c57e16840df040f15088dc2f81fe391c3923bec73e23a9662efc9c229c6a0090565b61072f611062565b610b7e611062565b610a7b81611221565b306001600160a01b037f0000000000000000000000000000000000000000000000000000000000000000161480610c0e57507f00000000000000000000000000000000000000000000000000000000000000006001600160a01b0316610c02600080516020611be9833981519152546001600160a01b031690565b6001600160a01b031614155b1561072f5760405163703e46dd60e11b815260040160405180910390fd5b610a7b610d36565b816001600160a01b03166352d1902d6040518163ffffffff1660e01b8152600401602060405180830381865afa925050508015610c8e575060408051601f3d908101601f19168201909252610c8b918101906119a7565b60015b610cad5781604051634c9c8ce360e01b81526004016108219190611422565b600080516020611be98339815191528114610cde57604051632a87526960e21b815260048101829052602401610821565b610ce88383611229565b505050565b306001600160a01b037f0000000000000000000000000000000000000000000000000000000000000000161461072f5760405163703e46dd60e11b815260040160405180910390fd5b33610d3f610944565b6001600160a01b03161461072f573360405163118cdaa760e01b81526004016108219190611422565b6000610d7261103e565b80546001600160a01b038481166001600160a01b031983168117845560405193945091169182907f8be0079c531659141344cd1fd0a4f28419497f9722a3daafe3b4186f6b6457e090600090a3505050565b60006034361061071a575060331936013590565b805160008181526004602052604081205490819003610f4c5760028054600181810183556000839052855160079092027f405787fa12a823e0f2b7631cc41b3ba8828b3321ca811111fa75cd3aa3bb5ace810192835560208701517f405787fa12a823e0f2b7631cc41b3ba8828b3321ca811111fa75cd3aa3bb5acf909101805488959293919260ff1990911691908490811115610e7857610e78611436565b0217905550604082015160018201805461ff001916610100836003811115610ea257610ea2611436565b021790555060608201516002820190610ebb9082611a26565b5060808201516003820190610ed09082611a26565b5060a082015160048281019190915560c0830151600583015560e0909201516006909101805460ff191691151591909117905560038054600181019091557fc2575a0e9e593c00f959f8c92f12db2869c3395a3b0502d05e2516446f71f85b018390556002546000848152602092909252604090912055505050565b6000610f59600183611ae5565b90508360028281548110610f6f57610f6f6119c0565b90600052602060002090600702016000820151816000015560208201518160010160006101000a81548160ff02191690836002811115610fb157610fb1611436565b0217905550604082015160018201805461ff001916610100836003811115610fdb57610fdb611436565b021790555060608201516002820190610ff49082611a26565b50608082015160038201906110099082611a26565b5060a0820151600482015560c0820151600582015560e0909101516006909101805460ff191691151591909117905550505050565b7f9016d09d72d40fdae2fd8ceac6b6234c7706214fd39c1cd1e609a0528c19930090565b61106a61127f565b61072f57604051631afcd79f60e31b815260040160405180910390fd5b600054604051631075c5d160e21b81526001600160a01b03909116906341d71744906110c3908a908a908a908a908a908a908a90600401611b06565b6020604051808303816000875af11580156110e2573d6000803e3d6000fd5b505050506040513d601f19601f8201168201806040525081019061110691906119a7565b5050505050505050565b8060000361111b5750565b600081815260046020526040902054806111745760405162461bcd60e51b815260206004820152601a60248201527914185c9d1a58da5c185b9d081b9bdd081c9959da5cdd195c995960321b6044820152606401610821565b6000611181600183611ae5565b9050600160028281548110611198576111986119c0565b906000526020600020906007020160010160019054906101000a900460ff1660038111156111c8576111c8611436565b14610ce85760405162461bcd60e51b815260206004820152602360248201527f5061727469636970616e74206e6f7420696e20616e206163746976652073746160448201526274757360e81b6064820152608401610821565b610b17611062565b61123282611299565b6040516001600160a01b038316907fbc7cd75a20ee27fd9adebab32041f755214dbc6bffa90cc0225b39da2e5c2d3b90600090a280511561127757610ce882826112f5565b6106fb61136b565b6000611289610b4a565b54600160401b900460ff16919050565b806001600160a01b03163b6000036112c65780604051634c9c8ce360e01b81526004016108219190611422565b600080516020611be983398151915280546001600160a01b0319166001600160a01b0392909216919091179055565b6060600080846001600160a01b0316846040516113129190611bcc565b600060405180830381855af49150503d806000811461134d576040519150601f19603f3d011682016040523d82523d6000602084013e611352565b606091505b509150915061136285838361138a565b95945050505050565b341561072f5760405163b398979f60e01b815260040160405180910390fd5b60608261139f5761139a826113e0565b6113d9565b81511580156113b657506001600160a01b0384163b155b156113d65783604051639996b31560e01b81526004016108219190611422565b50805b9392505050565b8051156113f05780518082602001fd5b604051630a12f52160e11b815260040160405180910390fd5b60006020828403121561141b57600080fd5b5035919050565b6001600160a01b0391909116815260200190565b634e487b7160e01b600052602160045260246000fd5b6004811061145c5761145c611436565b9052565b60005b8381101561147b578181015183820152602001611463565b50506000910152565b6000815180845261149c816020860160208601611460565b601f01601f19169290920160200192915050565b600060208083018184528085518083526040925060408601915060408160051b87010184880160005b8381101561159057603f19898403018552815161010081518552888201516003811061150757611507611436565b858a01528188015161151b8987018261144c565b50606080830151828288015261153383880182611484565b925050506080808301518683038288015261154e8382611484565b60a0858101519089015260c0808601519089015260e094850151801515868a015294909350915061157c9050565b5095880195935050908601906001016114d9565b509098975050505050505050565b6001600160a01b0381168114610a7b57600080fd5b600080604083850312156115c657600080fd5b82356115d18161159e565b915060208301356115e18161159e565b809150509250929050565b634e487b7160e01b600052604160045260246000fd5b60405161010081016001600160401b0381118282101715611625576116256115ec565b60405290565b604051601f8201601f191681016001600160401b0381118282101715611653576116536115ec565b604052919050565b60006001600160401b03831115611674576116746115ec565b611687601f8401601f191660200161162b565b905082815283838301111561169b57600080fd5b828260208301376000602084830101529392505050565b600080604083850312156116c557600080fd5b82356116d08161159e565b915060208301356001600160401b038111156116eb57600080fd5b8301601f810185136116fc57600080fd5b61170b8582356020840161165b565b9150509250929050565b80356003811061172457600080fd5b919050565b80356004811061172457600080fd5b600082601f83011261174957600080fd5b6113d98383356020850161165b565b8015158114610a7b57600080fd5b803561172481611758565b6000602080838503121561178457600080fd5b82356001600160401b038082111561179b57600080fd5b818501915085601f8301126117af57600080fd5b8135818111156117c1576117c16115ec565b8060051b6117d085820161162b565b91825283810185019185810190898411156117ea57600080fd5b86860192505b838310156118d45782358581111561180757600080fd5b8601610100818c03601f190181131561181f57600080fd5b611827611602565b89830135815261183960408401611715565b8a82015261184960608401611729565b60408201526080830135888111156118615760008081fd5b61186f8e8c83870101611738565b60608301525060a080840135898111156118895760008081fd5b6118978f8d83880101611738565b60808401525060c0808501358284015260e091508185013581840152506118bf838501611766565b908201528452505091860191908601906117f0565b9998505050505050505050565b6020815260006113d96020830184611484565b60006020828403121561190657600080fd5b81356113d98161159e565b6000806040838503121561192457600080fd5b50508035926020909101359150565b60006020828403121561194557600080fd5b81516113d98161159e565b600181811c9082168061196457607f821691505b60208210810361198457634e487b7160e01b600052602260045260246000fd5b50919050565b60006020828403121561199c57600080fd5b81516113d981611758565b6000602082840312156119b957600080fd5b5051919050565b634e487b7160e01b600052603260045260246000fd5b601f821115610ce8576000816000526020600020601f850160051c810160208610156119ff5750805b601f850160051c820191505b81811015611a1e57828155600101611a0b565b505050505050565b81516001600160401b03811115611a3f57611a3f6115ec565b611a5381611a4d8454611950565b846119d6565b602080601f831160018114611a885760008415611a705750858301515b600019600386901b1c1916600185901b178555611a1e565b600085815260208120601f198616915b82811015611ab757888601518255948401946001909101908401611a98565b5085821015611ad55787850151600019600388901b60f8161c191681555b5050505050600190811b01905550565b8181038181111561033d57634e487b7160e01b600052601160045260246000fd5b6000610180898352886020840152806040840152611b2681840189611484565b90508281036060840152611b3a8188611484565b90508281036080840152611b4e8187611484565b905082810360a0840152611b628186611484565b915050825160058110611b7757611b77611436565b60c0830152602083015160e083015260408301516001600160a01b039081166101008401526060840151811661012084015260808401511661014083015260a090920151610160909101529695505050505050565b60008251611bde818460208701611460565b919091019291505056fe360894a13ba1a3210667c828492db98dca3e2076cc3735a920a3ca505d382bbca2646970667358221220025f6296d1a16f8a34557bb23ba3f0f408c96680999dcc617a826864c8e2bb3864736f6c63430008180033",
  "linkReferences": {},
  "deployedLinkReferences": {}
}