{
  "_format": "hh-sol-artifact-1",
  "contractName": "ParticipantStorage",
  "sourceName": "src/commitChain/ParticipantStorage-New/ParticipantStorage.sol",
  "abi": [
    {
      "inputs": [
        {
          "internalType": "address",
          "name": "target",
          "type": "address"
        }
      ],
      "name": "AddressEmptyCode",
      "type": "error"
    },
    {
      "inputs": [
        {
          "internalType": "address",
          "name": "implementation",
          "type": "address"
        }
      ],
      "name": "ERC1967InvalidImplementation",
      "type": "error"
    },
    {
      "inputs": [],
      "name": "ERC1967NonPayable",
      "type": "error"
    },
    {
      "inputs": [],
      "name": "FailedInnerCall",
      "type": "error"
    },
    {
      "inputs": [],
      "name": "InvalidInitialization",
      "type": "error"
    },
    {
      "inputs": [],
      "name": "NotInitializing",
      "type": "error"
    },
    {
      "inputs": [
        {
          "internalType": "address",
          "name": "owner",
          "type": "address"
        }
      ],
      "name": "OwnableInvalidOwner",
      "type": "error"
    },
    {
      "inputs": [
        {
          "internalType": "address",
          "name": "account",
          "type": "address"
        }
      ],
      "name": "OwnableUnauthorizedAccount",
      "type": "error"
    },
    {
      "inputs": [],
      "name": "UUPSUnauthorizedCallContext",
      "type": "error"
    },
    {
      "inputs": [
        {
          "internalType": "bytes32",
          "name": "slot",
          "type": "bytes32"
        }
      ],
      "name": "UUPSUnsupportedProxiableUUID",
      "type": "error"
    },
    {
      "anonymous": false,
      "inputs": [
        {
          "indexed": false,
          "internalType": "uint64",
          "name": "version",
          "type": "uint64"
        }
      ],
      "name": "Initialized",
      "type": "event"
    },
    {
      "anonymous": false,
      "inputs": [
        {
          "indexed": true,
          "internalType": "address",
          "name": "previousOwner",
          "type": "address"
        },
        {
          "indexed": true,
          "internalType": "address",
          "name": "newOwner",
          "type": "address"
        }
      ],
      "name": "OwnershipTransferred",
      "type": "event"
    },
    {
      "anonymous": false,
      "inputs": [
        {
          "indexed": true,
          "internalType": "address",
          "name": "implementation",
          "type": "address"
        }
      ],
      "name": "Upgraded",
      "type": "event"
    },
    {
      "inputs": [],
      "name": "UPGRADE_INTERFACE_VERSION",
      "outputs": [
        {
          "internalType": "string",
          "name": "",
          "type": "string"
        }
      ],
      "stateMutability": "view",
      "type": "function"
    },
    {
      "inputs": [
        {
          "internalType": "uint256",
          "name": "chainId",
          "type": "uint256"
        },
        {
          "internalType": "string",
          "name": "name",
          "type": "string"
        }
      ],
      "name": "addParticipant",
      "outputs": [],
      "stateMutability": "nonpayable",
      "type": "function"
    },
    {
      "inputs": [],
      "name": "broadcastEnygmaData",
      "outputs": [
        {
          "components": [
            {
              "internalType": "uint256",
              "name": "babyJubjubX",
              "type": "uint256"
            },
            {
              "internalType": "uint256",
              "name": "babyJubjubY",
              "type": "uint256"
            },
            {
              "internalType": "address[]",
              "name": "plAddresses",
              "type": "address[]"
            },
            {
              "internalType": "uint256",
              "name": "chainId",
              "type": "uint256"
            }
          ],
          "internalType": "struct StorageBase.PrivateLedgerDataEnygma[]",
          "name": "",
          "type": "tuple[]"
        }
      ],
      "stateMutability": "nonpayable",
      "type": "function"
    },
    {
      "inputs": [],
      "name": "broadcastParticipants",
      "outputs": [
        {
          "components": [
            {
              "internalType": "uint256",
              "name": "chainId",
              "type": "uint256"
            },
            {
              "internalType": "string",
              "name": "name",
              "type": "string"
            },
            {
              "internalType": "uint256",
              "name": "createdAt",
              "type": "uint256"
            },
            {
              "internalType": "uint256",
              "name": "updatedAt",
              "type": "uint256"
            },
            {
              "internalType": "uint256[50]",
              "name": "__gap",
              "type": "uint256[50]"
            }
          ],
          "internalType": "struct StorageBase.Participant[]",
          "name": "",
          "type": "tuple[]"
        }
      ],
      "stateMutability": "nonpayable",
      "type": "function"
    },
    {
      "inputs": [
        {
          "internalType": "address",
          "name": "_participantManager",
          "type": "address"
        }
      ],
      "name": "configureParticipantManager",
      "outputs": [],
      "stateMutability": "nonpayable",
      "type": "function"
    },
    {
      "inputs": [],
      "name": "getBroadcastManager",
      "outputs": [
        {
          "internalType": "address",
          "name": "_broadcastManager",
          "type": "address"
        }
      ],
      "stateMutability": "view",
      "type": "function"
    },
    {
      "inputs": [],
      "name": "getEnygmaAllParticipantsChainIds",
      "outputs": [
        {
          "internalType": "uint256[]",
          "name": "",
          "type": "uint256[]"
        }
      ],
      "stateMutability": "view",
      "type": "function"
    },
    {
      "inputs": [
        {
          "internalType": "uint256",
          "name": "chainId",
          "type": "uint256"
        }
      ],
      "name": "getEnygmaData",
      "outputs": [
        {
          "components": [
            {
              "internalType": "uint256",
              "name": "babyJubjubX",
              "type": "uint256"
            },
            {
              "internalType": "uint256",
              "name": "babyJubjubY",
              "type": "uint256"
            },
            {
              "internalType": "address[]",
              "name": "plAddresses",
              "type": "address[]"
            },
            {
              "internalType": "uint256",
              "name": "chainId",
              "type": "uint256"
            }
          ],
          "internalType": "struct StorageBase.PrivateLedgerDataEnygma",
          "name": "",
          "type": "tuple"
        }
      ],
      "stateMutability": "view",
      "type": "function"
    },
    {
      "inputs": [],
      "name": "getEnygmaManager",
      "outputs": [
        {
          "internalType": "address",
          "name": "_enygmaManager",
          "type": "address"
        }
      ],
      "stateMutability": "view",
      "type": "function"
    },
    {
      "inputs": [
        {
          "internalType": "uint256",
          "name": "chainId",
          "type": "uint256"
        }
      ],
      "name": "getParticipant",
      "outputs": [
        {
          "components": [
            {
              "internalType": "uint256",
              "name": "chainId",
              "type": "uint256"
            },
            {
              "internalType": "string",
              "name": "name",
              "type": "string"
            },
            {
              "internalType": "uint256",
              "name": "createdAt",
              "type": "uint256"
            },
            {
              "internalType": "uint256",
              "name": "updatedAt",
              "type": "uint256"
            },
            {
              "internalType": "uint256[50]",
              "name": "__gap",
              "type": "uint256[50]"
            }
          ],
          "internalType": "struct StorageBase.Participant",
          "name": "",
          "type": "tuple"
        }
      ],
      "stateMutability": "view",
      "type": "function"
    },
    {
      "inputs": [],
      "name": "getParticipantManager",
      "outputs": [
        {
          "internalType": "address",
          "name": "_participantManager",
          "type": "address"
        }
      ],
      "stateMutability": "view",
      "type": "function"
    },
    {
      "inputs": [],
      "name": "getStorageSlot",
      "outputs": [
        {
          "internalType": "bytes32",
          "name": "",
          "type": "bytes32"
        }
      ],
      "stateMutability": "view",
      "type": "function"
    },
    {
      "inputs": [
        {
          "internalType": "address",
          "name": "owner",
          "type": "address"
        },
        {
          "internalType": "address",
          "name": "_participantManager",
          "type": "address"
        },
        {
          "internalType": "address",
          "name": "_enygmaManager",
          "type": "address"
        },
        {
          "internalType": "address",
          "name": "_broadcastManager",
          "type": "address"
        }
      ],
      "name": "initialize",
      "outputs": [],
      "stateMutability": "nonpayable",
      "type": "function"
    },
    {
      "inputs": [],
      "name": "owner",
      "outputs": [
        {
          "internalType": "address",
          "name": "",
          "type": "address"
        }
      ],
      "stateMutability": "view",
      "type": "function"
    },
    {
      "inputs": [],
      "name": "proxiableUUID",
      "outputs": [
        {
          "internalType": "bytes32",
          "name": "",
          "type": "bytes32"
        }
      ],
      "stateMutability": "view",
      "type": "function"
    },
    {
      "inputs": [],
      "name": "renounceOwnership",
      "outputs": [],
      "stateMutability": "nonpayable",
      "type": "function"
    },
    {
      "inputs": [
        {
          "internalType": "uint256",
          "name": "chainId",
          "type": "uint256"
        },
        {
          "internalType": "uint256",
          "name": "babyJubjubX",
          "type": "uint256"
        },
        {
          "internalType": "uint256",
          "name": "babyJubjubY",
          "type": "uint256"
        },
        {
          "internalType": "address[]",
          "name": "plAddresses",
          "type": "address[]"
        }
      ],
      "name": "setEnygmaData",
      "outputs": [],
      "stateMutability": "nonpayable",
      "type": "function"
    },
    {
      "inputs": [
        {
          "internalType": "address",
          "name": "newOwner",
          "type": "address"
        }
      ],
      "name": "transferOwnership",
      "outputs": [],
      "stateMutability": "nonpayable",
      "type": "function"
    },
    {
      "inputs": [
        {
          "internalType": "uint256",
          "name": "chainId",
          "type": "uint256"
        },
        {
          "internalType": "string",
          "name": "name",
          "type": "string"
        }
      ],
      "name": "updateParticipantName",
      "outputs": [],
      "stateMutability": "nonpayable",
      "type": "function"
    },
    {
      "inputs": [
        {
          "internalType": "address",
          "name": "newImplementation",
          "type": "address"
        },
        {
          "internalType": "bytes",
          "name": "data",
          "type": "bytes"
        }
      ],
      "name": "upgradeToAndCall",
      "outputs": [],
      "stateMutability": "payable",
      "type": "function"
    },
    {
      "inputs": [
        {
          "internalType": "uint256",
          "name": "chainId",
          "type": "uint256"
        }
      ],
      "name": "validateEnygmaParticipant",
      "outputs": [],
      "stateMutability": "view",
      "type": "function"
    },
    {
      "inputs": [
        {
          "internalType": "uint256",
          "name": "originChainId",
          "type": "uint256"
        },
        {
          "internalType": "uint256",
          "name": "destinationChainId",
          "type": "uint256"
        }
      ],
      "name": "validateMessageParticipants",
      "outputs": [],
      "stateMutability": "view",
      "type": "function"
    },
    {
      "inputs": [
        {
          "internalType": "uint256",
          "name": "chainId",
          "type": "uint256"
        }
      ],
      "name": "validateParticipant",
      "outputs": [],
      "stateMutability": "view",
      "type": "function"
    }
  ],
  "bytecode": "0x60a06040523060805234801561001457600080fd5b50608051611d2e61003e60003960008181610d1801528181610d410152610e7e0152611d2e6000f3fe6080604052600436106101205760003560e01c80638da5cb5b116100a65780638da5cb5b146102b857806396708226146102da5780639735303c146102ef578063a20291581461030f578063ad3cb1cc1461032d578063b54840041461036b578063c577a7051461038b578063d4c633a7146103ab578063d5c3614f146103c9578063d6b81d5e146103e9578063f2fde38b14610407578063f8c8765e1461042757600080fd5b806306f54473146101255780631b9db2ef14610150578063274515581461017d5780632d3358751461019f5780634a08834d146101c15780634f1ef286146101ee57806352d1902d14610203578063575a2f7814610226578063711be23114610263578063715018a6146102835780637d8470cb14610298575b600080fd5b34801561013157600080fd5b5061013a610447565b60405161014791906112c8565b60405180910390f35b34801561015c57600080fd5b5061017061016b36600461132c565b6104bf565b6040516101479190611345565b34801561018957600080fd5b5061019261053e565b60405161014791906113d1565b3480156101ab57600080fd5b506101b46105b1565b6040516101479190611428565b3480156101cd57600080fd5b506101e16101dc36600461132c565b610623565b604051610147919061146c565b6102016101fc36600461154b565b6106bf565b005b34801561020f57600080fd5b506102186106de565b604051908152602001610147565b34801561023257600080fd5b506102016102413660046115dd565b600080546001600160a01b0319166001600160a01b0392909216919091179055565b34801561026f57600080fd5b5061020161027e3660046115fa565b6106fb565b34801561028f57600080fd5b5061020161076c565b3480156102a457600080fd5b506102016102b3366004611689565b610780565b3480156102c457600080fd5b506102cd6107eb565b6040516101479190611704565b3480156102e657600080fd5b50610218610806565b3480156102fb57600080fd5b5061020161030a366004611689565b61087e565b34801561031b57600080fd5b506000546001600160a01b03166102cd565b34801561033957600080fd5b5061035e604051806040016040528060058152602001640352e302e360dc1b81525081565b6040516101479190611718565b34801561037757600080fd5b5061020161038636600461132c565b6108b2565b34801561039757600080fd5b506102016103a636600461132c565b610912565b3480156103b757600080fd5b506002546001600160a01b03166102cd565b3480156103d557600080fd5b506102016103e436600461172b565b610943565b3480156103f557600080fd5b506001546001600160a01b03166102cd565b34801561041357600080fd5b506102016104223660046115dd565b6109ff565b34801561043357600080fd5b5061020161044236600461174d565b610a46565b600254604080516306f5447360e01b815290516060926001600160a01b0316916306f54473916004808301926000929190829003018183875af1158015610492573d6000803e3d6000fd5b505050506040513d6000823e601f3d908101601f191682016040526104ba91908101906118ed565b905090565b6104c76111b8565b600054604051631b9db2ef60e01b8152600481018490526001600160a01b0390911690631b9db2ef90602401600060405180830381865afa158015610510573d6000803e3d6000fd5b505050506040513d6000823e601f3d908101601f19168201604052610538919081019061199d565b92915050565b600254604080516304e8a2ab60e31b815290516060926001600160a01b0316916327451558916004808301926000929190829003018183875af1158015610589573d6000803e3d6000fd5b505050506040513d6000823e601f3d908101601f191682016040526104ba9190810190611a9c565b60015460408051632d33587560e01b815290516060926001600160a01b031691632d3358759160048083019260009291908290030181865afa1580156105fb573d6000803e3d6000fd5b505050506040513d6000823e601f3d908101601f191682016040526104ba9190810190611b3f565b61064e6040518060800160405280600081526020016000815260200160608152602001600081525090565b600154604051634a08834d60e01b8152600481018490526001600160a01b0390911690634a08834d90602401600060405180830381865afa158015610697573d6000803e3d6000fd5b505050506040513d6000823e601f3d908101601f191682016040526105389190810190611bcf565b6106c7610d0d565b6106d082610db2565b6106da8282610dba565b5050565b60006106e8610e73565b50600080516020611cd983398151915290565b60015460405163711be23160e01b81526001600160a01b039091169063711be231906107339088908890889088908890600401611c03565b600060405180830381600087803b15801561074d57600080fd5b505af1158015610761573d6000803e3d6000fd5b505050505050505050565b610774610ebc565b61077e6000610eee565b565b600054604051637d8470cb60e01b81526001600160a01b0390911690637d8470cb906107b490869086908690600401611c6d565b600060405180830381600087803b1580156107ce57600080fd5b505af11580156107e2573d6000803e3d6000fd5b50505050505050565b6000806107f6610f4a565b546001600160a01b031692915050565b60008060009054906101000a90046001600160a01b03166001600160a01b031663967082266040518163ffffffff1660e01b8152600401602060405180830381865afa15801561085a573d6000803e3d6000fd5b505050506040513d601f19601f820116820180604052508101906104ba9190611ca3565b6000546040516325cd4c0f60e21b81526001600160a01b0390911690639735303c906107b490869086908690600401611c6d565b600054604051632d52100160e21b8152600481018390526001600160a01b039091169063b5484004906024015b60006040518083038186803b1580156108f757600080fd5b505afa15801561090b573d6000803e3d6000fd5b5050505050565b60015460405163c577a70560e01b8152600481018390526001600160a01b039091169063c577a705906024016108df565b600054604051632d52100160e21b8152600481018490526001600160a01b039091169063b54840049060240160006040518083038186803b15801561098757600080fd5b505afa15801561099b573d6000803e3d6000fd5b5050600054604051632d52100160e21b8152600481018590526001600160a01b03909116925063b5484004915060240160006040518083038186803b1580156109e357600080fd5b505afa1580156109f7573d6000803e3d6000fd5b505050505050565b610a07610ebc565b6001600160a01b038116610a3a576000604051631e4fbdf760e01b8152600401610a319190611704565b60405180910390fd5b610a4381610eee565b50565b6000610a50610f6e565b805490915060ff600160401b82041615906001600160401b0316600081158015610a775750825b90506000826001600160401b03166001148015610a935750303b155b905081158015610aa1575080155b15610abf5760405163f92ee8a960e01b815260040160405180910390fd5b845467ffffffffffffffff191660011785558315610ae957845460ff60401b1916600160401b1785555b6001600160a01b038916610b3f5760405162461bcd60e51b815260206004820152601c60248201527f4f776e657220616464726573732063616e6e6f74206265207a65726f000000006044820152606401610a31565b6001600160a01b038816610ba75760405162461bcd60e51b815260206004820152602960248201527f5061727469636970616e744d616e6167657220616464726573732063616e6e6f60448201526874206265207a65726f60b81b6064820152608401610a31565b6001600160a01b038716610c095760405162461bcd60e51b8152602060048201526024808201527f456e79676d614d616e6167657220616464726573732063616e6e6f74206265206044820152637a65726f60e01b6064820152608401610a31565b6001600160a01b038616610c6f5760405162461bcd60e51b815260206004820152602760248201527f42726f6164636173744d616e6167657220616464726573732063616e6e6f74206044820152666265207a65726f60c81b6064820152608401610a31565b610c7889610f92565b610c80610fa3565b600080546001600160a01b03808b166001600160a01b031992831617909255600180548a84169083161790556002805492891692909116919091179055831561076157845460ff60401b19168555604051600181527fc7f505b2f371ae2175ee4913f4499e1f2633a7b5936321eed1cdaeb6115181d29060200160405180910390a1505050505050505050565b306001600160a01b037f0000000000000000000000000000000000000000000000000000000000000000161480610d9457507f00000000000000000000000000000000000000000000000000000000000000006001600160a01b0316610d88600080516020611cd9833981519152546001600160a01b031690565b6001600160a01b031614155b1561077e5760405163703e46dd60e11b815260040160405180910390fd5b610a43610ebc565b816001600160a01b03166352d1902d6040518163ffffffff1660e01b8152600401602060405180830381865afa925050508015610e14575060408051601f3d908101601f19168201909252610e1191810190611ca3565b60015b610e335781604051634c9c8ce360e01b8152600401610a319190611704565b600080516020611cd98339815191528114610e6457604051632a87526960e21b815260048101829052602401610a31565b610e6e8383610fab565b505050565b306001600160a01b037f0000000000000000000000000000000000000000000000000000000000000000161461077e5760405163703e46dd60e11b815260040160405180910390fd5b33610ec56107eb565b6001600160a01b03161461077e573360405163118cdaa760e01b8152600401610a319190611704565b6000610ef8610f4a565b80546001600160a01b038481166001600160a01b031983168117845560405193945091169182907f8be0079c531659141344cd1fd0a4f28419497f9722a3daafe3b4186f6b6457e090600090a3505050565b7f9016d09d72d40fdae2fd8ceac6b6234c7706214fd39c1cd1e609a0528c19930090565b7ff0c57e16840df040f15088dc2f81fe391c3923bec73e23a9662efc9c229c6a0090565b610f9a611001565b610a4381611026565b61077e611001565b610fb48261102e565b6040516001600160a01b038316907fbc7cd75a20ee27fd9adebab32041f755214dbc6bffa90cc0225b39da2e5c2d3b90600090a2805115610ff957610e6e828261108a565b6106da611100565b61100961111f565b61077e57604051631afcd79f60e31b815260040160405180910390fd5b610a07611001565b806001600160a01b03163b60000361105b5780604051634c9c8ce360e01b8152600401610a319190611704565b600080516020611cd983398151915280546001600160a01b0319166001600160a01b0392909216919091179055565b6060600080846001600160a01b0316846040516110a79190611cbc565b600060405180830381855af49150503d80600081146110e2576040519150601f19603f3d011682016040523d82523d6000602084013e6110e7565b606091505b50915091506110f7858383611139565b95945050505050565b341561077e5760405163b398979f60e01b815260040160405180910390fd5b6000611129610f6e565b54600160401b900460ff16919050565b60608261114e576111498261118f565b611188565b815115801561116557506001600160a01b0384163b155b156111855783604051639996b31560e01b8152600401610a319190611704565b50805b9392505050565b80511561119f5780518082602001fd5b604051630a12f52160e11b815260040160405180910390fd5b6040518060a00160405280600081526020016060815260200160008152602001600081526020016111e76111ec565b905290565b6040518061064001604052806032906020820280368337509192915050565b60005b8381101561122657818101518382015260200161120e565b50506000910152565b6000815180845261124781602086016020860161120b565b601f01601f19169290920160200192915050565b60006106c08251845260208084015182602087015261127c8387018261122f565b925050604084015160408601526060840151606086015260808401516080860160005b60328110156112bc5782518252918301919083019060010161129f565b50929695505050505050565b600060208083016020845280855180835260408601915060408160051b87010192506020870160005b8281101561131f57603f1988860301845261130d85835161125b565b945092850192908501906001016112f1565b5092979650505050505050565b60006020828403121561133e57600080fd5b5035919050565b602081526000611188602083018461125b565b60006080830182518452602080840151602086015260408401516080604087015282815180855260a088019150602083019450600092505b808310156113b95784516001600160a01b03168252938301936001929092019190830190611390565b50606086015160608801528094505050505092915050565b600060208083016020845280855180835260408601915060408160051b87010192506020870160005b8281101561131f57603f19888603018452611416858351611358565b945092850192908501906001016113fa565b6020808252825182820181905260009190848201906040850190845b8181101561146057835183529284019291840191600101611444565b50909695505050505050565b6020815260006111886020830184611358565b6001600160a01b0381168114610a4357600080fd5b634e487b7160e01b600052604160045260246000fd5b60405160a081016001600160401b03811182821017156114cc576114cc611494565b60405290565b604051608081016001600160401b03811182821017156114cc576114cc611494565b604051601f8201601f191681016001600160401b038111828210171561151c5761151c611494565b604052919050565b60006001600160401b0382111561153d5761153d611494565b50601f01601f191660200190565b6000806040838503121561155e57600080fd5b82356115698161147f565b915060208301356001600160401b0381111561158457600080fd5b8301601f8101851361159557600080fd5b80356115a86115a382611524565b6114f4565b8181528660208385010111156115bd57600080fd5b816020840160208301376000602083830101528093505050509250929050565b6000602082840312156115ef57600080fd5b81356111888161147f565b60008060008060006080868803121561161257600080fd5b85359450602086013593506040860135925060608601356001600160401b038082111561163e57600080fd5b818801915088601f83011261165257600080fd5b81358181111561166157600080fd5b8960208260051b850101111561167657600080fd5b9699959850939650602001949392505050565b60008060006040848603121561169e57600080fd5b8335925060208401356001600160401b03808211156116bc57600080fd5b818601915086601f8301126116d057600080fd5b8135818111156116df57600080fd5b8760208285010111156116f157600080fd5b6020830194508093505050509250925092565b6001600160a01b0391909116815260200190565b602081526000611188602083018461122f565b6000806040838503121561173e57600080fd5b50508035926020909101359150565b6000806000806080858703121561176357600080fd5b843561176e8161147f565b9350602085013561177e8161147f565b9250604085013561178e8161147f565b9150606085013561179e8161147f565b939692955090935050565b60006001600160401b038211156117c2576117c2611494565b5060051b60200190565b600082601f8301126117dd57600080fd5b6040516106408082018281106001600160401b038211171561180157611801611494565b6040528301818582111561181457600080fd5b845b8281101561182e578051825260209182019101611816565b509195945050505050565b60006106c0828403121561184c57600080fd5b6118546114aa565b90508151815260208201516001600160401b0381111561187357600080fd5b8201601f8101841361188457600080fd5b80516118926115a382611524565b8181528560208385010111156118a757600080fd5b6118b882602083016020860161120b565b80602085015250505060408201516040820152606082015160608201526118e283608084016117cc565b608082015292915050565b6000602080838503121561190057600080fd5b82516001600160401b038082111561191757600080fd5b818501915085601f83011261192b57600080fd5b81516119396115a3826117a9565b81815260059190911b8301840190848101908883111561195857600080fd5b8585015b83811015611990578051858111156119745760008081fd5b6119828b89838a0101611839565b84525091860191860161195c565b5098975050505050505050565b6000602082840312156119af57600080fd5b81516001600160401b038111156119c557600080fd5b6119d184828501611839565b949350505050565b6000608082840312156119eb57600080fd5b6119f36114d2565b9050815181526020808301518183015260408301516001600160401b03811115611a1c57600080fd5b8301601f81018513611a2d57600080fd5b8051611a3b6115a3826117a9565b81815260059190911b82018301908381019087831115611a5a57600080fd5b928401925b82841015611a81578351611a728161147f565b82529284019290840190611a5f565b80604087015250505050506060820151606082015292915050565b60006020808385031215611aaf57600080fd5b82516001600160401b0380821115611ac657600080fd5b818501915085601f830112611ada57600080fd5b8151611ae86115a3826117a9565b81815260059190911b83018401908481019088831115611b0757600080fd5b8585015b8381101561199057805185811115611b235760008081fd5b611b318b89838a01016119d9565b845250918601918601611b0b565b60006020808385031215611b5257600080fd5b82516001600160401b03811115611b6857600080fd5b8301601f81018513611b7957600080fd5b8051611b876115a3826117a9565b81815260059190911b82018301908381019087831115611ba657600080fd5b928401925b82841015611bc457835182529284019290840190611bab565b979650505050505050565b600060208284031215611be157600080fd5b81516001600160401b03811115611bf757600080fd5b6119d1848285016119d9565b6000608082018783526020876020850152866040850152608060608501528185835260a08501905086925060005b86811015611c5f578335611c448161147f565b6001600160a01b031682529282019290820190600101611c31565b509998505050505050505050565b83815260406020820152816040820152818360608301376000818301606090810191909152601f909201601f1916010192915050565b600060208284031215611cb557600080fd5b5051919050565b60008251611cce81846020870161120b565b919091019291505056fe360894a13ba1a3210667c828492db98dca3e2076cc3735a920a3ca505d382bbca264697066735822122062da8ef0e48426953b4ef3577957d9ab2beb271154797333f7177dee3e9fc03a64736f6c63430008180033",
  "linkReferences": {},
  "deployedLinkReferences": {}
}