{
  "_format": "hh-sol-artifact-1",
  "contractName": "CustomTokenExample",
  "sourceName": "src/rayls-protocol/test-contracts/CustomTokenExample.sol",
  "abi": [
    {
      "inputs": [
        {
          "internalType": "string",
          "name": "name",
          "type": "string"
        },
        {
          "internalType": "string",
          "name": "symbol",
          "type": "string"
        },
        {
          "internalType": "uint256",
          "name": "_fundManagerChainId",
          "type": "uint256"
        },
        {
          "internalType": "address",
          "name": "_fundManagerAddr",
          "type": "address"
        },
        {
          "internalType": "address",
          "name": "_endpointAddr",
          "type": "address"
        }
      ],
      "stateMutability": "nonpayable",
      "type": "constructor"
    },
    {
      "inputs": [],
      "name": "AccessControlBadConfirmation",
      "type": "error"
    },
    {
      "inputs": [
        {
          "internalType": "address",
          "name": "account",
          "type": "address"
        },
        {
          "internalType": "bytes32",
          "name": "neededRole",
          "type": "bytes32"
        }
      ],
      "name": "AccessControlUnauthorizedAccount",
      "type": "error"
    },
    {
      "inputs": [
        {
          "internalType": "address",
          "name": "spender",
          "type": "address"
        },
        {
          "internalType": "uint256",
          "name": "allowance",
          "type": "uint256"
        },
        {
          "internalType": "uint256",
          "name": "needed",
          "type": "uint256"
        }
      ],
      "name": "ERC20InsufficientAllowance",
      "type": "error"
    },
    {
      "inputs": [
        {
          "internalType": "address",
          "name": "sender",
          "type": "address"
        },
        {
          "internalType": "uint256",
          "name": "balance",
          "type": "uint256"
        },
        {
          "internalType": "uint256",
          "name": "needed",
          "type": "uint256"
        }
      ],
      "name": "ERC20InsufficientBalance",
      "type": "error"
    },
    {
      "inputs": [
        {
          "internalType": "address",
          "name": "approver",
          "type": "address"
        }
      ],
      "name": "ERC20InvalidApprover",
      "type": "error"
    },
    {
      "inputs": [
        {
          "internalType": "address",
          "name": "receiver",
          "type": "address"
        }
      ],
      "name": "ERC20InvalidReceiver",
      "type": "error"
    },
    {
      "inputs": [
        {
          "internalType": "address",
          "name": "sender",
          "type": "address"
        }
      ],
      "name": "ERC20InvalidSender",
      "type": "error"
    },
    {
      "inputs": [
        {
          "internalType": "address",
          "name": "spender",
          "type": "address"
        }
      ],
      "name": "ERC20InvalidSpender",
      "type": "error"
    },
    {
      "inputs": [],
      "name": "InvalidInitialization",
      "type": "error"
    },
    {
      "inputs": [],
      "name": "NotInitializing",
      "type": "error"
    },
    {
      "inputs": [
        {
          "internalType": "address",
          "name": "owner",
          "type": "address"
        }
      ],
      "name": "OwnableInvalidOwner",
      "type": "error"
    },
    {
      "inputs": [
        {
          "internalType": "address",
          "name": "account",
          "type": "address"
        }
      ],
      "name": "OwnableUnauthorizedAccount",
      "type": "error"
    },
    {
      "anonymous": false,
      "inputs": [
        {
          "indexed": true,
          "internalType": "address",
          "name": "owner",
          "type": "address"
        },
        {
          "indexed": true,
          "internalType": "address",
          "name": "spender",
          "type": "address"
        },
        {
          "indexed": false,
          "internalType": "uint256",
          "name": "value",
          "type": "uint256"
        }
      ],
      "name": "Approval",
      "type": "event"
    },
    {
      "anonymous": false,
      "inputs": [
        {
          "indexed": false,
          "internalType": "uint64",
          "name": "version",
          "type": "uint64"
        }
      ],
      "name": "Initialized",
      "type": "event"
    },
    {
      "anonymous": false,
      "inputs": [
        {
          "indexed": true,
          "internalType": "address",
          "name": "previousOwner",
          "type": "address"
        },
        {
          "indexed": true,
          "internalType": "address",
          "name": "newOwner",
          "type": "address"
        }
      ],
      "name": "OwnershipTransferred",
      "type": "event"
    },
    {
      "anonymous": false,
      "inputs": [
        {
          "indexed": true,
          "internalType": "bytes32",
          "name": "role",
          "type": "bytes32"
        },
        {
          "indexed": true,
          "internalType": "bytes32",
          "name": "previousAdminRole",
          "type": "bytes32"
        },
        {
          "indexed": true,
          "internalType": "bytes32",
          "name": "newAdminRole",
          "type": "bytes32"
        }
      ],
      "name": "RoleAdminChanged",
      "type": "event"
    },
    {
      "anonymous": false,
      "inputs": [
        {
          "indexed": true,
          "internalType": "bytes32",
          "name": "role",
          "type": "bytes32"
        },
        {
          "indexed": true,
          "internalType": "address",
          "name": "account",
          "type": "address"
        },
        {
          "indexed": true,
          "internalType": "address",
          "name": "sender",
          "type": "address"
        }
      ],
      "name": "RoleGranted",
      "type": "event"
    },
    {
      "anonymous": false,
      "inputs": [
        {
          "indexed": true,
          "internalType": "bytes32",
          "name": "role",
          "type": "bytes32"
        },
        {
          "indexed": true,
          "internalType": "address",
          "name": "account",
          "type": "address"
        },
        {
          "indexed": true,
          "internalType": "address",
          "name": "sender",
          "type": "address"
        }
      ],
      "name": "RoleRevoked",
      "type": "event"
    },
    {
      "anonymous": false,
      "inputs": [
        {
          "indexed": true,
          "internalType": "address",
          "name": "from",
          "type": "address"
        },
        {
          "indexed": true,
          "internalType": "address",
          "name": "to",
          "type": "address"
        },
        {
          "indexed": false,
          "internalType": "uint256",
          "name": "value",
          "type": "uint256"
        }
      ],
      "name": "Transfer",
      "type": "event"
    },
    {
      "inputs": [],
      "name": "BURNER_ROLE",
      "outputs": [
        {
          "internalType": "bytes32",
          "name": "",
          "type": "bytes32"
        }
      ],
      "stateMutability": "view",
      "type": "function"
    },
    {
      "inputs": [],
      "name": "DEFAULT_ADMIN_ROLE",
      "outputs": [
        {
          "internalType": "bytes32",
          "name": "",
          "type": "bytes32"
        }
      ],
      "stateMutability": "view",
      "type": "function"
    },
    {
      "inputs": [],
      "name": "MINTER_ROLE",
      "outputs": [
        {
          "internalType": "bytes32",
          "name": "",
          "type": "bytes32"
        }
      ],
      "stateMutability": "view",
      "type": "function"
    },
    {
      "inputs": [],
      "name": "_getEndpointAddress",
      "outputs": [
        {
          "internalType": "address",
          "name": "",
          "type": "address"
        }
      ],
      "stateMutability": "view",
      "type": "function"
    },
    {
      "inputs": [
        {
          "internalType": "address",
          "name": "_endpoint",
          "type": "address"
        }
      ],
      "name": "_updateEndpoint",
      "outputs": [],
      "stateMutability": "nonpayable",
      "type": "function"
    },
    {
      "inputs": [
        {
          "internalType": "address",
          "name": "owner",
          "type": "address"
        },
        {
          "internalType": "address",
          "name": "spender",
          "type": "address"
        }
      ],
      "name": "allowance",
      "outputs": [
        {
          "internalType": "uint256",
          "name": "",
          "type": "uint256"
        }
      ],
      "stateMutability": "view",
      "type": "function"
    },
    {
      "inputs": [
        {
          "internalType": "address",
          "name": "spender",
          "type": "address"
        },
        {
          "internalType": "uint256",
          "name": "value",
          "type": "uint256"
        }
      ],
      "name": "approve",
      "outputs": [
        {
          "internalType": "bool",
          "name": "",
          "type": "bool"
        }
      ],
      "stateMutability": "nonpayable",
      "type": "function"
    },
    {
      "inputs": [],
      "name": "attestationUid",
      "outputs": [
        {
          "internalType": "bytes32",
          "name": "",
          "type": "bytes32"
        }
      ],
      "stateMutability": "view",
      "type": "function"
    },
    {
      "inputs": [
        {
          "internalType": "address",
          "name": "account",
          "type": "address"
        }
      ],
      "name": "balanceOf",
      "outputs": [
        {
          "internalType": "uint256",
          "name": "",
          "type": "uint256"
        }
      ],
      "stateMutability": "view",
      "type": "function"
    },
    {
      "inputs": [
        {
          "internalType": "uint256",
          "name": "amount",
          "type": "uint256"
        }
      ],
      "name": "burn",
      "outputs": [],
      "stateMutability": "nonpayable",
      "type": "function"
    },
    {
      "inputs": [
        {
          "internalType": "address",
          "name": "from",
          "type": "address"
        },
        {
          "internalType": "uint256",
          "name": "value",
          "type": "uint256"
        }
      ],
      "name": "burn",
      "outputs": [],
      "stateMutability": "nonpayable",
      "type": "function"
    },
    {
      "inputs": [
        {
          "internalType": "address",
          "name": "account",
          "type": "address"
        },
        {
          "internalType": "uint256",
          "name": "amount",
          "type": "uint256"
        }
      ],
      "name": "burnFrom",
      "outputs": [],
      "stateMutability": "nonpayable",
      "type": "function"
    },
    {
      "inputs": [],
      "name": "decimals",
      "outputs": [
        {
          "internalType": "uint8",
          "name": "",
          "type": "uint8"
        }
      ],
      "stateMutability": "pure",
      "type": "function"
    },
    {
      "inputs": [],
      "name": "fundManagerAddr",
      "outputs": [
        {
          "internalType": "address",
          "name": "",
          "type": "address"
        }
      ],
      "stateMutability": "view",
      "type": "function"
    },
    {
      "inputs": [],
      "name": "fundManagerFeeChainId",
      "outputs": [
        {
          "internalType": "uint256",
          "name": "",
          "type": "uint256"
        }
      ],
      "stateMutability": "view",
      "type": "function"
    },
    {
      "inputs": [
        {
          "internalType": "bytes32",
          "name": "_resourceId",
          "type": "bytes32"
        }
      ],
      "name": "getAddressByResourceId",
      "outputs": [
        {
          "internalType": "address",
          "name": "",
          "type": "address"
        }
      ],
      "stateMutability": "view",
      "type": "function"
    },
    {
      "inputs": [
        {
          "internalType": "address",
          "name": "account",
          "type": "address"
        }
      ],
      "name": "getLockedAmount",
      "outputs": [
        {
          "internalType": "uint256",
          "name": "",
          "type": "uint256"
        }
      ],
      "stateMutability": "view",
      "type": "function"
    },
    {
      "inputs": [
        {
          "internalType": "bytes32",
          "name": "role",
          "type": "bytes32"
        }
      ],
      "name": "getRoleAdmin",
      "outputs": [
        {
          "internalType": "bytes32",
          "name": "",
          "type": "bytes32"
        }
      ],
      "stateMutability": "view",
      "type": "function"
    },
    {
      "inputs": [],
      "name": "getVersion",
      "outputs": [
        {
          "internalType": "uint256",
          "name": "",
          "type": "uint256"
        }
      ],
      "stateMutability": "view",
      "type": "function"
    },
    {
      "inputs": [
        {
          "internalType": "bytes32",
          "name": "role",
          "type": "bytes32"
        },
        {
          "internalType": "address",
          "name": "account",
          "type": "address"
        }
      ],
      "name": "grantRole",
      "outputs": [],
      "stateMutability": "nonpayable",
      "type": "function"
    },
    {
      "inputs": [
        {
          "internalType": "bytes32",
          "name": "role",
          "type": "bytes32"
        },
        {
          "internalType": "address",
          "name": "account",
          "type": "address"
        }
      ],
      "name": "hasRole",
      "outputs": [
        {
          "internalType": "bool",
          "name": "",
          "type": "bool"
        }
      ],
      "stateMutability": "view",
      "type": "function"
    },
    {
      "inputs": [
        {
          "internalType": "string",
          "name": "_name",
          "type": "string"
        },
        {
          "internalType": "string",
          "name": "_symbol",
          "type": "string"
        },
        {
          "internalType": "uint8",
          "name": "_decimals",
          "type": "uint8"
        }
      ],
      "name": "initialize",
      "outputs": [],
      "stateMutability": "nonpayable",
      "type": "function"
    },
    {
      "inputs": [
        {
          "internalType": "string",
          "name": "_name",
          "type": "string"
        },
        {
          "internalType": "string",
          "name": "_symbol",
          "type": "string"
        },
        {
          "internalType": "uint256",
          "name": "_fundManagerChainId",
          "type": "uint256"
        },
        {
          "internalType": "address",
          "name": "_fundManagerAddr",
          "type": "address"
        },
        {
          "internalType": "bytes32",
          "name": "_attestationUuid",
          "type": "bytes32"
        }
      ],
      "name": "initialize",
      "outputs": [],
      "stateMutability": "nonpayable",
      "type": "function"
    },
    {
      "inputs": [
        {
          "internalType": "address",
          "name": "to",
          "type": "address"
        },
        {
          "internalType": "uint256",
          "name": "amount",
          "type": "uint256"
        }
      ],
      "name": "mint",
      "outputs": [],
      "stateMutability": "nonpayable",
      "type": "function"
    },
    {
      "inputs": [],
      "name": "name",
      "outputs": [
        {
          "internalType": "string",
          "name": "",
          "type": "string"
        }
      ],
      "stateMutability": "view",
      "type": "function"
    },
    {
      "inputs": [],
      "name": "owner",
      "outputs": [
        {
          "internalType": "address",
          "name": "",
          "type": "address"
        }
      ],
      "stateMutability": "view",
      "type": "function"
    },
    {
      "inputs": [
        {
          "internalType": "bytes32",
          "name": "_resourceId",
          "type": "bytes32"
        }
      ],
      "name": "receiveResourceId",
      "outputs": [],
      "stateMutability": "nonpayable",
      "type": "function"
    },
    {
      "inputs": [
        {
          "internalType": "address",
          "name": "to",
          "type": "address"
        },
        {
          "internalType": "uint256",
          "name": "value",
          "type": "uint256"
        }
      ],
      "name": "receiveTeleport",
      "outputs": [],
      "stateMutability": "nonpayable",
      "type": "function"
    },
    {
      "inputs": [
        {
          "internalType": "address",
          "name": "to",
          "type": "address"
        },
        {
          "internalType": "uint256",
          "name": "value",
          "type": "uint256"
        }
      ],
      "name": "receiveTeleportAtomic",
      "outputs": [],
      "stateMutability": "nonpayable",
      "type": "function"
    },
    {
      "inputs": [
        {
          "internalType": "bytes32",
          "name": "resourceId",
          "type": "bytes32"
        },
        {
          "internalType": "uint256",
          "name": "value",
          "type": "uint256"
        }
      ],
      "name": "receiveTeleportAtomicToResourceId",
      "outputs": [],
      "stateMutability": "nonpayable",
      "type": "function"
    },
    {
      "inputs": [],
      "name": "renounceOwnership",
      "outputs": [],
      "stateMutability": "nonpayable",
      "type": "function"
    },
    {
      "inputs": [
        {
          "internalType": "bytes32",
          "name": "role",
          "type": "bytes32"
        },
        {
          "internalType": "address",
          "name": "callerConfirmation",
          "type": "address"
        }
      ],
      "name": "renounceRole",
      "outputs": [],
      "stateMutability": "nonpayable",
      "type": "function"
    },
    {
      "inputs": [],
      "name": "resourceId",
      "outputs": [
        {
          "internalType": "bytes32",
          "name": "",
          "type": "bytes32"
        }
      ],
      "stateMutability": "view",
      "type": "function"
    },
    {
      "inputs": [
        {
          "internalType": "uint256",
          "name": "value",
          "type": "uint256"
        }
      ],
      "name": "revertTeleportBurn",
      "outputs": [],
      "stateMutability": "nonpayable",
      "type": "function"
    },
    {
      "inputs": [
        {
          "internalType": "bytes32",
          "name": "resourceId",
          "type": "bytes32"
        },
        {
          "internalType": "uint256",
          "name": "value",
          "type": "uint256"
        }
      ],
      "name": "revertTeleportBurnToResourceId",
      "outputs": [],
      "stateMutability": "nonpayable",
      "type": "function"
    },
    {
      "inputs": [
        {
          "internalType": "address",
          "name": "to",
          "type": "address"
        },
        {
          "internalType": "uint256",
          "name": "value",
          "type": "uint256"
        }
      ],
      "name": "revertTeleportMint",
      "outputs": [],
      "stateMutability": "nonpayable",
      "type": "function"
    },
    {
      "inputs": [
        {
          "internalType": "bytes32",
          "name": "role",
          "type": "bytes32"
        },
        {
          "internalType": "address",
          "name": "account",
          "type": "address"
        }
      ],
      "name": "revokeRole",
      "outputs": [],
      "stateMutability": "nonpayable",
      "type": "function"
    },
    {
      "inputs": [
        {
          "internalType": "bytes32",
          "name": "_uuid",
          "type": "bytes32"
        }
      ],
      "name": "setAttestationUuid",
      "outputs": [],
      "stateMutability": "nonpayable",
      "type": "function"
    },
    {
      "inputs": [
        {
          "internalType": "uint8",
          "name": "_storageSlot",
          "type": "uint8"
        }
      ],
      "name": "submitTokenRegistration",
      "outputs": [],
      "stateMutability": "nonpayable",
      "type": "function"
    },
    {
      "inputs": [
        {
          "internalType": "enum SharedObjects.BalanceUpdateType",
          "name": "updateType",
          "type": "uint8"
        },
        {
          "internalType": "uint256",
          "name": "amount",
          "type": "uint256"
        }
      ],
      "name": "submitTokenUpdate",
      "outputs": [],
      "stateMutability": "nonpayable",
      "type": "function"
    },
    {
      "inputs": [
        {
          "internalType": "bytes4",
          "name": "interfaceId",
          "type": "bytes4"
        }
      ],
      "name": "supportsInterface",
      "outputs": [
        {
          "internalType": "bool",
          "name": "",
          "type": "bool"
        }
      ],
      "stateMutability": "view",
      "type": "function"
    },
    {
      "inputs": [],
      "name": "symbol",
      "outputs": [
        {
          "internalType": "string",
          "name": "",
          "type": "string"
        }
      ],
      "stateMutability": "view",
      "type": "function"
    },
    {
      "inputs": [
        {
          "internalType": "address",
          "name": "to",
          "type": "address"
        },
        {
          "internalType": "uint256",
          "name": "value",
          "type": "uint256"
        },
        {
          "internalType": "uint256",
          "name": "chainId",
          "type": "uint256"
        }
      ],
      "name": "teleport",
      "outputs": [
        {
          "internalType": "bool",
          "name": "",
          "type": "bool"
        }
      ],
      "stateMutability": "nonpayable",
      "type": "function"
    },
    {
      "inputs": [
        {
          "internalType": "address",
          "name": "to",
          "type": "address"
        },
        {
          "internalType": "uint256",
          "name": "value",
          "type": "uint256"
        },
        {
          "internalType": "uint256",
          "name": "destinationChainId",
          "type": "uint256"
        }
      ],
      "name": "teleportAtomic",
      "outputs": [
        {
          "internalType": "bool",
          "name": "",
          "type": "bool"
        }
      ],
      "stateMutability": "nonpayable",
      "type": "function"
    },
    {
      "inputs": [
        {
          "internalType": "address",
          "name": "from",
          "type": "address"
        },
        {
          "internalType": "address",
          "name": "to",
          "type": "address"
        },
        {
          "internalType": "uint256",
          "name": "value",
          "type": "uint256"
        },
        {
          "internalType": "uint256",
          "name": "destinationChainId",
          "type": "uint256"
        }
      ],
      "name": "teleportAtomicFrom",
      "outputs": [
        {
          "internalType": "bool",
          "name": "",
          "type": "bool"
        }
      ],
      "stateMutability": "nonpayable",
      "type": "function"
    },
    {
      "inputs": [
        {
          "internalType": "address",
          "name": "from",
          "type": "address"
        },
        {
          "internalType": "address",
          "name": "to",
          "type": "address"
        },
        {
          "internalType": "uint256",
          "name": "value",
          "type": "uint256"
        },
        {
          "internalType": "uint256",
          "name": "chainId",
          "type": "uint256"
        }
      ],
      "name": "teleportFrom",
      "outputs": [
        {
          "internalType": "bool",
          "name": "",
          "type": "bool"
        }
      ],
      "stateMutability": "nonpayable",
      "type": "function"
    },
    {
      "inputs": [],
      "name": "totalSupply",
      "outputs": [
        {
          "internalType": "uint256",
          "name": "",
          "type": "uint256"
        }
      ],
      "stateMutability": "view",
      "type": "function"
    },
    {
      "inputs": [
        {
          "internalType": "address",
          "name": "to",
          "type": "address"
        },
        {
          "internalType": "uint256",
          "name": "value",
          "type": "uint256"
        }
      ],
      "name": "transfer",
      "outputs": [
        {
          "internalType": "bool",
          "name": "",
          "type": "bool"
        }
      ],
      "stateMutability": "nonpayable",
      "type": "function"
    },
    {
      "inputs": [
        {
          "internalType": "address",
          "name": "from",
          "type": "address"
        },
        {
          "internalType": "address",
          "name": "to",
          "type": "address"
        },
        {
          "internalType": "uint256",
          "name": "value",
          "type": "uint256"
        }
      ],
      "name": "transferFrom",
      "outputs": [
        {
          "internalType": "bool",
          "name": "",
          "type": "bool"
        }
      ],
      "stateMutability": "nonpayable",
      "type": "function"
    },
    {
      "inputs": [
        {
          "internalType": "address",
          "name": "newOwner",
          "type": "address"
        }
      ],
      "name": "transferOwnership",
      "outputs": [],
      "stateMutability": "nonpayable",
      "type": "function"
    },
    {
      "inputs": [
        {
          "internalType": "address",
          "name": "to",
          "type": "address"
        },
        {
          "internalType": "uint256",
          "name": "amount",
          "type": "uint256"
        }
      ],
      "name": "unlock",
      "outputs": [
        {
          "internalType": "bool",
          "name": "",
          "type": "bool"
        }
      ],
      "stateMutability": "nonpayable",
      "type": "function"
    },
    {
      "inputs": [
        {
          "internalType": "bytes32",
          "name": "resourceId",
          "type": "bytes32"
        },
        {
          "internalType": "uint256",
          "name": "amount",
          "type": "uint256"
        }
      ],
      "name": "unlockToResourceId",
      "outputs": [
        {
          "internalType": "bool",
          "name": "",
          "type": "bool"
        }
      ],
      "stateMutability": "nonpayable",
      "type": "function"
    }
  ],
  "bytecode": "0x60806040523480156200001157600080fd5b506040516200366f3803806200366f833981016040819052620000349162000441565b600080546001600160a01b0319166001600160a01b03831617905584848233600181858560066200006683826200056b565b5060076200007582826200056b565b5050506001600160a01b038116620000a757604051631e4fbdf760e01b81526000600482015260240160405180910390fd5b620000b281620001a3565b506009620000c186826200056b565b50600a620000d085826200056b565b50600b805460ff1916821515179055620000e9620001f5565b5050600d80546001600160a01b038087166001600160a01b031992831617909255600f8890556010805492881692909116919091179055506200013291506000905033620002a9565b506200014e6000805160206200364f83398151915233620002a9565b506200016a6000805160206200364f83398151915283620002a9565b50620001977f3c11d16cbaffd01df69ce1c404f6340ee057498f5f00246190ea54220576a84833620002a9565b50505050505062000637565b600880546001600160a01b038381166001600160a01b0319831681179093556040519116919082907f8be0079c531659141344cd1fd0a4f28419497f9722a3daafe3b4186f6b6457e090600090a35050565b7ff0c57e16840df040f15088dc2f81fe391c3923bec73e23a9662efc9c229c6a00805468010000000000000000900460ff1615620002465760405163f92ee8a960e01b815260040160405180910390fd5b80546001600160401b0390811614620002a65780546001600160401b0319166001600160401b0390811782556040519081527fc7f505b2f371ae2175ee4913f4499e1f2633a7b5936321eed1cdaeb6115181d29060200160405180910390a15b50565b60008281526002602090815260408083206001600160a01b038516845290915281205460ff16620003525760008381526002602090815260408083206001600160a01b03861684529091529020805460ff19166001179055620003093390565b6001600160a01b0316826001600160a01b0316847f2f8788117e7eff1d82e926ec794901d17c78024a50270940304540a733656f0d60405160405180910390a450600162000356565b5060005b92915050565b634e487b7160e01b600052604160045260246000fd5b600082601f8301126200038457600080fd5b81516001600160401b0380821115620003a157620003a16200035c565b604051601f8301601f19908116603f01168101908282118183101715620003cc57620003cc6200035c565b8160405283815260209250866020858801011115620003ea57600080fd5b600091505b838210156200040e5785820183015181830184015290820190620003ef565b6000602085830101528094505050505092915050565b80516001600160a01b03811681146200043c57600080fd5b919050565b600080600080600060a086880312156200045a57600080fd5b85516001600160401b03808211156200047257600080fd5b6200048089838a0162000372565b965060208801519150808211156200049757600080fd5b50620004a68882890162000372565b94505060408601519250620004be6060870162000424565b9150620004ce6080870162000424565b90509295509295909350565b600181811c90821680620004ef57607f821691505b6020821081036200051057634e487b7160e01b600052602260045260246000fd5b50919050565b601f82111562000566576000816000526020600020601f850160051c81016020861015620005415750805b601f850160051c820191505b8181101562000562578281556001016200054d565b5050505b505050565b81516001600160401b038111156200058757620005876200035c565b6200059f81620005988454620004da565b8462000516565b602080601f831160018114620005d75760008415620005be5750858301515b600019600386901b1c1916600185901b17855562000562565b600085815260208120601f198616915b828110156200060857888601518255948401946001909101908401620005e7565b5085821015620006275787850151600019600388901b60f8161c191681555b5050505050600190811b01905550565b61300880620006476000396000f3fe608060405234801561001057600080fd5b506004361061028c5760003560e01c8063715018a61161015d578063a9059cbb116100c9578063a9059cbb146105bd578063ab2a6908146105d0578063b247d946146105e3578063be1ad65c146105f4578063c0251d5514610607578063c2c1678f1461061a578063c6a690a41461057c578063d53913931461062d578063d547741f14610642578063dd62ed3e14610655578063e3ee8a4314610668578063f2fde38b1461067b578063fe726bb61461068e57600080fd5b8063715018a6146104dc57806379cc6790146104e45780637eee288d146104f75780638da5cb5b1461050a57806391d1485414610512578063921e316814610525578063929ec53714610538578063953e3ef01461056157806395d89b411461057457806396bebd041461057c5780639dc29fac1461058f578063a0198064146105a2578063a217fddf146105b557600080fd5b80632c080daf116101fc5780632c080daf146103c05780632e30417b146103d35780632f2ff15d146103e6578063313ce567146103f957806336568abe1461040857806340c10f191461041b57806342966c681461042e57806351c6a5f014610441578063556da1b9146104545780635f997c5b14610467578063620eea02146104705780636f1813181461048357806370a08231146104b357600080fd5b806301ffc9a71461029157806306fdde03146102b9578063095ea7b3146102ce5780630d8e6e2c146102e15780630e5ee780146102f757806311f50c851461030c5780631624f6c61461032c57806318160ddd1461033f5780631c839aea146103475780631fd99a801461035057806323b872dd14610363578063248a9ca314610376578063282c51f314610399575b600080fd5b6102a461029f36600461257f565b610697565b60405190151581526020015b60405180910390f35b6102c16106ce565b6040516102b091906125f6565b6102a46102dc36600461261e565b610760565b6102e9610778565b6040519081526020016102b0565b61030a61030536600461264a565b6107eb565b005b61031f61031a36600461266c565b610801565b6040516102b09190612685565b61030a61033a366004612751565b61086f565b6005546102e9565b6102e9600e5481565b6102a461035e3660046127c4565b6109dd565b6102a46103713660046127e6565b610ac2565b6102e961038436600461266c565b60009081526002602052604090206001015490565b6102e97f3c11d16cbaffd01df69ce1c404f6340ee057498f5f00246190ea54220576a84881565b6102a46103ce366004612827565b610ae6565b61030a6103e136600461266c565b610bad565b61030a6103f436600461286d565b610c4e565b604051600681526020016102b0565b61030a61041636600461286d565b610c79565b61030a61042936600461261e565b610cb1565b61030a61043c36600461266c565b610d33565b61030a61044f3660046127c4565b610d3c565b61030a61046236600461289d565b610e43565b6102e960015481565b61030a61047e3660046128b8565b611087565b61030a61049136600461293f565b600080546001600160a01b0319166001600160a01b0392909216919091179055565b6102e96104c136600461293f565b6001600160a01b031660009081526003602052604090205490565b61030a611248565b61030a6104f236600461261e565b61125c565b6102a461050536600461261e565b611271565b61031f6112e3565b6102a461052036600461286d565b6112f2565b6102a461053336600461295c565b61131d565b6102e961054636600461293f565b6001600160a01b03166000908152600c602052604090205490565b6102a461056f366004612827565b611452565b6102c1611569565b61030a61058a36600461261e565b611578565b61030a61059d36600461261e565b61160f565b61030a6105b036600461266c565b61162c565b6102e9600081565b6102a46105cb36600461261e565b61163d565b61030a6105de3660046127c4565b61164b565b6000546001600160a01b031661031f565b6102a461060236600461295c565b611783565b61030a61061536600461261e565b6117dc565b60105461031f906001600160a01b031681565b6102e9600080516020612fb383398151915281565b61030a61065036600461286d565b6118a4565b6102e9610663366004612991565b6118c9565b61030a61067636600461266c565b6118f4565b61030a61068936600461293f565b611a72565b6102e9600f5481565b60006001600160e01b03198216637965db0b60e01b14806106c857506301ffc9a760e01b6001600160e01b03198316145b92915050565b6060600980546106dd906129bf565b80601f0160208091040260200160405190810160405280929190818152602001828054610709906129bf565b80156107565780601f1061072b57610100808354040283529160200191610756565b820191906000526020600020905b81548152906001019060200180831161073957829003601f168201915b5050505050905090565b60003361076e818585611aad565b5060019392505050565b600d5460408051630505472360e51b815290516000926001600160a01b03169163a0a8e4609160048083019260209291908290030181865afa1580156107c2573d6000803e3d6000fd5b505050506040513d601f19601f820116820180604052508101906107e691906129f9565b905090565b6107f3611aba565b6107fd8282611aec565b5050565b600080546040516311f50c8560e01b8152600481018490526001600160a01b03909116906311f50c8590602401602060405180830381865afa15801561084b573d6000803e3d6000fd5b505050506040513d601f19601f820116820180604052508101906106c89190612a12565b6000610879611cb0565b805490915060ff600160401b82041615906001600160401b03166000811580156108a05750825b90506000826001600160401b031660011480156108bc5750303b155b9050811580156108ca575080155b156108e85760405163f92ee8a960e01b815260040160405180910390fd5b845467ffffffffffffffff19166001178555831561091257845460ff60401b1916600160401b1785555b600061091c611cd4565b90506000610928611cec565b9050610932611d03565b60015560096109418b82612a77565b50600a61094e8a82612a77565b5061095882611d17565b600080546001600160a01b0319166001600160a01b039290921691909117905550600b805461ff00191661010060ff89160217905583156109d357845460ff60401b19168555604051600181527fc7f505b2f371ae2175ee4913f4499e1f2633a7b5936321eed1cdaeb6115181d29060200160405180910390a15b5050505050505050565b600d54604051638cb73af560e01b81526004810184905260009182916001600160a01b0390911690638cb73af590602401602060405180830381865afa158015610a2b573d6000803e3d6000fd5b505050506040513d601f19601f82011682018060405250810190610a4f9190612a12565b9050610a596112e3565b6001600160a01b0316816001600160a01b03161461076e576000610a7d8285611d69565b905080610aa55760405162461bcd60e51b8152600401610a9c90612b36565b60405180910390fd5b610ab7610ab06112e3565b8386611e26565b6001925050506106c8565b600033610ad0858285611e85565b610adb858585611e26565b506001949350505050565b600033610af4868286611e85565b610afe8685611ed2565b6040805160c081018252600080825260208201526001600160a01b03808916828401528716606082015230608082015260a081018690529051610ba0908590610b4d9089908990602401612b7e565b60408051601f19818403018152918152602080830180516001600160e01b03166325afaf4160e21b1790528151808201835260008082528351808401855281815284519384019094528252919086611f08565b5060019695505050505050565b6000546040516333932be560e11b81526001600160a01b039091169063672657ca90610bdd903390600401612685565b602060405180830381865afa158015610bfa573d6000803e3d6000fd5b505050506040513d601f19601f82011682018060405250810190610c1e9190612b97565b610c3a5760405162461bcd60e51b8152600401610a9c90612bb9565b610c4b610c456112e3565b82611ed2565b50565b600082815260026020526040902060010154610c6981611f68565b610c738383611f72565b50505050565b6001600160a01b0381163314610ca25760405163334bd91960e11b815260040160405180910390fd5b610cac8282612006565b505050565b600080516020612fb3833981519152610cc981611f68565b600e54610d295760405162461bcd60e51b815260206004820152602860248201527f4e6f207269736b20616e616c79736973206174746573746174696f6e20656d6d6044820152671a5d1959081e595d60c21b6064820152608401610a9c565b610cac8383612073565b610c4b33610c45565b6000546040516333932be560e11b81526001600160a01b039091169063672657ca90610d6c903390600401612685565b602060405180830381865afa158015610d89573d6000803e3d6000fd5b505050506040513d601f19601f82011682018060405250810190610dad9190612b97565b610dc95760405162461bcd60e51b8152600401610a9c90612bb9565b600d54604051638cb73af560e01b8152600481018490526000916001600160a01b031690638cb73af590602401602060405180830381865afa158015610e13573d6000803e3d6000fd5b505050506040513d601f19601f82011682018060405250810190610e379190612a12565b9050610cac8183611ed2565b60005460408051631119527160e11b81529051610c4b926001600160a01b031691632232a4e29160048083019260209291908290030181865afa158015610e8e573d6000803e3d6000fd5b505050506040513d601f19601f82011682018060405250810190610eb291906129f9565b60005460405163377890a160e11b81526001600160a01b0390911690636ef1214290610ee090600401612c27565b602060405180830381865afa158015610efd573d6000803e3d6000fd5b505050506040513d601f19601f82011682018060405250810190610f219190612a12565b604051806101400160405280610f356106ce565b8152602001610f42611569565b8152602001610f5060055490565b604051602001610f6291815260200190565b604051602081830303815290604052815260200160008054906101000a90046001600160a01b03166001600160a01b0316633408e4706040518163ffffffff1660e01b8152600401602060405180830381865afa158015610fc7573d6000803e3d6000fd5b505050506040513d601f19601f82011682018060405250810190610feb91906129f9565b8152602001306001600160a01b0316803b806020016040519081016040528181526000908060200190933c81526020016110236120a9565b81526001602082015260400160008152600b5460ff908116151560208301528616604091820152516110589190602401612c62565b60408051601f198184030181529190526020810180516001600160e01b0316638b55462d60e01b179052612105565b6000611091611cb0565b805490915060ff600160401b82041615906001600160401b03166000811580156110b85750825b90506000826001600160401b031660011480156110d45750303b155b9050811580156110e2575080155b156111005760405163f92ee8a960e01b815260040160405180910390fd5b845467ffffffffffffffff19166001178555831561112a57845460ff60401b1916600160401b1785555b6000611134611cd4565b90506000611140611cec565b905061114a611d03565b60015560096111598d82612a77565b50600a6111668c82612a77565b50600e889055600f8a9055601080546001600160a01b0319166001600160a01b038b1617905561119582611d17565b600080546001600160a01b0319166001600160a01b0383161790556111c8600080516020612fb383398151915283611f72565b506111f37f3c11d16cbaffd01df69ce1c404f6340ee057498f5f00246190ea54220576a84883611f72565b505050831561123c57845460ff60401b19168555604051600181527fc7f505b2f371ae2175ee4913f4499e1f2633a7b5936321eed1cdaeb6115181d29060200160405180910390a15b50505050505050505050565b611250611aba565b61125a6000611d17565b565b611267823383611e85565b6107fd8282611ed2565b600061127b6112e3565b6001600160a01b0316836001600160a01b0316146112da57600061129f8484611d69565b9050806112be5760405162461bcd60e51b8152600401610a9c90612b36565b6112d06112c96112e3565b8585611e26565b60019150506106c8565b50600192915050565b6008546001600160a01b031690565b60009182526002602090815260408084206001600160a01b0393909316845291905290205460ff1690565b60006113293384611ed2565b6040805160c0810182526000808252602082015233818301526001600160a01b038616606082015230608082015260a081018590529051610adb9084906113769088908890602401612b7e565b60408051601f198184030181529181526020820180516001600160e01b031663c0251d5560e01b179052516113b19089908990602401612b7e565b60408051601f198184030181529181526020820180516001600160e01b0316637eee288d60e01b179052516113ec9033908a90602401612b7e565b60408051601f198184030181529181526020820180516001600160e01b03166331a9a42960e21b17905251602481018a90526044015b60408051601f198184030181529190526020810180516001600160e01b0316632e30417b60e01b17905286611f08565b600033611460868286611e85565b61146a8685611ed2565b6040805160c081018252600080825260208201526001600160a01b03808916828401528716606082015230608082015260a081018690529051610ba09085906114b99089908990602401612b7e565b60408051601f198184030181529181526020820180516001600160e01b031663c0251d5560e01b179052516114f4908a908a90602401612b7e565b60408051601f198184030181529181526020820180516001600160e01b0316637eee288d60e01b1790525161152f908c908b90602401612b7e565b60408051601f198184030181529181526020820180516001600160e01b03166331a9a42960e21b17905251602481018b9052604401611422565b6060600a80546106dd906129bf565b6000546040516333932be560e11b81526001600160a01b039091169063672657ca906115a8903390600401612685565b602060405180830381865afa1580156115c5573d6000803e3d6000fd5b505050506040513d601f19601f820116820180604052508101906115e99190612b97565b6116055760405162461bcd60e51b8152600401610a9c90612bb9565b6107fd8282612073565b611617611aba565b6116218282611ed2565b6107fd600082611aec565b600061163781611f68565b50600e55565b60003361076e818585611e26565b6000546040516333932be560e11b81526001600160a01b039091169063672657ca9061167b903390600401612685565b602060405180830381865afa158015611698573d6000803e3d6000fd5b505050506040513d601f19601f820116820180604052508101906116bc9190612b97565b6116d85760405162461bcd60e51b8152600401610a9c90612bb9565b600d54604051638cb73af560e01b8152600481018490526000916001600160a01b031690638cb73af590602401602060405180830381865afa158015611722573d6000803e3d6000fd5b505050506040513d601f19601f820116820180604052508101906117469190612a12565b90506117596117536112e3565b83612073565b6117616112e3565b6001600160a01b0316816001600160a01b031614610cac57610cac818361217c565b600061178f3384611ed2565b6040805160c0810182526000808252602082015233818301526001600160a01b038616606082015230608082015260a081018590529051610adb908490610b4d9088908890602401612b7e565b6000546040516333932be560e11b81526001600160a01b039091169063672657ca9061180c903390600401612685565b602060405180830381865afa158015611829573d6000803e3d6000fd5b505050506040513d601f19601f8201168201806040525081019061184d9190612b97565b6118695760405162461bcd60e51b8152600401610a9c90612bb9565b61187a6118746112e3565b82612073565b6118826112e3565b6001600160a01b0316826001600160a01b0316146107fd576107fd828261217c565b6000828152600260205260409020600101546118bf81611f68565b610c738383612006565b6001600160a01b03918216600090815260046020908152604080832093909416825291909152205490565b6000546040516333932be560e11b81526001600160a01b039091169063672657ca90611924903390600401612685565b602060405180830381865afa158015611941573d6000803e3d6000fd5b505050506040513d601f19601f820116820180604052508101906119659190612b97565b6119815760405162461bcd60e51b8152600401610a9c90612bb9565b60008054906101000a90046001600160a01b03166001600160a01b0316632232a4e26040518163ffffffff1660e01b8152600401602060405180830381865afa1580156119d2573d6000803e3d6000fd5b505050506040513d601f19601f820116820180604052508101906119f691906129f9565b6119fe612210565b14611a655760405162461bcd60e51b815260206004820152603160248201527f54686973206d6574686f64206f6e6c7920726563656976652063616c6c7320666044820152703937b69031b7b6b6b4ba1031b430b4b71760791b6064820152608401610a9c565b6001819055610c4b612224565b611a7a611aba565b6001600160a01b038116611aa4576000604051631e4fbdf760e01b8152600401610a9c9190612685565b610c4b81611d17565b610cac83838360016122e9565b33611ac36112e3565b6001600160a01b03161461125a573360405163118cdaa760e01b8152600401610a9c9190612685565b600154611af7575050565b60005460408051631119527160e11b815290516107fd926001600160a01b031691632232a4e29160048083019260209291908290030181865afa158015611b42573d6000803e3d6000fd5b505050506040513d601f19601f82011682018060405250810190611b6691906129f9565b60005460405163377890a160e11b81526001600160a01b0390911690636ef1214290611b9490600401612c27565b602060405180830381865afa158015611bb1573d6000803e3d6000fd5b505050506040513d601f19601f82011682018060405250810190611bd59190612a12565b60008054906101000a90046001600160a01b03166001600160a01b0316633408e4706040518163ffffffff1660e01b8152600401602060405180830381865afa158015611c26573d6000803e3d6000fd5b505050506040513d601f19601f82011682018060405250810190611c4a91906129f9565b6001548686604051602001611c6191815260200190565b60408051601f1981840301815290829052611c8194939291602401612d54565b60408051601f198184030181529190526020810180516001600160e01b031663401c3df160e11b179052612105565b7ff0c57e16840df040f15088dc2f81fe391c3923bec73e23a9662efc9c229c6a0090565b600060343610611ce9575060331936013560601c5b90565b600060483610611ce9575060471936013560601c90565b600060203610611ce95750601f1936013590565b600880546001600160a01b038381166001600160a01b0319831681179093556040519116919082907f8be0079c531659141344cd1fd0a4f28419497f9722a3daafe3b4186f6b6457e090600090a35050565b60006001600160a01b038316611d7e57600080fd5b6001600160a01b0383166000908152600c60205260409020548215801590611da65750808311155b611def5760405162461bcd60e51b815260206004820152601a6024820152794e6f7420656e6f7567682066756e647320746f20756e6c6f636b60301b6044820152606401610a9c565b6001600160a01b0384166000908152600c602052604081208054859290611e17908490612da9565b90915550600195945050505050565b6001600160a01b038316611e50576000604051634b637e8f60e11b8152600401610a9c9190612685565b6001600160a01b038216611e7a57600060405163ec442f0560e01b8152600401610a9c9190612685565b610cac8383836123be565b6000611e9184846118c9565b90506000198114610c735781811015611ec357828183604051637dc7a0d960e11b8152600401610a9c93929190612dbc565b610c73848484840360006122e9565b6001600160a01b038216611efc576000604051634b637e8f60e11b8152600401610a9c9190612685565b6107fd826000836123be565b600154611f4f5760405162461bcd60e51b81526020600482015260156024820152742a37b5b2b7103737ba103932b3b4b9ba32b932b21760591b6044820152606401610a9c565b611f608660015487878787876124d5565b505050505050565b610c4b8133612554565b6000611f7e83836112f2565b611ffe5760008381526002602090815260408083206001600160a01b03861684529091529020805460ff19166001179055611fb63390565b6001600160a01b0316826001600160a01b0316847f2f8788117e7eff1d82e926ec794901d17c78024a50270940304540a733656f0d60405160405180910390a45060016106c8565b5060006106c8565b600061201283836112f2565b15611ffe5760008381526002602090815260408083206001600160a01b0386168085529252808320805460ff1916905551339286917ff6391f5c32d9c69d2a47ea670b442974b53935d1edc7fd64eb21e047a839171b9190a45060016106c8565b6001600160a01b03821661209d57600060405163ec442f0560e01b8152600401610a9c9190612685565b6107fd600083836123be565b600f54601054600e546040516060936120d693600993600a936001600160a01b0390921691602401612e5a565b60408051601f198184030181529190526020810180516001600160e01b0316633107750160e11b179052919050565b60005460405163150b375f60e01b81526001600160a01b039091169063150b375f9061213990869086908690600401612ea6565b6020604051808303816000875af1158015612158573d6000803e3d6000fd5b505050506040513d601f19601f82011682018060405250810190610c7391906129f9565b600081116121cc5760405162461bcd60e51b815260206004820152601d60248201527f416d6f756e74206d7573742062652067726561746572207468616e20300000006044820152606401610a9c565b6001600160a01b0382166121df57600080fd5b6001600160a01b0382166000908152600c602052604081208054839290612207908490612ed9565b90915550505050565b600060343610611ce9575060331936013590565b6001546122855760405162461bcd60e51b815260206004820152602960248201527f4f6e6c79207265676973746572207265736f75726365207768656e206974277360448201526808185c1c1c9bdd995960ba1b6064820152608401610a9c565b60005460015460405163d4f951c760e01b815260048101919091523060248201526001600160a01b039091169063d4f951c790604401600060405180830381600087803b1580156122d557600080fd5b505af1158015610c73573d6000803e3d6000fd5b6001600160a01b03841661231357600060405163e602df0560e01b8152600401610a9c9190612685565b6001600160a01b03831661233d576000604051634a1406b160e11b8152600401610a9c9190612685565b6001600160a01b0380851660009081526004602090815260408083209387168352929052208290558015610c7357826001600160a01b0316846001600160a01b03167f8c5be1e5ebec7d5bd14f71427d1e84f3dd0314c0f7b2291e5b200ac8c7c3b925846040516123b091815260200190565b60405180910390a350505050565b6001600160a01b0383166123e95780600560008282546123de9190612ed9565b909155506124489050565b6001600160a01b038316600090815260036020526040902054818110156124295783818360405163391434e360e21b8152600401610a9c93929190612dbc565b6001600160a01b03841660009081526003602052604090209082900390555b6001600160a01b03821661246457600580548290039055612483565b6001600160a01b03821660009081526003602052604090208054820190555b816001600160a01b0316836001600160a01b03167fddf252ad1be2c89b69c2b068fc378daa952ba7f163c4a11628f55a4df523b3ef836040516124c891815260200190565b60405180910390a3505050565b600054604051631075c5d160e21b81526001600160a01b03909116906341d7174490612511908a908a908a908a908a908a908a90600401612eec565b6020604051808303816000875af1158015612530573d6000803e3d6000fd5b505050506040513d601f19601f820116820180604052508101906109d391906129f9565b61255e82826112f2565b6107fd57808260405163e2517d3f60e01b8152600401610a9c929190612b7e565b60006020828403121561259157600080fd5b81356001600160e01b0319811681146125a957600080fd5b9392505050565b6000815180845260005b818110156125d6576020818501810151868301820152016125ba565b506000602082860101526020601f19601f83011685010191505092915050565b6020815260006125a960208301846125b0565b6001600160a01b0381168114610c4b57600080fd5b6000806040838503121561263157600080fd5b823561263c81612609565b946020939093013593505050565b6000806040838503121561265d57600080fd5b82356002811061263c57600080fd5b60006020828403121561267e57600080fd5b5035919050565b6001600160a01b0391909116815260200190565b634e487b7160e01b600052604160045260246000fd5b600082601f8301126126c057600080fd5b81356001600160401b03808211156126da576126da612699565b604051601f8301601f19908116603f0116810190828211818310171561270257612702612699565b8160405283815286602085880101111561271b57600080fd5b836020870160208301376000602085830101528094505050505092915050565b803560ff8116811461274c57600080fd5b919050565b60008060006060848603121561276657600080fd5b83356001600160401b038082111561277d57600080fd5b612789878388016126af565b9450602086013591508082111561279f57600080fd5b506127ac868287016126af565b9250506127bb6040850161273b565b90509250925092565b600080604083850312156127d757600080fd5b50508035926020909101359150565b6000806000606084860312156127fb57600080fd5b833561280681612609565b9250602084013561281681612609565b929592945050506040919091013590565b6000806000806080858703121561283d57600080fd5b843561284881612609565b9350602085013561285881612609565b93969395505050506040820135916060013590565b6000806040838503121561288057600080fd5b82359150602083013561289281612609565b809150509250929050565b6000602082840312156128af57600080fd5b6125a98261273b565b600080600080600060a086880312156128d057600080fd5b85356001600160401b03808211156128e757600080fd5b6128f389838a016126af565b9650602088013591508082111561290957600080fd5b50612916888289016126af565b94505060408601359250606086013561292e81612609565b949793965091946080013592915050565b60006020828403121561295157600080fd5b81356125a981612609565b60008060006060848603121561297157600080fd5b833561297c81612609565b95602085013595506040909401359392505050565b600080604083850312156129a457600080fd5b82356129af81612609565b9150602083013561289281612609565b600181811c908216806129d357607f821691505b6020821081036129f357634e487b7160e01b600052602260045260246000fd5b50919050565b600060208284031215612a0b57600080fd5b5051919050565b600060208284031215612a2457600080fd5b81516125a981612609565b601f821115610cac576000816000526020600020601f850160051c81016020861015612a585750805b601f850160051c820191505b81811015611f6057828155600101612a64565b81516001600160401b03811115612a9057612a90612699565b612aa481612a9e84546129bf565b84612a2f565b602080601f831160018114612ad95760008415612ac15750858301515b600019600386901b1c1916600185901b178555611f60565b600085815260208120601f198616915b82811015612b0857888601518255948401946001909101908401612ae9565b5085821015612b265787850151600019600388901b60f8161c191681555b5050505050600190811b01905550565b60208082526018908201527763616e6e6f7420756e6c6f636b207468652061737365747360401b604082015260600190565b634e487b7160e01b600052602160045260246000fd5b6001600160a01b03929092168252602082015260400190565b600060208284031215612ba957600080fd5b815180151581146125a957600080fd5b60208082526048908201527f5468697320697320612072656365697665206d6574686f642e204f6e6c79206560408201527f6e64706f696e742773206578656375746f722063616e2063616c6c20746869736060820152671036b2ba3437b21760c11b608082015260a00190565b6020808252600d908201526c546f6b656e526567697374727960981b604082015260600190565b60068110612c5e57612c5e612b68565b9052565b6020815260008251610140806020850152612c816101608501836125b0565b91506020850151601f1980868503016040870152612c9f84836125b0565b93506040870151915080868503016060870152612cbc84836125b0565b93506060870151608087015260808701519150808685030160a0870152612ce384836125b0565b935060a08701519150808685030160c087015250612d0183826125b0565b92505060c0850151612d1760e086018215159052565b5060e0850151610100612d2c81870183612c4e565b8601519050610120612d418682018315159052565b9095015160ff1693019290925250919050565b848152836020820152600060028410612d6f57612d6f612b68565b83604083015260806060830152612d8960808301846125b0565b9695505050505050565b634e487b7160e01b600052601160045260246000fd5b818103818111156106c8576106c8612d93565b6001600160a01b039390931683526020830191909152604082015260600190565b60008154612dea816129bf565b808552602060018381168015612e075760018114612e2157612e4f565b60ff1985168884015283151560051b880183019550612e4f565b866000528260002060005b85811015612e475781548a8201860152908301908401612e2c565b890184019650505b505050505092915050565b60a081526000612e6d60a0830188612ddd565b8281036020840152612e7f8188612ddd565b604084019690965250506001600160a01b0392909216606083015260809091015292915050565b8381526001600160a01b0383166020820152606060408201819052600090612ed0908301846125b0565b95945050505050565b808201808211156106c8576106c8612d93565b6000610180898352886020840152806040840152612f0c818401896125b0565b90508281036060840152612f2081886125b0565b90508281036080840152612f3481876125b0565b905082810360a0840152612f4881866125b0565b915050825160058110612f5d57612f5d612b68565b60c0830152602083015160e083015260408301516001600160a01b039081166101008401526060840151811661012084015260808401511661014083015260a09092015161016090910152969550505050505056fe9f2df0fed2c77648de5860a4cc508cd0818c85b8b8a1ab4ceeef8d981c8956a6a2646970667358221220044036bda21ff6ff0bac602041c82754c97498cb017f7125e323d4be6324163664736f6c634300081800339f2df0fed2c77648de5860a4cc508cd0818c85b8b8a1ab4ceeef8d981c8956a6",
  "linkReferences": {},
  "deployedLinkReferences": {}
}