{
  "_format": "hh-sol-artifact-1",
  "contractName": "WithdrawFromZkDvpVerifierk6Proxy",
  "sourceName": "src/rayls-protocol/Enygma/WithdrawFromZkDvpVerifierk6Proxy.sol",
  "abi": [
    {
      "inputs": [
        {
          "internalType": "address",
          "name": "_verifierAddress",
          "type": "address"
        }
      ],
      "stateMutability": "nonpayable",
      "type": "constructor"
    },
    {
      "inputs": [
        {
          "internalType": "address",
          "name": "_verifierAddress",
          "type": "address"
        }
      ],
      "name": "setVerifierAddress",
      "outputs": [],
      "stateMutability": "nonpayable",
      "type": "function"
    },
    {
      "inputs": [
        {
          "internalType": "uint256[2]",
          "name": "_pA",
          "type": "uint256[2]"
        },
        {
          "internalType": "uint256[2][2]",
          "name": "_pB",
          "type": "uint256[2][2]"
        },
        {
          "internalType": "uint256[2]",
          "name": "_pC",
          "type": "uint256[2]"
        },
        {
          "internalType": "uint256[43]",
          "name": "_pubSignals",
          "type": "uint256[43]"
        }
      ],
      "name": "verifyProof",
      "outputs": [
        {
          "internalType": "bool",
          "name": "",
          "type": "bool"
        }
      ],
      "stateMutability": "view",
      "type": "function"
    }
  ],
  "bytecode": "0x608060405234801561001057600080fd5b5060405161036638038061036683398101604081905261002f9161005d565b600080546001600160a01b039092166001600160a01b0319928316179055600180549091163317905561008d565b60006020828403121561006f57600080fd5b81516001600160a01b038116811461008657600080fd5b9392505050565b6102ca8061009c6000396000f3fe608060405234801561001057600080fd5b50600436106100365760003560e01c806317e955261461003b5780635547bd3814610050575b600080fd5b61004e610049366004610178565b610077565b005b61006361005e3660046101bf565b6100f7565b604051901515815260200160405180910390f35b6001546001600160a01b031633146100d55760405162461bcd60e51b815260206004820152601d60248201527f4f6e6c792061646d696e2063616e20646f207468697320616374696f6e000000604482015260640160405180910390fd5b600080546001600160a01b0319166001600160a01b0392909216919091179055565b60008054604051630aa8f7a760e31b81526001600160a01b0390911690635547bd389061012e908890889088908890600401610225565b602060405180830381865afa15801561014b573d6000803e3d6000fd5b505050506040513d601f19601f8201168201806040525081019061016f9190610272565b95945050505050565b60006020828403121561018a57600080fd5b81356001600160a01b03811681146101a157600080fd5b9392505050565b80604081018310156101b957600080fd5b92915050565b6000806000806106608086880312156101d757600080fd5b6101e187876101a8565b945060c08601878111156101f457600080fd5b60408701945061020488826101a8565b93505086818701111561021657600080fd5b50929591945092610100019150565b61066081016040808784378083018660005b600281101561025457838284379183019190830190600101610237565b505050808560c0850137506105608361010084013795945050505050565b60006020828403121561028457600080fd5b815180151581146101a157600080fdfea2646970667358221220c4705588dfab03951e3925a9c047e1b797da523bb11e119bc7c2b7e16726df9064736f6c63430008180033",
  "linkReferences": {},
  "deployedLinkReferences": {}
}