{
  "_format": "hh-sol-artifact-1",
  "contractName": "EnygmaTokenExample",
  "sourceName": "src/rayls-protocol/test-contracts/EnygmaTokenExample.sol",
  "abi": [
    {
      "inputs": [
        {
          "internalType": "string",
          "name": "_name",
          "type": "string"
        },
        {
          "internalType": "string",
          "name": "_symbol",
          "type": "string"
        },
        {
          "internalType": "address",
          "name": "_endpoint",
          "type": "address"
        }
      ],
      "stateMutability": "nonpayable",
      "type": "constructor"
    },
    {
      "inputs": [
        {
          "internalType": "address",
          "name": "spender",
          "type": "address"
        },
        {
          "internalType": "uint256",
          "name": "allowance",
          "type": "uint256"
        },
        {
          "internalType": "uint256",
          "name": "needed",
          "type": "uint256"
        }
      ],
      "name": "ERC20InsufficientAllowance",
      "type": "error"
    },
    {
      "inputs": [
        {
          "internalType": "address",
          "name": "sender",
          "type": "address"
        },
        {
          "internalType": "uint256",
          "name": "balance",
          "type": "uint256"
        },
        {
          "internalType": "uint256",
          "name": "needed",
          "type": "uint256"
        }
      ],
      "name": "ERC20InsufficientBalance",
      "type": "error"
    },
    {
      "inputs": [
        {
          "internalType": "address",
          "name": "approver",
          "type": "address"
        }
      ],
      "name": "ERC20InvalidApprover",
      "type": "error"
    },
    {
      "inputs": [
        {
          "internalType": "address",
          "name": "receiver",
          "type": "address"
        }
      ],
      "name": "ERC20InvalidReceiver",
      "type": "error"
    },
    {
      "inputs": [
        {
          "internalType": "address",
          "name": "sender",
          "type": "address"
        }
      ],
      "name": "ERC20InvalidSender",
      "type": "error"
    },
    {
      "inputs": [
        {
          "internalType": "address",
          "name": "spender",
          "type": "address"
        }
      ],
      "name": "ERC20InvalidSpender",
      "type": "error"
    },
    {
      "inputs": [],
      "name": "InvalidInitialization",
      "type": "error"
    },
    {
      "inputs": [],
      "name": "NotInitializing",
      "type": "error"
    },
    {
      "inputs": [
        {
          "internalType": "address",
          "name": "owner",
          "type": "address"
        }
      ],
      "name": "OwnableInvalidOwner",
      "type": "error"
    },
    {
      "inputs": [
        {
          "internalType": "address",
          "name": "account",
          "type": "address"
        }
      ],
      "name": "OwnableUnauthorizedAccount",
      "type": "error"
    },
    {
      "anonymous": false,
      "inputs": [
        {
          "indexed": true,
          "internalType": "address",
          "name": "owner",
          "type": "address"
        },
        {
          "indexed": true,
          "internalType": "address",
          "name": "spender",
          "type": "address"
        },
        {
          "indexed": false,
          "internalType": "uint256",
          "name": "value",
          "type": "uint256"
        }
      ],
      "name": "Approval",
      "type": "event"
    },
    {
      "anonymous": false,
      "inputs": [
        {
          "indexed": false,
          "internalType": "uint64",
          "name": "version",
          "type": "uint64"
        }
      ],
      "name": "Initialized",
      "type": "event"
    },
    {
      "anonymous": false,
      "inputs": [
        {
          "indexed": true,
          "internalType": "address",
          "name": "previousOwner",
          "type": "address"
        },
        {
          "indexed": true,
          "internalType": "address",
          "name": "newOwner",
          "type": "address"
        }
      ],
      "name": "OwnershipTransferred",
      "type": "event"
    },
    {
      "anonymous": false,
      "inputs": [
        {
          "indexed": true,
          "internalType": "address",
          "name": "from",
          "type": "address"
        },
        {
          "indexed": true,
          "internalType": "address",
          "name": "to",
          "type": "address"
        },
        {
          "indexed": false,
          "internalType": "uint256",
          "name": "value",
          "type": "uint256"
        }
      ],
      "name": "Transfer",
      "type": "event"
    },
    {
      "anonymous": false,
      "inputs": [
        {
          "indexed": false,
          "internalType": "bytes32",
          "name": "_referenceId",
          "type": "bytes32"
        }
      ],
      "name": "crossTransferReferenceId",
      "type": "event"
    },
    {
      "anonymous": false,
      "inputs": [
        {
          "indexed": false,
          "internalType": "bytes32",
          "name": "_referenceId",
          "type": "bytes32"
        }
      ],
      "name": "transactionReferenceId",
      "type": "event"
    },
    {
      "inputs": [],
      "name": "_getEndpointAddress",
      "outputs": [
        {
          "internalType": "address",
          "name": "",
          "type": "address"
        }
      ],
      "stateMutability": "view",
      "type": "function"
    },
    {
      "inputs": [
        {
          "internalType": "address",
          "name": "_endpoint",
          "type": "address"
        }
      ],
      "name": "_updateEndpoint",
      "outputs": [],
      "stateMutability": "nonpayable",
      "type": "function"
    },
    {
      "inputs": [
        {
          "internalType": "address",
          "name": "owner",
          "type": "address"
        },
        {
          "internalType": "address",
          "name": "spender",
          "type": "address"
        }
      ],
      "name": "allowance",
      "outputs": [
        {
          "internalType": "uint256",
          "name": "",
          "type": "uint256"
        }
      ],
      "stateMutability": "view",
      "type": "function"
    },
    {
      "inputs": [
        {
          "internalType": "address",
          "name": "spender",
          "type": "address"
        },
        {
          "internalType": "uint256",
          "name": "value",
          "type": "uint256"
        }
      ],
      "name": "approve",
      "outputs": [
        {
          "internalType": "bool",
          "name": "",
          "type": "bool"
        }
      ],
      "stateMutability": "nonpayable",
      "type": "function"
    },
    {
      "inputs": [
        {
          "internalType": "address",
          "name": "account",
          "type": "address"
        }
      ],
      "name": "balanceOf",
      "outputs": [
        {
          "internalType": "uint256",
          "name": "",
          "type": "uint256"
        }
      ],
      "stateMutability": "view",
      "type": "function"
    },
    {
      "inputs": [
        {
          "internalType": "address",
          "name": "from",
          "type": "address"
        },
        {
          "internalType": "uint256",
          "name": "value",
          "type": "uint256"
        }
      ],
      "name": "burn",
      "outputs": [],
      "stateMutability": "nonpayable",
      "type": "function"
    },
    {
      "inputs": [
        {
          "internalType": "uint256",
          "name": "amount",
          "type": "uint256"
        }
      ],
      "name": "callWithdrawFromZkDvp",
      "outputs": [
        {
          "internalType": "bytes32",
          "name": "",
          "type": "bytes32"
        }
      ],
      "stateMutability": "nonpayable",
      "type": "function"
    },
    {
      "inputs": [
        {
          "internalType": "address",
          "name": "_to",
          "type": "address"
        },
        {
          "internalType": "uint256",
          "name": "_value",
          "type": "uint256"
        },
        {
          "internalType": "bytes32",
          "name": "_referenceId",
          "type": "bytes32"
        },
        {
          "components": [
            {
              "internalType": "bytes32",
              "name": "resourceId",
              "type": "bytes32"
            },
            {
              "internalType": "address",
              "name": "contractAddress",
              "type": "address"
            },
            {
              "internalType": "bytes",
              "name": "payload",
              "type": "bytes"
            }
          ],
          "internalType": "struct SharedObjects.EnygmaCrossTransferCallable[]",
          "name": "_callables",
          "type": "tuple[]"
        }
      ],
      "name": "crossMint",
      "outputs": [],
      "stateMutability": "nonpayable",
      "type": "function"
    },
    {
      "inputs": [
        {
          "internalType": "address",
          "name": "_to",
          "type": "address"
        },
        {
          "internalType": "uint256",
          "name": "_value",
          "type": "uint256"
        },
        {
          "internalType": "string",
          "name": "_reason",
          "type": "string"
        }
      ],
      "name": "crossRevertMint",
      "outputs": [],
      "stateMutability": "nonpayable",
      "type": "function"
    },
    {
      "inputs": [
        {
          "internalType": "address[]",
          "name": "_to",
          "type": "address[]"
        },
        {
          "internalType": "uint256[]",
          "name": "_value",
          "type": "uint256[]"
        },
        {
          "internalType": "uint256[]",
          "name": "_toChainId",
          "type": "uint256[]"
        },
        {
          "components": [
            {
              "internalType": "bytes32",
              "name": "resourceId",
              "type": "bytes32"
            },
            {
              "internalType": "address",
              "name": "contractAddress",
              "type": "address"
            },
            {
              "internalType": "bytes",
              "name": "payload",
              "type": "bytes"
            }
          ],
          "internalType": "struct SharedObjects.EnygmaCrossTransferCallable[][]",
          "name": "_callables",
          "type": "tuple[][]"
        }
      ],
      "name": "crossTransfer",
      "outputs": [
        {
          "internalType": "bytes32",
          "name": "",
          "type": "bytes32"
        }
      ],
      "stateMutability": "nonpayable",
      "type": "function"
    },
    {
      "inputs": [],
      "name": "crossTransferCheck",
      "outputs": [],
      "stateMutability": "nonpayable",
      "type": "function"
    },
    {
      "inputs": [
        {
          "internalType": "address",
          "name": "_from",
          "type": "address"
        },
        {
          "internalType": "address[]",
          "name": "_to",
          "type": "address[]"
        },
        {
          "internalType": "uint256[]",
          "name": "_value",
          "type": "uint256[]"
        },
        {
          "internalType": "uint256[]",
          "name": "_toChainId",
          "type": "uint256[]"
        },
        {
          "components": [
            {
              "internalType": "bytes32",
              "name": "resourceId",
              "type": "bytes32"
            },
            {
              "internalType": "address",
              "name": "contractAddress",
              "type": "address"
            },
            {
              "internalType": "bytes",
              "name": "payload",
              "type": "bytes"
            }
          ],
          "internalType": "struct SharedObjects.EnygmaCrossTransferCallable[][]",
          "name": "_callables",
          "type": "tuple[][]"
        }
      ],
      "name": "crossTransferFrom",
      "outputs": [
        {
          "internalType": "bytes32",
          "name": "",
          "type": "bytes32"
        }
      ],
      "stateMutability": "nonpayable",
      "type": "function"
    },
    {
      "inputs": [],
      "name": "decimals",
      "outputs": [
        {
          "internalType": "uint8",
          "name": "",
          "type": "uint8"
        }
      ],
      "stateMutability": "view",
      "type": "function"
    },
    {
      "inputs": [
        {
          "internalType": "uint256",
          "name": "amount",
          "type": "uint256"
        }
      ],
      "name": "depositToZkDvp",
      "outputs": [
        {
          "internalType": "bytes32",
          "name": "",
          "type": "bytes32"
        }
      ],
      "stateMutability": "nonpayable",
      "type": "function"
    },
    {
      "inputs": [
        {
          "internalType": "bytes32",
          "name": "_resourceId",
          "type": "bytes32"
        }
      ],
      "name": "getAddressByResourceId",
      "outputs": [
        {
          "internalType": "address",
          "name": "",
          "type": "address"
        }
      ],
      "stateMutability": "view",
      "type": "function"
    },
    {
      "inputs": [],
      "name": "getPLCommunicatorAddress",
      "outputs": [
        {
          "internalType": "address",
          "name": "",
          "type": "address"
        }
      ],
      "stateMutability": "view",
      "type": "function"
    },
    {
      "inputs": [
        {
          "internalType": "string",
          "name": "_name",
          "type": "string"
        },
        {
          "internalType": "string",
          "name": "_symbol",
          "type": "string"
        },
        {
          "internalType": "uint8",
          "name": "_decimals",
          "type": "uint8"
        }
      ],
      "name": "initialize",
      "outputs": [],
      "stateMutability": "nonpayable",
      "type": "function"
    },
    {
      "inputs": [
        {
          "internalType": "address",
          "name": "_to",
          "type": "address"
        },
        {
          "internalType": "uint256",
          "name": "_value",
          "type": "uint256"
        },
        {
          "internalType": "uint256",
          "name": "_toChainId",
          "type": "uint256"
        },
        {
          "internalType": "bytes32",
          "name": "_callableResourceId",
          "type": "bytes32"
        },
        {
          "internalType": "address",
          "name": "_callableContractAddress",
          "type": "address"
        },
        {
          "internalType": "bytes",
          "name": "_callablePayload",
          "type": "bytes"
        }
      ],
      "name": "linearCrossTransfer",
      "outputs": [
        {
          "internalType": "bytes32",
          "name": "",
          "type": "bytes32"
        }
      ],
      "stateMutability": "nonpayable",
      "type": "function"
    },
    {
      "inputs": [
        {
          "internalType": "address",
          "name": "_from",
          "type": "address"
        },
        {
          "internalType": "address",
          "name": "_to",
          "type": "address"
        },
        {
          "internalType": "uint256",
          "name": "_value",
          "type": "uint256"
        },
        {
          "internalType": "uint256",
          "name": "_toChainId",
          "type": "uint256"
        },
        {
          "internalType": "bytes32",
          "name": "_callableResourceId",
          "type": "bytes32"
        },
        {
          "internalType": "address",
          "name": "_callableContractAddress",
          "type": "address"
        },
        {
          "internalType": "bytes",
          "name": "_callablePayload",
          "type": "bytes"
        }
      ],
      "name": "linearCrossTransferFrom",
      "outputs": [
        {
          "internalType": "bytes32",
          "name": "",
          "type": "bytes32"
        }
      ],
      "stateMutability": "nonpayable",
      "type": "function"
    },
    {
      "inputs": [],
      "name": "message",
      "outputs": [
        {
          "internalType": "string",
          "name": "",
          "type": "string"
        }
      ],
      "stateMutability": "view",
      "type": "function"
    },
    {
      "inputs": [
        {
          "internalType": "address",
          "name": "_to",
          "type": "address"
        },
        {
          "internalType": "uint256",
          "name": "_value",
          "type": "uint256"
        }
      ],
      "name": "mint",
      "outputs": [],
      "stateMutability": "nonpayable",
      "type": "function"
    },
    {
      "inputs": [],
      "name": "name",
      "outputs": [
        {
          "internalType": "string",
          "name": "",
          "type": "string"
        }
      ],
      "stateMutability": "view",
      "type": "function"
    },
    {
      "inputs": [
        {
          "internalType": "bytes32",
          "name": "_sharedId",
          "type": "bytes32"
        },
        {
          "internalType": "uint256",
          "name": "_destinationChainId",
          "type": "uint256"
        }
      ],
      "name": "notifySwapCompleted",
      "outputs": [],
      "stateMutability": "nonpayable",
      "type": "function"
    },
    {
      "inputs": [
        {
          "internalType": "bytes32",
          "name": "_sharedId",
          "type": "bytes32"
        },
        {
          "internalType": "uint256",
          "name": "_destinationChainId",
          "type": "uint256"
        }
      ],
      "name": "notifySwapProcessing",
      "outputs": [],
      "stateMutability": "nonpayable",
      "type": "function"
    },
    {
      "inputs": [],
      "name": "owner",
      "outputs": [
        {
          "internalType": "address",
          "name": "",
          "type": "address"
        }
      ],
      "stateMutability": "view",
      "type": "function"
    },
    {
      "inputs": [
        {
          "internalType": "string",
          "name": "_msg",
          "type": "string"
        }
      ],
      "name": "receiveMsgA",
      "outputs": [],
      "stateMutability": "nonpayable",
      "type": "function"
    },
    {
      "inputs": [
        {
          "internalType": "bytes32",
          "name": "_resourceId",
          "type": "bytes32"
        }
      ],
      "name": "receiveResourceId",
      "outputs": [],
      "stateMutability": "nonpayable",
      "type": "function"
    },
    {
      "inputs": [
        {
          "internalType": "address",
          "name": "_to",
          "type": "address"
        },
        {
          "internalType": "uint256",
          "name": "_value",
          "type": "uint256"
        },
        {
          "internalType": "bytes32",
          "name": "_referenceId",
          "type": "bytes32"
        }
      ],
      "name": "receiveWithdrawFromZkDvp",
      "outputs": [],
      "stateMutability": "nonpayable",
      "type": "function"
    },
    {
      "inputs": [
        {
          "internalType": "bytes32",
          "name": "_referenceID",
          "type": "bytes32"
        }
      ],
      "name": "referenceIdStatus",
      "outputs": [
        {
          "internalType": "enum RaylsEnygmaHandler.ReferenceIdStatus",
          "name": "",
          "type": "uint8"
        }
      ],
      "stateMutability": "view",
      "type": "function"
    },
    {
      "inputs": [
        {
          "internalType": "bytes32",
          "name": "_referenceID",
          "type": "bytes32"
        }
      ],
      "name": "referenceIdStatusUint",
      "outputs": [
        {
          "internalType": "uint256",
          "name": "",
          "type": "uint256"
        }
      ],
      "stateMutability": "view",
      "type": "function"
    },
    {
      "inputs": [],
      "name": "renounceOwnership",
      "outputs": [],
      "stateMutability": "nonpayable",
      "type": "function"
    },
    {
      "inputs": [],
      "name": "resourceId",
      "outputs": [
        {
          "internalType": "bytes32",
          "name": "",
          "type": "bytes32"
        }
      ],
      "stateMutability": "view",
      "type": "function"
    },
    {
      "inputs": [
        {
          "internalType": "uint8",
          "name": "_storageSlot",
          "type": "uint8"
        }
      ],
      "name": "submitTokenRegistration",
      "outputs": [],
      "stateMutability": "nonpayable",
      "type": "function"
    },
    {
      "inputs": [
        {
          "internalType": "uint256",
          "name": "_nftId",
          "type": "uint256"
        },
        {
          "internalType": "bytes32",
          "name": "_nftResourceId",
          "type": "bytes32"
        },
        {
          "internalType": "uint256",
          "name": "_enygmaAmount",
          "type": "uint256"
        },
        {
          "internalType": "uint256",
          "name": "_destChainId",
          "type": "uint256"
        },
        {
          "internalType": "bytes32",
          "name": "_sharedId",
          "type": "bytes32"
        },
        {
          "components": [
            {
              "internalType": "address",
              "name": "contractAddress",
              "type": "address"
            },
            {
              "internalType": "bytes32",
              "name": "resourceId",
              "type": "bytes32"
            },
            {
              "internalType": "bytes",
              "name": "payload",
              "type": "bytes"
            }
          ],
          "internalType": "struct SharedObjects.ZkDvpProgramability",
          "name": "_msg",
          "type": "tuple"
        }
      ],
      "name": "swapWithZkDvpForERC721",
      "outputs": [],
      "stateMutability": "nonpayable",
      "type": "function"
    },
    {
      "inputs": [],
      "name": "symbol",
      "outputs": [
        {
          "internalType": "string",
          "name": "",
          "type": "string"
        }
      ],
      "stateMutability": "view",
      "type": "function"
    },
    {
      "inputs": [],
      "name": "totalSupply",
      "outputs": [
        {
          "internalType": "uint256",
          "name": "",
          "type": "uint256"
        }
      ],
      "stateMutability": "view",
      "type": "function"
    },
    {
      "inputs": [
        {
          "internalType": "address",
          "name": "to",
          "type": "address"
        },
        {
          "internalType": "uint256",
          "name": "value",
          "type": "uint256"
        }
      ],
      "name": "transfer",
      "outputs": [
        {
          "internalType": "bool",
          "name": "",
          "type": "bool"
        }
      ],
      "stateMutability": "nonpayable",
      "type": "function"
    },
    {
      "inputs": [
        {
          "internalType": "address",
          "name": "from",
          "type": "address"
        },
        {
          "internalType": "address",
          "name": "to",
          "type": "address"
        },
        {
          "internalType": "uint256",
          "name": "value",
          "type": "uint256"
        }
      ],
      "name": "transferFrom",
      "outputs": [
        {
          "internalType": "bool",
          "name": "",
          "type": "bool"
        }
      ],
      "stateMutability": "nonpayable",
      "type": "function"
    },
    {
      "inputs": [
        {
          "internalType": "address",
          "name": "newOwner",
          "type": "address"
        }
      ],
      "name": "transferOwnership",
      "outputs": [],
      "stateMutability": "nonpayable",
      "type": "function"
    },
    {
      "inputs": [
        {
          "internalType": "uint256",
          "name": "_destinationChainId",
          "type": "uint256"
        },
        {
          "internalType": "bytes32",
          "name": "_sharedId",
          "type": "bytes32"
        }
      ],
      "name": "zkDvpSwapCompleted",
      "outputs": [],
      "stateMutability": "nonpayable",
      "type": "function"
    }
  ],
  "bytecode": "0x60c060405260046080908152631d195cdd60e21b60a052600c90620000259082620002e4565b503480156200003357600080fd5b50604051620047bb380380620047bb833981016040819052620000569162000462565b600080546001600160a01b0319166001600160a01b038316178155839083908390339060129082868660056200008d8382620002e4565b5060066200009c8282620002e4565b5050506001600160a01b038116620000ce57604051631e4fbdf760e01b81526000600482015260240160405180910390fd5b620000d98162000137565b506009620000e88782620002e4565b50600a620000f78682620002e4565b506007805460ff60a01b1916600160a01b60ff851602179055600b805460ff19168215151790556200012862000189565b505050505050505050620004ef565b600780546001600160a01b038381166001600160a01b0319831681179093556040519116919082907f8be0079c531659141344cd1fd0a4f28419497f9722a3daafe3b4186f6b6457e090600090a35050565b7ff0c57e16840df040f15088dc2f81fe391c3923bec73e23a9662efc9c229c6a00805468010000000000000000900460ff1615620001da5760405163f92ee8a960e01b815260040160405180910390fd5b80546001600160401b03908116146200023a5780546001600160401b0319166001600160401b0390811782556040519081527fc7f505b2f371ae2175ee4913f4499e1f2633a7b5936321eed1cdaeb6115181d29060200160405180910390a15b50565b634e487b7160e01b600052604160045260246000fd5b600181811c908216806200026857607f821691505b6020821081036200028957634e487b7160e01b600052602260045260246000fd5b50919050565b601f821115620002df576000816000526020600020601f850160051c81016020861015620002ba5750805b601f850160051c820191505b81811015620002db57828155600101620002c6565b5050505b505050565b81516001600160401b038111156200030057620003006200023d565b620003188162000311845462000253565b846200028f565b602080601f831160018114620003505760008415620003375750858301515b600019600386901b1c1916600185901b178555620002db565b600085815260208120601f198616915b82811015620003815788860151825594840194600190910190840162000360565b5085821015620003a05787850151600019600388901b60f8161c191681555b5050505050600190811b01905550565b600082601f830112620003c257600080fd5b81516001600160401b0380821115620003df57620003df6200023d565b604051601f8301601f19908116603f011681019082821181831017156200040a576200040a6200023d565b81604052838152602092508660208588010111156200042857600080fd5b600091505b838210156200044c57858201830151818301840152908201906200042d565b6000602085830101528094505050505092915050565b6000806000606084860312156200047857600080fd5b83516001600160401b03808211156200049057600080fd5b6200049e87838801620003b0565b94506020860151915080821115620004b557600080fd5b50620004c486828701620003b0565b604086015190935090506001600160a01b0381168114620004e457600080fd5b809150509250925092565b6142bc80620004ff6000396000f3fe608060405234801561001057600080fd5b50600436106102085760003560e01c806382fbe5801161011b578063d97a5df1116100a8578063d97a5df114610486578063dd62ed3e146104a6578063df017412146104b9578063e21f37ce146104cc578063e3ee8a43146104d4578063ee984722146104e7578063f26352a9146104fa578063f2fde38b1461050d578063fad6384914610520578063fca6f7651461053357600080fd5b806382fbe580146103d55780638d742261146103dd5780638da5cb5b146103fd57806395d89b411461040e5780639b29c18f146104165780639dc29fac14610429578063a9059cbb1461043c578063b247d9461461044f578063bb841fb714610460578063d7a76fdf1461047357600080fd5b8063313ce56711610199578063313ce567146102ed57806340c10f191461030c57806352b9ef731461031f578063556da1b9146103325780635f997c5b1461034557806367a2846b1461034e5780636f1813181461036157806370a0823114610391578063715018a6146103ba57806371c3645e146103c257600080fd5b806306fdde031461020d578063095ea7b31461022b5780630ca869851461024e57806311f50c851461026f57806314f699b91461028f5780631624f6c6146102a457806318160ddd146102b7578063195efa4e146102bf57806323b872dd146102c757806329292225146102da575b600080fd5b610215610546565b6040516102229190612e7f565b60405180910390f35b61023e610239366004612eae565b6105d8565b6040519015158152602001610222565b61026161025c366004612f22565b6105f2565b604051908152602001610222565b61028261027d366004612fa7565b6107fa565b6040516102229190612fc0565b6102a261029d366004612fd4565b610868565b005b6102a26102b23660046130c9565b610926565b600454610261565b6102a2610aac565b61023e6102d536600461313c565b610b44565b6102a26102e836600461317d565b610b68565b600754600160a01b900460ff1660405160ff9091168152602001610222565b6102a261031a366004612eae565b610ed6565b61026161032d366004612fa7565b610f5e565b6102a26103403660046131ef565b611115565b61026160015481565b61026161035c366004612fa7565b611377565b6102a261036f36600461320a565b600080546001600160a01b0319166001600160a01b0392909216919091179055565b61026161039f36600461320a565b6001600160a01b031660009081526002602052604090205490565b6102a2611466565b6102a26103d0366004612fd4565b611478565b6102826114f4565b6103f06103eb366004612fa7565b611568565b604051610222919061324d565b6007546001600160a01b0316610282565b610215611588565b6102616104243660046134e4565b611597565b6102a2610437366004612eae565b6115ea565b61023e61044a366004612eae565b61163c565b6000546001600160a01b0316610282565b6102a261046e366004612fd4565b61164a565b6102a26104813660046135a3565b6116b2565b610261610494366004612fa7565b60009081526008602052604090205490565b6102616104b43660046135fb565b611725565b6102a26104c7366004613634565b611750565b6102156119be565b6102a26104e2366004612fa7565b611a4c565b6102616104f53660046136cc565b611c36565b6102a2610508366004613778565b611c4e565b6102a261051b36600461320a565b611c5a565b61026161052e3660046137b4565b611c95565b6102a261054136600461384b565b611eab565b60606009805461055590613880565b80601f016020809104026020016040519081016040528092919081815260200182805461058190613880565b80156105ce5780601f106105a3576101008083540402835291602001916105ce565b820191906000526020600020905b8154815290600101906020018083116105b157829003601f168201915b5050505050905090565b6000336105e6818585611ec6565b60019150505b92915050565b604080516001808252818301909252600091829190602080830190803683375050604080516001808252818301909252929350600092915060208083019080368337505060408051600180825281830190925292935060009291506020808301908036833750506040805160018082528183019092529293506000929150602082015b606081526020019060019003908161067557505060408051600180825281830190925291925060009190602082015b604080516060808201835260008083526020830152918101919091528152602001906001900390816106a45790505090508c856000815181106106e9576106e96138ba565b60200260200101906001600160a01b031690816001600160a01b0316815250508b8460008151811061071d5761071d6138ba565b6020026020010181815250508a8360008151811061073d5761073d6138ba565b60200260200101818152505060405180606001604052808b81526020018a6001600160a01b0316815260200189898080601f016020809104026020016040519081016040528093929190818152602001838380828437600092018290525093909452505083518492506107b2576107b26138ba565b602002602001018190525080826000815181106107d1576107d16138ba565b60200260200101819052506107e93386868686611ed3565b9d9c50505050505050505050505050565b600080546040516311f50c8560e01b8152600481018490526001600160a01b03909116906311f50c8590602401602060405180830381865afa158015610844573d6000803e3d6000fd5b505050506040513d601f19601f820116820180604052508101906105ec91906138d0565b6108706114f4565b6001600160a01b031663db76edaa83600560006040518463ffffffff1660e01b81526004016108a1939291906138ed565b600060405180830381600087803b1580156108bb57600080fd5b505af11580156108cf573d6000803e3d6000fd5b5061092292508391506005905084815b60006040516024016108f3939291906138ed565b60408051601f198184030181529190526020810180516001600160e01b0316636dbb76d560e11b179052612648565b5050565b7ff0c57e16840df040f15088dc2f81fe391c3923bec73e23a9662efc9c229c6a008054600160401b810460ff1615906001600160401b031660008115801561096b5750825b90506000826001600160401b031660011480156109875750303b155b905081158015610995575080155b156109b35760405163f92ee8a960e01b815260040160405180910390fd5b845467ffffffffffffffff1916600117855583156109dd57845460ff60401b1916600160401b1785555b60006109e76126c5565b905060006109f36126dd565b90506109fd6126f4565b6001556009610a0c8b8261395a565b50600a610a198a8261395a565b506007805460ff60a01b1916600160a01b60ff8b1602179055610a3b82612708565b600080546001600160a01b0319166001600160a01b0392909216919091179055508315610aa257845460ff60401b19168555604051600181527fc7f505b2f371ae2175ee4913f4499e1f2633a7b5936321eed1cdaeb6115181d29060200160405180910390a15b5050505050505050565b6000546040516333932be560e11b81526001600160a01b039091169063672657ca90610adc903390600401612fc0565b602060405180830381865afa158015610af9573d6000803e3d6000fd5b505050506040513d601f19601f82011682018060405250810190610b1d9190613a19565b610b425760405162461bcd60e51b8152600401610b3990613a3b565b60405180910390fd5b565b600033610b5285828561275a565b610b5d8585856127a7565b506001949350505050565b6040805160008082526020820183529091610b8590840184613aa9565b90501115610dd657602082013515610c18576000610ba6602084018461320a565b6001600160a01b031614610c185760405162461bcd60e51b815260206004820152603360248201527f43616e6e6f74206861766520626f7468207265736f75726365496420616e642060448201527218dbdb9d1c9858dd1059191c995cdcc81cd95d606a1b6064820152608401610b39565b6000610c27602084018461320a565b6001600160a01b031614610ca357602082013515610ca35760405162461bcd60e51b815260206004820152603360248201527f43616e6e6f74206861766520626f746820636f6e74726163744164647265737360448201527208185b99081c995cdbdd5c98d95259081cd95d606a1b6064820152608401610b39565b610cab612d3d565b610cb86040840184613aa9565b8080601f0160208091040260200160405190810160405280939291908181526020018383808284376000920182905250602080870195909552855160016101009091015285518886013560609091015254604080516303408e4760e41b8152905163fe12d9c360e01b966001600160a01b039093169550633408e47094506004808301945090918290030181865afa158015610d58573d6000803e3d6000fd5b505050506040513d601f19601f82011682018060405250810190610d7c9190613aef565b33610d8a602087018761320a565b8488604051602401610da0959493929190613bd6565b60408051601f198184030181529190526020810180516001600160e01b03166001600160e01b0319909316929092179091529150505b610dde612806565b6001600160a01b03166338743de9600154898989610df93390565b8a8a896040518963ffffffff1660e01b8152600401610e1f989796959493929190613cf8565b600060405180830381600087803b158015610e3957600080fd5b505af1158015610e4d573d6000803e3d6000fd5b50505050610e596114f4565b6001600160a01b031663db76edaa84600360006040518463ffffffff1660e01b8152600401610e8a939291906138ed565b600060405180830381600087803b158015610ea457600080fd5b505af1158015610eb8573d6000803e3d6000fd5b50610ecd9250869150600590508560046108df565b50505050505050565b610ede612838565b610ee88282612865565b610ef0612806565b6001600160a01b031663e1856ff4600154836040518363ffffffff1660e01b8152600401610f28929190918252602082015260400190565b600060405180830381600087803b158015610f4257600080fd5b505af1158015610f56573d6000803e3d6000fd5b505050505050565b6000610f6a338361289b565b606080600061103260008054906101000a90046001600160a01b03166001600160a01b0316633408e4706040518163ffffffff1660e01b8152600401602060405180830381865afa158015610fc3573d6000803e3d6000fd5b505050506040513d601f19601f82011682018060405250810190610fe79190613aef565b60408051436020820152908101889052606080820152600760808201526611115413d4d25560ca1b60a082015233908690869060c0015b6040516020818303038152906040526128d1565b9050600360008281526008602052604090205561104d612806565b6001600160a01b0316639b800772600154876110663390565b6040516001600160e01b031960e086901b168152600481019390935260248301919091526001600160a01b0316604482015260648101849052608401600060405180830381600087803b1580156110bc57600080fd5b505af11580156110d0573d6000803e3d6000fd5b505050507fb65fb3fc7fb02275e03fb88f5a429a50662b505e7ee80ff4e402b30ed7245cc28160405161110591815260200190565b60405180910390a1949350505050565b60005460408051631119527160e11b81529051611374926001600160a01b031691632232a4e29160048083019260209291908290030181865afa158015611160573d6000803e3d6000fd5b505050506040513d601f19601f820116820180604052508101906111849190613aef565b60005460405163377890a160e11b815260206004820152600d60248201526c546f6b656e526567697374727960981b60448201526001600160a01b0390911690636ef1214290606401602060405180830381865afa1580156111ea573d6000803e3d6000fd5b505050506040513d601f19601f8201168201806040525081019061120e91906138d0565b604051806101400160405280611222610546565b815260200161122f611588565b815260200161123d60045490565b60405160200161124f91815260200190565b604051602081830303815290604052815260200160008054906101000a90046001600160a01b03166001600160a01b0316633408e4706040518163ffffffff1660e01b8152600401602060405180830381865afa1580156112b4573d6000803e3d6000fd5b505050506040513d601f19601f820116820180604052508101906112d89190613aef565b8152602001306001600160a01b0316803b806020016040519081016040528181526000908060200190933c815260200161131061290d565b81526001602082015260400160048152600b5460ff908116151560208301528616604091820152516113459190602401613d56565b60408051601f198184030181529190526020810180516001600160e01b0316638b55462d60e01b17905261296d565b50565b6000606080600061143260008054906101000a90046001600160a01b03166001600160a01b0316633408e4706040518163ffffffff1660e01b8152600401602060405180830381865afa1580156113d2573d6000803e3d6000fd5b505050506040513d601f19601f820116820180604052508101906113f69190613aef565b604080514360208201529081018890526060808201526008608082015267574954484452415760c01b60a082015233908690869060c00161101e565b9050600460008281526008602052604090205561144d612806565b6001600160a01b03166399004d79600154876110663390565b61146e612838565b610b426000612708565b6114806114f4565b6001600160a01b031663db76edaa83600660006040518463ffffffff1660e01b81526004016114b1939291906138ed565b600060405180830381600087803b1580156114cb57600080fd5b505af11580156114df573d6000803e3d6000fd5b506109229250839150600590508460066108df565b600080546040516311f50c8560e01b8152600560048201526001600160a01b03909116906311f50c85906024015b602060405180830381865afa15801561153f573d6000803e3d6000fd5b505050506040513d601f19601f8201168201806040525081019061156391906138d0565b905090565b60008181526008602052604081205460058111156105ec576105ec613227565b6060600a805461055590613880565b600033815b86518110156115d1576115c988838884815181106115bc576115bc6138ba565b602002602001015161275a565b60010161159c565b506115df8787878787611ed3565b979650505050505050565b6115f2612838565b6115fc828261289b565b611604612806565b6001600160a01b0316637a408454600154836040518363ffffffff1660e01b8152600401610f28929190918252602082015260400190565b6000336105e68185856127a7565b611652612d5d565b6001546040805160048152602481018252602080820180516001600160e01b0316630caf7d2760e11b17905282518082018452600080825284518084018652818152855193840190955282526116ad948894909392876129a1565b505050565b6116bc8383612865565b6116c4612806565b6001600160a01b0316633caf04766001548486856040518563ffffffff1660e01b81526004016116f79493929190613e48565b600060405180830381600087803b15801561171157600080fd5b505af1158015610ecd573d6000803e3d6000fd5b6001600160a01b03918216600090815260036020908152604080832093909416825291909152205490565b6002600084815260086020526040902055600681106117815760405162461bcd60e51b8152600401610b3990613e7f565b61178b8585612865565b60005b81811015610f565760008383838181106117aa576117aa6138ba565b90506020028101906117bc9190613edc565b6117c590613efc565b80519091506000901561184e5760005482516040516311f50c8560e01b81526001600160a01b03909216916311f50c85916118069160040190815260200190565b602060405180830381865afa158015611823573d6000803e3d6000fd5b505050506040513d601f19601f8201168201806040525081019061184791906138d0565b9050611855565b5060208101515b6001600160a01b038116156119b4576000816001600160a01b03163b116118d25760405162461bcd60e51b815260206004820152602b60248201527f43616c6c61626c6520636f6e74726163742061646472657373206973206e6f7460448201526a08184818dbdb9d1c9858dd60aa1b6064820152608401610b39565b6000816001600160a01b031683604001516040516020016118f39190613f08565b60408051601f198184030181529082905261190d91613f08565b6000604051808303816000865af19150503d806000811461194a576040519150601f19603f3d011682016040523d82523d6000602084013e61194f565b606091505b50509050806119b25760405162461bcd60e51b815260206004820152602960248201527f43726f7373206d696e74206661696c6564207768696c652063616c6c696e672060448201526863616c6c61626c657360b81b6064820152608401610b39565b505b505060010161178e565b600c80546119cb90613880565b80601f01602080910402602001604051908101604052809291908181526020018280546119f790613880565b8015611a445780601f10611a1957610100808354040283529160200191611a44565b820191906000526020600020905b815481529060010190602001808311611a2757829003601f168201915b505050505081565b6000546040516333932be560e11b81526001600160a01b039091169063672657ca90611a7c903390600401612fc0565b602060405180830381865afa158015611a99573d6000803e3d6000fd5b505050506040513d601f19601f82011682018060405250810190611abd9190613a19565b611ad95760405162461bcd60e51b8152600401610b3990613a3b565b60008054906101000a90046001600160a01b03166001600160a01b0316632232a4e26040518163ffffffff1660e01b8152600401602060405180830381865afa158015611b2a573d6000803e3d6000fd5b505050506040513d601f19601f82011682018060405250810190611b4e9190613aef565b611b56612a20565b14611bbd5760405162461bcd60e51b815260206004820152603160248201527f54686973206d6574686f64206f6e6c7920726563656976652063616c6c7320666044820152703937b69031b7b6b6b4ba1031b430b4b71760791b6064820152608401610b39565b6001819055611bca612a34565b611bd2612806565b6001600160a01b0316630efac99a6001546040518263ffffffff1660e01b8152600401611c0191815260200190565b600060405180830381600087803b158015611c1b57600080fd5b505af1158015611c2f573d6000803e3d6000fd5b5050505050565b6000611c453386868686611ed3565b95945050505050565b600c610922828261395a565b611c62612838565b6001600160a01b038116611c8c576000604051631e4fbdf760e01b8152600401610b399190612fc0565b61137481612708565b604080516001808252818301909252600091829190602080830190803683375050604080516001808252818301909252929350600092915060208083019080368337505060408051600180825281830190925292935060009291506020808301908036833750506040805160018082528183019092529293506000929150602082015b6060815260200190600190039081611d1857505060408051600180825281830190925291925060009190602082015b60408051606080820183526000808352602083015291810191909152815260200190600190039081611d475790505090508c85600081518110611d8c57611d8c6138ba565b60200260200101906001600160a01b031690816001600160a01b0316815250508b84600081518110611dc057611dc06138ba565b6020026020010181815250508a83600081518110611de057611de06138ba565b60200260200101818152505060405180606001604052808b81526020018a6001600160a01b0316815260200189898080601f01602080910402602001604051908101604052809392919081815260200183838082843760009201829052509390945250508351849250611e5557611e556138ba565b60200260200101819052508082600081518110611e7457611e746138ba565b6020026020010181905250611e8a8e338e61275a565b611e978e86868686611ed3565b955050505050505b98975050505050505050565b60056000828152600860205260409020556116ad8383612865565b6116ad8383836001612af9565b600083518551148015611ee7575082518551145b8015611ef4575081518551145b611f3b5760405162461bcd60e51b8152602060048201526018602482015277082e4e4c2f240d8cadccee8d0e640daeae6e840dac2e8c6d60431b6044820152606401610b39565b6000855111611f985760405162461bcd60e51b8152602060048201526024808201527f4d696e696d756d206c656e677468206f6620696e7075742061727261797320696044820152633990189760e11b6064820152608401610b39565b60005b83518110156120a15760008054906101000a90046001600160a01b03166001600160a01b0316633408e4706040518163ffffffff1660e01b8152600401602060405180830381865afa158015611ff5573d6000803e3d6000fd5b505050506040513d601f19601f820116820180604052508101906120199190613aef565b84828151811061202b5761202b6138ba565b6020026020010151036120995760405162461bcd60e51b815260206004820152603060248201527f55736520616e6f746865722066756e6374696f6e20746f207472616e7366657260448201526f081d1bc81cd85b594810da185a5b925960821b6064820152608401610b39565b600101611f9b565b5060005b825181101561221a5760008382815181106120c2576120c26138ba565b6020026020010151519050600681106120ed5760405162461bcd60e51b8152600401610b3990613e7f565b60005b81811015612210576000801b85848151811061210e5761210e6138ba565b60200260200101518281518110612127576121276138ba565b6020026020010151600001511480612187575060006001600160a01b0316858481518110612157576121576138ba565b60200260200101518281518110612170576121706138ba565b6020026020010151602001516001600160a01b0316145b6122085760405162461bcd60e51b815260206004820152604660248201527f43616e6e6f74207370656369667920626f74682061207265736f75726365496460448201527f20616e64206120636f6e74726163744164647265737320666f7220612063616c6064820152653630b136329760d11b608482015260a401610b39565b6001016120f0565b50506001016120a5565b50612223612d94565b6000805b855181101561233357600160005b838110156122845787838151811061224f5761224f6138ba565b6020026020010151858260058110612269576122696138ba565b60200201510361227c5760009150612284565b600101612235565b50801561232a57600583106122eb5760405162461bcd60e51b815260206004820152602760248201527f4d6178696d756d206f66203520756e69717565205f746f436861696e49647320604482015266185b1b1bddd95960ca1b6064820152608401610b39565b8682815181106122fd576122fd6138ba565b6020026020010151848460058110612317576123176138ba565b60200201528261232681613f30565b9350505b50600101612227565b506000805b885181101561247657878181518110612353576123536138ba565b6020026020010151826123669190613f49565b915060006040518060c001604052806003600481111561238857612388613227565b8152602001600081526020018c6001600160a01b031681526020018b84815181106123b5576123b56138ba565b60200260200101516001600160a01b03168152602001306001600160a01b031681526020018a84815181106123ec576123ec6138ba565b6020026020010151815250905061246d88838151811061240e5761240e6138ba565b602090810291909101810151604080516004815260248101825280840180516001600160e01b0316630caf7d2760e11b179052815180850183526000808252835180870185528181528451968701909452855292939092919086612bce565b50600101612338565b50612481898261289b565b60008054604080516303408e4760e41b81529051612507926001600160a01b031691633408e4709160048083019260209291908290030181865afa1580156124cd573d6000803e3d6000fd5b505050506040513d601f19601f820116820180604052508101906124f19190613aef565b8b898c4360405160200161101e91815260200190565b90506001600860008381526020019081526020016000208190555060006040518060e0016040528060015481526020018a81526020018981526020018b81526020018881526020016125563390565b6001600160a01b031681526020018390529050612571612806565b6001600160a01b031663235beec8826040518263ffffffff1660e01b815260040161259c9190613fd2565b600060405180830381600087803b1580156125b657600080fd5b505af11580156125ca573d6000803e3d6000fd5b505050507fb65fb3fc7fb02275e03fb88f5a429a50662b505e7ee80ff4e402b30ed7245cc2826040516125ff91815260200190565b60405180910390a16040518281527fd71c042e51197c5f61df50f8d066fdfdc366562fa95dd89c2f230b5ed5bddb739060200160405180910390a1509998505050505050505050565b6000546040516320599dfd60e11b81526001600160a01b03909116906340b33bfa9061267c90869086908690600401614127565b6020604051808303816000875af115801561269b573d6000803e3d6000fd5b505050506040513d601f19601f820116820180604052508101906126bf9190613aef565b50505050565b6000603436106126da575060331936013560601c5b90565b6000604836106126da575060471936013560601c90565b6000602036106126da5750601f1936013590565b600780546001600160a01b038381166001600160a01b0319831681179093556040519116919082907f8be0079c531659141344cd1fd0a4f28419497f9722a3daafe3b4186f6b6457e090600090a35050565b60006127668484611725565b905060001981146126bf578181101561279857828183604051637dc7a0d960e11b8152600401610b3993929190614146565b6126bf84848484036000612af9565b6001600160a01b0383166127d1576000604051634b637e8f60e11b8152600401610b399190612fc0565b6001600160a01b0382166127fb57600060405163ec442f0560e01b8152600401610b399190612fc0565b6116ad838383612c26565b600080546040516311f50c8560e01b8152600260048201526001600160a01b03909116906311f50c8590602401611522565b6007546001600160a01b03163314610b42573360405163118cdaa760e01b8152600401610b399190612fc0565b6001600160a01b03821661288f57600060405163ec442f0560e01b8152600401610b399190612fc0565b61092260008383612c26565b6001600160a01b0382166128c5576000604051634b637e8f60e11b8152600401610b399190612fc0565b61092282600083612c26565b600085858585856040516020016128ec959493929190614167565b60405160208183030381529060405280519060200120905095945050505050565b6060612917610546565b61291f611588565b60075460405161293e939291600160a01b900460ff16906024016141b7565b60408051601f198184030181529190526020810180516001600160e01b0316630b127b6360e11b179052919050565b60005460405163150b375f60e01b81526001600160a01b039091169063150b375f9061267c908690869086906004016141f0565b600054604051631075c5d160e21b81526001600160a01b03909116906341d71744906129dd908a908a908a908a908a908a908a9060040161421a565b6020604051808303816000875af11580156129fc573d6000803e3d6000fd5b505050506040513d601f19601f82011682018060405250810190610aa29190613aef565b6000603436106126da575060331936013590565b600154612a955760405162461bcd60e51b815260206004820152602960248201527f4f6e6c79207265676973746572207265736f75726365207768656e206974277360448201526808185c1c1c9bdd995960ba1b6064820152608401610b39565b60005460015460405163d4f951c760e01b815260048101919091523060248201526001600160a01b039091169063d4f951c790604401600060405180830381600087803b158015612ae557600080fd5b505af11580156126bf573d6000803e3d6000fd5b6001600160a01b038416612b2357600060405163e602df0560e01b8152600401610b399190612fc0565b6001600160a01b038316612b4d576000604051634a1406b160e11b8152600401610b399190612fc0565b6001600160a01b03808516600090815260036020908152604080832093871683529290522082905580156126bf57826001600160a01b0316846001600160a01b03167f8c5be1e5ebec7d5bd14f71427d1e84f3dd0314c0f7b2291e5b200ac8c7c3b92584604051612bc091815260200190565b60405180910390a350505050565b600154612c155760405162461bcd60e51b81526020600482015260156024820152742a37b5b2b7103737ba103932b3b4b9ba32b932b21760591b6044820152606401610b39565b610f568660015487878787876129a1565b6001600160a01b038316612c51578060046000828254612c469190613f49565b90915550612cb09050565b6001600160a01b03831660009081526002602052604090205481811015612c915783818360405163391434e360e21b8152600401610b3993929190614146565b6001600160a01b03841660009081526002602052604090209082900390555b6001600160a01b038216612ccc57600480548290039055612ceb565b6001600160a01b03821660009081526002602052604090208054820190555b816001600160a01b0316836001600160a01b03167fddf252ad1be2c89b69c2b068fc378daa952ba7f163c4a11628f55a4df523b3ef83604051612d3091815260200190565b60405180910390a3505050565b6040518060400160405280612d50612db2565b8152602001606081525090565b6040805160c08101909152806000815260006020820181905260408201819052606082018190526080820181905260a09091015290565b6040518060a001604052806005906020820280368337509192915050565b604080516101208101825260008082526020820152908101612dd2612e07565b815260006020820152606060408201819052808201819052608082015260a001612dfa612d5d565b8152600060209091015290565b6040805160a08101909152600080825260208201908152606060208201526040016000612d50565b60005b83811015612e4a578181015183820152602001612e32565b50506000910152565b60008151808452612e6b816020860160208601612e2f565b601f01601f19169290920160200192915050565b602081526000612e926020830184612e53565b9392505050565b6001600160a01b038116811461137457600080fd5b60008060408385031215612ec157600080fd5b8235612ecc81612e99565b946020939093013593505050565b60008083601f840112612eec57600080fd5b5081356001600160401b03811115612f0357600080fd5b602083019150836020828501011115612f1b57600080fd5b9250929050565b600080600080600080600060c0888a031215612f3d57600080fd5b8735612f4881612e99565b96506020880135955060408801359450606088013593506080880135612f6d81612e99565b925060a08801356001600160401b03811115612f8857600080fd5b612f948a828b01612eda565b989b979a50959850939692959293505050565b600060208284031215612fb957600080fd5b5035919050565b6001600160a01b0391909116815260200190565b60008060408385031215612fe757600080fd5b50508035926020909101359150565b634e487b7160e01b600052604160045260246000fd5b604051601f8201601f191681016001600160401b038111828210171561303457613034612ff6565b604052919050565b60006001600160401b0383111561305557613055612ff6565b613068601f8401601f191660200161300c565b905082815283838301111561307c57600080fd5b828260208301376000602084830101529392505050565b600082601f8301126130a457600080fd5b612e928383356020850161303c565b803560ff811681146130c457600080fd5b919050565b6000806000606084860312156130de57600080fd5b83356001600160401b03808211156130f557600080fd5b61310187838801613093565b9450602086013591508082111561311757600080fd5b5061312486828701613093565b925050613133604085016130b3565b90509250925092565b60008060006060848603121561315157600080fd5b833561315c81612e99565b9250602084013561316c81612e99565b929592945050506040919091013590565b60008060008060008060c0878903121561319657600080fd5b863595506020870135945060408701359350606087013592506080870135915060a08701356001600160401b038111156131cf57600080fd5b87016060818a0312156131e157600080fd5b809150509295509295509295565b60006020828403121561320157600080fd5b612e92826130b3565b60006020828403121561321c57600080fd5b8135612e9281612e99565b634e487b7160e01b600052602160045260246000fd5b6006811061137457611374613227565b6020810161325a8361323d565b91905290565b60006001600160401b0382111561327957613279612ff6565b5060051b60200190565b600082601f83011261329457600080fd5b813560206132a96132a483613260565b61300c565b8083825260208201915060208460051b8701019350868411156132cb57600080fd5b602086015b848110156132f05780356132e381612e99565b83529183019183016132d0565b509695505050505050565b600082601f83011261330c57600080fd5b8135602061331c6132a483613260565b8083825260208201915060208460051b87010193508684111561333e57600080fd5b602086015b848110156132f05780358352918301918301613343565b60006060828403121561336c57600080fd5b604051606081016001600160401b03828210818311171561338f5761338f612ff6565b8160405282935084358352602085013591506133aa82612e99565b81602084015260408501359150808211156133c457600080fd5b508301601f810185136133d657600080fd5b6133e58582356020840161303c565b6040830152505092915050565b600082601f83011261340357600080fd5b813560206134136132a483613260565b82815260059290921b8401810191818101908684111561343257600080fd5b8286015b848110156132f05780356001600160401b038082111561345557600080fd5b818901915089603f83011261346957600080fd5b858201356134796132a482613260565b81815260059190911b830160400190878101908c83111561349957600080fd5b604085015b838110156134d2578035858111156134b557600080fd5b6134c48f6040838a010161335a565b84525091890191890161349e565b50875250505092840192508301613436565b600080600080600060a086880312156134fc57600080fd5b853561350781612e99565b945060208601356001600160401b038082111561352357600080fd5b61352f89838a01613283565b9550604088013591508082111561354557600080fd5b61355189838a016132fb565b9450606088013591508082111561356757600080fd5b61357389838a016132fb565b9350608088013591508082111561358957600080fd5b50613596888289016133f2565b9150509295509295909350565b6000806000606084860312156135b857600080fd5b83356135c381612e99565b92506020840135915060408401356001600160401b038111156135e557600080fd5b6135f186828701613093565b9150509250925092565b6000806040838503121561360e57600080fd5b823561361981612e99565b9150602083013561362981612e99565b809150509250929050565b60008060008060006080868803121561364c57600080fd5b853561365781612e99565b9450602086013593506040860135925060608601356001600160401b038082111561368157600080fd5b818801915088601f83011261369557600080fd5b8135818111156136a457600080fd5b8960208260051b85010111156136b957600080fd5b9699959850939650602001949392505050565b600080600080608085870312156136e257600080fd5b84356001600160401b03808211156136f957600080fd5b61370588838901613283565b9550602087013591508082111561371b57600080fd5b613727888389016132fb565b9450604087013591508082111561373d57600080fd5b613749888389016132fb565b9350606087013591508082111561375f57600080fd5b5061376c878288016133f2565b91505092959194509250565b60006020828403121561378a57600080fd5b81356001600160401b038111156137a057600080fd5b6137ac84828501613093565b949350505050565b60008060008060008060008060e0898b0312156137d057600080fd5b88356137db81612e99565b975060208901356137eb81612e99565b965060408901359550606089013594506080890135935060a089013561381081612e99565b925060c08901356001600160401b0381111561382b57600080fd5b6138378b828c01612eda565b999c989b5096995094979396929594505050565b60008060006060848603121561386057600080fd5b833561386b81612e99565b95602085013595506040909401359392505050565b600181811c9082168061389457607f821691505b6020821081036138b457634e487b7160e01b600052602260045260246000fd5b50919050565b634e487b7160e01b600052603260045260246000fd5b6000602082840312156138e257600080fd5b8151612e9281612e99565b9283526020830191909152604082015260806060820181905260009082015260a00190565b601f8211156116ad576000816000526020600020601f850160051c8101602086101561393b5750805b601f850160051c820191505b81811015610f5657828155600101613947565b81516001600160401b0381111561397357613973612ff6565b613987816139818454613880565b84613912565b602080601f8311600181146139bc57600084156139a45750858301515b600019600386901b1c1916600185901b178555610f56565b600085815260208120601f198616915b828110156139eb578886015182559484019460019091019084016139cc565b5085821015613a095787850151600019600388901b60f8161c191681555b5050505050600190811b01905550565b600060208284031215613a2b57600080fd5b81518015158114612e9257600080fd5b60208082526048908201527f5468697320697320612072656365697665206d6574686f642e204f6e6c79206560408201527f6e64706f696e742773206578656375746f722063616e2063616c6c20746869736060820152671036b2ba3437b21760c11b608082015260a00190565b6000808335601e19843603018112613ac057600080fd5b8301803591506001600160401b03821115613ada57600080fd5b602001915036819003821315612f1b57600080fd5b600060208284031215613b0157600080fd5b5051919050565b60058110613b1857613b18613227565b9052565b8051151582526000602082015160028110613b3957613b39613227565b80602085015250604082015160a06040850152613b5960a0850182612e53565b90506060830151613b6d6060860182613b08565b5060808301518482036080860152611c458282612e53565b613b90828251613b08565b60208101516020830152604081015160018060a01b038082166040850152806060840151166060850152806080840151166080850152505060a081015160a08301525050565b858152600060018060a01b03808716602084015280861660408401525060a060608301528351604060a0840152613c1260e08401825115159052565b60208101516101008181860152604083015191506101c080610120870152613c3e6102a0870184613b1c565b92506060840151610140870152608084015160df198088860301610160890152613c688583612e53565b945060a086015191508088860301610180890152613c868583612e53565b945060c0860151915080888603016101a089015250613ca58482612e53565b93505060e0840151613cb982880182613b85565b5050919091015115156102808401526020850151609f198483030160c085015290613ce48183612e53565b925050508260808301529695505050505050565b60006101008a835289602084015288604084015287606084015260018060a01b03871660808401528560a08401528460c08401528060e0840152613d3e81840185612e53565b9b9a5050505050505050505050565b613b188161323d565b6020815260008251610140806020850152613d75610160850183612e53565b91506020850151601f1980868503016040870152613d938483612e53565b93506040870151915080868503016060870152613db08483612e53565b93506060870151608087015260808701519150808685030160a0870152613dd78483612e53565b935060a08701519150808685030160c087015250613df58382612e53565b92505060c0850151613e0b60e086018215159052565b5060e0850151610100613e2081870183613d4d565b8601519050610120613e358682018315159052565b9095015160ff1693019290925250919050565b84815283602082015260018060a01b0383166040820152608060608201526000613e756080830184612e53565b9695505050505050565b6020808252603c908201527f50726f746f636f6c20646f65736e277420737570706f7274206d6f726520746860408201527f616e20352063616c6c61626c657320696e2061207472616e7366657200000000606082015260800190565b60008235605e19833603018112613ef257600080fd5b9190910192915050565b60006105ec368361335a565b60008251613ef2818460208701612e2f565b634e487b7160e01b600052601160045260246000fd5b600060018201613f4257613f42613f1a565b5060010190565b808201808211156105ec576105ec613f1a565b60008151808452602080850194506020840160005b83811015613f8d57815187529582019590820190600101613f71565b509495945050505050565b60008151808452602080850194506020840160005b83811015613f8d5781516001600160a01b031687529582019590820190600101613fad565b600060208083528351818401528084015160e06040850152613ff8610100850182613f5c565b90506040850151601f196060818785030160608801526140188484613f5c565b935060608801519250818785030160808801526140358484613f98565b6080890151888203840160a08a015280518083529195508601935085850190600581901b8601870160005b828110156140f5578782038601845286518051808452908a01908a840190600581901b85018c0160005b828110156140db578682038b0184528451805183528e8101516001600160a01b03168f8401526040908101519083018b90526140c88b840182612e53565b958f0195948f019492505060010161408a565b50998c0199968c0196945050506001919091019050614060565b5060a08b01516001600160a01b03811660c08c0152975060c08b015160e08b0152809850505050505050505092915050565b838152826020820152606060408201526000611c456060830184612e53565b6001600160a01b039390931683526020830191909152604082015260600190565b8581526001600160a01b038516602082015260a06040820181905260009061419190830186613f5c565b82810360608401526141a38186613f98565b90508281036080840152611e9f8185612e53565b6060815260006141ca6060830186612e53565b82810360208401526141dc8186612e53565b91505060ff83166040830152949350505050565b8381526001600160a01b0383166020820152606060408201819052600090611c4590830184612e53565b600061018089835288602084015280604084015261423a81840189612e53565b9050828103606084015261424e8188612e53565b905082810360808401526142628187612e53565b905082810360a08401526142768186612e53565b915050611e9f60c0830184613b8556fea2646970667358221220204c4c7a9850b99a171580aa15707d0f73371b7f20206d5b65ad4ec71d5d882a64736f6c63430008180033",
  "linkReferences": {},
  "deployedLinkReferences": {}
}