{
  "_format": "hh-sol-artifact-1",
  "contractName": "DepositToZkDvpVerifierk2",
  "sourceName": "src/rayls-protocol/Enygma/DepositToZkDvpVerifierk2.sol",
  "abi": [
    {
      "inputs": [
        {
          "internalType": "uint256[2]",
          "name": "_pA",
          "type": "uint256[2]"
        },
        {
          "internalType": "uint256[2][2]",
          "name": "_pB",
          "type": "uint256[2][2]"
        },
        {
          "internalType": "uint256[2]",
          "name": "_pC",
          "type": "uint256[2]"
        },
        {
          "internalType": "uint256[14]",
          "name": "_pubSignals",
          "type": "uint256[14]"
        }
      ],
      "name": "verifyProof",
      "outputs": [
        {
          "internalType": "bool",
          "name": "",
          "type": "bool"
        }
      ],
      "stateMutability": "view",
      "type": "function"
    }
  ],
  "bytecode": "0x608060405234801561001057600080fd5b50610a21806100206000396000f3fe608060405234801561001057600080fd5b506004361061002b5760003560e01c80638d15f88f14610030575b600080fd5b61004361003e366004610985565b610057565b604051901515815260200160405180910390f35b600061088e565b7f30644e72e131a029b85045b68181585d2833e84879b9709143e1f593f0000001811061008f576000805260206000f35b50565b600060405183815284602082015285604082015260408160608360076107d05a03fa9150816100c5576000805260206000f35b825160408201526020830151606082015260408360808360066107d05a03fa915050806100f6576000805260206000f35b5050505050565b7f2fb55d2fe065a4f0fe4b21bac5da6c93229c6f0b8c4f2348a8fa11747b0a08d285527f0ced01ba2f9e8eae9e8b8b00ebcbf0d2762344ae4431de161b5b96ed8738c45160208601526000608086018661019a87357f297aa4562b73be9ca9c937ae1d9c4da9704051b2f658e6c955cb17217adc1d137f2e038a55bcd436552b83428104c13d62747a3d62e2107d6c023aa4c3318ffc0d84610092565b6101ea60208801357f017c294636a457fa44cbe9938835b9b483255679a138aac76303b9009db1399a7f05190dcec237a24aac52345e19915d32724a9852a7ff9d4d886b9ea4e5f2641d84610092565b61023a60408801357f294928ea5c761d3b757ada03c528a4dd882c41eff4337a75cf79b2b7c33f7f757f05ea03f2af7bc5f1fa439e5f963274719ba5efff02ac4da59cb4d77c054dff8284610092565b61028a60608801357f14b5f8e0b6f60ee4d50d2c37f3561eb64bbc698a7cc1dec049f68b7edd9e6b827f0d371fd37102db2001c05f690330856c7755bdd447c849634cac8d87a55a167884610092565b6102da60808801357f0215b90c243a0c917197009ade0213b36884d154f839ef9a01540bbdb7b34cb17f0120ea3dd544766955a43114b1d51503435278369d8b976a5653d55be93de21684610092565b61032a60a08801357f093022e6a46f934e39743641738e301fd47fc32b5065290be3bee30a29798c647f039f0de560ff5ce234b608203105346f8ba3ef02c17422a1989906d038500dfb84610092565b61037a60c08801357f07c5ff9a1d39c21fbb5ebf954719008aabbf52a0ac748f6e3b76d37295c5077e7f1969ad69ffe8ead401b9ffebd093ab729b0f349f3b82bc51f1bf53b7231b070284610092565b6103ca60e08801357f1e3da0f56528de7d45094d468841dd1921fb313c9e0d856f6aac3efe3a4972ed7f2decbb54b93bdfec5d083bd9eb2d3d15d0bba54a71f2057463ccfdb9f731a47d84610092565b61041b6101008801357f2d101b0b465d2cebc1367508c479b60a0fa16b676487f1970433df8e00bf1b597f1a82902ccab20f5395f236280aebf2bb345ff90772c79d4a8b84b95110d5870b84610092565b61046c6101208801357f0b5ba8ff216dbc06be0da54b3cd25efdbd58183c67510e1fbb80ec059877b5a37f125cd32c7ae37d8e5d39cb5baea28110588e1ec29997fc99a94f8d38e25d1e2b84610092565b6104bc6101408801357e5f3a2171db7f5c21f0be3964cc406e3e7a02167d1e69a05349e57364ad41b37f06b9049c036bd1e3bc5331f6a8514ad47ebc63993b2e332c117e2690c8ed9be284610092565b61050d6101608801357f035d616f13981213e775fe2258ee21dcd42e9d0c51df20d2b3851ff8eb241f7c7f2ae9b2cbb931068e0e6b07e90cab8cc986d89cc3381dcb11453d8b741a8331e084610092565b61055e6101808801357f0c66e88188041d632c7f3c852978036d806c14fdc4ec4adf014f6d7110ddb8c47f0ff599620f5fc11321d8afe911324a5c8f7fe356f23f474b8206d55bea008fe984610092565b6105af6101a08801357f1cd88835fb772e66e09bbc83eb552156406aa7a8738b18ee149600106520e7597f049103e2ebc7e49dc59d7f021279854312dde7ff61e77e1a294abc1eaac4c91d84610092565b50823581527f30644e72e131a029b85045b68181585d97816a916871ca8d3c208c16d87cfd4760208401357f30644e72e131a029b85045b68181585d97816a916871ca8d3c208c16d87cfd4703066020820152833560408201526020840135606082015260408401356080820152606084013560a08201527f2d4d9aa7e302d9df41749d5507949d05dbea33fbb16c643b22f599a2be6df2e260c08201527f14bedd503c37ceb061d8ec60209fe345ce89830a19230301f076caff004d192660e08201527f0967032fcbf776d1afc985f88877f182d38480a653f2decaa9794cbc3bf3060c6101008201527f0e187847ad4c798374d0d6732bf501847dd68bc0e071241e0213bc7fc13db7ab6101208201527f304cfbd1e08a704a99f5e847d93f8c3caafddec46b7a0d379da69a4d112346a76101408201527f1739c1b1a457a8c7313123d24d2f9192f896b7c63eea05a9d57f06547ad0cec8610160820152600087015161018082015260206000018701516101a08201527f198e9393920d483a7260bfb731fb5d25f1aa493335a9e71297e485b7aef312c26101c08201527f1800deef121f1e76426a00665e5c4479674322d4f75edadd46debd5cd992f6ed6101e08201527f090689d0585ff075ec9e99ad690c3395bc4b313370b38ef355acdadcd122975b6102008201527f12c85ea5db8c6deb4aab71808dcb408fe3d1e7690c43d37b4ce6cc0166fa7daa610220820152843561024082015260208501356102608201527f26e549c0ccbf6f74818b88713c47c09098333f5fc078b04f49ce085b5d153e2a6102808201527f2faa59008879000d3d6aca0fce941bf5457d5fb58b906cb23f35e0607bc0609f6102a08201527f025a081ae4f5c5dccd874b81313739e2d218d0e19f4cb37288c04af049a942c46102c08201527e51fe002276eecfae5471cf769901448a7bc65c7afe2cdcc62d295ed39cf7c26102e08201526020816103008360086107d05a03fa9051169695505050505050565b60405161038081016040526108a6600084013561005e565b6108b3602084013561005e565b6108c0604084013561005e565b6108cd606084013561005e565b6108da608084013561005e565b6108e760a084013561005e565b6108f460c084013561005e565b61090160e084013561005e565b61090f61010084013561005e565b61091d61012084013561005e565b61092b61014084013561005e565b61093961016084013561005e565b61094761018084013561005e565b6109556101a084013561005e565b610962818486888a6100fd565b90508060005260206000f35b806040810183101561097f57600080fd5b92915050565b6000806000806102c080868803121561099d57600080fd5b6109a7878761096e565b945060c08601878111156109ba57600080fd5b6040870194506109ca888261096e565b9350508681870111156109dc57600080fd5b5092959194509261010001915056fea2646970667358221220613088a54ce891f6768c65403ecb5ff05356f2cb08337404db92bfc464ee88e164736f6c63430008180033",
  "linkReferences": {},
  "deployedLinkReferences": {}
}