{
  "_format": "hh-sol-artifact-1",
  "contractName": "Proofs",
  "sourceName": "src/commitChain/Proofs/Proofs.sol",
  "abi": [
    {
      "anonymous": false,
      "inputs": [
        {
          "indexed": false,
          "internalType": "string",
          "name": "print",
          "type": "string"
        },
        {
          "indexed": false,
          "internalType": "bytes",
          "name": "data",
          "type": "bytes"
        },
        {
          "indexed": true,
          "internalType": "uint256",
          "name": "blockNumber",
          "type": "uint256"
        }
      ],
      "name": "EncryptedStorageProofsBatchReceived",
      "type": "event"
    },
    {
      "anonymous": false,
      "inputs": [
        {
          "indexed": false,
          "internalType": "uint256",
          "name": "chainId",
          "type": "uint256"
        },
        {
          "indexed": false,
          "internalType": "uint256",
          "name": "blockNumber",
          "type": "uint256"
        }
      ],
      "name": "NewHeaderEvent",
      "type": "event"
    },
    {
      "inputs": [
        {
          "internalType": "uint256",
          "name": "chainId",
          "type": "uint256"
        },
        {
          "components": [
            {
              "internalType": "bytes32",
              "name": "parentHash",
              "type": "bytes32"
            },
            {
              "internalType": "bytes32",
              "name": "uncleHash",
              "type": "bytes32"
            },
            {
              "internalType": "address",
              "name": "coinbase",
              "type": "address"
            },
            {
              "internalType": "bytes32",
              "name": "root",
              "type": "bytes32"
            },
            {
              "internalType": "bytes32",
              "name": "txHash",
              "type": "bytes32"
            },
            {
              "internalType": "bytes32",
              "name": "receiptHash",
              "type": "bytes32"
            },
            {
              "internalType": "bytes",
              "name": "bloom",
              "type": "bytes"
            },
            {
              "internalType": "uint256",
              "name": "difficulty",
              "type": "uint256"
            },
            {
              "internalType": "uint256",
              "name": "number",
              "type": "uint256"
            },
            {
              "internalType": "uint256",
              "name": "gasLimit",
              "type": "uint256"
            },
            {
              "internalType": "uint256",
              "name": "gasUsed",
              "type": "uint256"
            },
            {
              "internalType": "uint256",
              "name": "time",
              "type": "uint256"
            },
            {
              "internalType": "bytes",
              "name": "extra",
              "type": "bytes"
            },
            {
              "internalType": "bytes32",
              "name": "mixDigest",
              "type": "bytes32"
            },
            {
              "internalType": "uint64",
              "name": "nonce",
              "type": "uint64"
            }
          ],
          "internalType": "struct Proofs.Header[]",
          "name": "newHeaders",
          "type": "tuple[]"
        }
      ],
      "name": "addBatchHeaders",
      "outputs": [],
      "stateMutability": "nonpayable",
      "type": "function"
    },
    {
      "inputs": [
        {
          "internalType": "uint256",
          "name": "chainId",
          "type": "uint256"
        },
        {
          "components": [
            {
              "internalType": "bytes32",
              "name": "parentHash",
              "type": "bytes32"
            },
            {
              "internalType": "bytes32",
              "name": "uncleHash",
              "type": "bytes32"
            },
            {
              "internalType": "address",
              "name": "coinbase",
              "type": "address"
            },
            {
              "internalType": "bytes32",
              "name": "root",
              "type": "bytes32"
            },
            {
              "internalType": "bytes32",
              "name": "txHash",
              "type": "bytes32"
            },
            {
              "internalType": "bytes32",
              "name": "receiptHash",
              "type": "bytes32"
            },
            {
              "internalType": "bytes",
              "name": "bloom",
              "type": "bytes"
            },
            {
              "internalType": "uint256",
              "name": "difficulty",
              "type": "uint256"
            },
            {
              "internalType": "uint256",
              "name": "number",
              "type": "uint256"
            },
            {
              "internalType": "uint256",
              "name": "gasLimit",
              "type": "uint256"
            },
            {
              "internalType": "uint256",
              "name": "gasUsed",
              "type": "uint256"
            },
            {
              "internalType": "uint256",
              "name": "time",
              "type": "uint256"
            },
            {
              "internalType": "bytes",
              "name": "extra",
              "type": "bytes"
            },
            {
              "internalType": "bytes32",
              "name": "mixDigest",
              "type": "bytes32"
            },
            {
              "internalType": "uint64",
              "name": "nonce",
              "type": "uint64"
            }
          ],
          "internalType": "struct Proofs.Header",
          "name": "header",
          "type": "tuple"
        }
      ],
      "name": "addHeader",
      "outputs": [],
      "stateMutability": "nonpayable",
      "type": "function"
    },
    {
      "inputs": [
        {
          "internalType": "bytes32",
          "name": "data",
          "type": "bytes32"
        }
      ],
      "name": "bytes32ToLiteralString",
      "outputs": [
        {
          "internalType": "string",
          "name": "result",
          "type": "string"
        }
      ],
      "stateMutability": "pure",
      "type": "function"
    },
    {
      "inputs": [
        {
          "internalType": "uint256",
          "name": "chainId",
          "type": "uint256"
        }
      ],
      "name": "getNextHeaderBlockNumber",
      "outputs": [
        {
          "internalType": "uint256",
          "name": "",
          "type": "uint256"
        }
      ],
      "stateMutability": "view",
      "type": "function"
    },
    {
      "inputs": [
        {
          "components": [
            {
              "internalType": "string",
              "name": "batchId",
              "type": "string"
            },
            {
              "internalType": "string",
              "name": "fingerprint",
              "type": "string"
            },
            {
              "internalType": "bytes",
              "name": "data",
              "type": "bytes"
            }
          ],
          "internalType": "struct Proofs.StorageProofBatch",
          "name": "batch",
          "type": "tuple"
        },
        {
          "internalType": "uint256",
          "name": "blockNumber",
          "type": "uint256"
        }
      ],
      "name": "storeEncryptedStorageProofs",
      "outputs": [],
      "stateMutability": "nonpayable",
      "type": "function"
    },
    {
      "inputs": [
        {
          "internalType": "string",
          "name": "source",
          "type": "string"
        }
      ],
      "name": "stringToBytes32",
      "outputs": [
        {
          "internalType": "bytes32",
          "name": "result",
          "type": "bytes32"
        }
      ],
      "stateMutability": "pure",
      "type": "function"
    }
  ],
  "bytecode": "0x608060405234801561001057600080fd5b50611ba1806100206000396000f3fe608060405234801561001057600080fd5b50600436106100625760003560e01c80630a5dda81146100675780633aadb7f91461007c57806352a84cd91461008f578063cfb51928146100a2578063f30863fb146100c8578063fad171de146100e8575b600080fd5b61007a6100753660046114b6565b610108565b005b61007a61008a366004611584565b6101fe565b61007a61009d3660046115cd565b610256565b6100b56100b0366004611613565b610438565b6040519081526020015b60405180910390f35b6100b56100d6366004611663565b60009081526020819052604090205490565b6100fb6100f6366004611663565b610457565b6040516100bf91906116a0565b60005b81518110156101f95780156101ce57816101266001836116e9565b81518110610136576101366116fc565b60200260200101516101000151600161014f9190611712565b828281518110610161576101616116fc565b60200260200101516101000151146101ce5760405162461bcd60e51b815260206004820152602560248201527f42617463682068656164657273206e6f7420696e2073657175656e7469616c2060448201526437b93232b960d91b60648201526084015b60405180910390fd5b6101f1838383815181106101e4576101e46116fc565b6020026020010151610256565b60010161010b565b505050565b807f061c8e486e4269cefa994efc40d99e6d3c7a2667a1c013c6312c0e6cee45a58861022d6020850185611725565b61023a6040870187611725565b60405161024a949392919061179b565b60405180910390a25050565b600082815260208190526040902054610100820151146102cf5760405162461bcd60e51b815260206004820152602e60248201527f547279696e6720746f20696e736572742061206e6f6e2d73657175656e74696160448201526d3610313637b1b5903432b0b232b960911b60648201526084016101c5565b610100810151156102e4576102e482826105e4565b600082815260208181526040808320805460018082018355918552938390208551600f9095020193845591840151918301919091558201516002820180546001600160a01b0319166001600160a01b03909216919091179055606082015160038201556080820151600482015560a0820151600582015560c08201518291906006820190610372908261184f565b5060e0820151600782015561010082015160088201556101208201516009820155610140820151600a820155610160820151600b820155610180820151600c8201906103be908261184f565b506101a0820151600d8201556101c090910151600e909101805467ffffffffffffffff19166001600160401b039092169190911790556101008101516040805184815260208101929092527fb8ee05a90df1e46e7cd44eb9885fd4d84a37fddf1cba2a231bbf93433ddc198e910160405180910390a15050565b80516000908290820361044e5750600092915050565b50506020015190565b60408051604180825260808201909252606091600091906020820181803683370190505090506000805b60208110156105db57600061049782600861190e565b86901b905060f881901c600f1660fc82901c600981116104f8576104bc816030611925565b60f81b866104c98761193e565b965086815181106104dc576104dc6116fc565b60200101906001600160f81b031916908160001a90535061053b565b610503816057611925565b60f81b866105108761193e565b96508681518110610523576105236116fc565b60200101906001600160f81b031916908160001a9053505b60098260ff161161058d57610551826030611925565b60f81b8661055e8761193e565b96508681518110610571576105716116fc565b60200101906001600160f81b031916908160001a9053506105d0565b610598826057611925565b60f81b866105a58761193e565b965086815181106105b8576105b86116fc565b60200101906001600160f81b031916908160001a9053505b505050600101610481565b50909392505050565b6000828152602081905260408120610100830151610604906001906116e9565b81548110610614576106146116fc565b60009182526020808320604080516101e081018252600f9094029091018054845260018101549284019290925260028201546001600160a01b0316908301526003810154606083015260048101546080830152600581015460a08301526006810180549194506107f89291859160c084019161068f906117cd565b80601f01602080910402602001604051908101604052809291908181526020018280546106bb906117cd565b80156107085780601f106106dd57610100808354040283529160200191610708565b820191906000526020600020905b8154815290600101906020018083116106eb57829003601f168201915b50505050508152602001600782015481526020016008820154815260200160098201548152602001600a8201548152602001600b8201548152602001600c82018054610753906117cd565b80601f016020809104026020016040519081016040528092919081815260200182805461077f906117cd565b80156107cc5780601f106107a1576101008083540402835291602001916107cc565b820191906000526020600020905b8154815290600101906020018083116107af57829003601f168201915b5050509183525050600d8201546020820152600e909101546001600160401b0316604090910152610882565b805190602001209050600061081d600185610100015161081891906116e9565b610bd2565b845161082890610457565b61083184610457565b60405160200161084393929190611957565b604051602081830303815290604052905083600001518214819061087a5760405162461bcd60e51b81526004016101c591906116a0565b505050505050565b60408051600f808252610200820190925260609160009190816020015b606081526020019060019003908161089f5790505090506108e483600001516040516020016108d091815260200190565b604051602081830303815290604052610cfd565b816000815181106108f7576108f76116fc565b602002602001018190525061091c83602001516040516020016108d091815260200190565b8160018151811061092f5761092f6116fc565b60200260200101819052506109478360400151610d55565b8160028151811061095a5761095a6116fc565b602002602001018190525061097f83606001516040516020016108d091815260200190565b81600381518110610992576109926116fc565b60200260200101819052506109b783608001516040516020016108d091815260200190565b816004815181106109ca576109ca6116fc565b60200260200101819052506109ef8360a001516040516020016108d091815260200190565b81600581518110610a0257610a026116fc565b6020026020010181905250610a1a8360c00151610cfd565b81600681518110610a2d57610a2d6116fc565b6020026020010181905250610a458360e00151610d78565b81600781518110610a5857610a586116fc565b6020026020010181905250610a71836101000151610d78565b81600881518110610a8457610a846116fc565b6020026020010181905250610a9d836101200151610d78565b81600981518110610ab057610ab06116fc565b6020026020010181905250610ac9836101400151610d78565b81600a81518110610adc57610adc6116fc565b6020026020010181905250610af5836101600151610d78565b81600b81518110610b0857610b086116fc565b6020026020010181905250610b21836101800151610cfd565b81600c81518110610b3457610b346116fc565b6020026020010181905250610b5a836101a001516040516020016108d091815260200190565b81600d81518110610b6d57610b6d6116fc565b6020026020010181905250610ba4836101c001516040516020016108d0919060c09190911b6001600160c01b031916815260080190565b81600e81518110610bb757610bb76116fc565b6020026020010181905250610bcb81610d8b565b9392505050565b606081600003610bf95750506040805180820190915260018152600360fc1b602082015290565b8160005b8115610c235780610c0d8161193e565b9150610c1c9050600a83611a53565b9150610bfd565b6000816001600160401b03811115610c3d57610c3d611295565b6040519080825280601f01601f191660200182016040528015610c67576020820181803683370190505b509050815b8515610cf457610c7d6001826116e9565b90506000610c8c600a88611a53565b610c9790600a61190e565b610ca190886116e9565b610cac906030611925565b905060008160f81b905080848481518110610cc957610cc96116fc565b60200101906001600160f81b031916908160001a905350610ceb600a89611a53565b97505050610c6c565b50949350505050565b60608082516001148015610d2b5750608083600081518110610d2157610d216116fc565b016020015160f81c105b15610d37575081610d4f565b610d4c610d4684516080610daf565b84610f66565b90505b92915050565b60408051600560a21b8318601482015260348101909152606090610bcb81610cfd565b6060610d4f610d8683610fe3565b610cfd565b60606000610d9883611100565b9050610bcb610da9825160c0610daf565b82610f66565b6060806038841015610e195760408051600180825281830190925290602082018180368337019050509050610de48385611712565b601f1a60f81b81600081518110610dfd57610dfd6116fc565b60200101906001600160f81b031916908160001a905350610d4c565b600060015b610e288187611a53565b15610e4e5781610e378161193e565b9250610e4790506101008261190e565b9050610e1e565b610e59826001611712565b6001600160401b03811115610e7057610e70611295565b6040519080825280601f01601f191660200182016040528015610e9a576020820181803683370190505b509250610ea78583611712565b610eb2906037611712565b601f1a60f81b83600081518110610ecb57610ecb6116fc565b60200101906001600160f81b031916908160001a905350600190505b818111610f5c57610100610efb82846116e9565b610f0790610100611b4b565b610f119088611a53565b610f1b9190611b57565b601f1a60f81b838281518110610f3357610f336116fc565b60200101906001600160f81b031916908160001a90535080610f548161193e565b915050610ee7565b5050905092915050565b6060806040519050835180825260208201818101602087015b81831015610f97578051835260209283019201610f7f565b50855184518101855292509050808201602086015b81831015610fc4578051835260209283019201610fac565b508651929092011591909101601f01601f191660405250905092915050565b6040805160208082528183019092526060916000919060208201818036833701905050905082602082015260005b602081101561104a5781818151811061102c5761102c6116fc565b01602001516001600160f81b03191660000361104a57600101611011565b60006110578260206116e9565b6001600160401b0381111561106e5761106e611295565b6040519080825280601f01601f191660200182016040528015611098576020820181803683370190505b50905060005b8151811015610cf45783836110b28161193e565b9450815181106110c4576110c46116fc565b602001015160f81c60f81b8282815181106110e1576110e16116fc565b60200101906001600160f81b031916908160001a90535060010161109e565b6060815160000361111f57505060408051600081526020810190915290565b6000805b835181101561115c5783818151811061113e5761113e6116fc565b602002602001015151826111529190611712565b9150600101611123565b6000826001600160401b0381111561117657611176611295565b6040519080825280601f01601f1916602001820160405280156111a0576020820181803683370190505b50600092509050602081015b8551831015610cf45760008684815181106111c9576111c96116fc565b6020026020010151905060006020820190506111e78382845161121d565b8785815181106111f9576111f96116fc565b6020026020010151518361120d9190611712565b60019095019492506111ac915050565b8282825b602081106112595781518352611238602084611712565b9250611245602083611712565b91506112526020826116e9565b9050611221565b600060016112688360206116e9565b61127490610100611b4b565b61127e91906116e9565b925184518416931916929092179092525050505050565b634e487b7160e01b600052604160045260246000fd5b6040516101e081016001600160401b03811182821017156112ce576112ce611295565b60405290565b604051601f8201601f191681016001600160401b03811182821017156112fc576112fc611295565b604052919050565b80356001600160a01b038116811461131b57600080fd5b919050565b60006001600160401b0383111561133957611339611295565b61134c601f8401601f19166020016112d4565b905082815283838301111561136057600080fd5b828260208301376000602084830101529392505050565b600082601f83011261138857600080fd5b610bcb83833560208501611320565b80356001600160401b038116811461131b57600080fd5b60006101e082840312156113c157600080fd5b6113c96112ab565b905081358152602082013560208201526113e560408301611304565b6040820152606082013560608201526080820135608082015260a082013560a082015260c08201356001600160401b038082111561142257600080fd5b61142e85838601611377565b60c084015260e0848101359084015261010080850135908401526101208085013590840152610140808501359084015261016080850135908401526101809150818401358181111561147f57600080fd5b61148b86828701611377565b838501525050506101a08083013581830152506101c06114ac818401611397565b9082015292915050565b600080604083850312156114c957600080fd5b823591506020808401356001600160401b03808211156114e857600080fd5b818601915086601f8301126114fc57600080fd5b81358181111561150e5761150e611295565b8060051b61151d8582016112d4565b918252838101850191858101908a84111561153757600080fd5b86860192505b83831015611573578235858111156115555760008081fd5b6115638c89838a01016113ae565b835250918601919086019061153d565b809750505050505050509250929050565b6000806040838503121561159757600080fd5b82356001600160401b038111156115ad57600080fd5b8301606081860312156115bf57600080fd5b946020939093013593505050565b600080604083850312156115e057600080fd5b8235915060208301356001600160401b038111156115fd57600080fd5b611609858286016113ae565b9150509250929050565b60006020828403121561162557600080fd5b81356001600160401b0381111561163b57600080fd5b8201601f8101841361164c57600080fd5b61165b84823560208401611320565b949350505050565b60006020828403121561167557600080fd5b5035919050565b60005b8381101561169757818101518382015260200161167f565b50506000910152565b60208152600082518060208401526116bf81604085016020870161167c565b601f01601f19169190910160400192915050565b634e487b7160e01b600052601160045260246000fd5b81810381811115610d4f57610d4f6116d3565b634e487b7160e01b600052603260045260246000fd5b80820180821115610d4f57610d4f6116d3565b6000808335601e1984360301811261173c57600080fd5b8301803591506001600160401b0382111561175657600080fd5b60200191503681900382131561176b57600080fd5b9250929050565b81835281816020850137506000828201602090810191909152601f909101601f19169091010190565b6040815260006117af604083018688611772565b82810360208401526117c2818587611772565b979650505050505050565b600181811c908216806117e157607f821691505b60208210810361180157634e487b7160e01b600052602260045260246000fd5b50919050565b601f8211156101f9576000816000526020600020601f850160051c810160208610156118305750805b601f850160051c820191505b8181101561087a5782815560010161183c565b81516001600160401b0381111561186857611868611295565b61187c8161187684546117cd565b84611807565b602080601f8311600181146118b157600084156118995750858301515b600019600386901b1c1916600185901b17855561087a565b600085815260208120601f198616915b828110156118e0578886015182559484019460019091019084016118c1565b50858210156118fe5787850151600019600388901b60f8161c191681555b5050505050600190811b01905550565b8082028115828204841417610d4f57610d4f6116d3565b60ff8181168382160190811115610d4f57610d4f6116d3565b600060018201611950576119506116d3565b5060010190565b7f426c6f636b2068656164657220636865636b206661696c65642020626c6f636b815267010373ab6b132b9160c51b6020820152600084516119a081602885016020890161167c565b7f2063757272656e742068656164657220706172656e74206861736820287072656028918401918201526b03b34b7bab9903430b9b414960a51b604882015284516119f281605484016020890161167c565b7f2063616c63756c617465642070726576696f757320626c6f636b206861736820605492909101918201528351611a3081607484016020880161167c565b0160740195945050505050565b634e487b7160e01b600052601260045260246000fd5b600082611a6257611a62611a3d565b500490565b600181815b80851115611aa2578160001904821115611a8857611a886116d3565b80851615611a9557918102915b93841c9390800290611a6c565b509250929050565b600082611ab957506001610d4f565b81611ac657506000610d4f565b8160018114611adc5760028114611ae657611b02565b6001915050610d4f565b60ff841115611af757611af76116d3565b50506001821b610d4f565b5060208310610133831016604e8410600b8410161715611b25575081810a610d4f565b611b2f8383611a67565b8060001904821115611b4357611b436116d3565b029392505050565b6000610bcb8383611aaa565b600082611b6657611b66611a3d565b50069056fea26469706673582212200a344656c551809c2cd0818b75bd81392f928aedbdb44479332e470421a7b6e564736f6c63430008180033",
  "linkReferences": {},
  "deployedLinkReferences": {}
}