{
  "_format": "hh-sol-artifact-1",
  "contractName": "RaylsContractFactoryV1",
  "sourceName": "src/rayls-protocol/RaylsContractFactory/RaylsContractFactoryV1.sol",
  "abi": [
    {
      "inputs": [],
      "name": "AccessControlBadConfirmation",
      "type": "error"
    },
    {
      "inputs": [
        {
          "internalType": "address",
          "name": "account",
          "type": "address"
        },
        {
          "internalType": "bytes32",
          "name": "neededRole",
          "type": "bytes32"
        }
      ],
      "name": "AccessControlUnauthorizedAccount",
      "type": "error"
    },
    {
      "inputs": [
        {
          "internalType": "address",
          "name": "target",
          "type": "address"
        }
      ],
      "name": "AddressEmptyCode",
      "type": "error"
    },
    {
      "inputs": [],
      "name": "Create2EmptyBytecode",
      "type": "error"
    },
    {
      "inputs": [],
      "name": "Create2FailedDeployment",
      "type": "error"
    },
    {
      "inputs": [
        {
          "internalType": "uint256",
          "name": "balance",
          "type": "uint256"
        },
        {
          "internalType": "uint256",
          "name": "needed",
          "type": "uint256"
        }
      ],
      "name": "Create2InsufficientBalance",
      "type": "error"
    },
    {
      "inputs": [
        {
          "internalType": "address",
          "name": "implementation",
          "type": "address"
        }
      ],
      "name": "ERC1967InvalidImplementation",
      "type": "error"
    },
    {
      "inputs": [],
      "name": "ERC1967NonPayable",
      "type": "error"
    },
    {
      "inputs": [],
      "name": "FailedInnerCall",
      "type": "error"
    },
    {
      "inputs": [],
      "name": "InvalidInitialization",
      "type": "error"
    },
    {
      "inputs": [],
      "name": "NotInitializing",
      "type": "error"
    },
    {
      "inputs": [
        {
          "internalType": "address",
          "name": "owner",
          "type": "address"
        }
      ],
      "name": "OwnableInvalidOwner",
      "type": "error"
    },
    {
      "inputs": [
        {
          "internalType": "address",
          "name": "account",
          "type": "address"
        }
      ],
      "name": "OwnableUnauthorizedAccount",
      "type": "error"
    },
    {
      "inputs": [],
      "name": "UUPSUnauthorizedCallContext",
      "type": "error"
    },
    {
      "inputs": [
        {
          "internalType": "bytes32",
          "name": "slot",
          "type": "bytes32"
        }
      ],
      "name": "UUPSUnsupportedProxiableUUID",
      "type": "error"
    },
    {
      "anonymous": false,
      "inputs": [
        {
          "indexed": true,
          "internalType": "address",
          "name": "deployedAddress",
          "type": "address"
        }
      ],
      "name": "DeployedContract",
      "type": "event"
    },
    {
      "anonymous": false,
      "inputs": [
        {
          "indexed": false,
          "internalType": "uint64",
          "name": "version",
          "type": "uint64"
        }
      ],
      "name": "Initialized",
      "type": "event"
    },
    {
      "anonymous": false,
      "inputs": [
        {
          "indexed": true,
          "internalType": "address",
          "name": "previousOwner",
          "type": "address"
        },
        {
          "indexed": true,
          "internalType": "address",
          "name": "newOwner",
          "type": "address"
        }
      ],
      "name": "OwnershipTransferred",
      "type": "event"
    },
    {
      "anonymous": false,
      "inputs": [
        {
          "indexed": true,
          "internalType": "bytes32",
          "name": "role",
          "type": "bytes32"
        },
        {
          "indexed": true,
          "internalType": "bytes32",
          "name": "previousAdminRole",
          "type": "bytes32"
        },
        {
          "indexed": true,
          "internalType": "bytes32",
          "name": "newAdminRole",
          "type": "bytes32"
        }
      ],
      "name": "RoleAdminChanged",
      "type": "event"
    },
    {
      "anonymous": false,
      "inputs": [
        {
          "indexed": true,
          "internalType": "bytes32",
          "name": "role",
          "type": "bytes32"
        },
        {
          "indexed": true,
          "internalType": "address",
          "name": "account",
          "type": "address"
        },
        {
          "indexed": true,
          "internalType": "address",
          "name": "sender",
          "type": "address"
        }
      ],
      "name": "RoleGranted",
      "type": "event"
    },
    {
      "anonymous": false,
      "inputs": [
        {
          "indexed": true,
          "internalType": "bytes32",
          "name": "role",
          "type": "bytes32"
        },
        {
          "indexed": true,
          "internalType": "address",
          "name": "account",
          "type": "address"
        },
        {
          "indexed": true,
          "internalType": "address",
          "name": "sender",
          "type": "address"
        }
      ],
      "name": "RoleRevoked",
      "type": "event"
    },
    {
      "anonymous": false,
      "inputs": [
        {
          "indexed": true,
          "internalType": "address",
          "name": "implementation",
          "type": "address"
        }
      ],
      "name": "Upgraded",
      "type": "event"
    },
    {
      "inputs": [],
      "name": "DEFAULT_ADMIN_ROLE",
      "outputs": [
        {
          "internalType": "bytes32",
          "name": "",
          "type": "bytes32"
        }
      ],
      "stateMutability": "view",
      "type": "function"
    },
    {
      "inputs": [],
      "name": "ENDPOINT_ROLE",
      "outputs": [
        {
          "internalType": "bytes32",
          "name": "",
          "type": "bytes32"
        }
      ],
      "stateMutability": "view",
      "type": "function"
    },
    {
      "inputs": [],
      "name": "FACTORY_ADMIN",
      "outputs": [
        {
          "internalType": "bytes32",
          "name": "",
          "type": "bytes32"
        }
      ],
      "stateMutability": "view",
      "type": "function"
    },
    {
      "inputs": [],
      "name": "UPGRADE_INTERFACE_VERSION",
      "outputs": [
        {
          "internalType": "string",
          "name": "",
          "type": "string"
        }
      ],
      "stateMutability": "view",
      "type": "function"
    },
    {
      "inputs": [],
      "name": "contractVersion",
      "outputs": [
        {
          "internalType": "uint256",
          "name": "",
          "type": "uint256"
        }
      ],
      "stateMutability": "pure",
      "type": "function"
    },
    {
      "inputs": [
        {
          "internalType": "bytes",
          "name": "bytecode",
          "type": "bytes"
        },
        {
          "internalType": "bytes",
          "name": "initializerParams",
          "type": "bytes"
        },
        {
          "internalType": "bytes32",
          "name": "resourceId",
          "type": "bytes32"
        }
      ],
      "name": "deploy",
      "outputs": [
        {
          "internalType": "address",
          "name": "deployedAddress",
          "type": "address"
        }
      ],
      "stateMutability": "nonpayable",
      "type": "function"
    },
    {
      "inputs": [],
      "name": "endpoint",
      "outputs": [
        {
          "internalType": "address",
          "name": "",
          "type": "address"
        }
      ],
      "stateMutability": "view",
      "type": "function"
    },
    {
      "inputs": [
        {
          "internalType": "bytes32",
          "name": "role",
          "type": "bytes32"
        }
      ],
      "name": "getRoleAdmin",
      "outputs": [
        {
          "internalType": "bytes32",
          "name": "",
          "type": "bytes32"
        }
      ],
      "stateMutability": "view",
      "type": "function"
    },
    {
      "inputs": [
        {
          "internalType": "bytes32",
          "name": "role",
          "type": "bytes32"
        },
        {
          "internalType": "address",
          "name": "account",
          "type": "address"
        }
      ],
      "name": "grantRole",
      "outputs": [],
      "stateMutability": "nonpayable",
      "type": "function"
    },
    {
      "inputs": [
        {
          "internalType": "bytes32",
          "name": "role",
          "type": "bytes32"
        },
        {
          "internalType": "address",
          "name": "account",
          "type": "address"
        }
      ],
      "name": "hasRole",
      "outputs": [
        {
          "internalType": "bool",
          "name": "",
          "type": "bool"
        }
      ],
      "stateMutability": "view",
      "type": "function"
    },
    {
      "inputs": [
        {
          "internalType": "address",
          "name": "_endpoint",
          "type": "address"
        },
        {
          "internalType": "address",
          "name": "_owner",
          "type": "address"
        }
      ],
      "name": "initialize",
      "outputs": [],
      "stateMutability": "nonpayable",
      "type": "function"
    },
    {
      "inputs": [],
      "name": "owner",
      "outputs": [
        {
          "internalType": "address",
          "name": "",
          "type": "address"
        }
      ],
      "stateMutability": "view",
      "type": "function"
    },
    {
      "inputs": [],
      "name": "proxiableUUID",
      "outputs": [
        {
          "internalType": "bytes32",
          "name": "",
          "type": "bytes32"
        }
      ],
      "stateMutability": "view",
      "type": "function"
    },
    {
      "inputs": [],
      "name": "renounceOwnership",
      "outputs": [],
      "stateMutability": "nonpayable",
      "type": "function"
    },
    {
      "inputs": [
        {
          "internalType": "bytes32",
          "name": "role",
          "type": "bytes32"
        },
        {
          "internalType": "address",
          "name": "callerConfirmation",
          "type": "address"
        }
      ],
      "name": "renounceRole",
      "outputs": [],
      "stateMutability": "nonpayable",
      "type": "function"
    },
    {
      "inputs": [
        {
          "internalType": "bytes32",
          "name": "role",
          "type": "bytes32"
        },
        {
          "internalType": "address",
          "name": "account",
          "type": "address"
        }
      ],
      "name": "revokeRole",
      "outputs": [],
      "stateMutability": "nonpayable",
      "type": "function"
    },
    {
      "inputs": [
        {
          "internalType": "bytes4",
          "name": "interfaceId",
          "type": "bytes4"
        }
      ],
      "name": "supportsInterface",
      "outputs": [
        {
          "internalType": "bool",
          "name": "",
          "type": "bool"
        }
      ],
      "stateMutability": "view",
      "type": "function"
    },
    {
      "inputs": [
        {
          "internalType": "enum RaylsBridgeableERC",
          "name": "",
          "type": "uint8"
        }
      ],
      "name": "templateToImplementationAddress",
      "outputs": [
        {
          "internalType": "address",
          "name": "",
          "type": "address"
        }
      ],
      "stateMutability": "view",
      "type": "function"
    },
    {
      "inputs": [
        {
          "internalType": "address",
          "name": "newOwner",
          "type": "address"
        }
      ],
      "name": "transferOwnership",
      "outputs": [],
      "stateMutability": "nonpayable",
      "type": "function"
    },
    {
      "inputs": [
        {
          "internalType": "address",
          "name": "newImplementation",
          "type": "address"
        },
        {
          "internalType": "bytes",
          "name": "data",
          "type": "bytes"
        }
      ],
      "name": "upgradeToAndCall",
      "outputs": [],
      "stateMutability": "payable",
      "type": "function"
    }
  ],
  "bytecode": "0x60a06040523060805234801561001457600080fd5b5060805161147f61003e60003960008181610b7a01528181610ba30152610cdb015261147f6000f3fe6080604052600436106100ff5760003560e01c8063715018a611610090578063715018a6146102725780638da5cb5b1461028757806391d148541461029c57806394e34da4146102bc578063a0a8e460146102de578063a217fddf146102f2578063ad3cb1cc14610307578063d547741f14610345578063dcfc462214610365578063f2fde38b1461039b57600080fd5b806301ffc9a71461010457806319e011ad14610139578063248a9ca31461016657806328a854e6146101945780632f2ff15d146101c857806336568abe146101ea578063485cc9551461020a5780634f1ef2861461022a57806352d1902d1461023d5780635e280f1114610252575b600080fd5b34801561011057600080fd5b5061012461011f36600461100e565b6103bb565b60405190151581526020015b60405180910390f35b34801561014557600080fd5b50610159610154366004611080565b6103f2565b60405161013091906110f3565b34801561017257600080fd5b50610186610181366004611107565b6105d8565b604051908152602001610130565b3480156101a057600080fd5b506101867f334e4ff29b2b33ea01e68e72a933a3c413941d8539341b73a9bd86a2ae4d12f681565b3480156101d457600080fd5b506101e86101e336600461113c565b6105f8565b005b3480156101f657600080fd5b506101e861020536600461113c565b61061a565b34801561021657600080fd5b506101e8610225366004611168565b610652565b6101e86102383660046111a8565b6107b0565b34801561024957600080fd5b506101866107cf565b34801561025e57600080fd5b50600154610159906001600160a01b031681565b34801561027e57600080fd5b506101e86107ec565b34801561029357600080fd5b50610159610800565b3480156102a857600080fd5b506101246102b736600461113c565b61081b565b3480156102c857600080fd5b5061018660008051602061140a83398151915281565b3480156102ea57600080fd5b506001610186565b3480156102fe57600080fd5b50610186600081565b34801561031357600080fd5b50610338604051806040016040528060058152602001640352e302e360dc1b81525081565b604051610130919061128d565b34801561035157600080fd5b506101e861036036600461113c565b610851565b34801561037157600080fd5b506101596103803660046112c0565b6002602052600090815260409020546001600160a01b031681565b3480156103a757600080fd5b506101e86103b63660046112e1565b61086d565b60006001600160e01b03198216637965db0b60e01b14806103ec57506301ffc9a760e01b6001600160e01b03198316145b92915050565b600060008051602061140a83398151915261040c816108ab565b600061047b60008060008154610421906112fc565b918290555060408051602081019290925201604051602081830303815290604052805190602001206104538b8b6108b5565b8b8b60405160200161046793929190611323565b604051602081830303815290604052610976565b6001549091506000906001600160a01b0380841691899189911661049d610800565b896040516020016104b295949392919061134b565b60408051601f19818403018152908290526104cc9161137d565b6000604051808303816000865af19150503d8060008114610509576040519150601f19603f3d011682016040523d82523d6000602084013e61050e565b606091505b50509050806105985760405162461bcd60e51b8152602060048201526044602482018190527f4661696c6564206f6e20636f6e747261637420696e697469616c697a6174696f908201527f6e207768696c65206465706c6f79696e672061207265736f75726365206c6f63606482015263616c6c7960e01b608482015260a4015b60405180910390fd5b6040516001600160a01b038316907faf3c4b03f515b5a38f3c238fdc24abf10854a2f27f2a85743a71de17e9bc7e7f90600090a250979650505050505050565b6000806105e36109fd565b60009384526020525050604090206001015490565b610601826105d8565b61060a816108ab565b6106148383610a21565b50505050565b6001600160a01b03811633146106435760405163334bd91960e11b815260040160405180910390fd5b61064d8282610ac2565b505050565b600061065c610b3a565b805490915060ff600160401b82041615906001600160401b03166000811580156106835750825b90506000826001600160401b0316600114801561069f5750303b155b9050811580156106ad575080155b156106cb5760405163f92ee8a960e01b815260040160405180910390fd5b845467ffffffffffffffff1916600117855583156106f557845460ff60401b1916600160401b1785555b6106fe86610b5e565b61071660008051602061140a83398151915288610a21565b506107417f334e4ff29b2b33ea01e68e72a933a3c413941d8539341b73a9bd86a2ae4d12f633610a21565b50600180546001600160a01b0319166001600160a01b0389161790556000805583156107a757845460ff60401b19168555604051600181527fc7f505b2f371ae2175ee4913f4499e1f2633a7b5936321eed1cdaeb6115181d29060200160405180910390a15b50505050505050565b6107b8610b6f565b6107c182610c14565b6107cb8282610c1c565b5050565b60006107d9610cd0565b5060008051602061142a83398151915290565b6107f4610d19565b6107fe6000610d4b565b565b60008061080b610da7565b546001600160a01b031692915050565b6000806108266109fd565b6000948552602090815260408086206001600160a01b03959095168652939052505090205460ff1690565b61085a826105d8565b610863816108ab565b6106148383610ac2565b610875610d19565b6001600160a01b03811661089f576000604051631e4fbdf760e01b815260040161058f91906110f3565b6108a881610d4b565b50565b6108a88133610dcb565b6040805160f083901b6001600160f01b0319166020820152815160028183030181526022909101909152606090606160f81b9060ff8411610923576040516001600160f81b031960f886901b166020820152600360fd1b925060210160405160208183030381529060405290505b60405161095d90710608060405234801561001057600080fd5b560741b90849084906a4030801030001cb00079ff60a91b90602001611399565b6040516020818303038152906040529250505092915050565b6000834710156109a25760405163392efb2b60e21b81524760048201526024810185905260440161058f565b81516000036109c457604051631328927760e21b815260040160405180910390fd5b8282516020840186f590506001600160a01b0381166109f657604051633a0ba96160e11b815260040160405180910390fd5b9392505050565b7f02dd7bc7dec4dceedda775e58dd541e08a116c6c53815c0bd028192f7b62680090565b600080610a2c6109fd565b9050610a38848461081b565b610ab8576000848152602082815260408083206001600160a01b03871684529091529020805460ff19166001179055610a6e3390565b6001600160a01b0316836001600160a01b0316857f2f8788117e7eff1d82e926ec794901d17c78024a50270940304540a733656f0d60405160405180910390a460019150506103ec565b60009150506103ec565b600080610acd6109fd565b9050610ad9848461081b565b15610ab8576000848152602082815260408083206001600160a01b0387168085529252808320805460ff1916905551339287917ff6391f5c32d9c69d2a47ea670b442974b53935d1edc7fd64eb21e047a839171b9190a460019150506103ec565b7ff0c57e16840df040f15088dc2f81fe391c3923bec73e23a9662efc9c229c6a0090565b610b66610e04565b6108a881610e29565b306001600160a01b037f0000000000000000000000000000000000000000000000000000000000000000161480610bf657507f00000000000000000000000000000000000000000000000000000000000000006001600160a01b0316610bea60008051602061142a833981519152546001600160a01b031690565b6001600160a01b031614155b156107fe5760405163703e46dd60e11b815260040160405180910390fd5b6108a8610d19565b816001600160a01b03166352d1902d6040518163ffffffff1660e01b8152600401602060405180830381865afa925050508015610c76575060408051601f3d908101601f19168201909252610c73918101906113f0565b60015b610c955781604051634c9c8ce360e01b815260040161058f91906110f3565b60008051602061142a8339815191528114610cc657604051632a87526960e21b81526004810182905260240161058f565b61064d8383610e31565b306001600160a01b037f000000000000000000000000000000000000000000000000000000000000000016146107fe5760405163703e46dd60e11b815260040160405180910390fd5b33610d22610800565b6001600160a01b0316146107fe573360405163118cdaa760e01b815260040161058f91906110f3565b6000610d55610da7565b80546001600160a01b038481166001600160a01b031983168117845560405193945091169182907f8be0079c531659141344cd1fd0a4f28419497f9722a3daafe3b4186f6b6457e090600090a3505050565b7f9016d09d72d40fdae2fd8ceac6b6234c7706214fd39c1cd1e609a0528c19930090565b610dd5828261081b565b6107cb5760405163e2517d3f60e01b81526001600160a01b03821660048201526024810183905260440161058f565b610e0c610e87565b6107fe57604051631afcd79f60e31b815260040160405180910390fd5b610875610e04565b610e3a82610ea1565b6040516001600160a01b038316907fbc7cd75a20ee27fd9adebab32041f755214dbc6bffa90cc0225b39da2e5c2d3b90600090a2805115610e7f5761064d8282610efd565b6107cb610f73565b6000610e91610b3a565b54600160401b900460ff16919050565b806001600160a01b03163b600003610ece5780604051634c9c8ce360e01b815260040161058f91906110f3565b60008051602061142a83398151915280546001600160a01b0319166001600160a01b0392909216919091179055565b6060600080846001600160a01b031684604051610f1a919061137d565b600060405180830381855af49150503d8060008114610f55576040519150601f19603f3d011682016040523d82523d6000602084013e610f5a565b606091505b5091509150610f6a858383610f92565b95945050505050565b34156107fe5760405163b398979f60e01b815260040160405180910390fd5b606082610fa757610fa282610fe5565b6109f6565b8151158015610fbe57506001600160a01b0384163b155b15610fde5783604051639996b31560e01b815260040161058f91906110f3565b50806109f6565b805115610ff55780518082602001fd5b604051630a12f52160e11b815260040160405180910390fd5b60006020828403121561102057600080fd5b81356001600160e01b0319811681146109f657600080fd5b60008083601f84011261104a57600080fd5b5081356001600160401b0381111561106157600080fd5b60208301915083602082850101111561107957600080fd5b9250929050565b60008060008060006060868803121561109857600080fd5b85356001600160401b03808211156110af57600080fd5b6110bb89838a01611038565b909750955060208801359150808211156110d457600080fd5b506110e188828901611038565b96999598509660400135949350505050565b6001600160a01b0391909116815260200190565b60006020828403121561111957600080fd5b5035919050565b80356001600160a01b038116811461113757600080fd5b919050565b6000806040838503121561114f57600080fd5b8235915061115f60208401611120565b90509250929050565b6000806040838503121561117b57600080fd5b61118483611120565b915061115f60208401611120565b634e487b7160e01b600052604160045260246000fd5b600080604083850312156111bb57600080fd5b6111c483611120565b915060208301356001600160401b03808211156111e057600080fd5b818501915085601f8301126111f457600080fd5b81358181111561120657611206611192565b604051601f8201601f19908116603f0116810190838211818310171561122e5761122e611192565b8160405282815288602084870101111561124757600080fd5b8260208601602083013760006020848301015280955050505050509250929050565b60005b8381101561128457818101518382015260200161126c565b50506000910152565b60208152600082518060208401526112ac816040850160208701611269565b601f01601f19169190910160400192915050565b6000602082840312156112d257600080fd5b8135600581106109f657600080fd5b6000602082840312156112f357600080fd5b6109f682611120565b60006001820161131c57634e487b7160e01b600052601160045260246000fd5b5060010190565b60008451611335818460208901611269565b8201838582376000930192835250909392505050565b848682376001600160601b0319606094851b8116959091019485529190921b1660148301526028820152604801919050565b6000825161138f818460208701611269565b9190910192915050565b6001600160701b0319851681526001600160f81b03198416601282015282516000906113cc816013850160208801611269565b6001600160a81b031993909316919092016013810191909152601e01949350505050565b60006020828403121561140257600080fd5b505191905056fe26a036758c58f95d234ddd7f8ae1abde719ba133f72ca92fd099079c5e955153360894a13ba1a3210667c828492db98dca3e2076cc3735a920a3ca505d382bbca2646970667358221220b5a19ff58143cc3bc78aeda2414f0d22f84243753f1ed057a199b4c81e15e5dd64736f6c63430008180033",
  "linkReferences": {},
  "deployedLinkReferences": {}
}