{
  "_format": "hh-sol-artifact-1",
  "contractName": "DeploymentRegistry",
  "sourceName": "src/privacy-ledger/DeploymentRegistry.sol",
  "abi": [
    {
      "inputs": [],
      "stateMutability": "nonpayable",
      "type": "constructor"
    },
    {
      "inputs": [],
      "name": "AccessControlBadConfirmation",
      "type": "error"
    },
    {
      "inputs": [
        {
          "internalType": "address",
          "name": "account",
          "type": "address"
        },
        {
          "internalType": "bytes32",
          "name": "neededRole",
          "type": "bytes32"
        }
      ],
      "name": "AccessControlUnauthorizedAccount",
      "type": "error"
    },
    {
      "inputs": [
        {
          "internalType": "address",
          "name": "target",
          "type": "address"
        }
      ],
      "name": "AddressEmptyCode",
      "type": "error"
    },
    {
      "inputs": [
        {
          "internalType": "address",
          "name": "implementation",
          "type": "address"
        }
      ],
      "name": "ERC1967InvalidImplementation",
      "type": "error"
    },
    {
      "inputs": [],
      "name": "ERC1967NonPayable",
      "type": "error"
    },
    {
      "inputs": [],
      "name": "FailedInnerCall",
      "type": "error"
    },
    {
      "inputs": [],
      "name": "InvalidInitialization",
      "type": "error"
    },
    {
      "inputs": [],
      "name": "NotInitializing",
      "type": "error"
    },
    {
      "inputs": [],
      "name": "UUPSUnauthorizedCallContext",
      "type": "error"
    },
    {
      "inputs": [
        {
          "internalType": "bytes32",
          "name": "slot",
          "type": "bytes32"
        }
      ],
      "name": "UUPSUnsupportedProxiableUUID",
      "type": "error"
    },
    {
      "anonymous": false,
      "inputs": [
        {
          "indexed": false,
          "internalType": "uint64",
          "name": "version",
          "type": "uint64"
        }
      ],
      "name": "Initialized",
      "type": "event"
    },
    {
      "anonymous": false,
      "inputs": [
        {
          "indexed": true,
          "internalType": "bytes32",
          "name": "role",
          "type": "bytes32"
        },
        {
          "indexed": true,
          "internalType": "bytes32",
          "name": "previousAdminRole",
          "type": "bytes32"
        },
        {
          "indexed": true,
          "internalType": "bytes32",
          "name": "newAdminRole",
          "type": "bytes32"
        }
      ],
      "name": "RoleAdminChanged",
      "type": "event"
    },
    {
      "anonymous": false,
      "inputs": [
        {
          "indexed": true,
          "internalType": "bytes32",
          "name": "role",
          "type": "bytes32"
        },
        {
          "indexed": true,
          "internalType": "address",
          "name": "account",
          "type": "address"
        },
        {
          "indexed": true,
          "internalType": "address",
          "name": "sender",
          "type": "address"
        }
      ],
      "name": "RoleGranted",
      "type": "event"
    },
    {
      "anonymous": false,
      "inputs": [
        {
          "indexed": true,
          "internalType": "bytes32",
          "name": "role",
          "type": "bytes32"
        },
        {
          "indexed": true,
          "internalType": "address",
          "name": "account",
          "type": "address"
        },
        {
          "indexed": true,
          "internalType": "address",
          "name": "sender",
          "type": "address"
        }
      ],
      "name": "RoleRevoked",
      "type": "event"
    },
    {
      "anonymous": false,
      "inputs": [
        {
          "indexed": true,
          "internalType": "address",
          "name": "implementation",
          "type": "address"
        }
      ],
      "name": "Upgraded",
      "type": "event"
    },
    {
      "inputs": [],
      "name": "DEFAULT_ADMIN_ROLE",
      "outputs": [
        {
          "internalType": "bytes32",
          "name": "",
          "type": "bytes32"
        }
      ],
      "stateMutability": "view",
      "type": "function"
    },
    {
      "inputs": [],
      "name": "UPGRADER_ROLE",
      "outputs": [
        {
          "internalType": "bytes32",
          "name": "",
          "type": "bytes32"
        }
      ],
      "stateMutability": "view",
      "type": "function"
    },
    {
      "inputs": [],
      "name": "UPGRADE_INTERFACE_VERSION",
      "outputs": [
        {
          "internalType": "string",
          "name": "",
          "type": "string"
        }
      ],
      "stateMutability": "view",
      "type": "function"
    },
    {
      "inputs": [
        {
          "internalType": "string",
          "name": "",
          "type": "string"
        }
      ],
      "name": "deployments",
      "outputs": [
        {
          "internalType": "bool",
          "name": "exists",
          "type": "bool"
        },
        {
          "internalType": "address",
          "name": "messageExecutorAddress",
          "type": "address"
        },
        {
          "internalType": "address",
          "name": "endpointAddress",
          "type": "address"
        },
        {
          "internalType": "address",
          "name": "contractFactoryAddress",
          "type": "address"
        },
        {
          "internalType": "address",
          "name": "participantStorageAddress",
          "type": "address"
        },
        {
          "internalType": "address",
          "name": "plCommunicatorAddress",
          "type": "address"
        },
        {
          "internalType": "address",
          "name": "enygmaPLEventsAddress",
          "type": "address"
        }
      ],
      "stateMutability": "view",
      "type": "function"
    },
    {
      "inputs": [
        {
          "internalType": "string",
          "name": "version",
          "type": "string"
        }
      ],
      "name": "getDeployment",
      "outputs": [
        {
          "components": [
            {
              "internalType": "bool",
              "name": "exists",
              "type": "bool"
            },
            {
              "internalType": "address",
              "name": "messageExecutorAddress",
              "type": "address"
            },
            {
              "internalType": "address",
              "name": "endpointAddress",
              "type": "address"
            },
            {
              "internalType": "address",
              "name": "contractFactoryAddress",
              "type": "address"
            },
            {
              "internalType": "address",
              "name": "participantStorageAddress",
              "type": "address"
            },
            {
              "internalType": "address",
              "name": "plCommunicatorAddress",
              "type": "address"
            },
            {
              "internalType": "address",
              "name": "enygmaPLEventsAddress",
              "type": "address"
            }
          ],
          "internalType": "struct DeploymentRegistry.Deployment",
          "name": "",
          "type": "tuple"
        }
      ],
      "stateMutability": "view",
      "type": "function"
    },
    {
      "inputs": [
        {
          "internalType": "bytes32",
          "name": "role",
          "type": "bytes32"
        }
      ],
      "name": "getRoleAdmin",
      "outputs": [
        {
          "internalType": "bytes32",
          "name": "",
          "type": "bytes32"
        }
      ],
      "stateMutability": "view",
      "type": "function"
    },
    {
      "inputs": [
        {
          "internalType": "bytes32",
          "name": "role",
          "type": "bytes32"
        },
        {
          "internalType": "address",
          "name": "account",
          "type": "address"
        }
      ],
      "name": "grantRole",
      "outputs": [],
      "stateMutability": "nonpayable",
      "type": "function"
    },
    {
      "inputs": [
        {
          "internalType": "bytes32",
          "name": "role",
          "type": "bytes32"
        },
        {
          "internalType": "address",
          "name": "account",
          "type": "address"
        }
      ],
      "name": "hasRole",
      "outputs": [
        {
          "internalType": "bool",
          "name": "",
          "type": "bool"
        }
      ],
      "stateMutability": "view",
      "type": "function"
    },
    {
      "inputs": [
        {
          "internalType": "address",
          "name": "admin",
          "type": "address"
        }
      ],
      "name": "initialize",
      "outputs": [],
      "stateMutability": "nonpayable",
      "type": "function"
    },
    {
      "inputs": [],
      "name": "proxiableUUID",
      "outputs": [
        {
          "internalType": "bytes32",
          "name": "",
          "type": "bytes32"
        }
      ],
      "stateMutability": "view",
      "type": "function"
    },
    {
      "inputs": [
        {
          "internalType": "bytes32",
          "name": "role",
          "type": "bytes32"
        },
        {
          "internalType": "address",
          "name": "callerConfirmation",
          "type": "address"
        }
      ],
      "name": "renounceRole",
      "outputs": [],
      "stateMutability": "nonpayable",
      "type": "function"
    },
    {
      "inputs": [
        {
          "internalType": "bytes32",
          "name": "role",
          "type": "bytes32"
        },
        {
          "internalType": "address",
          "name": "account",
          "type": "address"
        }
      ],
      "name": "revokeRole",
      "outputs": [],
      "stateMutability": "nonpayable",
      "type": "function"
    },
    {
      "inputs": [
        {
          "internalType": "string",
          "name": "version",
          "type": "string"
        },
        {
          "internalType": "address",
          "name": "messageExecutorAddress",
          "type": "address"
        },
        {
          "internalType": "address",
          "name": "endpointAddress",
          "type": "address"
        },
        {
          "internalType": "address",
          "name": "contractFactoryAddress",
          "type": "address"
        },
        {
          "internalType": "address",
          "name": "participantStorageAddress",
          "type": "address"
        },
        {
          "internalType": "address",
          "name": "plCommunicatorAddress",
          "type": "address"
        },
        {
          "internalType": "address",
          "name": "enygmaPLEventsAddress",
          "type": "address"
        }
      ],
      "name": "saveDeployment",
      "outputs": [],
      "stateMutability": "nonpayable",
      "type": "function"
    },
    {
      "inputs": [
        {
          "internalType": "bytes4",
          "name": "interfaceId",
          "type": "bytes4"
        }
      ],
      "name": "supportsInterface",
      "outputs": [
        {
          "internalType": "bool",
          "name": "",
          "type": "bool"
        }
      ],
      "stateMutability": "view",
      "type": "function"
    },
    {
      "inputs": [
        {
          "internalType": "address",
          "name": "newImplementation",
          "type": "address"
        },
        {
          "internalType": "bytes",
          "name": "data",
          "type": "bytes"
        }
      ],
      "name": "upgradeToAndCall",
      "outputs": [],
      "stateMutability": "payable",
      "type": "function"
    }
  ],
  "bytecode": "0x60a06040523060805234801561001457600080fd5b5061001d610022565b6100d4565b7ff0c57e16840df040f15088dc2f81fe391c3923bec73e23a9662efc9c229c6a00805468010000000000000000900460ff16156100725760405163f92ee8a960e01b815260040160405180910390fd5b80546001600160401b03908116146100d15780546001600160401b0319166001600160401b0390811782556040519081527fc7f505b2f371ae2175ee4913f4499e1f2633a7b5936321eed1cdaeb6115181d29060200160405180910390a15b50565b6080516111d16100fd600039600081816109760152818161099f0152610af201526111d16000f3fe6080604052600436106100b85760003560e01c806301ffc9a7146100bd578063248a9ca3146100f25780632f2ff15d1461012057806336568abe146101425780634f1ef2861461016257806352d1902d146101755780635ad3d8721461018a57806373cac94e1461024b57806391d148541461026b578063a217fddf1461028b578063a8091d97146102a0578063ad3cb1cc1461032a578063c4d66de814610368578063d547741f14610388578063f72c0d8b146103a8575b600080fd5b3480156100c957600080fd5b506100dd6100d8366004610d9a565b6103ca565b60405190151581526020015b60405180910390f35b3480156100fe57600080fd5b5061011261010d366004610dc4565b610401565b6040519081526020016100e9565b34801561012c57600080fd5b5061014061013b366004610df9565b610421565b005b34801561014e57600080fd5b5061014061015d366004610df9565b610443565b610140610170366004610eb0565b61047b565b34801561018157600080fd5b5061011261049a565b34801561019657600080fd5b506102046101a5366004610f11565b805160208183018101805160008252928201919093012091528054600182015460028301546003840154600485015460059095015460ff8516956101009095046001600160a01b03908116959481169493811693928116928116911687565b6040805197151588526001600160a01b03968716602089015294861694870194909452918416606086015283166080850152821660a08401521660c082015260e0016100e9565b34801561025757600080fd5b50610140610266366004610fa9565b6104b7565b34801561027757600080fd5b506100dd610286366004610df9565b6105df565b34801561029757600080fd5b50610112600081565b3480156102ac57600080fd5b506102c06102bb36600461104f565b610615565b6040516100e991908151151581526020808301516001600160a01b039081169183019190915260408084015182169083015260608084015182169083015260808084015182169083015260a08084015182169083015260c092830151169181019190915260e00190565b34801561033657600080fd5b5061035b604051806040016040528060058152602001640352e302e360dc1b81525081565b6040516100e991906110b4565b34801561037457600080fd5b506101406103833660046110e7565b6106df565b34801561039457600080fd5b506101406103a3366004610df9565b610805565b3480156103b457600080fd5b5061011260008051602061115c83398151915281565b60006001600160e01b03198216637965db0b60e01b14806103fb57506301ffc9a760e01b6001600160e01b03198316145b92915050565b60008061040c610821565b60009384526020525050604090206001015490565b61042a82610401565b61043381610845565b61043d8383610852565b50505050565b6001600160a01b038116331461046c5760405163334bd91960e11b815260040160405180910390fd5b61047682826108f3565b505050565b61048361096b565b61048c82610a12565b6104968282610a2a565b5050565b60006104a4610ae7565b5060008051602061117c83398151915290565b60006104c281610845565b6040805160e081018252600181526001600160a01b03808a166020830152888116828401528781166060830152868116608083015285811660a0830152841660c08201529051600090610518908c908c90611102565b908152604080516020928190038301902083518154938501516001600160a81b0319909416901515610100600160a81b031916176101006001600160a01b0394851602178155908301516001820180546001600160a01b0319908116928516929092179055606084015160028301805483169185169190911790556080840151600383018054831691851691909117905560a0840151600483018054831691851691909117905560c090930151600590910180549093169116179055505050505050505050565b6000806105ea610821565b6000948552602090815260408086206001600160a01b03959095168652939052505090205460ff1690565b6040805160e081018252600080825260208201819052918101829052606081018290526080810182905260a0810182905260c081019190915260008383604051610660929190611102565b90815260408051918290036020908101832060e084018352805460ff8116151585526001600160a01b0361010090910481169285019290925260018101548216928401929092526002820154811660608401526003820154811660808401526004820154811660a08401526005909101541660c0820152905092915050565b60006106e9610b30565b805490915060ff600160401b82041615906001600160401b03166000811580156107105750825b90506000826001600160401b0316600114801561072c5750303b155b90508115801561073a575080155b156107585760405163f92ee8a960e01b815260040160405180910390fd5b845467ffffffffffffffff19166001178555831561078257845460ff60401b1916600160401b1785555b61078a610b54565b610792610b54565b61079d600087610852565b506107b660008051602061115c83398151915287610852565b5083156107fd57845460ff60401b19168555604051600181527fc7f505b2f371ae2175ee4913f4499e1f2633a7b5936321eed1cdaeb6115181d29060200160405180910390a15b505050505050565b61080e82610401565b61081781610845565b61043d83836108f3565b7f02dd7bc7dec4dceedda775e58dd541e08a116c6c53815c0bd028192f7b62680090565b61084f8133610b5c565b50565b60008061085d610821565b905061086984846105df565b6108e9576000848152602082815260408083206001600160a01b03871684529091529020805460ff1916600117905561089f3390565b6001600160a01b0316836001600160a01b0316857f2f8788117e7eff1d82e926ec794901d17c78024a50270940304540a733656f0d60405160405180910390a460019150506103fb565b60009150506103fb565b6000806108fe610821565b905061090a84846105df565b156108e9576000848152602082815260408083206001600160a01b0387168085529252808320805460ff1916905551339287917ff6391f5c32d9c69d2a47ea670b442974b53935d1edc7fd64eb21e047a839171b9190a460019150506103fb565b306001600160a01b037f00000000000000000000000000000000000000000000000000000000000000001614806109f257507f00000000000000000000000000000000000000000000000000000000000000006001600160a01b03166109e660008051602061117c833981519152546001600160a01b031690565b6001600160a01b031614155b15610a105760405163703e46dd60e11b815260040160405180910390fd5b565b60008051602061115c83398151915261049681610845565b816001600160a01b03166352d1902d6040518163ffffffff1660e01b8152600401602060405180830381865afa925050508015610a84575060408051601f3d908101601f19168201909252610a8191810190611112565b60015b610aac5781604051634c9c8ce360e01b8152600401610aa3919061112b565b60405180910390fd5b60008051602061117c8339815191528114610add57604051632a87526960e21b815260048101829052602401610aa3565b6104768383610b95565b306001600160a01b037f00000000000000000000000000000000000000000000000000000000000000001614610a105760405163703e46dd60e11b815260040160405180910390fd5b7ff0c57e16840df040f15088dc2f81fe391c3923bec73e23a9662efc9c229c6a0090565b610a10610beb565b610b6682826105df565b6104965760405163e2517d3f60e01b81526001600160a01b038216600482015260248101839052604401610aa3565b610b9e82610c10565b6040516001600160a01b038316907fbc7cd75a20ee27fd9adebab32041f755214dbc6bffa90cc0225b39da2e5c2d3b90600090a2805115610be3576104768282610c6c565b610496610ce2565b610bf3610d01565b610a1057604051631afcd79f60e31b815260040160405180910390fd5b806001600160a01b03163b600003610c3d5780604051634c9c8ce360e01b8152600401610aa3919061112b565b60008051602061117c83398151915280546001600160a01b0319166001600160a01b0392909216919091179055565b6060600080846001600160a01b031684604051610c89919061113f565b600060405180830381855af49150503d8060008114610cc4576040519150601f19603f3d011682016040523d82523d6000602084013e610cc9565b606091505b5091509150610cd9858383610d1b565b95945050505050565b3415610a105760405163b398979f60e01b815260040160405180910390fd5b6000610d0b610b30565b54600160401b900460ff16919050565b606082610d3057610d2b82610d71565b610d6a565b8151158015610d4757506001600160a01b0384163b155b15610d675783604051639996b31560e01b8152600401610aa3919061112b565b50805b9392505050565b805115610d815780518082602001fd5b604051630a12f52160e11b815260040160405180910390fd5b600060208284031215610dac57600080fd5b81356001600160e01b031981168114610d6a57600080fd5b600060208284031215610dd657600080fd5b5035919050565b80356001600160a01b0381168114610df457600080fd5b919050565b60008060408385031215610e0c57600080fd5b82359150610e1c60208401610ddd565b90509250929050565b634e487b7160e01b600052604160045260246000fd5b60006001600160401b0380841115610e5557610e55610e25565b604051601f8501601f19908116603f01168101908282118183101715610e7d57610e7d610e25565b81604052809350858152868686011115610e9657600080fd5b858560208301376000602087830101525050509392505050565b60008060408385031215610ec357600080fd5b610ecc83610ddd565b915060208301356001600160401b03811115610ee757600080fd5b8301601f81018513610ef857600080fd5b610f0785823560208401610e3b565b9150509250929050565b600060208284031215610f2357600080fd5b81356001600160401b03811115610f3957600080fd5b8201601f81018413610f4a57600080fd5b610f5984823560208401610e3b565b949350505050565b60008083601f840112610f7357600080fd5b5081356001600160401b03811115610f8a57600080fd5b602083019150836020828501011115610fa257600080fd5b9250929050565b60008060008060008060008060e0898b031215610fc557600080fd5b88356001600160401b03811115610fdb57600080fd5b610fe78b828c01610f61565b9099509750610ffa905060208a01610ddd565b955061100860408a01610ddd565b945061101660608a01610ddd565b935061102460808a01610ddd565b925061103260a08a01610ddd565b915061104060c08a01610ddd565b90509295985092959890939650565b6000806020838503121561106257600080fd5b82356001600160401b0381111561107857600080fd5b61108485828601610f61565b90969095509350505050565b60005b838110156110ab578181015183820152602001611093565b50506000910152565b60208152600082518060208401526110d3816040850160208701611090565b601f01601f19169190910160400192915050565b6000602082840312156110f957600080fd5b610d6a82610ddd565b8183823760009101908152919050565b60006020828403121561112457600080fd5b5051919050565b6001600160a01b0391909116815260200190565b60008251611151818460208701611090565b919091019291505056fe189ab7a9244df0848122154315af71fe140f3db0fe014031783b0946b8c9d2e3360894a13ba1a3210667c828492db98dca3e2076cc3735a920a3ca505d382bbca2646970667358221220c91cc8d4b0a5d518ddf34d6273080d20edb87eb190d776196dd36092350bde5464736f6c63430008180033",
  "linkReferences": {},
  "deployedLinkReferences": {}
}