{
  "_format": "hh-sol-artifact-1",
  "contractName": "ZkDvpVerifier",
  "sourceName": "src/rayls-protocol/ZkDvp/ZkDvpVerifier.sol",
  "abi": [
    {
      "inputs": [
        {
          "internalType": "address",
          "name": "_groth16Verifier",
          "type": "address"
        },
        {
          "components": [
            {
              "components": [
                {
                  "internalType": "uint256",
                  "name": "x",
                  "type": "uint256"
                },
                {
                  "internalType": "uint256",
                  "name": "y",
                  "type": "uint256"
                }
              ],
              "internalType": "struct IZkDvp.G1Point",
              "name": "alpha1",
              "type": "tuple"
            },
            {
              "components": [
                {
                  "internalType": "uint256[2]",
                  "name": "x",
                  "type": "uint256[2]"
                },
                {
                  "internalType": "uint256[2]",
                  "name": "y",
                  "type": "uint256[2]"
                }
              ],
              "internalType": "struct IZkDvp.G2Point",
              "name": "beta2",
              "type": "tuple"
            },
            {
              "components": [
                {
                  "internalType": "uint256[2]",
                  "name": "x",
                  "type": "uint256[2]"
                },
                {
                  "internalType": "uint256[2]",
                  "name": "y",
                  "type": "uint256[2]"
                }
              ],
              "internalType": "struct IZkDvp.G2Point",
              "name": "gamma2",
              "type": "tuple"
            },
            {
              "components": [
                {
                  "internalType": "uint256[2]",
                  "name": "x",
                  "type": "uint256[2]"
                },
                {
                  "internalType": "uint256[2]",
                  "name": "y",
                  "type": "uint256[2]"
                }
              ],
              "internalType": "struct IZkDvp.G2Point",
              "name": "delta2",
              "type": "tuple"
            },
            {
              "components": [
                {
                  "internalType": "uint256",
                  "name": "x",
                  "type": "uint256"
                },
                {
                  "internalType": "uint256",
                  "name": "y",
                  "type": "uint256"
                }
              ],
              "internalType": "struct IZkDvp.G1Point[]",
              "name": "ic",
              "type": "tuple[]"
            }
          ],
          "internalType": "struct IZkDvp.VerifyingKey[5]",
          "name": "_vKeys",
          "type": "tuple[5]"
        }
      ],
      "name": "initializeVerifier",
      "outputs": [
        {
          "internalType": "bool",
          "name": "",
          "type": "bool"
        }
      ],
      "stateMutability": "nonpayable",
      "type": "function"
    },
    {
      "inputs": [
        {
          "components": [
            {
              "components": [
                {
                  "components": [
                    {
                      "internalType": "uint256",
                      "name": "x",
                      "type": "uint256"
                    },
                    {
                      "internalType": "uint256",
                      "name": "y",
                      "type": "uint256"
                    }
                  ],
                  "internalType": "struct IZkDvp.G1Point",
                  "name": "a",
                  "type": "tuple"
                },
                {
                  "components": [
                    {
                      "internalType": "uint256[2]",
                      "name": "x",
                      "type": "uint256[2]"
                    },
                    {
                      "internalType": "uint256[2]",
                      "name": "y",
                      "type": "uint256[2]"
                    }
                  ],
                  "internalType": "struct IZkDvp.G2Point",
                  "name": "b",
                  "type": "tuple"
                },
                {
                  "components": [
                    {
                      "internalType": "uint256",
                      "name": "x",
                      "type": "uint256"
                    },
                    {
                      "internalType": "uint256",
                      "name": "y",
                      "type": "uint256"
                    }
                  ],
                  "internalType": "struct IZkDvp.G1Point",
                  "name": "c",
                  "type": "tuple"
                }
              ],
              "internalType": "struct IZkDvp.SnarkProof",
              "name": "proof",
              "type": "tuple"
            },
            {
              "internalType": "uint256[10]",
              "name": "treeNumbers",
              "type": "uint256[10]"
            },
            {
              "internalType": "uint256",
              "name": "message",
              "type": "uint256"
            },
            {
              "internalType": "uint256[10]",
              "name": "merkleRoots",
              "type": "uint256[10]"
            },
            {
              "internalType": "uint256[10]",
              "name": "commitments",
              "type": "uint256[10]"
            },
            {
              "internalType": "uint256[10]",
              "name": "nullifiers",
              "type": "uint256[10]"
            }
          ],
          "internalType": "struct IZkDvp.BatchTransaction",
          "name": "_tx",
          "type": "tuple"
        }
      ],
      "name": "verifyErc1155BatchProof",
      "outputs": [
        {
          "internalType": "bool",
          "name": "",
          "type": "bool"
        }
      ],
      "stateMutability": "view",
      "type": "function"
    },
    {
      "inputs": [
        {
          "components": [
            {
              "components": [
                {
                  "components": [
                    {
                      "internalType": "uint256",
                      "name": "x",
                      "type": "uint256"
                    },
                    {
                      "internalType": "uint256",
                      "name": "y",
                      "type": "uint256"
                    }
                  ],
                  "internalType": "struct IZkDvp.G1Point",
                  "name": "a",
                  "type": "tuple"
                },
                {
                  "components": [
                    {
                      "internalType": "uint256[2]",
                      "name": "x",
                      "type": "uint256[2]"
                    },
                    {
                      "internalType": "uint256[2]",
                      "name": "y",
                      "type": "uint256[2]"
                    }
                  ],
                  "internalType": "struct IZkDvp.G2Point",
                  "name": "b",
                  "type": "tuple"
                },
                {
                  "components": [
                    {
                      "internalType": "uint256",
                      "name": "x",
                      "type": "uint256"
                    },
                    {
                      "internalType": "uint256",
                      "name": "y",
                      "type": "uint256"
                    }
                  ],
                  "internalType": "struct IZkDvp.G1Point",
                  "name": "c",
                  "type": "tuple"
                }
              ],
              "internalType": "struct IZkDvp.SnarkProof",
              "name": "proof",
              "type": "tuple"
            },
            {
              "internalType": "uint256[]",
              "name": "treeNumbers",
              "type": "uint256[]"
            },
            {
              "internalType": "uint256",
              "name": "message",
              "type": "uint256"
            },
            {
              "internalType": "uint256[]",
              "name": "merkleRoots",
              "type": "uint256[]"
            },
            {
              "internalType": "uint256[]",
              "name": "commitments",
              "type": "uint256[]"
            },
            {
              "internalType": "uint256[]",
              "name": "nullifiers",
              "type": "uint256[]"
            }
          ],
          "internalType": "struct IZkDvp.JoinSplitTransaction",
          "name": "_tx",
          "type": "tuple"
        }
      ],
      "name": "verifyErc1155JoinSplitProof",
      "outputs": [
        {
          "internalType": "bool",
          "name": "",
          "type": "bool"
        }
      ],
      "stateMutability": "view",
      "type": "function"
    },
    {
      "inputs": [
        {
          "components": [
            {
              "components": [
                {
                  "components": [
                    {
                      "internalType": "uint256",
                      "name": "x",
                      "type": "uint256"
                    },
                    {
                      "internalType": "uint256",
                      "name": "y",
                      "type": "uint256"
                    }
                  ],
                  "internalType": "struct IZkDvp.G1Point",
                  "name": "a",
                  "type": "tuple"
                },
                {
                  "components": [
                    {
                      "internalType": "uint256[2]",
                      "name": "x",
                      "type": "uint256[2]"
                    },
                    {
                      "internalType": "uint256[2]",
                      "name": "y",
                      "type": "uint256[2]"
                    }
                  ],
                  "internalType": "struct IZkDvp.G2Point",
                  "name": "b",
                  "type": "tuple"
                },
                {
                  "components": [
                    {
                      "internalType": "uint256",
                      "name": "x",
                      "type": "uint256"
                    },
                    {
                      "internalType": "uint256",
                      "name": "y",
                      "type": "uint256"
                    }
                  ],
                  "internalType": "struct IZkDvp.G1Point",
                  "name": "c",
                  "type": "tuple"
                }
              ],
              "internalType": "struct IZkDvp.SnarkProof",
              "name": "proof",
              "type": "tuple"
            },
            {
              "internalType": "uint256",
              "name": "treeNumber",
              "type": "uint256"
            },
            {
              "internalType": "uint256",
              "name": "message",
              "type": "uint256"
            },
            {
              "internalType": "uint256",
              "name": "merkleRoot",
              "type": "uint256"
            },
            {
              "internalType": "uint256",
              "name": "commitment",
              "type": "uint256"
            },
            {
              "internalType": "uint256",
              "name": "nullifier",
              "type": "uint256"
            }
          ],
          "internalType": "struct IZkDvp.OwnershipTransaction",
          "name": "_tx",
          "type": "tuple"
        }
      ],
      "name": "verifyErc1155OwnershipProof",
      "outputs": [
        {
          "internalType": "bool",
          "name": "",
          "type": "bool"
        }
      ],
      "stateMutability": "view",
      "type": "function"
    },
    {
      "inputs": [
        {
          "components": [
            {
              "components": [
                {
                  "components": [
                    {
                      "internalType": "uint256",
                      "name": "x",
                      "type": "uint256"
                    },
                    {
                      "internalType": "uint256",
                      "name": "y",
                      "type": "uint256"
                    }
                  ],
                  "internalType": "struct IZkDvp.G1Point",
                  "name": "a",
                  "type": "tuple"
                },
                {
                  "components": [
                    {
                      "internalType": "uint256[2]",
                      "name": "x",
                      "type": "uint256[2]"
                    },
                    {
                      "internalType": "uint256[2]",
                      "name": "y",
                      "type": "uint256[2]"
                    }
                  ],
                  "internalType": "struct IZkDvp.G2Point",
                  "name": "b",
                  "type": "tuple"
                },
                {
                  "components": [
                    {
                      "internalType": "uint256",
                      "name": "x",
                      "type": "uint256"
                    },
                    {
                      "internalType": "uint256",
                      "name": "y",
                      "type": "uint256"
                    }
                  ],
                  "internalType": "struct IZkDvp.G1Point",
                  "name": "c",
                  "type": "tuple"
                }
              ],
              "internalType": "struct IZkDvp.SnarkProof",
              "name": "proof",
              "type": "tuple"
            },
            {
              "internalType": "uint256[]",
              "name": "treeNumbers",
              "type": "uint256[]"
            },
            {
              "internalType": "uint256",
              "name": "message",
              "type": "uint256"
            },
            {
              "internalType": "uint256[]",
              "name": "merkleRoots",
              "type": "uint256[]"
            },
            {
              "internalType": "uint256[]",
              "name": "commitments",
              "type": "uint256[]"
            },
            {
              "internalType": "uint256[]",
              "name": "nullifiers",
              "type": "uint256[]"
            }
          ],
          "internalType": "struct IZkDvp.JoinSplitTransaction",
          "name": "_tx",
          "type": "tuple"
        }
      ],
      "name": "verifyJoinSplitProof",
      "outputs": [
        {
          "internalType": "bool",
          "name": "",
          "type": "bool"
        }
      ],
      "stateMutability": "view",
      "type": "function"
    },
    {
      "inputs": [
        {
          "components": [
            {
              "components": [
                {
                  "components": [
                    {
                      "internalType": "uint256",
                      "name": "x",
                      "type": "uint256"
                    },
                    {
                      "internalType": "uint256",
                      "name": "y",
                      "type": "uint256"
                    }
                  ],
                  "internalType": "struct IZkDvp.G1Point",
                  "name": "a",
                  "type": "tuple"
                },
                {
                  "components": [
                    {
                      "internalType": "uint256[2]",
                      "name": "x",
                      "type": "uint256[2]"
                    },
                    {
                      "internalType": "uint256[2]",
                      "name": "y",
                      "type": "uint256[2]"
                    }
                  ],
                  "internalType": "struct IZkDvp.G2Point",
                  "name": "b",
                  "type": "tuple"
                },
                {
                  "components": [
                    {
                      "internalType": "uint256",
                      "name": "x",
                      "type": "uint256"
                    },
                    {
                      "internalType": "uint256",
                      "name": "y",
                      "type": "uint256"
                    }
                  ],
                  "internalType": "struct IZkDvp.G1Point",
                  "name": "c",
                  "type": "tuple"
                }
              ],
              "internalType": "struct IZkDvp.SnarkProof",
              "name": "proof",
              "type": "tuple"
            },
            {
              "internalType": "uint256",
              "name": "treeNumber",
              "type": "uint256"
            },
            {
              "internalType": "uint256",
              "name": "message",
              "type": "uint256"
            },
            {
              "internalType": "uint256",
              "name": "merkleRoot",
              "type": "uint256"
            },
            {
              "internalType": "uint256",
              "name": "commitment",
              "type": "uint256"
            },
            {
              "internalType": "uint256",
              "name": "nullifier",
              "type": "uint256"
            }
          ],
          "internalType": "struct IZkDvp.OwnershipTransaction",
          "name": "_tx",
          "type": "tuple"
        }
      ],
      "name": "verifyOwnershipProof",
      "outputs": [
        {
          "internalType": "bool",
          "name": "",
          "type": "bool"
        }
      ],
      "stateMutability": "view",
      "type": "function"
    }
  ],
  "bytecode": "0x608060405234801561001057600080fd5b50611593806100206000396000f3fe608060405234801561001057600080fd5b50600436106100625760003560e01c806371c55a4714610067578063826ea0261461008e578063b7e7e7ae146100a1578063beb8f268146100b4578063c41f6cb3146100c7578063db481ca1146100da575b600080fd5b61007a610075366004610e4f565b6100ed565b604051901515815260200160405180910390f35b61007a61009c36600461105b565b61050c565b61007a6100af36600461112a565b610647565b61007a6100c236600461105b565b6108d0565b61007a6100d536600461112a565b61099f565b61007a6100e8366004611291565b610b77565b604b80546001600160a01b0319166001600160a01b0384161790556000805b60058110156105005782816005811061012757610127611316565b602002015151516000826005811061014157610141611316565b600f02015582816005811061015857610158611316565b602002015160000151602001516000826005811061017857610178611316565b600f02016000016001018190555060005b60028110156103f2578382600581106101a4576101a4611316565b6020020151602001516000015181600281106101c2576101c2611316565b6020020151600083600581106101da576101da611316565b600f020160020160000182600281106101f5576101f5611316565b015583826005811061020957610209611316565b60200201516020015160200151816002811061022757610227611316565b60200201516000836005811061023f5761023f611316565b600f0201600201600201826002811061025a5761025a611316565b015583826005811061026e5761026e611316565b60200201516040015151816002811061028957610289611316565b6020020151600083600581106102a1576102a1611316565b600f020160060160000182600281106102bc576102bc611316565b01558382600581106102d0576102d0611316565b6020020151604001516020015181600281106102ee576102ee611316565b60200201516000836005811061030657610306611316565b600f0201600601600201826002811061032157610321611316565b015583826005811061033557610335611316565b60200201516060015151816002811061035057610350611316565b60200201516000836005811061036857610368611316565b600f0201600a01600001826002811061038357610383611316565b015583826005811061039757610397611316565b6020020151606001516020015181600281106103b5576103b5611316565b6020020151600083600581106103cd576103cd611316565b600f0201600a0160020182600281106103e8576103e8611316565b0155600101610189565b5060005b83826005811061040857610408611316565b602002015160800151518160ff1610156104f7576000826005811061042f5761042f611316565b600f0201600e01604051806040016040528086856005811061045357610453611316565b6020020151608001518460ff168151811061047057610470611316565b602002602001015160000151815260200186856005811061049357610493611316565b6020020151608001518460ff16815181106104b0576104b0611316565b6020908102919091018101518101519091528254600181810185556000948552938290208351600290920201908155910151910155806104ef81611342565b9150506103f6565b5060010161010c565b50600190505b92915050565b60408051600480825260a082019092526000918291906020820160808036833701905050905082604001518160008151811061054a5761054a611316565b60200260200101818152505082606001518160018151811061056e5761056e611316565b6020026020010181815250508260a001518160028151811061059257610592611316565b6020026020010181815250508260800151816003815181106105b6576105b6611316565b6020908102919091010152604b546001600160a01b0316638de16fe3600060015b600f02018560000151846040518463ffffffff1660e01b81526004016105ff93929190611458565b602060405180830381865afa15801561061c573d6000803e3d6000fd5b505050506040513d601f19601f820116820180604052508101906106409190611528565b9392505050565b6000816060015151600a146106c55760405162461bcd60e51b815260206004820152603960248201527f4a6f696e53706c697450726f6f663a206d65726b6c65526f6f7473206d75737460448201527820686176652065786163746c7920313020656c656d656e747360381b60648201526084015b60405180910390fd5b8160a0015151600a1461073b5760405162461bcd60e51b815260206004820152603860248201527f4a6f696e53706c697450726f6f663a206e756c6c696669657273206d75737420604482015277686176652065786163746c7920313020656c656d656e747360401b60648201526084016106bc565b6040805160178082526103008201909252600091602082016102e08036833701905050905082604001518160008151811061077857610778611316565b60200260200101818152505060005b600a8110156107df57836060015181815181106107a6576107a6611316565b6020026020010151828260016107bc919061154a565b815181106107cc576107cc611316565b6020908102919091010152600101610787565b5060005b600a81101561083b578360a00151818151811061080257610802611316565b60200260200101518282600b610818919061154a565b8151811061082857610828611316565b60209081029190910101526001016107e3565b50826080015160008151811061085357610853611316565b60200260200101518160158151811061086e5761086e611316565b602002602001018181525050826080015160018151811061089157610891611316565b6020026020010151816016815181106108ac576108ac611316565b6020908102919091010152604b546001600160a01b0316638de16fe36000806105d7565b60408051600480825260a082019092526000918291906020820160808036833701905050905082604001518160008151811061090e5761090e611316565b60200260200101818152505082606001518160018151811061093257610932611316565b6020026020010181815250508260a001518160028151811061095657610956611316565b60200260200101818152505082608001518160038151811061097a5761097a611316565b6020908102919091010152604b546001600160a01b0316638de16fe3600060026105d7565b60408051600780825261010082019092526000918291906020820160e0803683370190505090508260400151816000815181106109de576109de611316565b6020026020010181815250508260600151600081518110610a0157610a01611316565b602002602001015181600181518110610a1c57610a1c611316565b6020026020010181815250508260600151600181518110610a3f57610a3f611316565b602002602001015181600281518110610a5a57610a5a611316565b6020026020010181815250508260a00151600081518110610a7d57610a7d611316565b602002602001015181600381518110610a9857610a98611316565b6020026020010181815250508260a00151600181518110610abb57610abb611316565b602002602001015181600481518110610ad657610ad6611316565b6020026020010181815250508260800151600081518110610af957610af9611316565b602002602001015181600581518110610b1457610b14611316565b6020026020010181815250508260800151600181518110610b3757610b37611316565b602002602001015181600681518110610b5257610b52611316565b6020908102919091010152604b546001600160a01b0316638de16fe3600060036105d7565b60408051601f8082526104008201909252600091829190602082016103e080368337019050509050826040015181600081518110610bb757610bb7611316565b60200260200101818152505060005b600a811015610c9f57836060015181600a8110610be557610be5611316565b602002015182610bf683600161154a565b81518110610c0657610c06611316565b6020026020010181815250508360a0015181600a8110610c2857610c28611316565b602002015182610c3983600b61154a565b81518110610c4957610c49611316565b602002602001018181525050836080015181600a8110610c6b57610c6b611316565b602002015182610c7c83601561154a565b81518110610c8c57610c8c611316565b6020908102919091010152600101610bc6565b50604b546001600160a01b0316638de16fe3600060046105d7565b634e487b7160e01b600052604160045260246000fd5b604080519081016001600160401b0381118282101715610cf257610cf2610cba565b60405290565b60405160a081016001600160401b0381118282101715610cf257610cf2610cba565b60405160c081016001600160401b0381118282101715610cf257610cf2610cba565b604051601f8201601f191681016001600160401b0381118282101715610d6457610d64610cba565b604052919050565b600060408284031215610d7e57600080fd5b610d86610cd0565b9050813581526020820135602082015292915050565b600082601f830112610dad57600080fd5b610db5610cd0565b806040840185811115610dc757600080fd5b845b81811015610de1578035845260209384019301610dc9565b509095945050505050565b600060808284031215610dfe57600080fd5b610e06610cd0565b9050610e128383610d9c565b8152610e218360408401610d9c565b602082015292915050565b60006001600160401b03821115610e4557610e45610cba565b5060051b60200190565b60008060408385031215610e6257600080fd5b82356001600160a01b0381168114610e7957600080fd5b915060208301356001600160401b0380821115610e9557600080fd5b818501915085601f830112610ea957600080fd5b610eb1610cf8565b8060a0840188811115610ec357600080fd5b845b81811015610fda578481351115610edb57600080fd5b803586016101e0818c031215610ef057600080fd5b610ef8610cf8565b610f028c83610d6c565b8152610f118c60408401610dec565b6020820152610f238c60c08401610dec565b6040820152610f368c6101408401610dec565b60608201526101c082013587811115610f4e57600080fd5b8083019250508b601f830112610f6357600080fd5b8135610f76610f7182610e2c565b610d3c565b8082825260208201915060208360061b86010192508e831115610f9857600080fd5b6020850194505b82851015610fc457610fb18f86610d6c565b8252602082019150604085019450610f9f565b6080840152505085525060209384019301610ec5565b50959890975095505050505050565b60006101008284031215610ffc57600080fd5b604051606081018181106001600160401b038211171561101e5761101e610cba565b60405290508061102e8484610d6c565b815261103d8460408501610dec565b602082015261104f8460c08501610d6c565b60408201525092915050565b60006101a0828403121561106e57600080fd5b611076610d1a565b6110808484610fe9565b815261010083013560208201526101208301356040820152610140830135606082015261016083013560808201526101809092013560a083015250919050565b600082601f8301126110d157600080fd5b813560206110e1610f7183610e2c565b8083825260208201915060208460051b87010193508684111561110357600080fd5b602086015b8481101561111f5780358352918301918301611108565b509695505050505050565b60006020828403121561113c57600080fd5b81356001600160401b038082111561115357600080fd5b908301906101a0828603121561116857600080fd5b611170610d1a565b61117a8684610fe9565b81526101008301358281111561118f57600080fd5b61119b878286016110c0565b6020830152506101208301356040820152610140830135828111156111bf57600080fd5b6111cb878286016110c0565b606083015250610160830135828111156111e457600080fd5b6111f0878286016110c0565b6080830152506101808301358281111561120957600080fd5b611215878286016110c0565b60a08301525095945050505050565b600082601f83011261123557600080fd5b6040516101408082018281106001600160401b038211171561125957611259610cba565b6040528301818582111561126c57600080fd5b845b8281101561128657803582526020918201910161126e565b509195945050505050565b600061062082840312156112a457600080fd5b6112ac610d1a565b6112b68484610fe9565b81526112c6846101008501611224565b602082015261024083013560408201526112e4846102608501611224565b60608201526112f7846103a08501611224565b608082015261130a846104e08501611224565b60a08201529392505050565b634e487b7160e01b600052603260045260246000fd5b634e487b7160e01b600052601160045260246000fd5b600060ff821660ff81036113585761135861132c565b60010192915050565b8060005b6002811015611384578154845260209093019260019182019101611365565b50505050565b6113948282611361565b6113a46040830160028301611361565b5050565b8060005b60028110156113845781518452602093840193909101906001016113ac565b6113e082825180518252602090810151910152565b60208101516113f36040840182516113a8565b6020015161140460808401826113a8565b5060400151805160c08301526020015160e090910152565b60008151808452602080850194506020840160005b8381101561144d57815187529582019590820190600101611431565b509495945050505050565b6101408082528454908201526001840154610160820152600060026103208301611488610180850183890161138a565b61149961020085016006890161138a565b6114aa6102808501600a890161138a565b6101e0610300850152600e8701805491829052600090815260208120916103408601905b808310156114fa57835482526001840154602083015260408201915084840193506001830192506114ce565b5061150860208701896113cb565b85810361012087015261151b818861141c565b9998505050505050505050565b60006020828403121561153a57600080fd5b8151801515811461064057600080fd5b808201808211156105065761050661132c56fea2646970667358221220b97f78ff11109dc3d8dd205db01c5bf6cef568fa7374414eed083961edf4b7f464736f6c63430008180033",
  "linkReferences": {},
  "deployedLinkReferences": {}
}