{
  "_format": "hh-sol-artifact-1",
  "contractName": "EnygmaManager",
  "sourceName": "src/commitChain/ParticipantStorage-New/EnygmaManager.sol",
  "abi": [
    {
      "anonymous": false,
      "inputs": [
        {
          "indexed": false,
          "internalType": "uint256",
          "name": "chainId",
          "type": "uint256"
        }
      ],
      "name": "EnygmaDataAdded",
      "type": "event"
    },
    {
      "inputs": [
        {
          "internalType": "uint256",
          "name": "",
          "type": "uint256"
        }
      ],
      "name": "allEnygmaParticipants",
      "outputs": [
        {
          "internalType": "uint256",
          "name": "",
          "type": "uint256"
        }
      ],
      "stateMutability": "view",
      "type": "function"
    },
    {
      "inputs": [
        {
          "internalType": "uint256",
          "name": "",
          "type": "uint256"
        }
      ],
      "name": "allPrivateLedgers",
      "outputs": [
        {
          "internalType": "uint256",
          "name": "",
          "type": "uint256"
        }
      ],
      "stateMutability": "view",
      "type": "function"
    },
    {
      "inputs": [
        {
          "internalType": "uint256",
          "name": "",
          "type": "uint256"
        }
      ],
      "name": "auditInfoData",
      "outputs": [
        {
          "internalType": "uint256",
          "name": "chainId",
          "type": "uint256"
        },
        {
          "internalType": "string",
          "name": "publicKey",
          "type": "string"
        },
        {
          "internalType": "bytes",
          "name": "encryptedPrivateKey",
          "type": "bytes"
        },
        {
          "internalType": "bytes",
          "name": "mac",
          "type": "bytes"
        },
        {
          "internalType": "uint256",
          "name": "blockNumber",
          "type": "uint256"
        }
      ],
      "stateMutability": "view",
      "type": "function"
    },
    {
      "inputs": [
        {
          "internalType": "uint256",
          "name": "",
          "type": "uint256"
        }
      ],
      "name": "enygmaData",
      "outputs": [
        {
          "internalType": "uint256",
          "name": "babyJubjubX",
          "type": "uint256"
        },
        {
          "internalType": "uint256",
          "name": "babyJubjubY",
          "type": "uint256"
        },
        {
          "internalType": "uint256",
          "name": "chainId",
          "type": "uint256"
        }
      ],
      "stateMutability": "view",
      "type": "function"
    },
    {
      "inputs": [],
      "name": "getEnygmaAllParticipantsChainIds",
      "outputs": [
        {
          "internalType": "uint256[]",
          "name": "",
          "type": "uint256[]"
        }
      ],
      "stateMutability": "view",
      "type": "function"
    },
    {
      "inputs": [
        {
          "internalType": "uint256",
          "name": "chainId",
          "type": "uint256"
        }
      ],
      "name": "getEnygmaData",
      "outputs": [
        {
          "components": [
            {
              "internalType": "uint256",
              "name": "babyJubjubX",
              "type": "uint256"
            },
            {
              "internalType": "uint256",
              "name": "babyJubjubY",
              "type": "uint256"
            },
            {
              "internalType": "address[]",
              "name": "plAddresses",
              "type": "address[]"
            },
            {
              "internalType": "uint256",
              "name": "chainId",
              "type": "uint256"
            }
          ],
          "internalType": "struct StorageBase.PrivateLedgerDataEnygma",
          "name": "",
          "type": "tuple"
        }
      ],
      "stateMutability": "view",
      "type": "function"
    },
    {
      "inputs": [
        {
          "internalType": "uint256",
          "name": "",
          "type": "uint256"
        }
      ],
      "name": "participants",
      "outputs": [
        {
          "internalType": "uint256",
          "name": "chainId",
          "type": "uint256"
        },
        {
          "internalType": "string",
          "name": "name",
          "type": "string"
        },
        {
          "internalType": "uint256",
          "name": "createdAt",
          "type": "uint256"
        },
        {
          "internalType": "uint256",
          "name": "updatedAt",
          "type": "uint256"
        }
      ],
      "stateMutability": "view",
      "type": "function"
    },
    {
      "inputs": [],
      "name": "plEnygmaEvents",
      "outputs": [
        {
          "internalType": "address",
          "name": "",
          "type": "address"
        }
      ],
      "stateMutability": "view",
      "type": "function"
    },
    {
      "inputs": [
        {
          "internalType": "uint256",
          "name": "",
          "type": "uint256"
        }
      ],
      "name": "privateLedgerData",
      "outputs": [
        {
          "internalType": "uint256",
          "name": "chainId",
          "type": "uint256"
        },
        {
          "internalType": "string",
          "name": "publicKey",
          "type": "string"
        },
        {
          "internalType": "uint256",
          "name": "blockNumber",
          "type": "uint256"
        }
      ],
      "stateMutability": "view",
      "type": "function"
    },
    {
      "inputs": [
        {
          "internalType": "uint256",
          "name": "",
          "type": "uint256"
        }
      ],
      "name": "registeredChainIds",
      "outputs": [
        {
          "internalType": "uint256",
          "name": "",
          "type": "uint256"
        }
      ],
      "stateMutability": "view",
      "type": "function"
    },
    {
      "inputs": [
        {
          "internalType": "uint256",
          "name": "chainId",
          "type": "uint256"
        },
        {
          "internalType": "uint256",
          "name": "babyJubjubX",
          "type": "uint256"
        },
        {
          "internalType": "uint256",
          "name": "babyJubjubY",
          "type": "uint256"
        },
        {
          "internalType": "address[]",
          "name": "plAddresses",
          "type": "address[]"
        }
      ],
      "name": "setEnygmaData",
      "outputs": [],
      "stateMutability": "nonpayable",
      "type": "function"
    },
    {
      "inputs": [
        {
          "internalType": "uint256",
          "name": "chainId",
          "type": "uint256"
        }
      ],
      "name": "validateEnygmaParticipant",
      "outputs": [],
      "stateMutability": "view",
      "type": "function"
    }
  ],
  "bytecode": "0x608060405234801561001057600080fd5b50610bb3806100206000396000f3fe608060405234801561001057600080fd5b50600436106100a45760003560e01c806311b3821b146100a95780632d335875146100cf57806335c1d349146100e4578063452e119e146101075780634a08834d146101325780636788540f1461015257806369b6e5b414610174578063711be2311461019857806390379d86146101ad578063b7ef4e02146101c0578063c0ac4daf1461020a578063c577a7051461021d575b600080fd5b6100bc6100b73660046108ec565b610230565b6040519081526020015b60405180910390f35b6100d7610251565b6040516100c69190610905565b6100f76100f23660046108ec565b6102a9565b6040516100c6949392919061098f565b60395461011a906001600160a01b031681565b6040516001600160a01b0390911681526020016100c6565b6101456101403660046108ec565b61035a565b6040516100c691906109bb565b6101656101603660046108ec565b61041b565b6040516100c693929190610a38565b6101876101823660046108ec565b6104c6565b6040516100c6959493929190610a61565b6101ab6101a6366004610ab3565b61068d565b005b6100bc6101bb3660046108ec565b6107e8565b6101ef6101ce3660046108ec565b60356020526000908152604090208054600182015460039092015490919083565b604080519384526020840192909252908201526060016100c6565b6100bc6102183660046108ec565b6107f8565b6101ab61022b3660046108ec565b610808565b6037818154811061024057600080fd5b600091825260209091200154905081565b6060603880548060200260200160405190810160405280929190818152602001828054801561029f57602002820191906000526020600020905b81548152602001906001019080831161028b575b5050505050905090565b603260205260009081526040902080546001820180549192916102cb90610b43565b80601f01602080910402602001604051908101604052809291908181526020018280546102f790610b43565b80156103445780601f1061031957610100808354040283529160200191610344565b820191906000526020600020905b81548152906001019060200180831161032757829003601f168201915b5050505050908060020154908060030154905084565b6103856040518060800160405280600081526020016000815260200160608152602001600081525090565b6000828152603560209081526040918290208251608081018452815481526001820154818401526002820180548551818602810186018752818152929593949386019383018282801561040157602002820191906000526020600020905b81546001600160a01b031681526001909101906020018083116103e3575b505050505081526020016003820154815250509050919050565b6034602052600090815260409020805460018201805491929161043d90610b43565b80601f016020809104026020016040519081016040528092919081815260200182805461046990610b43565b80156104b65780601f1061048b576101008083540402835291602001916104b6565b820191906000526020600020905b81548152906001019060200180831161049957829003601f168201915b5050505050908060020154905083565b603360205260009081526040902080546001820180549192916104e890610b43565b80601f016020809104026020016040519081016040528092919081815260200182805461051490610b43565b80156105615780601f1061053657610100808354040283529160200191610561565b820191906000526020600020905b81548152906001019060200180831161054457829003601f168201915b50505050509080600201805461057690610b43565b80601f01602080910402602001604051908101604052809291908181526020018280546105a290610b43565b80156105ef5780601f106105c4576101008083540402835291602001916105ef565b820191906000526020600020905b8154815290600101906020018083116105d257829003601f168201915b50505050509080600301805461060490610b43565b80601f016020809104026020016040519081016040528092919081815260200182805461063090610b43565b801561067d5780601f106106525761010080835404028352916020019161067d565b820191906000526020600020905b81548152906001019060200180831161066057829003601f168201915b5050505050908060040154905085565b600085815260356020526040902054156106e35760405162461bcd60e51b8152602060048201526012602482015271456e79676d6120646174612065786973747360701b60448201526064015b60405180910390fd5b6040518060800160405280858152602001848152602001838380806020026020016040519081016040528093929190818152602001838360200280828437600092018290525093855250505060209182018890528781526035825260409081902083518155838301516001820155908301518051919261076b92600285019290910190610872565b5060609190910151600390910155603880546001810182556000919091527f38395c5dceade9603479b177b68959049485df8aa97b39f3533039af5f456199018590556040518581527f7570f7a39f308bbfc87f7c56703a0a41094463e5191ab0f22870df115dff808e9060200160405180910390a15050505050565b6036818154811061024057600080fd5b6038818154811061024057600080fd5b600081815260356020526040812054900361086f5760405162461bcd60e51b815260206004820152602160248201527f456e79676d61207061727469636970616e74206e6f74207265676973746572656044820152601960fa1b60648201526084016106da565b50565b8280548282559060005260206000209081019282156108c7579160200282015b828111156108c757825182546001600160a01b0319166001600160a01b03909116178255602090920191600190910190610892565b506108d39291506108d7565b5090565b5b808211156108d357600081556001016108d8565b6000602082840312156108fe57600080fd5b5035919050565b6020808252825182820181905260009190848201906040850190845b8181101561093d57835183529284019291840191600101610921565b50909695505050505050565b6000815180845260005b8181101561096f57602081850181015186830182015201610953565b506000602082860101526020601f19601f83011685010191505092915050565b8481526080602082015260006109a86080830186610949565b6040830194909452506060015292915050565b6000602080835260a0830184518285015281850151604085015260408501516080606086015281815180845260c0870191508483019350600092505b80831015610a205783516001600160a01b031682529284019260019290920191908401906109f7565b50606087015160808701528094505050505092915050565b838152606060208201526000610a516060830185610949565b9050826040830152949350505050565b85815260a060208201526000610a7a60a0830187610949565b8281036040840152610a8c8187610949565b90508281036060840152610aa08186610949565b9150508260808301529695505050505050565b600080600080600060808688031215610acb57600080fd5b853594506020860135935060408601359250606086013567ffffffffffffffff80821115610af857600080fd5b818801915088601f830112610b0c57600080fd5b813581811115610b1b57600080fd5b8960208260051b8501011115610b3057600080fd5b9699959850939650602001949392505050565b600181811c90821680610b5757607f821691505b602082108103610b7757634e487b7160e01b600052602260045260246000fd5b5091905056fea2646970667358221220143d73b79f2764b11f611fd0b13f2c94ecb4298acf78a40f80b787438ba6507a64736f6c63430008180033",
  "linkReferences": {},
  "deployedLinkReferences": {}
}