{
  "_format": "hh-sol-artifact-1",
  "contractName": "ParticipantManager",
  "sourceName": "src/commitChain/ParticipantStorage-New/ParticipantManager.sol",
  "abi": [
    {
      "inputs": [
        {
          "internalType": "address",
          "name": "target",
          "type": "address"
        }
      ],
      "name": "AddressEmptyCode",
      "type": "error"
    },
    {
      "inputs": [
        {
          "internalType": "address",
          "name": "implementation",
          "type": "address"
        }
      ],
      "name": "ERC1967InvalidImplementation",
      "type": "error"
    },
    {
      "inputs": [],
      "name": "ERC1967NonPayable",
      "type": "error"
    },
    {
      "inputs": [],
      "name": "FailedInnerCall",
      "type": "error"
    },
    {
      "inputs": [],
      "name": "InvalidInitialization",
      "type": "error"
    },
    {
      "inputs": [],
      "name": "NotInitializing",
      "type": "error"
    },
    {
      "inputs": [
        {
          "internalType": "address",
          "name": "owner",
          "type": "address"
        }
      ],
      "name": "OwnableInvalidOwner",
      "type": "error"
    },
    {
      "inputs": [
        {
          "internalType": "address",
          "name": "account",
          "type": "address"
        }
      ],
      "name": "OwnableUnauthorizedAccount",
      "type": "error"
    },
    {
      "inputs": [],
      "name": "UUPSUnauthorizedCallContext",
      "type": "error"
    },
    {
      "inputs": [
        {
          "internalType": "bytes32",
          "name": "slot",
          "type": "bytes32"
        }
      ],
      "name": "UUPSUnsupportedProxiableUUID",
      "type": "error"
    },
    {
      "anonymous": false,
      "inputs": [
        {
          "indexed": false,
          "internalType": "uint64",
          "name": "version",
          "type": "uint64"
        }
      ],
      "name": "Initialized",
      "type": "event"
    },
    {
      "anonymous": false,
      "inputs": [
        {
          "indexed": true,
          "internalType": "address",
          "name": "previousOwner",
          "type": "address"
        },
        {
          "indexed": true,
          "internalType": "address",
          "name": "newOwner",
          "type": "address"
        }
      ],
      "name": "OwnershipTransferred",
      "type": "event"
    },
    {
      "anonymous": false,
      "inputs": [
        {
          "indexed": false,
          "internalType": "uint256",
          "name": "chainId",
          "type": "uint256"
        },
        {
          "indexed": false,
          "internalType": "string",
          "name": "name",
          "type": "string"
        }
      ],
      "name": "ParticipantAdded",
      "type": "event"
    },
    {
      "anonymous": false,
      "inputs": [
        {
          "indexed": false,
          "internalType": "uint256",
          "name": "chainId",
          "type": "uint256"
        },
        {
          "indexed": false,
          "internalType": "string",
          "name": "description",
          "type": "string"
        }
      ],
      "name": "ParticipantUpdated",
      "type": "event"
    },
    {
      "anonymous": false,
      "inputs": [
        {
          "indexed": true,
          "internalType": "address",
          "name": "implementation",
          "type": "address"
        }
      ],
      "name": "Upgraded",
      "type": "event"
    },
    {
      "inputs": [],
      "name": "UPGRADE_INTERFACE_VERSION",
      "outputs": [
        {
          "internalType": "string",
          "name": "",
          "type": "string"
        }
      ],
      "stateMutability": "view",
      "type": "function"
    },
    {
      "inputs": [
        {
          "internalType": "uint256",
          "name": "chainId",
          "type": "uint256"
        },
        {
          "internalType": "string",
          "name": "name",
          "type": "string"
        }
      ],
      "name": "addParticipant",
      "outputs": [],
      "stateMutability": "nonpayable",
      "type": "function"
    },
    {
      "inputs": [
        {
          "internalType": "uint256",
          "name": "",
          "type": "uint256"
        }
      ],
      "name": "allEnygmaParticipants",
      "outputs": [
        {
          "internalType": "uint256",
          "name": "",
          "type": "uint256"
        }
      ],
      "stateMutability": "view",
      "type": "function"
    },
    {
      "inputs": [
        {
          "internalType": "uint256",
          "name": "",
          "type": "uint256"
        }
      ],
      "name": "allPrivateLedgers",
      "outputs": [
        {
          "internalType": "uint256",
          "name": "",
          "type": "uint256"
        }
      ],
      "stateMutability": "view",
      "type": "function"
    },
    {
      "inputs": [
        {
          "internalType": "uint256",
          "name": "",
          "type": "uint256"
        }
      ],
      "name": "auditInfoData",
      "outputs": [
        {
          "internalType": "uint256",
          "name": "chainId",
          "type": "uint256"
        },
        {
          "internalType": "string",
          "name": "publicKey",
          "type": "string"
        },
        {
          "internalType": "bytes",
          "name": "encryptedPrivateKey",
          "type": "bytes"
        },
        {
          "internalType": "bytes",
          "name": "mac",
          "type": "bytes"
        },
        {
          "internalType": "uint256",
          "name": "blockNumber",
          "type": "uint256"
        }
      ],
      "stateMutability": "view",
      "type": "function"
    },
    {
      "inputs": [
        {
          "internalType": "uint256",
          "name": "",
          "type": "uint256"
        }
      ],
      "name": "enygmaData",
      "outputs": [
        {
          "internalType": "uint256",
          "name": "babyJubjubX",
          "type": "uint256"
        },
        {
          "internalType": "uint256",
          "name": "babyJubjubY",
          "type": "uint256"
        },
        {
          "internalType": "uint256",
          "name": "chainId",
          "type": "uint256"
        }
      ],
      "stateMutability": "view",
      "type": "function"
    },
    {
      "inputs": [
        {
          "internalType": "uint256",
          "name": "chainId",
          "type": "uint256"
        }
      ],
      "name": "getParticipant",
      "outputs": [
        {
          "components": [
            {
              "internalType": "uint256",
              "name": "chainId",
              "type": "uint256"
            },
            {
              "internalType": "string",
              "name": "name",
              "type": "string"
            },
            {
              "internalType": "uint256",
              "name": "createdAt",
              "type": "uint256"
            },
            {
              "internalType": "uint256",
              "name": "updatedAt",
              "type": "uint256"
            },
            {
              "internalType": "uint256[50]",
              "name": "__gap",
              "type": "uint256[50]"
            }
          ],
          "internalType": "struct StorageBase.Participant",
          "name": "",
          "type": "tuple"
        }
      ],
      "stateMutability": "view",
      "type": "function"
    },
    {
      "inputs": [],
      "name": "getStorageSlot",
      "outputs": [
        {
          "internalType": "bytes32",
          "name": "",
          "type": "bytes32"
        }
      ],
      "stateMutability": "pure",
      "type": "function"
    },
    {
      "inputs": [
        {
          "internalType": "address",
          "name": "owner",
          "type": "address"
        }
      ],
      "name": "initialize",
      "outputs": [],
      "stateMutability": "nonpayable",
      "type": "function"
    },
    {
      "inputs": [],
      "name": "owner",
      "outputs": [
        {
          "internalType": "address",
          "name": "",
          "type": "address"
        }
      ],
      "stateMutability": "view",
      "type": "function"
    },
    {
      "inputs": [
        {
          "internalType": "uint256",
          "name": "",
          "type": "uint256"
        }
      ],
      "name": "participants",
      "outputs": [
        {
          "internalType": "uint256",
          "name": "chainId",
          "type": "uint256"
        },
        {
          "internalType": "string",
          "name": "name",
          "type": "string"
        },
        {
          "internalType": "uint256",
          "name": "createdAt",
          "type": "uint256"
        },
        {
          "internalType": "uint256",
          "name": "updatedAt",
          "type": "uint256"
        }
      ],
      "stateMutability": "view",
      "type": "function"
    },
    {
      "inputs": [],
      "name": "plEnygmaEvents",
      "outputs": [
        {
          "internalType": "address",
          "name": "",
          "type": "address"
        }
      ],
      "stateMutability": "view",
      "type": "function"
    },
    {
      "inputs": [
        {
          "internalType": "uint256",
          "name": "",
          "type": "uint256"
        }
      ],
      "name": "privateLedgerData",
      "outputs": [
        {
          "internalType": "uint256",
          "name": "chainId",
          "type": "uint256"
        },
        {
          "internalType": "string",
          "name": "publicKey",
          "type": "string"
        },
        {
          "internalType": "uint256",
          "name": "blockNumber",
          "type": "uint256"
        }
      ],
      "stateMutability": "view",
      "type": "function"
    },
    {
      "inputs": [],
      "name": "proxiableUUID",
      "outputs": [
        {
          "internalType": "bytes32",
          "name": "",
          "type": "bytes32"
        }
      ],
      "stateMutability": "view",
      "type": "function"
    },
    {
      "inputs": [
        {
          "internalType": "uint256",
          "name": "",
          "type": "uint256"
        }
      ],
      "name": "registeredChainIds",
      "outputs": [
        {
          "internalType": "uint256",
          "name": "",
          "type": "uint256"
        }
      ],
      "stateMutability": "view",
      "type": "function"
    },
    {
      "inputs": [],
      "name": "renounceOwnership",
      "outputs": [],
      "stateMutability": "nonpayable",
      "type": "function"
    },
    {
      "inputs": [
        {
          "internalType": "address",
          "name": "newOwner",
          "type": "address"
        }
      ],
      "name": "transferOwnership",
      "outputs": [],
      "stateMutability": "nonpayable",
      "type": "function"
    },
    {
      "inputs": [
        {
          "internalType": "uint256",
          "name": "chainId",
          "type": "uint256"
        },
        {
          "internalType": "string",
          "name": "name",
          "type": "string"
        }
      ],
      "name": "updateParticipantName",
      "outputs": [],
      "stateMutability": "nonpayable",
      "type": "function"
    },
    {
      "inputs": [
        {
          "internalType": "address",
          "name": "newImplementation",
          "type": "address"
        },
        {
          "internalType": "bytes",
          "name": "data",
          "type": "bytes"
        }
      ],
      "name": "upgradeToAndCall",
      "outputs": [],
      "stateMutability": "payable",
      "type": "function"
    },
    {
      "inputs": [
        {
          "internalType": "uint256",
          "name": "chainId",
          "type": "uint256"
        }
      ],
      "name": "validateParticipant",
      "outputs": [],
      "stateMutability": "view",
      "type": "function"
    }
  ],
  "bytecode": "0x60a06040523060805234801561001457600080fd5b506080516118fe61003e60003960008181610db901528181610de20152610f1f01526118fe6000f3fe6080604052600436106100ff5760003560e01c80638da5cb5b116100905780638da5cb5b1461028057806390379d861461029557806396708226146102b55780639735303c146102e8578063ad3cb1cc14610308578063b548400414610346578063b7ef4e0214610366578063c0ac4daf146103bd578063c4d66de8146103dd578063f2fde38b146103fd57600080fd5b806311b3821b146101045780631b9db2ef1461013757806335c1d34914610164578063452e119e146101945780634f1ef286146101c157806352d1902d146101d65780636788540f146101eb57806369b6e5b41461021a578063715018a61461024b5780637d8470cb14610260575b600080fd5b34801561011057600080fd5b5061012461011f3660046112ff565b61041d565b6040519081526020015b60405180910390f35b34801561014357600080fd5b506101576101523660046112ff565b61043e565b60405161012e9190611368565b34801561017057600080fd5b5061018461017f3660046112ff565b610560565b60405161012e94939291906113dc565b3480156101a057600080fd5b506039546101b4906001600160a01b031681565b60405161012e9190611408565b6101d46101cf36600461144e565b610611565b005b3480156101e257600080fd5b50610124610630565b3480156101f757600080fd5b5061020b6102063660046112ff565b61064d565b60405161012e9392919061150f565b34801561022657600080fd5b5061023a6102353660046112ff565b6106f8565b60405161012e959493929190611538565b34801561025757600080fd5b506101d46108bf565b34801561026c57600080fd5b506101d461027b36600461158a565b6108d3565b34801561028c57600080fd5b506101b4610a8f565b3480156102a157600080fd5b506101246102b03660046112ff565b610aaa565b3480156102c157600080fd5b507ff2f3c24b8e62a32f6ff1628f4e6d6d7d9982c2ae42f030429519049d70a537cf610124565b3480156102f457600080fd5b506101d461030336600461158a565b610aba565b34801561031457600080fd5b50610339604051806040016040528060058152602001640352e302e360dc1b81525081565b60405161012e9190611605565b34801561035257600080fd5b506101d46103613660046112ff565b610b81565b34801561037257600080fd5b506103a26103813660046112ff565b60356020526000908152604090208054600182015460039092015490919083565b6040805193845260208401929092529082015260600161012e565b3480156103c957600080fd5b506101246103d83660046112ff565b610be7565b3480156103e957600080fd5b506101d46103f8366004611618565b610bf7565b34801561040957600080fd5b506101d4610418366004611618565b610d4f565b6037818154811061042d57600080fd5b600091825260209091200154905081565b610446611259565b61044e610d8a565b60000160008381526020019081526020016000206040518060a00160405290816000820154815260200160018201805461048790611633565b80601f01602080910402602001604051908101604052809291908181526020018280546104b390611633565b80156105005780601f106104d557610100808354040283529160200191610500565b820191906000526020600020905b8154815290600101906020018083116104e357829003601f168201915b5050509183525050600282015460208201526003820154604080830191909152805161064081019182905260609092019190600484019060329082845b81548152602001906001019080831161053d575050505050815250509050919050565b6032602052600090815260409020805460018201805491929161058290611633565b80601f01602080910402602001604051908101604052809291908181526020018280546105ae90611633565b80156105fb5780601f106105d0576101008083540402835291602001916105fb565b820191906000526020600020905b8154815290600101906020018083116105de57829003601f168201915b5050505050908060020154908060030154905084565b610619610dae565b61062282610e53565b61062c8282610e5b565b5050565b600061063a610f14565b506000805160206118a983398151915290565b6034602052600090815260409020805460018201805491929161066f90611633565b80601f016020809104026020016040519081016040528092919081815260200182805461069b90611633565b80156106e85780601f106106bd576101008083540402835291602001916106e8565b820191906000526020600020905b8154815290600101906020018083116106cb57829003601f168201915b5050505050908060020154905083565b6033602052600090815260409020805460018201805491929161071a90611633565b80601f016020809104026020016040519081016040528092919081815260200182805461074690611633565b80156107935780601f1061076857610100808354040283529160200191610793565b820191906000526020600020905b81548152906001019060200180831161077657829003601f168201915b5050505050908060020180546107a890611633565b80601f01602080910402602001604051908101604052809291908181526020018280546107d490611633565b80156108215780601f106107f657610100808354040283529160200191610821565b820191906000526020600020905b81548152906001019060200180831161080457829003601f168201915b50505050509080600301805461083690611633565b80601f016020809104026020016040519081016040528092919081815260200182805461086290611633565b80156108af5780601f10610884576101008083540402835291602001916108af565b820191906000526020600020905b81548152906001019060200180831161089257829003601f168201915b5050505050908060040154905085565b6108c7610f5d565b6108d16000610f8f565b565b60006108dd610d8a565b600085815260208290526040902054909150156109365760405162461bcd60e51b81526020600482015260126024820152715061727469636970616e742065786973747360701b60448201526064015b60405180910390fd5b6040518060a0016040528085815260200184848080601f016020809104026020016040519081016040528093929190818152602001838380828437600092018290525093855250504260208401819052604080850191909152805161064081019182905260609094019392915060329082845b8154815260200190600101908083116109a957505050919092525050600085815260208381526040909120825181559082015160018201906109eb90826116ca565b5060408201516002820155606082015160038201556080820151610a15906004830190603261128d565b5050603680546001810182556000919091527f4a11f94e20a93c79f6ec743a1954ec4fc2c08429ae2122118bf234b2185c81b801859055506040517f92b5d035edaeb590bbbac4e042655105e3c4adb5fb3fa46bcf73199cf1b1f32c90610a8190869086908690611783565b60405180910390a150505050565b600080610a9a610feb565b546001600160a01b031692915050565b6036818154811061042d57600080fd5b6000610ac4610d8a565b60008581526020829052604081205491925003610b1b5760405162461bcd60e51b815260206004820152601560248201527414185c9d1a58da5c185b9d081b9bdd08199bdd5b99605a1b604482015260640161092d565b6000848152602082905260409020600101610b378385836117b9565b506000848152602082905260409081902042600390910155517fe70d8c853a3aaf4898a070715f08ea951073c921a752abcd6999504d1e6d4e4190610a8190869086908690611783565b610b89610d8a565b600082815260209190915260408120549003610be45760405162461bcd60e51b815260206004820152601a60248201527914185c9d1a58da5c185b9d081b9bdd081c9959da5cdd195c995960321b604482015260640161092d565b50565b6038818154811061042d57600080fd5b6000610c0161100f565b805490915060ff600160401b82041615906001600160401b0316600081158015610c285750825b90506000826001600160401b03166001148015610c445750303b155b905081158015610c52575080155b15610c705760405163f92ee8a960e01b815260040160405180910390fd5b845467ffffffffffffffff191660011785558315610c9a57845460ff60401b1916600160401b1785555b6001600160a01b038616610cf05760405162461bcd60e51b815260206004820152601c60248201527f4f776e657220616464726573732063616e6e6f74206265207a65726f00000000604482015260640161092d565b610cf986611033565b610d01611044565b8315610d4757845460ff60401b19168555604051600181527fc7f505b2f371ae2175ee4913f4499e1f2633a7b5936321eed1cdaeb6115181d29060200160405180910390a15b505050505050565b610d57610f5d565b6001600160a01b038116610d81576000604051631e4fbdf760e01b815260040161092d9190611408565b610be481610f8f565b7ff2f3c24b8e62a32f6ff1628f4e6d6d7d9982c2ae42f030429519049d70a537cf90565b306001600160a01b037f0000000000000000000000000000000000000000000000000000000000000000161480610e3557507f00000000000000000000000000000000000000000000000000000000000000006001600160a01b0316610e296000805160206118a9833981519152546001600160a01b031690565b6001600160a01b031614155b156108d15760405163703e46dd60e11b815260040160405180910390fd5b610be4610f5d565b816001600160a01b03166352d1902d6040518163ffffffff1660e01b8152600401602060405180830381865afa925050508015610eb5575060408051601f3d908101601f19168201909252610eb291810190611873565b60015b610ed45781604051634c9c8ce360e01b815260040161092d9190611408565b6000805160206118a98339815191528114610f0557604051632a87526960e21b81526004810182905260240161092d565b610f0f838361104c565b505050565b306001600160a01b037f000000000000000000000000000000000000000000000000000000000000000016146108d15760405163703e46dd60e11b815260040160405180910390fd5b33610f66610a8f565b6001600160a01b0316146108d1573360405163118cdaa760e01b815260040161092d9190611408565b6000610f99610feb565b80546001600160a01b038481166001600160a01b031983168117845560405193945091169182907f8be0079c531659141344cd1fd0a4f28419497f9722a3daafe3b4186f6b6457e090600090a3505050565b7f9016d09d72d40fdae2fd8ceac6b6234c7706214fd39c1cd1e609a0528c19930090565b7ff0c57e16840df040f15088dc2f81fe391c3923bec73e23a9662efc9c229c6a0090565b61103b6110a2565b610be4816110c7565b6108d16110a2565b611055826110cf565b6040516001600160a01b038316907fbc7cd75a20ee27fd9adebab32041f755214dbc6bffa90cc0225b39da2e5c2d3b90600090a280511561109a57610f0f828261112b565b61062c6111a1565b6110aa6111c0565b6108d157604051631afcd79f60e31b815260040160405180910390fd5b610d576110a2565b806001600160a01b03163b6000036110fc5780604051634c9c8ce360e01b815260040161092d9190611408565b6000805160206118a983398151915280546001600160a01b0319166001600160a01b0392909216919091179055565b6060600080846001600160a01b031684604051611148919061188c565b600060405180830381855af49150503d8060008114611183576040519150601f19603f3d011682016040523d82523d6000602084013e611188565b606091505b50915091506111988583836111da565b95945050505050565b34156108d15760405163b398979f60e01b815260040160405180910390fd5b60006111ca61100f565b54600160401b900460ff16919050565b6060826111ef576111ea82611230565b611229565b815115801561120657506001600160a01b0384163b155b156112265783604051639996b31560e01b815260040161092d9190611408565b50805b9392505050565b8051156112405780518082602001fd5b604051630a12f52160e11b815260040160405180910390fd5b6040518060a00160405280600081526020016060815260200160008152602001600081526020016112886112cb565b905290565b82603281019282156112bb579160200282015b828111156112bb5782518255916020019190600101906112a0565b506112c79291506112ea565b5090565b6040518061064001604052806032906020820280368337509192915050565b5b808211156112c757600081556001016112eb565b60006020828403121561131157600080fd5b5035919050565b60005b8381101561133357818101518382015260200161131b565b50506000910152565b60008151808452611354816020860160208601611318565b601f01601f19169290920160200192915050565b600060208083528351602084015260208401516106c060408501526113916106e085018261133c565b90506040850151606085015260608501516080850152608085015160a0850160005b60328110156113d0578251825291840191908401906001016113b3565b50919695505050505050565b8481526080602082015260006113f5608083018661133c565b6040830194909452506060015292915050565b6001600160a01b0391909116815260200190565b80356001600160a01b038116811461143357600080fd5b919050565b634e487b7160e01b600052604160045260246000fd5b6000806040838503121561146157600080fd5b61146a8361141c565b915060208301356001600160401b038082111561148657600080fd5b818501915085601f83011261149a57600080fd5b8135818111156114ac576114ac611438565b604051601f8201601f19908116603f011681019083821181831017156114d4576114d4611438565b816040528281528860208487010111156114ed57600080fd5b8260208601602083013760006020848301015280955050505050509250929050565b838152606060208201526000611528606083018561133c565b9050826040830152949350505050565b85815260a06020820152600061155160a083018761133c565b8281036040840152611563818761133c565b90508281036060840152611577818661133c565b9150508260808301529695505050505050565b60008060006040848603121561159f57600080fd5b8335925060208401356001600160401b03808211156115bd57600080fd5b818601915086601f8301126115d157600080fd5b8135818111156115e057600080fd5b8760208285010111156115f257600080fd5b6020830194508093505050509250925092565b602081526000611229602083018461133c565b60006020828403121561162a57600080fd5b6112298261141c565b600181811c9082168061164757607f821691505b60208210810361166757634e487b7160e01b600052602260045260246000fd5b50919050565b601f821115610f0f576000816000526020600020601f850160051c810160208610156116965750805b601f850160051c820191505b81811015610d47578281556001016116a2565b600019600383901b1c191660019190911b1790565b81516001600160401b038111156116e3576116e3611438565b6116f7816116f18454611633565b8461166d565b602080601f83116001811461172657600084156117145750858301515b61171e85826116b5565b865550610d47565b600085815260208120601f198616915b8281101561175557888601518255948401946001909101908401611736565b50858210156117735787850151600019600388901b60f8161c191681555b5050505050600190811b01905550565b83815260406020820152816040820152818360608301376000818301606090810191909152601f909201601f1916010192915050565b6001600160401b038311156117d0576117d0611438565b6117e4836117de8354611633565b8361166d565b6000601f84116001811461181257600085156118005750838201355b61180a86826116b5565b84555061186c565b600083815260209020601f19861690835b828110156118435786850135825560209485019460019092019101611823565b50868210156118605760001960f88860031b161c19848701351681555b505060018560011b0183555b5050505050565b60006020828403121561188557600080fd5b5051919050565b6000825161189e818460208701611318565b919091019291505056fe360894a13ba1a3210667c828492db98dca3e2076cc3735a920a3ca505d382bbca264697066735822122077d7170b8fdafeae1d365a0724255ca9956e6a5c33d9eda5d3218dca065ddc0a64736f6c63430008180033",
  "linkReferences": {},
  "deployedLinkReferences": {}
}