{
  "_format": "hh-sol-artifact-1",
  "contractName": "ArbitraryMessage",
  "sourceName": "src/rayls-protocol/test-contracts/ArbitraryMessage.sol",
  "abi": [
    {
      "inputs": [
        {
          "internalType": "bytes32",
          "name": "_resourceId",
          "type": "bytes32"
        },
        {
          "internalType": "address",
          "name": "_endpoint",
          "type": "address"
        }
      ],
      "stateMutability": "nonpayable",
      "type": "constructor"
    },
    {
      "inputs": [],
      "name": "_getEndpointAddress",
      "outputs": [
        {
          "internalType": "address",
          "name": "",
          "type": "address"
        }
      ],
      "stateMutability": "view",
      "type": "function"
    },
    {
      "inputs": [
        {
          "internalType": "address",
          "name": "_endpoint",
          "type": "address"
        }
      ],
      "name": "_updateEndpoint",
      "outputs": [],
      "stateMutability": "nonpayable",
      "type": "function"
    },
    {
      "inputs": [],
      "name": "all",
      "outputs": [
        {
          "internalType": "string",
          "name": "",
          "type": "string"
        }
      ],
      "stateMutability": "view",
      "type": "function"
    },
    {
      "inputs": [],
      "name": "count",
      "outputs": [
        {
          "internalType": "uint256",
          "name": "",
          "type": "uint256"
        }
      ],
      "stateMutability": "view",
      "type": "function"
    },
    {
      "inputs": [
        {
          "internalType": "bytes32",
          "name": "_resourceId",
          "type": "bytes32"
        }
      ],
      "name": "getAddressByResourceId",
      "outputs": [
        {
          "internalType": "address",
          "name": "",
          "type": "address"
        }
      ],
      "stateMutability": "view",
      "type": "function"
    },
    {
      "inputs": [],
      "name": "msgA",
      "outputs": [
        {
          "internalType": "string",
          "name": "",
          "type": "string"
        }
      ],
      "stateMutability": "view",
      "type": "function"
    },
    {
      "inputs": [],
      "name": "msgB",
      "outputs": [
        {
          "internalType": "string",
          "name": "",
          "type": "string"
        }
      ],
      "stateMutability": "view",
      "type": "function"
    },
    {
      "inputs": [],
      "name": "msgC",
      "outputs": [
        {
          "internalType": "string",
          "name": "",
          "type": "string"
        }
      ],
      "stateMutability": "view",
      "type": "function"
    },
    {
      "inputs": [],
      "name": "msgD",
      "outputs": [
        {
          "internalType": "string",
          "name": "",
          "type": "string"
        }
      ],
      "stateMutability": "view",
      "type": "function"
    },
    {
      "inputs": [],
      "name": "multiple",
      "outputs": [
        {
          "internalType": "string",
          "name": "",
          "type": "string"
        }
      ],
      "stateMutability": "view",
      "type": "function"
    },
    {
      "inputs": [],
      "name": "receiveIncreaseCount",
      "outputs": [],
      "stateMutability": "nonpayable",
      "type": "function"
    },
    {
      "inputs": [
        {
          "internalType": "string",
          "name": "_msgA",
          "type": "string"
        }
      ],
      "name": "receiveMsgA",
      "outputs": [],
      "stateMutability": "nonpayable",
      "type": "function"
    },
    {
      "inputs": [
        {
          "internalType": "string",
          "name": "_all",
          "type": "string"
        }
      ],
      "name": "receiveMsgAll",
      "outputs": [],
      "stateMutability": "nonpayable",
      "type": "function"
    },
    {
      "inputs": [
        {
          "internalType": "string",
          "name": "_msgB",
          "type": "string"
        }
      ],
      "name": "receiveMsgB",
      "outputs": [],
      "stateMutability": "nonpayable",
      "type": "function"
    },
    {
      "inputs": [
        {
          "internalType": "string",
          "name": "_msgC",
          "type": "string"
        }
      ],
      "name": "receiveMsgC",
      "outputs": [],
      "stateMutability": "nonpayable",
      "type": "function"
    },
    {
      "inputs": [
        {
          "internalType": "string",
          "name": "_msgD",
          "type": "string"
        }
      ],
      "name": "receiveMsgD",
      "outputs": [],
      "stateMutability": "nonpayable",
      "type": "function"
    },
    {
      "inputs": [
        {
          "internalType": "string",
          "name": "_multiple",
          "type": "string"
        }
      ],
      "name": "receiveMsgMultiple",
      "outputs": [],
      "stateMutability": "nonpayable",
      "type": "function"
    },
    {
      "inputs": [],
      "name": "resourceId",
      "outputs": [
        {
          "internalType": "bytes32",
          "name": "",
          "type": "bytes32"
        }
      ],
      "stateMutability": "view",
      "type": "function"
    },
    {
      "inputs": [
        {
          "internalType": "uint256",
          "name": "destChainId",
          "type": "uint256"
        }
      ],
      "name": "send1IncreaseCount",
      "outputs": [],
      "stateMutability": "nonpayable",
      "type": "function"
    },
    {
      "inputs": [
        {
          "internalType": "string",
          "name": "message",
          "type": "string"
        },
        {
          "internalType": "uint256",
          "name": "destChainId",
          "type": "uint256"
        }
      ],
      "name": "send1Message",
      "outputs": [],
      "stateMutability": "nonpayable",
      "type": "function"
    },
    {
      "inputs": [
        {
          "internalType": "string",
          "name": "message",
          "type": "string"
        },
        {
          "internalType": "uint256",
          "name": "destChainId",
          "type": "uint256"
        },
        {
          "internalType": "address",
          "name": "toContract",
          "type": "address"
        }
      ],
      "name": "send1MessageWithMetadata",
      "outputs": [],
      "stateMutability": "nonpayable",
      "type": "function"
    },
    {
      "inputs": [
        {
          "internalType": "string",
          "name": "messageB",
          "type": "string"
        },
        {
          "internalType": "string",
          "name": "messageC",
          "type": "string"
        },
        {
          "internalType": "string",
          "name": "messageD",
          "type": "string"
        },
        {
          "internalType": "uint256",
          "name": "destChainId",
          "type": "uint256"
        }
      ],
      "name": "send3Messages",
      "outputs": [],
      "stateMutability": "nonpayable",
      "type": "function"
    },
    {
      "inputs": [
        {
          "internalType": "string",
          "name": "messageB",
          "type": "string"
        },
        {
          "internalType": "string",
          "name": "messageC",
          "type": "string"
        },
        {
          "internalType": "string",
          "name": "messageD",
          "type": "string"
        },
        {
          "internalType": "uint256",
          "name": "destChainIdB",
          "type": "uint256"
        },
        {
          "internalType": "uint256",
          "name": "destChainIdC",
          "type": "uint256"
        },
        {
          "internalType": "uint256",
          "name": "destChainIdD",
          "type": "uint256"
        }
      ],
      "name": "send3MessagesToDifferentChainIds",
      "outputs": [],
      "stateMutability": "nonpayable",
      "type": "function"
    },
    {
      "inputs": [
        {
          "internalType": "uint256",
          "name": "destChainId",
          "type": "uint256"
        },
        {
          "internalType": "uint256",
          "name": "times",
          "type": "uint256"
        }
      ],
      "name": "sendMultipleIncreaseCount",
      "outputs": [],
      "stateMutability": "nonpayable",
      "type": "function"
    },
    {
      "inputs": [
        {
          "internalType": "string",
          "name": "message",
          "type": "string"
        }
      ],
      "name": "sendToAllParticipants",
      "outputs": [],
      "stateMutability": "nonpayable",
      "type": "function"
    },
    {
      "inputs": [
        {
          "internalType": "string",
          "name": "message",
          "type": "string"
        },
        {
          "internalType": "uint256[]",
          "name": "chainIds",
          "type": "uint256[]"
        }
      ],
      "name": "sendToMultipleParticipants",
      "outputs": [],
      "stateMutability": "nonpayable",
      "type": "function"
    }
  ],
  "bytecode": "0x6080604052600060085534801561001557600080fd5b5060405161131b38038061131b83398101604081905261003491610153565b600080546001600160a01b0319166001600160a01b038316179055600182905561005c610084565b50506009805460ff19166004179055600b8054336001600160a01b0319909116179055610190565b6001546100e95760405162461bcd60e51b815260206004820152602960248201527f4f6e6c79207265676973746572207265736f75726365207768656e206974277360448201526808185c1c1c9bdd995960ba1b606482015260840160405180910390fd5b60005460015460405163d4f951c760e01b815260048101919091523060248201526001600160a01b039091169063d4f951c790604401600060405180830381600087803b15801561013957600080fd5b505af115801561014d573d6000803e3d6000fd5b50505050565b6000806040838503121561016657600080fd5b825160208401519092506001600160a01b038116811461018557600080fd5b809150509250929050565b61117c8061019f6000396000f3fe608060405234801561001057600080fd5b506004361061014e5760003560e01c80636f181318116100be5780636f181318146102445780637047844b146102745780638e194b0514610287578063910ffef61461029a578063a6b8d4bb146102ad578063a7ad017e146102c0578063ab924a2a146102d3578063b247d946146102e6578063b37295ce146102f7578063b41ccb2c1461030a578063d7cfd21114610312578063f0a7ef651461031a578063f26352a91461032257600080fd5b806306661abd146101535780630b4262111461016f5780630c22c5ea1461018457806310c4e8b01461019957806310e661dd146101a157806311f50c85146101b4578063277e33b1146101df578063336c2cbb146101f2578063382e780414610205578063437a8ae614610218578063545a96c6146102205780635794149a146102335780635f997c5b1461023b575b600080fd5b61015c60085481565b6040519081526020015b60405180910390f35b61018261017d366004610a49565b610335565b005b61018c610430565b6040516101669190610ad3565b61018c6104be565b6101826101af366004610aed565b6104cb565b6101c76101c2366004610b0f565b610564565b6040516001600160a01b039091168152602001610166565b6101826101ed366004610b70565b6105d8565b610182610200366004610b0f565b610632565b610182610213366004610bb1565b6106b6565b61018c61071c565b61018261022e366004610c40565b610729565b610182610735565b61015c60015481565b610182610252366004610c91565b600080546001600160a01b0319166001600160a01b0392909216919091179055565b610182610282366004610c40565b610748565b610182610295366004610cae565b610754565b6101826102a8366004610c40565b610794565b6101826102bb366004610d0c565b6107a0565b6101826102ce366004610c40565b6107f4565b6101826102e1366004610c40565b610800565b6000546001600160a01b03166101c7565b610182610305366004610da5565b61080c565b61018c610874565b61018c610881565b61018c61088e565b610182610330366004610c40565b61089b565b61042c8160015463f26352a960e01b856040516024016103559190610ad3565b60408051601f19818403018152918152602080830180516001600160e01b03166001600160e01b0319909516949094179093528051808401825260008082528251808601845281815283519586018452908552825160c081019093526009805494959294919391829060ff1660048111156103d2576103d2610e48565b60048111156103e3576103e3610e48565b81526001820154602082015260028201546001600160a01b039081166040830152600383015481166060830152600483015416608082015260059091015460a0909101526108a7565b5050565b6003805461043d90610e5e565b80601f016020809104026020016040519081016040528092919081815260200182805461046990610e5e565b80156104b65780601f1061048b576101008083540402835291602001916104b6565b820191906000526020600020905b81548152906001019060200180831161049957829003601f168201915b505050505081565b6007805461043d90610e5e565b60005b8181101561055f57600154604080516004808252602482018352602080830180516001600160e01b0316632bca0a4d60e11b1790528351808201855260008082528551808401875281815286519384018752908352855160c0810190965260098054610557988c9890979694959394909291839160ff909116908111156103d2576103d2610e48565b6001016104ce565b505050565b600080546040516311f50c8560e01b8152600481018490526001600160a01b03909116906311f50c8590602401602060405180830381865afa1580156105ae573d6000803e3d6000fd5b505050506040513d601f19601f820116820180604052508101906105d29190610e98565b92915050565b61042c600060015463ab924a2a60e01b85856040516024016105fb929190610eb5565b60408051601f198184030181529190526020810180516001600160e01b03166001600160e01b031990931692909217909152610930565b600154604080516004808252602482018352602080830180516001600160e01b0316632bca0a4d60e11b1790528351808201855260008082528551808401875281815286519384018752908352855160c08101909652600980546106b3988a9890979694959394909291839160ff909116908111156103d2576103d2610e48565b50565b6106d68160015463910ffef660e01b876040516024016103559190610ad3565b6106f68160015463545a96c660e01b866040516024016103559190610ad3565b61071681600154637047844b60e01b856040516024016103559190610ad3565b50505050565b6006805461043d90610e5e565b600461042c8282610f2c565b600854610743906001610feb565b600855565b600561042c8282610f2c565b600c80546001600160a01b0319166001600160a01b03831617905560015460405161071691849163f26352a960e01b906103559089908990602401610eb5565b600361042c8282610f2c565b60005b818110156107ed576107e58383838181106107c0576107c061100c565b9050602002013560015463a7ad017e60e01b88886040516024016105fb929190610eb5565b6001016107a3565b5050505050565b600661042c8282610f2c565b600761042c8282610f2c565b61082c8360015463910ffef660e01b896040516024016103559190610ad3565b61084c8260015463545a96c660e01b886040516024016103559190610ad3565b61086c81600154637047844b60e01b876040516024016103559190610ad3565b505050505050565b6005805461043d90610e5e565b6004805461043d90610e5e565b6002805461043d90610e5e565b600261042c8282610f2c565b600054604051631075c5d160e21b81526001600160a01b03909116906341d71744906108e3908a908a908a908a908a908a908a90600401611022565b6020604051808303816000875af1158015610902573d6000803e3d6000fd5b505050506040513d601f19601f820116820180604052508101906109269190611105565b5050505050505050565b6000546040516320599dfd60e11b81526001600160a01b03909116906340b33bfa906109649086908690869060040161111e565b6020604051808303816000875af1158015610983573d6000803e3d6000fd5b505050506040513d601f19601f820116820180604052508101906107169190611105565b634e487b7160e01b600052604160045260246000fd5b600082601f8301126109ce57600080fd5b81356001600160401b03808211156109e8576109e86109a7565b604051601f8301601f19908116603f01168101908282118183101715610a1057610a106109a7565b81604052838152866020858801011115610a2957600080fd5b836020870160208301376000602085830101528094505050505092915050565b60008060408385031215610a5c57600080fd5b82356001600160401b03811115610a7257600080fd5b610a7e858286016109bd565b95602094909401359450505050565b6000815180845260005b81811015610ab357602081850181015186830182015201610a97565b506000602082860101526020601f19601f83011685010191505092915050565b602081526000610ae66020830184610a8d565b9392505050565b60008060408385031215610b0057600080fd5b50508035926020909101359150565b600060208284031215610b2157600080fd5b5035919050565b60008083601f840112610b3a57600080fd5b5081356001600160401b03811115610b5157600080fd5b602083019150836020828501011115610b6957600080fd5b9250929050565b60008060208385031215610b8357600080fd5b82356001600160401b03811115610b9957600080fd5b610ba585828601610b28565b90969095509350505050565b60008060008060808587031215610bc757600080fd5b84356001600160401b0380821115610bde57600080fd5b610bea888389016109bd565b95506020870135915080821115610c0057600080fd5b610c0c888389016109bd565b94506040870135915080821115610c2257600080fd5b50610c2f878288016109bd565b949793965093946060013593505050565b600060208284031215610c5257600080fd5b81356001600160401b03811115610c6857600080fd5b610c74848285016109bd565b949350505050565b6001600160a01b03811681146106b357600080fd5b600060208284031215610ca357600080fd5b8135610ae681610c7c565b60008060008060608587031215610cc457600080fd5b84356001600160401b03811115610cda57600080fd5b610ce687828801610b28565b909550935050602085013591506040850135610d0181610c7c565b939692955090935050565b60008060008060408587031215610d2257600080fd5b84356001600160401b0380821115610d3957600080fd5b610d4588838901610b28565b90965094506020870135915080821115610d5e57600080fd5b818701915087601f830112610d7257600080fd5b813581811115610d8157600080fd5b8860208260051b8501011115610d9657600080fd5b95989497505060200194505050565b60008060008060008060c08789031215610dbe57600080fd5b86356001600160401b0380821115610dd557600080fd5b610de18a838b016109bd565b97506020890135915080821115610df757600080fd5b610e038a838b016109bd565b96506040890135915080821115610e1957600080fd5b50610e2689828a016109bd565b945050606087013592506080870135915060a087013590509295509295509295565b634e487b7160e01b600052602160045260246000fd5b600181811c90821680610e7257607f821691505b602082108103610e9257634e487b7160e01b600052602260045260246000fd5b50919050565b600060208284031215610eaa57600080fd5b8151610ae681610c7c565b60208152816020820152818360408301376000818301604090810191909152601f909201601f19160101919050565b601f82111561055f576000816000526020600020601f850160051c81016020861015610f0d5750805b601f850160051c820191505b8181101561086c57828155600101610f19565b81516001600160401b03811115610f4557610f456109a7565b610f5981610f538454610e5e565b84610ee4565b602080601f831160018114610f8e5760008415610f765750858301515b600019600386901b1c1916600185901b17855561086c565b600085815260208120601f198616915b82811015610fbd57888601518255948401946001909101908401610f9e565b5085821015610fdb5787850151600019600388901b60f8161c191681555b5050505050600190811b01905550565b808201808211156105d257634e487b7160e01b600052601160045260246000fd5b634e487b7160e01b600052603260045260246000fd5b600061018089835288602084015280604084015261104281840189610a8d565b905082810360608401526110568188610a8d565b9050828103608084015261106a8187610a8d565b905082810360a084015261107e8186610a8d565b9150508251600581106110a157634e487b7160e01b600052602160045260246000fd5b60c0830152602083015160e083015260408301516001600160a01b0390811661010084015260608401511661012083015260808301516110ed6101408401826001600160a01b03169052565b5060a083015161016083015298975050505050505050565b60006020828403121561111757600080fd5b5051919050565b83815282602082015260606040820152600061113d6060830184610a8d565b9594505050505056fea2646970667358221220aacce4bf492e72d0e012ae55f8552d177400b4ff885ea68ec6d4c33a218875f664736f6c63430008180033",
  "linkReferences": {},
  "deployedLinkReferences": {}
}