{
  "_format": "hh-sol-artifact-1",
  "contractName": "Erc721ZkDvpOverrideExample",
  "sourceName": "src/rayls-protocol/test-contracts/Erc721ZkDvpOverrideExample.sol",
  "abi": [
    {
      "inputs": [
        {
          "internalType": "string",
          "name": "uri",
          "type": "string"
        },
        {
          "internalType": "string",
          "name": "name_",
          "type": "string"
        },
        {
          "internalType": "string",
          "name": "symbol_",
          "type": "string"
        },
        {
          "internalType": "address",
          "name": "_endpoint",
          "type": "address"
        },
        {
          "internalType": "address",
          "name": "_owner",
          "type": "address"
        },
        {
          "internalType": "bool",
          "name": "_isCustom",
          "type": "bool"
        }
      ],
      "stateMutability": "nonpayable",
      "type": "constructor"
    },
    {
      "inputs": [
        {
          "internalType": "address",
          "name": "sender",
          "type": "address"
        },
        {
          "internalType": "uint256",
          "name": "tokenId",
          "type": "uint256"
        },
        {
          "internalType": "address",
          "name": "owner",
          "type": "address"
        }
      ],
      "name": "ERC721IncorrectOwner",
      "type": "error"
    },
    {
      "inputs": [
        {
          "internalType": "address",
          "name": "operator",
          "type": "address"
        },
        {
          "internalType": "uint256",
          "name": "tokenId",
          "type": "uint256"
        }
      ],
      "name": "ERC721InsufficientApproval",
      "type": "error"
    },
    {
      "inputs": [
        {
          "internalType": "address",
          "name": "approver",
          "type": "address"
        }
      ],
      "name": "ERC721InvalidApprover",
      "type": "error"
    },
    {
      "inputs": [
        {
          "internalType": "address",
          "name": "operator",
          "type": "address"
        }
      ],
      "name": "ERC721InvalidOperator",
      "type": "error"
    },
    {
      "inputs": [
        {
          "internalType": "address",
          "name": "owner",
          "type": "address"
        }
      ],
      "name": "ERC721InvalidOwner",
      "type": "error"
    },
    {
      "inputs": [
        {
          "internalType": "address",
          "name": "receiver",
          "type": "address"
        }
      ],
      "name": "ERC721InvalidReceiver",
      "type": "error"
    },
    {
      "inputs": [
        {
          "internalType": "address",
          "name": "sender",
          "type": "address"
        }
      ],
      "name": "ERC721InvalidSender",
      "type": "error"
    },
    {
      "inputs": [
        {
          "internalType": "uint256",
          "name": "tokenId",
          "type": "uint256"
        }
      ],
      "name": "ERC721NonexistentToken",
      "type": "error"
    },
    {
      "inputs": [],
      "name": "InvalidInitialization",
      "type": "error"
    },
    {
      "inputs": [],
      "name": "NotInitializing",
      "type": "error"
    },
    {
      "inputs": [
        {
          "internalType": "address",
          "name": "owner",
          "type": "address"
        }
      ],
      "name": "OwnableInvalidOwner",
      "type": "error"
    },
    {
      "inputs": [
        {
          "internalType": "address",
          "name": "account",
          "type": "address"
        }
      ],
      "name": "OwnableUnauthorizedAccount",
      "type": "error"
    },
    {
      "anonymous": false,
      "inputs": [
        {
          "indexed": true,
          "internalType": "address",
          "name": "owner",
          "type": "address"
        },
        {
          "indexed": true,
          "internalType": "address",
          "name": "approved",
          "type": "address"
        },
        {
          "indexed": true,
          "internalType": "uint256",
          "name": "tokenId",
          "type": "uint256"
        }
      ],
      "name": "Approval",
      "type": "event"
    },
    {
      "anonymous": false,
      "inputs": [
        {
          "indexed": true,
          "internalType": "address",
          "name": "owner",
          "type": "address"
        },
        {
          "indexed": true,
          "internalType": "address",
          "name": "operator",
          "type": "address"
        },
        {
          "indexed": false,
          "internalType": "bool",
          "name": "approved",
          "type": "bool"
        }
      ],
      "name": "ApprovalForAll",
      "type": "event"
    },
    {
      "anonymous": false,
      "inputs": [
        {
          "indexed": false,
          "internalType": "uint64",
          "name": "version",
          "type": "uint64"
        }
      ],
      "name": "Initialized",
      "type": "event"
    },
    {
      "anonymous": false,
      "inputs": [
        {
          "indexed": true,
          "internalType": "address",
          "name": "previousOwner",
          "type": "address"
        },
        {
          "indexed": true,
          "internalType": "address",
          "name": "newOwner",
          "type": "address"
        }
      ],
      "name": "OwnershipTransferred",
      "type": "event"
    },
    {
      "anonymous": false,
      "inputs": [
        {
          "indexed": true,
          "internalType": "address",
          "name": "from",
          "type": "address"
        },
        {
          "indexed": true,
          "internalType": "address",
          "name": "to",
          "type": "address"
        },
        {
          "indexed": true,
          "internalType": "uint256",
          "name": "tokenId",
          "type": "uint256"
        }
      ],
      "name": "Transfer",
      "type": "event"
    },
    {
      "inputs": [
        {
          "internalType": "uint256",
          "name": "_tokenId",
          "type": "uint256"
        },
        {
          "internalType": "address",
          "name": "_destinationOwner",
          "type": "address"
        },
        {
          "components": [
            {
              "internalType": "string",
              "name": "key",
              "type": "string"
            },
            {
              "internalType": "string",
              "name": "value",
              "type": "string"
            },
            {
              "internalType": "bool",
              "name": "isPublic",
              "type": "bool"
            }
          ],
          "internalType": "struct SharedObjects.ZkDvp721ExtraData[]",
          "name": "_extraDatas",
          "type": "tuple[]"
        }
      ],
      "name": "MintFromSwapZkDvp",
      "outputs": [],
      "stateMutability": "nonpayable",
      "type": "function"
    },
    {
      "inputs": [],
      "name": "_getEndpointAddress",
      "outputs": [
        {
          "internalType": "address",
          "name": "",
          "type": "address"
        }
      ],
      "stateMutability": "view",
      "type": "function"
    },
    {
      "inputs": [],
      "name": "_tokenName",
      "outputs": [
        {
          "internalType": "string",
          "name": "",
          "type": "string"
        }
      ],
      "stateMutability": "view",
      "type": "function"
    },
    {
      "inputs": [],
      "name": "_tokenSymbol",
      "outputs": [
        {
          "internalType": "string",
          "name": "",
          "type": "string"
        }
      ],
      "stateMutability": "view",
      "type": "function"
    },
    {
      "inputs": [
        {
          "internalType": "address",
          "name": "_endpoint",
          "type": "address"
        }
      ],
      "name": "_updateEndpoint",
      "outputs": [],
      "stateMutability": "nonpayable",
      "type": "function"
    },
    {
      "inputs": [
        {
          "internalType": "address",
          "name": "to",
          "type": "address"
        },
        {
          "internalType": "uint256",
          "name": "tokenId",
          "type": "uint256"
        }
      ],
      "name": "approve",
      "outputs": [],
      "stateMutability": "nonpayable",
      "type": "function"
    },
    {
      "inputs": [
        {
          "internalType": "address",
          "name": "owner",
          "type": "address"
        }
      ],
      "name": "balanceOf",
      "outputs": [
        {
          "internalType": "uint256",
          "name": "",
          "type": "uint256"
        }
      ],
      "stateMutability": "view",
      "type": "function"
    },
    {
      "inputs": [],
      "name": "baseUri",
      "outputs": [
        {
          "internalType": "string",
          "name": "",
          "type": "string"
        }
      ],
      "stateMutability": "view",
      "type": "function"
    },
    {
      "inputs": [
        {
          "internalType": "uint256",
          "name": "_id",
          "type": "uint256"
        }
      ],
      "name": "burn",
      "outputs": [],
      "stateMutability": "nonpayable",
      "type": "function"
    },
    {
      "inputs": [
        {
          "internalType": "uint256",
          "name": "_tokenId",
          "type": "uint256"
        }
      ],
      "name": "depositIntoZkdvp",
      "outputs": [],
      "stateMutability": "nonpayable",
      "type": "function"
    },
    {
      "inputs": [
        {
          "internalType": "bytes32",
          "name": "_resourceId",
          "type": "bytes32"
        }
      ],
      "name": "getAddressByResourceId",
      "outputs": [
        {
          "internalType": "address",
          "name": "",
          "type": "address"
        }
      ],
      "stateMutability": "view",
      "type": "function"
    },
    {
      "inputs": [
        {
          "internalType": "uint256",
          "name": "tokenId",
          "type": "uint256"
        }
      ],
      "name": "getApproved",
      "outputs": [
        {
          "internalType": "address",
          "name": "",
          "type": "address"
        }
      ],
      "stateMutability": "view",
      "type": "function"
    },
    {
      "inputs": [],
      "name": "getEnygmaEventsAdress",
      "outputs": [
        {
          "internalType": "address",
          "name": "",
          "type": "address"
        }
      ],
      "stateMutability": "view",
      "type": "function"
    },
    {
      "inputs": [
        {
          "internalType": "uint256",
          "name": "_tokenId",
          "type": "uint256"
        }
      ],
      "name": "getNftExtradaData",
      "outputs": [
        {
          "components": [
            {
              "internalType": "string",
              "name": "key",
              "type": "string"
            },
            {
              "internalType": "string",
              "name": "value",
              "type": "string"
            },
            {
              "internalType": "bool",
              "name": "isPublic",
              "type": "bool"
            }
          ],
          "internalType": "struct SharedObjects.ZkDvp721ExtraData[]",
          "name": "",
          "type": "tuple[]"
        }
      ],
      "stateMutability": "view",
      "type": "function"
    },
    {
      "inputs": [],
      "name": "getPLCommunicatorAddress",
      "outputs": [
        {
          "internalType": "address",
          "name": "",
          "type": "address"
        }
      ],
      "stateMutability": "view",
      "type": "function"
    },
    {
      "inputs": [],
      "name": "getTotalSupply",
      "outputs": [
        {
          "internalType": "uint256[]",
          "name": "",
          "type": "uint256[]"
        }
      ],
      "stateMutability": "view",
      "type": "function"
    },
    {
      "inputs": [],
      "name": "getTotalSupplyAtPL",
      "outputs": [
        {
          "internalType": "uint256[]",
          "name": "",
          "type": "uint256[]"
        }
      ],
      "stateMutability": "view",
      "type": "function"
    },
    {
      "inputs": [
        {
          "internalType": "string",
          "name": "uri",
          "type": "string"
        },
        {
          "internalType": "string",
          "name": "name_",
          "type": "string"
        },
        {
          "internalType": "string",
          "name": "symbol_",
          "type": "string"
        }
      ],
      "name": "initialize",
      "outputs": [],
      "stateMutability": "nonpayable",
      "type": "function"
    },
    {
      "inputs": [
        {
          "internalType": "address",
          "name": "owner",
          "type": "address"
        },
        {
          "internalType": "address",
          "name": "operator",
          "type": "address"
        }
      ],
      "name": "isApprovedForAll",
      "outputs": [
        {
          "internalType": "bool",
          "name": "",
          "type": "bool"
        }
      ],
      "stateMutability": "view",
      "type": "function"
    },
    {
      "inputs": [
        {
          "internalType": "address",
          "name": "account",
          "type": "address"
        },
        {
          "internalType": "uint256",
          "name": "id",
          "type": "uint256"
        }
      ],
      "name": "isTokenLocked",
      "outputs": [
        {
          "internalType": "bool",
          "name": "",
          "type": "bool"
        }
      ],
      "stateMutability": "view",
      "type": "function"
    },
    {
      "inputs": [
        {
          "internalType": "address",
          "name": "_to",
          "type": "address"
        },
        {
          "internalType": "uint256",
          "name": "_id",
          "type": "uint256"
        },
        {
          "components": [
            {
              "internalType": "string",
              "name": "key",
              "type": "string"
            },
            {
              "internalType": "string",
              "name": "value",
              "type": "string"
            },
            {
              "internalType": "bool",
              "name": "isPublic",
              "type": "bool"
            }
          ],
          "internalType": "struct SharedObjects.ZkDvp721ExtraData[]",
          "name": "_extraDatas",
          "type": "tuple[]"
        }
      ],
      "name": "mint",
      "outputs": [],
      "stateMutability": "nonpayable",
      "type": "function"
    },
    {
      "inputs": [],
      "name": "name",
      "outputs": [
        {
          "internalType": "string",
          "name": "",
          "type": "string"
        }
      ],
      "stateMutability": "view",
      "type": "function"
    },
    {
      "inputs": [
        {
          "internalType": "bytes32",
          "name": "_sharedId",
          "type": "bytes32"
        },
        {
          "internalType": "uint256",
          "name": "_destinationChainId",
          "type": "uint256"
        }
      ],
      "name": "notifySwapCompleted",
      "outputs": [],
      "stateMutability": "nonpayable",
      "type": "function"
    },
    {
      "inputs": [
        {
          "internalType": "bytes32",
          "name": "_sharedId",
          "type": "bytes32"
        },
        {
          "internalType": "uint256",
          "name": "_destinationChainId",
          "type": "uint256"
        }
      ],
      "name": "notifySwapProcessing",
      "outputs": [],
      "stateMutability": "nonpayable",
      "type": "function"
    },
    {
      "inputs": [],
      "name": "owner",
      "outputs": [
        {
          "internalType": "address",
          "name": "",
          "type": "address"
        }
      ],
      "stateMutability": "view",
      "type": "function"
    },
    {
      "inputs": [
        {
          "internalType": "uint256",
          "name": "tokenId",
          "type": "uint256"
        }
      ],
      "name": "ownerOf",
      "outputs": [
        {
          "internalType": "address",
          "name": "",
          "type": "address"
        }
      ],
      "stateMutability": "view",
      "type": "function"
    },
    {
      "inputs": [
        {
          "internalType": "bytes32",
          "name": "_resourceId",
          "type": "bytes32"
        }
      ],
      "name": "receiveResourceId",
      "outputs": [],
      "stateMutability": "nonpayable",
      "type": "function"
    },
    {
      "inputs": [],
      "name": "renounceOwnership",
      "outputs": [],
      "stateMutability": "nonpayable",
      "type": "function"
    },
    {
      "inputs": [],
      "name": "resourceId",
      "outputs": [
        {
          "internalType": "bytes32",
          "name": "",
          "type": "bytes32"
        }
      ],
      "stateMutability": "view",
      "type": "function"
    },
    {
      "inputs": [
        {
          "internalType": "address",
          "name": "from",
          "type": "address"
        },
        {
          "internalType": "address",
          "name": "to",
          "type": "address"
        },
        {
          "internalType": "uint256",
          "name": "tokenId",
          "type": "uint256"
        }
      ],
      "name": "safeTransferFrom",
      "outputs": [],
      "stateMutability": "nonpayable",
      "type": "function"
    },
    {
      "inputs": [
        {
          "internalType": "address",
          "name": "from",
          "type": "address"
        },
        {
          "internalType": "address",
          "name": "to",
          "type": "address"
        },
        {
          "internalType": "uint256",
          "name": "tokenId",
          "type": "uint256"
        },
        {
          "internalType": "bytes",
          "name": "data",
          "type": "bytes"
        }
      ],
      "name": "safeTransferFrom",
      "outputs": [],
      "stateMutability": "nonpayable",
      "type": "function"
    },
    {
      "inputs": [
        {
          "internalType": "address",
          "name": "operator",
          "type": "address"
        },
        {
          "internalType": "bool",
          "name": "approved",
          "type": "bool"
        }
      ],
      "name": "setApprovalForAll",
      "outputs": [],
      "stateMutability": "nonpayable",
      "type": "function"
    },
    {
      "inputs": [
        {
          "internalType": "uint8",
          "name": "_storageSlot",
          "type": "uint8"
        }
      ],
      "name": "submitTokenRegistration",
      "outputs": [],
      "stateMutability": "nonpayable",
      "type": "function"
    },
    {
      "inputs": [
        {
          "internalType": "enum SharedObjects.BalanceUpdateType",
          "name": "updateType",
          "type": "uint8"
        },
        {
          "internalType": "uint256",
          "name": "tokenId",
          "type": "uint256"
        }
      ],
      "name": "submitTokenUpdate",
      "outputs": [],
      "stateMutability": "nonpayable",
      "type": "function"
    },
    {
      "inputs": [
        {
          "internalType": "bytes4",
          "name": "interfaceId",
          "type": "bytes4"
        }
      ],
      "name": "supportsInterface",
      "outputs": [
        {
          "internalType": "bool",
          "name": "",
          "type": "bool"
        }
      ],
      "stateMutability": "view",
      "type": "function"
    },
    {
      "inputs": [
        {
          "internalType": "uint256",
          "name": "_nftId",
          "type": "uint256"
        },
        {
          "internalType": "uint256",
          "name": "_enygmaAmount",
          "type": "uint256"
        },
        {
          "internalType": "bytes32",
          "name": "_enygmaResourceId",
          "type": "bytes32"
        },
        {
          "internalType": "uint256",
          "name": "_destChainId",
          "type": "uint256"
        },
        {
          "internalType": "bytes32",
          "name": "_sharedId",
          "type": "bytes32"
        },
        {
          "components": [
            {
              "internalType": "address",
              "name": "contractAddress",
              "type": "address"
            },
            {
              "internalType": "bytes32",
              "name": "resourceId",
              "type": "bytes32"
            },
            {
              "internalType": "bytes",
              "name": "payload",
              "type": "bytes"
            }
          ],
          "internalType": "struct SharedObjects.ZkDvpProgramability",
          "name": "_msg",
          "type": "tuple"
        }
      ],
      "name": "swapWithZkDvpForEnygma",
      "outputs": [],
      "stateMutability": "nonpayable",
      "type": "function"
    },
    {
      "inputs": [],
      "name": "symbol",
      "outputs": [
        {
          "internalType": "string",
          "name": "",
          "type": "string"
        }
      ],
      "stateMutability": "view",
      "type": "function"
    },
    {
      "inputs": [
        {
          "internalType": "uint256",
          "name": "tokenId",
          "type": "uint256"
        }
      ],
      "name": "tokenURI",
      "outputs": [
        {
          "internalType": "string",
          "name": "",
          "type": "string"
        }
      ],
      "stateMutability": "view",
      "type": "function"
    },
    {
      "inputs": [
        {
          "internalType": "address",
          "name": "from",
          "type": "address"
        },
        {
          "internalType": "address",
          "name": "to",
          "type": "address"
        },
        {
          "internalType": "uint256",
          "name": "tokenId",
          "type": "uint256"
        }
      ],
      "name": "transferFrom",
      "outputs": [],
      "stateMutability": "nonpayable",
      "type": "function"
    },
    {
      "inputs": [
        {
          "internalType": "address",
          "name": "newOwner",
          "type": "address"
        }
      ],
      "name": "transferOwnership",
      "outputs": [],
      "stateMutability": "nonpayable",
      "type": "function"
    },
    {
      "inputs": [
        {
          "internalType": "address",
          "name": "to",
          "type": "address"
        },
        {
          "internalType": "uint256",
          "name": "id",
          "type": "uint256"
        }
      ],
      "name": "unlock",
      "outputs": [
        {
          "internalType": "bool",
          "name": "",
          "type": "bool"
        }
      ],
      "stateMutability": "nonpayable",
      "type": "function"
    },
    {
      "inputs": [
        {
          "internalType": "uint256",
          "name": "_tokenId",
          "type": "uint256"
        }
      ],
      "name": "unlockFromZkDvp",
      "outputs": [],
      "stateMutability": "nonpayable",
      "type": "function"
    },
    {
      "inputs": [
        {
          "internalType": "uint256",
          "name": "_tokenId",
          "type": "uint256"
        }
      ],
      "name": "withdrawFromZkDvp",
      "outputs": [],
      "stateMutability": "nonpayable",
      "type": "function"
    },
    {
      "inputs": [
        {
          "internalType": "uint256",
          "name": "_tokenId",
          "type": "uint256"
        },
        {
          "internalType": "uint256",
          "name": "_destinationChainId",
          "type": "uint256"
        },
        {
          "internalType": "address",
          "name": "_destinationOwner",
          "type": "address"
        },
        {
          "internalType": "bytes32",
          "name": "_sharedId",
          "type": "bytes32"
        }
      ],
      "name": "zkDvpSwapCompleted",
      "outputs": [],
      "stateMutability": "nonpayable",
      "type": "function"
    }
  ],
  "bytecode": "0x60806040523480156200001157600080fd5b5060405162004792380380620047928339810160408190526200003491620002f5565b600080546001600160a01b0319166001600160a01b038516179055858585858585818585600262000066838262000456565b50600362000075828262000456565b5050506001600160a01b038116620000a757604051631e4fbdf760e01b81526000600482015260240160405180910390fd5b620000b2816200010a565b50600a620000c1868262000456565b50600b620000d0858262000456565b506009620000df878262000456565b50600c805460ff1916821515179055620000f86200015c565b50505050505050505050505062000522565b600880546001600160a01b038381166001600160a01b0319831681179093556040519116919082907f8be0079c531659141344cd1fd0a4f28419497f9722a3daafe3b4186f6b6457e090600090a35050565b7ff0c57e16840df040f15088dc2f81fe391c3923bec73e23a9662efc9c229c6a00805468010000000000000000900460ff1615620001ad5760405163f92ee8a960e01b815260040160405180910390fd5b80546001600160401b03908116146200020d5780546001600160401b0319166001600160401b0390811782556040519081527fc7f505b2f371ae2175ee4913f4499e1f2633a7b5936321eed1cdaeb6115181d29060200160405180910390a15b50565b634e487b7160e01b600052604160045260246000fd5b600082601f8301126200023857600080fd5b81516001600160401b038082111562000255576200025562000210565b604051601f8301601f19908116603f0116810190828211818310171562000280576200028062000210565b81604052838152602092508660208588010111156200029e57600080fd5b600091505b83821015620002c25785820183015181830184015290820190620002a3565b6000602085830101528094505050505092915050565b80516001600160a01b0381168114620002f057600080fd5b919050565b60008060008060008060c087890312156200030f57600080fd5b86516001600160401b03808211156200032757600080fd5b620003358a838b0162000226565b975060208901519150808211156200034c57600080fd5b6200035a8a838b0162000226565b965060408901519150808211156200037157600080fd5b506200038089828a0162000226565b9450506200039160608801620002d8565b9250620003a160808801620002d8565b915060a08701518015158114620003b757600080fd5b809150509295509295509295565b600181811c90821680620003da57607f821691505b602082108103620003fb57634e487b7160e01b600052602260045260246000fd5b50919050565b601f82111562000451576000816000526020600020601f850160051c810160208610156200042c5750805b601f850160051c820191505b818110156200044d5782815560010162000438565b5050505b505050565b81516001600160401b0381111562000472576200047262000210565b6200048a81620004838454620003c5565b8462000401565b602080601f831160018114620004c25760008415620004a95750858301515b600019600386901b1c1916600185901b1785556200044d565b600085815260208120601f198616915b82811015620004f357888601518255948401946001909101908401620004d2565b5085821015620005125787850151600019600388901b60f8161c191681555b5050505050600190811b01905550565b61426080620005326000396000f3fe608060405234801561001057600080fd5b50600436106102345760003560e01c80637e60577411610131578063b247d946116100b3578063b247d946146104e6578063b88d4fde146104f7578063c4e41b221461050a578063c87b56dd14610512578063cd7b8df714610525578063cea14eac14610538578063d0acffc11461054b578063e3ee8a4314610553578063e985e9c514610566578063ecf35cca14610579578063f2fde38b1461058157600080fd5b80637e6057741461044a5780637eee288d1461045d57806382fbe5801461047057806387c5d197146104785780638da5cb5b1461048b57806395d89b41146104935780639abc83201461049b5780639f0c8125146104a3578063a22cb465146104ab578063a6487c53146104be578063a6aaad8c146104d157600080fd5b806342842e0e116101ba57806342842e0e1461033d57806342966c681461035057806352a48dc014610363578063556da1b9146103765780635f997c5b146103895780636352211e146103a05780636f181318146103b357806370a08231146103e3578063715018a6146103f657806371c3645e146103fe5780637ae1ccf91461041157600080fd5b806301ffc9a71461023957806304b67a3e1461026157806306fdde0314610276578063081812fc1461028b578063095ea7b3146102ab5780630e5ee780146102be5780630e9a7f73146102d157806311f50c85146102f157806314f699b9146103045780631ecb9cc11461031757806323b872dd1461032a575b600080fd5b61024c610247366004613122565b610594565b60405190151581526020015b60405180910390f35b61027461026f36600461313f565b6105e6565b005b61027e6106aa565b60405161025891906131a8565b61029e61029936600461313f565b61073c565b60405161025891906131bb565b6102746102b93660046131e4565b610751565b6102746102cc366004613210565b610760565b6102e46102df36600461313f565b610772565b6040516102589190613232565b61029e6102ff36600461313f565b61091a565b6102746103123660046132c7565b610988565b61027461032536600461313f565b610a42565b6102746103383660046132e9565b610ac8565b61027461034b3660046132e9565b610b3f565b61027461035e36600461313f565b610b5f565b61027461037136600461332a565b610bc6565b610274610384366004613369565b610da5565b61039260015481565b604051908152602001610258565b61029e6103ae36600461313f565b6110ec565b6102746103c136600461338c565b600080546001600160a01b0319166001600160a01b0392909216919091179055565b6103926103f136600461338c565b6110f7565b61027461113f565b61027461040c3660046132c7565b611153565b61024c61041f3660046131e4565b6001600160a01b03919091166000908152600d60209081526040808320938352929052205460ff1690565b6102746104583660046133a9565b6111cf565b61024c61046b3660046131e4565b61158a565b61029e61161f565b61027461048636600461361c565b611693565b61029e6117f5565b61027e611804565b61027e611813565b61027e61181d565b6102746104b9366004613674565b6118ab565b6102746104cc3660046136ad565b6118b6565b6104d9611a31565b604051610258919061372a565b6000546001600160a01b031661029e565b61027461050536600461376e565b611a88565b6104d9611a9f565b61027e61052036600461313f565b611aa9565b61027461053336600461313f565b611b11565b6102746105463660046137ed565b611b5e565b61029e611cce565b61027461056136600461313f565b611d00565b61024c61057436600461382f565b611eb5565b61027e611ee3565b61027461058f36600461338c565b611ef0565b60006001600160e01b031982166380ac58cd60e01b14806105c557506001600160e01b03198216635b5e139f60e01b145b806105e057506301ffc9a760e01b6001600160e01b03198316145b92915050565b60015461060e5760405162461bcd60e51b81526004016106059061385d565b60405180910390fd5b6000818152600e602052604090205460ff1661063c5760405162461bcd60e51b81526004016106059061388a565b610644611cce565b6001600160a01b0316638afb970460015483336040518463ffffffff1660e01b8152600401610675939291906138b8565b600060405180830381600087803b15801561068f57600080fd5b505af11580156106a3573d6000803e3d6000fd5b5050505050565b6060600a80546106b9906138d7565b80601f01602080910402602001604051908101604052809291908181526020018280546106e5906138d7565b80156107325780601f1061070757610100808354040283529160200191610732565b820191906000526020600020905b81548152906001019060200180831161071557829003601f168201915b5050505050905090565b600061074782611f2b565b506105e082611f63565b61075c828233611f7e565b5050565b610768611f8b565b61075c8282611fbd565b606060136000838152602001908152602001600020805480602002602001604051908101604052809291908181526020016000905b8282101561090f57838290600052602060002090600302016040518060600160405290816000820180546107da906138d7565b80601f0160208091040260200160405190810160405280929190818152602001828054610806906138d7565b80156108535780601f1061082857610100808354040283529160200191610853565b820191906000526020600020905b81548152906001019060200180831161083657829003601f168201915b5050505050815260200160018201805461086c906138d7565b80601f0160208091040260200160405190810160405280929190818152602001828054610898906138d7565b80156108e55780601f106108ba576101008083540402835291602001916108e5565b820191906000526020600020905b8154815290600101906020018083116108c857829003601f168201915b50505091835250506002919091015460ff16151560209182015290825260019290920191016107a7565b505050509050919050565b600080546040516311f50c8560e01b8152600481018490526001600160a01b03909116906311f50c8590602401602060405180830381865afa158015610964573d6000803e3d6000fd5b505050506040513d601f19601f820116820180604052508101906105e09190613911565b61099061161f565b6001600160a01b031663db76edaa83600560006040518463ffffffff1660e01b81526004016109c193929190613944565b600060405180830381600087803b1580156109db57600080fd5b505af11580156109ef573d6000803e3d6000fd5b5061075c92508391506005905084815b6000604051602401610a1393929190613944565b60408051601f198184030181529190526020810180516001600160e01b0316636dbb76d560e11b179052612181565b600154610a615760405162461bcd60e51b81526004016106059061385d565b6000818152600e602052604090205460ff16610a8f5760405162461bcd60e51b81526004016106059061388a565b610a97611cce565b6001600160a01b031663f3c1bbc260015483336040518463ffffffff1660e01b8152600401610675939291906138b8565b6001600160a01b038216610af2576000604051633250574960e11b815260040161060591906131bb565b6000610aff8383336121f8565b9050836001600160a01b0316816001600160a01b031614610b39578382826040516364283d7b60e01b815260040161060593929190613969565b50505050565b610b5a83838360405180602001604052806000815250611a88565b505050565b610b67611f8b565b610b72600082611fbd565b610b7b81612352565b60015415610bc357610b8b611cce565b6001600160a01b0316638c9c14b5600154836040518363ffffffff1660e01b8152600401610675929190918252602082015260400190565b50565b600154610be55760405162461bcd60e51b81526004016106059061385d565b6000848152600e602052604090205460ff16610c135760405162461bcd60e51b81526004016106059061388a565b610c1b612f8d565b610cac8460015463cea14eac60e01b8887601360008c8152602001908152602001600020604051602401610c5193929190613a09565b60408051601f19818403018152918152602080830180516001600160e01b03166001600160e01b031990951694909417909352805180840182526000808252825180860184528181528351958601909352845291928761238d565b610cb585612352565b610cc0600086611fbd565b60008581526013602052604090205415610ceb576000858152601360205260408120610ceb91612fc4565b60005b601054811015610d9a578560108281548110610d0c57610d0c613ab8565b906000526020600020015403610d925760108054610d2c90600190613ace565b81548110610d3c57610d3c613ab8565b906000526020600020015460108281548110610d5a57610d5a613ab8565b6000918252602090912001556010805480610d7757610d77613aef565b60019003818190600052602060002001600090559055610d9a565b600101610cee565b506106a38285611153565b60005460408051631119527160e11b81529051610bc3926001600160a01b031691632232a4e29160048083019260209291908290030181865afa158015610df0573d6000803e3d6000fd5b505050506040513d601f19601f82011682018060405250810190610e149190613b05565b60005460405163377890a160e11b81526001600160a01b0390911690636ef1214290610e4290600401613b1e565b602060405180830381865afa158015610e5f573d6000803e3d6000fd5b505050506040513d601f19601f82011682018060405250810190610e839190613911565b604051806101400160405280600a8054610e9c906138d7565b80601f0160208091040260200160405190810160405280929190818152602001828054610ec8906138d7565b8015610f155780601f10610eea57610100808354040283529160200191610f15565b820191906000526020600020905b815481529060010190602001808311610ef857829003601f168201915b50505050508152602001600b8054610f2c906138d7565b80601f0160208091040260200160405190810160405280929190818152602001828054610f58906138d7565b8015610fa55780601f10610f7a57610100808354040283529160200191610fa5565b820191906000526020600020905b815481529060010190602001808311610f8857829003601f168201915b50505050508152602001610fb761240c565b604051602001610fc7919061372a565b604051602081830303815290604052815260200160008054906101000a90046001600160a01b03166001600160a01b0316633408e4706040518163ffffffff1660e01b8152600401602060405180830381865afa15801561102c573d6000803e3d6000fd5b505050506040513d601f19601f820116820180604052508101906110509190613b05565b8152602001306001600160a01b0316803b806020016040519081016040528181526000908060200190933c8152602001611088612462565b81526000602082015260400160028152600c5460ff908116151560208301528616604091820152516110bd9190602401613b59565b60408051601f198184030181529190526020810180516001600160e01b0316638b55462d60e01b1790526124ab565b60006105e082611f2b565b60006001600160a01b0382166111235760006040516322718ad960e21b815260040161060591906131bb565b506001600160a01b031660009081526005602052604090205490565b611147611f8b565b61115160006124df565b565b61115b61161f565b6001600160a01b031663db76edaa83600660006040518463ffffffff1660e01b815260040161118c93929190613944565b600060405180830381600087803b1580156111a657600080fd5b505af11580156111ba573d6000803e3d6000fd5b5061075c9250839150600590508460066109ff565b6001546111ee5760405162461bcd60e51b81526004016106059061385d565b6000868152600e602052604090205460ff1661121c5760405162461bcd60e51b81526004016106059061388a565b604080516000808252602082018352909161123990840184613c4b565b9050111561148a576020820135156112cc57600061125a602084018461338c565b6001600160a01b0316146112cc5760405162461bcd60e51b815260206004820152603360248201527f43616e6e6f74206861766520626f7468207265736f75726365496420616e642060448201527218dbdb9d1c9858dd1059191c995cdcc81cd95d606a1b6064820152608401610605565b60006112db602084018461338c565b6001600160a01b031614611357576020820135156113575760405162461bcd60e51b815260206004820152603360248201527f43616e6e6f74206861766520626f746820636f6e74726163744164647265737360448201527208185b99081c995cdbdd5c98d95259081cd95d606a1b6064820152608401610605565b61135f612fe5565b80516001610100909101526113776040840184613c4b565b8080601f016020809104026020016040519081016040528093929190818152602001838380828437600092018290525060208087019590955285518886013560609091015254604080516303408e4760e41b8152905163fe12d9c360e01b966001600160a01b039093169550633408e47094506004808301945090918290030181865afa15801561140c573d6000803e3d6000fd5b505050506040513d601f19601f820116820180604052508101906114309190613b05565b3361143e602087018761338c565b8488604051602401611454959493929190613d74565b60408051601f198184030181529190526020810180516001600160e01b03166001600160e01b0319909316929092179091529150505b611492611cce565b6001600160a01b0316635a368d1d6001548989896114ad3390565b8a8a896040518963ffffffff1660e01b81526004016114d3989796959493929190613e96565b600060405180830381600087803b1580156114ed57600080fd5b505af1158015611501573d6000803e3d6000fd5b5050505061150d61161f565b6001600160a01b031663db76edaa84600160006040518463ffffffff1660e01b815260040161153e93929190613944565b600060405180830381600087803b15801561155857600080fd5b505af115801561156c573d6000803e3d6000fd5b506115819250869150600590508560026109ff565b50505050505050565b60006115946117f5565b6001600160a01b0316836001600160a01b0316146116165760006115b88484612531565b9050806116025760405162461bcd60e51b815260206004820152601860248201527763616e6e6f7420756e6c6f636b207468652061737365747360401b6044820152606401610605565b61161461160d6117f5565b85856125e7565b505b50600192915050565b600080546040516311f50c8560e01b8152600560048201526001600160a01b03909116906311f50c85906024015b602060405180830381865afa15801561166a573d6000803e3d6000fd5b505050506040513d601f19601f8201168201806040525081019061168e9190613911565b905090565b61169b611f8b565b6116a58383612602565b60108054600181810183556000929092527f1b6847dc741a1b0cd08d278845f9d819d87b734759afb55fe2de5cb82a9ae672018390556116e59083611fbd565b60005b815181101561177e576000838152601360205260409020825183908390811061171357611713613ab8565b602090810291909101810151825460018101845560009384529190922082516003909202019081906117459082613f3b565b506020820151600182019061175a9082613f3b565b50604091909101516002909101805460ff19169115159190911790556001016116e8565b5060015415610b5a5761178f611cce565b6001600160a01b031663d01d9eef600154846040518363ffffffff1660e01b81526004016117c7929190918252602082015260400190565b600060405180830381600087803b1580156117e157600080fd5b505af1158015611581573d6000803e3d6000fd5b6008546001600160a01b031690565b6060600b80546106b9906138d7565b606061168e612667565b600a805461182a906138d7565b80601f0160208091040260200160405190810160405280929190818152602001828054611856906138d7565b80156118a35780601f10611878576101008083540402835291602001916118a3565b820191906000526020600020905b81548152906001019060200180831161188657829003601f168201915b505050505081565b61075c338383612676565b7ff0c57e16840df040f15088dc2f81fe391c3923bec73e23a9662efc9c229c6a008054600160401b810460ff1615906001600160401b03166000811580156118fb5750825b90506000826001600160401b031660011480156119175750303b155b905081158015611925575080155b156119435760405163f92ee8a960e01b815260040160405180910390fd5b845467ffffffffffffffff19166001178555831561196d57845460ff60401b1916600160401b1785555b600061197761270c565b90506000611983612724565b905061198d61273b565b600155600a61199c8a82613f3b565b50600b6119a98982613f3b565b5060096119b68b82613f3b565b506119c0826124df565b600080546001600160a01b0319166001600160a01b0392909216919091179055508315611a2757845460ff60401b19168555604051600181527fc7f505b2f371ae2175ee4913f4499e1f2633a7b5936321eed1cdaeb6115181d29060200160405180910390a15b5050505050505050565b6060601080548060200260200160405190810160405280929190818152602001828054801561073257602002820191906000526020600020905b815481526020019060010190808311611a6b575050505050905090565b611a93848484610ac8565b610b398484848461274f565b606061168e61240c565b6060611ab482611f2b565b506000611abf612667565b90506000815111611adf5760405180602001604052806000815250611b0a565b80611ae98461285f565b604051602001611afa929190613ffa565b6040516020818303038152906040525b9392505050565b600154611b305760405162461bcd60e51b81526004016106059061385d565b6000818152600e602052604090205460ff16610bc35760405162461bcd60e51b81526004016106059061388a565b6000546040516333932be560e11b81526001600160a01b039091169063672657ca90611b8e9033906004016131bb565b602060405180830381865afa158015611bab573d6000803e3d6000fd5b505050506040513d601f19601f82011682018060405250810190611bcf9190614029565b611beb5760405162461bcd60e51b815260040161060590614046565b611bf58284612602565b60108054600181810183556000929092527f1b6847dc741a1b0cd08d278845f9d819d87b734759afb55fe2de5cb82a9ae67201849055611c359084611fbd565b60005b8151811015610b395760008481526013602052604090208251839083908110611c6357611c63613ab8565b60209081029190910181015182546001810184556000938452919092208251600390920201908190611c959082613f3b565b5060208201516001820190611caa9082613f3b565b50604091909101516002909101805460ff1916911515919091179055600101611c38565b600080546040516311f50c8560e01b8152600260048201526001600160a01b03909116906311f50c859060240161164d565b6000546040516333932be560e11b81526001600160a01b039091169063672657ca90611d309033906004016131bb565b602060405180830381865afa158015611d4d573d6000803e3d6000fd5b505050506040513d601f19601f82011682018060405250810190611d719190614029565b611d8d5760405162461bcd60e51b815260040161060590614046565b60008054906101000a90046001600160a01b03166001600160a01b0316632232a4e26040518163ffffffff1660e01b8152600401602060405180830381865afa158015611dde573d6000803e3d6000fd5b505050506040513d601f19601f82011682018060405250810190611e029190613b05565b611e0a6128f1565b14611e715760405162461bcd60e51b815260206004820152603160248201527f54686973206d6574686f64206f6e6c7920726563656976652063616c6c7320666044820152703937b69031b7b6b6b4ba1031b430b4b71760791b6064820152608401610605565b6001819055611e7e612905565b611e86611cce565b6001600160a01b0316630113fd396001546040518263ffffffff1660e01b815260040161067591815260200190565b6001600160a01b03918216600090815260076020908152604080832093909416825291909152205460ff1690565b600b805461182a906138d7565b611ef8611f8b565b6001600160a01b038116611f22576000604051631e4fbdf760e01b815260040161060591906131bb565b610bc3816124df565b600080611f37836129ca565b90506001600160a01b0381166105e057604051637e27328960e01b815260048101849052602401610605565b6000908152600660205260409020546001600160a01b031690565b610b5a83838360016129e5565b33611f946117f5565b6001600160a01b031614611151573360405163118cdaa760e01b815260040161060591906131bb565b600154611fc8575050565b60005460408051631119527160e11b8152905161075c926001600160a01b031691632232a4e29160048083019260209291908290030181865afa158015612013573d6000803e3d6000fd5b505050506040513d601f19601f820116820180604052508101906120379190613b05565b60005460405163377890a160e11b81526001600160a01b0390911690636ef121429061206590600401613b1e565b602060405180830381865afa158015612082573d6000803e3d6000fd5b505050506040513d601f19601f820116820180604052508101906120a69190613911565b60008054906101000a90046001600160a01b03166001600160a01b0316633408e4706040518163ffffffff1660e01b8152600401602060405180830381865afa1580156120f7573d6000803e3d6000fd5b505050506040513d601f19601f8201168201806040525081019061211b9190613b05565b600154868660405160200161213291815260200190565b60408051601f1981840301815290829052612152949392916024016140b4565b60408051601f198184030181529190526020810180516001600160e01b031663401c3df160e11b1790526124ab565b6000546040516320599dfd60e11b81526001600160a01b03909116906340b33bfa906121b5908690869086906004016140ec565b6020604051808303816000875af11580156121d4573d6000803e3d6000fd5b505050506040513d601f19601f82011682018060405250810190610b399190613b05565b600080612206858585612ae2565b90506001600160a01b038116612277576000848152600e602052604090205460ff1661227757600f805460018181019092557f8d1108e10bcb7c27dddfc02ed9d693a074039d026cf4ea4240b40f7d581ac802018590556000858152600e60205260409020805460ff191690911790555b6001600160a01b03851661234a576000848152600e60205260408120805460ff191690555b600f548110156123485784600f82815481106122ba576122ba613ab8565b90600052602060002001540361234057600f80546122da90600190613ace565b815481106122ea576122ea613ab8565b9060005260206000200154600f828154811061230857612308613ab8565b600091825260209091200155600f80548061232557612325613aef565b60019003818190600052602060002001600090559055612348565b60010161229c565b505b949350505050565b600061236160008360006121f8565b90506001600160a01b03811661075c57604051637e27328960e01b815260048101839052602401610605565b600054604051631075c5d160e21b81526001600160a01b03909116906341d71744906123c9908a908a908a908a908a908a908a9060040161410b565b6020604051808303816000875af11580156123e8573d6000803e3d6000fd5b505050506040513d601f19601f82011682018060405250810190611a279190613b05565b6060600f8054806020026020016040519081016040528092919081815260200182805480156107325760200282019190600052602060002090815481526020019060010190808311611a6b575050505050905090565b60606009600a600b60405160240161247c93929190614177565b60408051601f198184030181529190526020810180516001600160e01b031663a6487c5360e01b179052919050565b60005460405163150b375f60e01b81526001600160a01b039091169063150b375f906121b5908690869086906004016141b0565b600880546001600160a01b038381166001600160a01b0319831681179093556040519116919082907f8be0079c531659141344cd1fd0a4f28419497f9722a3daafe3b4186f6b6457e090600090a35050565b60006001600160a01b03831661254657600080fd5b6001600160a01b0383166000908152600d6020908152604080832085845290915290205460ff168015156001146125b45760405162461bcd60e51b81526020600482015260126024820152714e6f2066756e647320746f20756e6c6f636b60701b6044820152606401610605565b50506001600160a01b03919091166000908152600d6020908152604080832093835292905220805460ff19169055600190565b610b5a83838360405180602001604052806000815250612c53565b6001600160a01b03821661262c576000604051633250574960e11b815260040161060591906131bb565b600061263a838360006121f8565b90506001600160a01b03811615610b5a5760006040516339e3563760e11b815260040161060591906131bb565b6060600980546106b9906138d7565b6001600160a01b03821661269f5781604051630b61174360e31b815260040161060591906131bb565b6001600160a01b03838116600081815260076020908152604080832094871680845294825291829020805460ff191686151590811790915591519182527f17307eab39ab6107e8899845ad3d59bd9653f200f220920489ca2b5937696c31910160405180910390a3505050565b600060343610612721575060331936013560601c5b90565b600060483610612721575060471936013560601c90565b6000602036106127215750601f1936013590565b6001600160a01b0383163b15610b3957604051630a85bd0160e11b81526001600160a01b0384169063150b7a02906127919033908890879087906004016141da565b6020604051808303816000875af19250505080156127cc575060408051601f3d908101601f191682019092526127c99181019061420d565b60015b61282c573d8080156127fa576040519150601f19603f3d011682016040523d82523d6000602084013e6127ff565b606091505b5080516000036128245783604051633250574960e11b815260040161060591906131bb565b805181602001fd5b6001600160e01b03198116630a85bd0160e11b146106a35783604051633250574960e11b815260040161060591906131bb565b6060600061286c83612c5e565b60010190506000816001600160401b0381111561288b5761288b61341b565b6040519080825280601f01601f1916602001820160405280156128b5576020820181803683370190505b5090508181016020015b600019016f181899199a1a9b1b9c1cb0b131b232b360811b600a86061a8153600a85049450846128bf57509392505050565b600060343610612721575060331936013590565b6001546129665760405162461bcd60e51b815260206004820152602960248201527f4f6e6c79207265676973746572207265736f75726365207768656e206974277360448201526808185c1c1c9bdd995960ba1b6064820152608401610605565b60005460015460405163d4f951c760e01b815260048101919091523060248201526001600160a01b039091169063d4f951c790604401600060405180830381600087803b1580156129b657600080fd5b505af1158015610b39573d6000803e3d6000fd5b6000908152600460205260409020546001600160a01b031690565b80806129f957506001600160a01b03821615155b15612ab2576000612a0984611f2b565b90506001600160a01b03831615801590612a355750826001600160a01b0316816001600160a01b031614155b8015612a485750612a468184611eb5565b155b15612a68578260405163a9fbf51f60e01b815260040161060591906131bb565b8115612ab05783856001600160a01b0316826001600160a01b03167f8c5be1e5ebec7d5bd14f71427d1e84f3dd0314c0f7b2291e5b200ac8c7c3b92560405160405180910390a45b505b5050600090815260066020526040902080546001600160a01b0319166001600160a01b0392909216919091179055565b60008281526011602052604081205460ff161515600103612b6a5760008381526012602052604090205460ff161515600114612b6a5760405162461bcd60e51b815260206004820152602160248201527f5468697320746f6b656e206973206c6f636b656420696e20746865205a6b44766044820152600760fc1b6064820152608401610605565b6000612b77858585612d34565b90506001600160a01b038116612be8576000848152600e602052604090205460ff16612be857600f805460018181019092557f8d1108e10bcb7c27dddfc02ed9d693a074039d026cf4ea4240b40f7d581ac802018590556000858152600e60205260409020805460ff191690911790555b6001600160a01b03851661234a576000848152600e60205260408120805460ff191690555b600f548110156123485784600f8281548110612c2b57612c2b613ab8565b906000526020600020015403612c4b57600f80546122da90600190613ace565b600101612c0d565b611a93848484612e28565b60008072184f03e93ff9f4daa797ed6e38ed64bf6a1f0160401b8310612c9d5772184f03e93ff9f4daa797ed6e38ed64bf6a1f0160401b830492506040015b6904ee2d6d415b85acef8160201b8310612cc7576904ee2d6d415b85acef8160201b830492506020015b662386f26fc100008310612ce557662386f26fc10000830492506010015b6305f5e1008310612cfd576305f5e100830492506008015b6127108310612d1157612710830492506004015b60648310612d23576064830492506002015b600a83106105e05760010192915050565b600080612d40846129ca565b90506001600160a01b03831615612d5c57612d5c818486612ec4565b6001600160a01b03811615612d9a57612d796000856000806129e5565b6001600160a01b038116600090815260056020526040902080546000190190555b6001600160a01b03851615612dc9576001600160a01b0385166000908152600560205260409020805460010190555b60008481526004602052604080822080546001600160a01b0319166001600160a01b0389811691821790925591518793918516917fddf252ad1be2c89b69c2b068fc378daa952ba7f163c4a11628f55a4df523b3ef91a4949350505050565b6001600160a01b038216612e52576000604051633250574960e11b815260040161060591906131bb565b6000612e60838360006121f8565b90506001600160a01b038116612e8c57604051637e27328960e01b815260048101839052602401610605565b836001600160a01b0316816001600160a01b031614610b39578382826040516364283d7b60e01b815260040161060593929190613969565b612ecf838383612f28565b610b5a576001600160a01b038316612efd57604051637e27328960e01b815260048101829052602401610605565b60405163177e802f60e01b81526001600160a01b038316600482015260248101829052604401610605565b60006001600160a01b0383161580159061234a5750826001600160a01b0316846001600160a01b03161480612f625750612f628484611eb5565b8061234a5750826001600160a01b0316612f7b83611f63565b6001600160a01b031614949350505050565b6040805160c08101909152806000815260006020820181905260408201819052606082018190526080820181905260a09091015290565b5080546000825560030290600052602060002090810190610bc39190613005565b6040518060400160405280612ff8613040565b8152602001606081525090565b8082111561303c5760006130198282613095565b613027600183016000613095565b5060028101805460ff19169055600301613005565b5090565b6040805161012081018252600080825260208201529081016130606130cf565b815260006020820152606060408201819052808201819052608082015260a001613088612f8d565b8152600060209091015290565b5080546130a1906138d7565b6000825580601f106130b1575050565b601f016020900490600052602060002090810190610bc391906130f7565b6040805160a08101909152600080825260208201908152606060208201526040016000612ff8565b5b8082111561303c57600081556001016130f8565b6001600160e01b031981168114610bc357600080fd5b60006020828403121561313457600080fd5b8135611b0a8161310c565b60006020828403121561315157600080fd5b5035919050565b60005b8381101561317357818101518382015260200161315b565b50506000910152565b60008151808452613194816020860160208601613158565b601f01601f19169290920160200192915050565b602081526000611b0a602083018461317c565b6001600160a01b0391909116815260200190565b6001600160a01b0381168114610bc357600080fd5b600080604083850312156131f757600080fd5b8235613202816131cf565b946020939093013593505050565b6000806040838503121561322357600080fd5b82356002811061320257600080fd5b600060208083018184528085518083526040925060408601915060408160051b87010184880160005b838110156132b957603f198984030185528151606081518186526132818287018261317c565b915050888201518582038a870152613299828261317c565b92890151151595890195909552509487019492509086019060010161325b565b509098975050505050505050565b600080604083850312156132da57600080fd5b50508035926020909101359150565b6000806000606084860312156132fe57600080fd5b8335613309816131cf565b92506020840135613319816131cf565b929592945050506040919091013590565b6000806000806080858703121561334057600080fd5b84359350602085013592506040850135613359816131cf565b9396929550929360600135925050565b60006020828403121561337b57600080fd5b813560ff81168114611b0a57600080fd5b60006020828403121561339e57600080fd5b8135611b0a816131cf565b60008060008060008060c087890312156133c257600080fd5b863595506020870135945060408701359350606087013592506080870135915060a08701356001600160401b038111156133fb57600080fd5b87016060818a03121561340d57600080fd5b809150509295509295509295565b634e487b7160e01b600052604160045260246000fd5b604051606081016001600160401b03811182821017156134535761345361341b565b60405290565b604051601f8201601f191681016001600160401b03811182821017156134815761348161341b565b604052919050565b60006001600160401b038311156134a2576134a261341b565b6134b5601f8401601f1916602001613459565b90508281528383830111156134c957600080fd5b828260208301376000602084830101529392505050565b600082601f8301126134f157600080fd5b611b0a83833560208501613489565b8015158114610bc357600080fd5b600082601f83011261351f57600080fd5b813560206001600160401b038083111561353b5761353b61341b565b8260051b61354a838201613459565b938452858101830193838101908886111561356457600080fd5b84880192505b85831015613610578235848111156135825760008081fd5b88016060818b03601f190181131561359a5760008081fd5b6135a2613431565b87830135878111156135b45760008081fd5b6135c28d8a838701016134e0565b825250604080840135888111156135d95760008081fd5b6135e78e8b838801016134e0565b838b01525092820135926135fa84613500565b810192909252508252918401919084019061356a565b98975050505050505050565b60008060006060848603121561363157600080fd5b833561363c816131cf565b92506020840135915060408401356001600160401b0381111561365e57600080fd5b61366a8682870161350e565b9150509250925092565b6000806040838503121561368757600080fd5b8235613692816131cf565b915060208301356136a281613500565b809150509250929050565b6000806000606084860312156136c257600080fd5b83356001600160401b03808211156136d957600080fd5b6136e5878388016134e0565b945060208601359150808211156136fb57600080fd5b613707878388016134e0565b9350604086013591508082111561371d57600080fd5b5061366a868287016134e0565b6020808252825182820181905260009190848201906040850190845b8181101561376257835183529284019291840191600101613746565b50909695505050505050565b6000806000806080858703121561378457600080fd5b843561378f816131cf565b9350602085013561379f816131cf565b92506040850135915060608501356001600160401b038111156137c157600080fd5b8501601f810187136137d257600080fd5b6137e187823560208401613489565b91505092959194509250565b60008060006060848603121561380257600080fd5b833592506020840135613814816131cf565b915060408401356001600160401b0381111561365e57600080fd5b6000806040838503121561384257600080fd5b823561384d816131cf565b915060208301356136a2816131cf565b6020808252601390820152722a37b5b2b7103737ba1030b8383937bb32b21760691b604082015260600190565b602080825260149082015273151bdad95b88191bd95cc81b9bdd08195e1a5cdd60621b604082015260600190565b92835260208301919091526001600160a01b0316604082015260600190565b600181811c908216806138eb57607f821691505b60208210810361390b57634e487b7160e01b600052602260045260246000fd5b50919050565b60006020828403121561392357600080fd5b8151611b0a816131cf565b634e487b7160e01b600052602160045260246000fd5b9283526020830191909152604082015260806060820181905260009082015260a00190565b6001600160a01b0393841681526020810192909252909116604082015260600190565b60008154613999816138d7565b8085526020600183811680156139b657600181146139d0576139fe565b60ff1985168884015283151560051b8801830195506139fe565b866000528260002060005b858110156139f65781548a82018601529083019084016139db565b890184019650505b505050505092915050565b60006060808301868452602060018060a01b038716602086015260406060604087015282875480855260808801915060808160051b890101945088600052602060002060005b82811015613aa757898703607f19018452878752613a6f8888018361398c565b87810387890152613a83816001850161398c565b600284015460ff161515988701989098525092850192600390910190600101613a4f565b50949b9a5050505050505050505050565b634e487b7160e01b600052603260045260246000fd5b818103818111156105e057634e487b7160e01b600052601160045260246000fd5b634e487b7160e01b600052603160045260246000fd5b600060208284031215613b1757600080fd5b5051919050565b6020808252600d908201526c546f6b656e526567697374727960981b604082015260600190565b60068110613b5557613b5561392e565b9052565b6020815260008251610140806020850152613b7861016085018361317c565b91506020850151601f1980868503016040870152613b96848361317c565b93506040870151915080868503016060870152613bb3848361317c565b93506060870151608087015260808701519150808685030160a0870152613bda848361317c565b935060a08701519150808685030160c087015250613bf8838261317c565b92505060c0850151613c0e60e086018215159052565b5060e0850151610100613c2381870183613b45565b8601519050610120613c388682018315159052565b9095015160ff1693019290925250919050565b6000808335601e19843603018112613c6257600080fd5b8301803591506001600160401b03821115613c7c57600080fd5b602001915036819003821315613c9157600080fd5b9250929050565b60028110610bc357610bc361392e565b60058110613b5557613b5561392e565b80511515825260006020820151613cce81613c98565b80602085015250604082015160a06040850152613cee60a085018261317c565b90506060830151613d026060860182613ca8565b5060808301518482036080860152613d1a828261317c565b95945050505050565b613d2e828251613ca8565b60208101516020830152604081015160018060a01b038082166040850152806060840151166060850152806080840151166080850152505060a081015160a08301525050565b858152600060018060a01b03808716602084015280861660408401525060a060608301528351604060a0840152613db060e08401825115159052565b60208101516101008181860152604083015191506101c080610120870152613ddc6102a0870184613cb8565b92506060840151610140870152608084015160df198088860301610160890152613e06858361317c565b945060a086015191508088860301610180890152613e24858361317c565b945060c0860151915080888603016101a089015250613e43848261317c565b93505060e0840151613e5782880182613d23565b5050919091015115156102808401526020850151609f198483030160c085015290613e82818361317c565b925050508260808301529695505050505050565b60006101008a835289602084015288604084015287606084015260018060a01b03871660808401528560a08401528460c08401528060e0840152613edc8184018561317c565b9b9a5050505050505050505050565b601f821115610b5a576000816000526020600020601f850160051c81016020861015613f145750805b601f850160051c820191505b81811015613f3357828155600101613f20565b505050505050565b81516001600160401b03811115613f5457613f5461341b565b613f6881613f6284546138d7565b84613eeb565b602080601f831160018114613f9d5760008415613f855750858301515b600019600386901b1c1916600185901b178555613f33565b600085815260208120601f198616915b82811015613fcc57888601518255948401946001909101908401613fad565b5085821015613fea5787850151600019600388901b60f8161c191681555b5050505050600190811b01905550565b6000835161400c818460208801613158565b835190830190614020818360208801613158565b01949350505050565b60006020828403121561403b57600080fd5b8151611b0a81613500565b60208082526048908201527f5468697320697320612072656365697665206d6574686f642e204f6e6c79206560408201527f6e64706f696e742773206578656375746f722063616e2063616c6c20746869736060820152671036b2ba3437b21760c11b608082015260a00190565b8481528360208201526140c683613c98565b8260408201526080606082015260006140e2608083018461317c565b9695505050505050565b838152826020820152606060408201526000613d1a606083018461317c565b600061018089835288602084015280604084015261412b8184018961317c565b9050828103606084015261413f818861317c565b90508281036080840152614153818761317c565b905082810360a0840152614167818661317c565b91505061361060c0830184613d23565b60608152600061418a606083018661398c565b828103602084015261419c818661398c565b905082810360408401526140e2818561398c565b8381526001600160a01b0383166020820152606060408201819052600090613d1a9083018461317c565b6001600160a01b03858116825284166020820152604081018390526080606082018190526000906140e29083018461317c565b60006020828403121561421f57600080fd5b8151611b0a8161310c56fea2646970667358221220d6f90c1a20e8f66f63a8dae942721d7f8d4095d2a47511d7b504dbc1427c3eaf64736f6c63430008180033",
  "linkReferences": {},
  "deployedLinkReferences": {}
}