{
  "_format": "hh-sol-artifact-1",
  "contractName": "ParticipantStorageV2",
  "sourceName": "src/commitChain/ParticipantStorage-New/ParticipantStorageV2.sol",
  "abi": [
    {
      "inputs": [
        {
          "internalType": "address",
          "name": "target",
          "type": "address"
        }
      ],
      "name": "AddressEmptyCode",
      "type": "error"
    },
    {
      "inputs": [
        {
          "internalType": "address",
          "name": "implementation",
          "type": "address"
        }
      ],
      "name": "ERC1967InvalidImplementation",
      "type": "error"
    },
    {
      "inputs": [],
      "name": "ERC1967NonPayable",
      "type": "error"
    },
    {
      "inputs": [],
      "name": "FailedInnerCall",
      "type": "error"
    },
    {
      "inputs": [],
      "name": "InvalidInitialization",
      "type": "error"
    },
    {
      "inputs": [],
      "name": "NotInitializing",
      "type": "error"
    },
    {
      "inputs": [
        {
          "internalType": "address",
          "name": "owner",
          "type": "address"
        }
      ],
      "name": "OwnableInvalidOwner",
      "type": "error"
    },
    {
      "inputs": [
        {
          "internalType": "address",
          "name": "account",
          "type": "address"
        }
      ],
      "name": "OwnableUnauthorizedAccount",
      "type": "error"
    },
    {
      "inputs": [],
      "name": "UUPSUnauthorizedCallContext",
      "type": "error"
    },
    {
      "inputs": [
        {
          "internalType": "bytes32",
          "name": "slot",
          "type": "bytes32"
        }
      ],
      "name": "UUPSUnsupportedProxiableUUID",
      "type": "error"
    },
    {
      "anonymous": false,
      "inputs": [
        {
          "indexed": false,
          "internalType": "uint64",
          "name": "version",
          "type": "uint64"
        }
      ],
      "name": "Initialized",
      "type": "event"
    },
    {
      "anonymous": false,
      "inputs": [
        {
          "indexed": true,
          "internalType": "address",
          "name": "previousOwner",
          "type": "address"
        },
        {
          "indexed": true,
          "internalType": "address",
          "name": "newOwner",
          "type": "address"
        }
      ],
      "name": "OwnershipTransferred",
      "type": "event"
    },
    {
      "anonymous": false,
      "inputs": [
        {
          "indexed": true,
          "internalType": "address",
          "name": "implementation",
          "type": "address"
        }
      ],
      "name": "Upgraded",
      "type": "event"
    },
    {
      "inputs": [],
      "name": "UPGRADE_INTERFACE_VERSION",
      "outputs": [
        {
          "internalType": "string",
          "name": "",
          "type": "string"
        }
      ],
      "stateMutability": "view",
      "type": "function"
    },
    {
      "inputs": [
        {
          "internalType": "uint256",
          "name": "chainId",
          "type": "uint256"
        },
        {
          "internalType": "string",
          "name": "name",
          "type": "string"
        },
        {
          "internalType": "string",
          "name": "description",
          "type": "string"
        }
      ],
      "name": "addParticipant",
      "outputs": [],
      "stateMutability": "nonpayable",
      "type": "function"
    },
    {
      "inputs": [
        {
          "internalType": "uint256",
          "name": "chainId",
          "type": "uint256"
        },
        {
          "internalType": "string",
          "name": "name",
          "type": "string"
        }
      ],
      "name": "addParticipant",
      "outputs": [],
      "stateMutability": "nonpayable",
      "type": "function"
    },
    {
      "inputs": [],
      "name": "broadcastEnygmaData",
      "outputs": [
        {
          "components": [
            {
              "internalType": "uint256",
              "name": "babyJubjubX",
              "type": "uint256"
            },
            {
              "internalType": "uint256",
              "name": "babyJubjubY",
              "type": "uint256"
            },
            {
              "internalType": "address[]",
              "name": "plAddresses",
              "type": "address[]"
            },
            {
              "internalType": "uint256",
              "name": "chainId",
              "type": "uint256"
            }
          ],
          "internalType": "struct StorageBase.PrivateLedgerDataEnygma[]",
          "name": "",
          "type": "tuple[]"
        }
      ],
      "stateMutability": "nonpayable",
      "type": "function"
    },
    {
      "inputs": [],
      "name": "broadcastParticipants",
      "outputs": [
        {
          "components": [
            {
              "internalType": "uint256",
              "name": "chainId",
              "type": "uint256"
            },
            {
              "internalType": "string",
              "name": "name",
              "type": "string"
            },
            {
              "internalType": "uint256",
              "name": "createdAt",
              "type": "uint256"
            },
            {
              "internalType": "uint256",
              "name": "updatedAt",
              "type": "uint256"
            },
            {
              "internalType": "uint256[50]",
              "name": "__gap",
              "type": "uint256[50]"
            }
          ],
          "internalType": "struct StorageBase.Participant[]",
          "name": "",
          "type": "tuple[]"
        }
      ],
      "stateMutability": "nonpayable",
      "type": "function"
    },
    {
      "inputs": [
        {
          "internalType": "address",
          "name": "_participantManager",
          "type": "address"
        }
      ],
      "name": "configureParticipantManager",
      "outputs": [],
      "stateMutability": "nonpayable",
      "type": "function"
    },
    {
      "inputs": [],
      "name": "getBroadcastManager",
      "outputs": [
        {
          "internalType": "address",
          "name": "_broadcastManager",
          "type": "address"
        }
      ],
      "stateMutability": "view",
      "type": "function"
    },
    {
      "inputs": [],
      "name": "getEnygmaAllParticipantsChainIds",
      "outputs": [
        {
          "internalType": "uint256[]",
          "name": "",
          "type": "uint256[]"
        }
      ],
      "stateMutability": "view",
      "type": "function"
    },
    {
      "inputs": [
        {
          "internalType": "uint256",
          "name": "chainId",
          "type": "uint256"
        }
      ],
      "name": "getEnygmaData",
      "outputs": [
        {
          "components": [
            {
              "internalType": "uint256",
              "name": "babyJubjubX",
              "type": "uint256"
            },
            {
              "internalType": "uint256",
              "name": "babyJubjubY",
              "type": "uint256"
            },
            {
              "internalType": "address[]",
              "name": "plAddresses",
              "type": "address[]"
            },
            {
              "internalType": "uint256",
              "name": "chainId",
              "type": "uint256"
            }
          ],
          "internalType": "struct StorageBase.PrivateLedgerDataEnygma",
          "name": "",
          "type": "tuple"
        }
      ],
      "stateMutability": "view",
      "type": "function"
    },
    {
      "inputs": [],
      "name": "getEnygmaManager",
      "outputs": [
        {
          "internalType": "address",
          "name": "_enygmaManager",
          "type": "address"
        }
      ],
      "stateMutability": "view",
      "type": "function"
    },
    {
      "inputs": [
        {
          "internalType": "uint256",
          "name": "chainId",
          "type": "uint256"
        }
      ],
      "name": "getParticipant",
      "outputs": [
        {
          "components": [
            {
              "internalType": "uint256",
              "name": "chainId",
              "type": "uint256"
            },
            {
              "internalType": "string",
              "name": "name",
              "type": "string"
            },
            {
              "internalType": "uint256",
              "name": "createdAt",
              "type": "uint256"
            },
            {
              "internalType": "uint256",
              "name": "updatedAt",
              "type": "uint256"
            },
            {
              "internalType": "uint256[50]",
              "name": "__gap",
              "type": "uint256[50]"
            }
          ],
          "internalType": "struct StorageBase.Participant",
          "name": "",
          "type": "tuple"
        }
      ],
      "stateMutability": "view",
      "type": "function"
    },
    {
      "inputs": [],
      "name": "getParticipantManager",
      "outputs": [
        {
          "internalType": "address",
          "name": "_participantManager",
          "type": "address"
        }
      ],
      "stateMutability": "view",
      "type": "function"
    },
    {
      "inputs": [
        {
          "internalType": "uint256",
          "name": "chainId",
          "type": "uint256"
        }
      ],
      "name": "getParticipantV2",
      "outputs": [
        {
          "components": [
            {
              "internalType": "uint256",
              "name": "chainId",
              "type": "uint256"
            },
            {
              "internalType": "string",
              "name": "name",
              "type": "string"
            },
            {
              "internalType": "uint256",
              "name": "createdAt",
              "type": "uint256"
            },
            {
              "internalType": "uint256",
              "name": "updatedAt",
              "type": "uint256"
            },
            {
              "internalType": "uint256[50]",
              "name": "__gap",
              "type": "uint256[50]"
            }
          ],
          "internalType": "struct StorageBase.Participant",
          "name": "",
          "type": "tuple"
        }
      ],
      "stateMutability": "view",
      "type": "function"
    },
    {
      "inputs": [],
      "name": "getStorageSlot",
      "outputs": [
        {
          "internalType": "bytes32",
          "name": "",
          "type": "bytes32"
        }
      ],
      "stateMutability": "view",
      "type": "function"
    },
    {
      "inputs": [
        {
          "internalType": "address",
          "name": "owner",
          "type": "address"
        },
        {
          "internalType": "address",
          "name": "_participantManager",
          "type": "address"
        },
        {
          "internalType": "address",
          "name": "_enygmaManager",
          "type": "address"
        },
        {
          "internalType": "address",
          "name": "_broadcastManager",
          "type": "address"
        }
      ],
      "name": "initialize",
      "outputs": [],
      "stateMutability": "nonpayable",
      "type": "function"
    },
    {
      "inputs": [],
      "name": "owner",
      "outputs": [
        {
          "internalType": "address",
          "name": "",
          "type": "address"
        }
      ],
      "stateMutability": "view",
      "type": "function"
    },
    {
      "inputs": [],
      "name": "proxiableUUID",
      "outputs": [
        {
          "internalType": "bytes32",
          "name": "",
          "type": "bytes32"
        }
      ],
      "stateMutability": "view",
      "type": "function"
    },
    {
      "inputs": [],
      "name": "renounceOwnership",
      "outputs": [],
      "stateMutability": "nonpayable",
      "type": "function"
    },
    {
      "inputs": [
        {
          "internalType": "uint256",
          "name": "chainId",
          "type": "uint256"
        },
        {
          "internalType": "uint256",
          "name": "babyJubjubX",
          "type": "uint256"
        },
        {
          "internalType": "uint256",
          "name": "babyJubjubY",
          "type": "uint256"
        },
        {
          "internalType": "address[]",
          "name": "plAddresses",
          "type": "address[]"
        }
      ],
      "name": "setEnygmaData",
      "outputs": [],
      "stateMutability": "nonpayable",
      "type": "function"
    },
    {
      "inputs": [
        {
          "internalType": "address",
          "name": "newOwner",
          "type": "address"
        }
      ],
      "name": "transferOwnership",
      "outputs": [],
      "stateMutability": "nonpayable",
      "type": "function"
    },
    {
      "inputs": [
        {
          "internalType": "uint256",
          "name": "chainId",
          "type": "uint256"
        },
        {
          "internalType": "string",
          "name": "name",
          "type": "string"
        },
        {
          "internalType": "string",
          "name": "description",
          "type": "string"
        }
      ],
      "name": "updateParticipant",
      "outputs": [],
      "stateMutability": "nonpayable",
      "type": "function"
    },
    {
      "inputs": [
        {
          "internalType": "uint256",
          "name": "chainId",
          "type": "uint256"
        },
        {
          "internalType": "string",
          "name": "name",
          "type": "string"
        }
      ],
      "name": "updateParticipantName",
      "outputs": [],
      "stateMutability": "nonpayable",
      "type": "function"
    },
    {
      "inputs": [
        {
          "internalType": "address",
          "name": "newImplementation",
          "type": "address"
        },
        {
          "internalType": "bytes",
          "name": "data",
          "type": "bytes"
        }
      ],
      "name": "upgradeToAndCall",
      "outputs": [],
      "stateMutability": "payable",
      "type": "function"
    },
    {
      "inputs": [
        {
          "internalType": "uint256",
          "name": "chainId",
          "type": "uint256"
        }
      ],
      "name": "validateEnygmaParticipant",
      "outputs": [],
      "stateMutability": "view",
      "type": "function"
    },
    {
      "inputs": [
        {
          "internalType": "uint256",
          "name": "originChainId",
          "type": "uint256"
        },
        {
          "internalType": "uint256",
          "name": "destinationChainId",
          "type": "uint256"
        }
      ],
      "name": "validateMessageParticipants",
      "outputs": [],
      "stateMutability": "view",
      "type": "function"
    },
    {
      "inputs": [
        {
          "internalType": "uint256",
          "name": "chainId",
          "type": "uint256"
        }
      ],
      "name": "validateParticipant",
      "outputs": [],
      "stateMutability": "view",
      "type": "function"
    }
  ],
  "bytecode": "0x60a06040523060805234801561001457600080fd5b50608051611f3061003e60003960008181610e4301528181610e6c0152610fa90152611f306000f3fe6080604052600436106101415760003560e01c80638da5cb5b116100b15780638da5cb5b14610319578063967082261461033b5780639735303c14610350578063a202915814610370578063ad3cb1cc1461038e578063b5484004146103cc578063c577a705146103ec578063d4c633a71461040c578063d5c3614f1461042a578063d6b81d5e1461044a578063f2558e0b14610468578063f2fde38b14610488578063f8c8765e146104a857600080fd5b806306f54473146101465780631b9db2ef14610171578063274515581461019e5780632d335875146101c05780634a08834d146101e25780634f1ef2861461020f57806351dc88651461022457806352d1902d14610244578063575a2f7814610267578063711be231146102a4578063715018a6146102c4578063727f7faf146102d95780637d8470cb146102f9575b600080fd5b34801561015257600080fd5b5061015b6104c8565b60405161016891906113f3565b60405180910390f35b34801561017d57600080fd5b5061019161018c366004611457565b610540565b6040516101689190611470565b3480156101aa57600080fd5b506101b36105c0565b60405161016891906114fc565b3480156101cc57600080fd5b506101d5610633565b6040516101689190611553565b3480156101ee57600080fd5b506102026101fd366004611457565b6106a5565b6040516101689190611597565b61022261021d366004611676565b610741565b005b34801561023057600080fd5b5061022261023f366004611750565b610760565b34801561025057600080fd5b506102596107d1565b604051908152602001610168565b34801561027357600080fd5b506102226102823660046117c9565b600380546001600160a01b0319166001600160a01b0392909216919091179055565b3480156102b057600080fd5b506102226102bf3660046117e6565b6107ee565b3480156102d057600080fd5b50610222610826565b3480156102e557600080fd5b506102226102f4366004611750565b61083a565b34801561030557600080fd5b50610222610314366004611875565b610872565b34801561032557600080fd5b5061032e6108dd565b60405161016891906118c0565b34801561034757600080fd5b506102596108f8565b34801561035c57600080fd5b5061022261036b366004611875565b610970565b34801561037c57600080fd5b506000546001600160a01b031661032e565b34801561039a57600080fd5b506103bf604051806040016040528060058152602001640352e302e360dc1b81525081565b60405161016891906118d4565b3480156103d857600080fd5b506102226103e7366004611457565b6109a4565b3480156103f857600080fd5b50610222610407366004611457565b610a04565b34801561041857600080fd5b506002546001600160a01b031661032e565b34801561043657600080fd5b506102226104453660046118e7565b610a35565b34801561045657600080fd5b506001546001600160a01b031661032e565b34801561047457600080fd5b50610191610483366004611457565b610af1565b34801561049457600080fd5b506102226104a33660046117c9565b610b2a565b3480156104b457600080fd5b506102226104c3366004611909565b610b71565b600254604080516306f5447360e01b815290516060926001600160a01b0316916306f54473916004808301926000929190829003018183875af1158015610513573d6000803e3d6000fd5b505050506040513d6000823e601f3d908101601f1916820160405261053b9190810190611aa9565b905090565b6105486112e3565b600054604051631b9db2ef60e01b8152600481018490526001600160a01b0390911690631b9db2ef906024015b600060405180830381865afa158015610592573d6000803e3d6000fd5b505050506040513d6000823e601f3d908101601f191682016040526105ba9190810190611b59565b92915050565b600254604080516304e8a2ab60e31b815290516060926001600160a01b0316916327451558916004808301926000929190829003018183875af115801561060b573d6000803e3d6000fd5b505050506040513d6000823e601f3d908101601f1916820160405261053b9190810190611c58565b60015460408051632d33587560e01b815290516060926001600160a01b031691632d3358759160048083019260009291908290030181865afa15801561067d573d6000803e3d6000fd5b505050506040513d6000823e601f3d908101601f1916820160405261053b9190810190611cfb565b6106d06040518060800160405280600081526020016000815260200160608152602001600081525090565b600154604051634a08834d60e01b8152600481018490526001600160a01b0390911690634a08834d90602401600060405180830381865afa158015610719573d6000803e3d6000fd5b505050506040513d6000823e601f3d908101601f191682016040526105ba9190810190611d8b565b610749610e38565b61075282610edd565b61075c8282610ee5565b5050565b6003546040516351dc886560e01b81526001600160a01b03909116906351dc8865906107989088908890889088908890600401611de8565b600060405180830381600087803b1580156107b257600080fd5b505af11580156107c6573d6000803e3d6000fd5b505050505050505050565b60006107db610f9e565b50600080516020611edb83398151915290565b60015460405163711be23160e01b81526001600160a01b039091169063711be231906107989088908890889088908890600401611e21565b61082e610fe7565b6108386000611019565b565b60035460405163727f7faf60e01b81526001600160a01b039091169063727f7faf906107989088908890889088908890600401611de8565b600054604051637d8470cb60e01b81526001600160a01b0390911690637d8470cb906108a690869086908690600401611e8b565b600060405180830381600087803b1580156108c057600080fd5b505af11580156108d4573d6000803e3d6000fd5b50505050505050565b6000806108e8611075565b546001600160a01b031692915050565b60008060009054906101000a90046001600160a01b03166001600160a01b031663967082266040518163ffffffff1660e01b8152600401602060405180830381865afa15801561094c573d6000803e3d6000fd5b505050506040513d601f19601f8201168201806040525081019061053b9190611ea5565b6000546040516325cd4c0f60e21b81526001600160a01b0390911690639735303c906108a690869086908690600401611e8b565b600054604051632d52100160e21b8152600481018390526001600160a01b039091169063b5484004906024015b60006040518083038186803b1580156109e957600080fd5b505afa1580156109fd573d6000803e3d6000fd5b5050505050565b60015460405163c577a70560e01b8152600481018390526001600160a01b039091169063c577a705906024016109d1565b600054604051632d52100160e21b8152600481018490526001600160a01b039091169063b54840049060240160006040518083038186803b158015610a7957600080fd5b505afa158015610a8d573d6000803e3d6000fd5b5050600054604051632d52100160e21b8152600481018590526001600160a01b03909116925063b5484004915060240160006040518083038186803b158015610ad557600080fd5b505afa158015610ae9573d6000803e3d6000fd5b505050505050565b610af96112e3565b600354604051631b9db2ef60e01b8152600481018490526001600160a01b0390911690631b9db2ef90602401610575565b610b32610fe7565b6001600160a01b038116610b65576000604051631e4fbdf760e01b8152600401610b5c91906118c0565b60405180910390fd5b610b6e81611019565b50565b6000610b7b611099565b805490915060ff600160401b82041615906001600160401b0316600081158015610ba25750825b90506000826001600160401b03166001148015610bbe5750303b155b905081158015610bcc575080155b15610bea5760405163f92ee8a960e01b815260040160405180910390fd5b845467ffffffffffffffff191660011785558315610c1457845460ff60401b1916600160401b1785555b6001600160a01b038916610c6a5760405162461bcd60e51b815260206004820152601c60248201527f4f776e657220616464726573732063616e6e6f74206265207a65726f000000006044820152606401610b5c565b6001600160a01b038816610cd25760405162461bcd60e51b815260206004820152602960248201527f5061727469636970616e744d616e6167657220616464726573732063616e6e6f60448201526874206265207a65726f60b81b6064820152608401610b5c565b6001600160a01b038716610d345760405162461bcd60e51b8152602060048201526024808201527f456e79676d614d616e6167657220616464726573732063616e6e6f74206265206044820152637a65726f60e01b6064820152608401610b5c565b6001600160a01b038616610d9a5760405162461bcd60e51b815260206004820152602760248201527f42726f6164636173744d616e6167657220616464726573732063616e6e6f74206044820152666265207a65726f60c81b6064820152608401610b5c565b610da3896110bd565b610dab6110ce565b600080546001600160a01b03808b166001600160a01b031992831617909255600180548a8416908316179055600280549289169290911691909117905583156107c657845460ff60401b19168555604051600181527fc7f505b2f371ae2175ee4913f4499e1f2633a7b5936321eed1cdaeb6115181d29060200160405180910390a1505050505050505050565b306001600160a01b037f0000000000000000000000000000000000000000000000000000000000000000161480610ebf57507f00000000000000000000000000000000000000000000000000000000000000006001600160a01b0316610eb3600080516020611edb833981519152546001600160a01b031690565b6001600160a01b031614155b156108385760405163703e46dd60e11b815260040160405180910390fd5b610b6e610fe7565b816001600160a01b03166352d1902d6040518163ffffffff1660e01b8152600401602060405180830381865afa925050508015610f3f575060408051601f3d908101601f19168201909252610f3c91810190611ea5565b60015b610f5e5781604051634c9c8ce360e01b8152600401610b5c91906118c0565b600080516020611edb8339815191528114610f8f57604051632a87526960e21b815260048101829052602401610b5c565b610f9983836110d6565b505050565b306001600160a01b037f000000000000000000000000000000000000000000000000000000000000000016146108385760405163703e46dd60e11b815260040160405180910390fd5b33610ff06108dd565b6001600160a01b031614610838573360405163118cdaa760e01b8152600401610b5c91906118c0565b6000611023611075565b80546001600160a01b038481166001600160a01b031983168117845560405193945091169182907f8be0079c531659141344cd1fd0a4f28419497f9722a3daafe3b4186f6b6457e090600090a3505050565b7f9016d09d72d40fdae2fd8ceac6b6234c7706214fd39c1cd1e609a0528c19930090565b7ff0c57e16840df040f15088dc2f81fe391c3923bec73e23a9662efc9c229c6a0090565b6110c561112c565b610b6e81611151565b61083861112c565b6110df82611159565b6040516001600160a01b038316907fbc7cd75a20ee27fd9adebab32041f755214dbc6bffa90cc0225b39da2e5c2d3b90600090a280511561112457610f9982826111b5565b61075c61122b565b61113461124a565b61083857604051631afcd79f60e31b815260040160405180910390fd5b610b3261112c565b806001600160a01b03163b6000036111865780604051634c9c8ce360e01b8152600401610b5c91906118c0565b600080516020611edb83398151915280546001600160a01b0319166001600160a01b0392909216919091179055565b6060600080846001600160a01b0316846040516111d29190611ebe565b600060405180830381855af49150503d806000811461120d576040519150601f19603f3d011682016040523d82523d6000602084013e611212565b606091505b5091509150611222858383611264565b95945050505050565b34156108385760405163b398979f60e01b815260040160405180910390fd5b6000611254611099565b54600160401b900460ff16919050565b60608261127957611274826112ba565b6112b3565b815115801561129057506001600160a01b0384163b155b156112b05783604051639996b31560e01b8152600401610b5c91906118c0565b50805b9392505050565b8051156112ca5780518082602001fd5b604051630a12f52160e11b815260040160405180910390fd5b6040518060a0016040528060008152602001606081526020016000815260200160008152602001611312611317565b905290565b6040518061064001604052806032906020820280368337509192915050565b60005b83811015611351578181015183820152602001611339565b50506000910152565b60008151808452611372816020860160208601611336565b601f01601f19169290920160200192915050565b60006106c0825184526020808401518260208701526113a78387018261135a565b925050604084015160408601526060840151606086015260808401516080860160005b60328110156113e7578251825291830191908301906001016113ca565b50929695505050505050565b600060208083016020845280855180835260408601915060408160051b87010192506020870160005b8281101561144a57603f19888603018452611438858351611386565b9450928501929085019060010161141c565b5092979650505050505050565b60006020828403121561146957600080fd5b5035919050565b6020815260006112b36020830184611386565b60006080830182518452602080840151602086015260408401516080604087015282815180855260a088019150602083019450600092505b808310156114e45784516001600160a01b031682529383019360019290920191908301906114bb565b50606086015160608801528094505050505092915050565b600060208083016020845280855180835260408601915060408160051b87010192506020870160005b8281101561144a57603f19888603018452611541858351611483565b94509285019290850190600101611525565b6020808252825182820181905260009190848201906040850190845b8181101561158b5783518352928401929184019160010161156f565b50909695505050505050565b6020815260006112b36020830184611483565b6001600160a01b0381168114610b6e57600080fd5b634e487b7160e01b600052604160045260246000fd5b60405160a081016001600160401b03811182821017156115f7576115f76115bf565b60405290565b604051608081016001600160401b03811182821017156115f7576115f76115bf565b604051601f8201601f191681016001600160401b0381118282101715611647576116476115bf565b604052919050565b60006001600160401b03821115611668576116686115bf565b50601f01601f191660200190565b6000806040838503121561168957600080fd5b8235611694816115aa565b915060208301356001600160401b038111156116af57600080fd5b8301601f810185136116c057600080fd5b80356116d36116ce8261164f565b61161f565b8181528660208385010111156116e857600080fd5b816020840160208301376000602083830101528093505050509250929050565b60008083601f84011261171a57600080fd5b5081356001600160401b0381111561173157600080fd5b60208301915083602082850101111561174957600080fd5b9250929050565b60008060008060006060868803121561176857600080fd5b8535945060208601356001600160401b038082111561178657600080fd5b61179289838a01611708565b909650945060408801359150808211156117ab57600080fd5b506117b888828901611708565b969995985093965092949392505050565b6000602082840312156117db57600080fd5b81356112b3816115aa565b6000806000806000608086880312156117fe57600080fd5b85359450602086013593506040860135925060608601356001600160401b038082111561182a57600080fd5b818801915088601f83011261183e57600080fd5b81358181111561184d57600080fd5b8960208260051b850101111561186257600080fd5b9699959850939650602001949392505050565b60008060006040848603121561188a57600080fd5b8335925060208401356001600160401b038111156118a757600080fd5b6118b386828701611708565b9497909650939450505050565b6001600160a01b0391909116815260200190565b6020815260006112b3602083018461135a565b600080604083850312156118fa57600080fd5b50508035926020909101359150565b6000806000806080858703121561191f57600080fd5b843561192a816115aa565b9350602085013561193a816115aa565b9250604085013561194a816115aa565b9150606085013561195a816115aa565b939692955090935050565b60006001600160401b0382111561197e5761197e6115bf565b5060051b60200190565b600082601f83011261199957600080fd5b6040516106408082018281106001600160401b03821117156119bd576119bd6115bf565b604052830181858211156119d057600080fd5b845b828110156119ea5780518252602091820191016119d2565b509195945050505050565b60006106c08284031215611a0857600080fd5b611a106115d5565b90508151815260208201516001600160401b03811115611a2f57600080fd5b8201601f81018413611a4057600080fd5b8051611a4e6116ce8261164f565b818152856020838501011115611a6357600080fd5b611a74826020830160208601611336565b8060208501525050506040820151604082015260608201516060820152611a9e8360808401611988565b608082015292915050565b60006020808385031215611abc57600080fd5b82516001600160401b0380821115611ad357600080fd5b818501915085601f830112611ae757600080fd5b8151611af56116ce82611965565b81815260059190911b83018401908481019088831115611b1457600080fd5b8585015b83811015611b4c57805185811115611b305760008081fd5b611b3e8b89838a01016119f5565b845250918601918601611b18565b5098975050505050505050565b600060208284031215611b6b57600080fd5b81516001600160401b03811115611b8157600080fd5b611b8d848285016119f5565b949350505050565b600060808284031215611ba757600080fd5b611baf6115fd565b9050815181526020808301518183015260408301516001600160401b03811115611bd857600080fd5b8301601f81018513611be957600080fd5b8051611bf76116ce82611965565b81815260059190911b82018301908381019087831115611c1657600080fd5b928401925b82841015611c3d578351611c2e816115aa565b82529284019290840190611c1b565b80604087015250505050506060820151606082015292915050565b60006020808385031215611c6b57600080fd5b82516001600160401b0380821115611c8257600080fd5b818501915085601f830112611c9657600080fd5b8151611ca46116ce82611965565b81815260059190911b83018401908481019088831115611cc357600080fd5b8585015b83811015611b4c57805185811115611cdf5760008081fd5b611ced8b89838a0101611b95565b845250918601918601611cc7565b60006020808385031215611d0e57600080fd5b82516001600160401b03811115611d2457600080fd5b8301601f81018513611d3557600080fd5b8051611d436116ce82611965565b81815260059190911b82018301908381019087831115611d6257600080fd5b928401925b82841015611d8057835182529284019290840190611d67565b979650505050505050565b600060208284031215611d9d57600080fd5b81516001600160401b03811115611db357600080fd5b611b8d84828501611b95565b81835281816020850137506000828201602090810191909152601f909101601f19169091010190565b858152606060208201526000611e02606083018688611dbf565b8281036040840152611e15818587611dbf565b98975050505050505050565b6000608082018783526020876020850152866040850152608060608501528185835260a08501905086925060005b86811015611e7d578335611e62816115aa565b6001600160a01b031682529282019290820190600101611e4f565b509998505050505050505050565b838152604060208201526000611222604083018486611dbf565b600060208284031215611eb757600080fd5b5051919050565b60008251611ed0818460208701611336565b919091019291505056fe360894a13ba1a3210667c828492db98dca3e2076cc3735a920a3ca505d382bbca2646970667358221220d1855dae44122bbfb437045b1210448d71ad722ac8f32bbf06db2a031e72545864736f6c63430008180033",
  "linkReferences": {},
  "deployedLinkReferences": {}
}