{
  "_format": "hh-sol-artifact-1",
  "contractName": "PlaygroundErc1155",
  "sourceName": "src/rayls-protocol/test-contracts/PlaygroundErc1155.sol",
  "abi": [
    {
      "inputs": [
        {
          "internalType": "string",
          "name": "uri",
          "type": "string"
        },
        {
          "internalType": "string",
          "name": "name",
          "type": "string"
        },
        {
          "internalType": "address",
          "name": "endpoint",
          "type": "address"
        }
      ],
      "stateMutability": "nonpayable",
      "type": "constructor"
    },
    {
      "inputs": [
        {
          "internalType": "address",
          "name": "sender",
          "type": "address"
        },
        {
          "internalType": "uint256",
          "name": "balance",
          "type": "uint256"
        },
        {
          "internalType": "uint256",
          "name": "needed",
          "type": "uint256"
        },
        {
          "internalType": "uint256",
          "name": "tokenId",
          "type": "uint256"
        }
      ],
      "name": "ERC1155InsufficientBalance",
      "type": "error"
    },
    {
      "inputs": [
        {
          "internalType": "address",
          "name": "approver",
          "type": "address"
        }
      ],
      "name": "ERC1155InvalidApprover",
      "type": "error"
    },
    {
      "inputs": [
        {
          "internalType": "uint256",
          "name": "idsLength",
          "type": "uint256"
        },
        {
          "internalType": "uint256",
          "name": "valuesLength",
          "type": "uint256"
        }
      ],
      "name": "ERC1155InvalidArrayLength",
      "type": "error"
    },
    {
      "inputs": [
        {
          "internalType": "address",
          "name": "operator",
          "type": "address"
        }
      ],
      "name": "ERC1155InvalidOperator",
      "type": "error"
    },
    {
      "inputs": [
        {
          "internalType": "address",
          "name": "receiver",
          "type": "address"
        }
      ],
      "name": "ERC1155InvalidReceiver",
      "type": "error"
    },
    {
      "inputs": [
        {
          "internalType": "address",
          "name": "sender",
          "type": "address"
        }
      ],
      "name": "ERC1155InvalidSender",
      "type": "error"
    },
    {
      "inputs": [
        {
          "internalType": "address",
          "name": "operator",
          "type": "address"
        },
        {
          "internalType": "address",
          "name": "owner",
          "type": "address"
        }
      ],
      "name": "ERC1155MissingApprovalForAll",
      "type": "error"
    },
    {
      "inputs": [],
      "name": "InvalidInitialization",
      "type": "error"
    },
    {
      "inputs": [],
      "name": "NotInitializing",
      "type": "error"
    },
    {
      "inputs": [
        {
          "internalType": "address",
          "name": "owner",
          "type": "address"
        }
      ],
      "name": "OwnableInvalidOwner",
      "type": "error"
    },
    {
      "inputs": [
        {
          "internalType": "address",
          "name": "account",
          "type": "address"
        }
      ],
      "name": "OwnableUnauthorizedAccount",
      "type": "error"
    },
    {
      "anonymous": false,
      "inputs": [
        {
          "indexed": true,
          "internalType": "address",
          "name": "account",
          "type": "address"
        },
        {
          "indexed": true,
          "internalType": "address",
          "name": "operator",
          "type": "address"
        },
        {
          "indexed": false,
          "internalType": "bool",
          "name": "approved",
          "type": "bool"
        }
      ],
      "name": "ApprovalForAll",
      "type": "event"
    },
    {
      "anonymous": false,
      "inputs": [
        {
          "indexed": false,
          "internalType": "uint64",
          "name": "version",
          "type": "uint64"
        }
      ],
      "name": "Initialized",
      "type": "event"
    },
    {
      "anonymous": false,
      "inputs": [
        {
          "indexed": true,
          "internalType": "address",
          "name": "previousOwner",
          "type": "address"
        },
        {
          "indexed": true,
          "internalType": "address",
          "name": "newOwner",
          "type": "address"
        }
      ],
      "name": "OwnershipTransferred",
      "type": "event"
    },
    {
      "anonymous": false,
      "inputs": [
        {
          "indexed": true,
          "internalType": "address",
          "name": "operator",
          "type": "address"
        },
        {
          "indexed": true,
          "internalType": "address",
          "name": "from",
          "type": "address"
        },
        {
          "indexed": true,
          "internalType": "address",
          "name": "to",
          "type": "address"
        },
        {
          "indexed": false,
          "internalType": "uint256[]",
          "name": "ids",
          "type": "uint256[]"
        },
        {
          "indexed": false,
          "internalType": "uint256[]",
          "name": "values",
          "type": "uint256[]"
        }
      ],
      "name": "TransferBatch",
      "type": "event"
    },
    {
      "anonymous": false,
      "inputs": [
        {
          "indexed": true,
          "internalType": "address",
          "name": "operator",
          "type": "address"
        },
        {
          "indexed": true,
          "internalType": "address",
          "name": "from",
          "type": "address"
        },
        {
          "indexed": true,
          "internalType": "address",
          "name": "to",
          "type": "address"
        },
        {
          "indexed": false,
          "internalType": "uint256",
          "name": "id",
          "type": "uint256"
        },
        {
          "indexed": false,
          "internalType": "uint256",
          "name": "value",
          "type": "uint256"
        }
      ],
      "name": "TransferSingle",
      "type": "event"
    },
    {
      "anonymous": false,
      "inputs": [
        {
          "indexed": false,
          "internalType": "string",
          "name": "value",
          "type": "string"
        },
        {
          "indexed": true,
          "internalType": "uint256",
          "name": "id",
          "type": "uint256"
        }
      ],
      "name": "URI",
      "type": "event"
    },
    {
      "inputs": [],
      "name": "_getEndpointAddress",
      "outputs": [
        {
          "internalType": "address",
          "name": "",
          "type": "address"
        }
      ],
      "stateMutability": "view",
      "type": "function"
    },
    {
      "inputs": [
        {
          "internalType": "address",
          "name": "_endpoint",
          "type": "address"
        }
      ],
      "name": "_updateEndpoint",
      "outputs": [],
      "stateMutability": "nonpayable",
      "type": "function"
    },
    {
      "inputs": [
        {
          "internalType": "address",
          "name": "account",
          "type": "address"
        },
        {
          "internalType": "uint256",
          "name": "id",
          "type": "uint256"
        }
      ],
      "name": "balanceOf",
      "outputs": [
        {
          "internalType": "uint256",
          "name": "",
          "type": "uint256"
        }
      ],
      "stateMutability": "view",
      "type": "function"
    },
    {
      "inputs": [
        {
          "internalType": "address[]",
          "name": "accounts",
          "type": "address[]"
        },
        {
          "internalType": "uint256[]",
          "name": "ids",
          "type": "uint256[]"
        }
      ],
      "name": "balanceOfBatch",
      "outputs": [
        {
          "internalType": "uint256[]",
          "name": "",
          "type": "uint256[]"
        }
      ],
      "stateMutability": "view",
      "type": "function"
    },
    {
      "inputs": [
        {
          "internalType": "address",
          "name": "from",
          "type": "address"
        },
        {
          "internalType": "uint256",
          "name": "id",
          "type": "uint256"
        },
        {
          "internalType": "uint256",
          "name": "value",
          "type": "uint256"
        }
      ],
      "name": "burn",
      "outputs": [],
      "stateMutability": "nonpayable",
      "type": "function"
    },
    {
      "inputs": [
        {
          "internalType": "bytes32",
          "name": "_resourceId",
          "type": "bytes32"
        }
      ],
      "name": "getAddressByResourceId",
      "outputs": [
        {
          "internalType": "address",
          "name": "",
          "type": "address"
        }
      ],
      "stateMutability": "view",
      "type": "function"
    },
    {
      "inputs": [],
      "name": "getCreator",
      "outputs": [
        {
          "internalType": "address",
          "name": "",
          "type": "address"
        }
      ],
      "stateMutability": "view",
      "type": "function"
    },
    {
      "inputs": [],
      "name": "getErcStandard",
      "outputs": [
        {
          "internalType": "enum SharedObjects.ErcStandard",
          "name": "",
          "type": "uint8"
        }
      ],
      "stateMutability": "pure",
      "type": "function"
    },
    {
      "inputs": [
        {
          "internalType": "address",
          "name": "account",
          "type": "address"
        },
        {
          "internalType": "uint256",
          "name": "id",
          "type": "uint256"
        }
      ],
      "name": "getLockedAmount",
      "outputs": [
        {
          "internalType": "uint256",
          "name": "",
          "type": "uint256"
        }
      ],
      "stateMutability": "view",
      "type": "function"
    },
    {
      "inputs": [],
      "name": "getName",
      "outputs": [
        {
          "internalType": "string",
          "name": "",
          "type": "string"
        }
      ],
      "stateMutability": "view",
      "type": "function"
    },
    {
      "inputs": [],
      "name": "getUri",
      "outputs": [
        {
          "internalType": "string",
          "name": "",
          "type": "string"
        }
      ],
      "stateMutability": "view",
      "type": "function"
    },
    {
      "inputs": [
        {
          "internalType": "string",
          "name": "uri",
          "type": "string"
        },
        {
          "internalType": "string",
          "name": "_name",
          "type": "string"
        }
      ],
      "name": "initialize",
      "outputs": [],
      "stateMutability": "nonpayable",
      "type": "function"
    },
    {
      "inputs": [
        {
          "internalType": "address",
          "name": "account",
          "type": "address"
        },
        {
          "internalType": "address",
          "name": "operator",
          "type": "address"
        }
      ],
      "name": "isApprovedForAll",
      "outputs": [
        {
          "internalType": "bool",
          "name": "",
          "type": "bool"
        }
      ],
      "stateMutability": "view",
      "type": "function"
    },
    {
      "inputs": [
        {
          "internalType": "address",
          "name": "to",
          "type": "address"
        },
        {
          "internalType": "uint256",
          "name": "id",
          "type": "uint256"
        },
        {
          "internalType": "uint256",
          "name": "value",
          "type": "uint256"
        },
        {
          "internalType": "bytes",
          "name": "data",
          "type": "bytes"
        }
      ],
      "name": "mint",
      "outputs": [],
      "stateMutability": "nonpayable",
      "type": "function"
    },
    {
      "inputs": [],
      "name": "name",
      "outputs": [
        {
          "internalType": "string",
          "name": "",
          "type": "string"
        }
      ],
      "stateMutability": "view",
      "type": "function"
    },
    {
      "inputs": [],
      "name": "owner",
      "outputs": [
        {
          "internalType": "address",
          "name": "",
          "type": "address"
        }
      ],
      "stateMutability": "view",
      "type": "function"
    },
    {
      "inputs": [
        {
          "internalType": "bytes32",
          "name": "_resourceId",
          "type": "bytes32"
        }
      ],
      "name": "receiveResourceId",
      "outputs": [],
      "stateMutability": "nonpayable",
      "type": "function"
    },
    {
      "inputs": [
        {
          "internalType": "address",
          "name": "to",
          "type": "address"
        },
        {
          "internalType": "uint256",
          "name": "id",
          "type": "uint256"
        },
        {
          "internalType": "uint256",
          "name": "value",
          "type": "uint256"
        },
        {
          "internalType": "bytes",
          "name": "data",
          "type": "bytes"
        }
      ],
      "name": "receiveTeleport",
      "outputs": [],
      "stateMutability": "nonpayable",
      "type": "function"
    },
    {
      "inputs": [
        {
          "internalType": "address",
          "name": "to",
          "type": "address"
        },
        {
          "internalType": "uint256",
          "name": "id",
          "type": "uint256"
        },
        {
          "internalType": "uint256",
          "name": "value",
          "type": "uint256"
        },
        {
          "internalType": "bytes",
          "name": "data",
          "type": "bytes"
        }
      ],
      "name": "receiveTeleportAtomic",
      "outputs": [],
      "stateMutability": "nonpayable",
      "type": "function"
    },
    {
      "inputs": [],
      "name": "renounceOwnership",
      "outputs": [],
      "stateMutability": "nonpayable",
      "type": "function"
    },
    {
      "inputs": [],
      "name": "resourceId",
      "outputs": [
        {
          "internalType": "bytes32",
          "name": "",
          "type": "bytes32"
        }
      ],
      "stateMutability": "view",
      "type": "function"
    },
    {
      "inputs": [
        {
          "internalType": "address",
          "name": "to",
          "type": "address"
        },
        {
          "internalType": "uint256",
          "name": "id",
          "type": "uint256"
        },
        {
          "internalType": "uint256",
          "name": "value",
          "type": "uint256"
        }
      ],
      "name": "revertTeleportBurn",
      "outputs": [],
      "stateMutability": "nonpayable",
      "type": "function"
    },
    {
      "inputs": [
        {
          "internalType": "address",
          "name": "to",
          "type": "address"
        },
        {
          "internalType": "uint256",
          "name": "id",
          "type": "uint256"
        },
        {
          "internalType": "uint256",
          "name": "value",
          "type": "uint256"
        },
        {
          "internalType": "bytes",
          "name": "data",
          "type": "bytes"
        }
      ],
      "name": "revertTeleportMint",
      "outputs": [],
      "stateMutability": "nonpayable",
      "type": "function"
    },
    {
      "inputs": [
        {
          "internalType": "address",
          "name": "from",
          "type": "address"
        },
        {
          "internalType": "address",
          "name": "to",
          "type": "address"
        },
        {
          "internalType": "uint256[]",
          "name": "ids",
          "type": "uint256[]"
        },
        {
          "internalType": "uint256[]",
          "name": "values",
          "type": "uint256[]"
        },
        {
          "internalType": "bytes",
          "name": "data",
          "type": "bytes"
        }
      ],
      "name": "safeBatchTransferFrom",
      "outputs": [],
      "stateMutability": "nonpayable",
      "type": "function"
    },
    {
      "inputs": [
        {
          "internalType": "address",
          "name": "from",
          "type": "address"
        },
        {
          "internalType": "address",
          "name": "to",
          "type": "address"
        },
        {
          "internalType": "uint256",
          "name": "id",
          "type": "uint256"
        },
        {
          "internalType": "uint256",
          "name": "value",
          "type": "uint256"
        },
        {
          "internalType": "bytes",
          "name": "data",
          "type": "bytes"
        }
      ],
      "name": "safeTransferFrom",
      "outputs": [],
      "stateMutability": "nonpayable",
      "type": "function"
    },
    {
      "inputs": [
        {
          "internalType": "address",
          "name": "operator",
          "type": "address"
        },
        {
          "internalType": "bool",
          "name": "approved",
          "type": "bool"
        }
      ],
      "name": "setApprovalForAll",
      "outputs": [],
      "stateMutability": "nonpayable",
      "type": "function"
    },
    {
      "inputs": [
        {
          "internalType": "string",
          "name": "uri",
          "type": "string"
        }
      ],
      "name": "setUri",
      "outputs": [],
      "stateMutability": "nonpayable",
      "type": "function"
    },
    {
      "inputs": [
        {
          "internalType": "uint8",
          "name": "_storageSlot",
          "type": "uint8"
        }
      ],
      "name": "submitTokenRegistration",
      "outputs": [],
      "stateMutability": "nonpayable",
      "type": "function"
    },
    {
      "inputs": [
        {
          "internalType": "enum SharedObjects.BalanceUpdateType",
          "name": "updateType",
          "type": "uint8"
        },
        {
          "internalType": "uint256",
          "name": "id",
          "type": "uint256"
        },
        {
          "internalType": "uint256",
          "name": "amount",
          "type": "uint256"
        }
      ],
      "name": "submitTokenUpdate",
      "outputs": [],
      "stateMutability": "nonpayable",
      "type": "function"
    },
    {
      "inputs": [
        {
          "internalType": "bytes4",
          "name": "interfaceId",
          "type": "bytes4"
        }
      ],
      "name": "supportsInterface",
      "outputs": [
        {
          "internalType": "bool",
          "name": "",
          "type": "bool"
        }
      ],
      "stateMutability": "view",
      "type": "function"
    },
    {
      "inputs": [
        {
          "internalType": "address",
          "name": "to",
          "type": "address"
        },
        {
          "internalType": "uint256",
          "name": "id",
          "type": "uint256"
        },
        {
          "internalType": "uint256",
          "name": "value",
          "type": "uint256"
        },
        {
          "internalType": "uint256",
          "name": "chainId",
          "type": "uint256"
        },
        {
          "internalType": "bytes",
          "name": "data",
          "type": "bytes"
        }
      ],
      "name": "teleport",
      "outputs": [
        {
          "internalType": "bool",
          "name": "",
          "type": "bool"
        }
      ],
      "stateMutability": "nonpayable",
      "type": "function"
    },
    {
      "inputs": [
        {
          "internalType": "address",
          "name": "to",
          "type": "address"
        },
        {
          "internalType": "uint256",
          "name": "id",
          "type": "uint256"
        },
        {
          "internalType": "uint256",
          "name": "value",
          "type": "uint256"
        },
        {
          "internalType": "uint256",
          "name": "chainId",
          "type": "uint256"
        },
        {
          "internalType": "bytes",
          "name": "data",
          "type": "bytes"
        }
      ],
      "name": "teleportAtomic",
      "outputs": [
        {
          "internalType": "bool",
          "name": "",
          "type": "bool"
        }
      ],
      "stateMutability": "nonpayable",
      "type": "function"
    },
    {
      "inputs": [
        {
          "internalType": "address",
          "name": "newOwner",
          "type": "address"
        }
      ],
      "name": "transferOwnership",
      "outputs": [],
      "stateMutability": "nonpayable",
      "type": "function"
    },
    {
      "inputs": [
        {
          "internalType": "address",
          "name": "to",
          "type": "address"
        },
        {
          "internalType": "uint256",
          "name": "id",
          "type": "uint256"
        },
        {
          "internalType": "uint256",
          "name": "amount",
          "type": "uint256"
        },
        {
          "internalType": "bytes",
          "name": "data",
          "type": "bytes"
        }
      ],
      "name": "unlock",
      "outputs": [
        {
          "internalType": "bool",
          "name": "",
          "type": "bool"
        }
      ],
      "stateMutability": "nonpayable",
      "type": "function"
    },
    {
      "inputs": [
        {
          "internalType": "uint256",
          "name": "",
          "type": "uint256"
        }
      ],
      "name": "uri",
      "outputs": [
        {
          "internalType": "string",
          "name": "",
          "type": "string"
        }
      ],
      "stateMutability": "view",
      "type": "function"
    }
  ],
  "bytecode": "0x60806040523480156200001157600080fd5b506040516200416538038062004165833981016040819052620000349162000ae0565b600080546001600160a01b0319166001600160a01b0383161781558390839083903390818562000064816200014d565b506001600160a01b0381166200009557604051631e4fbdf760e01b8152600060048201526024015b60405180910390fd5b620000a0816200015f565b506006620000af868262000bfa565b506007620000be858262000bfa565b506008805460ff1916821515179055620000d7620001b1565b50505050506200011433600060646040518060400160405280600a815260200169119a5c9cdd08135a5b9d60b21b8152506200026560201b60201c565b600e80546001600160a01b03191633179055600f62000134848262000bfa565b50601062000143838262000bfa565b5050505062000eb6565b60066200015b828262000bfa565b5050565b600580546001600160a01b038381166001600160a01b0319831681179093556040519116919082907f8be0079c531659141344cd1fd0a4f28419497f9722a3daafe3b4186f6b6457e090600090a35050565b7ff0c57e16840df040f15088dc2f81fe391c3923bec73e23a9662efc9c229c6a00805468010000000000000000900460ff1615620002025760405163f92ee8a960e01b815260040160405180910390fd5b80546001600160401b0390811614620002625780546001600160401b0319166001600160401b0390811782556040519081527fc7f505b2f371ae2175ee4913f4499e1f2633a7b5936321eed1cdaeb6115181d29060200160405180910390a15b50565b6001600160a01b0384166200029157604051632bfa23e760e11b8152600060048201526024016200008c565b60408051600180825260208201869052818301908152606082018590526080820190925290620002c6600087848487620002ce565b505050505050565b620002dc8585858562000331565b6001600160a01b038416156200032a57825133906001036200031a576020848101519084015162000312838989858589620005bc565b5050620002c6565b620002c6818787878787620006f6565b5050505050565b6200033f84848484620007ea565b6001600160a01b038416620004365760005b82518110156200043457600083828151811062000372576200037262000cc6565b60200260200101519050600083838151811062000393576200039362000cc6565b6020026020010151905080600b60008481526020019081526020016000206000828254620003c2919062000cf2565b90915550506000828152600c602052604090205460ff166200042957600d805460018181019092557fd7b6990105719101dabeb77144f2a3385c8033acd3af97e9423a695e81ad1eb5018390556000838152600c60205260409020805460ff191690911790555b505060010162000351565b505b6001600160a01b038316620005b65760005b82518110156200032a57600083828151811062000469576200046962000cc6565b6020026020010151905060008383815181106200048a576200048a62000cc6565b6020026020010151905080600b60008481526020019081526020016000206000828254620004b9919062000d0e565b90915550506000828152600b60205260408120549003620005ab576000828152600c60205260408120805460ff191690555b600d54811015620005a95782600d82815481106200050d576200050d62000cc6565b906000526020600020015403620005a057600d8054620005309060019062000d0e565b8154811062000543576200054362000cc6565b9060005260206000200154600d828154811062000564576200056462000cc6565b600091825260209091200155600d80548062000584576200058462000d24565b60019003818190600052602060002001600090559055620005a9565b600101620004eb565b505b505060010162000448565b50505050565b6001600160a01b0384163b15620002c65760405163f23a6e6160e01b81526001600160a01b0385169063f23a6e619062000603908990899088908890889060040162000d68565b6020604051808303816000875af192505050801562000641575060408051601f3d908101601f191682019092526200063e9181019062000daf565b60015b620006af573d80801562000672576040519150601f19603f3d011682016040523d82523d6000602084013e62000677565b606091505b508051600003620006a757604051632bfa23e760e11b81526001600160a01b03861660048201526024016200008c565b805181602001fd5b6001600160e01b0319811663f23a6e6160e01b14620006ed57604051632bfa23e760e11b81526001600160a01b03861660048201526024016200008c565b50505050505050565b6001600160a01b0384163b15620002c65760405163bc197c8160e01b81526001600160a01b0385169063bc197c81906200073d908990899088908890889060040162000e20565b6020604051808303816000875af19250505080156200077b575060408051601f3d908101601f19168201909252620007789181019062000daf565b60015b620007ac573d80801562000672576040519150601f19603f3d011682016040523d82523d6000602084013e62000677565b6001600160e01b0319811663bc197c8160e01b14620006ed57604051632bfa23e760e11b81526001600160a01b03861660048201526024016200008c565b80518251146200081b5781518151604051635b05999160e01b8152600481019290925260248201526044016200008c565b3360005b83518110156200092f576020818102858101820151908501909101516001600160a01b03881615620008da5760008281526002602090815260408083206001600160a01b038c16845290915290205481811015620008b1576040516303dee4c560e01b81526001600160a01b038a1660048201526024810182905260448101839052606481018490526084016200008c565b60008381526002602090815260408083206001600160a01b038d16845290915290209082900390555b6001600160a01b03871615620009245760008281526002602090815260408083206001600160a01b038b168452909152812080548392906200091e90849062000cf2565b90915550505b50506001016200081f565b508251600103620009b35760208301516000906020840151909150856001600160a01b0316876001600160a01b0316846001600160a01b03167fc3d58168c5ae7397731d063d5bbf3d657854427343f4c083240f7aacaa2d0f628585604051620009a3929190918252602082015260400190565b60405180910390a450506200032a565b836001600160a01b0316856001600160a01b0316826001600160a01b03167f4a39dc06d4c0dbc64b70af90fd698a233a518aa5d07e595d983b8c0526c8f7fb868660405162000a0492919062000e84565b60405180910390a45050505050565b634e487b7160e01b600052604160045260246000fd5b60005b8381101562000a4657818101518382015260200162000a2c565b50506000910152565b600082601f83011262000a6157600080fd5b81516001600160401b038082111562000a7e5762000a7e62000a13565b604051601f8301601f19908116603f0116810190828211818310171562000aa95762000aa962000a13565b8160405283815286602085880101111562000ac357600080fd5b62000ad684602083016020890162000a29565b9695505050505050565b60008060006060848603121562000af657600080fd5b83516001600160401b038082111562000b0e57600080fd5b62000b1c8783880162000a4f565b9450602086015191508082111562000b3357600080fd5b5062000b428682870162000a4f565b604086015190935090506001600160a01b038116811462000b6257600080fd5b809150509250925092565b600181811c9082168062000b8257607f821691505b60208210810362000ba357634e487b7160e01b600052602260045260246000fd5b50919050565b601f82111562000bf5576000816000526020600020601f850160051c8101602086101562000bd45750805b601f850160051c820191505b81811015620002c65782815560010162000be0565b505050565b81516001600160401b0381111562000c165762000c1662000a13565b62000c2e8162000c27845462000b6d565b8462000ba9565b602080601f83116001811462000c66576000841562000c4d5750858301515b600019600386901b1c1916600185901b178555620002c6565b600085815260208120601f198616915b8281101562000c975788860151825594840194600190910190840162000c76565b508582101562000cb65787850151600019600388901b60f8161c191681555b5050505050600190811b01905550565b634e487b7160e01b600052603260045260246000fd5b634e487b7160e01b600052601160045260246000fd5b8082018082111562000d085762000d0862000cdc565b92915050565b8181038181111562000d085762000d0862000cdc565b634e487b7160e01b600052603160045260246000fd5b6000815180845262000d5481602086016020860162000a29565b601f01601f19169290920160200192915050565b6001600160a01b03868116825285166020820152604081018490526060810183905260a06080820181905260009062000da49083018462000d3a565b979650505050505050565b60006020828403121562000dc257600080fd5b81516001600160e01b03198116811462000ddb57600080fd5b9392505050565b60008151808452602080850194506020840160005b8381101562000e155781518752958201959082019060010162000df7565b509495945050505050565b6001600160a01b0386811682528516602082015260a06040820181905260009062000e4e9083018662000de2565b828103606084015262000e62818662000de2565b9050828103608084015262000e78818562000d3a565b98975050505050505050565b60408152600062000e99604083018562000de2565b828103602084015262000ead818562000de2565b95945050505050565b61329f8062000ec66000396000f3fe608060405234801561001057600080fd5b50600436106101d05760003560e01c8063715018a611610105578063e3ee8a431161009d578063e3ee8a4314610406578063e70cc6aa14610419578063e84171691461042c578063e985e9c51461043b578063f242432a1461044e578063f2fde38b14610461578063f5298aca14610474578063f9b5e26914610487578063fb3ea8f31461049a57600080fd5b8063715018a614610350578063731133e9146103585780637cbfba7b1461036b5780638da5cb5b146103a157806390b667aa146103a95780639b642de1146103bc578063a1e2057b146103cf578063a22cb465146103e2578063b247d946146103f557600080fd5b80633de5b586116101785780633de5b586146102905780634792ea27146102a35780634cd88b76146102b65780634e1273f4146102c95780634e16fc8b146102e9578063556da1b9146102f15780635f997c5b1461030457806367d9e0421461030d5780636f1813181461032057600080fd5b8062fdd58e146101d557806301ffc9a7146101fb57806306fdde031461021e5780630e89341c146102335780630ee2cb101461024657806311f50c851461026057806317d7de7c146102735780632eb2c2d61461027b575b600080fd5b6101e86101e3366004612490565b6104ad565b6040519081526020015b60405180910390f35b61020e6102093660046124d2565b6104d7565b60405190151581526020016101f2565b610226610527565b6040516101f2919061253c565b61022661024136600461254f565b6105b5565b600e546001600160a01b03165b6040516101f29190612568565b61025361026e36600461254f565b610649565b6102266106b7565b61028e6102893660046126c3565b610749565b005b61028e61029e366004612770565b6107aa565b61020e6102b13660046127d2565b6107ee565b61028e6102c4366004612831565b61094a565b6102dc6102d7366004612894565b610ab7565b6040516101f29190612987565b610226610b83565b61028e6102ff36600461299a565b610b92565b6101e860015481565b61028e61031b366004612770565b610edc565b61028e61032e3660046129bd565b600080546001600160a01b0319166001600160a01b0392909216919091179055565b61028e610f75565b61028e610366366004612770565b610f89565b6101e8610379366004612490565b6001600160a01b03919091166000908152600960209081526040808320938352929052205490565b610253610fa1565b61028e6103b7366004612770565b610f69565b61028e6103ca3660046129da565b610fb0565b61028e6103dd366004612a16565b610fc0565b61028e6103f0366004612a59565b61105d565b6000546001600160a01b0316610253565b61028e61041436600461254f565b611068565b61020e610427366004612770565b6111e6565b60036040516101f29190612abc565b61020e610449366004612aca565b611280565b61028e61045c366004612af8565b6112ae565b61028e61046f3660046129bd565b6112fe565b61028e610482366004612a16565b611339565b61020e6104953660046127d2565b611350565b61028e6104a8366004612b54565b6113fb565b60008181526002602090815260408083206001600160a01b03861684529091529020545b92915050565b60006001600160e01b03198216636cdb3d1360e11b148061050857506001600160e01b031982166303a24d0760e21b145b806104d157506301ffc9a760e01b6001600160e01b03198316146104d1565b6007805461053490612b78565b80601f016020809104026020016040519081016040528092919081815260200182805461056090612b78565b80156105ad5780601f10610582576101008083540402835291602001916105ad565b820191906000526020600020905b81548152906001019060200180831161059057829003601f168201915b505050505081565b6060600680546105c490612b78565b80601f01602080910402602001604051908101604052809291908181526020018280546105f090612b78565b801561063d5780601f106106125761010080835404028352916020019161063d565b820191906000526020600020905b81548152906001019060200180831161062057829003601f168201915b50505050509050919050565b600080546040516311f50c8560e01b8152600481018490526001600160a01b03909116906311f50c8590602401602060405180830381865afa158015610693573d6000803e3d6000fd5b505050506040513d601f19601f820116820180604052508101906104d19190612bac565b6060601080546106c690612b78565b80601f01602080910402602001604051908101604052809291908181526020018280546106f290612b78565b801561073f5780601f106107145761010080835404028352916020019161073f565b820191906000526020600020905b81548152906001019060200180831161072257829003601f168201915b5050505050905090565b336001600160a01b038616811480159061076a57506107688682611280565b155b1561079557808660405163711bec9160e11b815260040161078c929190612bc9565b60405180910390fd5b6107a28686868686611406565b505050505050565b6107bd6107b5610fa1565b84848461146d565b6107c5610fa1565b6001600160a01b0316846001600160a01b0316146107e8576107e88484846114b6565b50505050565b60006107fb338686611556565b6040805160c081018252600281526020810187905233818301526001600160a01b038816606082015230608082015260a08101869052905161093d90859061084d908a908a908a908990602401612be3565b60408051601f198184030181529181526020820180516001600160e01b0316631ef2dac360e11b1790525161088c908b908b908b908a90602401612be3565b60408051601f198184030181529181526020820180516001600160e01b0316637386635560e11b179052516108cb9033908c908c908b90602401612be3565b60408051601f198184030181529181526020820180516001600160e01b03166333ecf02160e11b17905251336024820152604481018c9052606481018b905260840160408051601f198184030181529190526020810180516001600160e01b031663a1e2057b60e01b179052866115ad565b5060019695505050505050565b7ff0c57e16840df040f15088dc2f81fe391c3923bec73e23a9662efc9c229c6a008054600160401b810460ff1615906001600160401b031660008115801561098f5750825b90506000826001600160401b031660011480156109ab5750303b155b9050811580156109b9575080155b156109d75760405163f92ee8a960e01b815260040160405180910390fd5b845467ffffffffffffffff191660011785558315610a0157845460ff60401b1916600160401b1785555b6000610a0b611605565b90506000610a1761161d565b9050610a21611634565b6001556006610a308a82612c62565b506007610a3d8982612c62565b50610a4782611648565b600080546001600160a01b0319166001600160a01b0392909216919091179055508315610aae57845460ff60401b19168555604051600181527fc7f505b2f371ae2175ee4913f4499e1f2633a7b5936321eed1cdaeb6115181d29060200160405180910390a15b50505050505050565b60608151835114610ae85781518351604051635b05999160e01b81526004810192909252602482015260440161078c565b600083516001600160401b03811115610b0357610b0361257c565b604051908082528060200260200182016040528015610b2c578160200160208202803683370190505b50905060005b8451811015610b7b57602080820286010151610b56906020808402870101516104ad565b828281518110610b6857610b68612d21565b6020908102919091010152600101610b32565b509392505050565b6060600f80546106c690612b78565b60005460408051631119527160e11b81529051610ed9926001600160a01b031691632232a4e29160048083019260209291908290030181865afa158015610bdd573d6000803e3d6000fd5b505050506040513d601f19601f82011682018060405250810190610c019190612d37565b60005460405163377890a160e11b81526001600160a01b0390911690636ef1214290610c2f90600401612d50565b602060405180830381865afa158015610c4c573d6000803e3d6000fd5b505050506040513d601f19601f82011682018060405250810190610c709190612bac565b60405180610140016040528060078054610c8990612b78565b80601f0160208091040260200160405190810160405280929190818152602001828054610cb590612b78565b8015610d025780601f10610cd757610100808354040283529160200191610d02565b820191906000526020600020905b815481529060010190602001808311610ce557829003601f168201915b5050505050815260200160078054610d1990612b78565b80601f0160208091040260200160405190810160405280929190818152602001828054610d4590612b78565b8015610d925780601f10610d6757610100808354040283529160200191610d92565b820191906000526020600020905b815481529060010190602001808311610d7557829003601f168201915b50505050508152602001610da461169a565b604051602001610db49190612d77565b604051602081830303815290604052815260200160008054906101000a90046001600160a01b03166001600160a01b0316633408e4706040518163ffffffff1660e01b8152600401602060405180830381865afa158015610e19573d6000803e3d6000fd5b505050506040513d601f19601f82011682018060405250810190610e3d9190612d37565b8152602001306001600160a01b0316803b806020016040519081016040528181526000908060200190933c8152602001610e7561179c565b8152600060208201526040016003815260085460ff90811615156020830152861660409182015251610eaa9190602401612dce565b60408051601f198184030181529190526020810180516001600160e01b0316638b55462d60e01b1790526117e2565b50565b6000546040516333932be560e11b81526001600160a01b039091169063672657ca90610f0c903390600401612568565b602060405180830381865afa158015610f29573d6000803e3d6000fd5b505050506040513d601f19601f82011682018060405250810190610f4d9190612ec0565b610f695760405162461bcd60e51b815260040161078c90612edd565b6107e88484848461146d565b610f7d611859565b610f876000611648565b565b610f958484848461146d565b6107e86001848461188b565b6005546001600160a01b031690565b600f610fbc8282612c62565b5050565b6000546040516333932be560e11b81526001600160a01b039091169063672657ca90610ff0903390600401612568565b602060405180830381865afa15801561100d573d6000803e3d6000fd5b505050506040513d601f19601f820116820180604052508101906110319190612ec0565b61104d5760405162461bcd60e51b815260040161078c90612edd565b611058838383611556565b505050565b610fbc338383611a62565b6000546040516333932be560e11b81526001600160a01b039091169063672657ca90611098903390600401612568565b602060405180830381865afa1580156110b5573d6000803e3d6000fd5b505050506040513d601f19601f820116820180604052508101906110d99190612ec0565b6110f55760405162461bcd60e51b815260040161078c90612edd565b60008054906101000a90046001600160a01b03166001600160a01b0316632232a4e26040518163ffffffff1660e01b8152600401602060405180830381865afa158015611146573d6000803e3d6000fd5b505050506040513d601f19601f8201168201806040525081019061116a9190612d37565b611172611af8565b146111d95760405162461bcd60e51b815260206004820152603160248201527f54686973206d6574686f64206f6e6c7920726563656976652063616c6c7320666044820152703937b69031b7b6b6b4ba1031b430b4b71760791b606482015260840161078c565b6001819055610ed9611b0c565b60006111f0610fa1565b6001600160a01b0316856001600160a01b031614611275576000611215868686611bd1565b90508061125f5760405162461bcd60e51b815260206004820152601860248201527763616e6e6f7420756e6c6f636b207468652061737365747360401b604482015260640161078c565b61127361126a610fa1565b87878787611ca5565b505b506001949350505050565b6001600160a01b03918216600090815260036020908152604080832093909416825291909152205460ff1690565b336001600160a01b03861681148015906112cf57506112cd8682611280565b155b156112f157808660405163711bec9160e11b815260040161078c929190612bc9565b6107a28686868686611ca5565b611306611859565b6001600160a01b038116611330576000604051631e4fbdf760e01b815260040161078c9190612568565b610ed981611648565b611344838383611556565b6110586000838361188b565b600061135d338686611556565b6040805160c081018252600281526020810187905233818301526001600160a01b038816606082015230608082015260a08101869052905161093d9085906113af908a908a908a908990602401612be3565b60408051601f19818403018152918152602080830180516001600160e01b031663485b33d560e11b179052815190810182526000815290516108cb9033908c908c908b90602401612be3565b61105883838361188b565b6001600160a01b038416611430576000604051632bfa23e760e11b815260040161078c9190612568565b6001600160a01b038516611459576000604051626a0d4560e21b815260040161078c9190612568565b6114668585858585611d12565b5050505050565b6001600160a01b038416611497576000604051632bfa23e760e11b815260040161078c9190612568565b6000806114a48585611d65565b915091506107a2600087848487611d12565b600081116115065760405162461bcd60e51b815260206004820152601d60248201527f416d6f756e74206d7573742062652067726561746572207468616e2030000000604482015260640161078c565b6001600160a01b03831661151957600080fd5b6001600160a01b03831660009081526009602090815260408083208584529091528120805483929061154c908490612f61565b9091555050505050565b6001600160a01b03831661157f576000604051626a0d4560e21b815260040161078c9190612568565b60008061158c8484611d65565b91509150611466856000848460405180602001604052806000815250611d12565b6001546115f45760405162461bcd60e51b81526020600482015260156024820152742a37b5b2b7103737ba103932b3b4b9ba32b932b21760591b604482015260640161078c565b6107a2866001548787878787611d8d565b60006034361061161a575060331936013560601c5b90565b60006048361061161a575060471936013560601c90565b60006020361061161a5750601f1936013590565b600580546001600160a01b038381166001600160a01b0319831681179093556040519116919082907f8be0079c531659141344cd1fd0a4f28419497f9722a3daafe3b4186f6b6457e090600090a35050565b600d546060906000906001600160401b038111156116ba576116ba61257c565b6040519080825280602002602001820160405280156116ff57816020015b60408051808201909152600080825260208201528152602001906001900390816116d85790505b50905060005b600d54811015611796576040518060400160405280600d838154811061172d5761172d612d21565b90600052602060002001548152602001600b6000600d858154811061175457611754612d21565b906000526020600020015481526020019081526020016000205481525082828151811061178357611783612d21565b6020908102919091010152600101611705565b50919050565b6060600660076040516024016117b3929190612ff1565b60408051601f198184030181529190526020810180516001600160e01b031663266c45bb60e11b179052919050565b60005460405163150b375f60e01b81526001600160a01b039091169063150b375f906118169086908690869060040161301f565b6020604051808303816000875af1158015611835573d6000803e3d6000fd5b505050506040513d601f19601f820116820180604052508101906107e89190612d37565b33611862610fa1565b6001600160a01b031614610f87573360405163118cdaa760e01b815260040161078c9190612568565b60015461189757505050565b60005460408051631119527160e11b81529051611058926001600160a01b031691632232a4e29160048083019260209291908290030181865afa1580156118e2573d6000803e3d6000fd5b505050506040513d601f19601f820116820180604052508101906119069190612d37565b60005460405163377890a160e11b81526001600160a01b0390911690636ef121429061193490600401612d50565b602060405180830381865afa158015611951573d6000803e3d6000fd5b505050506040513d601f19601f820116820180604052508101906119759190612bac565b60008054906101000a90046001600160a01b03166001600160a01b0316633408e4706040518163ffffffff1660e01b8152600401602060405180830381865afa1580156119c6573d6000803e3d6000fd5b505050506040513d601f19601f820116820180604052508101906119ea9190612d37565b60015487604051806040016040528089815260200188815250604051602001611a139190613049565b60408051601f1981840301815290829052611a3394939291602401613060565b60408051601f198184030181529190526020810180516001600160e01b031663401c3df160e11b1790526117e2565b6001600160a01b038216611a8b57600060405162ced3e160e81b815260040161078c9190612568565b6001600160a01b03838116600081815260036020908152604080832094871680845294825291829020805460ff191686151590811790915591519182527f17307eab39ab6107e8899845ad3d59bd9653f200f220920489ca2b5937696c31910160405180910390a3505050565b60006034361061161a575060331936013590565b600154611b6d5760405162461bcd60e51b815260206004820152602960248201527f4f6e6c79207265676973746572207265736f75726365207768656e206974277360448201526808185c1c1c9bdd995960ba1b606482015260840161078c565b60005460015460405163d4f951c760e01b815260048101919091523060248201526001600160a01b039091169063d4f951c790604401600060405180830381600087803b158015611bbd57600080fd5b505af11580156107e8573d6000803e3d6000fd5b60006001600160a01b038416611be657600080fd5b6001600160a01b03841660009081526009602090815260408083208684529091529020548215801590611c195750808311155b611c625760405162461bcd60e51b815260206004820152601a6024820152794e6f7420656e6f7567682066756e647320746f20756e6c6f636b60301b604482015260640161078c565b6001600160a01b038516600090815260096020908152604080832087845290915281208054859290611c95908490613095565b9091555060019695505050505050565b6001600160a01b038416611ccf576000604051632bfa23e760e11b815260040161078c9190612568565b6001600160a01b038516611cf8576000604051626a0d4560e21b815260040161078c9190612568565b600080611d058585611d65565b91509150610aae87878484875b611d1e85858585611e16565b6001600160a01b038416156114665782513390600103611d575760208481015190840151611d5083898985858961206f565b50506107a2565b6107a2818787878787612181565b6040805160018082526020820194909452808201938452606081019290925260808201905291565b600054604051631075c5d160e21b81526001600160a01b03909116906341d7174490611dc9908a908a908a908a908a908a908a906004016130a8565b6020604051808303816000875af1158015611de8573d6000803e3d6000fd5b505050506040513d601f19601f82011682018060405250810190611e0c9190612d37565b5050505050505050565b611e2284848484612261565b6001600160a01b038416611f0d5760005b8251811015611f0b576000838281518110611e5057611e50612d21565b602002602001015190506000838381518110611e6e57611e6e612d21565b6020026020010151905080600b60008481526020019081526020016000206000828254611e9b9190612f61565b90915550506000828152600c602052604090205460ff16611f0157600d805460018181019092557fd7b6990105719101dabeb77144f2a3385c8033acd3af97e9423a695e81ad1eb5018390556000838152600c60205260409020805460ff191690911790555b5050600101611e33565b505b6001600160a01b0383166107e85760005b8251811015611466576000838281518110611f3b57611f3b612d21565b602002602001015190506000838381518110611f5957611f59612d21565b6020026020010151905080600b60008481526020019081526020016000206000828254611f869190613095565b90915550506000828152600b60205260408120549003612065576000828152600c60205260408120805460ff191690555b600d548110156120635782600d8281548110611fd557611fd5612d21565b90600052602060002001540361205b57600d8054611ff590600190613095565b8154811061200557612005612d21565b9060005260206000200154600d828154811061202357612023612d21565b600091825260209091200155600d8054806120405761204061316e565b60019003818190600052602060002001600090559055612063565b600101611fb7565b505b5050600101611f1e565b6001600160a01b0384163b156107a25760405163f23a6e6160e01b81526001600160a01b0385169063f23a6e61906120b39089908990889088908890600401613184565b6020604051808303816000875af19250505080156120ee575060408051601f3d908101601f191682019092526120eb918101906131c9565b60015b61214e573d80801561211c576040519150601f19603f3d011682016040523d82523d6000602084013e612121565b606091505b5080516000036121465784604051632bfa23e760e11b815260040161078c9190612568565b805181602001fd5b6001600160e01b0319811663f23a6e6160e01b14610aae5784604051632bfa23e760e11b815260040161078c9190612568565b6001600160a01b0384163b156107a25760405163bc197c8160e01b81526001600160a01b0385169063bc197c81906121c590899089908890889088906004016131e6565b6020604051808303816000875af1925050508015612200575060408051601f3d908101601f191682019092526121fd918101906131c9565b60015b61222e573d80801561211c576040519150601f19603f3d011682016040523d82523d6000602084013e612121565b6001600160e01b0319811663bc197c8160e01b14610aae5784604051632bfa23e760e11b815260040161078c9190612568565b80518251146122905781518151604051635b05999160e01b81526004810192909252602482015260440161078c565b3360005b835181101561239c576020818102858101820151908501909101516001600160a01b0388161561234b5760008281526002602090815260408083206001600160a01b038c16845290915290205481811015612322576040516303dee4c560e01b81526001600160a01b038a16600482015260248101829052604481018390526064810184905260840161078c565b60008381526002602090815260408083206001600160a01b038d16845290915290209082900390555b6001600160a01b038716156123925760008281526002602090815260408083206001600160a01b038b1684529091528120805483929061238c908490612f61565b90915550505b5050600101612294565b50825160010361241d5760208301516000906020840151909150856001600160a01b0316876001600160a01b0316846001600160a01b03167fc3d58168c5ae7397731d063d5bbf3d657854427343f4c083240f7aacaa2d0f62858560405161240e929190918252602082015260400190565b60405180910390a45050611466565b836001600160a01b0316856001600160a01b0316826001600160a01b03167f4a39dc06d4c0dbc64b70af90fd698a233a518aa5d07e595d983b8c0526c8f7fb868660405161246c929190613244565b60405180910390a45050505050565b6001600160a01b0381168114610ed957600080fd5b600080604083850312156124a357600080fd5b82356124ae8161247b565b946020939093013593505050565b6001600160e01b031981168114610ed957600080fd5b6000602082840312156124e457600080fd5b81356124ef816124bc565b9392505050565b6000815180845260005b8181101561251c57602081850181015186830182015201612500565b506000602082860101526020601f19601f83011685010191505092915050565b6020815260006124ef60208301846124f6565b60006020828403121561256157600080fd5b5035919050565b6001600160a01b0391909116815260200190565b634e487b7160e01b600052604160045260246000fd5b604051601f8201601f191681016001600160401b03811182821017156125ba576125ba61257c565b604052919050565b60006001600160401b038211156125db576125db61257c565b5060051b60200190565b600082601f8301126125f657600080fd5b8135602061260b612606836125c2565b612592565b8083825260208201915060208460051b87010193508684111561262d57600080fd5b602086015b848110156126495780358352918301918301612632565b509695505050505050565b600082601f83011261266557600080fd5b81356001600160401b0381111561267e5761267e61257c565b612691601f8201601f1916602001612592565b8181528460208386010111156126a657600080fd5b816020850160208301376000918101602001919091529392505050565b600080600080600060a086880312156126db57600080fd5b85356126e68161247b565b945060208601356126f68161247b565b935060408601356001600160401b038082111561271257600080fd5b61271e89838a016125e5565b9450606088013591508082111561273457600080fd5b61274089838a016125e5565b9350608088013591508082111561275657600080fd5b5061276388828901612654565b9150509295509295909350565b6000806000806080858703121561278657600080fd5b84356127918161247b565b9350602085013592506040850135915060608501356001600160401b038111156127ba57600080fd5b6127c687828801612654565b91505092959194509250565b600080600080600060a086880312156127ea57600080fd5b85356127f58161247b565b945060208601359350604086013592506060860135915060808601356001600160401b0381111561282557600080fd5b61276388828901612654565b6000806040838503121561284457600080fd5b82356001600160401b038082111561285b57600080fd5b61286786838701612654565b9350602085013591508082111561287d57600080fd5b5061288a85828601612654565b9150509250929050565b600080604083850312156128a757600080fd5b82356001600160401b03808211156128be57600080fd5b818501915085601f8301126128d257600080fd5b813560206128e2612606836125c2565b82815260059290921b8401810191818101908984111561290157600080fd5b948201945b838610156129285785356129198161247b565b82529482019490820190612906565b9650508601359250508082111561293e57600080fd5b5061288a858286016125e5565b60008151808452602080850194506020840160005b8381101561297c57815187529582019590820190600101612960565b509495945050505050565b6020815260006124ef602083018461294b565b6000602082840312156129ac57600080fd5b813560ff811681146124ef57600080fd5b6000602082840312156129cf57600080fd5b81356124ef8161247b565b6000602082840312156129ec57600080fd5b81356001600160401b03811115612a0257600080fd5b612a0e84828501612654565b949350505050565b600080600060608486031215612a2b57600080fd5b8335612a368161247b565b95602085013595506040909401359392505050565b8015158114610ed957600080fd5b60008060408385031215612a6c57600080fd5b8235612a778161247b565b91506020830135612a8781612a4b565b809150509250929050565b634e487b7160e01b600052602160045260246000fd5b60068110612ab857612ab8612a92565b9052565b602081016104d18284612aa8565b60008060408385031215612add57600080fd5b8235612ae88161247b565b91506020830135612a878161247b565b600080600080600060a08688031215612b1057600080fd5b8535612b1b8161247b565b94506020860135612b2b8161247b565b9350604086013592506060860135915060808601356001600160401b0381111561282557600080fd5b600080600060608486031215612b6957600080fd5b833560028110612a3657600080fd5b600181811c90821680612b8c57607f821691505b60208210810361179657634e487b7160e01b600052602260045260246000fd5b600060208284031215612bbe57600080fd5b81516124ef8161247b565b6001600160a01b0392831681529116602082015260400190565b60018060a01b0385168152836020820152826040820152608060608201526000612c1060808301846124f6565b9695505050505050565b601f821115611058576000816000526020600020601f850160051c81016020861015612c435750805b601f850160051c820191505b818110156107a257828155600101612c4f565b81516001600160401b03811115612c7b57612c7b61257c565b612c8f81612c898454612b78565b84612c1a565b602080601f831160018114612cc45760008415612cac5750858301515b600019600386901b1c1916600185901b1785556107a2565b600085815260208120601f198616915b82811015612cf357888601518255948401946001909101908401612cd4565b5085821015612d115787850151600019600388901b60f8161c191681555b5050505050600190811b01905550565b634e487b7160e01b600052603260045260246000fd5b600060208284031215612d4957600080fd5b5051919050565b6020808252600d908201526c546f6b656e526567697374727960981b604082015260600190565b602080825282518282018190526000919060409081850190868401855b82811015612dc157612db184835180518252602090810151910152565b9284019290850190600101612d94565b5091979650505050505050565b6020815260008251610140806020850152612ded6101608501836124f6565b91506020850151601f1980868503016040870152612e0b84836124f6565b93506040870151915080868503016060870152612e2884836124f6565b93506060870151608087015260808701519150808685030160a0870152612e4f84836124f6565b935060a08701519150808685030160c087015250612e6d83826124f6565b92505060c0850151612e8360e086018215159052565b5060e0850151610100612e9881870183612aa8565b8601519050610120612ead8682018315159052565b9095015160ff1693019290925250919050565b600060208284031215612ed257600080fd5b81516124ef81612a4b565b60208082526048908201527f5468697320697320612072656365697665206d6574686f642e204f6e6c79206560408201527f6e64706f696e742773206578656375746f722063616e2063616c6c20746869736060820152671036b2ba3437b21760c11b608082015260a00190565b634e487b7160e01b600052601160045260246000fd5b808201808211156104d1576104d1612f4b565b60008154612f8181612b78565b808552602060018381168015612f9e5760018114612fb857612fe6565b60ff1985168884015283151560051b880183019550612fe6565b866000528260002060005b85811015612fde5781548a8201860152908301908401612fc3565b890184019650505b505050505092915050565b6040815260006130046040830185612f74565b82810360208401526130168185612f74565b95945050505050565b8381526001600160a01b0383166020820152606060408201819052600090613016908301846124f6565b8151815260208083015190820152604081016104d1565b84815283602082015260006002841061307b5761307b612a92565b83604083015260806060830152612c1060808301846124f6565b818103818111156104d1576104d1612f4b565b60006101808983528860208401528060408401526130c8818401896124f6565b905082810360608401526130dc81886124f6565b905082810360808401526130f081876124f6565b905082810360a084015261310481866124f6565b91505082516005811061311957613119612a92565b60c0830152602083015160e083015260408301516001600160a01b039081166101008401526060840151811661012084015260808401511661014083015260a090920151610160909101529695505050505050565b634e487b7160e01b600052603160045260246000fd5b6001600160a01b03868116825285166020820152604081018490526060810183905260a0608082018190526000906131be908301846124f6565b979650505050505050565b6000602082840312156131db57600080fd5b81516124ef816124bc565b6001600160a01b0386811682528516602082015260a0604082018190526000906132129083018661294b565b8281036060840152613224818661294b565b9050828103608084015261323881856124f6565b98975050505050505050565b604081526000613257604083018561294b565b8281036020840152613016818561294b56fea26469706673582212203f20f945ff009af450a87cee09cecae190a46578732296d4d584eb8bb8cef34b64736f6c63430008180033",
  "linkReferences": {},
  "deployedLinkReferences": {}
}