{
  "_format": "hh-sol-artifact-1",
  "contractName": "RaylsDvpSettlement",
  "sourceName": "src/dvp/DvpSettlement.sol",
  "abi": [
    {
      "anonymous": false,
      "inputs": [
        {
          "indexed": true,
          "internalType": "uint256",
          "name": "settlementId",
          "type": "uint256"
        },
        {
          "indexed": true,
          "internalType": "address",
          "name": "executor",
          "type": "address"
        }
      ],
      "name": "SettlementExecuted",
      "type": "event"
    },
    {
      "anonymous": false,
      "inputs": [
        {
          "indexed": true,
          "internalType": "uint256",
          "name": "settlementId",
          "type": "uint256"
        }
      ],
      "name": "SettlementExpired",
      "type": "event"
    },
    {
      "anonymous": false,
      "inputs": [
        {
          "indexed": true,
          "internalType": "uint256",
          "name": "settlementId",
          "type": "uint256"
        },
        {
          "components": [
            {
              "internalType": "address",
              "name": "creator",
              "type": "address"
            },
            {
              "components": [
                {
                  "internalType": "enum RaylsDvpSettlement.AssetType",
                  "name": "assetType",
                  "type": "uint8"
                },
                {
                  "internalType": "address",
                  "name": "tokenAddress",
                  "type": "address"
                },
                {
                  "internalType": "uint256",
                  "name": "amount",
                  "type": "uint256"
                },
                {
                  "internalType": "uint256",
                  "name": "tokenId",
                  "type": "uint256"
                }
              ],
              "internalType": "struct RaylsDvpSettlement.Asset",
              "name": "creatorAsset",
              "type": "tuple"
            },
            {
              "internalType": "address",
              "name": "creatorBeneficiary",
              "type": "address"
            },
            {
              "internalType": "address",
              "name": "counterparty",
              "type": "address"
            },
            {
              "components": [
                {
                  "internalType": "enum RaylsDvpSettlement.AssetType",
                  "name": "assetType",
                  "type": "uint8"
                },
                {
                  "internalType": "address",
                  "name": "tokenAddress",
                  "type": "address"
                },
                {
                  "internalType": "uint256",
                  "name": "amount",
                  "type": "uint256"
                },
                {
                  "internalType": "uint256",
                  "name": "tokenId",
                  "type": "uint256"
                }
              ],
              "internalType": "struct RaylsDvpSettlement.Asset",
              "name": "counterpartyAsset",
              "type": "tuple"
            },
            {
              "internalType": "uint256",
              "name": "expirationDate",
              "type": "uint256"
            },
            {
              "internalType": "enum RaylsDvpSettlement.SettlementStatus",
              "name": "status",
              "type": "uint8"
            }
          ],
          "indexed": false,
          "internalType": "struct RaylsDvpSettlement.Settlement",
          "name": "settlement",
          "type": "tuple"
        }
      ],
      "name": "SettlementInitialized",
      "type": "event"
    },
    {
      "inputs": [
        {
          "components": [
            {
              "internalType": "enum RaylsDvpSettlement.AssetType",
              "name": "assetType",
              "type": "uint8"
            },
            {
              "internalType": "address",
              "name": "tokenAddress",
              "type": "address"
            },
            {
              "internalType": "uint256",
              "name": "amount",
              "type": "uint256"
            },
            {
              "internalType": "uint256",
              "name": "tokenId",
              "type": "uint256"
            }
          ],
          "internalType": "struct RaylsDvpSettlement.Asset",
          "name": "creatorAsset",
          "type": "tuple"
        },
        {
          "internalType": "address",
          "name": "creatorBeneficiary",
          "type": "address"
        },
        {
          "internalType": "address",
          "name": "counterparty",
          "type": "address"
        },
        {
          "components": [
            {
              "internalType": "enum RaylsDvpSettlement.AssetType",
              "name": "assetType",
              "type": "uint8"
            },
            {
              "internalType": "address",
              "name": "tokenAddress",
              "type": "address"
            },
            {
              "internalType": "uint256",
              "name": "amount",
              "type": "uint256"
            },
            {
              "internalType": "uint256",
              "name": "tokenId",
              "type": "uint256"
            }
          ],
          "internalType": "struct RaylsDvpSettlement.Asset",
          "name": "counterpartyAsset",
          "type": "tuple"
        },
        {
          "internalType": "uint256",
          "name": "expirationDate",
          "type": "uint256"
        }
      ],
      "name": "createSettlement",
      "outputs": [],
      "stateMutability": "nonpayable",
      "type": "function"
    },
    {
      "inputs": [
        {
          "internalType": "uint256",
          "name": "settlementId",
          "type": "uint256"
        }
      ],
      "name": "executeSettlement",
      "outputs": [],
      "stateMutability": "nonpayable",
      "type": "function"
    },
    {
      "inputs": [
        {
          "internalType": "uint256",
          "name": "settlementId",
          "type": "uint256"
        }
      ],
      "name": "expireSettlement",
      "outputs": [],
      "stateMutability": "nonpayable",
      "type": "function"
    },
    {
      "inputs": [],
      "name": "lastSettlementId",
      "outputs": [
        {
          "internalType": "uint256",
          "name": "",
          "type": "uint256"
        }
      ],
      "stateMutability": "view",
      "type": "function"
    },
    {
      "inputs": [
        {
          "internalType": "uint256",
          "name": "",
          "type": "uint256"
        }
      ],
      "name": "settlements",
      "outputs": [
        {
          "internalType": "address",
          "name": "creator",
          "type": "address"
        },
        {
          "components": [
            {
              "internalType": "enum RaylsDvpSettlement.AssetType",
              "name": "assetType",
              "type": "uint8"
            },
            {
              "internalType": "address",
              "name": "tokenAddress",
              "type": "address"
            },
            {
              "internalType": "uint256",
              "name": "amount",
              "type": "uint256"
            },
            {
              "internalType": "uint256",
              "name": "tokenId",
              "type": "uint256"
            }
          ],
          "internalType": "struct RaylsDvpSettlement.Asset",
          "name": "creatorAsset",
          "type": "tuple"
        },
        {
          "internalType": "address",
          "name": "creatorBeneficiary",
          "type": "address"
        },
        {
          "internalType": "address",
          "name": "counterparty",
          "type": "address"
        },
        {
          "components": [
            {
              "internalType": "enum RaylsDvpSettlement.AssetType",
              "name": "assetType",
              "type": "uint8"
            },
            {
              "internalType": "address",
              "name": "tokenAddress",
              "type": "address"
            },
            {
              "internalType": "uint256",
              "name": "amount",
              "type": "uint256"
            },
            {
              "internalType": "uint256",
              "name": "tokenId",
              "type": "uint256"
            }
          ],
          "internalType": "struct RaylsDvpSettlement.Asset",
          "name": "counterpartyAsset",
          "type": "tuple"
        },
        {
          "internalType": "uint256",
          "name": "expirationDate",
          "type": "uint256"
        },
        {
          "internalType": "enum RaylsDvpSettlement.SettlementStatus",
          "name": "status",
          "type": "uint8"
        }
      ],
      "stateMutability": "view",
      "type": "function"
    }
  ],
  "bytecode": "0x608060405234801561001057600080fd5b506111d8806100206000396000f3fe608060405234801561001057600080fd5b50600436106100575760003560e01c806308df7dc81461005c57806322761cca1461008b57806339598fae146100a057806383c0b8ac146100b7578063f696c136146100ca575b600080fd5b61006f61006a366004610e50565b6100dd565b6040516100829796959493929190610ed6565b60405180910390f35b61009e610099366004610e50565b6101fe565b005b6100a960005481565b604051908152602001610082565b61009e6100c5366004610e50565b610352565b61009e6100d8366004610fd5565b610761565b600160208190526000918252604091829020805483516080810190945281830180546001600160a01b039092169492939091839160ff9091169081111561012657610126610e69565b600181111561013757610137610e69565b815281546001600160a01b03610100909104811660208301526001808401546040808501919091526002909401546060909301929092526004850154600586015484516080810190955260068701805496979284169691909316949193919291839160ff16908111156101ac576101ac610e69565b60018111156101bd576101bd610e69565b8152815461010090046001600160a01b03166020820152600182015460408201526002909101546060909101526009820154600a9092015490919060ff1687565b600081815260016020819052604090912090600a82015460ff16600381111561022957610229610e69565b1461029e5760405162461bcd60e51b815260206004820152603a60248201527f447650536574746c656d656e742e657870697265536574746c656d656e743a2060448201527914d1551513115351539517d393d517d25392551250531256915160321b60648201526084015b60405180910390fd5b428160090154106103145760405162461bcd60e51b815260206004820152603a60248201527f447650536574746c656d656e742e657870697265536574746c656d656e743a2060448201527914d1551513115351539517d393d517d6515517d156141254915160321b6064820152608401610295565b600a8101805460ff1916600317905560405182907fb225d3ed70d8e9aba9eff208c9b1d055ec421670b5037f3f1b3b3a7bd923efac90600090a25050565b600081815260016020819052604090912090600a82015460ff16600381111561037d5761037d610e69565b146103dc5760405162461bcd60e51b815260206004820152603b602482015260008051602061116383398151915260448201527a0814d1551513115351539517d393d517d253925512505312569151602a1b6064820152608401610295565b428160090154116104395760405162461bcd60e51b815260206004820152603360248201526000805160206111638339815191526044820152720814d1551513115351539517d1561412549151606a1b6064820152608401610295565b60058101546001600160a01b0316158061045f575060058101546001600160a01b031633145b6104b65760405162461bcd60e51b81526020600482015260346024820152600080516020611163833981519152604482015273102aa720aaaa2427a924ad22a22fa9a2a72222a960611b6064820152608401610295565b60048101546000906001600160a01b0316156104df5760048201546001600160a01b03166104eb565b81546001600160a01b03165b60058301549091506000906001600160a01b0316156105175760058301546001600160a01b0316610519565b335b600a8401805460ff1916600217905560018085015491925060009160ff169081111561054757610547610e69565b0361057b57600183015483546002850154610576926001600160a01b0361010090910481169216908490610cf6565b610624565b60018381015460ff168181111561059457610594610e69565b036105c8576001830154835460038501546002860154610576936001600160a01b0361010090910481169316918591610dca565b60405162461bcd60e51b815260206004820152603f602482015260008051602061116383398151915260448201527f20494e56414c49445f41535345545f5459504520666f722063726561746f72006064820152608401610295565b6000600684015460ff16600181111561063f5761063f610e69565b0361066f576006830154600784015461066a9161010090046001600160a01b03169083908590610cf6565b610725565b6001600684015460ff16600181111561068a5761068a610e69565b036106bb5760068301546008840154600785015461066a9261010090046001600160a01b0316918491869190610dca565b60405162461bcd60e51b815260206004820152604460248201819052600080516020611163833981519152908201527f20494e56414c49445f41535345545f5459504520666f7220636f756e746572706064820152636172747960e01b608482015260a401610295565b6040516001600160a01b0382169085907ff059ff22963b773739a912cc5c0f2f358be1a072c66ba18e2c31e503fd01219590600090a350505050565b4281116107be5760405162461bcd60e51b81526020600482015260376024820152600080516020611183833981519152604482015276494e56414c49445f45585049524154494f4e5f4441544560481b6064820152608401610295565b6000196000541061081d5760405162461bcd60e51b815260206004820152603560248201526000805160206111838339815191526044820152741253959053125117d4d1551513115351539517d251605a1b6064820152608401610295565b60008054908061082c83611035565b909155505060008054815260016020819052604090912080546001600160a01b031916331781558651818301805492938993919291839160ff1990911690838181111561087b5761087b610e69565b021790555060208201518154610100600160a81b0319166101006001600160a01b039283160217825560408301516001808401919091556060909301516002909201919091556004830180546001600160a01b03199081168984161790915560058401805490911691871691909117905583516006830180548693919291839160ff191690838181111561091157610911610e69565b0217905550602082015181546001600160a01b0390911661010002610100600160a81b0319909116178155604082015160018083019190915560609092015160029091015560098201839055600a8201805460ff191682179055865160009181111561097f5761097f610e69565b03610b3357604080870151602088015183549251636eb1769f60e11b815291926001600160a01b039182169263dd62ed3e926109c1921690309060040161105c565b602060405180830381865afa1580156109de573d6000803e3d6000fd5b505050506040513d601f19601f82011682018060405250810190610a029190611076565b1015610a5d5760405162461bcd60e51b81526020600482015260366024820152600080516020611183833981519152604482015275494e53554646494349454e545f414c4c4f57414e434560501b6064820152608401610295565b6040868101516020880151835492516370a0823160e01b81526001600160a01b039384166004820152919216906370a08231906024015b602060405180830381865afa158015610ab1573d6000803e3d6000fd5b505050506040513d601f19601f82011682018060405250810190610ad59190611076565b1015610b2e5760405162461bcd60e51b81526020600482015260346024820152600080516020611183833981519152604482015273494e53554646494349454e545f42414c414e434560601b6064820152608401610295565b610cb4565b600186516001811115610b4857610b48610e69565b03610c63576020860151815460405163e985e9c560e01b81526001600160a01b039283169263e985e9c592610b8492911690309060040161105c565b602060405180830381865afa158015610ba1573d6000803e3d6000fd5b505050506040513d601f19601f82011682018060405250810190610bc5919061108f565b610c1c5760405162461bcd60e51b815260206004820152603460248201526000805160206111838339815191526044820152731393d517d054141493d5915117d193d497d0531360621b6064820152608401610295565b6040868101516020880151835460608a01519351627eeac760e11b81526001600160a01b0391821660048201526024810194909452919291169062fdd58e90604401610a94565b60405162461bcd60e51b81526020600482015260326024820152600080516020611183833981519152604482015271494e56414c49445f41535345545f5459504560701b6064820152608401610295565b6000547f394ae7ad50efbe3fda758d92275769d87e90f5de13f3aee0ba92940209227e1b82604051610ce691906110ee565b60405180910390a2505050505050565b6040516323b872dd60e01b81526001600160a01b0384811660048301528381166024830152604482018390528516906323b872dd906064016020604051808303816000875af1158015610d4d573d6000803e3d6000fd5b505050506040513d601f19601f82011682018060405250810190610d71919061108f565b610dc45760405162461bcd60e51b8152602060048201526030602482015260008051602061116383398151915260448201526f081514905394d1915497d1905253115160821b6064820152608401610295565b50505050565b604051637921219560e11b81526001600160a01b0385811660048301528481166024830152604482018490526064820183905260a06084830152600060a483015286169063f242432a9060c401600060405180830381600087803b158015610e3157600080fd5b505af1158015610e45573d6000803e3d6000fd5b505050505050505050565b600060208284031215610e6257600080fd5b5035919050565b634e487b7160e01b600052602160045260246000fd5b60028110610e8f57610e8f610e69565b9052565b610e9e828251610e7f565b6020818101516001600160a01b03169083015260408082015190830152606090810151910152565b60048110610e8f57610e8f610e69565b6001600160a01b0388811682526101a0820190610ef6602084018a610e93565b87811660a0840152861660c0830152610f1260e0830186610e93565b83610160830152610f27610180830184610ec6565b98975050505050505050565b80356001600160a01b0381168114610f4a57600080fd5b919050565b600060808284031215610f6157600080fd5b6040516080810181811067ffffffffffffffff82111715610f9257634e487b7160e01b600052604160045260246000fd5b604052905080823560028110610fa757600080fd5b8152610fb560208401610f33565b602082015260408301356040820152606083013560608201525092915050565b60008060008060006101608688031215610fee57600080fd5b610ff88787610f4f565b945061100660808701610f33565b935061101460a08701610f33565b92506110238760c08801610f4f565b94979396509194610140013592915050565b60006001820161105557634e487b7160e01b600052601160045260246000fd5b5060010190565b6001600160a01b0392831681529116602082015260400190565b60006020828403121561108857600080fd5b5051919050565b6000602082840312156110a157600080fd5b815180151581146110b157600080fd5b9392505050565b80546110c78360ff8316610e7f565b60081c6001600160a01b031660208301526001810154604083015260020154606090910152565b81546001600160a01b0390811682526101a082019061111360208401600186016110b8565b6004840154811660a084015260058401541660c083015261113a60e08301600685016110b8565b600983015461016083015260ff600a8401541661115b610180840182610ec6565b509291505056fe447650536574746c656d656e742e65786563757465536574746c656d656e743a447650536574746c656d656e742e637265617465536574746c656d656e743a20a264697066735822122068f11452190725357dfd482c4c897dce8c77d27c2cf93982e043379be896da3964736f6c63430008180033",
  "linkReferences": {},
  "deployedLinkReferences": {}
}