{
  "_format": "hh-sol-artifact-1",
  "contractName": "ArbitraryCallable",
  "sourceName": "src/rayls-protocol/test-contracts/ArbitraryCallable.sol",
  "abi": [
    {
      "inputs": [],
      "stateMutability": "nonpayable",
      "type": "constructor"
    },
    {
      "anonymous": false,
      "inputs": [
        {
          "indexed": false,
          "internalType": "bytes[]",
          "name": "payload",
          "type": "bytes[]"
        }
      ],
      "name": "ArbitraryCallableEvent",
      "type": "event"
    },
    {
      "anonymous": false,
      "inputs": [
        {
          "components": [
            {
              "internalType": "bytes32",
              "name": "resourceId",
              "type": "bytes32"
            },
            {
              "internalType": "address",
              "name": "contractAddress",
              "type": "address"
            },
            {
              "internalType": "bytes",
              "name": "payload",
              "type": "bytes"
            }
          ],
          "indexed": false,
          "internalType": "struct SharedObjects.EnygmaCrossTransferCallable[][]",
          "name": "payload",
          "type": "tuple[][]"
        }
      ],
      "name": "ArbitraryCallableEvent2",
      "type": "event"
    },
    {
      "inputs": [
        {
          "internalType": "bytes32",
          "name": "_destContractRId",
          "type": "bytes32"
        },
        {
          "internalType": "address",
          "name": "contractAddress",
          "type": "address"
        },
        {
          "internalType": "string",
          "name": "msgA",
          "type": "string"
        }
      ],
      "name": "buildReceiveMsgAPayload",
      "outputs": [
        {
          "components": [
            {
              "internalType": "bytes32",
              "name": "resourceId",
              "type": "bytes32"
            },
            {
              "internalType": "address",
              "name": "contractAddress",
              "type": "address"
            },
            {
              "internalType": "bytes",
              "name": "payload",
              "type": "bytes"
            }
          ],
          "internalType": "struct SharedObjects.EnygmaCrossTransferCallable[]",
          "name": "",
          "type": "tuple[]"
        }
      ],
      "stateMutability": "pure",
      "type": "function"
    },
    {
      "inputs": [
        {
          "internalType": "bytes32",
          "name": "rtResourceId",
          "type": "bytes32"
        },
        {
          "internalType": "address[]",
          "name": "_to",
          "type": "address[]"
        },
        {
          "internalType": "uint256[]",
          "name": "_value",
          "type": "uint256[]"
        },
        {
          "internalType": "uint256[]",
          "name": "_toChainId",
          "type": "uint256[]"
        }
      ],
      "name": "doCrossTransfer",
      "outputs": [],
      "stateMutability": "nonpayable",
      "type": "function"
    },
    {
      "inputs": [
        {
          "internalType": "bytes[]",
          "name": "callables_",
          "type": "bytes[]"
        }
      ],
      "name": "execute",
      "outputs": [],
      "stateMutability": "nonpayable",
      "type": "function"
    },
    {
      "inputs": [
        {
          "components": [
            {
              "internalType": "bytes32",
              "name": "resourceId",
              "type": "bytes32"
            },
            {
              "internalType": "address",
              "name": "contractAddress",
              "type": "address"
            },
            {
              "internalType": "bytes",
              "name": "payload",
              "type": "bytes"
            }
          ],
          "internalType": "struct SharedObjects.EnygmaCrossTransferCallable[]",
          "name": "callables_",
          "type": "tuple[]"
        }
      ],
      "name": "executeStruct",
      "outputs": [],
      "stateMutability": "nonpayable",
      "type": "function"
    },
    {
      "inputs": [],
      "name": "getMsgA",
      "outputs": [
        {
          "internalType": "string",
          "name": "",
          "type": "string"
        }
      ],
      "stateMutability": "view",
      "type": "function"
    },
    {
      "inputs": [],
      "name": "getN",
      "outputs": [
        {
          "internalType": "uint256",
          "name": "",
          "type": "uint256"
        }
      ],
      "stateMutability": "view",
      "type": "function"
    },
    {
      "inputs": [
        {
          "internalType": "string",
          "name": "a_",
          "type": "string"
        }
      ],
      "name": "receiveMsgA",
      "outputs": [],
      "stateMutability": "nonpayable",
      "type": "function"
    },
    {
      "inputs": [
        {
          "internalType": "bytes[]",
          "name": "callables_",
          "type": "bytes[]"
        }
      ],
      "name": "test1",
      "outputs": [],
      "stateMutability": "nonpayable",
      "type": "function"
    }
  ],
  "bytecode": "0x600080805560a060405260809081526001906200001d9082620000d9565b503480156200002b57600080fd5b50620001a5565b634e487b7160e01b600052604160045260246000fd5b600181811c908216806200005d57607f821691505b6020821081036200007e57634e487b7160e01b600052602260045260246000fd5b50919050565b601f821115620000d4576000816000526020600020601f850160051c81016020861015620000af5750805b601f850160051c820191505b81811015620000d057828155600101620000bb565b5050505b505050565b81516001600160401b03811115620000f557620000f562000032565b6200010d8162000106845462000048565b8462000084565b602080601f8311600181146200014557600084156200012c5750858301515b600019600386901b1c1916600185901b178555620000d0565b600085815260208120601f198616915b82811015620001765788860151825594840194600190910190840162000155565b5085821015620001955787850151600019600388901b60f8161c191681555b5050505050600190811b01905550565b61103780620001b56000396000f3fe608060405234801561001057600080fd5b50600436106100785760003560e01c806316f3231b1461007d5780633e955225146100a657806344471415146100b75780634976fd7d146100cc578063beb74fb2146100e1578063c7699bcc146100f4578063c88fdf3014610107578063f26352a91461011a575b600080fd5b61009061008b36600461071e565b61012d565b60405161009d91906107d8565b60405180910390f35b60005460405190815260200161009d565b6100ca6100c53660046108ad565b610265565b005b6100d46103b2565b60405161009d91906108ee565b6100ca6100ef36600461099a565b610444565b6100ca6101023660046108ad565b6104c9565b6100ca6101153660046108ad565b610542565b6100ca610128366004610a89565b610658565b6040805160018082528183019092526060919060009082816020015b604080516060808201835260008083526020830152918101919091528152602001906001900390816101495750506040805180820182526013815272726563656976654d73674128737472696e672960681b60208201529051919250907ff26352a94998cafbf5614f761a19d4be37644b6f16a67b5864af9b2d078a60bb9060009082906101db9089906024016108ee565b604051602081830303815290604052906001600160e01b0319166020820180516001600160e01b0383818316178352505050509050600060405180606001604052808b81526020018a6001600160a01b03168152602001838152509050808560008151811061024c5761024c610afa565b6020908102919091010152509298975050505050505050565b60005b818110156103ad57600083838381811061028457610284610afa565b90506020028101906102969190610b10565b8101906102a39190610be9565b905060005b81518110156103a35760008282815181106102c5576102c5610afa565b6020026020010151905060006001600160a01b031681602001516001600160a01b03161461039a57600081602001516001600160a01b031682604001516040516020016103129190610c99565b60408051601f198184030181529082905261032c91610c99565b6000604051808303816000865af19150503d8060008114610369576040519150601f19603f3d011682016040523d82523d6000602084013e61036e565b606091505b50509050806103985760405162461bcd60e51b815260040161038f90610cb5565b60405180910390fd5b505b506001016102a8565b5050600101610268565b505050565b6060600180546103c190610cfe565b80601f01602080910402602001604051908101604052809291908181526020018280546103ed90610cfe565b801561043a5780601f1061040f5761010080835404028352916020019161043a565b820191906000526020600020905b81548152906001019060200180831161041d57829003601f168201915b5050505050905090565b600061047085306040518060400160405280600781526020016674657374696e6760c81b81525061012d565b60408051600180825281830190925291925060009190816020015b606081526020019060019003908161048b57905050905081816000815181106104b6576104b6610afa565b6020026020010181905250505050505050565b7f054127c0a2f7877b70c911d4dce52d0a3237e23d73e781bb9ad00e79fe2c5b3382826040516104fa929190610d61565b60405180910390a160607f9b4466b4fc9b89230dfa71b826d44d3b7d640ba4b49ce0798366aa4666fab10a816040516105339190610dfc565b60405180910390a15060005550565b60005b818110156103ad57600083838381811061056157610561610afa565b90506020028101906105739190610ec9565b61057c90610edf565b805190915060009015610590575030610597565b5060208101515b60208201516001600160a01b03161561064e57600082602001516001600160a01b031683604001516040516020016105cf9190610c99565b60408051601f19818403018152908290526105e991610c99565b6000604051808303816000865af19150503d8060008114610626576040519150601f19603f3d011682016040523d82523d6000602084013e61062b565b606091505b505090508061064c5760405162461bcd60e51b815260040161038f90610cb5565b505b5050600101610545565b60016103ad828483610f41565b80356001600160a01b038116811461067c57600080fd5b919050565b634e487b7160e01b600052604160045260246000fd5b604051601f8201601f191681016001600160401b03811182821017156106bf576106bf610681565b604052919050565b60006001600160401b038311156106e0576106e0610681565b6106f3601f8401601f1916602001610697565b905082815283838301111561070757600080fd5b828260208301376000602084830101529392505050565b60008060006060848603121561073357600080fd5b8335925061074360208501610665565b915060408401356001600160401b0381111561075e57600080fd5b8401601f8101861361076f57600080fd5b61077e868235602084016106c7565b9150509250925092565b60005b838110156107a357818101518382015260200161078b565b50506000910152565b600081518084526107c4816020860160208601610788565b601f01601f19169290920160200192915050565b600060208083018184528085518083526040925060408601915060408160051b87010184880160005b8381101561085457888303603f19018552815180518452878101516001600160a01b0316888501528601516060878501819052610840818601836107ac565b968901969450505090860190600101610801565b509098975050505050505050565b60008083601f84011261087457600080fd5b5081356001600160401b0381111561088b57600080fd5b6020830191508360208260051b85010111156108a657600080fd5b9250929050565b600080602083850312156108c057600080fd5b82356001600160401b038111156108d657600080fd5b6108e285828601610862565b90969095509350505050565b60208152600061090160208301846107ac565b9392505050565b60006001600160401b0382111561092157610921610681565b5060051b60200190565b600082601f83011261093c57600080fd5b8135602061095161094c83610908565b610697565b8083825260208201915060208460051b87010193508684111561097357600080fd5b602086015b8481101561098f5780358352918301918301610978565b509695505050505050565b600080600080608085870312156109b057600080fd5b843593506020808601356001600160401b03808211156109cf57600080fd5b818801915088601f8301126109e357600080fd5b81356109f161094c82610908565b81815260059190911b8301840190848101908b831115610a1057600080fd5b938501935b82851015610a3557610a2685610665565b82529385019390850190610a15565b975050506040880135925080831115610a4d57600080fd5b610a5989848a0161092b565b94506060880135925080831115610a6f57600080fd5b5050610a7d8782880161092b565b91505092959194509250565b60008060208385031215610a9c57600080fd5b82356001600160401b0380821115610ab357600080fd5b818501915085601f830112610ac757600080fd5b813581811115610ad657600080fd5b866020828501011115610ae857600080fd5b60209290920196919550909350505050565b634e487b7160e01b600052603260045260246000fd5b6000808335601e19843603018112610b2757600080fd5b8301803591506001600160401b03821115610b4157600080fd5b6020019150368190038213156108a657600080fd5b600060608284031215610b6857600080fd5b604051606081016001600160401b038282108183111715610b8b57610b8b610681565b8160405282935084358352610ba260208601610665565b60208401526040850135915080821115610bbb57600080fd5b508301601f81018513610bcd57600080fd5b610bdc858235602084016106c7565b6040830152505092915050565b60006020808385031215610bfc57600080fd5b82356001600160401b0380821115610c1357600080fd5b818501915085601f830112610c2757600080fd5b8135610c3561094c82610908565b81815260059190911b83018401908481019088831115610c5457600080fd5b8585015b83811015610c8c57803585811115610c705760008081fd5b610c7e8b89838a0101610b56565b845250918601918601610c58565b5098975050505050505050565b60008251610cab818460208701610788565b9190910192915050565b60208082526029908201527f43726f7373206d696e74206661696c6564207768696c652063616c6c696e672060408201526863616c6c61626c657360b81b606082015260800190565b600181811c90821680610d1257607f821691505b602082108103610d3257634e487b7160e01b600052602260045260246000fd5b50919050565b81835281816020850137506000828201602090810191909152601f909101601f19169091010190565b60208082528181018390526000906040600585901b8401810190840186845b87811015610def57868403603f190183528135368a9003601e19018112610da657600080fd5b890185810190356001600160401b03811115610dc157600080fd5b803603821315610dd057600080fd5b610ddb868284610d38565b955050509184019190840190600101610d80565b5091979650505050505050565b600060208083018184528085518083526040925060408601915060408160051b8701018488016000805b84811015610eba57898403603f19018652825180518086529089019089860190600581901b87018b01855b82811015610ea457888203601f190184528451805183528d8101516001600160a01b03168e8401528c015160608d8401819052610e90818501836107ac565b968f0196958f019593505050600101610e51565b50988b0198965050509288019250600101610e26565b50919998505050505050505050565b60008235605e19833603018112610cab57600080fd5b6000610eeb3683610b56565b92915050565b601f8211156103ad576000816000526020600020601f850160051c81016020861015610f1a5750805b601f850160051c820191505b81811015610f3957828155600101610f26565b505050505050565b6001600160401b03831115610f5857610f58610681565b610f6c83610f668354610cfe565b83610ef1565b6000601f841160018114610fa05760008515610f885750838201355b600019600387901b1c1916600186901b178355610ffa565b600083815260209020601f19861690835b82811015610fd15786850135825560209485019460019092019101610fb1565b5086821015610fee5760001960f88860031b161c19848701351681555b505060018560011b0183555b505050505056fea264697066735822122094c23fa8e9b15b207d3f5b981c380d7212053d13aa61ebb3593769358ceece2f64736f6c63430008180033",
  "linkReferences": {},
  "deployedLinkReferences": {}
}