{
  "_format": "hh-sol-artifact-1",
  "contractName": "Erc20BatchTeleport",
  "sourceName": "src/rayls-protocol/test-contracts/Erc20BatchTeleport.sol",
  "abi": [
    {
      "inputs": [
        {
          "internalType": "string",
          "name": "_name",
          "type": "string"
        },
        {
          "internalType": "string",
          "name": "_symbol",
          "type": "string"
        },
        {
          "internalType": "address",
          "name": "_endpoint",
          "type": "address"
        }
      ],
      "stateMutability": "nonpayable",
      "type": "constructor"
    },
    {
      "inputs": [
        {
          "internalType": "address",
          "name": "spender",
          "type": "address"
        },
        {
          "internalType": "uint256",
          "name": "allowance",
          "type": "uint256"
        },
        {
          "internalType": "uint256",
          "name": "needed",
          "type": "uint256"
        }
      ],
      "name": "ERC20InsufficientAllowance",
      "type": "error"
    },
    {
      "inputs": [
        {
          "internalType": "address",
          "name": "sender",
          "type": "address"
        },
        {
          "internalType": "uint256",
          "name": "balance",
          "type": "uint256"
        },
        {
          "internalType": "uint256",
          "name": "needed",
          "type": "uint256"
        }
      ],
      "name": "ERC20InsufficientBalance",
      "type": "error"
    },
    {
      "inputs": [
        {
          "internalType": "address",
          "name": "approver",
          "type": "address"
        }
      ],
      "name": "ERC20InvalidApprover",
      "type": "error"
    },
    {
      "inputs": [
        {
          "internalType": "address",
          "name": "receiver",
          "type": "address"
        }
      ],
      "name": "ERC20InvalidReceiver",
      "type": "error"
    },
    {
      "inputs": [
        {
          "internalType": "address",
          "name": "sender",
          "type": "address"
        }
      ],
      "name": "ERC20InvalidSender",
      "type": "error"
    },
    {
      "inputs": [
        {
          "internalType": "address",
          "name": "spender",
          "type": "address"
        }
      ],
      "name": "ERC20InvalidSpender",
      "type": "error"
    },
    {
      "inputs": [],
      "name": "InvalidInitialization",
      "type": "error"
    },
    {
      "inputs": [],
      "name": "NotInitializing",
      "type": "error"
    },
    {
      "inputs": [
        {
          "internalType": "address",
          "name": "owner",
          "type": "address"
        }
      ],
      "name": "OwnableInvalidOwner",
      "type": "error"
    },
    {
      "inputs": [
        {
          "internalType": "address",
          "name": "account",
          "type": "address"
        }
      ],
      "name": "OwnableUnauthorizedAccount",
      "type": "error"
    },
    {
      "anonymous": false,
      "inputs": [
        {
          "indexed": true,
          "internalType": "address",
          "name": "owner",
          "type": "address"
        },
        {
          "indexed": true,
          "internalType": "address",
          "name": "spender",
          "type": "address"
        },
        {
          "indexed": false,
          "internalType": "uint256",
          "name": "value",
          "type": "uint256"
        }
      ],
      "name": "Approval",
      "type": "event"
    },
    {
      "anonymous": false,
      "inputs": [
        {
          "indexed": false,
          "internalType": "uint64",
          "name": "version",
          "type": "uint64"
        }
      ],
      "name": "Initialized",
      "type": "event"
    },
    {
      "anonymous": false,
      "inputs": [
        {
          "indexed": true,
          "internalType": "address",
          "name": "previousOwner",
          "type": "address"
        },
        {
          "indexed": true,
          "internalType": "address",
          "name": "newOwner",
          "type": "address"
        }
      ],
      "name": "OwnershipTransferred",
      "type": "event"
    },
    {
      "anonymous": false,
      "inputs": [
        {
          "indexed": true,
          "internalType": "address",
          "name": "from",
          "type": "address"
        },
        {
          "indexed": true,
          "internalType": "address",
          "name": "to",
          "type": "address"
        },
        {
          "indexed": false,
          "internalType": "uint256",
          "name": "value",
          "type": "uint256"
        }
      ],
      "name": "Transfer",
      "type": "event"
    },
    {
      "inputs": [],
      "name": "_getEndpointAddress",
      "outputs": [
        {
          "internalType": "address",
          "name": "",
          "type": "address"
        }
      ],
      "stateMutability": "view",
      "type": "function"
    },
    {
      "inputs": [
        {
          "internalType": "address",
          "name": "_endpoint",
          "type": "address"
        }
      ],
      "name": "_updateEndpoint",
      "outputs": [],
      "stateMutability": "nonpayable",
      "type": "function"
    },
    {
      "inputs": [
        {
          "internalType": "address",
          "name": "owner",
          "type": "address"
        },
        {
          "internalType": "address",
          "name": "spender",
          "type": "address"
        }
      ],
      "name": "allowance",
      "outputs": [
        {
          "internalType": "uint256",
          "name": "",
          "type": "uint256"
        }
      ],
      "stateMutability": "view",
      "type": "function"
    },
    {
      "inputs": [
        {
          "internalType": "address",
          "name": "spender",
          "type": "address"
        },
        {
          "internalType": "uint256",
          "name": "value",
          "type": "uint256"
        }
      ],
      "name": "approve",
      "outputs": [
        {
          "internalType": "bool",
          "name": "",
          "type": "bool"
        }
      ],
      "stateMutability": "nonpayable",
      "type": "function"
    },
    {
      "inputs": [
        {
          "internalType": "address",
          "name": "account",
          "type": "address"
        }
      ],
      "name": "balanceOf",
      "outputs": [
        {
          "internalType": "uint256",
          "name": "",
          "type": "uint256"
        }
      ],
      "stateMutability": "view",
      "type": "function"
    },
    {
      "inputs": [
        {
          "components": [
            {
              "internalType": "address",
              "name": "to",
              "type": "address"
            },
            {
              "internalType": "uint256",
              "name": "value",
              "type": "uint256"
            },
            {
              "internalType": "uint256",
              "name": "chainId",
              "type": "uint256"
            }
          ],
          "internalType": "struct Erc20BatchTeleport.BatchTeleportPayloadRequest[]",
          "name": "_batchTeleportPayloadRequests",
          "type": "tuple[]"
        }
      ],
      "name": "batchTeleport",
      "outputs": [
        {
          "internalType": "bool",
          "name": "",
          "type": "bool"
        }
      ],
      "stateMutability": "nonpayable",
      "type": "function"
    },
    {
      "inputs": [
        {
          "components": [
            {
              "internalType": "address",
              "name": "to",
              "type": "address"
            },
            {
              "internalType": "uint256",
              "name": "value",
              "type": "uint256"
            },
            {
              "internalType": "uint256",
              "name": "chainId",
              "type": "uint256"
            }
          ],
          "internalType": "struct Erc20BatchTeleport.BatchTeleportPayloadRequest[]",
          "name": "_batchTeleportPayloadRequests",
          "type": "tuple[]"
        }
      ],
      "name": "batchTeleportAtomic",
      "outputs": [
        {
          "internalType": "bool",
          "name": "",
          "type": "bool"
        }
      ],
      "stateMutability": "nonpayable",
      "type": "function"
    },
    {
      "inputs": [
        {
          "internalType": "address",
          "name": "from",
          "type": "address"
        },
        {
          "internalType": "uint256",
          "name": "value",
          "type": "uint256"
        }
      ],
      "name": "burn",
      "outputs": [],
      "stateMutability": "nonpayable",
      "type": "function"
    },
    {
      "inputs": [],
      "name": "decimals",
      "outputs": [
        {
          "internalType": "uint8",
          "name": "",
          "type": "uint8"
        }
      ],
      "stateMutability": "view",
      "type": "function"
    },
    {
      "inputs": [
        {
          "internalType": "bytes32",
          "name": "_resourceId",
          "type": "bytes32"
        }
      ],
      "name": "getAddressByResourceId",
      "outputs": [
        {
          "internalType": "address",
          "name": "",
          "type": "address"
        }
      ],
      "stateMutability": "view",
      "type": "function"
    },
    {
      "inputs": [
        {
          "internalType": "address",
          "name": "account",
          "type": "address"
        }
      ],
      "name": "getLockedAmount",
      "outputs": [
        {
          "internalType": "uint256",
          "name": "",
          "type": "uint256"
        }
      ],
      "stateMutability": "view",
      "type": "function"
    },
    {
      "inputs": [
        {
          "internalType": "string",
          "name": "_name",
          "type": "string"
        },
        {
          "internalType": "string",
          "name": "_symbol",
          "type": "string"
        },
        {
          "internalType": "uint8",
          "name": "_decimals",
          "type": "uint8"
        }
      ],
      "name": "initialize",
      "outputs": [],
      "stateMutability": "nonpayable",
      "type": "function"
    },
    {
      "inputs": [
        {
          "internalType": "address",
          "name": "to",
          "type": "address"
        },
        {
          "internalType": "uint256",
          "name": "value",
          "type": "uint256"
        }
      ],
      "name": "mint",
      "outputs": [],
      "stateMutability": "nonpayable",
      "type": "function"
    },
    {
      "inputs": [],
      "name": "name",
      "outputs": [
        {
          "internalType": "string",
          "name": "",
          "type": "string"
        }
      ],
      "stateMutability": "view",
      "type": "function"
    },
    {
      "inputs": [],
      "name": "owner",
      "outputs": [
        {
          "internalType": "address",
          "name": "",
          "type": "address"
        }
      ],
      "stateMutability": "view",
      "type": "function"
    },
    {
      "inputs": [
        {
          "internalType": "bytes32",
          "name": "_resourceId",
          "type": "bytes32"
        }
      ],
      "name": "receiveResourceId",
      "outputs": [],
      "stateMutability": "nonpayable",
      "type": "function"
    },
    {
      "inputs": [
        {
          "internalType": "address",
          "name": "to",
          "type": "address"
        },
        {
          "internalType": "uint256",
          "name": "value",
          "type": "uint256"
        }
      ],
      "name": "receiveTeleport",
      "outputs": [],
      "stateMutability": "nonpayable",
      "type": "function"
    },
    {
      "inputs": [
        {
          "internalType": "address",
          "name": "to",
          "type": "address"
        },
        {
          "internalType": "uint256",
          "name": "value",
          "type": "uint256"
        }
      ],
      "name": "receiveTeleportAtomic",
      "outputs": [],
      "stateMutability": "nonpayable",
      "type": "function"
    },
    {
      "inputs": [],
      "name": "renounceOwnership",
      "outputs": [],
      "stateMutability": "nonpayable",
      "type": "function"
    },
    {
      "inputs": [],
      "name": "resourceId",
      "outputs": [
        {
          "internalType": "bytes32",
          "name": "",
          "type": "bytes32"
        }
      ],
      "stateMutability": "view",
      "type": "function"
    },
    {
      "inputs": [
        {
          "internalType": "uint256",
          "name": "value",
          "type": "uint256"
        }
      ],
      "name": "revertTeleportBurn",
      "outputs": [],
      "stateMutability": "nonpayable",
      "type": "function"
    },
    {
      "inputs": [
        {
          "internalType": "address",
          "name": "to",
          "type": "address"
        },
        {
          "internalType": "uint256",
          "name": "value",
          "type": "uint256"
        }
      ],
      "name": "revertTeleportMint",
      "outputs": [],
      "stateMutability": "nonpayable",
      "type": "function"
    },
    {
      "inputs": [
        {
          "internalType": "uint8",
          "name": "_storageSlot",
          "type": "uint8"
        }
      ],
      "name": "submitTokenRegistration",
      "outputs": [],
      "stateMutability": "nonpayable",
      "type": "function"
    },
    {
      "inputs": [
        {
          "internalType": "enum SharedObjects.BalanceUpdateType",
          "name": "updateType",
          "type": "uint8"
        },
        {
          "internalType": "uint256",
          "name": "amount",
          "type": "uint256"
        }
      ],
      "name": "submitTokenUpdate",
      "outputs": [],
      "stateMutability": "nonpayable",
      "type": "function"
    },
    {
      "inputs": [],
      "name": "symbol",
      "outputs": [
        {
          "internalType": "string",
          "name": "",
          "type": "string"
        }
      ],
      "stateMutability": "view",
      "type": "function"
    },
    {
      "inputs": [
        {
          "internalType": "address",
          "name": "to",
          "type": "address"
        },
        {
          "internalType": "uint256",
          "name": "value",
          "type": "uint256"
        },
        {
          "internalType": "uint256",
          "name": "chainId",
          "type": "uint256"
        }
      ],
      "name": "teleport",
      "outputs": [
        {
          "internalType": "bool",
          "name": "",
          "type": "bool"
        }
      ],
      "stateMutability": "nonpayable",
      "type": "function"
    },
    {
      "inputs": [
        {
          "internalType": "address",
          "name": "to",
          "type": "address"
        },
        {
          "internalType": "uint256",
          "name": "value",
          "type": "uint256"
        },
        {
          "internalType": "uint256",
          "name": "destinationChainId",
          "type": "uint256"
        }
      ],
      "name": "teleportAtomic",
      "outputs": [
        {
          "internalType": "bool",
          "name": "",
          "type": "bool"
        }
      ],
      "stateMutability": "nonpayable",
      "type": "function"
    },
    {
      "inputs": [
        {
          "internalType": "address",
          "name": "from",
          "type": "address"
        },
        {
          "internalType": "address",
          "name": "to",
          "type": "address"
        },
        {
          "internalType": "uint256",
          "name": "value",
          "type": "uint256"
        },
        {
          "internalType": "uint256",
          "name": "destinationChainId",
          "type": "uint256"
        }
      ],
      "name": "teleportAtomicFrom",
      "outputs": [
        {
          "internalType": "bool",
          "name": "",
          "type": "bool"
        }
      ],
      "stateMutability": "nonpayable",
      "type": "function"
    },
    {
      "inputs": [
        {
          "internalType": "address",
          "name": "from",
          "type": "address"
        },
        {
          "internalType": "address",
          "name": "to",
          "type": "address"
        },
        {
          "internalType": "uint256",
          "name": "value",
          "type": "uint256"
        },
        {
          "internalType": "uint256",
          "name": "chainId",
          "type": "uint256"
        }
      ],
      "name": "teleportFrom",
      "outputs": [
        {
          "internalType": "bool",
          "name": "",
          "type": "bool"
        }
      ],
      "stateMutability": "nonpayable",
      "type": "function"
    },
    {
      "inputs": [],
      "name": "totalSupply",
      "outputs": [
        {
          "internalType": "uint256",
          "name": "",
          "type": "uint256"
        }
      ],
      "stateMutability": "view",
      "type": "function"
    },
    {
      "inputs": [
        {
          "internalType": "address",
          "name": "to",
          "type": "address"
        },
        {
          "internalType": "uint256",
          "name": "value",
          "type": "uint256"
        }
      ],
      "name": "transfer",
      "outputs": [
        {
          "internalType": "bool",
          "name": "",
          "type": "bool"
        }
      ],
      "stateMutability": "nonpayable",
      "type": "function"
    },
    {
      "inputs": [
        {
          "internalType": "address",
          "name": "from",
          "type": "address"
        },
        {
          "internalType": "address",
          "name": "to",
          "type": "address"
        },
        {
          "internalType": "uint256",
          "name": "value",
          "type": "uint256"
        }
      ],
      "name": "transferFrom",
      "outputs": [
        {
          "internalType": "bool",
          "name": "",
          "type": "bool"
        }
      ],
      "stateMutability": "nonpayable",
      "type": "function"
    },
    {
      "inputs": [
        {
          "internalType": "address",
          "name": "newOwner",
          "type": "address"
        }
      ],
      "name": "transferOwnership",
      "outputs": [],
      "stateMutability": "nonpayable",
      "type": "function"
    },
    {
      "inputs": [
        {
          "internalType": "address",
          "name": "to",
          "type": "address"
        },
        {
          "internalType": "uint256",
          "name": "amount",
          "type": "uint256"
        }
      ],
      "name": "unlock",
      "outputs": [
        {
          "internalType": "bool",
          "name": "",
          "type": "bool"
        }
      ],
      "stateMutability": "nonpayable",
      "type": "function"
    }
  ],
  "bytecode": "0x60806040523480156200001157600080fd5b5060405162003034380380620030348339810160408190526200003491620002c7565b600080546001600160a01b0319166001600160a01b03831617815583908390839033908185856005620000688382620003e5565b506006620000778282620003e5565b5050506001600160a01b038116620000a957604051631e4fbdf760e01b81526000600482015260240160405180910390fd5b620000b481620000f9565b506008620000c38682620003e5565b506009620000d28582620003e5565b50600a805460ff1916821515179055620000eb6200014b565b5050505050505050620004b1565b600780546001600160a01b038381166001600160a01b0319831681179093556040519116919082907f8be0079c531659141344cd1fd0a4f28419497f9722a3daafe3b4186f6b6457e090600090a35050565b7ff0c57e16840df040f15088dc2f81fe391c3923bec73e23a9662efc9c229c6a00805468010000000000000000900460ff16156200019c5760405163f92ee8a960e01b815260040160405180910390fd5b80546001600160401b0390811614620001fc5780546001600160401b0319166001600160401b0390811782556040519081527fc7f505b2f371ae2175ee4913f4499e1f2633a7b5936321eed1cdaeb6115181d29060200160405180910390a15b50565b634e487b7160e01b600052604160045260246000fd5b600082601f8301126200022757600080fd5b81516001600160401b0380821115620002445762000244620001ff565b604051601f8301601f19908116603f011681019082821181831017156200026f576200026f620001ff565b81604052838152602092508660208588010111156200028d57600080fd5b600091505b83821015620002b1578582018301518183018401529082019062000292565b6000602085830101528094505050505092915050565b600080600060608486031215620002dd57600080fd5b83516001600160401b0380821115620002f557600080fd5b620003038783880162000215565b945060208601519150808211156200031a57600080fd5b50620003298682870162000215565b604086015190935090506001600160a01b03811681146200034957600080fd5b809150509250925092565b600181811c908216806200036957607f821691505b6020821081036200038a57634e487b7160e01b600052602260045260246000fd5b50919050565b601f821115620003e0576000816000526020600020601f850160051c81016020861015620003bb5750805b601f850160051c820191505b81811015620003dc57828155600101620003c7565b5050505b505050565b81516001600160401b03811115620004015762000401620001ff565b620004198162000412845462000354565b8462000390565b602080601f831160018114620004515760008415620004385750858301515b600019600386901b1c1916600185901b178555620003dc565b600085815260208120601f198616915b82811015620004825788860151825594840194600190910190840162000461565b5085821015620004a15787850151600019600388901b60f8161c191681555b5050505050600190811b01905550565b612b7380620004c16000396000f3fe608060405234801561001057600080fd5b50600436106101c55760003560e01c80637eee288d116100fa5780639dc29fac1161009d5780639dc29fac146103f2578063a9059cbb14610405578063b247d94614610418578063be1ad65c14610429578063c0251d551461043c578063c6a690a4146103cc578063dd62ed3e1461044f578063e3ee8a4314610462578063f2fde38b1461047557600080fd5b80637eee288d1461035a5780638da5cb5b1461036d578063921e316814610375578063929ec53714610388578063953e3ef0146103b157806395d89b41146103c457806396bebd04146103cc57806399376402146103df57600080fd5b80632c080daf1161016d5780632c080daf146102875780632e30417b1461029a578063313ce567146102ad57806340c10f19146102ca578063556da1b9146102dd5780635f997c5b146102f05780636f181318146102f957806370a0823114610329578063715018a61461035257600080fd5b8062cf44ce146101ca57806306fdde03146101f2578063095ea7b3146102075780630e5ee7801461021a57806311f50c851461022f5780631624f6c61461024f57806318160ddd1461026257806323b872dd14610274575b600080fd5b6101dd6101d8366004612098565b610488565b60405190151581526020015b60405180910390f35b6101fa610654565b6040516101e99190612152565b6101dd610215366004612181565b6106e6565b61022d6102283660046121ad565b6106f4565b005b61024261023d3660046121cf565b61070a565b6040516101e991906121e8565b61022d61025d3660046122b4565b610778565b6004545b6040519081526020016101e9565b6101dd610282366004612327565b6108fa565b6101dd610295366004612368565b61091e565b61022d6102a83660046121cf565b6109e5565b600a54610100900460ff1660405160ff90911681526020016101e9565b61022d6102d8366004612181565b610a8f565b61022d6102eb3660046123ae565b610aac565b61026660015481565b61022d6103073660046123c9565b600080546001600160a01b0319166001600160a01b0392909216919091179055565b6102666103373660046123c9565b6001600160a01b031660009081526002602052604090205490565b61022d610cf0565b6101dd610368366004612181565b610d04565b610242610da1565b6101dd6103833660046123e6565b610db0565b6102666103963660046123c9565b6001600160a01b03166000908152600b602052604090205490565b6101dd6103bf366004612368565b610ee5565b6101fa610ffc565b61022d6103da366004612181565b61100b565b6101dd6103ed366004612098565b6110a2565b61022d610400366004612181565b6112fe565b6101dd610413366004612181565b61131b565b6000546001600160a01b0316610242565b6101dd6104373660046123e6565b611329565b61022d61044a366004612181565b611382565b61026661045d36600461241b565b61144a565b61022d6104703660046121cf565b611475565b61022d6104833660046123c9565b6115f3565b600080826001600160401b038111156104a3576104a36121fc565b6040519080825280602002602001820160405280156104dc57816020015b6104c9612021565b8152602001906001900390816104c15790505b50905060005b8381101561063e57368585838181106104fd576104fd612454565b905060600201905061051333826020013561162e565b6040805160c081018252600080825260208083018290523393830193909352916060820190610544908501856123c9565b6001600160a01b03168152602001306001600160a01b03168152602001836020013581525090506040518060e0016040528083604001358152602001600154815260200183600001602081019061059b91906123c9565b84602001356040516024016105b1929190612480565b60408051601f19818403018152918152602080830180516001600160e01b03166325afaf4160e21b179052918352805180830182526000808252848401919091528151808401835281815284830152815192830190915281526060820152608001829052845185908590811061062957610629612454565b602090810291909101015250506001016104e2565b5061064881611664565b60019150505b92915050565b60606008805461066390612499565b80601f016020809104026020016040519081016040528092919081815260200182805461068f90612499565b80156106dc5780601f106106b1576101008083540402835291602001916106dc565b820191906000526020600020905b8154815290600101906020018083116106bf57829003601f168201915b5050505050905090565b60003361064881858561168c565b6106fc61169e565b61070682826116d0565b5050565b600080546040516311f50c8560e01b8152600481018490526001600160a01b03909116906311f50c8590602401602060405180830381865afa158015610754573d6000803e3d6000fd5b505050506040513d601f19601f8201168201806040525081019061064e91906124d3565b7ff0c57e16840df040f15088dc2f81fe391c3923bec73e23a9662efc9c229c6a008054600160401b810460ff1615906001600160401b03166000811580156107bd5750825b90506000826001600160401b031660011480156107d95750303b155b9050811580156107e7575080155b156108055760405163f92ee8a960e01b815260040160405180910390fd5b845467ffffffffffffffff19166001178555831561082f57845460ff60401b1916600160401b1785555b6000610839611894565b905060006108456118ac565b905061084f6118c3565b600155600861085e8b82612538565b50600961086b8a82612538565b50610875826118d7565b600080546001600160a01b0319166001600160a01b039290921691909117905550600a805461ff00191661010060ff89160217905583156108f057845460ff60401b19168555604051600181527fc7f505b2f371ae2175ee4913f4499e1f2633a7b5936321eed1cdaeb6115181d29060200160405180910390a15b5050505050505050565b600033610908858285611929565b61091385858561197c565b506001949350505050565b60003361092c868286611929565b610936868561162e565b6040805160c081018252600080825260208201526001600160a01b03808916828401528716606082015230608082015260a0810186905290516109d89085906109859089908990602401612480565b60408051601f19818403018152918152602080830180516001600160e01b03166325afaf4160e21b17905281518082018352600080825283518084018552818152845193840190945282529190866119db565b5060019695505050505050565b6000546040516333932be560e11b81526001600160a01b039091169063672657ca90610a159033906004016121e8565b602060405180830381865afa158015610a32573d6000803e3d6000fd5b505050506040513d601f19601f82011682018060405250810190610a5691906125f7565b610a7b5760405162461bcd60e51b8152600401610a7290612619565b60405180910390fd5b610a8c610a86610da1565b8261162e565b50565b610a9761169e565b610aa18282611a13565b6107066001826116d0565b60005460408051631119527160e11b81529051610a8c926001600160a01b031691632232a4e29160048083019260209291908290030181865afa158015610af7573d6000803e3d6000fd5b505050506040513d601f19601f82011682018060405250810190610b1b9190612687565b60005460405163377890a160e11b81526001600160a01b0390911690636ef1214290610b49906004016126a0565b602060405180830381865afa158015610b66573d6000803e3d6000fd5b505050506040513d601f19601f82011682018060405250810190610b8a91906124d3565b604051806101400160405280610b9e610654565b8152602001610bab610ffc565b8152602001610bb960045490565b604051602001610bcb91815260200190565b604051602081830303815290604052815260200160008054906101000a90046001600160a01b03166001600160a01b0316633408e4706040518163ffffffff1660e01b8152600401602060405180830381865afa158015610c30573d6000803e3d6000fd5b505050506040513d601f19601f82011682018060405250810190610c549190612687565b8152602001306001600160a01b0316803b806020016040519081016040528181526000908060200190933c8152602001610c8c611a49565b81526001602082015260400160008152600a5460ff90811615156020830152861660409182015251610cc191906024016126db565b60408051601f198184030181529190526020810180516001600160e01b0316638b55462d60e01b179052611aa2565b610cf861169e565b610d0260006118d7565b565b6000610d0e610da1565b6001600160a01b0316836001600160a01b031614610d98576000610d328484611b19565b905080610d7c5760405162461bcd60e51b815260206004820152601860248201527763616e6e6f7420756e6c6f636b207468652061737365747360401b6044820152606401610a72565b610d8e610d87610da1565b858561197c565b600191505061064e565b50600192915050565b6007546001600160a01b031690565b6000610dbc338461162e565b6040805160c0810182526000808252602082015233818301526001600160a01b038616606082015230608082015260a081018590529051610913908490610e099088908890602401612480565b60408051601f198184030181529181526020820180516001600160e01b031663c0251d5560e01b17905251610e449089908990602401612480565b60408051601f198184030181529181526020820180516001600160e01b0316637eee288d60e01b17905251610e7f9033908a90602401612480565b60408051601f198184030181529181526020820180516001600160e01b03166331a9a42960e21b17905251602481018a90526044015b60408051601f198184030181529190526020810180516001600160e01b0316632e30417b60e01b179052866119db565b600033610ef3868286611929565b610efd868561162e565b6040805160c081018252600080825260208201526001600160a01b03808916828401528716606082015230608082015260a0810186905290516109d8908590610f4c9089908990602401612480565b60408051601f198184030181529181526020820180516001600160e01b031663c0251d5560e01b17905251610f87908a908a90602401612480565b60408051601f198184030181529181526020820180516001600160e01b0316637eee288d60e01b17905251610fc2908c908b90602401612480565b60408051601f198184030181529181526020820180516001600160e01b03166331a9a42960e21b17905251602481018b9052604401610eb5565b60606009805461066390612499565b6000546040516333932be560e11b81526001600160a01b039091169063672657ca9061103b9033906004016121e8565b602060405180830381865afa158015611058573d6000803e3d6000fd5b505050506040513d601f19601f8201168201806040525081019061107c91906125f7565b6110985760405162461bcd60e51b8152600401610a7290612619565b6107068282611a13565b600080826001600160401b038111156110bd576110bd6121fc565b6040519080825280602002602001820160405280156110f657816020015b6110e3612021565b8152602001906001900390816110db5790505b50905060005b8381101561063e573685858381811061111757611117612454565b905060600201905061112d33826020013561162e565b6040805160c08101825260008082526020808301829052339383019390935291606082019061115e908501856123c9565b6001600160a01b03168152602001306001600160a01b03168152602001836020013581525090506040518060e001604052808360400135815260200160015481526020018360000160208101906111b591906123c9565b84602001356040516024016111cb929190612480565b60408051601f19818403018152919052602080820180516001600160e01b031663c0251d5560e01b17905290825290810190611209908501856123c9565b846020013560405160240161121f929190612480565b60408051601f19818403018152918152602080830180516001600160e01b0316637eee288d60e01b17905291835251918101916112659133919087013590602401612480565b60408051601f19818403018152918152602080830180516001600160e01b03166331a9a42960e21b1790529183525185820135602482015291019060440160408051601f19818403018152919052602080820180516001600160e01b0316632e30417b60e01b1790529082520182905284518590859081106112e9576112e9612454565b602090810291909101015250506001016110fc565b61130661169e565b611310828261162e565b6107066000826116d0565b60003361064881858561197c565b6000611335338461162e565b6040805160c0810182526000808252602082015233818301526001600160a01b038616606082015230608082015260a0810185905290516109139084906109859088908890602401612480565b6000546040516333932be560e11b81526001600160a01b039091169063672657ca906113b29033906004016121e8565b602060405180830381865afa1580156113cf573d6000803e3d6000fd5b505050506040513d601f19601f820116820180604052508101906113f391906125f7565b61140f5760405162461bcd60e51b8152600401610a7290612619565b61142061141a610da1565b82611a13565b611428610da1565b6001600160a01b0316826001600160a01b031614610706576107068282611bd6565b6001600160a01b03918216600090815260036020908152604080832093909416825291909152205490565b6000546040516333932be560e11b81526001600160a01b039091169063672657ca906114a59033906004016121e8565b602060405180830381865afa1580156114c2573d6000803e3d6000fd5b505050506040513d601f19601f820116820180604052508101906114e691906125f7565b6115025760405162461bcd60e51b8152600401610a7290612619565b60008054906101000a90046001600160a01b03166001600160a01b0316632232a4e26040518163ffffffff1660e01b8152600401602060405180830381865afa158015611553573d6000803e3d6000fd5b505050506040513d601f19601f820116820180604052508101906115779190612687565b61157f611c6a565b146115e65760405162461bcd60e51b815260206004820152603160248201527f54686973206d6574686f64206f6e6c7920726563656976652063616c6c7320666044820152703937b69031b7b6b6b4ba1031b430b4b71760791b6064820152608401610a72565b6001819055610a8c611c7e565b6115fb61169e565b6001600160a01b038116611625576000604051631e4fbdf760e01b8152600401610a7291906121e8565b610a8c816118d7565b6001600160a01b038216611658576000604051634b637e8f60e11b8152600401610a7291906121e8565b61070682600083611d43565b6001546116835760405162461bcd60e51b8152600401610a72906127cd565b610a8c81611e5a565b6116998383836001611ecd565b505050565b336116a7610da1565b6001600160a01b031614610d02573360405163118cdaa760e01b8152600401610a7291906121e8565b6001546116db575050565b60005460408051631119527160e11b81529051610706926001600160a01b031691632232a4e29160048083019260209291908290030181865afa158015611726573d6000803e3d6000fd5b505050506040513d601f19601f8201168201806040525081019061174a9190612687565b60005460405163377890a160e11b81526001600160a01b0390911690636ef1214290611778906004016126a0565b602060405180830381865afa158015611795573d6000803e3d6000fd5b505050506040513d601f19601f820116820180604052508101906117b991906124d3565b60008054906101000a90046001600160a01b03166001600160a01b0316633408e4706040518163ffffffff1660e01b8152600401602060405180830381865afa15801561180a573d6000803e3d6000fd5b505050506040513d601f19601f8201168201806040525081019061182e9190612687565b600154868660405160200161184591815260200190565b60408051601f1981840301815290829052611865949392916024016127fc565b60408051601f198184030181529190526020810180516001600160e01b031663401c3df160e11b179052611aa2565b6000603436106118a9575060331936013560601c5b90565b6000604836106118a9575060471936013560601c90565b6000602036106118a95750601f1936013590565b600780546001600160a01b038381166001600160a01b0319831681179093556040519116919082907f8be0079c531659141344cd1fd0a4f28419497f9722a3daafe3b4186f6b6457e090600090a35050565b6000611935848461144a565b90506000198114611976578181101561196757828183604051637dc7a0d960e11b8152600401610a729392919061283b565b61197684848484036000611ecd565b50505050565b6001600160a01b0383166119a6576000604051634b637e8f60e11b8152600401610a7291906121e8565b6001600160a01b0382166119d057600060405163ec442f0560e01b8152600401610a7291906121e8565b611699838383611d43565b6001546119fa5760405162461bcd60e51b8152600401610a72906127cd565b611a0b866001548787878787611fa2565b505050505050565b6001600160a01b038216611a3d57600060405163ec442f0560e01b8152600401610a7291906121e8565b61070660008383611d43565b606060086009611a61600a5460ff6101009091041690565b604051602401611a73939291906128d9565b60408051601f198184030181529190526020810180516001600160e01b0316630b127b6360e11b179052919050565b60005460405163150b375f60e01b81526001600160a01b039091169063150b375f90611ad690869086908690600401612912565b6020604051808303816000875af1158015611af5573d6000803e3d6000fd5b505050506040513d601f19601f820116820180604052508101906119769190612687565b60006001600160a01b038316611b2e57600080fd5b6001600160a01b0383166000908152600b60205260409020548215801590611b565750808311155b611b9f5760405162461bcd60e51b815260206004820152601a6024820152794e6f7420656e6f7567682066756e647320746f20756e6c6f636b60301b6044820152606401610a72565b6001600160a01b0384166000908152600b602052604081208054859290611bc790849061295b565b90915550600195945050505050565b60008111611c265760405162461bcd60e51b815260206004820152601d60248201527f416d6f756e74206d7573742062652067726561746572207468616e20300000006044820152606401610a72565b6001600160a01b038216611c3957600080fd5b6001600160a01b0382166000908152600b602052604081208054839290611c6190849061296e565b90915550505050565b6000603436106118a9575060331936013590565b600154611cdf5760405162461bcd60e51b815260206004820152602960248201527f4f6e6c79207265676973746572207265736f75726365207768656e206974277360448201526808185c1c1c9bdd995960ba1b6064820152608401610a72565b60005460015460405163d4f951c760e01b815260048101919091523060248201526001600160a01b039091169063d4f951c790604401600060405180830381600087803b158015611d2f57600080fd5b505af1158015611976573d6000803e3d6000fd5b6001600160a01b038316611d6e578060046000828254611d63919061296e565b90915550611dcd9050565b6001600160a01b03831660009081526002602052604090205481811015611dae5783818360405163391434e360e21b8152600401610a729392919061283b565b6001600160a01b03841660009081526002602052604090209082900390555b6001600160a01b038216611de957600480548290039055611e08565b6001600160a01b03821660009081526002602052604090208054820190555b816001600160a01b0316836001600160a01b03167fddf252ad1be2c89b69c2b068fc378daa952ba7f163c4a11628f55a4df523b3ef83604051611e4d91815260200190565b60405180910390a3505050565b6000546040516313c0866360e21b81526001600160a01b0390911690634f02198c90611e8a9084906004016129db565b6020604051808303816000875af1158015611ea9573d6000803e3d6000fd5b505050506040513d601f19601f820116820180604052508101906107069190612687565b6001600160a01b038416611ef757600060405163e602df0560e01b8152600401610a7291906121e8565b6001600160a01b038316611f21576000604051634a1406b160e11b8152600401610a7291906121e8565b6001600160a01b038085166000908152600360209081526040808320938716835292905220829055801561197657826001600160a01b0316846001600160a01b03167f8c5be1e5ebec7d5bd14f71427d1e84f3dd0314c0f7b2291e5b200ac8c7c3b92584604051611f9491815260200190565b60405180910390a350505050565b600054604051631075c5d160e21b81526001600160a01b03909116906341d7174490611fde908a908a908a908a908a908a908a90600401612ac5565b6020604051808303816000875af1158015611ffd573d6000803e3d6000fd5b505050506040513d601f19601f820116820180604052508101906108f09190612687565b6040518060e001604052806000815260200160008019168152602001606081526020016060815260200160608152602001606081526020016120936040805160c08101909152806000815260006020820181905260408201819052606082018190526080820181905260a09091015290565b905290565b600080602083850312156120ab57600080fd5b82356001600160401b03808211156120c257600080fd5b818501915085601f8301126120d657600080fd5b8135818111156120e557600080fd5b8660206060830285010111156120fa57600080fd5b60209290920196919550909350505050565b6000815180845260005b8181101561213257602081850181015186830182015201612116565b506000602082860101526020601f19601f83011685010191505092915050565b602081526000612165602083018461210c565b9392505050565b6001600160a01b0381168114610a8c57600080fd5b6000806040838503121561219457600080fd5b823561219f8161216c565b946020939093013593505050565b600080604083850312156121c057600080fd5b82356002811061219f57600080fd5b6000602082840312156121e157600080fd5b5035919050565b6001600160a01b0391909116815260200190565b634e487b7160e01b600052604160045260246000fd5b600082601f83011261222357600080fd5b81356001600160401b038082111561223d5761223d6121fc565b604051601f8301601f19908116603f01168101908282118183101715612265576122656121fc565b8160405283815286602085880101111561227e57600080fd5b836020870160208301376000602085830101528094505050505092915050565b803560ff811681146122af57600080fd5b919050565b6000806000606084860312156122c957600080fd5b83356001600160401b03808211156122e057600080fd5b6122ec87838801612212565b9450602086013591508082111561230257600080fd5b5061230f86828701612212565b92505061231e6040850161229e565b90509250925092565b60008060006060848603121561233c57600080fd5b83356123478161216c565b925060208401356123578161216c565b929592945050506040919091013590565b6000806000806080858703121561237e57600080fd5b84356123898161216c565b935060208501356123998161216c565b93969395505050506040820135916060013590565b6000602082840312156123c057600080fd5b6121658261229e565b6000602082840312156123db57600080fd5b81356121658161216c565b6000806000606084860312156123fb57600080fd5b83356124068161216c565b95602085013595506040909401359392505050565b6000806040838503121561242e57600080fd5b82356124398161216c565b915060208301356124498161216c565b809150509250929050565b634e487b7160e01b600052603260045260246000fd5b634e487b7160e01b600052602160045260246000fd5b6001600160a01b03929092168252602082015260400190565b600181811c908216806124ad57607f821691505b6020821081036124cd57634e487b7160e01b600052602260045260246000fd5b50919050565b6000602082840312156124e557600080fd5b81516121658161216c565b601f821115611699576000816000526020600020601f850160051c810160208610156125195750805b601f850160051c820191505b81811015611a0b57828155600101612525565b81516001600160401b03811115612551576125516121fc565b6125658161255f8454612499565b846124f0565b602080601f83116001811461259a57600084156125825750858301515b600019600386901b1c1916600185901b178555611a0b565b600085815260208120601f198616915b828110156125c9578886015182559484019460019091019084016125aa565b50858210156125e75787850151600019600388901b60f8161c191681555b5050505050600190811b01905550565b60006020828403121561260957600080fd5b8151801515811461216557600080fd5b60208082526048908201527f5468697320697320612072656365697665206d6574686f642e204f6e6c79206560408201527f6e64706f696e742773206578656375746f722063616e2063616c6c20746869736060820152671036b2ba3437b21760c11b608082015260a00190565b60006020828403121561269957600080fd5b5051919050565b6020808252600d908201526c546f6b656e526567697374727960981b604082015260600190565b600681106126d7576126d761246a565b9052565b60208152600082516101408060208501526126fa61016085018361210c565b91506020850151601f1980868503016040870152612718848361210c565b93506040870151915080868503016060870152612735848361210c565b93506060870151608087015260808701519150808685030160a087015261275c848361210c565b935060a08701519150808685030160c08701525061277a838261210c565b92505060c085015161279060e086018215159052565b5060e08501516101006127a5818701836126c7565b86015190506101206127ba8682018315159052565b9095015160ff1693019290925250919050565b6020808252601590820152742a37b5b2b7103737ba103932b3b4b9ba32b932b21760591b604082015260600190565b8481528360208201526000600284106128175761281761246a565b83604083015260806060830152612831608083018461210c565b9695505050505050565b6001600160a01b039390931683526020830191909152604082015260600190565b6000815461286981612499565b80855260206001838116801561288657600181146128a0576128ce565b60ff1985168884015283151560051b8801830195506128ce565b866000528260002060005b858110156128c65781548a82018601529083019084016128ab565b890184019650505b505050505092915050565b6060815260006128ec606083018661285c565b82810360208401526128fe818661285c565b91505060ff83166040830152949350505050565b8381526001600160a01b038316602082015260606040820181905260009061293c9083018461210c565b95945050505050565b634e487b7160e01b600052601160045260246000fd5b8181038181111561064e5761064e612945565b8082018082111561064e5761064e612945565b8051600581106129935761299361246a565b8252602081810151908301526040808201516001600160a01b03908116918401919091526060808301518216908401526080808301519091169083015260a090810151910152565b600060208083018184528085518083526040925060408601915060408160051b87010184880160005b83811015612ab757603f198984030185528151610180815185528882015189860152878201518189870152612a3b8287018261210c565b91505060608083015186830382880152612a55838261210c565b9250505060808083015186830382880152612a70838261210c565b9250505060a08083015186830382880152612a8b838261210c565b9250505060c0808301519250612aa381870184612981565b509588019593505090860190600101612a04565b509098975050505050505050565b6000610180898352886020840152806040840152612ae58184018961210c565b90508281036060840152612af9818861210c565b90508281036080840152612b0d818761210c565b905082810360a0840152612b21818661210c565b915050612b3160c0830184612981565b9897505050505050505056fea2646970667358221220965e935c60d6a37492c46715fe1b360200347618bef2ab7faf93584b6bb5321864736f6c63430008180033",
  "linkReferences": {},
  "deployedLinkReferences": {}
}